{
	"data": {
		"bytecode": {
			"linkReferences": {},
			"object": "60806040523480156200001157600080fd5b506040516200532d3803806200532d8339818101604052810190620000379190620006f6565b600073ffffffffffffffffffffffffffffffffffffffff168773ffffffffffffffffffffffffffffffffffffffff1603620000a9576040517f08c379a0000000000000000000000000000000000000000000000000000000008152600401620000a0906200083f565b60405180910390fd5b600073ffffffffffffffffffffffffffffffffffffffff168673ffffffffffffffffffffffffffffffffffffffff16036200011b576040517f08c379a00000000000000000000000000000000000000000000000000000000081526004016200011290620008b1565b60405180910390fd5b6000851162000161576040517f08c379a0000000000000000000000000000000000000000000000000000000008152600401620001589062000923565b60405180910390fd5b60008411620001a7576040517f08c379a00000000000000000000000000000000000000000000000000000000081526004016200019e9062000995565b60405180910390fd5b60008211620001ed576040517f08c379a0000000000000000000000000000000000000000000000000000000008152600401620001e49062000a07565b60405180910390fd5b306000806101000a81548173ffffffffffffffffffffffffffffffffffffffff021916908373ffffffffffffffffffffffffffffffffffffffff16021790555087600260006101000a81548173ffffffffffffffffffffffffffffffffffffffff021916908373ffffffffffffffffffffffffffffffffffffffff160217905550600260009054906101000a900473ffffffffffffffffffffffffffffffffffffffff16600360006101000a81548173ffffffffffffffffffffffffffffffffffffffff021916908373ffffffffffffffffffffffffffffffffffffffff16021790555086600460006101000a81548173ffffffffffffffffffffffffffffffffffffffff021916908373ffffffffffffffffffffffffffffffffffffffff16021790555085600560006101000a81548173ffffffffffffffffffffffffffffffffffffffff021916908373ffffffffffffffffffffffffffffffffffffffff160217905550846001819055506001600560146101000a81548160ff021916908360ff1602179055506000600560156101000a81548160ff021916908360ff160217905550426006819055506000600960006101000a81548160ff021916908315150217905550604051806101200160405280858152602001848152602001838152602001600081526020016000815260200160008152602001600081526020016000815260200182815250600a6000820151816000015560208201518160010190816200041c919062000c6a565b5060408201518160020155606082015181600301556080820151816004015560a0820151816005015560c0820151816006015560e0820151816007015561010082015181600801559050503073ffffffffffffffffffffffffffffffffffffffff167f0d1802b86a0633c4679107d4313baeacab2fb7391348ca6485df3f40844b0b07604051620004ad9062000da1565b60405180910390a2505050505050505062000dc3565b6000604051905090565b600080fd5b600080fd5b600073ffffffffffffffffffffffffffffffffffffffff82169050919050565b60006200050482620004d7565b9050919050565b6200051681620004f7565b81146200052257600080fd5b50565b60008151905062000536816200050b565b92915050565b6000819050919050565b62000551816200053c565b81146200055d57600080fd5b50565b600081519050620005718162000546565b92915050565b600080fd5b600080fd5b6000601f19601f8301169050919050565b7f4e487b7100000000000000000000000000000000000000000000000000000000600052604160045260246000fd5b620005cc8262000581565b810181811067ffffffffffffffff82111715620005ee57620005ed62000592565b5b80604052505050565b600062000603620004c3565b9050620006118282620005c1565b919050565b600067ffffffffffffffff82111562000634576200063362000592565b5b6200063f8262000581565b9050602081019050919050565b60005b838110156200066c5780820151818401526020810190506200064f565b60008484015250505050565b60006200068f620006898462000616565b620005f7565b905082815260208101848484011115620006ae57620006ad6200057c565b5b620006bb8482856200064c565b509392505050565b600082601f830112620006db57620006da62000577565b5b8151620006ed84826020860162000678565b91505092915050565b600080600080600080600080610100898b0312156200071a5762000719620004cd565b5b60006200072a8b828c0162000525565b98505060206200073d8b828c0162000525565b9750506040620007508b828c0162000525565b9650506060620007638b828c0162000560565b9550506080620007768b828c0162000560565b94505060a089015167ffffffffffffffff8111156200079a5762000799620004d2565b5b620007a88b828c01620006c3565b93505060c0620007bb8b828c0162000560565b92505060e0620007ce8b828c0162000560565b9150509295985092959890939650565b600082825260208201905092915050565b7f4572726f723a20496e76616c6964204169726c696e6520616464726573730000600082015250565b600062000827601e83620007de565b91506200083482620007ef565b602082019050919050565b600060208201905081810360008301526200085a8162000818565b9050919050565b7f4572726f723a20496e76616c69646520437573746f6d65722061646472657373600082015250565b600062000899602083620007de565b9150620008a68262000861565b602082019050919050565b60006020820190508181036000830152620008cc816200088a565b9050919050565b7f4572726f723a20496e76616c6964205469636b65742023000000000000000000600082015250565b60006200090b601783620007de565b91506200091882620008d3565b602082019050919050565b600060208201905081810360008301526200093e81620008fc565b9050919050565b7f4572726f723a20496e76616c696420466c696768742023000000000000000000600082015250565b60006200097d601783620007de565b91506200098a8262000945565b602082019050919050565b60006020820190508181036000830152620009b0816200096e565b9050919050565b7f4572726f723a20496e76616c6964205469636b657420416d6f756e7400000000600082015250565b6000620009ef601c83620007de565b9150620009fc82620009b7565b602082019050919050565b6000602082019050818103600083015262000a2281620009e0565b9050919050565b600081519050919050565b7f4e487b7100000000000000000000000000000000000000000000000000000000600052602260045260246000fd5b6000600282049050600182168062000a7c57607f821691505b60208210810362000a925762000a9162000a34565b5b50919050565b60008190508160005260206000209050919050565b60006020601f8301049050919050565b600082821b905092915050565b60006008830262000afc7fffffffffffffffffffffffffffffffffffffffffffffffffffffffffffffffff8262000abd565b62000b08868362000abd565b95508019841693508086168417925050509392505050565b6000819050919050565b600062000b4b62000b4562000b3f846200053c565b62000b20565b6200053c565b9050919050565b6000819050919050565b62000b678362000b2a565b62000b7f62000b768262000b52565b84845462000aca565b825550505050565b600090565b62000b9662000b87565b62000ba381848462000b5c565b505050565b5b8181101562000bcb5762000bbf60008262000b8c565b60018101905062000ba9565b5050565b601f82111562000c1a5762000be48162000a98565b62000bef8462000aad565b8101602085101562000bff578190505b62000c1762000c0e8562000aad565b83018262000ba8565b50505b505050565b600082821c905092915050565b600062000c3f6000198460080262000c1f565b1980831691505092915050565b600062000c5a838362000c2c565b9150826002028217905092915050565b62000c758262000a29565b67ffffffffffffffff81111562000c915762000c9062000592565b5b62000c9d825462000a63565b62000caa82828562000bcf565b600060209050601f83116001811462000ce2576000841562000ccd578287015190505b62000cd9858262000c4c565b86555062000d49565b601f19841662000cf28662000a98565b60005b8281101562000d1c5784890151825560018201915060208501945060208101905062000cf5565b8683101562000d3c578489015162000d38601f89168262000c2c565b8355505b6001600288020188555050505b505050505050565b7f5469636b657420436f6e74726163740000000000000000000000000000000000600082015250565b600062000d89600f83620007de565b915062000d968262000d51565b602082019050919050565b6000602082019050818103600083015262000dbc8162000d7a565b9050919050565b61455a8062000dd36000396000f3fe6080604052600436106100555760003560e01c8063152855271461005a57806328700e6e14610071578063801c86f5146100a1578063b5545a3c146100de578063ca36385c146100fc578063d16c2cba1461011b575b600080fd5b34801561006657600080fd5b5061006f610139565b005b61008b600480360381019061008691906127bb565b6102b4565b604051610098919061283d565b60405180910390f35b3480156100ad57600080fd5b506100c860048036038101906100c3919061299e565b6108eb565b6040516100d5919061283d565b60405180910390f35b6100e6610a5e565b6040516100f3919061283d565b60405180910390f35b6101046111c8565b604051610112929190612a66565b60405180910390f35b610123611aa9565b604051610130919061283d565b60405180910390f35b600460009054906101000a900473ffffffffffffffffffffffffffffffffffffffff1673ffffffffffffffffffffffffffffffffffffffff163373ffffffffffffffffffffffffffffffffffffffff1614806101e25750600560009054906101000a900473ffffffffffffffffffffffffffffffffffffffff1673ffffffffffffffffffffffffffffffffffffffff163373ffffffffffffffffffffffffffffffffffffffff16145b610221576040517f08c379a000000000000000000000000000000000000000000000000000000000815260040161021890612b08565b60405180910390fd5b600061023e600560149054906101000a900460ff1660ff16611e2a565b9050600061025d600560159054906101000a900460ff1660ff16611f8a565b90507f7f9534bae335130d7523bed94596c5942b70a305e742e8064af42f87ae7dad84600154600a60000154600a6001018585600a600301546040516102a896959493929190612c30565b60405180910390a15050565b6000600260009054906101000a900473ffffffffffffffffffffffffffffffffffffffff1673ffffffffffffffffffffffffffffffffffffffff163373ffffffffffffffffffffffffffffffffffffffff1614610346576040517f08c379a000000000000000000000000000000000000000000000000000000000815260040161033d90612cf2565b60405180910390fd5b6000429050600160ff16600560149054906101000a900460ff1660ff16101580156103875750600260ff16600560149054906101000a900460ff1660ff1611155b6103c6576040517f08c379a00000000000000000000000000000000000000000000000000000000081526004016103bd90612d84565b60405180910390fd5b600560ff168660ff1614806103e15750600660ff168660ff16145b610420576040517f08c379a000000000000000000000000000000000000000000000000000000000815260040161041790612df0565b60405180910390fd5b600160ff16600560149054906101000a900460ff1660ff160361049a576000600560146101000a81548160ff021916908360ff160217905550806007819055507fde76133b24d9fcae5254a94bfa50b907d61b4eeb12f84fa63de7378c63e068ca6001546040516104919190612e5c565b60405180910390a15b6000479050600960009054906101000a900460ff161580156104d15750600160ff16600560159054906101000a900460ff1660ff16145b806104dc5750600081115b156108395760006104ef88888888612132565b9050600080600080600a600301548611156106f5576000610512868e60006121f3565b90506064816105219190612ee8565b60ff168761052f9190612f19565b9450848761053d9190612f5b565b9350600085111561061757600560009054906101000a900473ffffffffffffffffffffffffffffffffffffffff1673ffffffffffffffffffffffffffffffffffffffff168560405161058e90612fc0565b60006040518083038185875af1925050503d80600081146105cb576040519150601f19603f3d011682016040523d82523d6000602084013e6105d0565b606091505b50508093505082610616576040517f08c379a000000000000000000000000000000000000000000000000000000000815260040161060d90613021565b60405180910390fd5b5b60008411156106ef57600460009054906101000a900473ffffffffffffffffffffffffffffffffffffffff1673ffffffffffffffffffffffffffffffffffffffff168460405161066690612fc0565b60006040518083038185875af1925050503d80600081146106a3576040519150601f19603f3d011682016040523d82523d6000602084013e6106a8565b606091505b505080925050816106ee576040517f08c379a00000000000000000000000000000000000000000000000000000000081526004016106e59061308d565b60405180910390fd5b5b50610730565b6040517f08c379a00000000000000000000000000000000000000000000000000000000081526004016107279061311f565b60405180910390fd5b81806107395750805b610778576040517f08c379a000000000000000000000000000000000000000000000000000000000815260040161076f9061318b565b60405180910390fd5b8660088190555060008411801561078f5750600083115b156107b5576003600560156101000a81548160ff021916908360ff16021790555061081f565b6000841180156107c55750600083145b156107eb576002600560156101000a81548160ff021916908360ff16021790555061081e565b6000841480156107fb5750600083115b1561081d576004600560156101000a81548160ff021916908360ff1602179055505b5b5b83600a6004018190555082600a6005018190555050505050505b6003600560146101000a81548160ff021916908360ff160217905550816007819055506040518060400160405280600281526020017f4e41000000000000000000000000000000000000000000000000000000000000815250600a60010190816108a39190613342565b50600192507fde76133b24d9fcae5254a94bfa50b907d61b4eeb12f84fa63de7378c63e068ca6001546040516108d99190613460565b60405180910390a15050949350505050565b6000600560009054906101000a900473ffffffffffffffffffffffffffffffffffffffff1673ffffffffffffffffffffffffffffffffffffffff163373ffffffffffffffffffffffffffffffffffffffff161461097d576040517f08c379a0000000000000000000000000000000000000000000000000000000008152600401610974906134da565b60405180910390fd5b600360009054906101000a900473ffffffffffffffffffffffffffffffffffffffff1673ffffffffffffffffffffffffffffffffffffffff16632eb8a88b60008054906101000a900473ffffffffffffffffffffffffffffffffffffffff16846040518363ffffffff1660e01b81526004016109fa92919061353b565b6020604051808303816000875af1158015610a19573d6000803e3d6000fd5b505050506040513d601f19601f82011682018060405250810190610a3d9190613597565b90508015610a595781600a6001019081610a579190613342565b505b919050565b6000600560009054906101000a900473ffffffffffffffffffffffffffffffffffffffff1673ffffffffffffffffffffffffffffffffffffffff163373ffffffffffffffffffffffffffffffffffffffff1614610af0576040517f08c379a0000000000000000000000000000000000000000000000000000000008152600401610ae7906134da565b60405180910390fd5b600960009054906101000a900460ff1615610b40576040517f08c379a0000000000000000000000000000000000000000000000000000000008152600401610b3790613636565b60405180910390fd5b600560ff16600560149054906101000a900460ff1660ff1611610b98576040517f08c379a0000000000000000000000000000000000000000000000000000000008152600401610b8f906136a2565b60405180910390fd5b600460ff16600560149054906101000a900460ff1660ff1603610bf0576040517f08c379a0000000000000000000000000000000000000000000000000000000008152600401610be790613734565b60405180910390fd5b600160ff16600560159054906101000a900460ff1660ff1614610c48576040517f08c379a0000000000000000000000000000000000000000000000000000000008152600401610c3f906137a0565b60405180910390fd5b6000429050600080600080600360009054906101000a900473ffffffffffffffffffffffffffffffffffffffff1673ffffffffffffffffffffffffffffffffffffffff166350e20d77600a600001546040518263ffffffff1660e01b8152600401610cb391906137c0565b60c060405180830381865afa158015610cd0573d6000803e3d6000fd5b505050506040513d601f19601f82011682018060405250810190610cf49190613805565b95505094505093509350603c6018610d0c9190612f19565b8386610d189190612f5b565b1015610d59576040517f08c379a0000000000000000000000000000000000000000000000000000000008152600401610d5090613904565b60405180910390fd5b6000610d6785858585612132565b90506000610d77828760006121f3565b905060008160ff1611610dbf576040517f08c379a0000000000000000000000000000000000000000000000000000000008152600401610db690613970565b60405180910390fd5b6000606482610dce9190612ee8565b60ff16600a60030154610de19190612f19565b9050600081600a60030154610df69190612f5b565b90506000806000479050600a60030154811115610ff757606486610e1a9190612ee8565b60ff16600a60030154610e2d9190612f19565b945084600a60030154610e409190612f5b565b93506000851115610f1a57600560009054906101000a900473ffffffffffffffffffffffffffffffffffffffff1673ffffffffffffffffffffffffffffffffffffffff1685604051610e9190612fc0565b60006040518083038185875af1925050503d8060008114610ece576040519150601f19603f3d011682016040523d82523d6000602084013e610ed3565b606091505b50508093505082610f19576040517f08c379a0000000000000000000000000000000000000000000000000000000008152600401610f1090613a02565b60405180910390fd5b5b6000841115610ff257600460009054906101000a900473ffffffffffffffffffffffffffffffffffffffff1673ffffffffffffffffffffffffffffffffffffffff1684604051610f6990612fc0565b60006040518083038185875af1925050503d8060008114610fa6576040519150601f19603f3d011682016040523d82523d6000602084013e610fab565b606091505b50508092505081610ff1576040517f08c379a0000000000000000000000000000000000000000000000000000000008152600401610fe890613a94565b60405180910390fd5b5b611032565b6040517f08c379a000000000000000000000000000000000000000000000000000000000815260040161102990613b4c565b60405180910390fd5b828061103b5750815b61107a576040517f08c379a000000000000000000000000000000000000000000000000000000000815260040161107190613bde565b60405180910390fd5b6001600960006101000a81548160ff0219169083151502179055508b6008819055506000851180156110ac5750600084115b156110d2576003600560156101000a81548160ff021916908360ff16021790555061113c565b6000851180156110e25750600084145b15611108576002600560156101000a81548160ff021916908360ff16021790555061113b565b6000851480156111185750600084115b1561113a576004600560156101000a81548160ff021916908360ff1602179055505b5b5b84600a6004018190555083600a600501819055506003600560146101000a81548160ff021916908360ff1602179055504260078190555060075460088190555060019c507fcf25cb80c2593591b7debe7d7dbc914be276b5b7bacfae64ad3f306a07ea0f7c6001546040516111b19190613c4a565b60405180910390a150505050505050505050505090565b60006060600560009054906101000a900473ffffffffffffffffffffffffffffffffffffffff1673ffffffffffffffffffffffffffffffffffffffff163373ffffffffffffffffffffffffffffffffffffffff161461125c576040517f08c379a0000000000000000000000000000000000000000000000000000000008152600401611253906134da565b60405180910390fd5b6000429050600160ff16600560149054906101000a900460ff1660ff16036113ac57600360009054906101000a900473ffffffffffffffffffffffffffffffffffffffff1673ffffffffffffffffffffffffffffffffffffffff16634da75d4f60008054906101000a900473ffffffffffffffffffffffffffffffffffffffff166040518263ffffffff1660e01b81526004016112f99190613c78565b6000604051808303816000875af1158015611318573d6000803e3d6000fd5b505050506040513d6000823e3d601f19601f820116820180604052508101906113419190613d03565b80935081945050506000600560146101000a81548160ff021916908360ff160217905550806007819055507f025e8a2e026a8e044740a13a07990abc9e9ae34a60f00e858f5480f21f646de06001548360405161139f929190613d5f565b60405180910390a161145d565b600460ff16600560149054906101000a900460ff1660ff1603611404576040517f08c379a00000000000000000000000000000000000000000000000000000000081526004016113fb90613e01565b60405180910390fd5b600560ff16600560149054906101000a900460ff1660ff160361145c576040517f08c379a000000000000000000000000000000000000000000000000000000000815260040161145390613e6d565b60405180910390fd5b5b600960009054906101000a900460ff166118c0576000600360009054906101000a900473ffffffffffffffffffffffffffffffffffffffff1673ffffffffffffffffffffffffffffffffffffffff1663d9d2f547600a600001546040518263ffffffff1660e01b81526004016114d391906137c0565b602060405180830381865afa1580156114f0573d6000803e3d6000fd5b505050506040513d601f19601f820116820180604052508101906115149190613e8d565b9050600060ff168160ff16101580156115345750600260ff168160ff1611155b611573576040517f08c379a000000000000000000000000000000000000000000000000000000000815260040161156a90613f2c565b60405180910390fd5b600082600a600801541161158857600061159a565b82600a600801546115999190612f5b565b5b905060006115aa828460016121f3565b905060008160ff16116115f2576040517f08c379a00000000000000000000000000000000000000000000000000000000081526004016115e990613fbe565b60405180910390fd5b6004600560146101000a81548160ff021916908360ff160217905550836007819055506000806000806000479050600a60030154811061180c576064866116399190612ee8565b60ff16816116479190612f19565b945084816116559190612f5b565b9350600085111561172f57600560009054906101000a900473ffffffffffffffffffffffffffffffffffffffff1673ffffffffffffffffffffffffffffffffffffffff16856040516116a690612fc0565b60006040518083038185875af1925050503d80600081146116e3576040519150601f19603f3d011682016040523d82523d6000602084013e6116e8565b606091505b5050809350508261172e576040517f08c379a000000000000000000000000000000000000000000000000000000000815260040161172590614050565b60405180910390fd5b5b600084111561180757600460009054906101000a900473ffffffffffffffffffffffffffffffffffffffff1673ffffffffffffffffffffffffffffffffffffffff168460405161177e90612fc0565b60006040518083038185875af1925050503d80600081146117bb576040519150601f19603f3d011682016040523d82523d6000602084013e6117c0565b606091505b50508092505081611806576040517f08c379a00000000000000000000000000000000000000000000000000000000081526004016117fd90614050565b60405180910390fd5b5b611864565b6040518060600160405280603281526020016144f3603291399950896040517f08c379a000000000000000000000000000000000000000000000000000000000815260040161185b9190614070565b60405180910390fd5b828061186d5750815b6118ac576040517f08c379a00000000000000000000000000000000000000000000000000000000081526004016118a390614050565b60405180910390fd5b6118b6858561238a565b5050505050505050505b60058060146101000a81548160ff021916908360ff160217905550806007819055506040518060400160405280600281526020017f4e41000000000000000000000000000000000000000000000000000000000000815250600a60010190816119299190613342565b50600360009054906101000a900473ffffffffffffffffffffffffffffffffffffffff1673ffffffffffffffffffffffffffffffffffffffff166317b2197260008054906101000a900473ffffffffffffffffffffffffffffffffffffffff166040518263ffffffff1660e01b81526004016119a59190613c78565b6000604051808303816000875af11580156119c4573d6000803e3d6000fd5b505050506040513d6000823e3d601f19601f820116820180604052508101906119ed9190613d03565b8093508194505050828290611a38576040517f08c379a0000000000000000000000000000000000000000000000000000000008152600401611a2f9190614070565b60405180910390fd5b5060019250611a48600154612451565b604051602001611a589190614140565b60405160208183030381529060405291507f025e8a2e026a8e044740a13a07990abc9e9ae34a60f00e858f5480f21f646de060015483604051611a9c929190613d5f565b60405180910390a1509091565b6000600560009054906101000a900473ffffffffffffffffffffffffffffffffffffffff1673ffffffffffffffffffffffffffffffffffffffff163373ffffffffffffffffffffffffffffffffffffffff1614611b3b576040517f08c379a0000000000000000000000000000000000000000000000000000000008152600401611b32906134da565b60405180910390fd5b600090506000600a60020154905080341015611b8c576040517f08c379a0000000000000000000000000000000000000000000000000000000008152600401611b83906141d4565b60405180910390fd5b600360009054906101000a900473ffffffffffffffffffffffffffffffffffffffff1673ffffffffffffffffffffffffffffffffffffffff16638f00be4a60008054906101000a900473ffffffffffffffffffffffffffffffffffffffff16336040518363ffffffff1660e01b8152600401611c099291906141f4565b6020604051808303816000875af1158015611c28573d6000803e3d6000fd5b505050506040513d601f19601f82011682018060405250810190611c4c9190613597565b915081611c8e576040517f08c379a0000000000000000000000000000000000000000000000000000000008152600401611c8590614269565b60405180910390fd5b60008134611c9c9190612f5b565b90506000811115611d915760003373ffffffffffffffffffffffffffffffffffffffff1682604051611ccd90612fc0565b60006040518083038185875af1925050503d8060008114611d0a576040519150601f19603f3d011682016040523d82523d6000602084013e611d0f565b606091505b5050905080611d53576040517f08c379a0000000000000000000000000000000000000000000000000000000008152600401611d4a90614269565b60405180910390fd5b6002600560146101000a81548160ff021916908360ff1602179055506001600560156101000a81548160ff021916908360ff16021790555060019350505b81600a600301819055506002600560146101000a81548160ff021916908360ff160217905550426007819055506001600560156101000a81548160ff021916908360ff160217905550426008819055507f2e3adcd6802b3bab575fb11db537da427381ecaf1c001902e87af8957acc3234600a600001546001548385604051611e1d94939291906142d5565b60405180910390a1505090565b6060600160ff168203611e74576040518060400160405280600881526020017f52455345525645440000000000000000000000000000000000000000000000008152509050611f85565b600260ff168203611ebc576040518060400160405280600981526020017f434f4e4649524d454400000000000000000000000000000000000000000000008152509050611f85565b600460ff168203611f04576040518060400160405280601881526020017f43414e43454c4c4154494f4e2d494e2d50524f475245535300000000000000008152509050611f85565b600560ff168203611f4c576040518060400160405280600981526020017f43414e43454c4c454400000000000000000000000000000000000000000000008152509050611f85565b6040518060400160405280600781526020017f554e4b4e4f574e0000000000000000000000000000000000000000000000000081525090505b919050565b6060600060ff168203611fd4576040518060400160405280600781526020017f50454e44494e4700000000000000000000000000000000000000000000000000815250905061212d565b600160ff16820361201c576040518060400160405280600981526020017f434f4c4c45435445440000000000000000000000000000000000000000000000815250905061212d565b600260ff168203612064576040518060400160405280600881526020017f524546554e444544000000000000000000000000000000000000000000000000815250905061212d565b600360ff1682036120ac576040518060400160405280600581526020017f53504c4954000000000000000000000000000000000000000000000000000000815250905061212d565b600460ff1682036120f4576040518060400160405280600481526020017f5041494400000000000000000000000000000000000000000000000000000000815250905061212d565b6040518060400160405280600781526020017f554e4b4e4f574e0000000000000000000000000000000000000000000000000081525090505b919050565b6000600660ff168560ff160361215757603c60186121509190612f19565b90506121eb565b600660ff168560ff161080156121845750603c60186121769190612f19565b82856121829190612f5b565b115b1561219e57603c60186121979190612f19565b90506121eb565b600660ff168560ff1610156121e65783600560ff168660ff1614806121c95750600460ff168660ff16145b6121d357426121d5565b835b6121df9190612f5b565b90506121eb565b600090505b949350505050565b60006122346040518060400160405280601381526020017f74696d6542617369735365636f6e6473203d2000000000000000000000000000815250856125b0565b6122766040518060400160405280600f81526020017f666c69676874537461747573203d2000000000000000000000000000000000008152508460ff166125b0565b6122b56040518060400160405280601781526020017f69735469636b657443616e63656c6c6174696f6e203d200000000000000000008152508361264c565b600660ff168360ff16036122cc5760649050612383565b603c60186122da9190612f19565b84106122f657816122ec5760646122ef565b60645b9050612383565b603c600a6123049190612f19565b841015801561231f5750603c601861231c9190612f19565b84105b1561233a5781612330576028612333565b60505b9050612383565b603c60026123489190612f19565b84101580156123635750603c600a6123609190612f19565b84105b1561237e578161237457600a612377565b60285b9050612383565b600090505b9392505050565b6000426008819055506000831180156123a35750600082115b156123c9576003600560156101000a81548160ff021916908360ff160217905550612433565b6000831180156123d95750600082145b156123ff576002600560156101000a81548160ff021916908360ff160217905550612432565b60008314801561240f5750600082115b15612431576004600560156101000a81548160ff021916908360ff1602179055505b5b5b82600a6004018190555081600a600501819055506001905092915050565b606060008203612498576040518060400160405280600181526020017f300000000000000000000000000000000000000000000000000000000000000081525090506125ab565b600082905060005b600082146124ca5780806124b39061432d565b915050600a826124c39190614375565b91506124a0565b60008167ffffffffffffffff8111156124e6576124e5612873565b5b6040519080825280601f01601f1916602001820160405280156125185781602001600182028036833780820191505090505b5090505b600085146125a457818061252f906143a6565b925050600a8561253f91906143cf565b603061254b9190614400565b60f81b81838151811061256157612560614434565b5b60200101907effffffffffffffffffffffffffffffffffffffffffffffffffffffffffffff1916908160001a905350600a8561259d9190614375565b945061251c565b8093505050505b919050565b61264882826040516024016125c6929190614463565b6040516020818303038152906040527fb60e72cc000000000000000000000000000000000000000000000000000000007bffffffffffffffffffffffffffffffffffffffffffffffffffffffff19166020820180517bffffffffffffffffffffffffffffffffffffffffffffffffffffffff83818316178352505050506126e8565b5050565b6126e48282604051602401612662929190614493565b6040516020818303038152906040527fc3b55635000000000000000000000000000000000000000000000000000000007bffffffffffffffffffffffffffffffffffffffffffffffffffffffff19166020820180517bffffffffffffffffffffffffffffffffffffffffffffffffffffffff83818316178352505050506126e8565b5050565b6126ff816126f7612702612723565b63ffffffff16565b50565b60006a636f6e736f6c652e6c6f679050600080835160208501845afa505050565b61272e819050919050565b6127366144c3565b565b6000604051905090565b600080fd5b600080fd5b600060ff82169050919050565b6127628161274c565b811461276d57600080fd5b50565b60008135905061277f81612759565b92915050565b6000819050919050565b61279881612785565b81146127a357600080fd5b50565b6000813590506127b58161278f565b92915050565b600080600080608085870312156127d5576127d4612742565b5b60006127e387828801612770565b94505060206127f4878288016127a6565b9350506040612805878288016127a6565b9250506060612816878288016127a6565b91505092959194509250565b60008115159050919050565b61283781612822565b82525050565b6000602082019050612852600083018461282e565b92915050565b600080fd5b600080fd5b6000601f19601f8301169050919050565b7f4e487b7100000000000000000000000000000000000000000000000000000000600052604160045260246000fd5b6128ab82612862565b810181811067ffffffffffffffff821117156128ca576128c9612873565b5b80604052505050565b60006128dd612738565b90506128e982826128a2565b919050565b600067ffffffffffffffff82111561290957612908612873565b5b61291282612862565b9050602081019050919050565b82818337600083830152505050565b600061294161293c846128ee565b6128d3565b90508281526020810184848401111561295d5761295c61285d565b5b61296884828561291f565b509392505050565b600082601f83011261298557612984612858565b5b813561299584826020860161292e565b91505092915050565b6000602082840312156129b4576129b3612742565b5b600082013567ffffffffffffffff8111156129d2576129d1612747565b5b6129de84828501612970565b91505092915050565b600081519050919050565b600082825260208201905092915050565b60005b83811015612a21578082015181840152602081019050612a06565b60008484015250505050565b6000612a38826129e7565b612a4281856129f2565b9350612a52818560208601612a03565b612a5b81612862565b840191505092915050565b6000604082019050612a7b600083018561282e565b8181036020830152612a8d8184612a2d565b90509392505050565b7f4f6e6c79204169726c696e6520466c69676874204f70657261746f72202f205460008201527f69636b657420427579657220616c6c6f77656400000000000000000000000000602082015250565b6000612af26033836129f2565b9150612afd82612a96565b604082019050919050565b60006020820190508181036000830152612b2181612ae5565b9050919050565b612b3181612785565b82525050565b7f4e487b7100000000000000000000000000000000000000000000000000000000600052602260045260246000fd5b60006002820490506001821680612b7e57607f821691505b602082108103612b9157612b90612b37565b5b50919050565b60008190508160005260206000209050919050565b60008154612bb981612b66565b612bc381866129f2565b94506001821660008114612bde5760018114612bf457612c27565b60ff198316865281151560200286019350612c27565b612bfd85612b97565b60005b83811015612c1f57815481890152600182019150602081019050612c00565b808801955050505b50505092915050565b600060c082019050612c456000830189612b28565b612c526020830188612b28565b8181036040830152612c648187612bac565b90508181036060830152612c788186612a2d565b90508181036080830152612c8c8185612a2d565b9050612c9b60a0830184612b28565b979650505050505050565b7f4f6e6c79204169726c696e6520436f6e747261637420616c6c6f776564000000600082015250565b6000612cdc601d836129f2565b9150612ce782612ca6565b602082019050919050565b60006020820190508181036000830152612d0b81612ccf565b9050919050565b7f4552523a2043616e6e6f7420636c6f73652064756520746f205469636b65742060008201527f7374617475732028564f49442f434c4f5345442f43414e43454c4c4544290000602082015250565b6000612d6e603e836129f2565b9150612d7982612d12565b604082019050919050565b60006020820190508181036000830152612d9d81612d61565b9050919050565b7f4552523a20496e76616c696420466c6967687420737461747573000000000000600082015250565b6000612dda601a836129f2565b9150612de582612da4565b602082019050919050565b60006020820190508181036000830152612e0981612dcd565b9050919050565b7f564f4944205469636b6574000000000000000000000000000000000000000000600082015250565b6000612e46600b836129f2565b9150612e5182612e10565b602082019050919050565b6000604082019050612e716000830184612b28565b8181036020830152612e8281612e39565b905092915050565b7f4e487b7100000000000000000000000000000000000000000000000000000000600052601260045260246000fd5b7f4e487b7100000000000000000000000000000000000000000000000000000000600052601160045260246000fd5b6000612ef38261274c565b9150612efe8361274c565b925082612f0e57612f0d612e8a565b5b828204905092915050565b6000612f2482612785565b9150612f2f83612785565b9250828202612f3d81612785565b91508282048414831517612f5457612f53612eb9565b5b5092915050565b6000612f6682612785565b9150612f7183612785565b9250828203905081811115612f8957612f88612eb9565b5b92915050565b600081905092915050565b50565b6000612faa600083612f8f565b9150612fb582612f9a565b600082019050919050565b6000612fcb82612f9d565b9150819050919050565b7f4552523a20526566756e64206661696c65640000000000000000000000000000600082015250565b600061300b6012836129f2565b915061301682612fd5565b602082019050919050565b6000602082019050818103600083015261303a81612ffe565b9050919050565b7f4552523a205061796d656e74206661696c656400000000000000000000000000600082015250565b60006130776013836129f2565b915061308282613041565b602082019050919050565b600060208201905081810360008301526130a68161306a565b9050919050565b7f4552523a20496e73756666696369656e742066756e647320746f20636c6f736560008201527f207469636b657400000000000000000000000000000000000000000000000000602082015250565b60006131096027836129f2565b9150613114826130ad565b604082019050919050565b60006020820190508181036000830152613138816130fc565b9050919050565b7f4552523a20436c6f7365205469636b6574206661696c65640000000000000000600082015250565b60006131756018836129f2565b91506131808261313f565b602082019050919050565b600060208201905081810360008301526131a481613168565b9050919050565b60006020601f8301049050919050565b600082821b905092915050565b6000600883026131f87fffffffffffffffffffffffffffffffffffffffffffffffffffffffffffffffff826131bb565b61320286836131bb565b95508019841693508086168417925050509392505050565b6000819050919050565b600061323f61323a61323584612785565b61321a565b612785565b9050919050565b6000819050919050565b61325983613224565b61326d61326582613246565b8484546131c8565b825550505050565b600090565b613282613275565b61328d818484613250565b505050565b5b818110156132b1576132a660008261327a565b600181019050613293565b5050565b601f8211156132f6576132c781612b97565b6132d0846131ab565b810160208510156132df578190505b6132f36132eb856131ab565b830182613292565b50505b505050565b600082821c905092915050565b6000613319600019846008026132fb565b1980831691505092915050565b60006133328383613308565b9150826002028217905092915050565b61334b826129e7565b67ffffffffffffffff81111561336457613363612873565b5b61336e8254612b66565b6133798282856132b5565b600060209050601f8311600181146133ac576000841561339a578287015190505b6133a48582613326565b86555061340c565b601f1984166133ba86612b97565b60005b828110156133e2578489015182556001820191506020850194506020810190506133bd565b868310156133ff57848901516133fb601f891682613308565b8355505b6001600288020188555050505b505050505050565b7f494e464f3a205469636b657420436c6f73656400000000000000000000000000600082015250565b600061344a6013836129f2565b915061345582613414565b602082019050919050565b60006040820190506134756000830184612b28565b81810360208301526134868161343d565b905092915050565b7f4f6e6c79205469636b657420427579657220616c6c6f77656400000000000000600082015250565b60006134c46019836129f2565b91506134cf8261348e565b602082019050919050565b600060208201905081810360008301526134f3816134b7565b9050919050565b600073ffffffffffffffffffffffffffffffffffffffff82169050919050565b6000613525826134fa565b9050919050565b6135358161351a565b82525050565b6000604082019050613550600083018561352c565b81810360208301526135628184612a2d565b90509392505050565b61357481612822565b811461357f57600080fd5b50565b6000815190506135918161356b565b92915050565b6000602082840312156135ad576135ac612742565b5b60006135bb84828501613582565b91505092915050565b7f4552523a20526566756e6420636c61696d20616c72656164792070726f63657360008201527f7365640000000000000000000000000000000000000000000000000000000000602082015250565b60006136206023836129f2565b915061362b826135c4565b604082019050919050565b6000602082019050818103600083015261364f81613613565b9050919050565b7f4552523a205469636b657420616c72656164792043616e63656c6c6564000000600082015250565b600061368c601d836129f2565b915061369782613656565b602082019050919050565b600060208201905081810360008301526136bb8161367f565b9050919050565b7f4552523a205469636b65742043414e43454c4c4154494f4e20697320696e207060008201527f726f677265737300000000000000000000000000000000000000000000000000602082015250565b600061371e6027836129f2565b9150613729826136c2565b604082019050919050565b6000602082019050818103600083015261374d81613711565b9050919050565b7f4552523a20526566756e64206e6f74206170706c696361626c65000000000000600082015250565b600061378a601a836129f2565b915061379582613754565b602082019050919050565b600060208201905081810360008301526137b98161377d565b9050919050565b60006020820190506137d56000830184612b28565b92915050565b6000815190506137ea81612759565b92915050565b6000815190506137ff8161278f565b92915050565b60008060008060008060c0878903121561382257613821612742565b5b600061383089828a016137db565b965050602061384189828a016137f0565b955050604061385289828a016137f0565b945050606061386389828a016137f0565b935050608061387489828a016137f0565b92505060a061388589828a016137f0565b9150509295509295509295565b7f4552523a205469636b6574206e6f7420656c6c696769626c6520666f7220636c60008201527f61696d0000000000000000000000000000000000000000000000000000000000602082015250565b60006138ee6023836129f2565b91506138f982613892565b604082019050919050565b6000602082019050818103600083015261391d816138e1565b9050919050565b7f4552523a20436c61696d206973206e6f742076616c6964000000000000000000600082015250565b600061395a6017836129f2565b915061396582613924565b602082019050919050565b600060208201905081810360008301526139898161394d565b9050919050565b7f4552523a20526566756e642063616c6c206661696c65642e20436f6e7461637460008201527f20637573746f6d657220737570706f72742e0000000000000000000000000000602082015250565b60006139ec6032836129f2565b91506139f782613990565b604082019050919050565b60006020820190508181036000830152613a1b816139df565b9050919050565b7f4552523a205061796d656e74206661696c65642e20436f6e746163742063757360008201527f746f6d657220737570706f72742e000000000000000000000000000000000000602082015250565b6000613a7e602e836129f2565b9150613a8982613a22565b604082019050919050565b60006020820190508181036000830152613aad81613a71565b9050919050565b7f4552523a20496e73756666696369656e742066756e647320746f20736574746c60008201527f6520636c61696d2e20436f6e7461637420637573746f6d657220737570706f7260208201527f742e000000000000000000000000000000000000000000000000000000000000604082015250565b6000613b366042836129f2565b9150613b4182613ab4565b606082019050919050565b60006020820190508181036000830152613b6581613b29565b9050919050565b7f4552523a20526566756e6420636c61696d206661696c65642e20436f6e74616360008201527f7420637573746f6d657220737570706f72742e00000000000000000000000000602082015250565b6000613bc86033836129f2565b9150613bd382613b6c565b604082019050919050565b60006020820190508181036000830152613bf781613bbb565b9050919050565b7f494e464f3a205469636b657420526566756e6420436c61696d65640000000000600082015250565b6000613c34601b836129f2565b9150613c3f82613bfe565b602082019050919050565b6000604082019050613c5f6000830184612b28565b8181036020830152613c7081613c27565b905092915050565b6000602082019050613c8d600083018461352c565b92915050565b6000613ca6613ca1846128ee565b6128d3565b905082815260208101848484011115613cc257613cc161285d565b5b613ccd848285612a03565b509392505050565b600082601f830112613cea57613ce9612858565b5b8151613cfa848260208601613c93565b91505092915050565b60008060408385031215613d1a57613d19612742565b5b6000613d2885828601613582565b925050602083015167ffffffffffffffff811115613d4957613d48612747565b5b613d5585828601613cd5565b9150509250929050565b6000604082019050613d746000830185612b28565b8181036020830152613d868184612a2d565b90509392505050565b7f4572723a20507265762043414e43454c4c4154494f4e20494e2050524f47524560008201527f5353000000000000000000000000000000000000000000000000000000000000602082015250565b6000613deb6022836129f2565b9150613df682613d8f565b604082019050919050565b60006020820190508181036000830152613e1a81613dde565b9050919050565b7f4572723a205469636b657420616c72656164792043414e43454c4c4544000000600082015250565b6000613e57601d836129f2565b9150613e6282613e21565b602082019050919050565b60006020820190508181036000830152613e8681613e4a565b9050919050565b600060208284031215613ea357613ea2612742565b5b6000613eb1848285016137db565b91505092915050565b7f4552523a205469636b65742063616e6e6f742062652063616e63656c6c65642e60008201527f20436865636b20466c6967687420737461747573000000000000000000000000602082015250565b6000613f166034836129f2565b9150613f2182613eba565b604082019050919050565b60006020820190508181036000830152613f4581613f09565b9050919050565b7f4552523a205469636b65742063616e63656c6c6174696f6e2077696e646f772060008201527f636c6f7365640000000000000000000000000000000000000000000000000000602082015250565b6000613fa86026836129f2565b9150613fb382613f4c565b604082019050919050565b60006020820190508181036000830152613fd781613f9b565b9050919050565b7f4552523a205469636b65742063616e63656c6c6174696f6e206661696c65642e60008201527f20436f6e7461637420637573746f6d657220737570706f72742e000000000000602082015250565b600061403a603a836129f2565b915061404582613fde565b604082019050919050565b600060208201905081810360008301526140698161402d565b9050919050565b6000602082019050818103600083015261408a8184612a2d565b905092915050565b600081905092915050565b7f494e464f3a205469636b65742043616e63656c6c65642e205469636b6574202360008201527f2000000000000000000000000000000000000000000000000000000000000000602082015250565b60006140f9602183614092565b91506141048261409d565b602182019050919050565b600061411a826129e7565b6141248185614092565b9350614134818560208601612a03565b80840191505092915050565b600061414b826140ec565b9150614157828461410f565b915081905092915050565b7f496e73756666696369656e7420416d6f756e742070726f766964656420746f2060008201527f636f6d706c657465207075726368617365000000000000000000000000000000602082015250565b60006141be6031836129f2565b91506141c982614162565b604082019050919050565b600060208201905081810360008301526141ed816141b1565b9050919050565b6000604082019050614209600083018561352c565b614216602083018461352c565b9392505050565b7f4552523a205469636b6574207075726368617365206661696c65640000000000600082015250565b6000614253601b836129f2565b915061425e8261421d565b602082019050919050565b6000602082019050818103600083015261428281614246565b9050919050565b7f21205469636b6574205061796d656e7420436f6e6669726d6564202100000000600082015250565b60006142bf601c836129f2565b91506142ca82614289565b602082019050919050565b600060a0820190506142ea6000830187612b28565b6142f76020830186612b28565b6143046040830185612b28565b6143116060830184612b28565b8181036080830152614322816142b2565b905095945050505050565b600061433882612785565b91507fffffffffffffffffffffffffffffffffffffffffffffffffffffffffffffffff820361436a57614369612eb9565b5b600182019050919050565b600061438082612785565b915061438b83612785565b92508261439b5761439a612e8a565b5b828204905092915050565b60006143b182612785565b9150600082036143c4576143c3612eb9565b5b600182039050919050565b60006143da82612785565b91506143e583612785565b9250826143f5576143f4612e8a565b5b828206905092915050565b600061440b82612785565b915061441683612785565b925082820190508082111561442e5761442d612eb9565b5b92915050565b7f4e487b7100000000000000000000000000000000000000000000000000000000600052603260045260246000fd5b6000604082019050818103600083015261447d8185612a2d565b905061448c6020830184612b28565b9392505050565b600060408201905081810360008301526144ad8185612a2d565b90506144bc602083018461282e565b9392505050565b7f4e487b7100000000000000000000000000000000000000000000000000000000600052605160045260246000fdfe4552523a20496e73756666696369656e742066756e64732e20436f6e7461637420637573746f6d657220737570706f72742ea2646970667358221220e1e04eed2a45cffad3b78d2fb15cd4de9eef8feb6ba8aa08eb43c31cd109184864736f6c63430008120033",
			"opcodes": "PUSH1 0x80 PUSH1 0x40 MSTORE CALLVALUE DUP1 ISZERO PUSH3 0x11 JUMPI PUSH1 0x0 DUP1 REVERT JUMPDEST POP PUSH1 0x40 MLOAD PUSH3 0x532D CODESIZE SUB DUP1 PUSH3 0x532D DUP4 CODECOPY DUP2 DUP2 ADD PUSH1 0x40 MSTORE DUP2 ADD SWAP1 PUSH3 0x37 SWAP2 SWAP1 PUSH3 0x6F6 JUMP JUMPDEST PUSH1 0x0 PUSH20 0xFFFFFFFFFFFFFFFFFFFFFFFFFFFFFFFFFFFFFFFF AND DUP8 PUSH20 0xFFFFFFFFFFFFFFFFFFFFFFFFFFFFFFFFFFFFFFFF AND SUB PUSH3 0xA9 JUMPI PUSH1 0x40 MLOAD PUSH32 0x8C379A000000000000000000000000000000000000000000000000000000000 DUP2 MSTORE PUSH1 0x4 ADD PUSH3 0xA0 SWAP1 PUSH3 0x83F JUMP JUMPDEST PUSH1 0x40 MLOAD DUP1 SWAP2 SUB SWAP1 REVERT JUMPDEST PUSH1 0x0 PUSH20 0xFFFFFFFFFFFFFFFFFFFFFFFFFFFFFFFFFFFFFFFF AND DUP7 PUSH20 0xFFFFFFFFFFFFFFFFFFFFFFFFFFFFFFFFFFFFFFFF AND SUB PUSH3 0x11B JUMPI PUSH1 0x40 MLOAD PUSH32 0x8C379A000000000000000000000000000000000000000000000000000000000 DUP2 MSTORE PUSH1 0x4 ADD PUSH3 0x112 SWAP1 PUSH3 0x8B1 JUMP JUMPDEST PUSH1 0x40 MLOAD DUP1 SWAP2 SUB SWAP1 REVERT JUMPDEST PUSH1 0x0 DUP6 GT PUSH3 0x161 JUMPI PUSH1 0x40 MLOAD PUSH32 0x8C379A000000000000000000000000000000000000000000000000000000000 DUP2 MSTORE PUSH1 0x4 ADD PUSH3 0x158 SWAP1 PUSH3 0x923 JUMP JUMPDEST PUSH1 0x40 MLOAD DUP1 SWAP2 SUB SWAP1 REVERT JUMPDEST PUSH1 0x0 DUP5 GT PUSH3 0x1A7 JUMPI PUSH1 0x40 MLOAD PUSH32 0x8C379A000000000000000000000000000000000000000000000000000000000 DUP2 MSTORE PUSH1 0x4 ADD PUSH3 0x19E SWAP1 PUSH3 0x995 JUMP JUMPDEST PUSH1 0x40 MLOAD DUP1 SWAP2 SUB SWAP1 REVERT JUMPDEST PUSH1 0x0 DUP3 GT PUSH3 0x1ED JUMPI PUSH1 0x40 MLOAD PUSH32 0x8C379A000000000000000000000000000000000000000000000000000000000 DUP2 MSTORE PUSH1 0x4 ADD PUSH3 0x1E4 SWAP1 PUSH3 0xA07 JUMP JUMPDEST PUSH1 0x40 MLOAD DUP1 SWAP2 SUB SWAP1 REVERT JUMPDEST ADDRESS PUSH1 0x0 DUP1 PUSH2 0x100 EXP DUP2 SLOAD DUP2 PUSH20 0xFFFFFFFFFFFFFFFFFFFFFFFFFFFFFFFFFFFFFFFF MUL NOT AND SWAP1 DUP4 PUSH20 0xFFFFFFFFFFFFFFFFFFFFFFFFFFFFFFFFFFFFFFFF AND MUL OR SWAP1 SSTORE POP DUP8 PUSH1 0x2 PUSH1 0x0 PUSH2 0x100 EXP DUP2 SLOAD DUP2 PUSH20 0xFFFFFFFFFFFFFFFFFFFFFFFFFFFFFFFFFFFFFFFF MUL NOT AND SWAP1 DUP4 PUSH20 0xFFFFFFFFFFFFFFFFFFFFFFFFFFFFFFFFFFFFFFFF AND MUL OR SWAP1 SSTORE POP PUSH1 0x2 PUSH1 0x0 SWAP1 SLOAD SWAP1 PUSH2 0x100 EXP SWAP1 DIV PUSH20 0xFFFFFFFFFFFFFFFFFFFFFFFFFFFFFFFFFFFFFFFF AND PUSH1 0x3 PUSH1 0x0 PUSH2 0x100 EXP DUP2 SLOAD DUP2 PUSH20 0xFFFFFFFFFFFFFFFFFFFFFFFFFFFFFFFFFFFFFFFF MUL NOT AND SWAP1 DUP4 PUSH20 0xFFFFFFFFFFFFFFFFFFFFFFFFFFFFFFFFFFFFFFFF AND MUL OR SWAP1 SSTORE POP DUP7 PUSH1 0x4 PUSH1 0x0 PUSH2 0x100 EXP DUP2 SLOAD DUP2 PUSH20 0xFFFFFFFFFFFFFFFFFFFFFFFFFFFFFFFFFFFFFFFF MUL NOT AND SWAP1 DUP4 PUSH20 0xFFFFFFFFFFFFFFFFFFFFFFFFFFFFFFFFFFFFFFFF AND MUL OR SWAP1 SSTORE POP DUP6 PUSH1 0x5 PUSH1 0x0 PUSH2 0x100 EXP DUP2 SLOAD DUP2 PUSH20 0xFFFFFFFFFFFFFFFFFFFFFFFFFFFFFFFFFFFFFFFF MUL NOT AND SWAP1 DUP4 PUSH20 0xFFFFFFFFFFFFFFFFFFFFFFFFFFFFFFFFFFFFFFFF AND MUL OR SWAP1 SSTORE POP DUP5 PUSH1 0x1 DUP2 SWAP1 SSTORE POP PUSH1 0x1 PUSH1 0x5 PUSH1 0x14 PUSH2 0x100 EXP DUP2 SLOAD DUP2 PUSH1 0xFF MUL NOT AND SWAP1 DUP4 PUSH1 0xFF AND MUL OR SWAP1 SSTORE POP PUSH1 0x0 PUSH1 0x5 PUSH1 0x15 PUSH2 0x100 EXP DUP2 SLOAD DUP2 PUSH1 0xFF MUL NOT AND SWAP1 DUP4 PUSH1 0xFF AND MUL OR SWAP1 SSTORE POP TIMESTAMP PUSH1 0x6 DUP2 SWAP1 SSTORE POP PUSH1 0x0 PUSH1 0x9 PUSH1 0x0 PUSH2 0x100 EXP DUP2 SLOAD DUP2 PUSH1 0xFF MUL NOT AND SWAP1 DUP4 ISZERO ISZERO MUL OR SWAP1 SSTORE POP PUSH1 0x40 MLOAD DUP1 PUSH2 0x120 ADD PUSH1 0x40 MSTORE DUP1 DUP6 DUP2 MSTORE PUSH1 0x20 ADD DUP5 DUP2 MSTORE PUSH1 0x20 ADD DUP4 DUP2 MSTORE PUSH1 0x20 ADD PUSH1 0x0 DUP2 MSTORE PUSH1 0x20 ADD PUSH1 0x0 DUP2 MSTORE PUSH1 0x20 ADD PUSH1 0x0 DUP2 MSTORE PUSH1 0x20 ADD PUSH1 0x0 DUP2 MSTORE PUSH1 0x20 ADD PUSH1 0x0 DUP2 MSTORE PUSH1 0x20 ADD DUP3 DUP2 MSTORE POP PUSH1 0xA PUSH1 0x0 DUP3 ADD MLOAD DUP2 PUSH1 0x0 ADD SSTORE PUSH1 0x20 DUP3 ADD MLOAD DUP2 PUSH1 0x1 ADD SWAP1 DUP2 PUSH3 0x41C SWAP2 SWAP1 PUSH3 0xC6A JUMP JUMPDEST POP PUSH1 0x40 DUP3 ADD MLOAD DUP2 PUSH1 0x2 ADD SSTORE PUSH1 0x60 DUP3 ADD MLOAD DUP2 PUSH1 0x3 ADD SSTORE PUSH1 0x80 DUP3 ADD MLOAD DUP2 PUSH1 0x4 ADD SSTORE PUSH1 0xA0 DUP3 ADD MLOAD DUP2 PUSH1 0x5 ADD SSTORE PUSH1 0xC0 DUP3 ADD MLOAD DUP2 PUSH1 0x6 ADD SSTORE PUSH1 0xE0 DUP3 ADD MLOAD DUP2 PUSH1 0x7 ADD SSTORE PUSH2 0x100 DUP3 ADD MLOAD DUP2 PUSH1 0x8 ADD SSTORE SWAP1 POP POP ADDRESS PUSH20 0xFFFFFFFFFFFFFFFFFFFFFFFFFFFFFFFFFFFFFFFF AND PUSH32 0xD1802B86A0633C4679107D4313BAEACAB2FB7391348CA6485DF3F40844B0B07 PUSH1 0x40 MLOAD PUSH3 0x4AD SWAP1 PUSH3 0xDA1 JUMP JUMPDEST PUSH1 0x40 MLOAD DUP1 SWAP2 SUB SWAP1 LOG2 POP POP POP POP POP POP POP POP PUSH3 0xDC3 JUMP JUMPDEST PUSH1 0x0 PUSH1 0x40 MLOAD SWAP1 POP SWAP1 JUMP JUMPDEST PUSH1 0x0 DUP1 REVERT JUMPDEST PUSH1 0x0 DUP1 REVERT JUMPDEST PUSH1 0x0 PUSH20 0xFFFFFFFFFFFFFFFFFFFFFFFFFFFFFFFFFFFFFFFF DUP3 AND SWAP1 POP SWAP2 SWAP1 POP JUMP JUMPDEST PUSH1 0x0 PUSH3 0x504 DUP3 PUSH3 0x4D7 JUMP JUMPDEST SWAP1 POP SWAP2 SWAP1 POP JUMP JUMPDEST PUSH3 0x516 DUP2 PUSH3 0x4F7 JUMP JUMPDEST DUP2 EQ PUSH3 0x522 JUMPI PUSH1 0x0 DUP1 REVERT JUMPDEST POP JUMP JUMPDEST PUSH1 0x0 DUP2 MLOAD SWAP1 POP PUSH3 0x536 DUP2 PUSH3 0x50B JUMP JUMPDEST SWAP3 SWAP2 POP POP JUMP JUMPDEST PUSH1 0x0 DUP2 SWAP1 POP SWAP2 SWAP1 POP JUMP JUMPDEST PUSH3 0x551 DUP2 PUSH3 0x53C JUMP JUMPDEST DUP2 EQ PUSH3 0x55D JUMPI PUSH1 0x0 DUP1 REVERT JUMPDEST POP JUMP JUMPDEST PUSH1 0x0 DUP2 MLOAD SWAP1 POP PUSH3 0x571 DUP2 PUSH3 0x546 JUMP JUMPDEST SWAP3 SWAP2 POP POP JUMP JUMPDEST PUSH1 0x0 DUP1 REVERT JUMPDEST PUSH1 0x0 DUP1 REVERT JUMPDEST PUSH1 0x0 PUSH1 0x1F NOT PUSH1 0x1F DUP4 ADD AND SWAP1 POP SWAP2 SWAP1 POP JUMP JUMPDEST PUSH32 0x4E487B7100000000000000000000000000000000000000000000000000000000 PUSH1 0x0 MSTORE PUSH1 0x41 PUSH1 0x4 MSTORE PUSH1 0x24 PUSH1 0x0 REVERT JUMPDEST PUSH3 0x5CC DUP3 PUSH3 0x581 JUMP JUMPDEST DUP2 ADD DUP2 DUP2 LT PUSH8 0xFFFFFFFFFFFFFFFF DUP3 GT OR ISZERO PUSH3 0x5EE JUMPI PUSH3 0x5ED PUSH3 0x592 JUMP JUMPDEST JUMPDEST DUP1 PUSH1 0x40 MSTORE POP POP POP JUMP JUMPDEST PUSH1 0x0 PUSH3 0x603 PUSH3 0x4C3 JUMP JUMPDEST SWAP1 POP PUSH3 0x611 DUP3 DUP3 PUSH3 0x5C1 JUMP JUMPDEST SWAP2 SWAP1 POP JUMP JUMPDEST PUSH1 0x0 PUSH8 0xFFFFFFFFFFFFFFFF DUP3 GT ISZERO PUSH3 0x634 JUMPI PUSH3 0x633 PUSH3 0x592 JUMP JUMPDEST JUMPDEST PUSH3 0x63F DUP3 PUSH3 0x581 JUMP JUMPDEST SWAP1 POP PUSH1 0x20 DUP2 ADD SWAP1 POP SWAP2 SWAP1 POP JUMP JUMPDEST PUSH1 0x0 JUMPDEST DUP4 DUP2 LT ISZERO PUSH3 0x66C JUMPI DUP1 DUP3 ADD MLOAD DUP2 DUP5 ADD MSTORE PUSH1 0x20 DUP2 ADD SWAP1 POP PUSH3 0x64F JUMP JUMPDEST PUSH1 0x0 DUP5 DUP5 ADD MSTORE POP POP POP POP JUMP JUMPDEST PUSH1 0x0 PUSH3 0x68F PUSH3 0x689 DUP5 PUSH3 0x616 JUMP JUMPDEST PUSH3 0x5F7 JUMP JUMPDEST SWAP1 POP DUP3 DUP2 MSTORE PUSH1 0x20 DUP2 ADD DUP5 DUP5 DUP5 ADD GT ISZERO PUSH3 0x6AE JUMPI PUSH3 0x6AD PUSH3 0x57C JUMP JUMPDEST JUMPDEST PUSH3 0x6BB DUP5 DUP3 DUP6 PUSH3 0x64C JUMP JUMPDEST POP SWAP4 SWAP3 POP POP POP JUMP JUMPDEST PUSH1 0x0 DUP3 PUSH1 0x1F DUP4 ADD SLT PUSH3 0x6DB JUMPI PUSH3 0x6DA PUSH3 0x577 JUMP JUMPDEST JUMPDEST DUP2 MLOAD PUSH3 0x6ED DUP5 DUP3 PUSH1 0x20 DUP7 ADD PUSH3 0x678 JUMP JUMPDEST SWAP2 POP POP SWAP3 SWAP2 POP POP JUMP JUMPDEST PUSH1 0x0 DUP1 PUSH1 0x0 DUP1 PUSH1 0x0 DUP1 PUSH1 0x0 DUP1 PUSH2 0x100 DUP10 DUP12 SUB SLT ISZERO PUSH3 0x71A JUMPI PUSH3 0x719 PUSH3 0x4CD JUMP JUMPDEST JUMPDEST PUSH1 0x0 PUSH3 0x72A DUP12 DUP3 DUP13 ADD PUSH3 0x525 JUMP JUMPDEST SWAP9 POP POP PUSH1 0x20 PUSH3 0x73D DUP12 DUP3 DUP13 ADD PUSH3 0x525 JUMP JUMPDEST SWAP8 POP POP PUSH1 0x40 PUSH3 0x750 DUP12 DUP3 DUP13 ADD PUSH3 0x525 JUMP JUMPDEST SWAP7 POP POP PUSH1 0x60 PUSH3 0x763 DUP12 DUP3 DUP13 ADD PUSH3 0x560 JUMP JUMPDEST SWAP6 POP POP PUSH1 0x80 PUSH3 0x776 DUP12 DUP3 DUP13 ADD PUSH3 0x560 JUMP JUMPDEST SWAP5 POP POP PUSH1 0xA0 DUP10 ADD MLOAD PUSH8 0xFFFFFFFFFFFFFFFF DUP2 GT ISZERO PUSH3 0x79A JUMPI PUSH3 0x799 PUSH3 0x4D2 JUMP JUMPDEST JUMPDEST PUSH3 0x7A8 DUP12 DUP3 DUP13 ADD PUSH3 0x6C3 JUMP JUMPDEST SWAP4 POP POP PUSH1 0xC0 PUSH3 0x7BB DUP12 DUP3 DUP13 ADD PUSH3 0x560 JUMP JUMPDEST SWAP3 POP POP PUSH1 0xE0 PUSH3 0x7CE DUP12 DUP3 DUP13 ADD PUSH3 0x560 JUMP JUMPDEST SWAP2 POP POP SWAP3 SWAP6 SWAP9 POP SWAP3 SWAP6 SWAP9 SWAP1 SWAP4 SWAP7 POP JUMP JUMPDEST PUSH1 0x0 DUP3 DUP3 MSTORE PUSH1 0x20 DUP3 ADD SWAP1 POP SWAP3 SWAP2 POP POP JUMP JUMPDEST PUSH32 0x4572726F723A20496E76616C6964204169726C696E6520616464726573730000 PUSH1 0x0 DUP3 ADD MSTORE POP JUMP JUMPDEST PUSH1 0x0 PUSH3 0x827 PUSH1 0x1E DUP4 PUSH3 0x7DE JUMP JUMPDEST SWAP2 POP PUSH3 0x834 DUP3 PUSH3 0x7EF JUMP JUMPDEST PUSH1 0x20 DUP3 ADD SWAP1 POP SWAP2 SWAP1 POP JUMP JUMPDEST PUSH1 0x0 PUSH1 0x20 DUP3 ADD SWAP1 POP DUP2 DUP2 SUB PUSH1 0x0 DUP4 ADD MSTORE PUSH3 0x85A DUP2 PUSH3 0x818 JUMP JUMPDEST SWAP1 POP SWAP2 SWAP1 POP JUMP JUMPDEST PUSH32 0x4572726F723A20496E76616C69646520437573746F6D65722061646472657373 PUSH1 0x0 DUP3 ADD MSTORE POP JUMP JUMPDEST PUSH1 0x0 PUSH3 0x899 PUSH1 0x20 DUP4 PUSH3 0x7DE JUMP JUMPDEST SWAP2 POP PUSH3 0x8A6 DUP3 PUSH3 0x861 JUMP JUMPDEST PUSH1 0x20 DUP3 ADD SWAP1 POP SWAP2 SWAP1 POP JUMP JUMPDEST PUSH1 0x0 PUSH1 0x20 DUP3 ADD SWAP1 POP DUP2 DUP2 SUB PUSH1 0x0 DUP4 ADD MSTORE PUSH3 0x8CC DUP2 PUSH3 0x88A JUMP JUMPDEST SWAP1 POP SWAP2 SWAP1 POP JUMP JUMPDEST PUSH32 0x4572726F723A20496E76616C6964205469636B65742023000000000000000000 PUSH1 0x0 DUP3 ADD MSTORE POP JUMP JUMPDEST PUSH1 0x0 PUSH3 0x90B PUSH1 0x17 DUP4 PUSH3 0x7DE JUMP JUMPDEST SWAP2 POP PUSH3 0x918 DUP3 PUSH3 0x8D3 JUMP JUMPDEST PUSH1 0x20 DUP3 ADD SWAP1 POP SWAP2 SWAP1 POP JUMP JUMPDEST PUSH1 0x0 PUSH1 0x20 DUP3 ADD SWAP1 POP DUP2 DUP2 SUB PUSH1 0x0 DUP4 ADD MSTORE PUSH3 0x93E DUP2 PUSH3 0x8FC JUMP JUMPDEST SWAP1 POP SWAP2 SWAP1 POP JUMP JUMPDEST PUSH32 0x4572726F723A20496E76616C696420466C696768742023000000000000000000 PUSH1 0x0 DUP3 ADD MSTORE POP JUMP JUMPDEST PUSH1 0x0 PUSH3 0x97D PUSH1 0x17 DUP4 PUSH3 0x7DE JUMP JUMPDEST SWAP2 POP PUSH3 0x98A DUP3 PUSH3 0x945 JUMP JUMPDEST PUSH1 0x20 DUP3 ADD SWAP1 POP SWAP2 SWAP1 POP JUMP JUMPDEST PUSH1 0x0 PUSH1 0x20 DUP3 ADD SWAP1 POP DUP2 DUP2 SUB PUSH1 0x0 DUP4 ADD MSTORE PUSH3 0x9B0 DUP2 PUSH3 0x96E JUMP JUMPDEST SWAP1 POP SWAP2 SWAP1 POP JUMP JUMPDEST PUSH32 0x4572726F723A20496E76616C6964205469636B657420416D6F756E7400000000 PUSH1 0x0 DUP3 ADD MSTORE POP JUMP JUMPDEST PUSH1 0x0 PUSH3 0x9EF PUSH1 0x1C DUP4 PUSH3 0x7DE JUMP JUMPDEST SWAP2 POP PUSH3 0x9FC DUP3 PUSH3 0x9B7 JUMP JUMPDEST PUSH1 0x20 DUP3 ADD SWAP1 POP SWAP2 SWAP1 POP JUMP JUMPDEST PUSH1 0x0 PUSH1 0x20 DUP3 ADD SWAP1 POP DUP2 DUP2 SUB PUSH1 0x0 DUP4 ADD MSTORE PUSH3 0xA22 DUP2 PUSH3 0x9E0 JUMP JUMPDEST SWAP1 POP SWAP2 SWAP1 POP JUMP JUMPDEST PUSH1 0x0 DUP2 MLOAD SWAP1 POP SWAP2 SWAP1 POP JUMP JUMPDEST PUSH32 0x4E487B7100000000000000000000000000000000000000000000000000000000 PUSH1 0x0 MSTORE PUSH1 0x22 PUSH1 0x4 MSTORE PUSH1 0x24 PUSH1 0x0 REVERT JUMPDEST PUSH1 0x0 PUSH1 0x2 DUP3 DIV SWAP1 POP PUSH1 0x1 DUP3 AND DUP1 PUSH3 0xA7C JUMPI PUSH1 0x7F DUP3 AND SWAP2 POP JUMPDEST PUSH1 0x20 DUP3 LT DUP2 SUB PUSH3 0xA92 JUMPI PUSH3 0xA91 PUSH3 0xA34 JUMP JUMPDEST JUMPDEST POP SWAP2 SWAP1 POP JUMP JUMPDEST PUSH1 0x0 DUP2 SWAP1 POP DUP2 PUSH1 0x0 MSTORE PUSH1 0x20 PUSH1 0x0 KECCAK256 SWAP1 POP SWAP2 SWAP1 POP JUMP JUMPDEST PUSH1 0x0 PUSH1 0x20 PUSH1 0x1F DUP4 ADD DIV SWAP1 POP SWAP2 SWAP1 POP JUMP JUMPDEST PUSH1 0x0 DUP3 DUP3 SHL SWAP1 POP SWAP3 SWAP2 POP POP JUMP JUMPDEST PUSH1 0x0 PUSH1 0x8 DUP4 MUL PUSH3 0xAFC PUSH32 0xFFFFFFFFFFFFFFFFFFFFFFFFFFFFFFFFFFFFFFFFFFFFFFFFFFFFFFFFFFFFFFFF DUP3 PUSH3 0xABD JUMP JUMPDEST PUSH3 0xB08 DUP7 DUP4 PUSH3 0xABD JUMP JUMPDEST SWAP6 POP DUP1 NOT DUP5 AND SWAP4 POP DUP1 DUP7 AND DUP5 OR SWAP3 POP POP POP SWAP4 SWAP3 POP POP POP JUMP JUMPDEST PUSH1 0x0 DUP2 SWAP1 POP SWAP2 SWAP1 POP JUMP JUMPDEST PUSH1 0x0 PUSH3 0xB4B PUSH3 0xB45 PUSH3 0xB3F DUP5 PUSH3 0x53C JUMP JUMPDEST PUSH3 0xB20 JUMP JUMPDEST PUSH3 0x53C JUMP JUMPDEST SWAP1 POP SWAP2 SWAP1 POP JUMP JUMPDEST PUSH1 0x0 DUP2 SWAP1 POP SWAP2 SWAP1 POP JUMP JUMPDEST PUSH3 0xB67 DUP4 PUSH3 0xB2A JUMP JUMPDEST PUSH3 0xB7F PUSH3 0xB76 DUP3 PUSH3 0xB52 JUMP JUMPDEST DUP5 DUP5 SLOAD PUSH3 0xACA JUMP JUMPDEST DUP3 SSTORE POP POP POP POP JUMP JUMPDEST PUSH1 0x0 SWAP1 JUMP JUMPDEST PUSH3 0xB96 PUSH3 0xB87 JUMP JUMPDEST PUSH3 0xBA3 DUP2 DUP5 DUP5 PUSH3 0xB5C JUMP JUMPDEST POP POP POP JUMP JUMPDEST JUMPDEST DUP2 DUP2 LT ISZERO PUSH3 0xBCB JUMPI PUSH3 0xBBF PUSH1 0x0 DUP3 PUSH3 0xB8C JUMP JUMPDEST PUSH1 0x1 DUP2 ADD SWAP1 POP PUSH3 0xBA9 JUMP JUMPDEST POP POP JUMP JUMPDEST PUSH1 0x1F DUP3 GT ISZERO PUSH3 0xC1A JUMPI PUSH3 0xBE4 DUP2 PUSH3 0xA98 JUMP JUMPDEST PUSH3 0xBEF DUP5 PUSH3 0xAAD JUMP JUMPDEST DUP2 ADD PUSH1 0x20 DUP6 LT ISZERO PUSH3 0xBFF JUMPI DUP2 SWAP1 POP JUMPDEST PUSH3 0xC17 PUSH3 0xC0E DUP6 PUSH3 0xAAD JUMP JUMPDEST DUP4 ADD DUP3 PUSH3 0xBA8 JUMP JUMPDEST POP POP JUMPDEST POP POP POP JUMP JUMPDEST PUSH1 0x0 DUP3 DUP3 SHR SWAP1 POP SWAP3 SWAP2 POP POP JUMP JUMPDEST PUSH1 0x0 PUSH3 0xC3F PUSH1 0x0 NOT DUP5 PUSH1 0x8 MUL PUSH3 0xC1F JUMP JUMPDEST NOT DUP1 DUP4 AND SWAP2 POP POP SWAP3 SWAP2 POP POP JUMP JUMPDEST PUSH1 0x0 PUSH3 0xC5A DUP4 DUP4 PUSH3 0xC2C JUMP JUMPDEST SWAP2 POP DUP3 PUSH1 0x2 MUL DUP3 OR SWAP1 POP SWAP3 SWAP2 POP POP JUMP JUMPDEST PUSH3 0xC75 DUP3 PUSH3 0xA29 JUMP JUMPDEST PUSH8 0xFFFFFFFFFFFFFFFF DUP2 GT ISZERO PUSH3 0xC91 JUMPI PUSH3 0xC90 PUSH3 0x592 JUMP JUMPDEST JUMPDEST PUSH3 0xC9D DUP3 SLOAD PUSH3 0xA63 JUMP JUMPDEST PUSH3 0xCAA DUP3 DUP3 DUP6 PUSH3 0xBCF JUMP JUMPDEST PUSH1 0x0 PUSH1 0x20 SWAP1 POP PUSH1 0x1F DUP4 GT PUSH1 0x1 DUP2 EQ PUSH3 0xCE2 JUMPI PUSH1 0x0 DUP5 ISZERO PUSH3 0xCCD JUMPI DUP3 DUP8 ADD MLOAD SWAP1 POP JUMPDEST PUSH3 0xCD9 DUP6 DUP3 PUSH3 0xC4C JUMP JUMPDEST DUP7 SSTORE POP PUSH3 0xD49 JUMP JUMPDEST PUSH1 0x1F NOT DUP5 AND PUSH3 0xCF2 DUP7 PUSH3 0xA98 JUMP JUMPDEST PUSH1 0x0 JUMPDEST DUP3 DUP2 LT ISZERO PUSH3 0xD1C JUMPI DUP5 DUP10 ADD MLOAD DUP3 SSTORE PUSH1 0x1 DUP3 ADD SWAP2 POP PUSH1 0x20 DUP6 ADD SWAP5 POP PUSH1 0x20 DUP2 ADD SWAP1 POP PUSH3 0xCF5 JUMP JUMPDEST DUP7 DUP4 LT ISZERO PUSH3 0xD3C JUMPI DUP5 DUP10 ADD MLOAD PUSH3 0xD38 PUSH1 0x1F DUP10 AND DUP3 PUSH3 0xC2C JUMP JUMPDEST DUP4 SSTORE POP JUMPDEST PUSH1 0x1 PUSH1 0x2 DUP9 MUL ADD DUP9 SSTORE POP POP POP JUMPDEST POP POP POP POP POP POP JUMP JUMPDEST PUSH32 0x5469636B657420436F6E74726163740000000000000000000000000000000000 PUSH1 0x0 DUP3 ADD MSTORE POP JUMP JUMPDEST PUSH1 0x0 PUSH3 0xD89 PUSH1 0xF DUP4 PUSH3 0x7DE JUMP JUMPDEST SWAP2 POP PUSH3 0xD96 DUP3 PUSH3 0xD51 JUMP JUMPDEST PUSH1 0x20 DUP3 ADD SWAP1 POP SWAP2 SWAP1 POP JUMP JUMPDEST PUSH1 0x0 PUSH1 0x20 DUP3 ADD SWAP1 POP DUP2 DUP2 SUB PUSH1 0x0 DUP4 ADD MSTORE PUSH3 0xDBC DUP2 PUSH3 0xD7A JUMP JUMPDEST SWAP1 POP SWAP2 SWAP1 POP JUMP JUMPDEST PUSH2 0x455A DUP1 PUSH3 0xDD3 PUSH1 0x0 CODECOPY PUSH1 0x0 RETURN INVALID PUSH1 0x80 PUSH1 0x40 MSTORE PUSH1 0x4 CALLDATASIZE LT PUSH2 0x55 JUMPI PUSH1 0x0 CALLDATALOAD PUSH1 0xE0 SHR DUP1 PUSH4 0x15285527 EQ PUSH2 0x5A JUMPI DUP1 PUSH4 0x28700E6E EQ PUSH2 0x71 JUMPI DUP1 PUSH4 0x801C86F5 EQ PUSH2 0xA1 JUMPI DUP1 PUSH4 0xB5545A3C EQ PUSH2 0xDE JUMPI DUP1 PUSH4 0xCA36385C EQ PUSH2 0xFC JUMPI DUP1 PUSH4 0xD16C2CBA EQ PUSH2 0x11B JUMPI JUMPDEST PUSH1 0x0 DUP1 REVERT JUMPDEST CALLVALUE DUP1 ISZERO PUSH2 0x66 JUMPI PUSH1 0x0 DUP1 REVERT JUMPDEST POP PUSH2 0x6F PUSH2 0x139 JUMP JUMPDEST STOP JUMPDEST PUSH2 0x8B PUSH1 0x4 DUP1 CALLDATASIZE SUB DUP2 ADD SWAP1 PUSH2 0x86 SWAP2 SWAP1 PUSH2 0x27BB JUMP JUMPDEST PUSH2 0x2B4 JUMP JUMPDEST PUSH1 0x40 MLOAD PUSH2 0x98 SWAP2 SWAP1 PUSH2 0x283D JUMP JUMPDEST PUSH1 0x40 MLOAD DUP1 SWAP2 SUB SWAP1 RETURN JUMPDEST CALLVALUE DUP1 ISZERO PUSH2 0xAD JUMPI PUSH1 0x0 DUP1 REVERT JUMPDEST POP PUSH2 0xC8 PUSH1 0x4 DUP1 CALLDATASIZE SUB DUP2 ADD SWAP1 PUSH2 0xC3 SWAP2 SWAP1 PUSH2 0x299E JUMP JUMPDEST PUSH2 0x8EB JUMP JUMPDEST PUSH1 0x40 MLOAD PUSH2 0xD5 SWAP2 SWAP1 PUSH2 0x283D JUMP JUMPDEST PUSH1 0x40 MLOAD DUP1 SWAP2 SUB SWAP1 RETURN JUMPDEST PUSH2 0xE6 PUSH2 0xA5E JUMP JUMPDEST PUSH1 0x40 MLOAD PUSH2 0xF3 SWAP2 SWAP1 PUSH2 0x283D JUMP JUMPDEST PUSH1 0x40 MLOAD DUP1 SWAP2 SUB SWAP1 RETURN JUMPDEST PUSH2 0x104 PUSH2 0x11C8 JUMP JUMPDEST PUSH1 0x40 MLOAD PUSH2 0x112 SWAP3 SWAP2 SWAP1 PUSH2 0x2A66 JUMP JUMPDEST PUSH1 0x40 MLOAD DUP1 SWAP2 SUB SWAP1 RETURN JUMPDEST PUSH2 0x123 PUSH2 0x1AA9 JUMP JUMPDEST PUSH1 0x40 MLOAD PUSH2 0x130 SWAP2 SWAP1 PUSH2 0x283D JUMP JUMPDEST PUSH1 0x40 MLOAD DUP1 SWAP2 SUB SWAP1 RETURN JUMPDEST PUSH1 0x4 PUSH1 0x0 SWAP1 SLOAD SWAP1 PUSH2 0x100 EXP SWAP1 DIV PUSH20 0xFFFFFFFFFFFFFFFFFFFFFFFFFFFFFFFFFFFFFFFF AND PUSH20 0xFFFFFFFFFFFFFFFFFFFFFFFFFFFFFFFFFFFFFFFF AND CALLER PUSH20 0xFFFFFFFFFFFFFFFFFFFFFFFFFFFFFFFFFFFFFFFF AND EQ DUP1 PUSH2 0x1E2 JUMPI POP PUSH1 0x5 PUSH1 0x0 SWAP1 SLOAD SWAP1 PUSH2 0x100 EXP SWAP1 DIV PUSH20 0xFFFFFFFFFFFFFFFFFFFFFFFFFFFFFFFFFFFFFFFF AND PUSH20 0xFFFFFFFFFFFFFFFFFFFFFFFFFFFFFFFFFFFFFFFF AND CALLER PUSH20 0xFFFFFFFFFFFFFFFFFFFFFFFFFFFFFFFFFFFFFFFF AND EQ JUMPDEST PUSH2 0x221 JUMPI PUSH1 0x40 MLOAD PUSH32 0x8C379A000000000000000000000000000000000000000000000000000000000 DUP2 MSTORE PUSH1 0x4 ADD PUSH2 0x218 SWAP1 PUSH2 0x2B08 JUMP JUMPDEST PUSH1 0x40 MLOAD DUP1 SWAP2 SUB SWAP1 REVERT JUMPDEST PUSH1 0x0 PUSH2 0x23E PUSH1 0x5 PUSH1 0x14 SWAP1 SLOAD SWAP1 PUSH2 0x100 EXP SWAP1 DIV PUSH1 0xFF AND PUSH1 0xFF AND PUSH2 0x1E2A JUMP JUMPDEST SWAP1 POP PUSH1 0x0 PUSH2 0x25D PUSH1 0x5 PUSH1 0x15 SWAP1 SLOAD SWAP1 PUSH2 0x100 EXP SWAP1 DIV PUSH1 0xFF AND PUSH1 0xFF AND PUSH2 0x1F8A JUMP JUMPDEST SWAP1 POP PUSH32 0x7F9534BAE335130D7523BED94596C5942B70A305E742E8064AF42F87AE7DAD84 PUSH1 0x1 SLOAD PUSH1 0xA PUSH1 0x0 ADD SLOAD PUSH1 0xA PUSH1 0x1 ADD DUP6 DUP6 PUSH1 0xA PUSH1 0x3 ADD SLOAD PUSH1 0x40 MLOAD PUSH2 0x2A8 SWAP7 SWAP6 SWAP5 SWAP4 SWAP3 SWAP2 SWAP1 PUSH2 0x2C30 JUMP JUMPDEST PUSH1 0x40 MLOAD DUP1 SWAP2 SUB SWAP1 LOG1 POP POP JUMP JUMPDEST PUSH1 0x0 PUSH1 0x2 PUSH1 0x0 SWAP1 SLOAD SWAP1 PUSH2 0x100 EXP SWAP1 DIV PUSH20 0xFFFFFFFFFFFFFFFFFFFFFFFFFFFFFFFFFFFFFFFF AND PUSH20 0xFFFFFFFFFFFFFFFFFFFFFFFFFFFFFFFFFFFFFFFF AND CALLER PUSH20 0xFFFFFFFFFFFFFFFFFFFFFFFFFFFFFFFFFFFFFFFF AND EQ PUSH2 0x346 JUMPI PUSH1 0x40 MLOAD PUSH32 0x8C379A000000000000000000000000000000000000000000000000000000000 DUP2 MSTORE PUSH1 0x4 ADD PUSH2 0x33D SWAP1 PUSH2 0x2CF2 JUMP JUMPDEST PUSH1 0x40 MLOAD DUP1 SWAP2 SUB SWAP1 REVERT JUMPDEST PUSH1 0x0 TIMESTAMP SWAP1 POP PUSH1 0x1 PUSH1 0xFF AND PUSH1 0x5 PUSH1 0x14 SWAP1 SLOAD SWAP1 PUSH2 0x100 EXP SWAP1 DIV PUSH1 0xFF AND PUSH1 0xFF AND LT ISZERO DUP1 ISZERO PUSH2 0x387 JUMPI POP PUSH1 0x2 PUSH1 0xFF AND PUSH1 0x5 PUSH1 0x14 SWAP1 SLOAD SWAP1 PUSH2 0x100 EXP SWAP1 DIV PUSH1 0xFF AND PUSH1 0xFF AND GT ISZERO JUMPDEST PUSH2 0x3C6 JUMPI PUSH1 0x40 MLOAD PUSH32 0x8C379A000000000000000000000000000000000000000000000000000000000 DUP2 MSTORE PUSH1 0x4 ADD PUSH2 0x3BD SWAP1 PUSH2 0x2D84 JUMP JUMPDEST PUSH1 0x40 MLOAD DUP1 SWAP2 SUB SWAP1 REVERT JUMPDEST PUSH1 0x5 PUSH1 0xFF AND DUP7 PUSH1 0xFF AND EQ DUP1 PUSH2 0x3E1 JUMPI POP PUSH1 0x6 PUSH1 0xFF AND DUP7 PUSH1 0xFF AND EQ JUMPDEST PUSH2 0x420 JUMPI PUSH1 0x40 MLOAD PUSH32 0x8C379A000000000000000000000000000000000000000000000000000000000 DUP2 MSTORE PUSH1 0x4 ADD PUSH2 0x417 SWAP1 PUSH2 0x2DF0 JUMP JUMPDEST PUSH1 0x40 MLOAD DUP1 SWAP2 SUB SWAP1 REVERT JUMPDEST PUSH1 0x1 PUSH1 0xFF AND PUSH1 0x5 PUSH1 0x14 SWAP1 SLOAD SWAP1 PUSH2 0x100 EXP SWAP1 DIV PUSH1 0xFF AND PUSH1 0xFF AND SUB PUSH2 0x49A JUMPI PUSH1 0x0 PUSH1 0x5 PUSH1 0x14 PUSH2 0x100 EXP DUP2 SLOAD DUP2 PUSH1 0xFF MUL NOT AND SWAP1 DUP4 PUSH1 0xFF AND MUL OR SWAP1 SSTORE POP DUP1 PUSH1 0x7 DUP2 SWAP1 SSTORE POP PUSH32 0xDE76133B24D9FCAE5254A94BFA50B907D61B4EEB12F84FA63DE7378C63E068CA PUSH1 0x1 SLOAD PUSH1 0x40 MLOAD PUSH2 0x491 SWAP2 SWAP1 PUSH2 0x2E5C JUMP JUMPDEST PUSH1 0x40 MLOAD DUP1 SWAP2 SUB SWAP1 LOG1 JUMPDEST PUSH1 0x0 SELFBALANCE SWAP1 POP PUSH1 0x9 PUSH1 0x0 SWAP1 SLOAD SWAP1 PUSH2 0x100 EXP SWAP1 DIV PUSH1 0xFF AND ISZERO DUP1 ISZERO PUSH2 0x4D1 JUMPI POP PUSH1 0x1 PUSH1 0xFF AND PUSH1 0x5 PUSH1 0x15 SWAP1 SLOAD SWAP1 PUSH2 0x100 EXP SWAP1 DIV PUSH1 0xFF AND PUSH1 0xFF AND EQ JUMPDEST DUP1 PUSH2 0x4DC JUMPI POP PUSH1 0x0 DUP2 GT JUMPDEST ISZERO PUSH2 0x839 JUMPI PUSH1 0x0 PUSH2 0x4EF DUP9 DUP9 DUP9 DUP9 PUSH2 0x2132 JUMP JUMPDEST SWAP1 POP PUSH1 0x0 DUP1 PUSH1 0x0 DUP1 PUSH1 0xA PUSH1 0x3 ADD SLOAD DUP7 GT ISZERO PUSH2 0x6F5 JUMPI PUSH1 0x0 PUSH2 0x512 DUP7 DUP15 PUSH1 0x0 PUSH2 0x21F3 JUMP JUMPDEST SWAP1 POP PUSH1 0x64 DUP2 PUSH2 0x521 SWAP2 SWAP1 PUSH2 0x2EE8 JUMP JUMPDEST PUSH1 0xFF AND DUP8 PUSH2 0x52F SWAP2 SWAP1 PUSH2 0x2F19 JUMP JUMPDEST SWAP5 POP DUP5 DUP8 PUSH2 0x53D SWAP2 SWAP1 PUSH2 0x2F5B JUMP JUMPDEST SWAP4 POP PUSH1 0x0 DUP6 GT ISZERO PUSH2 0x617 JUMPI PUSH1 0x5 PUSH1 0x0 SWAP1 SLOAD SWAP1 PUSH2 0x100 EXP SWAP1 DIV PUSH20 0xFFFFFFFFFFFFFFFFFFFFFFFFFFFFFFFFFFFFFFFF AND PUSH20 0xFFFFFFFFFFFFFFFFFFFFFFFFFFFFFFFFFFFFFFFF AND DUP6 PUSH1 0x40 MLOAD PUSH2 0x58E SWAP1 PUSH2 0x2FC0 JUMP JUMPDEST PUSH1 0x0 PUSH1 0x40 MLOAD DUP1 DUP4 SUB DUP2 DUP6 DUP8 GAS CALL SWAP3 POP POP POP RETURNDATASIZE DUP1 PUSH1 0x0 DUP2 EQ PUSH2 0x5CB JUMPI PUSH1 0x40 MLOAD SWAP2 POP PUSH1 0x1F NOT PUSH1 0x3F RETURNDATASIZE ADD AND DUP3 ADD PUSH1 0x40 MSTORE RETURNDATASIZE DUP3 MSTORE RETURNDATASIZE PUSH1 0x0 PUSH1 0x20 DUP5 ADD RETURNDATACOPY PUSH2 0x5D0 JUMP JUMPDEST PUSH1 0x60 SWAP2 POP JUMPDEST POP POP DUP1 SWAP4 POP POP DUP3 PUSH2 0x616 JUMPI PUSH1 0x40 MLOAD PUSH32 0x8C379A000000000000000000000000000000000000000000000000000000000 DUP2 MSTORE PUSH1 0x4 ADD PUSH2 0x60D SWAP1 PUSH2 0x3021 JUMP JUMPDEST PUSH1 0x40 MLOAD DUP1 SWAP2 SUB SWAP1 REVERT JUMPDEST JUMPDEST PUSH1 0x0 DUP5 GT ISZERO PUSH2 0x6EF JUMPI PUSH1 0x4 PUSH1 0x0 SWAP1 SLOAD SWAP1 PUSH2 0x100 EXP SWAP1 DIV PUSH20 0xFFFFFFFFFFFFFFFFFFFFFFFFFFFFFFFFFFFFFFFF AND PUSH20 0xFFFFFFFFFFFFFFFFFFFFFFFFFFFFFFFFFFFFFFFF AND DUP5 PUSH1 0x40 MLOAD PUSH2 0x666 SWAP1 PUSH2 0x2FC0 JUMP JUMPDEST PUSH1 0x0 PUSH1 0x40 MLOAD DUP1 DUP4 SUB DUP2 DUP6 DUP8 GAS CALL SWAP3 POP POP POP RETURNDATASIZE DUP1 PUSH1 0x0 DUP2 EQ PUSH2 0x6A3 JUMPI PUSH1 0x40 MLOAD SWAP2 POP PUSH1 0x1F NOT PUSH1 0x3F RETURNDATASIZE ADD AND DUP3 ADD PUSH1 0x40 MSTORE RETURNDATASIZE DUP3 MSTORE RETURNDATASIZE PUSH1 0x0 PUSH1 0x20 DUP5 ADD RETURNDATACOPY PUSH2 0x6A8 JUMP JUMPDEST PUSH1 0x60 SWAP2 POP JUMPDEST POP POP DUP1 SWAP3 POP POP DUP2 PUSH2 0x6EE JUMPI PUSH1 0x40 MLOAD PUSH32 0x8C379A000000000000000000000000000000000000000000000000000000000 DUP2 MSTORE PUSH1 0x4 ADD PUSH2 0x6E5 SWAP1 PUSH2 0x308D JUMP JUMPDEST PUSH1 0x40 MLOAD DUP1 SWAP2 SUB SWAP1 REVERT JUMPDEST JUMPDEST POP PUSH2 0x730 JUMP JUMPDEST PUSH1 0x40 MLOAD PUSH32 0x8C379A000000000000000000000000000000000000000000000000000000000 DUP2 MSTORE PUSH1 0x4 ADD PUSH2 0x727 SWAP1 PUSH2 0x311F JUMP JUMPDEST PUSH1 0x40 MLOAD DUP1 SWAP2 SUB SWAP1 REVERT JUMPDEST DUP2 DUP1 PUSH2 0x739 JUMPI POP DUP1 JUMPDEST PUSH2 0x778 JUMPI PUSH1 0x40 MLOAD PUSH32 0x8C379A000000000000000000000000000000000000000000000000000000000 DUP2 MSTORE PUSH1 0x4 ADD PUSH2 0x76F SWAP1 PUSH2 0x318B JUMP JUMPDEST PUSH1 0x40 MLOAD DUP1 SWAP2 SUB SWAP1 REVERT JUMPDEST DUP7 PUSH1 0x8 DUP2 SWAP1 SSTORE POP PUSH1 0x0 DUP5 GT DUP1 ISZERO PUSH2 0x78F JUMPI POP PUSH1 0x0 DUP4 GT JUMPDEST ISZERO PUSH2 0x7B5 JUMPI PUSH1 0x3 PUSH1 0x5 PUSH1 0x15 PUSH2 0x100 EXP DUP2 SLOAD DUP2 PUSH1 0xFF MUL NOT AND SWAP1 DUP4 PUSH1 0xFF AND MUL OR SWAP1 SSTORE POP PUSH2 0x81F JUMP JUMPDEST PUSH1 0x0 DUP5 GT DUP1 ISZERO PUSH2 0x7C5 JUMPI POP PUSH1 0x0 DUP4 EQ JUMPDEST ISZERO PUSH2 0x7EB JUMPI PUSH1 0x2 PUSH1 0x5 PUSH1 0x15 PUSH2 0x100 EXP DUP2 SLOAD DUP2 PUSH1 0xFF MUL NOT AND SWAP1 DUP4 PUSH1 0xFF AND MUL OR SWAP1 SSTORE POP PUSH2 0x81E JUMP JUMPDEST PUSH1 0x0 DUP5 EQ DUP1 ISZERO PUSH2 0x7FB JUMPI POP PUSH1 0x0 DUP4 GT JUMPDEST ISZERO PUSH2 0x81D JUMPI PUSH1 0x4 PUSH1 0x5 PUSH1 0x15 PUSH2 0x100 EXP DUP2 SLOAD DUP2 PUSH1 0xFF MUL NOT AND SWAP1 DUP4 PUSH1 0xFF AND MUL OR SWAP1 SSTORE POP JUMPDEST JUMPDEST JUMPDEST DUP4 PUSH1 0xA PUSH1 0x4 ADD DUP2 SWAP1 SSTORE POP DUP3 PUSH1 0xA PUSH1 0x5 ADD DUP2 SWAP1 SSTORE POP POP POP POP POP POP JUMPDEST PUSH1 0x3 PUSH1 0x5 PUSH1 0x14 PUSH2 0x100 EXP DUP2 SLOAD DUP2 PUSH1 0xFF MUL NOT AND SWAP1 DUP4 PUSH1 0xFF AND MUL OR SWAP1 SSTORE POP DUP2 PUSH1 0x7 DUP2 SWAP1 SSTORE POP PUSH1 0x40 MLOAD DUP1 PUSH1 0x40 ADD PUSH1 0x40 MSTORE DUP1 PUSH1 0x2 DUP2 MSTORE PUSH1 0x20 ADD PUSH32 0x4E41000000000000000000000000000000000000000000000000000000000000 DUP2 MSTORE POP PUSH1 0xA PUSH1 0x1 ADD SWAP1 DUP2 PUSH2 0x8A3 SWAP2 SWAP1 PUSH2 0x3342 JUMP JUMPDEST POP PUSH1 0x1 SWAP3 POP PUSH32 0xDE76133B24D9FCAE5254A94BFA50B907D61B4EEB12F84FA63DE7378C63E068CA PUSH1 0x1 SLOAD PUSH1 0x40 MLOAD PUSH2 0x8D9 SWAP2 SWAP1 PUSH2 0x3460 JUMP JUMPDEST PUSH1 0x40 MLOAD DUP1 SWAP2 SUB SWAP1 LOG1 POP POP SWAP5 SWAP4 POP POP POP POP JUMP JUMPDEST PUSH1 0x0 PUSH1 0x5 PUSH1 0x0 SWAP1 SLOAD SWAP1 PUSH2 0x100 EXP SWAP1 DIV PUSH20 0xFFFFFFFFFFFFFFFFFFFFFFFFFFFFFFFFFFFFFFFF AND PUSH20 0xFFFFFFFFFFFFFFFFFFFFFFFFFFFFFFFFFFFFFFFF AND CALLER PUSH20 0xFFFFFFFFFFFFFFFFFFFFFFFFFFFFFFFFFFFFFFFF AND EQ PUSH2 0x97D JUMPI PUSH1 0x40 MLOAD PUSH32 0x8C379A000000000000000000000000000000000000000000000000000000000 DUP2 MSTORE PUSH1 0x4 ADD PUSH2 0x974 SWAP1 PUSH2 0x34DA JUMP JUMPDEST PUSH1 0x40 MLOAD DUP1 SWAP2 SUB SWAP1 REVERT JUMPDEST PUSH1 0x3 PUSH1 0x0 SWAP1 SLOAD SWAP1 PUSH2 0x100 EXP SWAP1 DIV PUSH20 0xFFFFFFFFFFFFFFFFFFFFFFFFFFFFFFFFFFFFFFFF AND PUSH20 0xFFFFFFFFFFFFFFFFFFFFFFFFFFFFFFFFFFFFFFFF AND PUSH4 0x2EB8A88B PUSH1 0x0 DUP1 SLOAD SWAP1 PUSH2 0x100 EXP SWAP1 DIV PUSH20 0xFFFFFFFFFFFFFFFFFFFFFFFFFFFFFFFFFFFFFFFF AND DUP5 PUSH1 0x40 MLOAD DUP4 PUSH4 0xFFFFFFFF AND PUSH1 0xE0 SHL DUP2 MSTORE PUSH1 0x4 ADD PUSH2 0x9FA SWAP3 SWAP2 SWAP1 PUSH2 0x353B JUMP JUMPDEST PUSH1 0x20 PUSH1 0x40 MLOAD DUP1 DUP4 SUB DUP2 PUSH1 0x0 DUP8 GAS CALL ISZERO DUP1 ISZERO PUSH2 0xA19 JUMPI RETURNDATASIZE PUSH1 0x0 DUP1 RETURNDATACOPY RETURNDATASIZE PUSH1 0x0 REVERT JUMPDEST POP POP POP POP PUSH1 0x40 MLOAD RETURNDATASIZE PUSH1 0x1F NOT PUSH1 0x1F DUP3 ADD AND DUP3 ADD DUP1 PUSH1 0x40 MSTORE POP DUP2 ADD SWAP1 PUSH2 0xA3D SWAP2 SWAP1 PUSH2 0x3597 JUMP JUMPDEST SWAP1 POP DUP1 ISZERO PUSH2 0xA59 JUMPI DUP2 PUSH1 0xA PUSH1 0x1 ADD SWAP1 DUP2 PUSH2 0xA57 SWAP2 SWAP1 PUSH2 0x3342 JUMP JUMPDEST POP JUMPDEST SWAP2 SWAP1 POP JUMP JUMPDEST PUSH1 0x0 PUSH1 0x5 PUSH1 0x0 SWAP1 SLOAD SWAP1 PUSH2 0x100 EXP SWAP1 DIV PUSH20 0xFFFFFFFFFFFFFFFFFFFFFFFFFFFFFFFFFFFFFFFF AND PUSH20 0xFFFFFFFFFFFFFFFFFFFFFFFFFFFFFFFFFFFFFFFF AND CALLER PUSH20 0xFFFFFFFFFFFFFFFFFFFFFFFFFFFFFFFFFFFFFFFF AND EQ PUSH2 0xAF0 JUMPI PUSH1 0x40 MLOAD PUSH32 0x8C379A000000000000000000000000000000000000000000000000000000000 DUP2 MSTORE PUSH1 0x4 ADD PUSH2 0xAE7 SWAP1 PUSH2 0x34DA JUMP JUMPDEST PUSH1 0x40 MLOAD DUP1 SWAP2 SUB SWAP1 REVERT JUMPDEST PUSH1 0x9 PUSH1 0x0 SWAP1 SLOAD SWAP1 PUSH2 0x100 EXP SWAP1 DIV PUSH1 0xFF AND ISZERO PUSH2 0xB40 JUMPI PUSH1 0x40 MLOAD PUSH32 0x8C379A000000000000000000000000000000000000000000000000000000000 DUP2 MSTORE PUSH1 0x4 ADD PUSH2 0xB37 SWAP1 PUSH2 0x3636 JUMP JUMPDEST PUSH1 0x40 MLOAD DUP1 SWAP2 SUB SWAP1 REVERT JUMPDEST PUSH1 0x5 PUSH1 0xFF AND PUSH1 0x5 PUSH1 0x14 SWAP1 SLOAD SWAP1 PUSH2 0x100 EXP SWAP1 DIV PUSH1 0xFF AND PUSH1 0xFF AND GT PUSH2 0xB98 JUMPI PUSH1 0x40 MLOAD PUSH32 0x8C379A000000000000000000000000000000000000000000000000000000000 DUP2 MSTORE PUSH1 0x4 ADD PUSH2 0xB8F SWAP1 PUSH2 0x36A2 JUMP JUMPDEST PUSH1 0x40 MLOAD DUP1 SWAP2 SUB SWAP1 REVERT JUMPDEST PUSH1 0x4 PUSH1 0xFF AND PUSH1 0x5 PUSH1 0x14 SWAP1 SLOAD SWAP1 PUSH2 0x100 EXP SWAP1 DIV PUSH1 0xFF AND PUSH1 0xFF AND SUB PUSH2 0xBF0 JUMPI PUSH1 0x40 MLOAD PUSH32 0x8C379A000000000000000000000000000000000000000000000000000000000 DUP2 MSTORE PUSH1 0x4 ADD PUSH2 0xBE7 SWAP1 PUSH2 0x3734 JUMP JUMPDEST PUSH1 0x40 MLOAD DUP1 SWAP2 SUB SWAP1 REVERT JUMPDEST PUSH1 0x1 PUSH1 0xFF AND PUSH1 0x5 PUSH1 0x15 SWAP1 SLOAD SWAP1 PUSH2 0x100 EXP SWAP1 DIV PUSH1 0xFF AND PUSH1 0xFF AND EQ PUSH2 0xC48 JUMPI PUSH1 0x40 MLOAD PUSH32 0x8C379A000000000000000000000000000000000000000000000000000000000 DUP2 MSTORE PUSH1 0x4 ADD PUSH2 0xC3F SWAP1 PUSH2 0x37A0 JUMP JUMPDEST PUSH1 0x40 MLOAD DUP1 SWAP2 SUB SWAP1 REVERT JUMPDEST PUSH1 0x0 TIMESTAMP SWAP1 POP PUSH1 0x0 DUP1 PUSH1 0x0 DUP1 PUSH1 0x3 PUSH1 0x0 SWAP1 SLOAD SWAP1 PUSH2 0x100 EXP SWAP1 DIV PUSH20 0xFFFFFFFFFFFFFFFFFFFFFFFFFFFFFFFFFFFFFFFF AND PUSH20 0xFFFFFFFFFFFFFFFFFFFFFFFFFFFFFFFFFFFFFFFF AND PUSH4 0x50E20D77 PUSH1 0xA PUSH1 0x0 ADD SLOAD PUSH1 0x40 MLOAD DUP3 PUSH4 0xFFFFFFFF AND PUSH1 0xE0 SHL DUP2 MSTORE PUSH1 0x4 ADD PUSH2 0xCB3 SWAP2 SWAP1 PUSH2 0x37C0 JUMP JUMPDEST PUSH1 0xC0 PUSH1 0x40 MLOAD DUP1 DUP4 SUB DUP2 DUP7 GAS STATICCALL ISZERO DUP1 ISZERO PUSH2 0xCD0 JUMPI RETURNDATASIZE PUSH1 0x0 DUP1 RETURNDATACOPY RETURNDATASIZE PUSH1 0x0 REVERT JUMPDEST POP POP POP POP PUSH1 0x40 MLOAD RETURNDATASIZE PUSH1 0x1F NOT PUSH1 0x1F DUP3 ADD AND DUP3 ADD DUP1 PUSH1 0x40 MSTORE POP DUP2 ADD SWAP1 PUSH2 0xCF4 SWAP2 SWAP1 PUSH2 0x3805 JUMP JUMPDEST SWAP6 POP POP SWAP5 POP POP SWAP4 POP SWAP4 POP PUSH1 0x3C PUSH1 0x18 PUSH2 0xD0C SWAP2 SWAP1 PUSH2 0x2F19 JUMP JUMPDEST DUP4 DUP7 PUSH2 0xD18 SWAP2 SWAP1 PUSH2 0x2F5B JUMP JUMPDEST LT ISZERO PUSH2 0xD59 JUMPI PUSH1 0x40 MLOAD PUSH32 0x8C379A000000000000000000000000000000000000000000000000000000000 DUP2 MSTORE PUSH1 0x4 ADD PUSH2 0xD50 SWAP1 PUSH2 0x3904 JUMP JUMPDEST PUSH1 0x40 MLOAD DUP1 SWAP2 SUB SWAP1 REVERT JUMPDEST PUSH1 0x0 PUSH2 0xD67 DUP6 DUP6 DUP6 DUP6 PUSH2 0x2132 JUMP JUMPDEST SWAP1 POP PUSH1 0x0 PUSH2 0xD77 DUP3 DUP8 PUSH1 0x0 PUSH2 0x21F3 JUMP JUMPDEST SWAP1 POP PUSH1 0x0 DUP2 PUSH1 0xFF AND GT PUSH2 0xDBF JUMPI PUSH1 0x40 MLOAD PUSH32 0x8C379A000000000000000000000000000000000000000000000000000000000 DUP2 MSTORE PUSH1 0x4 ADD PUSH2 0xDB6 SWAP1 PUSH2 0x3970 JUMP JUMPDEST PUSH1 0x40 MLOAD DUP1 SWAP2 SUB SWAP1 REVERT JUMPDEST PUSH1 0x0 PUSH1 0x64 DUP3 PUSH2 0xDCE SWAP2 SWAP1 PUSH2 0x2EE8 JUMP JUMPDEST PUSH1 0xFF AND PUSH1 0xA PUSH1 0x3 ADD SLOAD PUSH2 0xDE1 SWAP2 SWAP1 PUSH2 0x2F19 JUMP JUMPDEST SWAP1 POP PUSH1 0x0 DUP2 PUSH1 0xA PUSH1 0x3 ADD SLOAD PUSH2 0xDF6 SWAP2 SWAP1 PUSH2 0x2F5B JUMP JUMPDEST SWAP1 POP PUSH1 0x0 DUP1 PUSH1 0x0 SELFBALANCE SWAP1 POP PUSH1 0xA PUSH1 0x3 ADD SLOAD DUP2 GT ISZERO PUSH2 0xFF7 JUMPI PUSH1 0x64 DUP7 PUSH2 0xE1A SWAP2 SWAP1 PUSH2 0x2EE8 JUMP JUMPDEST PUSH1 0xFF AND PUSH1 0xA PUSH1 0x3 ADD SLOAD PUSH2 0xE2D SWAP2 SWAP1 PUSH2 0x2F19 JUMP JUMPDEST SWAP5 POP DUP5 PUSH1 0xA PUSH1 0x3 ADD SLOAD PUSH2 0xE40 SWAP2 SWAP1 PUSH2 0x2F5B JUMP JUMPDEST SWAP4 POP PUSH1 0x0 DUP6 GT ISZERO PUSH2 0xF1A JUMPI PUSH1 0x5 PUSH1 0x0 SWAP1 SLOAD SWAP1 PUSH2 0x100 EXP SWAP1 DIV PUSH20 0xFFFFFFFFFFFFFFFFFFFFFFFFFFFFFFFFFFFFFFFF AND PUSH20 0xFFFFFFFFFFFFFFFFFFFFFFFFFFFFFFFFFFFFFFFF AND DUP6 PUSH1 0x40 MLOAD PUSH2 0xE91 SWAP1 PUSH2 0x2FC0 JUMP JUMPDEST PUSH1 0x0 PUSH1 0x40 MLOAD DUP1 DUP4 SUB DUP2 DUP6 DUP8 GAS CALL SWAP3 POP POP POP RETURNDATASIZE DUP1 PUSH1 0x0 DUP2 EQ PUSH2 0xECE JUMPI PUSH1 0x40 MLOAD SWAP2 POP PUSH1 0x1F NOT PUSH1 0x3F RETURNDATASIZE ADD AND DUP3 ADD PUSH1 0x40 MSTORE RETURNDATASIZE DUP3 MSTORE RETURNDATASIZE PUSH1 0x0 PUSH1 0x20 DUP5 ADD RETURNDATACOPY PUSH2 0xED3 JUMP JUMPDEST PUSH1 0x60 SWAP2 POP JUMPDEST POP POP DUP1 SWAP4 POP POP DUP3 PUSH2 0xF19 JUMPI PUSH1 0x40 MLOAD PUSH32 0x8C379A000000000000000000000000000000000000000000000000000000000 DUP2 MSTORE PUSH1 0x4 ADD PUSH2 0xF10 SWAP1 PUSH2 0x3A02 JUMP JUMPDEST PUSH1 0x40 MLOAD DUP1 SWAP2 SUB SWAP1 REVERT JUMPDEST JUMPDEST PUSH1 0x0 DUP5 GT ISZERO PUSH2 0xFF2 JUMPI PUSH1 0x4 PUSH1 0x0 SWAP1 SLOAD SWAP1 PUSH2 0x100 EXP SWAP1 DIV PUSH20 0xFFFFFFFFFFFFFFFFFFFFFFFFFFFFFFFFFFFFFFFF AND PUSH20 0xFFFFFFFFFFFFFFFFFFFFFFFFFFFFFFFFFFFFFFFF AND DUP5 PUSH1 0x40 MLOAD PUSH2 0xF69 SWAP1 PUSH2 0x2FC0 JUMP JUMPDEST PUSH1 0x0 PUSH1 0x40 MLOAD DUP1 DUP4 SUB DUP2 DUP6 DUP8 GAS CALL SWAP3 POP POP POP RETURNDATASIZE DUP1 PUSH1 0x0 DUP2 EQ PUSH2 0xFA6 JUMPI PUSH1 0x40 MLOAD SWAP2 POP PUSH1 0x1F NOT PUSH1 0x3F RETURNDATASIZE ADD AND DUP3 ADD PUSH1 0x40 MSTORE RETURNDATASIZE DUP3 MSTORE RETURNDATASIZE PUSH1 0x0 PUSH1 0x20 DUP5 ADD RETURNDATACOPY PUSH2 0xFAB JUMP JUMPDEST PUSH1 0x60 SWAP2 POP JUMPDEST POP POP DUP1 SWAP3 POP POP DUP2 PUSH2 0xFF1 JUMPI PUSH1 0x40 MLOAD PUSH32 0x8C379A000000000000000000000000000000000000000000000000000000000 DUP2 MSTORE PUSH1 0x4 ADD PUSH2 0xFE8 SWAP1 PUSH2 0x3A94 JUMP JUMPDEST PUSH1 0x40 MLOAD DUP1 SWAP2 SUB SWAP1 REVERT JUMPDEST JUMPDEST PUSH2 0x1032 JUMP JUMPDEST PUSH1 0x40 MLOAD PUSH32 0x8C379A000000000000000000000000000000000000000000000000000000000 DUP2 MSTORE PUSH1 0x4 ADD PUSH2 0x1029 SWAP1 PUSH2 0x3B4C JUMP JUMPDEST PUSH1 0x40 MLOAD DUP1 SWAP2 SUB SWAP1 REVERT JUMPDEST DUP3 DUP1 PUSH2 0x103B JUMPI POP DUP2 JUMPDEST PUSH2 0x107A JUMPI PUSH1 0x40 MLOAD PUSH32 0x8C379A000000000000000000000000000000000000000000000000000000000 DUP2 MSTORE PUSH1 0x4 ADD PUSH2 0x1071 SWAP1 PUSH2 0x3BDE JUMP JUMPDEST PUSH1 0x40 MLOAD DUP1 SWAP2 SUB SWAP1 REVERT JUMPDEST PUSH1 0x1 PUSH1 0x9 PUSH1 0x0 PUSH2 0x100 EXP DUP2 SLOAD DUP2 PUSH1 0xFF MUL NOT AND SWAP1 DUP4 ISZERO ISZERO MUL OR SWAP1 SSTORE POP DUP12 PUSH1 0x8 DUP2 SWAP1 SSTORE POP PUSH1 0x0 DUP6 GT DUP1 ISZERO PUSH2 0x10AC JUMPI POP PUSH1 0x0 DUP5 GT JUMPDEST ISZERO PUSH2 0x10D2 JUMPI PUSH1 0x3 PUSH1 0x5 PUSH1 0x15 PUSH2 0x100 EXP DUP2 SLOAD DUP2 PUSH1 0xFF MUL NOT AND SWAP1 DUP4 PUSH1 0xFF AND MUL OR SWAP1 SSTORE POP PUSH2 0x113C JUMP JUMPDEST PUSH1 0x0 DUP6 GT DUP1 ISZERO PUSH2 0x10E2 JUMPI POP PUSH1 0x0 DUP5 EQ JUMPDEST ISZERO PUSH2 0x1108 JUMPI PUSH1 0x2 PUSH1 0x5 PUSH1 0x15 PUSH2 0x100 EXP DUP2 SLOAD DUP2 PUSH1 0xFF MUL NOT AND SWAP1 DUP4 PUSH1 0xFF AND MUL OR SWAP1 SSTORE POP PUSH2 0x113B JUMP JUMPDEST PUSH1 0x0 DUP6 EQ DUP1 ISZERO PUSH2 0x1118 JUMPI POP PUSH1 0x0 DUP5 GT JUMPDEST ISZERO PUSH2 0x113A JUMPI PUSH1 0x4 PUSH1 0x5 PUSH1 0x15 PUSH2 0x100 EXP DUP2 SLOAD DUP2 PUSH1 0xFF MUL NOT AND SWAP1 DUP4 PUSH1 0xFF AND MUL OR SWAP1 SSTORE POP JUMPDEST JUMPDEST JUMPDEST DUP5 PUSH1 0xA PUSH1 0x4 ADD DUP2 SWAP1 SSTORE POP DUP4 PUSH1 0xA PUSH1 0x5 ADD DUP2 SWAP1 SSTORE POP PUSH1 0x3 PUSH1 0x5 PUSH1 0x14 PUSH2 0x100 EXP DUP2 SLOAD DUP2 PUSH1 0xFF MUL NOT AND SWAP1 DUP4 PUSH1 0xFF AND MUL OR SWAP1 SSTORE POP TIMESTAMP PUSH1 0x7 DUP2 SWAP1 SSTORE POP PUSH1 0x7 SLOAD PUSH1 0x8 DUP2 SWAP1 SSTORE POP PUSH1 0x1 SWAP13 POP PUSH32 0xCF25CB80C2593591B7DEBE7D7DBC914BE276B5B7BACFAE64AD3F306A07EA0F7C PUSH1 0x1 SLOAD PUSH1 0x40 MLOAD PUSH2 0x11B1 SWAP2 SWAP1 PUSH2 0x3C4A JUMP JUMPDEST PUSH1 0x40 MLOAD DUP1 SWAP2 SUB SWAP1 LOG1 POP POP POP POP POP POP POP POP POP POP POP POP SWAP1 JUMP JUMPDEST PUSH1 0x0 PUSH1 0x60 PUSH1 0x5 PUSH1 0x0 SWAP1 SLOAD SWAP1 PUSH2 0x100 EXP SWAP1 DIV PUSH20 0xFFFFFFFFFFFFFFFFFFFFFFFFFFFFFFFFFFFFFFFF AND PUSH20 0xFFFFFFFFFFFFFFFFFFFFFFFFFFFFFFFFFFFFFFFF AND CALLER PUSH20 0xFFFFFFFFFFFFFFFFFFFFFFFFFFFFFFFFFFFFFFFF AND EQ PUSH2 0x125C JUMPI PUSH1 0x40 MLOAD PUSH32 0x8C379A000000000000000000000000000000000000000000000000000000000 DUP2 MSTORE PUSH1 0x4 ADD PUSH2 0x1253 SWAP1 PUSH2 0x34DA JUMP JUMPDEST PUSH1 0x40 MLOAD DUP1 SWAP2 SUB SWAP1 REVERT JUMPDEST PUSH1 0x0 TIMESTAMP SWAP1 POP PUSH1 0x1 PUSH1 0xFF AND PUSH1 0x5 PUSH1 0x14 SWAP1 SLOAD SWAP1 PUSH2 0x100 EXP SWAP1 DIV PUSH1 0xFF AND PUSH1 0xFF AND SUB PUSH2 0x13AC JUMPI PUSH1 0x3 PUSH1 0x0 SWAP1 SLOAD SWAP1 PUSH2 0x100 EXP SWAP1 DIV PUSH20 0xFFFFFFFFFFFFFFFFFFFFFFFFFFFFFFFFFFFFFFFF AND PUSH20 0xFFFFFFFFFFFFFFFFFFFFFFFFFFFFFFFFFFFFFFFF AND PUSH4 0x4DA75D4F PUSH1 0x0 DUP1 SLOAD SWAP1 PUSH2 0x100 EXP SWAP1 DIV PUSH20 0xFFFFFFFFFFFFFFFFFFFFFFFFFFFFFFFFFFFFFFFF AND PUSH1 0x40 MLOAD DUP3 PUSH4 0xFFFFFFFF AND PUSH1 0xE0 SHL DUP2 MSTORE PUSH1 0x4 ADD PUSH2 0x12F9 SWAP2 SWAP1 PUSH2 0x3C78 JUMP JUMPDEST PUSH1 0x0 PUSH1 0x40 MLOAD DUP1 DUP4 SUB DUP2 PUSH1 0x0 DUP8 GAS CALL ISZERO DUP1 ISZERO PUSH2 0x1318 JUMPI RETURNDATASIZE PUSH1 0x0 DUP1 RETURNDATACOPY RETURNDATASIZE PUSH1 0x0 REVERT JUMPDEST POP POP POP POP PUSH1 0x40 MLOAD RETURNDATASIZE PUSH1 0x0 DUP3 RETURNDATACOPY RETURNDATASIZE PUSH1 0x1F NOT PUSH1 0x1F DUP3 ADD AND DUP3 ADD DUP1 PUSH1 0x40 MSTORE POP DUP2 ADD SWAP1 PUSH2 0x1341 SWAP2 SWAP1 PUSH2 0x3D03 JUMP JUMPDEST DUP1 SWAP4 POP DUP2 SWAP5 POP POP POP PUSH1 0x0 PUSH1 0x5 PUSH1 0x14 PUSH2 0x100 EXP DUP2 SLOAD DUP2 PUSH1 0xFF MUL NOT AND SWAP1 DUP4 PUSH1 0xFF AND MUL OR SWAP1 SSTORE POP DUP1 PUSH1 0x7 DUP2 SWAP1 SSTORE POP PUSH32 0x25E8A2E026A8E044740A13A07990ABC9E9AE34A60F00E858F5480F21F646DE0 PUSH1 0x1 SLOAD DUP4 PUSH1 0x40 MLOAD PUSH2 0x139F SWAP3 SWAP2 SWAP1 PUSH2 0x3D5F JUMP JUMPDEST PUSH1 0x40 MLOAD DUP1 SWAP2 SUB SWAP1 LOG1 PUSH2 0x145D JUMP JUMPDEST PUSH1 0x4 PUSH1 0xFF AND PUSH1 0x5 PUSH1 0x14 SWAP1 SLOAD SWAP1 PUSH2 0x100 EXP SWAP1 DIV PUSH1 0xFF AND PUSH1 0xFF AND SUB PUSH2 0x1404 JUMPI PUSH1 0x40 MLOAD PUSH32 0x8C379A000000000000000000000000000000000000000000000000000000000 DUP2 MSTORE PUSH1 0x4 ADD PUSH2 0x13FB SWAP1 PUSH2 0x3E01 JUMP JUMPDEST PUSH1 0x40 MLOAD DUP1 SWAP2 SUB SWAP1 REVERT JUMPDEST PUSH1 0x5 PUSH1 0xFF AND PUSH1 0x5 PUSH1 0x14 SWAP1 SLOAD SWAP1 PUSH2 0x100 EXP SWAP1 DIV PUSH1 0xFF AND PUSH1 0xFF AND SUB PUSH2 0x145C JUMPI PUSH1 0x40 MLOAD PUSH32 0x8C379A000000000000000000000000000000000000000000000000000000000 DUP2 MSTORE PUSH1 0x4 ADD PUSH2 0x1453 SWAP1 PUSH2 0x3E6D JUMP JUMPDEST PUSH1 0x40 MLOAD DUP1 SWAP2 SUB SWAP1 REVERT JUMPDEST JUMPDEST PUSH1 0x9 PUSH1 0x0 SWAP1 SLOAD SWAP1 PUSH2 0x100 EXP SWAP1 DIV PUSH1 0xFF AND PUSH2 0x18C0 JUMPI PUSH1 0x0 PUSH1 0x3 PUSH1 0x0 SWAP1 SLOAD SWAP1 PUSH2 0x100 EXP SWAP1 DIV PUSH20 0xFFFFFFFFFFFFFFFFFFFFFFFFFFFFFFFFFFFFFFFF AND PUSH20 0xFFFFFFFFFFFFFFFFFFFFFFFFFFFFFFFFFFFFFFFF AND PUSH4 0xD9D2F547 PUSH1 0xA PUSH1 0x0 ADD SLOAD PUSH1 0x40 MLOAD DUP3 PUSH4 0xFFFFFFFF AND PUSH1 0xE0 SHL DUP2 MSTORE PUSH1 0x4 ADD PUSH2 0x14D3 SWAP2 SWAP1 PUSH2 0x37C0 JUMP JUMPDEST PUSH1 0x20 PUSH1 0x40 MLOAD DUP1 DUP4 SUB DUP2 DUP7 GAS STATICCALL ISZERO DUP1 ISZERO PUSH2 0x14F0 JUMPI RETURNDATASIZE PUSH1 0x0 DUP1 RETURNDATACOPY RETURNDATASIZE PUSH1 0x0 REVERT JUMPDEST POP POP POP POP PUSH1 0x40 MLOAD RETURNDATASIZE PUSH1 0x1F NOT PUSH1 0x1F DUP3 ADD AND DUP3 ADD DUP1 PUSH1 0x40 MSTORE POP DUP2 ADD SWAP1 PUSH2 0x1514 SWAP2 SWAP1 PUSH2 0x3E8D JUMP JUMPDEST SWAP1 POP PUSH1 0x0 PUSH1 0xFF AND DUP2 PUSH1 0xFF AND LT ISZERO DUP1 ISZERO PUSH2 0x1534 JUMPI POP PUSH1 0x2 PUSH1 0xFF AND DUP2 PUSH1 0xFF AND GT ISZERO JUMPDEST PUSH2 0x1573 JUMPI PUSH1 0x40 MLOAD PUSH32 0x8C379A000000000000000000000000000000000000000000000000000000000 DUP2 MSTORE PUSH1 0x4 ADD PUSH2 0x156A SWAP1 PUSH2 0x3F2C JUMP JUMPDEST PUSH1 0x40 MLOAD DUP1 SWAP2 SUB SWAP1 REVERT JUMPDEST PUSH1 0x0 DUP3 PUSH1 0xA PUSH1 0x8 ADD SLOAD GT PUSH2 0x1588 JUMPI PUSH1 0x0 PUSH2 0x159A JUMP JUMPDEST DUP3 PUSH1 0xA PUSH1 0x8 ADD SLOAD PUSH2 0x1599 SWAP2 SWAP1 PUSH2 0x2F5B JUMP JUMPDEST JUMPDEST SWAP1 POP PUSH1 0x0 PUSH2 0x15AA DUP3 DUP5 PUSH1 0x1 PUSH2 0x21F3 JUMP JUMPDEST SWAP1 POP PUSH1 0x0 DUP2 PUSH1 0xFF AND GT PUSH2 0x15F2 JUMPI PUSH1 0x40 MLOAD PUSH32 0x8C379A000000000000000000000000000000000000000000000000000000000 DUP2 MSTORE PUSH1 0x4 ADD PUSH2 0x15E9 SWAP1 PUSH2 0x3FBE JUMP JUMPDEST PUSH1 0x40 MLOAD DUP1 SWAP2 SUB SWAP1 REVERT JUMPDEST PUSH1 0x4 PUSH1 0x5 PUSH1 0x14 PUSH2 0x100 EXP DUP2 SLOAD DUP2 PUSH1 0xFF MUL NOT AND SWAP1 DUP4 PUSH1 0xFF AND MUL OR SWAP1 SSTORE POP DUP4 PUSH1 0x7 DUP2 SWAP1 SSTORE POP PUSH1 0x0 DUP1 PUSH1 0x0 DUP1 PUSH1 0x0 SELFBALANCE SWAP1 POP PUSH1 0xA PUSH1 0x3 ADD SLOAD DUP2 LT PUSH2 0x180C JUMPI PUSH1 0x64 DUP7 PUSH2 0x1639 SWAP2 SWAP1 PUSH2 0x2EE8 JUMP JUMPDEST PUSH1 0xFF AND DUP2 PUSH2 0x1647 SWAP2 SWAP1 PUSH2 0x2F19 JUMP JUMPDEST SWAP5 POP DUP5 DUP2 PUSH2 0x1655 SWAP2 SWAP1 PUSH2 0x2F5B JUMP JUMPDEST SWAP4 POP PUSH1 0x0 DUP6 GT ISZERO PUSH2 0x172F JUMPI PUSH1 0x5 PUSH1 0x0 SWAP1 SLOAD SWAP1 PUSH2 0x100 EXP SWAP1 DIV PUSH20 0xFFFFFFFFFFFFFFFFFFFFFFFFFFFFFFFFFFFFFFFF AND PUSH20 0xFFFFFFFFFFFFFFFFFFFFFFFFFFFFFFFFFFFFFFFF AND DUP6 PUSH1 0x40 MLOAD PUSH2 0x16A6 SWAP1 PUSH2 0x2FC0 JUMP JUMPDEST PUSH1 0x0 PUSH1 0x40 MLOAD DUP1 DUP4 SUB DUP2 DUP6 DUP8 GAS CALL SWAP3 POP POP POP RETURNDATASIZE DUP1 PUSH1 0x0 DUP2 EQ PUSH2 0x16E3 JUMPI PUSH1 0x40 MLOAD SWAP2 POP PUSH1 0x1F NOT PUSH1 0x3F RETURNDATASIZE ADD AND DUP3 ADD PUSH1 0x40 MSTORE RETURNDATASIZE DUP3 MSTORE RETURNDATASIZE PUSH1 0x0 PUSH1 0x20 DUP5 ADD RETURNDATACOPY PUSH2 0x16E8 JUMP JUMPDEST PUSH1 0x60 SWAP2 POP JUMPDEST POP POP DUP1 SWAP4 POP POP DUP3 PUSH2 0x172E JUMPI PUSH1 0x40 MLOAD PUSH32 0x8C379A000000000000000000000000000000000000000000000000000000000 DUP2 MSTORE PUSH1 0x4 ADD PUSH2 0x1725 SWAP1 PUSH2 0x4050 JUMP JUMPDEST PUSH1 0x40 MLOAD DUP1 SWAP2 SUB SWAP1 REVERT JUMPDEST JUMPDEST PUSH1 0x0 DUP5 GT ISZERO PUSH2 0x1807 JUMPI PUSH1 0x4 PUSH1 0x0 SWAP1 SLOAD SWAP1 PUSH2 0x100 EXP SWAP1 DIV PUSH20 0xFFFFFFFFFFFFFFFFFFFFFFFFFFFFFFFFFFFFFFFF AND PUSH20 0xFFFFFFFFFFFFFFFFFFFFFFFFFFFFFFFFFFFFFFFF AND DUP5 PUSH1 0x40 MLOAD PUSH2 0x177E SWAP1 PUSH2 0x2FC0 JUMP JUMPDEST PUSH1 0x0 PUSH1 0x40 MLOAD DUP1 DUP4 SUB DUP2 DUP6 DUP8 GAS CALL SWAP3 POP POP POP RETURNDATASIZE DUP1 PUSH1 0x0 DUP2 EQ PUSH2 0x17BB JUMPI PUSH1 0x40 MLOAD SWAP2 POP PUSH1 0x1F NOT PUSH1 0x3F RETURNDATASIZE ADD AND DUP3 ADD PUSH1 0x40 MSTORE RETURNDATASIZE DUP3 MSTORE RETURNDATASIZE PUSH1 0x0 PUSH1 0x20 DUP5 ADD RETURNDATACOPY PUSH2 0x17C0 JUMP JUMPDEST PUSH1 0x60 SWAP2 POP JUMPDEST POP POP DUP1 SWAP3 POP POP DUP2 PUSH2 0x1806 JUMPI PUSH1 0x40 MLOAD PUSH32 0x8C379A000000000000000000000000000000000000000000000000000000000 DUP2 MSTORE PUSH1 0x4 ADD PUSH2 0x17FD SWAP1 PUSH2 0x4050 JUMP JUMPDEST PUSH1 0x40 MLOAD DUP1 SWAP2 SUB SWAP1 REVERT JUMPDEST JUMPDEST PUSH2 0x1864 JUMP JUMPDEST PUSH1 0x40 MLOAD DUP1 PUSH1 0x60 ADD PUSH1 0x40 MSTORE DUP1 PUSH1 0x32 DUP2 MSTORE PUSH1 0x20 ADD PUSH2 0x44F3 PUSH1 0x32 SWAP2 CODECOPY SWAP10 POP DUP10 PUSH1 0x40 MLOAD PUSH32 0x8C379A000000000000000000000000000000000000000000000000000000000 DUP2 MSTORE PUSH1 0x4 ADD PUSH2 0x185B SWAP2 SWAP1 PUSH2 0x4070 JUMP JUMPDEST PUSH1 0x40 MLOAD DUP1 SWAP2 SUB SWAP1 REVERT JUMPDEST DUP3 DUP1 PUSH2 0x186D JUMPI POP DUP2 JUMPDEST PUSH2 0x18AC JUMPI PUSH1 0x40 MLOAD PUSH32 0x8C379A000000000000000000000000000000000000000000000000000000000 DUP2 MSTORE PUSH1 0x4 ADD PUSH2 0x18A3 SWAP1 PUSH2 0x4050 JUMP JUMPDEST PUSH1 0x40 MLOAD DUP1 SWAP2 SUB SWAP1 REVERT JUMPDEST PUSH2 0x18B6 DUP6 DUP6 PUSH2 0x238A JUMP JUMPDEST POP POP POP POP POP POP POP POP POP JUMPDEST PUSH1 0x5 DUP1 PUSH1 0x14 PUSH2 0x100 EXP DUP2 SLOAD DUP2 PUSH1 0xFF MUL NOT AND SWAP1 DUP4 PUSH1 0xFF AND MUL OR SWAP1 SSTORE POP DUP1 PUSH1 0x7 DUP2 SWAP1 SSTORE POP PUSH1 0x40 MLOAD DUP1 PUSH1 0x40 ADD PUSH1 0x40 MSTORE DUP1 PUSH1 0x2 DUP2 MSTORE PUSH1 0x20 ADD PUSH32 0x4E41000000000000000000000000000000000000000000000000000000000000 DUP2 MSTORE POP PUSH1 0xA PUSH1 0x1 ADD SWAP1 DUP2 PUSH2 0x1929 SWAP2 SWAP1 PUSH2 0x3342 JUMP JUMPDEST POP PUSH1 0x3 PUSH1 0x0 SWAP1 SLOAD SWAP1 PUSH2 0x100 EXP SWAP1 DIV PUSH20 0xFFFFFFFFFFFFFFFFFFFFFFFFFFFFFFFFFFFFFFFF AND PUSH20 0xFFFFFFFFFFFFFFFFFFFFFFFFFFFFFFFFFFFFFFFF AND PUSH4 0x17B21972 PUSH1 0x0 DUP1 SLOAD SWAP1 PUSH2 0x100 EXP SWAP1 DIV PUSH20 0xFFFFFFFFFFFFFFFFFFFFFFFFFFFFFFFFFFFFFFFF AND PUSH1 0x40 MLOAD DUP3 PUSH4 0xFFFFFFFF AND PUSH1 0xE0 SHL DUP2 MSTORE PUSH1 0x4 ADD PUSH2 0x19A5 SWAP2 SWAP1 PUSH2 0x3C78 JUMP JUMPDEST PUSH1 0x0 PUSH1 0x40 MLOAD DUP1 DUP4 SUB DUP2 PUSH1 0x0 DUP8 GAS CALL ISZERO DUP1 ISZERO PUSH2 0x19C4 JUMPI RETURNDATASIZE PUSH1 0x0 DUP1 RETURNDATACOPY RETURNDATASIZE PUSH1 0x0 REVERT JUMPDEST POP POP POP POP PUSH1 0x40 MLOAD RETURNDATASIZE PUSH1 0x0 DUP3 RETURNDATACOPY RETURNDATASIZE PUSH1 0x1F NOT PUSH1 0x1F DUP3 ADD AND DUP3 ADD DUP1 PUSH1 0x40 MSTORE POP DUP2 ADD SWAP1 PUSH2 0x19ED SWAP2 SWAP1 PUSH2 0x3D03 JUMP JUMPDEST DUP1 SWAP4 POP DUP2 SWAP5 POP POP POP DUP3 DUP3 SWAP1 PUSH2 0x1A38 JUMPI PUSH1 0x40 MLOAD PUSH32 0x8C379A000000000000000000000000000000000000000000000000000000000 DUP2 MSTORE PUSH1 0x4 ADD PUSH2 0x1A2F SWAP2 SWAP1 PUSH2 0x4070 JUMP JUMPDEST PUSH1 0x40 MLOAD DUP1 SWAP2 SUB SWAP1 REVERT JUMPDEST POP PUSH1 0x1 SWAP3 POP PUSH2 0x1A48 PUSH1 0x1 SLOAD PUSH2 0x2451 JUMP JUMPDEST PUSH1 0x40 MLOAD PUSH1 0x20 ADD PUSH2 0x1A58 SWAP2 SWAP1 PUSH2 0x4140 JUMP JUMPDEST PUSH1 0x40 MLOAD PUSH1 0x20 DUP2 DUP4 SUB SUB DUP2 MSTORE SWAP1 PUSH1 0x40 MSTORE SWAP2 POP PUSH32 0x25E8A2E026A8E044740A13A07990ABC9E9AE34A60F00E858F5480F21F646DE0 PUSH1 0x1 SLOAD DUP4 PUSH1 0x40 MLOAD PUSH2 0x1A9C SWAP3 SWAP2 SWAP1 PUSH2 0x3D5F JUMP JUMPDEST PUSH1 0x40 MLOAD DUP1 SWAP2 SUB SWAP1 LOG1 POP SWAP1 SWAP2 JUMP JUMPDEST PUSH1 0x0 PUSH1 0x5 PUSH1 0x0 SWAP1 SLOAD SWAP1 PUSH2 0x100 EXP SWAP1 DIV PUSH20 0xFFFFFFFFFFFFFFFFFFFFFFFFFFFFFFFFFFFFFFFF AND PUSH20 0xFFFFFFFFFFFFFFFFFFFFFFFFFFFFFFFFFFFFFFFF AND CALLER PUSH20 0xFFFFFFFFFFFFFFFFFFFFFFFFFFFFFFFFFFFFFFFF AND EQ PUSH2 0x1B3B JUMPI PUSH1 0x40 MLOAD PUSH32 0x8C379A000000000000000000000000000000000000000000000000000000000 DUP2 MSTORE PUSH1 0x4 ADD PUSH2 0x1B32 SWAP1 PUSH2 0x34DA JUMP JUMPDEST PUSH1 0x40 MLOAD DUP1 SWAP2 SUB SWAP1 REVERT JUMPDEST PUSH1 0x0 SWAP1 POP PUSH1 0x0 PUSH1 0xA PUSH1 0x2 ADD SLOAD SWAP1 POP DUP1 CALLVALUE LT ISZERO PUSH2 0x1B8C JUMPI PUSH1 0x40 MLOAD PUSH32 0x8C379A000000000000000000000000000000000000000000000000000000000 DUP2 MSTORE PUSH1 0x4 ADD PUSH2 0x1B83 SWAP1 PUSH2 0x41D4 JUMP JUMPDEST PUSH1 0x40 MLOAD DUP1 SWAP2 SUB SWAP1 REVERT JUMPDEST PUSH1 0x3 PUSH1 0x0 SWAP1 SLOAD SWAP1 PUSH2 0x100 EXP SWAP1 DIV PUSH20 0xFFFFFFFFFFFFFFFFFFFFFFFFFFFFFFFFFFFFFFFF AND PUSH20 0xFFFFFFFFFFFFFFFFFFFFFFFFFFFFFFFFFFFFFFFF AND PUSH4 0x8F00BE4A PUSH1 0x0 DUP1 SLOAD SWAP1 PUSH2 0x100 EXP SWAP1 DIV PUSH20 0xFFFFFFFFFFFFFFFFFFFFFFFFFFFFFFFFFFFFFFFF AND CALLER PUSH1 0x40 MLOAD DUP4 PUSH4 0xFFFFFFFF AND PUSH1 0xE0 SHL DUP2 MSTORE PUSH1 0x4 ADD PUSH2 0x1C09 SWAP3 SWAP2 SWAP1 PUSH2 0x41F4 JUMP JUMPDEST PUSH1 0x20 PUSH1 0x40 MLOAD DUP1 DUP4 SUB DUP2 PUSH1 0x0 DUP8 GAS CALL ISZERO DUP1 ISZERO PUSH2 0x1C28 JUMPI RETURNDATASIZE PUSH1 0x0 DUP1 RETURNDATACOPY RETURNDATASIZE PUSH1 0x0 REVERT JUMPDEST POP POP POP POP PUSH1 0x40 MLOAD RETURNDATASIZE PUSH1 0x1F NOT PUSH1 0x1F DUP3 ADD AND DUP3 ADD DUP1 PUSH1 0x40 MSTORE POP DUP2 ADD SWAP1 PUSH2 0x1C4C SWAP2 SWAP1 PUSH2 0x3597 JUMP JUMPDEST SWAP2 POP DUP2 PUSH2 0x1C8E JUMPI PUSH1 0x40 MLOAD PUSH32 0x8C379A000000000000000000000000000000000000000000000000000000000 DUP2 MSTORE PUSH1 0x4 ADD PUSH2 0x1C85 SWAP1 PUSH2 0x4269 JUMP JUMPDEST PUSH1 0x40 MLOAD DUP1 SWAP2 SUB SWAP1 REVERT JUMPDEST PUSH1 0x0 DUP2 CALLVALUE PUSH2 0x1C9C SWAP2 SWAP1 PUSH2 0x2F5B JUMP JUMPDEST SWAP1 POP PUSH1 0x0 DUP2 GT ISZERO PUSH2 0x1D91 JUMPI PUSH1 0x0 CALLER PUSH20 0xFFFFFFFFFFFFFFFFFFFFFFFFFFFFFFFFFFFFFFFF AND DUP3 PUSH1 0x40 MLOAD PUSH2 0x1CCD SWAP1 PUSH2 0x2FC0 JUMP JUMPDEST PUSH1 0x0 PUSH1 0x40 MLOAD DUP1 DUP4 SUB DUP2 DUP6 DUP8 GAS CALL SWAP3 POP POP POP RETURNDATASIZE DUP1 PUSH1 0x0 DUP2 EQ PUSH2 0x1D0A JUMPI PUSH1 0x40 MLOAD SWAP2 POP PUSH1 0x1F NOT PUSH1 0x3F RETURNDATASIZE ADD AND DUP3 ADD PUSH1 0x40 MSTORE RETURNDATASIZE DUP3 MSTORE RETURNDATASIZE PUSH1 0x0 PUSH1 0x20 DUP5 ADD RETURNDATACOPY PUSH2 0x1D0F JUMP JUMPDEST PUSH1 0x60 SWAP2 POP JUMPDEST POP POP SWAP1 POP DUP1 PUSH2 0x1D53 JUMPI PUSH1 0x40 MLOAD PUSH32 0x8C379A000000000000000000000000000000000000000000000000000000000 DUP2 MSTORE PUSH1 0x4 ADD PUSH2 0x1D4A SWAP1 PUSH2 0x4269 JUMP JUMPDEST PUSH1 0x40 MLOAD DUP1 SWAP2 SUB SWAP1 REVERT JUMPDEST PUSH1 0x2 PUSH1 0x5 PUSH1 0x14 PUSH2 0x100 EXP DUP2 SLOAD DUP2 PUSH1 0xFF MUL NOT AND SWAP1 DUP4 PUSH1 0xFF AND MUL OR SWAP1 SSTORE POP PUSH1 0x1 PUSH1 0x5 PUSH1 0x15 PUSH2 0x100 EXP DUP2 SLOAD DUP2 PUSH1 0xFF MUL NOT AND SWAP1 DUP4 PUSH1 0xFF AND MUL OR SWAP1 SSTORE POP PUSH1 0x1 SWAP4 POP POP JUMPDEST DUP2 PUSH1 0xA PUSH1 0x3 ADD DUP2 SWAP1 SSTORE POP PUSH1 0x2 PUSH1 0x5 PUSH1 0x14 PUSH2 0x100 EXP DUP2 SLOAD DUP2 PUSH1 0xFF MUL NOT AND SWAP1 DUP4 PUSH1 0xFF AND MUL OR SWAP1 SSTORE POP TIMESTAMP PUSH1 0x7 DUP2 SWAP1 SSTORE POP PUSH1 0x1 PUSH1 0x5 PUSH1 0x15 PUSH2 0x100 EXP DUP2 SLOAD DUP2 PUSH1 0xFF MUL NOT AND SWAP1 DUP4 PUSH1 0xFF AND MUL OR SWAP1 SSTORE POP TIMESTAMP PUSH1 0x8 DUP2 SWAP1 SSTORE POP PUSH32 0x2E3ADCD6802B3BAB575FB11DB537DA427381ECAF1C001902E87AF8957ACC3234 PUSH1 0xA PUSH1 0x0 ADD SLOAD PUSH1 0x1 SLOAD DUP4 DUP6 PUSH1 0x40 MLOAD PUSH2 0x1E1D SWAP5 SWAP4 SWAP3 SWAP2 SWAP1 PUSH2 0x42D5 JUMP JUMPDEST PUSH1 0x40 MLOAD DUP1 SWAP2 SUB SWAP1 LOG1 POP POP SWAP1 JUMP JUMPDEST PUSH1 0x60 PUSH1 0x1 PUSH1 0xFF AND DUP3 SUB PUSH2 0x1E74 JUMPI PUSH1 0x40 MLOAD DUP1 PUSH1 0x40 ADD PUSH1 0x40 MSTORE DUP1 PUSH1 0x8 DUP2 MSTORE PUSH1 0x20 ADD PUSH32 0x5245534552564544000000000000000000000000000000000000000000000000 DUP2 MSTORE POP SWAP1 POP PUSH2 0x1F85 JUMP JUMPDEST PUSH1 0x2 PUSH1 0xFF AND DUP3 SUB PUSH2 0x1EBC JUMPI PUSH1 0x40 MLOAD DUP1 PUSH1 0x40 ADD PUSH1 0x40 MSTORE DUP1 PUSH1 0x9 DUP2 MSTORE PUSH1 0x20 ADD PUSH32 0x434F4E4649524D45440000000000000000000000000000000000000000000000 DUP2 MSTORE POP SWAP1 POP PUSH2 0x1F85 JUMP JUMPDEST PUSH1 0x4 PUSH1 0xFF AND DUP3 SUB PUSH2 0x1F04 JUMPI PUSH1 0x40 MLOAD DUP1 PUSH1 0x40 ADD PUSH1 0x40 MSTORE DUP1 PUSH1 0x18 DUP2 MSTORE PUSH1 0x20 ADD PUSH32 0x43414E43454C4C4154494F4E2D494E2D50524F47524553530000000000000000 DUP2 MSTORE POP SWAP1 POP PUSH2 0x1F85 JUMP JUMPDEST PUSH1 0x5 PUSH1 0xFF AND DUP3 SUB PUSH2 0x1F4C JUMPI PUSH1 0x40 MLOAD DUP1 PUSH1 0x40 ADD PUSH1 0x40 MSTORE DUP1 PUSH1 0x9 DUP2 MSTORE PUSH1 0x20 ADD PUSH32 0x43414E43454C4C45440000000000000000000000000000000000000000000000 DUP2 MSTORE POP SWAP1 POP PUSH2 0x1F85 JUMP JUMPDEST PUSH1 0x40 MLOAD DUP1 PUSH1 0x40 ADD PUSH1 0x40 MSTORE DUP1 PUSH1 0x7 DUP2 MSTORE PUSH1 0x20 ADD PUSH32 0x554E4B4E4F574E00000000000000000000000000000000000000000000000000 DUP2 MSTORE POP SWAP1 POP JUMPDEST SWAP2 SWAP1 POP JUMP JUMPDEST PUSH1 0x60 PUSH1 0x0 PUSH1 0xFF AND DUP3 SUB PUSH2 0x1FD4 JUMPI PUSH1 0x40 MLOAD DUP1 PUSH1 0x40 ADD PUSH1 0x40 MSTORE DUP1 PUSH1 0x7 DUP2 MSTORE PUSH1 0x20 ADD PUSH32 0x50454E44494E4700000000000000000000000000000000000000000000000000 DUP2 MSTORE POP SWAP1 POP PUSH2 0x212D JUMP JUMPDEST PUSH1 0x1 PUSH1 0xFF AND DUP3 SUB PUSH2 0x201C JUMPI PUSH1 0x40 MLOAD DUP1 PUSH1 0x40 ADD PUSH1 0x40 MSTORE DUP1 PUSH1 0x9 DUP2 MSTORE PUSH1 0x20 ADD PUSH32 0x434F4C4C45435445440000000000000000000000000000000000000000000000 DUP2 MSTORE POP SWAP1 POP PUSH2 0x212D JUMP JUMPDEST PUSH1 0x2 PUSH1 0xFF AND DUP3 SUB PUSH2 0x2064 JUMPI PUSH1 0x40 MLOAD DUP1 PUSH1 0x40 ADD PUSH1 0x40 MSTORE DUP1 PUSH1 0x8 DUP2 MSTORE PUSH1 0x20 ADD PUSH32 0x524546554E444544000000000000000000000000000000000000000000000000 DUP2 MSTORE POP SWAP1 POP PUSH2 0x212D JUMP JUMPDEST PUSH1 0x3 PUSH1 0xFF AND DUP3 SUB PUSH2 0x20AC JUMPI PUSH1 0x40 MLOAD DUP1 PUSH1 0x40 ADD PUSH1 0x40 MSTORE DUP1 PUSH1 0x5 DUP2 MSTORE PUSH1 0x20 ADD PUSH32 0x53504C4954000000000000000000000000000000000000000000000000000000 DUP2 MSTORE POP SWAP1 POP PUSH2 0x212D JUMP JUMPDEST PUSH1 0x4 PUSH1 0xFF AND DUP3 SUB PUSH2 0x20F4 JUMPI PUSH1 0x40 MLOAD DUP1 PUSH1 0x40 ADD PUSH1 0x40 MSTORE DUP1 PUSH1 0x4 DUP2 MSTORE PUSH1 0x20 ADD PUSH32 0x5041494400000000000000000000000000000000000000000000000000000000 DUP2 MSTORE POP SWAP1 POP PUSH2 0x212D JUMP JUMPDEST PUSH1 0x40 MLOAD DUP1 PUSH1 0x40 ADD PUSH1 0x40 MSTORE DUP1 PUSH1 0x7 DUP2 MSTORE PUSH1 0x20 ADD PUSH32 0x554E4B4E4F574E00000000000000000000000000000000000000000000000000 DUP2 MSTORE POP SWAP1 POP JUMPDEST SWAP2 SWAP1 POP JUMP JUMPDEST PUSH1 0x0 PUSH1 0x6 PUSH1 0xFF AND DUP6 PUSH1 0xFF AND SUB PUSH2 0x2157 JUMPI PUSH1 0x3C PUSH1 0x18 PUSH2 0x2150 SWAP2 SWAP1 PUSH2 0x2F19 JUMP JUMPDEST SWAP1 POP PUSH2 0x21EB JUMP JUMPDEST PUSH1 0x6 PUSH1 0xFF AND DUP6 PUSH1 0xFF AND LT DUP1 ISZERO PUSH2 0x2184 JUMPI POP PUSH1 0x3C PUSH1 0x18 PUSH2 0x2176 SWAP2 SWAP1 PUSH2 0x2F19 JUMP JUMPDEST DUP3 DUP6 PUSH2 0x2182 SWAP2 SWAP1 PUSH2 0x2F5B JUMP JUMPDEST GT JUMPDEST ISZERO PUSH2 0x219E JUMPI PUSH1 0x3C PUSH1 0x18 PUSH2 0x2197 SWAP2 SWAP1 PUSH2 0x2F19 JUMP JUMPDEST SWAP1 POP PUSH2 0x21EB JUMP JUMPDEST PUSH1 0x6 PUSH1 0xFF AND DUP6 PUSH1 0xFF AND LT ISZERO PUSH2 0x21E6 JUMPI DUP4 PUSH1 0x5 PUSH1 0xFF AND DUP7 PUSH1 0xFF AND EQ DUP1 PUSH2 0x21C9 JUMPI POP PUSH1 0x4 PUSH1 0xFF AND DUP7 PUSH1 0xFF AND EQ JUMPDEST PUSH2 0x21D3 JUMPI TIMESTAMP PUSH2 0x21D5 JUMP JUMPDEST DUP4 JUMPDEST PUSH2 0x21DF SWAP2 SWAP1 PUSH2 0x2F5B JUMP JUMPDEST SWAP1 POP PUSH2 0x21EB JUMP JUMPDEST PUSH1 0x0 SWAP1 POP JUMPDEST SWAP5 SWAP4 POP POP POP POP JUMP JUMPDEST PUSH1 0x0 PUSH2 0x2234 PUSH1 0x40 MLOAD DUP1 PUSH1 0x40 ADD PUSH1 0x40 MSTORE DUP1 PUSH1 0x13 DUP2 MSTORE PUSH1 0x20 ADD PUSH32 0x74696D6542617369735365636F6E6473203D2000000000000000000000000000 DUP2 MSTORE POP DUP6 PUSH2 0x25B0 JUMP JUMPDEST PUSH2 0x2276 PUSH1 0x40 MLOAD DUP1 PUSH1 0x40 ADD PUSH1 0x40 MSTORE DUP1 PUSH1 0xF DUP2 MSTORE PUSH1 0x20 ADD PUSH32 0x666C69676874537461747573203D200000000000000000000000000000000000 DUP2 MSTORE POP DUP5 PUSH1 0xFF AND PUSH2 0x25B0 JUMP JUMPDEST PUSH2 0x22B5 PUSH1 0x40 MLOAD DUP1 PUSH1 0x40 ADD PUSH1 0x40 MSTORE DUP1 PUSH1 0x17 DUP2 MSTORE PUSH1 0x20 ADD PUSH32 0x69735469636B657443616E63656C6C6174696F6E203D20000000000000000000 DUP2 MSTORE POP DUP4 PUSH2 0x264C JUMP JUMPDEST PUSH1 0x6 PUSH1 0xFF AND DUP4 PUSH1 0xFF AND SUB PUSH2 0x22CC JUMPI PUSH1 0x64 SWAP1 POP PUSH2 0x2383 JUMP JUMPDEST PUSH1 0x3C PUSH1 0x18 PUSH2 0x22DA SWAP2 SWAP1 PUSH2 0x2F19 JUMP JUMPDEST DUP5 LT PUSH2 0x22F6 JUMPI DUP2 PUSH2 0x22EC JUMPI PUSH1 0x64 PUSH2 0x22EF JUMP JUMPDEST PUSH1 0x64 JUMPDEST SWAP1 POP PUSH2 0x2383 JUMP JUMPDEST PUSH1 0x3C PUSH1 0xA PUSH2 0x2304 SWAP2 SWAP1 PUSH2 0x2F19 JUMP JUMPDEST DUP5 LT ISZERO DUP1 ISZERO PUSH2 0x231F JUMPI POP PUSH1 0x3C PUSH1 0x18 PUSH2 0x231C SWAP2 SWAP1 PUSH2 0x2F19 JUMP JUMPDEST DUP5 LT JUMPDEST ISZERO PUSH2 0x233A JUMPI DUP2 PUSH2 0x2330 JUMPI PUSH1 0x28 PUSH2 0x2333 JUMP JUMPDEST PUSH1 0x50 JUMPDEST SWAP1 POP PUSH2 0x2383 JUMP JUMPDEST PUSH1 0x3C PUSH1 0x2 PUSH2 0x2348 SWAP2 SWAP1 PUSH2 0x2F19 JUMP JUMPDEST DUP5 LT ISZERO DUP1 ISZERO PUSH2 0x2363 JUMPI POP PUSH1 0x3C PUSH1 0xA PUSH2 0x2360 SWAP2 SWAP1 PUSH2 0x2F19 JUMP JUMPDEST DUP5 LT JUMPDEST ISZERO PUSH2 0x237E JUMPI DUP2 PUSH2 0x2374 JUMPI PUSH1 0xA PUSH2 0x2377 JUMP JUMPDEST PUSH1 0x28 JUMPDEST SWAP1 POP PUSH2 0x2383 JUMP JUMPDEST PUSH1 0x0 SWAP1 POP JUMPDEST SWAP4 SWAP3 POP POP POP JUMP JUMPDEST PUSH1 0x0 TIMESTAMP PUSH1 0x8 DUP2 SWAP1 SSTORE POP PUSH1 0x0 DUP4 GT DUP1 ISZERO PUSH2 0x23A3 JUMPI POP PUSH1 0x0 DUP3 GT JUMPDEST ISZERO PUSH2 0x23C9 JUMPI PUSH1 0x3 PUSH1 0x5 PUSH1 0x15 PUSH2 0x100 EXP DUP2 SLOAD DUP2 PUSH1 0xFF MUL NOT AND SWAP1 DUP4 PUSH1 0xFF AND MUL OR SWAP1 SSTORE POP PUSH2 0x2433 JUMP JUMPDEST PUSH1 0x0 DUP4 GT DUP1 ISZERO PUSH2 0x23D9 JUMPI POP PUSH1 0x0 DUP3 EQ JUMPDEST ISZERO PUSH2 0x23FF JUMPI PUSH1 0x2 PUSH1 0x5 PUSH1 0x15 PUSH2 0x100 EXP DUP2 SLOAD DUP2 PUSH1 0xFF MUL NOT AND SWAP1 DUP4 PUSH1 0xFF AND MUL OR SWAP1 SSTORE POP PUSH2 0x2432 JUMP JUMPDEST PUSH1 0x0 DUP4 EQ DUP1 ISZERO PUSH2 0x240F JUMPI POP PUSH1 0x0 DUP3 GT JUMPDEST ISZERO PUSH2 0x2431 JUMPI PUSH1 0x4 PUSH1 0x5 PUSH1 0x15 PUSH2 0x100 EXP DUP2 SLOAD DUP2 PUSH1 0xFF MUL NOT AND SWAP1 DUP4 PUSH1 0xFF AND MUL OR SWAP1 SSTORE POP JUMPDEST JUMPDEST JUMPDEST DUP3 PUSH1 0xA PUSH1 0x4 ADD DUP2 SWAP1 SSTORE POP DUP2 PUSH1 0xA PUSH1 0x5 ADD DUP2 SWAP1 SSTORE POP PUSH1 0x1 SWAP1 POP SWAP3 SWAP2 POP POP JUMP JUMPDEST PUSH1 0x60 PUSH1 0x0 DUP3 SUB PUSH2 0x2498 JUMPI PUSH1 0x40 MLOAD DUP1 PUSH1 0x40 ADD PUSH1 0x40 MSTORE DUP1 PUSH1 0x1 DUP2 MSTORE PUSH1 0x20 ADD PUSH32 0x3000000000000000000000000000000000000000000000000000000000000000 DUP2 MSTORE POP SWAP1 POP PUSH2 0x25AB JUMP JUMPDEST PUSH1 0x0 DUP3 SWAP1 POP PUSH1 0x0 JUMPDEST PUSH1 0x0 DUP3 EQ PUSH2 0x24CA JUMPI DUP1 DUP1 PUSH2 0x24B3 SWAP1 PUSH2 0x432D JUMP JUMPDEST SWAP2 POP POP PUSH1 0xA DUP3 PUSH2 0x24C3 SWAP2 SWAP1 PUSH2 0x4375 JUMP JUMPDEST SWAP2 POP PUSH2 0x24A0 JUMP JUMPDEST PUSH1 0x0 DUP2 PUSH8 0xFFFFFFFFFFFFFFFF DUP2 GT ISZERO PUSH2 0x24E6 JUMPI PUSH2 0x24E5 PUSH2 0x2873 JUMP JUMPDEST JUMPDEST PUSH1 0x40 MLOAD SWAP1 DUP1 DUP3 MSTORE DUP1 PUSH1 0x1F ADD PUSH1 0x1F NOT AND PUSH1 0x20 ADD DUP3 ADD PUSH1 0x40 MSTORE DUP1 ISZERO PUSH2 0x2518 JUMPI DUP2 PUSH1 0x20 ADD PUSH1 0x1 DUP3 MUL DUP1 CALLDATASIZE DUP4 CALLDATACOPY DUP1 DUP3 ADD SWAP2 POP POP SWAP1 POP JUMPDEST POP SWAP1 POP JUMPDEST PUSH1 0x0 DUP6 EQ PUSH2 0x25A4 JUMPI DUP2 DUP1 PUSH2 0x252F SWAP1 PUSH2 0x43A6 JUMP JUMPDEST SWAP3 POP POP PUSH1 0xA DUP6 PUSH2 0x253F SWAP2 SWAP1 PUSH2 0x43CF JUMP JUMPDEST PUSH1 0x30 PUSH2 0x254B SWAP2 SWAP1 PUSH2 0x4400 JUMP JUMPDEST PUSH1 0xF8 SHL DUP2 DUP4 DUP2 MLOAD DUP2 LT PUSH2 0x2561 JUMPI PUSH2 0x2560 PUSH2 0x4434 JUMP JUMPDEST JUMPDEST PUSH1 0x20 ADD ADD SWAP1 PUSH31 0xFFFFFFFFFFFFFFFFFFFFFFFFFFFFFFFFFFFFFFFFFFFFFFFFFFFFFFFFFFFFFF NOT AND SWAP1 DUP2 PUSH1 0x0 BYTE SWAP1 MSTORE8 POP PUSH1 0xA DUP6 PUSH2 0x259D SWAP2 SWAP1 PUSH2 0x4375 JUMP JUMPDEST SWAP5 POP PUSH2 0x251C JUMP JUMPDEST DUP1 SWAP4 POP POP POP POP JUMPDEST SWAP2 SWAP1 POP JUMP JUMPDEST PUSH2 0x2648 DUP3 DUP3 PUSH1 0x40 MLOAD PUSH1 0x24 ADD PUSH2 0x25C6 SWAP3 SWAP2 SWAP1 PUSH2 0x4463 JUMP JUMPDEST PUSH1 0x40 MLOAD PUSH1 0x20 DUP2 DUP4 SUB SUB DUP2 MSTORE SWAP1 PUSH1 0x40 MSTORE PUSH32 0xB60E72CC00000000000000000000000000000000000000000000000000000000 PUSH28 0xFFFFFFFFFFFFFFFFFFFFFFFFFFFFFFFFFFFFFFFFFFFFFFFFFFFFFFFF NOT AND PUSH1 0x20 DUP3 ADD DUP1 MLOAD PUSH28 0xFFFFFFFFFFFFFFFFFFFFFFFFFFFFFFFFFFFFFFFFFFFFFFFFFFFFFFFF DUP4 DUP2 DUP4 AND OR DUP4 MSTORE POP POP POP POP PUSH2 0x26E8 JUMP JUMPDEST POP POP JUMP JUMPDEST PUSH2 0x26E4 DUP3 DUP3 PUSH1 0x40 MLOAD PUSH1 0x24 ADD PUSH2 0x2662 SWAP3 SWAP2 SWAP1 PUSH2 0x4493 JUMP JUMPDEST PUSH1 0x40 MLOAD PUSH1 0x20 DUP2 DUP4 SUB SUB DUP2 MSTORE SWAP1 PUSH1 0x40 MSTORE PUSH32 0xC3B5563500000000000000000000000000000000000000000000000000000000 PUSH28 0xFFFFFFFFFFFFFFFFFFFFFFFFFFFFFFFFFFFFFFFFFFFFFFFFFFFFFFFF NOT AND PUSH1 0x20 DUP3 ADD DUP1 MLOAD PUSH28 0xFFFFFFFFFFFFFFFFFFFFFFFFFFFFFFFFFFFFFFFFFFFFFFFFFFFFFFFF DUP4 DUP2 DUP4 AND OR DUP4 MSTORE POP POP POP POP PUSH2 0x26E8 JUMP JUMPDEST POP POP JUMP JUMPDEST PUSH2 0x26FF DUP2 PUSH2 0x26F7 PUSH2 0x2702 PUSH2 0x2723 JUMP JUMPDEST PUSH4 0xFFFFFFFF AND JUMP JUMPDEST POP JUMP JUMPDEST PUSH1 0x0 PUSH11 0x636F6E736F6C652E6C6F67 SWAP1 POP PUSH1 0x0 DUP1 DUP4 MLOAD PUSH1 0x20 DUP6 ADD DUP5 GAS STATICCALL POP POP POP JUMP JUMPDEST PUSH2 0x272E DUP2 SWAP1 POP SWAP2 SWAP1 POP JUMP JUMPDEST PUSH2 0x2736 PUSH2 0x44C3 JUMP JUMPDEST JUMP JUMPDEST PUSH1 0x0 PUSH1 0x40 MLOAD SWAP1 POP SWAP1 JUMP JUMPDEST PUSH1 0x0 DUP1 REVERT JUMPDEST PUSH1 0x0 DUP1 REVERT JUMPDEST PUSH1 0x0 PUSH1 0xFF DUP3 AND SWAP1 POP SWAP2 SWAP1 POP JUMP JUMPDEST PUSH2 0x2762 DUP2 PUSH2 0x274C JUMP JUMPDEST DUP2 EQ PUSH2 0x276D JUMPI PUSH1 0x0 DUP1 REVERT JUMPDEST POP JUMP JUMPDEST PUSH1 0x0 DUP2 CALLDATALOAD SWAP1 POP PUSH2 0x277F DUP2 PUSH2 0x2759 JUMP JUMPDEST SWAP3 SWAP2 POP POP JUMP JUMPDEST PUSH1 0x0 DUP2 SWAP1 POP SWAP2 SWAP1 POP JUMP JUMPDEST PUSH2 0x2798 DUP2 PUSH2 0x2785 JUMP JUMPDEST DUP2 EQ PUSH2 0x27A3 JUMPI PUSH1 0x0 DUP1 REVERT JUMPDEST POP JUMP JUMPDEST PUSH1 0x0 DUP2 CALLDATALOAD SWAP1 POP PUSH2 0x27B5 DUP2 PUSH2 0x278F JUMP JUMPDEST SWAP3 SWAP2 POP POP JUMP JUMPDEST PUSH1 0x0 DUP1 PUSH1 0x0 DUP1 PUSH1 0x80 DUP6 DUP8 SUB SLT ISZERO PUSH2 0x27D5 JUMPI PUSH2 0x27D4 PUSH2 0x2742 JUMP JUMPDEST JUMPDEST PUSH1 0x0 PUSH2 0x27E3 DUP8 DUP3 DUP9 ADD PUSH2 0x2770 JUMP JUMPDEST SWAP5 POP POP PUSH1 0x20 PUSH2 0x27F4 DUP8 DUP3 DUP9 ADD PUSH2 0x27A6 JUMP JUMPDEST SWAP4 POP POP PUSH1 0x40 PUSH2 0x2805 DUP8 DUP3 DUP9 ADD PUSH2 0x27A6 JUMP JUMPDEST SWAP3 POP POP PUSH1 0x60 PUSH2 0x2816 DUP8 DUP3 DUP9 ADD PUSH2 0x27A6 JUMP JUMPDEST SWAP2 POP POP SWAP3 SWAP6 SWAP2 SWAP5 POP SWAP3 POP JUMP JUMPDEST PUSH1 0x0 DUP2 ISZERO ISZERO SWAP1 POP SWAP2 SWAP1 POP JUMP JUMPDEST PUSH2 0x2837 DUP2 PUSH2 0x2822 JUMP JUMPDEST DUP3 MSTORE POP POP JUMP JUMPDEST PUSH1 0x0 PUSH1 0x20 DUP3 ADD SWAP1 POP PUSH2 0x2852 PUSH1 0x0 DUP4 ADD DUP5 PUSH2 0x282E JUMP JUMPDEST SWAP3 SWAP2 POP POP JUMP JUMPDEST PUSH1 0x0 DUP1 REVERT JUMPDEST PUSH1 0x0 DUP1 REVERT JUMPDEST PUSH1 0x0 PUSH1 0x1F NOT PUSH1 0x1F DUP4 ADD AND SWAP1 POP SWAP2 SWAP1 POP JUMP JUMPDEST PUSH32 0x4E487B7100000000000000000000000000000000000000000000000000000000 PUSH1 0x0 MSTORE PUSH1 0x41 PUSH1 0x4 MSTORE PUSH1 0x24 PUSH1 0x0 REVERT JUMPDEST PUSH2 0x28AB DUP3 PUSH2 0x2862 JUMP JUMPDEST DUP2 ADD DUP2 DUP2 LT PUSH8 0xFFFFFFFFFFFFFFFF DUP3 GT OR ISZERO PUSH2 0x28CA JUMPI PUSH2 0x28C9 PUSH2 0x2873 JUMP JUMPDEST JUMPDEST DUP1 PUSH1 0x40 MSTORE POP POP POP JUMP JUMPDEST PUSH1 0x0 PUSH2 0x28DD PUSH2 0x2738 JUMP JUMPDEST SWAP1 POP PUSH2 0x28E9 DUP3 DUP3 PUSH2 0x28A2 JUMP JUMPDEST SWAP2 SWAP1 POP JUMP JUMPDEST PUSH1 0x0 PUSH8 0xFFFFFFFFFFFFFFFF DUP3 GT ISZERO PUSH2 0x2909 JUMPI PUSH2 0x2908 PUSH2 0x2873 JUMP JUMPDEST JUMPDEST PUSH2 0x2912 DUP3 PUSH2 0x2862 JUMP JUMPDEST SWAP1 POP PUSH1 0x20 DUP2 ADD SWAP1 POP SWAP2 SWAP1 POP JUMP JUMPDEST DUP3 DUP2 DUP4 CALLDATACOPY PUSH1 0x0 DUP4 DUP4 ADD MSTORE POP POP POP JUMP JUMPDEST PUSH1 0x0 PUSH2 0x2941 PUSH2 0x293C DUP5 PUSH2 0x28EE JUMP JUMPDEST PUSH2 0x28D3 JUMP JUMPDEST SWAP1 POP DUP3 DUP2 MSTORE PUSH1 0x20 DUP2 ADD DUP5 DUP5 DUP5 ADD GT ISZERO PUSH2 0x295D JUMPI PUSH2 0x295C PUSH2 0x285D JUMP JUMPDEST JUMPDEST PUSH2 0x2968 DUP5 DUP3 DUP6 PUSH2 0x291F JUMP JUMPDEST POP SWAP4 SWAP3 POP POP POP JUMP JUMPDEST PUSH1 0x0 DUP3 PUSH1 0x1F DUP4 ADD SLT PUSH2 0x2985 JUMPI PUSH2 0x2984 PUSH2 0x2858 JUMP JUMPDEST JUMPDEST DUP2 CALLDATALOAD PUSH2 0x2995 DUP5 DUP3 PUSH1 0x20 DUP7 ADD PUSH2 0x292E JUMP JUMPDEST SWAP2 POP POP SWAP3 SWAP2 POP POP JUMP JUMPDEST PUSH1 0x0 PUSH1 0x20 DUP3 DUP5 SUB SLT ISZERO PUSH2 0x29B4 JUMPI PUSH2 0x29B3 PUSH2 0x2742 JUMP JUMPDEST JUMPDEST PUSH1 0x0 DUP3 ADD CALLDATALOAD PUSH8 0xFFFFFFFFFFFFFFFF DUP2 GT ISZERO PUSH2 0x29D2 JUMPI PUSH2 0x29D1 PUSH2 0x2747 JUMP JUMPDEST JUMPDEST PUSH2 0x29DE DUP5 DUP3 DUP6 ADD PUSH2 0x2970 JUMP JUMPDEST SWAP2 POP POP SWAP3 SWAP2 POP POP JUMP JUMPDEST PUSH1 0x0 DUP2 MLOAD SWAP1 POP SWAP2 SWAP1 POP JUMP JUMPDEST PUSH1 0x0 DUP3 DUP3 MSTORE PUSH1 0x20 DUP3 ADD SWAP1 POP SWAP3 SWAP2 POP POP JUMP JUMPDEST PUSH1 0x0 JUMPDEST DUP4 DUP2 LT ISZERO PUSH2 0x2A21 JUMPI DUP1 DUP3 ADD MLOAD DUP2 DUP5 ADD MSTORE PUSH1 0x20 DUP2 ADD SWAP1 POP PUSH2 0x2A06 JUMP JUMPDEST PUSH1 0x0 DUP5 DUP5 ADD MSTORE POP POP POP POP JUMP JUMPDEST PUSH1 0x0 PUSH2 0x2A38 DUP3 PUSH2 0x29E7 JUMP JUMPDEST PUSH2 0x2A42 DUP2 DUP6 PUSH2 0x29F2 JUMP JUMPDEST SWAP4 POP PUSH2 0x2A52 DUP2 DUP6 PUSH1 0x20 DUP7 ADD PUSH2 0x2A03 JUMP JUMPDEST PUSH2 0x2A5B DUP2 PUSH2 0x2862 JUMP JUMPDEST DUP5 ADD SWAP2 POP POP SWAP3 SWAP2 POP POP JUMP JUMPDEST PUSH1 0x0 PUSH1 0x40 DUP3 ADD SWAP1 POP PUSH2 0x2A7B PUSH1 0x0 DUP4 ADD DUP6 PUSH2 0x282E JUMP JUMPDEST DUP2 DUP2 SUB PUSH1 0x20 DUP4 ADD MSTORE PUSH2 0x2A8D DUP2 DUP5 PUSH2 0x2A2D JUMP JUMPDEST SWAP1 POP SWAP4 SWAP3 POP POP POP JUMP JUMPDEST PUSH32 0x4F6E6C79204169726C696E6520466C69676874204F70657261746F72202F2054 PUSH1 0x0 DUP3 ADD MSTORE PUSH32 0x69636B657420427579657220616C6C6F77656400000000000000000000000000 PUSH1 0x20 DUP3 ADD MSTORE POP JUMP JUMPDEST PUSH1 0x0 PUSH2 0x2AF2 PUSH1 0x33 DUP4 PUSH2 0x29F2 JUMP JUMPDEST SWAP2 POP PUSH2 0x2AFD DUP3 PUSH2 0x2A96 JUMP JUMPDEST PUSH1 0x40 DUP3 ADD SWAP1 POP SWAP2 SWAP1 POP JUMP JUMPDEST PUSH1 0x0 PUSH1 0x20 DUP3 ADD SWAP1 POP DUP2 DUP2 SUB PUSH1 0x0 DUP4 ADD MSTORE PUSH2 0x2B21 DUP2 PUSH2 0x2AE5 JUMP JUMPDEST SWAP1 POP SWAP2 SWAP1 POP JUMP JUMPDEST PUSH2 0x2B31 DUP2 PUSH2 0x2785 JUMP JUMPDEST DUP3 MSTORE POP POP JUMP JUMPDEST PUSH32 0x4E487B7100000000000000000000000000000000000000000000000000000000 PUSH1 0x0 MSTORE PUSH1 0x22 PUSH1 0x4 MSTORE PUSH1 0x24 PUSH1 0x0 REVERT JUMPDEST PUSH1 0x0 PUSH1 0x2 DUP3 DIV SWAP1 POP PUSH1 0x1 DUP3 AND DUP1 PUSH2 0x2B7E JUMPI PUSH1 0x7F DUP3 AND SWAP2 POP JUMPDEST PUSH1 0x20 DUP3 LT DUP2 SUB PUSH2 0x2B91 JUMPI PUSH2 0x2B90 PUSH2 0x2B37 JUMP JUMPDEST JUMPDEST POP SWAP2 SWAP1 POP JUMP JUMPDEST PUSH1 0x0 DUP2 SWAP1 POP DUP2 PUSH1 0x0 MSTORE PUSH1 0x20 PUSH1 0x0 KECCAK256 SWAP1 POP SWAP2 SWAP1 POP JUMP JUMPDEST PUSH1 0x0 DUP2 SLOAD PUSH2 0x2BB9 DUP2 PUSH2 0x2B66 JUMP JUMPDEST PUSH2 0x2BC3 DUP2 DUP7 PUSH2 0x29F2 JUMP JUMPDEST SWAP5 POP PUSH1 0x1 DUP3 AND PUSH1 0x0 DUP2 EQ PUSH2 0x2BDE JUMPI PUSH1 0x1 DUP2 EQ PUSH2 0x2BF4 JUMPI PUSH2 0x2C27 JUMP JUMPDEST PUSH1 0xFF NOT DUP4 AND DUP7 MSTORE DUP2 ISZERO ISZERO PUSH1 0x20 MUL DUP7 ADD SWAP4 POP PUSH2 0x2C27 JUMP JUMPDEST PUSH2 0x2BFD DUP6 PUSH2 0x2B97 JUMP JUMPDEST PUSH1 0x0 JUMPDEST DUP4 DUP2 LT ISZERO PUSH2 0x2C1F JUMPI DUP2 SLOAD DUP2 DUP10 ADD MSTORE PUSH1 0x1 DUP3 ADD SWAP2 POP PUSH1 0x20 DUP2 ADD SWAP1 POP PUSH2 0x2C00 JUMP JUMPDEST DUP1 DUP9 ADD SWAP6 POP POP POP JUMPDEST POP POP POP SWAP3 SWAP2 POP POP JUMP JUMPDEST PUSH1 0x0 PUSH1 0xC0 DUP3 ADD SWAP1 POP PUSH2 0x2C45 PUSH1 0x0 DUP4 ADD DUP10 PUSH2 0x2B28 JUMP JUMPDEST PUSH2 0x2C52 PUSH1 0x20 DUP4 ADD DUP9 PUSH2 0x2B28 JUMP JUMPDEST DUP2 DUP2 SUB PUSH1 0x40 DUP4 ADD MSTORE PUSH2 0x2C64 DUP2 DUP8 PUSH2 0x2BAC JUMP JUMPDEST SWAP1 POP DUP2 DUP2 SUB PUSH1 0x60 DUP4 ADD MSTORE PUSH2 0x2C78 DUP2 DUP7 PUSH2 0x2A2D JUMP JUMPDEST SWAP1 POP DUP2 DUP2 SUB PUSH1 0x80 DUP4 ADD MSTORE PUSH2 0x2C8C DUP2 DUP6 PUSH2 0x2A2D JUMP JUMPDEST SWAP1 POP PUSH2 0x2C9B PUSH1 0xA0 DUP4 ADD DUP5 PUSH2 0x2B28 JUMP JUMPDEST SWAP8 SWAP7 POP POP POP POP POP POP POP JUMP JUMPDEST PUSH32 0x4F6E6C79204169726C696E6520436F6E747261637420616C6C6F776564000000 PUSH1 0x0 DUP3 ADD MSTORE POP JUMP JUMPDEST PUSH1 0x0 PUSH2 0x2CDC PUSH1 0x1D DUP4 PUSH2 0x29F2 JUMP JUMPDEST SWAP2 POP PUSH2 0x2CE7 DUP3 PUSH2 0x2CA6 JUMP JUMPDEST PUSH1 0x20 DUP3 ADD SWAP1 POP SWAP2 SWAP1 POP JUMP JUMPDEST PUSH1 0x0 PUSH1 0x20 DUP3 ADD SWAP1 POP DUP2 DUP2 SUB PUSH1 0x0 DUP4 ADD MSTORE PUSH2 0x2D0B DUP2 PUSH2 0x2CCF JUMP JUMPDEST SWAP1 POP SWAP2 SWAP1 POP JUMP JUMPDEST PUSH32 0x4552523A2043616E6E6F7420636C6F73652064756520746F205469636B657420 PUSH1 0x0 DUP3 ADD MSTORE PUSH32 0x7374617475732028564F49442F434C4F5345442F43414E43454C4C4544290000 PUSH1 0x20 DUP3 ADD MSTORE POP JUMP JUMPDEST PUSH1 0x0 PUSH2 0x2D6E PUSH1 0x3E DUP4 PUSH2 0x29F2 JUMP JUMPDEST SWAP2 POP PUSH2 0x2D79 DUP3 PUSH2 0x2D12 JUMP JUMPDEST PUSH1 0x40 DUP3 ADD SWAP1 POP SWAP2 SWAP1 POP JUMP JUMPDEST PUSH1 0x0 PUSH1 0x20 DUP3 ADD SWAP1 POP DUP2 DUP2 SUB PUSH1 0x0 DUP4 ADD MSTORE PUSH2 0x2D9D DUP2 PUSH2 0x2D61 JUMP JUMPDEST SWAP1 POP SWAP2 SWAP1 POP JUMP JUMPDEST PUSH32 0x4552523A20496E76616C696420466C6967687420737461747573000000000000 PUSH1 0x0 DUP3 ADD MSTORE POP JUMP JUMPDEST PUSH1 0x0 PUSH2 0x2DDA PUSH1 0x1A DUP4 PUSH2 0x29F2 JUMP JUMPDEST SWAP2 POP PUSH2 0x2DE5 DUP3 PUSH2 0x2DA4 JUMP JUMPDEST PUSH1 0x20 DUP3 ADD SWAP1 POP SWAP2 SWAP1 POP JUMP JUMPDEST PUSH1 0x0 PUSH1 0x20 DUP3 ADD SWAP1 POP DUP2 DUP2 SUB PUSH1 0x0 DUP4 ADD MSTORE PUSH2 0x2E09 DUP2 PUSH2 0x2DCD JUMP JUMPDEST SWAP1 POP SWAP2 SWAP1 POP JUMP JUMPDEST PUSH32 0x564F4944205469636B6574000000000000000000000000000000000000000000 PUSH1 0x0 DUP3 ADD MSTORE POP JUMP JUMPDEST PUSH1 0x0 PUSH2 0x2E46 PUSH1 0xB DUP4 PUSH2 0x29F2 JUMP JUMPDEST SWAP2 POP PUSH2 0x2E51 DUP3 PUSH2 0x2E10 JUMP JUMPDEST PUSH1 0x20 DUP3 ADD SWAP1 POP SWAP2 SWAP1 POP JUMP JUMPDEST PUSH1 0x0 PUSH1 0x40 DUP3 ADD SWAP1 POP PUSH2 0x2E71 PUSH1 0x0 DUP4 ADD DUP5 PUSH2 0x2B28 JUMP JUMPDEST DUP2 DUP2 SUB PUSH1 0x20 DUP4 ADD MSTORE PUSH2 0x2E82 DUP2 PUSH2 0x2E39 JUMP JUMPDEST SWAP1 POP SWAP3 SWAP2 POP POP JUMP JUMPDEST PUSH32 0x4E487B7100000000000000000000000000000000000000000000000000000000 PUSH1 0x0 MSTORE PUSH1 0x12 PUSH1 0x4 MSTORE PUSH1 0x24 PUSH1 0x0 REVERT JUMPDEST PUSH32 0x4E487B7100000000000000000000000000000000000000000000000000000000 PUSH1 0x0 MSTORE PUSH1 0x11 PUSH1 0x4 MSTORE PUSH1 0x24 PUSH1 0x0 REVERT JUMPDEST PUSH1 0x0 PUSH2 0x2EF3 DUP3 PUSH2 0x274C JUMP JUMPDEST SWAP2 POP PUSH2 0x2EFE DUP4 PUSH2 0x274C JUMP JUMPDEST SWAP3 POP DUP3 PUSH2 0x2F0E JUMPI PUSH2 0x2F0D PUSH2 0x2E8A JUMP JUMPDEST JUMPDEST DUP3 DUP3 DIV SWAP1 POP SWAP3 SWAP2 POP POP JUMP JUMPDEST PUSH1 0x0 PUSH2 0x2F24 DUP3 PUSH2 0x2785 JUMP JUMPDEST SWAP2 POP PUSH2 0x2F2F DUP4 PUSH2 0x2785 JUMP JUMPDEST SWAP3 POP DUP3 DUP3 MUL PUSH2 0x2F3D DUP2 PUSH2 0x2785 JUMP JUMPDEST SWAP2 POP DUP3 DUP3 DIV DUP5 EQ DUP4 ISZERO OR PUSH2 0x2F54 JUMPI PUSH2 0x2F53 PUSH2 0x2EB9 JUMP JUMPDEST JUMPDEST POP SWAP3 SWAP2 POP POP JUMP JUMPDEST PUSH1 0x0 PUSH2 0x2F66 DUP3 PUSH2 0x2785 JUMP JUMPDEST SWAP2 POP PUSH2 0x2F71 DUP4 PUSH2 0x2785 JUMP JUMPDEST SWAP3 POP DUP3 DUP3 SUB SWAP1 POP DUP2 DUP2 GT ISZERO PUSH2 0x2F89 JUMPI PUSH2 0x2F88 PUSH2 0x2EB9 JUMP JUMPDEST JUMPDEST SWAP3 SWAP2 POP POP JUMP JUMPDEST PUSH1 0x0 DUP2 SWAP1 POP SWAP3 SWAP2 POP POP JUMP JUMPDEST POP JUMP JUMPDEST PUSH1 0x0 PUSH2 0x2FAA PUSH1 0x0 DUP4 PUSH2 0x2F8F JUMP JUMPDEST SWAP2 POP PUSH2 0x2FB5 DUP3 PUSH2 0x2F9A JUMP JUMPDEST PUSH1 0x0 DUP3 ADD SWAP1 POP SWAP2 SWAP1 POP JUMP JUMPDEST PUSH1 0x0 PUSH2 0x2FCB DUP3 PUSH2 0x2F9D JUMP JUMPDEST SWAP2 POP DUP2 SWAP1 POP SWAP2 SWAP1 POP JUMP JUMPDEST PUSH32 0x4552523A20526566756E64206661696C65640000000000000000000000000000 PUSH1 0x0 DUP3 ADD MSTORE POP JUMP JUMPDEST PUSH1 0x0 PUSH2 0x300B PUSH1 0x12 DUP4 PUSH2 0x29F2 JUMP JUMPDEST SWAP2 POP PUSH2 0x3016 DUP3 PUSH2 0x2FD5 JUMP JUMPDEST PUSH1 0x20 DUP3 ADD SWAP1 POP SWAP2 SWAP1 POP JUMP JUMPDEST PUSH1 0x0 PUSH1 0x20 DUP3 ADD SWAP1 POP DUP2 DUP2 SUB PUSH1 0x0 DUP4 ADD MSTORE PUSH2 0x303A DUP2 PUSH2 0x2FFE JUMP JUMPDEST SWAP1 POP SWAP2 SWAP1 POP JUMP JUMPDEST PUSH32 0x4552523A205061796D656E74206661696C656400000000000000000000000000 PUSH1 0x0 DUP3 ADD MSTORE POP JUMP JUMPDEST PUSH1 0x0 PUSH2 0x3077 PUSH1 0x13 DUP4 PUSH2 0x29F2 JUMP JUMPDEST SWAP2 POP PUSH2 0x3082 DUP3 PUSH2 0x3041 JUMP JUMPDEST PUSH1 0x20 DUP3 ADD SWAP1 POP SWAP2 SWAP1 POP JUMP JUMPDEST PUSH1 0x0 PUSH1 0x20 DUP3 ADD SWAP1 POP DUP2 DUP2 SUB PUSH1 0x0 DUP4 ADD MSTORE PUSH2 0x30A6 DUP2 PUSH2 0x306A JUMP JUMPDEST SWAP1 POP SWAP2 SWAP1 POP JUMP JUMPDEST PUSH32 0x4552523A20496E73756666696369656E742066756E647320746F20636C6F7365 PUSH1 0x0 DUP3 ADD MSTORE PUSH32 0x207469636B657400000000000000000000000000000000000000000000000000 PUSH1 0x20 DUP3 ADD MSTORE POP JUMP JUMPDEST PUSH1 0x0 PUSH2 0x3109 PUSH1 0x27 DUP4 PUSH2 0x29F2 JUMP JUMPDEST SWAP2 POP PUSH2 0x3114 DUP3 PUSH2 0x30AD JUMP JUMPDEST PUSH1 0x40 DUP3 ADD SWAP1 POP SWAP2 SWAP1 POP JUMP JUMPDEST PUSH1 0x0 PUSH1 0x20 DUP3 ADD SWAP1 POP DUP2 DUP2 SUB PUSH1 0x0 DUP4 ADD MSTORE PUSH2 0x3138 DUP2 PUSH2 0x30FC JUMP JUMPDEST SWAP1 POP SWAP2 SWAP1 POP JUMP JUMPDEST PUSH32 0x4552523A20436C6F7365205469636B6574206661696C65640000000000000000 PUSH1 0x0 DUP3 ADD MSTORE POP JUMP JUMPDEST PUSH1 0x0 PUSH2 0x3175 PUSH1 0x18 DUP4 PUSH2 0x29F2 JUMP JUMPDEST SWAP2 POP PUSH2 0x3180 DUP3 PUSH2 0x313F JUMP JUMPDEST PUSH1 0x20 DUP3 ADD SWAP1 POP SWAP2 SWAP1 POP JUMP JUMPDEST PUSH1 0x0 PUSH1 0x20 DUP3 ADD SWAP1 POP DUP2 DUP2 SUB PUSH1 0x0 DUP4 ADD MSTORE PUSH2 0x31A4 DUP2 PUSH2 0x3168 JUMP JUMPDEST SWAP1 POP SWAP2 SWAP1 POP JUMP JUMPDEST PUSH1 0x0 PUSH1 0x20 PUSH1 0x1F DUP4 ADD DIV SWAP1 POP SWAP2 SWAP1 POP JUMP JUMPDEST PUSH1 0x0 DUP3 DUP3 SHL SWAP1 POP SWAP3 SWAP2 POP POP JUMP JUMPDEST PUSH1 0x0 PUSH1 0x8 DUP4 MUL PUSH2 0x31F8 PUSH32 0xFFFFFFFFFFFFFFFFFFFFFFFFFFFFFFFFFFFFFFFFFFFFFFFFFFFFFFFFFFFFFFFF DUP3 PUSH2 0x31BB JUMP JUMPDEST PUSH2 0x3202 DUP7 DUP4 PUSH2 0x31BB JUMP JUMPDEST SWAP6 POP DUP1 NOT DUP5 AND SWAP4 POP DUP1 DUP7 AND DUP5 OR SWAP3 POP POP POP SWAP4 SWAP3 POP POP POP JUMP JUMPDEST PUSH1 0x0 DUP2 SWAP1 POP SWAP2 SWAP1 POP JUMP JUMPDEST PUSH1 0x0 PUSH2 0x323F PUSH2 0x323A PUSH2 0x3235 DUP5 PUSH2 0x2785 JUMP JUMPDEST PUSH2 0x321A JUMP JUMPDEST PUSH2 0x2785 JUMP JUMPDEST SWAP1 POP SWAP2 SWAP1 POP JUMP JUMPDEST PUSH1 0x0 DUP2 SWAP1 POP SWAP2 SWAP1 POP JUMP JUMPDEST PUSH2 0x3259 DUP4 PUSH2 0x3224 JUMP JUMPDEST PUSH2 0x326D PUSH2 0x3265 DUP3 PUSH2 0x3246 JUMP JUMPDEST DUP5 DUP5 SLOAD PUSH2 0x31C8 JUMP JUMPDEST DUP3 SSTORE POP POP POP POP JUMP JUMPDEST PUSH1 0x0 SWAP1 JUMP JUMPDEST PUSH2 0x3282 PUSH2 0x3275 JUMP JUMPDEST PUSH2 0x328D DUP2 DUP5 DUP5 PUSH2 0x3250 JUMP JUMPDEST POP POP POP JUMP JUMPDEST JUMPDEST DUP2 DUP2 LT ISZERO PUSH2 0x32B1 JUMPI PUSH2 0x32A6 PUSH1 0x0 DUP3 PUSH2 0x327A JUMP JUMPDEST PUSH1 0x1 DUP2 ADD SWAP1 POP PUSH2 0x3293 JUMP JUMPDEST POP POP JUMP JUMPDEST PUSH1 0x1F DUP3 GT ISZERO PUSH2 0x32F6 JUMPI PUSH2 0x32C7 DUP2 PUSH2 0x2B97 JUMP JUMPDEST PUSH2 0x32D0 DUP5 PUSH2 0x31AB JUMP JUMPDEST DUP2 ADD PUSH1 0x20 DUP6 LT ISZERO PUSH2 0x32DF JUMPI DUP2 SWAP1 POP JUMPDEST PUSH2 0x32F3 PUSH2 0x32EB DUP6 PUSH2 0x31AB JUMP JUMPDEST DUP4 ADD DUP3 PUSH2 0x3292 JUMP JUMPDEST POP POP JUMPDEST POP POP POP JUMP JUMPDEST PUSH1 0x0 DUP3 DUP3 SHR SWAP1 POP SWAP3 SWAP2 POP POP JUMP JUMPDEST PUSH1 0x0 PUSH2 0x3319 PUSH1 0x0 NOT DUP5 PUSH1 0x8 MUL PUSH2 0x32FB JUMP JUMPDEST NOT DUP1 DUP4 AND SWAP2 POP POP SWAP3 SWAP2 POP POP JUMP JUMPDEST PUSH1 0x0 PUSH2 0x3332 DUP4 DUP4 PUSH2 0x3308 JUMP JUMPDEST SWAP2 POP DUP3 PUSH1 0x2 MUL DUP3 OR SWAP1 POP SWAP3 SWAP2 POP POP JUMP JUMPDEST PUSH2 0x334B DUP3 PUSH2 0x29E7 JUMP JUMPDEST PUSH8 0xFFFFFFFFFFFFFFFF DUP2 GT ISZERO PUSH2 0x3364 JUMPI PUSH2 0x3363 PUSH2 0x2873 JUMP JUMPDEST JUMPDEST PUSH2 0x336E DUP3 SLOAD PUSH2 0x2B66 JUMP JUMPDEST PUSH2 0x3379 DUP3 DUP3 DUP6 PUSH2 0x32B5 JUMP JUMPDEST PUSH1 0x0 PUSH1 0x20 SWAP1 POP PUSH1 0x1F DUP4 GT PUSH1 0x1 DUP2 EQ PUSH2 0x33AC JUMPI PUSH1 0x0 DUP5 ISZERO PUSH2 0x339A JUMPI DUP3 DUP8 ADD MLOAD SWAP1 POP JUMPDEST PUSH2 0x33A4 DUP6 DUP3 PUSH2 0x3326 JUMP JUMPDEST DUP7 SSTORE POP PUSH2 0x340C JUMP JUMPDEST PUSH1 0x1F NOT DUP5 AND PUSH2 0x33BA DUP7 PUSH2 0x2B97 JUMP JUMPDEST PUSH1 0x0 JUMPDEST DUP3 DUP2 LT ISZERO PUSH2 0x33E2 JUMPI DUP5 DUP10 ADD MLOAD DUP3 SSTORE PUSH1 0x1 DUP3 ADD SWAP2 POP PUSH1 0x20 DUP6 ADD SWAP5 POP PUSH1 0x20 DUP2 ADD SWAP1 POP PUSH2 0x33BD JUMP JUMPDEST DUP7 DUP4 LT ISZERO PUSH2 0x33FF JUMPI DUP5 DUP10 ADD MLOAD PUSH2 0x33FB PUSH1 0x1F DUP10 AND DUP3 PUSH2 0x3308 JUMP JUMPDEST DUP4 SSTORE POP JUMPDEST PUSH1 0x1 PUSH1 0x2 DUP9 MUL ADD DUP9 SSTORE POP POP POP JUMPDEST POP POP POP POP POP POP JUMP JUMPDEST PUSH32 0x494E464F3A205469636B657420436C6F73656400000000000000000000000000 PUSH1 0x0 DUP3 ADD MSTORE POP JUMP JUMPDEST PUSH1 0x0 PUSH2 0x344A PUSH1 0x13 DUP4 PUSH2 0x29F2 JUMP JUMPDEST SWAP2 POP PUSH2 0x3455 DUP3 PUSH2 0x3414 JUMP JUMPDEST PUSH1 0x20 DUP3 ADD SWAP1 POP SWAP2 SWAP1 POP JUMP JUMPDEST PUSH1 0x0 PUSH1 0x40 DUP3 ADD SWAP1 POP PUSH2 0x3475 PUSH1 0x0 DUP4 ADD DUP5 PUSH2 0x2B28 JUMP JUMPDEST DUP2 DUP2 SUB PUSH1 0x20 DUP4 ADD MSTORE PUSH2 0x3486 DUP2 PUSH2 0x343D JUMP JUMPDEST SWAP1 POP SWAP3 SWAP2 POP POP JUMP JUMPDEST PUSH32 0x4F6E6C79205469636B657420427579657220616C6C6F77656400000000000000 PUSH1 0x0 DUP3 ADD MSTORE POP JUMP JUMPDEST PUSH1 0x0 PUSH2 0x34C4 PUSH1 0x19 DUP4 PUSH2 0x29F2 JUMP JUMPDEST SWAP2 POP PUSH2 0x34CF DUP3 PUSH2 0x348E JUMP JUMPDEST PUSH1 0x20 DUP3 ADD SWAP1 POP SWAP2 SWAP1 POP JUMP JUMPDEST PUSH1 0x0 PUSH1 0x20 DUP3 ADD SWAP1 POP DUP2 DUP2 SUB PUSH1 0x0 DUP4 ADD MSTORE PUSH2 0x34F3 DUP2 PUSH2 0x34B7 JUMP JUMPDEST SWAP1 POP SWAP2 SWAP1 POP JUMP JUMPDEST PUSH1 0x0 PUSH20 0xFFFFFFFFFFFFFFFFFFFFFFFFFFFFFFFFFFFFFFFF DUP3 AND SWAP1 POP SWAP2 SWAP1 POP JUMP JUMPDEST PUSH1 0x0 PUSH2 0x3525 DUP3 PUSH2 0x34FA JUMP JUMPDEST SWAP1 POP SWAP2 SWAP1 POP JUMP JUMPDEST PUSH2 0x3535 DUP2 PUSH2 0x351A JUMP JUMPDEST DUP3 MSTORE POP POP JUMP JUMPDEST PUSH1 0x0 PUSH1 0x40 DUP3 ADD SWAP1 POP PUSH2 0x3550 PUSH1 0x0 DUP4 ADD DUP6 PUSH2 0x352C JUMP JUMPDEST DUP2 DUP2 SUB PUSH1 0x20 DUP4 ADD MSTORE PUSH2 0x3562 DUP2 DUP5 PUSH2 0x2A2D JUMP JUMPDEST SWAP1 POP SWAP4 SWAP3 POP POP POP JUMP JUMPDEST PUSH2 0x3574 DUP2 PUSH2 0x2822 JUMP JUMPDEST DUP2 EQ PUSH2 0x357F JUMPI PUSH1 0x0 DUP1 REVERT JUMPDEST POP JUMP JUMPDEST PUSH1 0x0 DUP2 MLOAD SWAP1 POP PUSH2 0x3591 DUP2 PUSH2 0x356B JUMP JUMPDEST SWAP3 SWAP2 POP POP JUMP JUMPDEST PUSH1 0x0 PUSH1 0x20 DUP3 DUP5 SUB SLT ISZERO PUSH2 0x35AD JUMPI PUSH2 0x35AC PUSH2 0x2742 JUMP JUMPDEST JUMPDEST PUSH1 0x0 PUSH2 0x35BB DUP5 DUP3 DUP6 ADD PUSH2 0x3582 JUMP JUMPDEST SWAP2 POP POP SWAP3 SWAP2 POP POP JUMP JUMPDEST PUSH32 0x4552523A20526566756E6420636C61696D20616C72656164792070726F636573 PUSH1 0x0 DUP3 ADD MSTORE PUSH32 0x7365640000000000000000000000000000000000000000000000000000000000 PUSH1 0x20 DUP3 ADD MSTORE POP JUMP JUMPDEST PUSH1 0x0 PUSH2 0x3620 PUSH1 0x23 DUP4 PUSH2 0x29F2 JUMP JUMPDEST SWAP2 POP PUSH2 0x362B DUP3 PUSH2 0x35C4 JUMP JUMPDEST PUSH1 0x40 DUP3 ADD SWAP1 POP SWAP2 SWAP1 POP JUMP JUMPDEST PUSH1 0x0 PUSH1 0x20 DUP3 ADD SWAP1 POP DUP2 DUP2 SUB PUSH1 0x0 DUP4 ADD MSTORE PUSH2 0x364F DUP2 PUSH2 0x3613 JUMP JUMPDEST SWAP1 POP SWAP2 SWAP1 POP JUMP JUMPDEST PUSH32 0x4552523A205469636B657420616C72656164792043616E63656C6C6564000000 PUSH1 0x0 DUP3 ADD MSTORE POP JUMP JUMPDEST PUSH1 0x0 PUSH2 0x368C PUSH1 0x1D DUP4 PUSH2 0x29F2 JUMP JUMPDEST SWAP2 POP PUSH2 0x3697 DUP3 PUSH2 0x3656 JUMP JUMPDEST PUSH1 0x20 DUP3 ADD SWAP1 POP SWAP2 SWAP1 POP JUMP JUMPDEST PUSH1 0x0 PUSH1 0x20 DUP3 ADD SWAP1 POP DUP2 DUP2 SUB PUSH1 0x0 DUP4 ADD MSTORE PUSH2 0x36BB DUP2 PUSH2 0x367F JUMP JUMPDEST SWAP1 POP SWAP2 SWAP1 POP JUMP JUMPDEST PUSH32 0x4552523A205469636B65742043414E43454C4C4154494F4E20697320696E2070 PUSH1 0x0 DUP3 ADD MSTORE PUSH32 0x726F677265737300000000000000000000000000000000000000000000000000 PUSH1 0x20 DUP3 ADD MSTORE POP JUMP JUMPDEST PUSH1 0x0 PUSH2 0x371E PUSH1 0x27 DUP4 PUSH2 0x29F2 JUMP JUMPDEST SWAP2 POP PUSH2 0x3729 DUP3 PUSH2 0x36C2 JUMP JUMPDEST PUSH1 0x40 DUP3 ADD SWAP1 POP SWAP2 SWAP1 POP JUMP JUMPDEST PUSH1 0x0 PUSH1 0x20 DUP3 ADD SWAP1 POP DUP2 DUP2 SUB PUSH1 0x0 DUP4 ADD MSTORE PUSH2 0x374D DUP2 PUSH2 0x3711 JUMP JUMPDEST SWAP1 POP SWAP2 SWAP1 POP JUMP JUMPDEST PUSH32 0x4552523A20526566756E64206E6F74206170706C696361626C65000000000000 PUSH1 0x0 DUP3 ADD MSTORE POP JUMP JUMPDEST PUSH1 0x0 PUSH2 0x378A PUSH1 0x1A DUP4 PUSH2 0x29F2 JUMP JUMPDEST SWAP2 POP PUSH2 0x3795 DUP3 PUSH2 0x3754 JUMP JUMPDEST PUSH1 0x20 DUP3 ADD SWAP1 POP SWAP2 SWAP1 POP JUMP JUMPDEST PUSH1 0x0 PUSH1 0x20 DUP3 ADD SWAP1 POP DUP2 DUP2 SUB PUSH1 0x0 DUP4 ADD MSTORE PUSH2 0x37B9 DUP2 PUSH2 0x377D JUMP JUMPDEST SWAP1 POP SWAP2 SWAP1 POP JUMP JUMPDEST PUSH1 0x0 PUSH1 0x20 DUP3 ADD SWAP1 POP PUSH2 0x37D5 PUSH1 0x0 DUP4 ADD DUP5 PUSH2 0x2B28 JUMP JUMPDEST SWAP3 SWAP2 POP POP JUMP JUMPDEST PUSH1 0x0 DUP2 MLOAD SWAP1 POP PUSH2 0x37EA DUP2 PUSH2 0x2759 JUMP JUMPDEST SWAP3 SWAP2 POP POP JUMP JUMPDEST PUSH1 0x0 DUP2 MLOAD SWAP1 POP PUSH2 0x37FF DUP2 PUSH2 0x278F JUMP JUMPDEST SWAP3 SWAP2 POP POP JUMP JUMPDEST PUSH1 0x0 DUP1 PUSH1 0x0 DUP1 PUSH1 0x0 DUP1 PUSH1 0xC0 DUP8 DUP10 SUB SLT ISZERO PUSH2 0x3822 JUMPI PUSH2 0x3821 PUSH2 0x2742 JUMP JUMPDEST JUMPDEST PUSH1 0x0 PUSH2 0x3830 DUP10 DUP3 DUP11 ADD PUSH2 0x37DB JUMP JUMPDEST SWAP7 POP POP PUSH1 0x20 PUSH2 0x3841 DUP10 DUP3 DUP11 ADD PUSH2 0x37F0 JUMP JUMPDEST SWAP6 POP POP PUSH1 0x40 PUSH2 0x3852 DUP10 DUP3 DUP11 ADD PUSH2 0x37F0 JUMP JUMPDEST SWAP5 POP POP PUSH1 0x60 PUSH2 0x3863 DUP10 DUP3 DUP11 ADD PUSH2 0x37F0 JUMP JUMPDEST SWAP4 POP POP PUSH1 0x80 PUSH2 0x3874 DUP10 DUP3 DUP11 ADD PUSH2 0x37F0 JUMP JUMPDEST SWAP3 POP POP PUSH1 0xA0 PUSH2 0x3885 DUP10 DUP3 DUP11 ADD PUSH2 0x37F0 JUMP JUMPDEST SWAP2 POP POP SWAP3 SWAP6 POP SWAP3 SWAP6 POP SWAP3 SWAP6 JUMP JUMPDEST PUSH32 0x4552523A205469636B6574206E6F7420656C6C696769626C6520666F7220636C PUSH1 0x0 DUP3 ADD MSTORE PUSH32 0x61696D0000000000000000000000000000000000000000000000000000000000 PUSH1 0x20 DUP3 ADD MSTORE POP JUMP JUMPDEST PUSH1 0x0 PUSH2 0x38EE PUSH1 0x23 DUP4 PUSH2 0x29F2 JUMP JUMPDEST SWAP2 POP PUSH2 0x38F9 DUP3 PUSH2 0x3892 JUMP JUMPDEST PUSH1 0x40 DUP3 ADD SWAP1 POP SWAP2 SWAP1 POP JUMP JUMPDEST PUSH1 0x0 PUSH1 0x20 DUP3 ADD SWAP1 POP DUP2 DUP2 SUB PUSH1 0x0 DUP4 ADD MSTORE PUSH2 0x391D DUP2 PUSH2 0x38E1 JUMP JUMPDEST SWAP1 POP SWAP2 SWAP1 POP JUMP JUMPDEST PUSH32 0x4552523A20436C61696D206973206E6F742076616C6964000000000000000000 PUSH1 0x0 DUP3 ADD MSTORE POP JUMP JUMPDEST PUSH1 0x0 PUSH2 0x395A PUSH1 0x17 DUP4 PUSH2 0x29F2 JUMP JUMPDEST SWAP2 POP PUSH2 0x3965 DUP3 PUSH2 0x3924 JUMP JUMPDEST PUSH1 0x20 DUP3 ADD SWAP1 POP SWAP2 SWAP1 POP JUMP JUMPDEST PUSH1 0x0 PUSH1 0x20 DUP3 ADD SWAP1 POP DUP2 DUP2 SUB PUSH1 0x0 DUP4 ADD MSTORE PUSH2 0x3989 DUP2 PUSH2 0x394D JUMP JUMPDEST SWAP1 POP SWAP2 SWAP1 POP JUMP JUMPDEST PUSH32 0x4552523A20526566756E642063616C6C206661696C65642E20436F6E74616374 PUSH1 0x0 DUP3 ADD MSTORE PUSH32 0x20637573746F6D657220737570706F72742E0000000000000000000000000000 PUSH1 0x20 DUP3 ADD MSTORE POP JUMP JUMPDEST PUSH1 0x0 PUSH2 0x39EC PUSH1 0x32 DUP4 PUSH2 0x29F2 JUMP JUMPDEST SWAP2 POP PUSH2 0x39F7 DUP3 PUSH2 0x3990 JUMP JUMPDEST PUSH1 0x40 DUP3 ADD SWAP1 POP SWAP2 SWAP1 POP JUMP JUMPDEST PUSH1 0x0 PUSH1 0x20 DUP3 ADD SWAP1 POP DUP2 DUP2 SUB PUSH1 0x0 DUP4 ADD MSTORE PUSH2 0x3A1B DUP2 PUSH2 0x39DF JUMP JUMPDEST SWAP1 POP SWAP2 SWAP1 POP JUMP JUMPDEST PUSH32 0x4552523A205061796D656E74206661696C65642E20436F6E7461637420637573 PUSH1 0x0 DUP3 ADD MSTORE PUSH32 0x746F6D657220737570706F72742E000000000000000000000000000000000000 PUSH1 0x20 DUP3 ADD MSTORE POP JUMP JUMPDEST PUSH1 0x0 PUSH2 0x3A7E PUSH1 0x2E DUP4 PUSH2 0x29F2 JUMP JUMPDEST SWAP2 POP PUSH2 0x3A89 DUP3 PUSH2 0x3A22 JUMP JUMPDEST PUSH1 0x40 DUP3 ADD SWAP1 POP SWAP2 SWAP1 POP JUMP JUMPDEST PUSH1 0x0 PUSH1 0x20 DUP3 ADD SWAP1 POP DUP2 DUP2 SUB PUSH1 0x0 DUP4 ADD MSTORE PUSH2 0x3AAD DUP2 PUSH2 0x3A71 JUMP JUMPDEST SWAP1 POP SWAP2 SWAP1 POP JUMP JUMPDEST PUSH32 0x4552523A20496E73756666696369656E742066756E647320746F20736574746C PUSH1 0x0 DUP3 ADD MSTORE PUSH32 0x6520636C61696D2E20436F6E7461637420637573746F6D657220737570706F72 PUSH1 0x20 DUP3 ADD MSTORE PUSH32 0x742E000000000000000000000000000000000000000000000000000000000000 PUSH1 0x40 DUP3 ADD MSTORE POP JUMP JUMPDEST PUSH1 0x0 PUSH2 0x3B36 PUSH1 0x42 DUP4 PUSH2 0x29F2 JUMP JUMPDEST SWAP2 POP PUSH2 0x3B41 DUP3 PUSH2 0x3AB4 JUMP JUMPDEST PUSH1 0x60 DUP3 ADD SWAP1 POP SWAP2 SWAP1 POP JUMP JUMPDEST PUSH1 0x0 PUSH1 0x20 DUP3 ADD SWAP1 POP DUP2 DUP2 SUB PUSH1 0x0 DUP4 ADD MSTORE PUSH2 0x3B65 DUP2 PUSH2 0x3B29 JUMP JUMPDEST SWAP1 POP SWAP2 SWAP1 POP JUMP JUMPDEST PUSH32 0x4552523A20526566756E6420636C61696D206661696C65642E20436F6E746163 PUSH1 0x0 DUP3 ADD MSTORE PUSH32 0x7420637573746F6D657220737570706F72742E00000000000000000000000000 PUSH1 0x20 DUP3 ADD MSTORE POP JUMP JUMPDEST PUSH1 0x0 PUSH2 0x3BC8 PUSH1 0x33 DUP4 PUSH2 0x29F2 JUMP JUMPDEST SWAP2 POP PUSH2 0x3BD3 DUP3 PUSH2 0x3B6C JUMP JUMPDEST PUSH1 0x40 DUP3 ADD SWAP1 POP SWAP2 SWAP1 POP JUMP JUMPDEST PUSH1 0x0 PUSH1 0x20 DUP3 ADD SWAP1 POP DUP2 DUP2 SUB PUSH1 0x0 DUP4 ADD MSTORE PUSH2 0x3BF7 DUP2 PUSH2 0x3BBB JUMP JUMPDEST SWAP1 POP SWAP2 SWAP1 POP JUMP JUMPDEST PUSH32 0x494E464F3A205469636B657420526566756E6420436C61696D65640000000000 PUSH1 0x0 DUP3 ADD MSTORE POP JUMP JUMPDEST PUSH1 0x0 PUSH2 0x3C34 PUSH1 0x1B DUP4 PUSH2 0x29F2 JUMP JUMPDEST SWAP2 POP PUSH2 0x3C3F DUP3 PUSH2 0x3BFE JUMP JUMPDEST PUSH1 0x20 DUP3 ADD SWAP1 POP SWAP2 SWAP1 POP JUMP JUMPDEST PUSH1 0x0 PUSH1 0x40 DUP3 ADD SWAP1 POP PUSH2 0x3C5F PUSH1 0x0 DUP4 ADD DUP5 PUSH2 0x2B28 JUMP JUMPDEST DUP2 DUP2 SUB PUSH1 0x20 DUP4 ADD MSTORE PUSH2 0x3C70 DUP2 PUSH2 0x3C27 JUMP JUMPDEST SWAP1 POP SWAP3 SWAP2 POP POP JUMP JUMPDEST PUSH1 0x0 PUSH1 0x20 DUP3 ADD SWAP1 POP PUSH2 0x3C8D PUSH1 0x0 DUP4 ADD DUP5 PUSH2 0x352C JUMP JUMPDEST SWAP3 SWAP2 POP POP JUMP JUMPDEST PUSH1 0x0 PUSH2 0x3CA6 PUSH2 0x3CA1 DUP5 PUSH2 0x28EE JUMP JUMPDEST PUSH2 0x28D3 JUMP JUMPDEST SWAP1 POP DUP3 DUP2 MSTORE PUSH1 0x20 DUP2 ADD DUP5 DUP5 DUP5 ADD GT ISZERO PUSH2 0x3CC2 JUMPI PUSH2 0x3CC1 PUSH2 0x285D JUMP JUMPDEST JUMPDEST PUSH2 0x3CCD DUP5 DUP3 DUP6 PUSH2 0x2A03 JUMP JUMPDEST POP SWAP4 SWAP3 POP POP POP JUMP JUMPDEST PUSH1 0x0 DUP3 PUSH1 0x1F DUP4 ADD SLT PUSH2 0x3CEA JUMPI PUSH2 0x3CE9 PUSH2 0x2858 JUMP JUMPDEST JUMPDEST DUP2 MLOAD PUSH2 0x3CFA DUP5 DUP3 PUSH1 0x20 DUP7 ADD PUSH2 0x3C93 JUMP JUMPDEST SWAP2 POP POP SWAP3 SWAP2 POP POP JUMP JUMPDEST PUSH1 0x0 DUP1 PUSH1 0x40 DUP4 DUP6 SUB SLT ISZERO PUSH2 0x3D1A JUMPI PUSH2 0x3D19 PUSH2 0x2742 JUMP JUMPDEST JUMPDEST PUSH1 0x0 PUSH2 0x3D28 DUP6 DUP3 DUP7 ADD PUSH2 0x3582 JUMP JUMPDEST SWAP3 POP POP PUSH1 0x20 DUP4 ADD MLOAD PUSH8 0xFFFFFFFFFFFFFFFF DUP2 GT ISZERO PUSH2 0x3D49 JUMPI PUSH2 0x3D48 PUSH2 0x2747 JUMP JUMPDEST JUMPDEST PUSH2 0x3D55 DUP6 DUP3 DUP7 ADD PUSH2 0x3CD5 JUMP JUMPDEST SWAP2 POP POP SWAP3 POP SWAP3 SWAP1 POP JUMP JUMPDEST PUSH1 0x0 PUSH1 0x40 DUP3 ADD SWAP1 POP PUSH2 0x3D74 PUSH1 0x0 DUP4 ADD DUP6 PUSH2 0x2B28 JUMP JUMPDEST DUP2 DUP2 SUB PUSH1 0x20 DUP4 ADD MSTORE PUSH2 0x3D86 DUP2 DUP5 PUSH2 0x2A2D JUMP JUMPDEST SWAP1 POP SWAP4 SWAP3 POP POP POP JUMP JUMPDEST PUSH32 0x4572723A20507265762043414E43454C4C4154494F4E20494E2050524F475245 PUSH1 0x0 DUP3 ADD MSTORE PUSH32 0x5353000000000000000000000000000000000000000000000000000000000000 PUSH1 0x20 DUP3 ADD MSTORE POP JUMP JUMPDEST PUSH1 0x0 PUSH2 0x3DEB PUSH1 0x22 DUP4 PUSH2 0x29F2 JUMP JUMPDEST SWAP2 POP PUSH2 0x3DF6 DUP3 PUSH2 0x3D8F JUMP JUMPDEST PUSH1 0x40 DUP3 ADD SWAP1 POP SWAP2 SWAP1 POP JUMP JUMPDEST PUSH1 0x0 PUSH1 0x20 DUP3 ADD SWAP1 POP DUP2 DUP2 SUB PUSH1 0x0 DUP4 ADD MSTORE PUSH2 0x3E1A DUP2 PUSH2 0x3DDE JUMP JUMPDEST SWAP1 POP SWAP2 SWAP1 POP JUMP JUMPDEST PUSH32 0x4572723A205469636B657420616C72656164792043414E43454C4C4544000000 PUSH1 0x0 DUP3 ADD MSTORE POP JUMP JUMPDEST PUSH1 0x0 PUSH2 0x3E57 PUSH1 0x1D DUP4 PUSH2 0x29F2 JUMP JUMPDEST SWAP2 POP PUSH2 0x3E62 DUP3 PUSH2 0x3E21 JUMP JUMPDEST PUSH1 0x20 DUP3 ADD SWAP1 POP SWAP2 SWAP1 POP JUMP JUMPDEST PUSH1 0x0 PUSH1 0x20 DUP3 ADD SWAP1 POP DUP2 DUP2 SUB PUSH1 0x0 DUP4 ADD MSTORE PUSH2 0x3E86 DUP2 PUSH2 0x3E4A JUMP JUMPDEST SWAP1 POP SWAP2 SWAP1 POP JUMP JUMPDEST PUSH1 0x0 PUSH1 0x20 DUP3 DUP5 SUB SLT ISZERO PUSH2 0x3EA3 JUMPI PUSH2 0x3EA2 PUSH2 0x2742 JUMP JUMPDEST JUMPDEST PUSH1 0x0 PUSH2 0x3EB1 DUP5 DUP3 DUP6 ADD PUSH2 0x37DB JUMP JUMPDEST SWAP2 POP POP SWAP3 SWAP2 POP POP JUMP JUMPDEST PUSH32 0x4552523A205469636B65742063616E6E6F742062652063616E63656C6C65642E PUSH1 0x0 DUP3 ADD MSTORE PUSH32 0x20436865636B20466C6967687420737461747573000000000000000000000000 PUSH1 0x20 DUP3 ADD MSTORE POP JUMP JUMPDEST PUSH1 0x0 PUSH2 0x3F16 PUSH1 0x34 DUP4 PUSH2 0x29F2 JUMP JUMPDEST SWAP2 POP PUSH2 0x3F21 DUP3 PUSH2 0x3EBA JUMP JUMPDEST PUSH1 0x40 DUP3 ADD SWAP1 POP SWAP2 SWAP1 POP JUMP JUMPDEST PUSH1 0x0 PUSH1 0x20 DUP3 ADD SWAP1 POP DUP2 DUP2 SUB PUSH1 0x0 DUP4 ADD MSTORE PUSH2 0x3F45 DUP2 PUSH2 0x3F09 JUMP JUMPDEST SWAP1 POP SWAP2 SWAP1 POP JUMP JUMPDEST PUSH32 0x4552523A205469636B65742063616E63656C6C6174696F6E2077696E646F7720 PUSH1 0x0 DUP3 ADD MSTORE PUSH32 0x636C6F7365640000000000000000000000000000000000000000000000000000 PUSH1 0x20 DUP3 ADD MSTORE POP JUMP JUMPDEST PUSH1 0x0 PUSH2 0x3FA8 PUSH1 0x26 DUP4 PUSH2 0x29F2 JUMP JUMPDEST SWAP2 POP PUSH2 0x3FB3 DUP3 PUSH2 0x3F4C JUMP JUMPDEST PUSH1 0x40 DUP3 ADD SWAP1 POP SWAP2 SWAP1 POP JUMP JUMPDEST PUSH1 0x0 PUSH1 0x20 DUP3 ADD SWAP1 POP DUP2 DUP2 SUB PUSH1 0x0 DUP4 ADD MSTORE PUSH2 0x3FD7 DUP2 PUSH2 0x3F9B JUMP JUMPDEST SWAP1 POP SWAP2 SWAP1 POP JUMP JUMPDEST PUSH32 0x4552523A205469636B65742063616E63656C6C6174696F6E206661696C65642E PUSH1 0x0 DUP3 ADD MSTORE PUSH32 0x20436F6E7461637420637573746F6D657220737570706F72742E000000000000 PUSH1 0x20 DUP3 ADD MSTORE POP JUMP JUMPDEST PUSH1 0x0 PUSH2 0x403A PUSH1 0x3A DUP4 PUSH2 0x29F2 JUMP JUMPDEST SWAP2 POP PUSH2 0x4045 DUP3 PUSH2 0x3FDE JUMP JUMPDEST PUSH1 0x40 DUP3 ADD SWAP1 POP SWAP2 SWAP1 POP JUMP JUMPDEST PUSH1 0x0 PUSH1 0x20 DUP3 ADD SWAP1 POP DUP2 DUP2 SUB PUSH1 0x0 DUP4 ADD MSTORE PUSH2 0x4069 DUP2 PUSH2 0x402D JUMP JUMPDEST SWAP1 POP SWAP2 SWAP1 POP JUMP JUMPDEST PUSH1 0x0 PUSH1 0x20 DUP3 ADD SWAP1 POP DUP2 DUP2 SUB PUSH1 0x0 DUP4 ADD MSTORE PUSH2 0x408A DUP2 DUP5 PUSH2 0x2A2D JUMP JUMPDEST SWAP1 POP SWAP3 SWAP2 POP POP JUMP JUMPDEST PUSH1 0x0 DUP2 SWAP1 POP SWAP3 SWAP2 POP POP JUMP JUMPDEST PUSH32 0x494E464F3A205469636B65742043616E63656C6C65642E205469636B65742023 PUSH1 0x0 DUP3 ADD MSTORE PUSH32 0x2000000000000000000000000000000000000000000000000000000000000000 PUSH1 0x20 DUP3 ADD MSTORE POP JUMP JUMPDEST PUSH1 0x0 PUSH2 0x40F9 PUSH1 0x21 DUP4 PUSH2 0x4092 JUMP JUMPDEST SWAP2 POP PUSH2 0x4104 DUP3 PUSH2 0x409D JUMP JUMPDEST PUSH1 0x21 DUP3 ADD SWAP1 POP SWAP2 SWAP1 POP JUMP JUMPDEST PUSH1 0x0 PUSH2 0x411A DUP3 PUSH2 0x29E7 JUMP JUMPDEST PUSH2 0x4124 DUP2 DUP6 PUSH2 0x4092 JUMP JUMPDEST SWAP4 POP PUSH2 0x4134 DUP2 DUP6 PUSH1 0x20 DUP7 ADD PUSH2 0x2A03 JUMP JUMPDEST DUP1 DUP5 ADD SWAP2 POP POP SWAP3 SWAP2 POP POP JUMP JUMPDEST PUSH1 0x0 PUSH2 0x414B DUP3 PUSH2 0x40EC JUMP JUMPDEST SWAP2 POP PUSH2 0x4157 DUP3 DUP5 PUSH2 0x410F JUMP JUMPDEST SWAP2 POP DUP2 SWAP1 POP SWAP3 SWAP2 POP POP JUMP JUMPDEST PUSH32 0x496E73756666696369656E7420416D6F756E742070726F766964656420746F20 PUSH1 0x0 DUP3 ADD MSTORE PUSH32 0x636F6D706C657465207075726368617365000000000000000000000000000000 PUSH1 0x20 DUP3 ADD MSTORE POP JUMP JUMPDEST PUSH1 0x0 PUSH2 0x41BE PUSH1 0x31 DUP4 PUSH2 0x29F2 JUMP JUMPDEST SWAP2 POP PUSH2 0x41C9 DUP3 PUSH2 0x4162 JUMP JUMPDEST PUSH1 0x40 DUP3 ADD SWAP1 POP SWAP2 SWAP1 POP JUMP JUMPDEST PUSH1 0x0 PUSH1 0x20 DUP3 ADD SWAP1 POP DUP2 DUP2 SUB PUSH1 0x0 DUP4 ADD MSTORE PUSH2 0x41ED DUP2 PUSH2 0x41B1 JUMP JUMPDEST SWAP1 POP SWAP2 SWAP1 POP JUMP JUMPDEST PUSH1 0x0 PUSH1 0x40 DUP3 ADD SWAP1 POP PUSH2 0x4209 PUSH1 0x0 DUP4 ADD DUP6 PUSH2 0x352C JUMP JUMPDEST PUSH2 0x4216 PUSH1 0x20 DUP4 ADD DUP5 PUSH2 0x352C JUMP JUMPDEST SWAP4 SWAP3 POP POP POP JUMP JUMPDEST PUSH32 0x4552523A205469636B6574207075726368617365206661696C65640000000000 PUSH1 0x0 DUP3 ADD MSTORE POP JUMP JUMPDEST PUSH1 0x0 PUSH2 0x4253 PUSH1 0x1B DUP4 PUSH2 0x29F2 JUMP JUMPDEST SWAP2 POP PUSH2 0x425E DUP3 PUSH2 0x421D JUMP JUMPDEST PUSH1 0x20 DUP3 ADD SWAP1 POP SWAP2 SWAP1 POP JUMP JUMPDEST PUSH1 0x0 PUSH1 0x20 DUP3 ADD SWAP1 POP DUP2 DUP2 SUB PUSH1 0x0 DUP4 ADD MSTORE PUSH2 0x4282 DUP2 PUSH2 0x4246 JUMP JUMPDEST SWAP1 POP SWAP2 SWAP1 POP JUMP JUMPDEST PUSH32 0x21205469636B6574205061796D656E7420436F6E6669726D6564202100000000 PUSH1 0x0 DUP3 ADD MSTORE POP JUMP JUMPDEST PUSH1 0x0 PUSH2 0x42BF PUSH1 0x1C DUP4 PUSH2 0x29F2 JUMP JUMPDEST SWAP2 POP PUSH2 0x42CA DUP3 PUSH2 0x4289 JUMP JUMPDEST PUSH1 0x20 DUP3 ADD SWAP1 POP SWAP2 SWAP1 POP JUMP JUMPDEST PUSH1 0x0 PUSH1 0xA0 DUP3 ADD SWAP1 POP PUSH2 0x42EA PUSH1 0x0 DUP4 ADD DUP8 PUSH2 0x2B28 JUMP JUMPDEST PUSH2 0x42F7 PUSH1 0x20 DUP4 ADD DUP7 PUSH2 0x2B28 JUMP JUMPDEST PUSH2 0x4304 PUSH1 0x40 DUP4 ADD DUP6 PUSH2 0x2B28 JUMP JUMPDEST PUSH2 0x4311 PUSH1 0x60 DUP4 ADD DUP5 PUSH2 0x2B28 JUMP JUMPDEST DUP2 DUP2 SUB PUSH1 0x80 DUP4 ADD MSTORE PUSH2 0x4322 DUP2 PUSH2 0x42B2 JUMP JUMPDEST SWAP1 POP SWAP6 SWAP5 POP POP POP POP POP JUMP JUMPDEST PUSH1 0x0 PUSH2 0x4338 DUP3 PUSH2 0x2785 JUMP JUMPDEST SWAP2 POP PUSH32 0xFFFFFFFFFFFFFFFFFFFFFFFFFFFFFFFFFFFFFFFFFFFFFFFFFFFFFFFFFFFFFFFF DUP3 SUB PUSH2 0x436A JUMPI PUSH2 0x4369 PUSH2 0x2EB9 JUMP JUMPDEST JUMPDEST PUSH1 0x1 DUP3 ADD SWAP1 POP SWAP2 SWAP1 POP JUMP JUMPDEST PUSH1 0x0 PUSH2 0x4380 DUP3 PUSH2 0x2785 JUMP JUMPDEST SWAP2 POP PUSH2 0x438B DUP4 PUSH2 0x2785 JUMP JUMPDEST SWAP3 POP DUP3 PUSH2 0x439B JUMPI PUSH2 0x439A PUSH2 0x2E8A JUMP JUMPDEST JUMPDEST DUP3 DUP3 DIV SWAP1 POP SWAP3 SWAP2 POP POP JUMP JUMPDEST PUSH1 0x0 PUSH2 0x43B1 DUP3 PUSH2 0x2785 JUMP JUMPDEST SWAP2 POP PUSH1 0x0 DUP3 SUB PUSH2 0x43C4 JUMPI PUSH2 0x43C3 PUSH2 0x2EB9 JUMP JUMPDEST JUMPDEST PUSH1 0x1 DUP3 SUB SWAP1 POP SWAP2 SWAP1 POP JUMP JUMPDEST PUSH1 0x0 PUSH2 0x43DA DUP3 PUSH2 0x2785 JUMP JUMPDEST SWAP2 POP PUSH2 0x43E5 DUP4 PUSH2 0x2785 JUMP JUMPDEST SWAP3 POP DUP3 PUSH2 0x43F5 JUMPI PUSH2 0x43F4 PUSH2 0x2E8A JUMP JUMPDEST JUMPDEST DUP3 DUP3 MOD SWAP1 POP SWAP3 SWAP2 POP POP JUMP JUMPDEST PUSH1 0x0 PUSH2 0x440B DUP3 PUSH2 0x2785 JUMP JUMPDEST SWAP2 POP PUSH2 0x4416 DUP4 PUSH2 0x2785 JUMP JUMPDEST SWAP3 POP DUP3 DUP3 ADD SWAP1 POP DUP1 DUP3 GT ISZERO PUSH2 0x442E JUMPI PUSH2 0x442D PUSH2 0x2EB9 JUMP JUMPDEST JUMPDEST SWAP3 SWAP2 POP POP JUMP JUMPDEST PUSH32 0x4E487B7100000000000000000000000000000000000000000000000000000000 PUSH1 0x0 MSTORE PUSH1 0x32 PUSH1 0x4 MSTORE PUSH1 0x24 PUSH1 0x0 REVERT JUMPDEST PUSH1 0x0 PUSH1 0x40 DUP3 ADD SWAP1 POP DUP2 DUP2 SUB PUSH1 0x0 DUP4 ADD MSTORE PUSH2 0x447D DUP2 DUP6 PUSH2 0x2A2D JUMP JUMPDEST SWAP1 POP PUSH2 0x448C PUSH1 0x20 DUP4 ADD DUP5 PUSH2 0x2B28 JUMP JUMPDEST SWAP4 SWAP3 POP POP POP JUMP JUMPDEST PUSH1 0x0 PUSH1 0x40 DUP3 ADD SWAP1 POP DUP2 DUP2 SUB PUSH1 0x0 DUP4 ADD MSTORE PUSH2 0x44AD DUP2 DUP6 PUSH2 0x2A2D JUMP JUMPDEST SWAP1 POP PUSH2 0x44BC PUSH1 0x20 DUP4 ADD DUP5 PUSH2 0x282E JUMP JUMPDEST SWAP4 SWAP3 POP POP POP JUMP JUMPDEST PUSH32 0x4E487B7100000000000000000000000000000000000000000000000000000000 PUSH1 0x0 MSTORE PUSH1 0x51 PUSH1 0x4 MSTORE PUSH1 0x24 PUSH1 0x0 REVERT INVALID GASLIMIT MSTORE MSTORE GASPRICE KECCAK256 0x49 PUSH15 0x73756666696369656E742066756E64 PUSH20 0x2E20436F6E7461637420637573746F6D65722073 PUSH22 0x70706F72742EA2646970667358221220E1E04EED2A45 0xCF STATICCALL 0xD3 0xB7 DUP14 0x2F 0xB1 0x5C 0xD4 0xDE SWAP15 0xEF DUP16 0xEB PUSH12 0xA8AA08EB43C31CD109184864 PUSH20 0x6F6C634300081200330000000000000000000000 "
		},
		"gasEstimates": {
			"creation": {
				"codeDepositCost": "3550800",
				"executionCost": "infinite",
				"totalCost": "infinite"
			},
			"external": {
				"cancelTicket()": "infinite",
				"claimRefund()": "infinite",
				"closeTicket(uint8,uint256,uint256,uint256)": "infinite",
				"confirmTicket()": "infinite",
				"selectSeat(string)": "infinite",
				"viewTicketInfo()": "infinite"
			},
			"internal": {
				"_calculateDelaytime(uint8,uint256,uint256,uint256)": "infinite",
				"_getPaymentStatusText(uint256)": "infinite",
				"_getPercentRefund(uint256,uint8,bool)": "infinite",
				"_getTicketStatusText(uint256)": "infinite",
				"_settlePayment(uint256,uint256)": "90873"
			}
		},
		"methodIdentifiers": {
			"cancelTicket()": "ca36385c",
			"claimRefund()": "b5545a3c",
			"closeTicket(uint8,uint256,uint256,uint256)": "28700e6e",
			"confirmTicket()": "d16c2cba",
			"selectSeat(string)": "801c86f5",
			"viewTicketInfo()": "15285527"
		}
	},
	"abi": [
		{
			"inputs": [
				{
					"internalType": "address",
					"name": "eagleAir",
					"type": "address"
				},
				{
					"internalType": "address",
					"name": "operatorAddress",
					"type": "address"
				},
				{
					"internalType": "address",
					"name": "buyerAddress",
					"type": "address"
				},
				{
					"internalType": "uint256",
					"name": "ticketNumber",
					"type": "uint256"
				},
				{
					"internalType": "uint256",
					"name": "flightNumber",
					"type": "uint256"
				},
				{
					"internalType": "string",
					"name": "seatNumber",
					"type": "string"
				},
				{
					"internalType": "uint256",
					"name": "ticketAmount",
					"type": "uint256"
				},
				{
					"internalType": "uint256",
					"name": "schDepartureTimeStamp",
					"type": "uint256"
				}
			],
			"stateMutability": "nonpayable",
			"type": "constructor"
		},
		{
			"anonymous": false,
			"inputs": [
				{
					"indexed": false,
					"internalType": "string",
					"name": "contractName",
					"type": "string"
				},
				{
					"indexed": true,
					"internalType": "address",
					"name": "contractAddress",
					"type": "address"
				}
			],
			"name": "ContractCreated",
			"type": "event"
		},
		{
			"anonymous": false,
			"inputs": [
				{
					"indexed": false,
					"internalType": "string",
					"name": "errorMessage",
					"type": "string"
				}
			],
			"name": "ErrorMessage",
			"type": "event"
		},
		{
			"anonymous": false,
			"inputs": [
				{
					"indexed": false,
					"internalType": "string",
					"name": "infoMessage",
					"type": "string"
				}
			],
			"name": "InfoMessage",
			"type": "event"
		},
		{
			"anonymous": false,
			"inputs": [
				{
					"indexed": false,
					"internalType": "uint256",
					"name": "ticketNumber",
					"type": "uint256"
				},
				{
					"indexed": false,
					"internalType": "string",
					"name": "message",
					"type": "string"
				}
			],
			"name": "TicketCancelled",
			"type": "event"
		},
		{
			"anonymous": false,
			"inputs": [
				{
					"indexed": false,
					"internalType": "uint256",
					"name": "ticketNumber",
					"type": "uint256"
				},
				{
					"indexed": false,
					"internalType": "string",
					"name": "message",
					"type": "string"
				}
			],
			"name": "TicketClosed",
			"type": "event"
		},
		{
			"anonymous": false,
			"inputs": [
				{
					"indexed": false,
					"internalType": "uint256",
					"name": "flightNumber",
					"type": "uint256"
				},
				{
					"indexed": false,
					"internalType": "uint256",
					"name": "ticketNumber",
					"type": "uint256"
				},
				{
					"indexed": false,
					"internalType": "uint256",
					"name": "transferredAmount",
					"type": "uint256"
				},
				{
					"indexed": false,
					"internalType": "uint256",
					"name": "collectedAmount",
					"type": "uint256"
				},
				{
					"indexed": false,
					"internalType": "string",
					"name": "message",
					"type": "string"
				}
			],
			"name": "TicketConfirmed",
			"type": "event"
		},
		{
			"anonymous": false,
			"inputs": [
				{
					"indexed": false,
					"internalType": "uint256",
					"name": "ticketNumber",
					"type": "uint256"
				},
				{
					"indexed": false,
					"internalType": "string",
					"name": "message",
					"type": "string"
				}
			],
			"name": "TicketRefundClaimed",
			"type": "event"
		},
		{
			"anonymous": false,
			"inputs": [
				{
					"indexed": false,
					"internalType": "uint256",
					"name": "ticketNumber",
					"type": "uint256"
				},
				{
					"indexed": false,
					"internalType": "uint256",
					"name": "flightNumber",
					"type": "uint256"
				},
				{
					"indexed": false,
					"internalType": "string",
					"name": "seatNumber",
					"type": "string"
				},
				{
					"indexed": false,
					"internalType": "string",
					"name": "ticketStatus",
					"type": "string"
				},
				{
					"indexed": false,
					"internalType": "string",
					"name": "paymentStatus",
					"type": "string"
				},
				{
					"indexed": false,
					"internalType": "uint256",
					"name": "collectedAmount",
					"type": "uint256"
				}
			],
			"name": "ViewTicket",
			"type": "event"
		},
		{
			"inputs": [],
			"name": "cancelTicket",
			"outputs": [
				{
					"internalType": "bool",
					"name": "success",
					"type": "bool"
				},
				{
					"internalType": "string",
					"name": "message",
					"type": "string"
				}
			],
			"stateMutability": "payable",
			"type": "function"
		},
		{
			"inputs": [],
			"name": "claimRefund",
			"outputs": [
				{
					"internalType": "bool",
					"name": "success",
					"type": "bool"
				}
			],
			"stateMutability": "payable",
			"type": "function"
		},
		{
			"inputs": [
				{
					"internalType": "uint8",
					"name": "flightStatus",
					"type": "uint8"
				},
				{
					"internalType": "uint256",
					"name": "schDepartTS",
					"type": "uint256"
				},
				{
					"internalType": "uint256",
					"name": "actDepartTS",
					"type": "uint256"
				},
				{
					"internalType": "uint256",
					"name": "preflightStsTS",
					"type": "uint256"
				}
			],
			"name": "closeTicket",
			"outputs": [
				{
					"internalType": "bool",
					"name": "success",
					"type": "bool"
				}
			],
			"stateMutability": "payable",
			"type": "function"
		},
		{
			"inputs": [],
			"name": "confirmTicket",
			"outputs": [
				{
					"internalType": "bool",
					"name": "success",
					"type": "bool"
				}
			],
			"stateMutability": "payable",
			"type": "function"
		},
		{
			"inputs": [
				{
					"internalType": "string",
					"name": "seatNumber",
					"type": "string"
				}
			],
			"name": "selectSeat",
			"outputs": [
				{
					"internalType": "bool",
					"name": "success",
					"type": "bool"
				}
			],
			"stateMutability": "nonpayable",
			"type": "function"
		},
		{
			"inputs": [],
			"name": "viewTicketInfo",
			"outputs": [],
			"stateMutability": "nonpayable",
			"type": "function"
		}
	]
}