{
	"data": {
		"bytecode": {
			"linkReferences": {},
			"object": "608060405234801561001057600080fd5b50612f9e806100206000396000f3fe608060405234801561001057600080fd5b506004361061002b5760003560e01c806318b552bb14610030575b600080fd5b61004361003e3660046100ef565b61005f565b6040516001600160a01b03909116815260200160405180910390f35b60008888888888888888604051610075906100b0565b6100869897969594939291906101f9565b604051809103906000f0801580156100a2573d6000803e3d6000fd5b509998505050505050505050565b612cd88061029183390190565b80356001600160a01b03811681146100d457600080fd5b919050565b634e487b7160e01b600052604160045260246000fd5b600080600080600080600080610100898b03121561010c57600080fd5b610115896100bd565b975061012360208a016100bd565b965061013160408a016100bd565b9550606089013594506080890135935060a089013567ffffffffffffffff8082111561015c57600080fd5b818b0191508b601f83011261017057600080fd5b813581811115610182576101826100d9565b604051601f8201601f19908116603f011681019083821181831017156101aa576101aa6100d9565b816040528281528e60208487010111156101c357600080fd5b82602086016020830137600060208483010152809750505050505060c0890135915060e089013590509295985092959890939650565b600061010060018060a01b03808c1684526020818c1681860152818b1660408601528960608601528860808601528260a0860152875191508183860152600092505b8183101561025a5787830181015185840161012001529182019161023b565b50600061012082860181019190915260c085019690965260e08401949094525050601f909101601f19160101969550505050505056fe60806040523480156200001157600080fd5b5060405162002cd838038062002cd883398101604081905262000034916200039c565b6001600160a01b038716620000905760405162461bcd60e51b815260206004820152601e60248201527f4572726f723a20496e76616c6964204169726c696e652061646472657373000060448201526064015b60405180910390fd5b6001600160a01b038616620000e85760405162461bcd60e51b815260206004820181905260248201527f4572726f723a20496e76616c69646520437573746f6d65722061646472657373604482015260640162000087565b600085116200013a5760405162461bcd60e51b815260206004820152601760248201527f4572726f723a20496e76616c6964205469636b65742023000000000000000000604482015260640162000087565b600084116200018c5760405162461bcd60e51b815260206004820152601760248201527f4572726f723a20496e76616c696420466c696768742023000000000000000000604482015260640162000087565b60008211620001de5760405162461bcd60e51b815260206004820152601c60248201527f4572726f723a20496e76616c6964205469636b657420416d6f756e7400000000604482015260640162000087565b60008054306001600160a01b03199182161782556002805482166001600160a01b038c81169182179092556003805484169091179055600480549092168a821617909155600580546001899055600160a01b928a166001600160a81b0319909116179190911760ff60a81b19169055426006556009805460ff19169055604080516101208101825286815260208101869052908101849052606081018290526080810182905260a0810182905260c0810182905260e08101919091526101008101829052600a858155600b620002b586826200055f565b506040828101516002830155606083015160038301556080830151600483015560a0830151600583015560c0830151600683015560e08301516007830155610100909201516008909101555130907f0d1802b86a0633c4679107d4313baeacab2fb7391348ca6485df3f40844b0b079062000353906020808252600f908201526e151a58dad95d0810dbdb9d1c9858dd608a1b604082015260600190565b60405180910390a250505050505050506200062b565b80516001600160a01b03811681146200038157600080fd5b919050565b634e487b7160e01b600052604160045260246000fd5b600080600080600080600080610100898b031215620003ba57600080fd5b620003c58962000369565b97506020620003d6818b0162000369565b9750620003e660408b0162000369565b60608b015160808c015160a08d015192995090975095506001600160401b03808211156200041357600080fd5b818c0191508c601f8301126200042857600080fd5b8151818111156200043d576200043d62000386565b604051601f8201601f19908116603f0116810190838211818310171562000468576200046862000386565b816040528281528f868487010111156200048157600080fd5b600093505b82841015620004a5578484018601518185018701529285019262000486565b60009281019095019190915250505060c08a015160e0909a0151989b979a5095989497939692505050565b600181811c90821680620004e557607f821691505b6020821081036200050657634e487b7160e01b600052602260045260246000fd5b50919050565b601f8211156200055a57600081815260208120601f850160051c81016020861015620005355750805b601f850160051c820191505b81811015620005565782815560010162000541565b5050505b505050565b81516001600160401b038111156200057b576200057b62000386565b62000593816200058c8454620004d0565b846200050c565b602080601f831160018114620005cb5760008415620005b25750858301515b600019600386901b1c1916600185901b17855562000556565b600085815260208120601f198616915b82811015620005fc57888601518255948401946001909101908401620005db565b50858210156200061b5787850151600019600388901b60f8161c191681555b5050505050600190811b01905550565b61269d806200063b6000396000f3fe6080604052600436106100555760003560e01c8063152855271461005a57806328700e6e14610071578063801c86f514610099578063b5545a3c146100b9578063ca36385c146100c1578063d16c2cba146100d7575b600080fd5b34801561006657600080fd5b5061006f6100df565b005b61008461007f366004611efc565b6101f3565b60405190151581526020015b60405180910390f35b3480156100a557600080fd5b506100846100b4366004611fa6565b610791565b610084610852565b6100c9610f8a565b604051610090929190612076565b6100846115f3565b6004546001600160a01b031633148061010257506005546001600160a01b031633145b61016f5760405162461bcd60e51b815260206004820152603360248201527f4f6e6c79204169726c696e6520466c69676874204f70657261746f72202f20546044820152721a58dad95d08109d5e595c88185b1b1bddd959606a1b60648201526084015b60405180910390fd5b60055460009061018890600160a01b900460ff166118cb565b6005549091506000906101a490600160a81b900460ff166119bb565b600154600a54600d546040519394507f7f9534bae335130d7523bed94596c5942b70a305e742e8064af42f87ae7dad84936101e7939291600b91889188916120c5565b60405180910390a15050565b6002546000906001600160a01b031633146102505760405162461bcd60e51b815260206004820152601d60248201527f4f6e6c79204169726c696e6520436f6e747261637420616c6c6f7765640000006044820152606401610166565b60055442906001600160a01b90910460ff161080159061027e57506005546002600160a01b90910460ff1611155b6102f05760405162461bcd60e51b815260206004820152603e60248201527f4552523a2043616e6e6f7420636c6f73652064756520746f205469636b65742060448201527f7374617475732028564f49442f434c4f5345442f43414e43454c4c45442900006064820152608401610166565b60ff861660051480610305575060ff86166006145b6103515760405162461bcd60e51b815260206004820152601a60248201527f4552523a20496e76616c696420466c69676874207374617475730000000000006044820152606401610166565b600554600019600160a01b90910460ff16016103d0576005805460ff60a01b1916905560078190556001546040805191825260208201819052600b828201526a1593d25108151a58dad95d60aa1b6060830152517fde76133b24d9fcae5254a94bfa50b907d61b4eeb12f84fa63de7378c63e068ca9181900360800190a15b600954479060ff161580156103f15750600554600160a81b900460ff166001145b806103fc5750600081115b156106de57600061040f88888888611a93565b9050600080600080600a600301548611156105a1576000610432868e6000611b2f565b905061043f6064826121bb565b61044c9060ff16886121dd565b945061045885886121f4565b935084156104fa576005546040516001600160a01b03909116908690600081818185875af1925050503d80600081146104ad576040519150601f19603f3d011682016040523d82523d6000602084013e6104b2565b606091505b505080935050826104fa5760405162461bcd60e51b81526020600482015260126024820152711154948e881499599d5b990819985a5b195960721b6044820152606401610166565b831561059b576004546040516001600160a01b03909116908590600081818185875af1925050503d806000811461054d576040519150601f19603f3d011682016040523d82523d6000602084013e610552565b606091505b5050809250508161059b5760405162461bcd60e51b81526020600482015260136024820152721154948e8814185e5b595b9d0819985a5b1959606a1b6044820152606401610166565b506105f9565b60405162461bcd60e51b815260206004820152602760248201527f4552523a20496e73756666696369656e742066756e647320746f20636c6f7365604482015266081d1a58dad95d60ca1b6064820152608401610166565b81806106025750805b61064e5760405162461bcd60e51b815260206004820152601860248201527f4552523a20436c6f7365205469636b6574206661696c656400000000000000006044820152606401610166565b600887905583158015906106625750600083115b1561067f576005805460ff60a81b1916600360a81b1790556106d1565b60008411801561068d575082155b156106aa576005805460ff60a81b1916600160a91b1790556106d1565b831580156106b85750600083115b156106d1576005805460ff60a81b1916600160aa1b1790555b5050600e91909155600f55505b6005805460ff60a01b1916600360a01b17905560078290556040805180820190915260028152614e4160f01b6020820152600b9061071c9082612256565b50600192507fde76133b24d9fcae5254a94bfa50b907d61b4eeb12f84fa63de7378c63e068ca60015460405161077f9181526040602082018190526013908201527212539193ce88151a58dad95d0810db1bdcd959606a1b606082015260800190565b60405180910390a15050949350505050565b6005546000906001600160a01b031633146107be5760405162461bcd60e51b815260040161016690612316565b600354600054604051632eb8a88b60e01b81526001600160a01b0392831692632eb8a88b926107f492911690869060040161234d565b6020604051808303816000875af1158015610813573d6000803e3d6000fd5b505050506040513d601f19601f820116820180604052508101906108379190612381565b9050801561084d57600b61084b8382612256565b505b919050565b6005546000906001600160a01b0316331461087f5760405162461bcd60e51b815260040161016690612316565b60095460ff16156108de5760405162461bcd60e51b815260206004820152602360248201527f4552523a20526566756e6420636c61696d20616c72656164792070726f6365736044820152621cd95960ea1b6064820152608401610166565b60058054600160a01b900460ff16116109395760405162461bcd60e51b815260206004820152601d60248201527f4552523a205469636b657420616c72656164792043616e63656c6c65640000006044820152606401610166565b600554600319600160a01b90910460ff16016109a75760405162461bcd60e51b815260206004820152602760248201527f4552523a205469636b65742043414e43454c4c4154494f4e20697320696e2070604482015266726f677265737360c81b6064820152608401610166565b600554600160a81b900460ff16600114610a035760405162461bcd60e51b815260206004820152601a60248201527f4552523a20526566756e64206e6f74206170706c696361626c650000000000006044820152606401610166565b600354600a546040516350e20d7760e01b8152600481019190915242916000918291829182916001600160a01b0316906350e20d779060240160c060405180830381865afa158015610a59573d6000803e3d6000fd5b505050506040513d601f19601f82011682018060405250810190610a7d919061239c565b95505094505093509350603c6018610a9591906121dd565b610a9f84876121f4565b1015610af95760405162461bcd60e51b815260206004820152602360248201527f4552523a205469636b6574206e6f7420656c6c696769626c6520666f7220636c60448201526261696d60e81b6064820152608401610166565b6000610b0785858585611a93565b90506000610b1782876000611b2f565b905060008160ff1611610b6c5760405162461bcd60e51b815260206004820152601760248201527f4552523a20436c61696d206973206e6f742076616c69640000000000000000006044820152606401610166565b6000610b796064836121bb565b600d54610b899160ff16906121dd565b9050600081600a60030154610b9e91906121f4565b600d5490915060009081904790811115610d6d57610bbd6064876121bb565b600d54610bcd9160ff16906121dd565b600d54909550610bde9086906121f4565b93508415610ca6576005546040516001600160a01b03909116908690600081818185875af1925050503d8060008114610c33576040519150601f19603f3d011682016040523d82523d6000602084013e610c38565b606091505b50508093505082610ca65760405162461bcd60e51b815260206004820152603260248201527f4552523a20526566756e642063616c6c206661696c65642e20436f6e746163746044820152711031bab9ba37b6b2b91039bab83837b93a1760711b6064820152608401610166565b8315610d68576004546040516001600160a01b03909116908590600081818185875af1925050503d8060008114610cf9576040519150601f19603f3d011682016040523d82523d6000602084013e610cfe565b606091505b50508092505081610d685760405162461bcd60e51b815260206004820152602e60248201527f4552523a205061796d656e74206661696c65642e20436f6e746163742063757360448201526d3a37b6b2b91039bab83837b93a1760911b6064820152608401610166565b610de6565b60405162461bcd60e51b815260206004820152604260248201527f4552523a20496e73756666696369656e742066756e647320746f20736574746c60448201527f6520636c61696d2e20436f6e7461637420637573746f6d657220737570706f726064820152613a1760f11b608482015260a401610166565b8280610def5750815b610e575760405162461bcd60e51b815260206004820152603360248201527f4552523a20526566756e6420636c61696d206661696c65642e20436f6e7461636044820152723a1031bab9ba37b6b2b91039bab83837b93a1760691b6064820152608401610166565b6009805460ff1916600117905560088c90558415801590610e785750600084115b15610e95576005805460ff60a81b1916600360a81b179055610ee7565b600085118015610ea3575083155b15610ec0576005805460ff60a81b1916600160a91b179055610ee7565b84158015610ece5750600084115b15610ee7576005805460ff60a81b1916600160aa1b1790555b600e859055600f8490556005805460ff60a01b1916600360a01b179055426007819055600855600180546040805191825260208201819052601b908201527f494e464f3a205469636b657420526566756e6420436c61696d656400000000006060820152909d507fcf25cb80c2593591b7debe7d7dbc914be276b5b7bacfae64ad3f306a07ea0f7c9060800160405180910390a150505050505050505050505090565b6005546000906060906001600160a01b03163314610fba5760405162461bcd60e51b815260040161016690612316565b6005544290600019600160a01b90910460ff16016110a157600354600054604051634da75d4f60e01b81526001600160a01b039182166004820152911690634da75d4f906024016000604051808303816000875af1158015611020573d6000803e3d6000fd5b505050506040513d6000823e601f3d908101601f1916820160405261104891908101906123ef565b6005805460ff60a01b1916905560078390556001546040519295509093507f025e8a2e026a8e044740a13a07990abc9e9ae34a60f00e858f5480f21f646de09161109491908590612479565b60405180910390a1611168565b600554600319600160a01b90910460ff160161110a5760405162461bcd60e51b815260206004820152602260248201527f4572723a20507265762043414e43454c4c4154494f4e20494e2050524f475245604482015261535360f01b6064820152608401610166565b600554600419600160a01b90910460ff16016111685760405162461bcd60e51b815260206004820152601d60248201527f4572723a205469636b657420616c72656164792043414e43454c4c45440000006044820152606401610166565b60095460ff166114a957600354600a5460405163d9d2f54760e01b815260048101919091526000916001600160a01b03169063d9d2f54790602401602060405180830381865afa1580156111c0573d6000803e3d6000fd5b505050506040513d601f19601f820116820180604052508101906111e49190612492565b9050600260ff821611156112575760405162461bcd60e51b815260206004820152603460248201527f4552523a205469636b65742063616e6e6f742062652063616e63656c6c65642e60448201527320436865636b20466c696768742073746174757360601b6064820152608401610166565b600082600a600801541161126c57600061127a565b60125461127a9084906121f4565b9050600061128a82846001611b2f565b905060008160ff16116112ee5760405162461bcd60e51b815260206004820152602660248201527f4552523a205469636b65742063616e63656c6c6174696f6e2077696e646f772060448201526518db1bdcd95960d21b6064820152608401610166565b6005805460ff60a01b1916600160a21b1790556007849055600d546000908190819081904790811061143b576113256064876121bb565b6113329060ff16826121dd565b945061133e85826121f4565b935084156113bb576005546040516001600160a01b03909116908690600081818185875af1925050503d8060008114611393576040519150601f19603f3d011682016040523d82523d6000602084013e611398565b606091505b505080935050826113bb5760405162461bcd60e51b8152600401610166906124af565b8315611436576004546040516001600160a01b03909116908590600081818185875af1925050503d806000811461140e576040519150601f19603f3d011682016040523d82523d6000602084013e611413565b606091505b505080925050816114365760405162461bcd60e51b8152600401610166906124af565b611470565b6040518060600160405280603281526020016126366032913999508960405162461bcd60e51b8152600401610166919061250c565b82806114795750815b6114955760405162461bcd60e51b8152600401610166906124af565b61149f8585611c9c565b5050505050505050505b6005805460ff60a01b1916600560a01b17905560078190556040805180820190915260028152614e4160f01b6020820152600b906114e79082612256565b50600354600054604051630bd90cb960e11b81526001600160a01b0391821660048201529116906317b21972906024016000604051808303816000875af1158015611536573d6000803e3d6000fd5b505050506040513d6000823e601f3d908101601f1916820160405261155e91908101906123ef565b909350915081836115825760405162461bcd60e51b8152600401610166919061250c565b5060019250611592600154611d34565b6040516020016115a2919061251f565b60405160208183030381529060405291507f025e8a2e026a8e044740a13a07990abc9e9ae34a60f00e858f5480f21f646de0600154836040516115e6929190612479565b60405180910390a1509091565b6005546000906001600160a01b031633146116205760405162461bcd60e51b815260040161016690612316565b50600c54600090348111156116915760405162461bcd60e51b815260206004820152603160248201527f496e73756666696369656e7420416d6f756e742070726f766964656420746f20604482015270636f6d706c65746520707572636861736560781b6064820152608401610166565b6003546000546040516347805f2560e11b81526001600160a01b039182166004820152336024820152911690638f00be4a906044016020604051808303816000875af11580156116e5573d6000803e3d6000fd5b505050506040513d601f19601f820116820180604052508101906117099190612381565b9150816117585760405162461bcd60e51b815260206004820152601b60248201527f4552523a205469636b6574207075726368617365206661696c656400000000006044820152606401610166565b600061176482346121f4565b9050801561181e57604051600090339083908381818185875af1925050503d80600081146117ae576040519150601f19603f3d011682016040523d82523d6000602084013e6117b3565b606091505b50509050806118045760405162461bcd60e51b815260206004820152601b60248201527f4552523a205469636b6574207075726368617365206661696c656400000000006044820152606401610166565b506005805461ffff60a01b1916608160a11b179055600192505b600d8290556005805442600781905561ffff60a01b19909116608160a11b17909155600855600a5460015460408051928352602083019190915281018290526060810183905260a060808201819052601c908201527f21205469636b6574205061796d656e7420436f6e6669726d656420210000000060c08201527f2e3adcd6802b3bab575fb11db537da427381ecaf1c001902e87af8957acc32349060e00160405180910390a1505090565b606060001982016118fa575050604080518082019091526008815267149154d15495915160c21b602082015290565b600119820161192857505060408051808201909152600981526810d3d391925493515160ba1b602082015290565b600319820161196a57505060408051808201909152601881527f43414e43454c4c4154494f4e2d494e2d50524f47524553530000000000000000602082015290565b600419820161199857505060408051808201909152600981526810d05390d15313115160ba1b602082015290565b50506040805180820190915260078152662aa725a727aba760c91b602082015290565b6060816119e557505060408051808201909152600781526650454e44494e4760c81b602082015290565b6000198201611a1357505060408051808201909152600981526810d3d3131150d5115160ba1b602082015290565b6001198201611a40575050604080518082019091526008815267149151955391115160c21b602082015290565b6002198201611a6a57505060408051808201909152600581526414d413125560da1b602082015290565b60031982016119985750506040805180820190915260048152631410525160e21b602082015290565b600060051960ff861601611ab457611aad603c60186121dd565b9050611b27565b600660ff8616108015611ada5750611ace603c60186121dd565b611ad883866121f4565b115b15611aeb57611aad603c60186121dd565b600660ff86161015611b23578360ff861660051480611b0d575060ff86166004145b611b175742611b19565b835b611aad91906121f4565b5060005b949350505050565b6000611b666040518060400160405280601381526020017203a34b6b2a130b9b4b9a9b2b1b7b73239901e9606d1b81525085611e36565b611b9a6040518060400160405280600f81526020016e0333634b3b43a29ba30ba3ab9901e9608d1b8152508460ff16611e36565b611bd96040518060400160405280601781526020017f69735469636b657443616e63656c6c6174696f6e203d2000000000000000000081525083611e7f565b60051960ff841601611bed57506064611c95565b611bf9603c60186121dd565b8410611c155781611c0b576064611c0e565b60645b9050611c95565b611c21603c600a6121dd565b8410158015611c3a5750611c37603c60186121dd565b84105b15611c535781611c4b576028611c0e565b506050611c95565b611c5f603c60026121dd565b8410158015611c785750611c75603c600a6121dd565b84105b15611c915781611c8957600a611c0e565b506028611c95565b5060005b9392505050565b4260085560008215801590611cb15750600082115b15611cce576005805460ff60a81b1916600360a81b179055611d20565b600083118015611cdc575081155b15611cf9576005805460ff60a81b1916600160a91b179055611d20565b82158015611d075750600082115b15611d20576005805460ff60a81b1916600160aa1b1790555b50600e829055600f81905560015b92915050565b606081600003611d5b5750506040805180820190915260018152600360fc1b602082015290565b8160005b8115611d855780611d6f8161256e565b9150611d7e9050600a83612587565b9150611d5f565b60008167ffffffffffffffff811115611da057611da0611f37565b6040519080825280601f01601f191660200182016040528015611dca576020820181803683370190505b5090505b8415611b275781611dde8161259b565b9250611ded9050600a866125b2565b611df89060306125c6565b60f81b818381518110611e0d57611e0d6125d9565b60200101906001600160f81b031916908160001a905350611e2f600a86612587565b9450611dce565b611e7b8282604051602401611e4c9291906125ef565b60408051601f198184030181529190526020810180516001600160e01b0316632d839cb360e21b179052611ec0565b5050565b611e7b8282604051602401611e95929190612611565b60408051601f198184030181529190526020810180516001600160e01b031663c3b5563560e01b1790525b611ec981611ecc565b50565b60006a636f6e736f6c652e6c6f679050600080835160208501845afa505050565b60ff81168114611ec957600080fd5b60008060008060808587031215611f1257600080fd5b8435611f1d81611eed565b966020860135965060408601359560600135945092505050565b634e487b7160e01b600052604160045260246000fd5b604051601f8201601f1916810167ffffffffffffffff81118282101715611f7657611f76611f37565b604052919050565b600067ffffffffffffffff821115611f9857611f98611f37565b50601f01601f191660200190565b600060208284031215611fb857600080fd5b813567ffffffffffffffff811115611fcf57600080fd5b8201601f81018413611fe057600080fd5b8035611ff3611fee82611f7e565b611f4d565b81815285602083850101111561200857600080fd5b81602084016020830137600091810160200191909152949350505050565b60005b83811015612041578181015183820152602001612029565b50506000910152565b60008151808452612062816020860160208601612026565b601f01601f19169290920160200192915050565b8215158152604060208201526000611b27604083018461204a565b600181811c908216806120a557607f821691505b60208210810361084b57634e487b7160e01b600052602260045260246000fd5b86815260006020878184015260c06040840152600087546120e581612091565b8060c087015260e060018084166000811461210757600181146121215761214f565b60ff1985168984015283151560051b89018301955061214f565b8c6000528660002060005b858110156121475781548b820186015290830190880161212c565b8a0184019650505b50505050508381036060850152612166818861204a565b915050828103608084015261217b818661204a565b9150508260a0830152979650505050505050565b634e487b7160e01b600052601260045260246000fd5b634e487b7160e01b600052601160045260246000fd5b600060ff8316806121ce576121ce61218f565b8060ff84160491505092915050565b8082028115828204841417611d2e57611d2e6121a5565b81810381811115611d2e57611d2e6121a5565b601f82111561225157600081815260208120601f850160051c8101602086101561222e5750805b601f850160051c820191505b8181101561224d5782815560010161223a565b5050505b505050565b815167ffffffffffffffff81111561227057612270611f37565b6122848161227e8454612091565b84612207565b602080601f8311600181146122b957600084156122a15750858301515b600019600386901b1c1916600185901b17855561224d565b600085815260208120601f198616915b828110156122e8578886015182559484019460019091019084016122c9565b50858210156123065787850151600019600388901b60f8161c191681555b5050505050600190811b01905550565b60208082526019908201527f4f6e6c79205469636b657420427579657220616c6c6f77656400000000000000604082015260600190565b6001600160a01b0383168152604060208201819052600090611b279083018461204a565b8051801515811461084d57600080fd5b60006020828403121561239357600080fd5b611c9582612371565b60008060008060008060c087890312156123b557600080fd5b86516123c081611eed565b6020880151604089015160608a015160808b015160a0909b0151939c929b509099909850965090945092505050565b6000806040838503121561240257600080fd5b61240b83612371565b9150602083015167ffffffffffffffff81111561242757600080fd5b8301601f8101851361243857600080fd5b8051612446611fee82611f7e565b81815286602083850101111561245b57600080fd5b61246c826020830160208601612026565b8093505050509250929050565b828152604060208201526000611b27604083018461204a565b6000602082840312156124a457600080fd5b8151611c9581611eed565b6020808252603a908201527f4552523a205469636b65742063616e63656c6c6174696f6e206661696c65642e60408201527f20436f6e7461637420637573746f6d657220737570706f72742e000000000000606082015260800190565b602081526000611c95602083018461204a565b7f494e464f3a205469636b65742043616e63656c6c65642e205469636b657420238152600160fd1b602082015260008251612561816021850160208701612026565b9190910160210192915050565b600060018201612580576125806121a5565b5060010190565b6000826125965761259661218f565b500490565b6000816125aa576125aa6121a5565b506000190190565b6000826125c1576125c161218f565b500690565b80820180821115611d2e57611d2e6121a5565b634e487b7160e01b600052603260045260246000fd5b604081526000612602604083018561204a565b90508260208301529392505050565b604081526000612624604083018561204a565b90508215156020830152939250505056fe4552523a20496e73756666696369656e742066756e64732e20436f6e7461637420637573746f6d657220737570706f72742ea2646970667358221220ca3cfdb359396604f53ac7757804d5675dc791123e8aa8d65365e631519a8bdb64736f6c63430008120033a2646970667358221220115c91465d227acd3c6f3d3db8284ad62e66bff0fde3c03924ddb04e699bfcfc64736f6c63430008120033",
			"opcodes": "PUSH1 0x80 PUSH1 0x40 MSTORE CALLVALUE DUP1 ISZERO PUSH2 0x10 JUMPI PUSH1 0x0 DUP1 REVERT JUMPDEST POP PUSH2 0x2F9E DUP1 PUSH2 0x20 PUSH1 0x0 CODECOPY PUSH1 0x0 RETURN INVALID PUSH1 0x80 PUSH1 0x40 MSTORE CALLVALUE DUP1 ISZERO PUSH2 0x10 JUMPI PUSH1 0x0 DUP1 REVERT JUMPDEST POP PUSH1 0x4 CALLDATASIZE LT PUSH2 0x2B JUMPI PUSH1 0x0 CALLDATALOAD PUSH1 0xE0 SHR DUP1 PUSH4 0x18B552BB EQ PUSH2 0x30 JUMPI JUMPDEST PUSH1 0x0 DUP1 REVERT JUMPDEST PUSH2 0x43 PUSH2 0x3E CALLDATASIZE PUSH1 0x4 PUSH2 0xEF JUMP JUMPDEST PUSH2 0x5F JUMP JUMPDEST PUSH1 0x40 MLOAD PUSH1 0x1 PUSH1 0x1 PUSH1 0xA0 SHL SUB SWAP1 SWAP2 AND DUP2 MSTORE PUSH1 0x20 ADD PUSH1 0x40 MLOAD DUP1 SWAP2 SUB SWAP1 RETURN JUMPDEST PUSH1 0x0 DUP9 DUP9 DUP9 DUP9 DUP9 DUP9 DUP9 DUP9 PUSH1 0x40 MLOAD PUSH2 0x75 SWAP1 PUSH2 0xB0 JUMP JUMPDEST PUSH2 0x86 SWAP9 SWAP8 SWAP7 SWAP6 SWAP5 SWAP4 SWAP3 SWAP2 SWAP1 PUSH2 0x1F9 JUMP JUMPDEST PUSH1 0x40 MLOAD DUP1 SWAP2 SUB SWAP1 PUSH1 0x0 CREATE DUP1 ISZERO DUP1 ISZERO PUSH2 0xA2 JUMPI RETURNDATASIZE PUSH1 0x0 DUP1 RETURNDATACOPY RETURNDATASIZE PUSH1 0x0 REVERT JUMPDEST POP SWAP10 SWAP9 POP POP POP POP POP POP POP POP POP JUMP JUMPDEST PUSH2 0x2CD8 DUP1 PUSH2 0x291 DUP4 CODECOPY ADD SWAP1 JUMP JUMPDEST DUP1 CALLDATALOAD PUSH1 0x1 PUSH1 0x1 PUSH1 0xA0 SHL SUB DUP2 AND DUP2 EQ PUSH2 0xD4 JUMPI PUSH1 0x0 DUP1 REVERT JUMPDEST SWAP2 SWAP1 POP JUMP JUMPDEST PUSH4 0x4E487B71 PUSH1 0xE0 SHL PUSH1 0x0 MSTORE PUSH1 0x41 PUSH1 0x4 MSTORE PUSH1 0x24 PUSH1 0x0 REVERT JUMPDEST PUSH1 0x0 DUP1 PUSH1 0x0 DUP1 PUSH1 0x0 DUP1 PUSH1 0x0 DUP1 PUSH2 0x100 DUP10 DUP12 SUB SLT ISZERO PUSH2 0x10C JUMPI PUSH1 0x0 DUP1 REVERT JUMPDEST PUSH2 0x115 DUP10 PUSH2 0xBD JUMP JUMPDEST SWAP8 POP PUSH2 0x123 PUSH1 0x20 DUP11 ADD PUSH2 0xBD JUMP JUMPDEST SWAP7 POP PUSH2 0x131 PUSH1 0x40 DUP11 ADD PUSH2 0xBD JUMP JUMPDEST SWAP6 POP PUSH1 0x60 DUP10 ADD CALLDATALOAD SWAP5 POP PUSH1 0x80 DUP10 ADD CALLDATALOAD SWAP4 POP PUSH1 0xA0 DUP10 ADD CALLDATALOAD PUSH8 0xFFFFFFFFFFFFFFFF DUP1 DUP3 GT ISZERO PUSH2 0x15C JUMPI PUSH1 0x0 DUP1 REVERT JUMPDEST DUP2 DUP12 ADD SWAP2 POP DUP12 PUSH1 0x1F DUP4 ADD SLT PUSH2 0x170 JUMPI PUSH1 0x0 DUP1 REVERT JUMPDEST DUP2 CALLDATALOAD DUP2 DUP2 GT ISZERO PUSH2 0x182 JUMPI PUSH2 0x182 PUSH2 0xD9 JUMP JUMPDEST PUSH1 0x40 MLOAD PUSH1 0x1F DUP3 ADD PUSH1 0x1F NOT SWAP1 DUP2 AND PUSH1 0x3F ADD AND DUP2 ADD SWAP1 DUP4 DUP3 GT DUP2 DUP4 LT OR ISZERO PUSH2 0x1AA JUMPI PUSH2 0x1AA PUSH2 0xD9 JUMP JUMPDEST DUP2 PUSH1 0x40 MSTORE DUP3 DUP2 MSTORE DUP15 PUSH1 0x20 DUP5 DUP8 ADD ADD GT ISZERO PUSH2 0x1C3 JUMPI PUSH1 0x0 DUP1 REVERT JUMPDEST DUP3 PUSH1 0x20 DUP7 ADD PUSH1 0x20 DUP4 ADD CALLDATACOPY PUSH1 0x0 PUSH1 0x20 DUP5 DUP4 ADD ADD MSTORE DUP1 SWAP8 POP POP POP POP POP POP PUSH1 0xC0 DUP10 ADD CALLDATALOAD SWAP2 POP PUSH1 0xE0 DUP10 ADD CALLDATALOAD SWAP1 POP SWAP3 SWAP6 SWAP9 POP SWAP3 SWAP6 SWAP9 SWAP1 SWAP4 SWAP7 POP JUMP JUMPDEST PUSH1 0x0 PUSH2 0x100 PUSH1 0x1 DUP1 PUSH1 0xA0 SHL SUB DUP1 DUP13 AND DUP5 MSTORE PUSH1 0x20 DUP2 DUP13 AND DUP2 DUP7 ADD MSTORE DUP2 DUP12 AND PUSH1 0x40 DUP7 ADD MSTORE DUP10 PUSH1 0x60 DUP7 ADD MSTORE DUP9 PUSH1 0x80 DUP7 ADD MSTORE DUP3 PUSH1 0xA0 DUP7 ADD MSTORE DUP8 MLOAD SWAP2 POP DUP2 DUP4 DUP7 ADD MSTORE PUSH1 0x0 SWAP3 POP JUMPDEST DUP2 DUP4 LT ISZERO PUSH2 0x25A JUMPI DUP8 DUP4 ADD DUP2 ADD MLOAD DUP6 DUP5 ADD PUSH2 0x120 ADD MSTORE SWAP2 DUP3 ADD SWAP2 PUSH2 0x23B JUMP JUMPDEST POP PUSH1 0x0 PUSH2 0x120 DUP3 DUP7 ADD DUP2 ADD SWAP2 SWAP1 SWAP2 MSTORE PUSH1 0xC0 DUP6 ADD SWAP7 SWAP1 SWAP7 MSTORE PUSH1 0xE0 DUP5 ADD SWAP5 SWAP1 SWAP5 MSTORE POP POP PUSH1 0x1F SWAP1 SWAP2 ADD PUSH1 0x1F NOT AND ADD ADD SWAP7 SWAP6 POP POP POP POP POP POP JUMP INVALID PUSH1 0x80 PUSH1 0x40 MSTORE CALLVALUE DUP1 ISZERO PUSH3 0x11 JUMPI PUSH1 0x0 DUP1 REVERT JUMPDEST POP PUSH1 0x40 MLOAD PUSH3 0x2CD8 CODESIZE SUB DUP1 PUSH3 0x2CD8 DUP4 CODECOPY DUP2 ADD PUSH1 0x40 DUP2 SWAP1 MSTORE PUSH3 0x34 SWAP2 PUSH3 0x39C JUMP JUMPDEST PUSH1 0x1 PUSH1 0x1 PUSH1 0xA0 SHL SUB DUP8 AND PUSH3 0x90 JUMPI PUSH1 0x40 MLOAD PUSH3 0x461BCD PUSH1 0xE5 SHL DUP2 MSTORE PUSH1 0x20 PUSH1 0x4 DUP3 ADD MSTORE PUSH1 0x1E PUSH1 0x24 DUP3 ADD MSTORE PUSH32 0x4572726F723A20496E76616C6964204169726C696E6520616464726573730000 PUSH1 0x44 DUP3 ADD MSTORE PUSH1 0x64 ADD JUMPDEST PUSH1 0x40 MLOAD DUP1 SWAP2 SUB SWAP1 REVERT JUMPDEST PUSH1 0x1 PUSH1 0x1 PUSH1 0xA0 SHL SUB DUP7 AND PUSH3 0xE8 JUMPI PUSH1 0x40 MLOAD PUSH3 0x461BCD PUSH1 0xE5 SHL DUP2 MSTORE PUSH1 0x20 PUSH1 0x4 DUP3 ADD DUP2 SWAP1 MSTORE PUSH1 0x24 DUP3 ADD MSTORE PUSH32 0x4572726F723A20496E76616C69646520437573746F6D65722061646472657373 PUSH1 0x44 DUP3 ADD MSTORE PUSH1 0x64 ADD PUSH3 0x87 JUMP JUMPDEST PUSH1 0x0 DUP6 GT PUSH3 0x13A JUMPI PUSH1 0x40 MLOAD PUSH3 0x461BCD PUSH1 0xE5 SHL DUP2 MSTORE PUSH1 0x20 PUSH1 0x4 DUP3 ADD MSTORE PUSH1 0x17 PUSH1 0x24 DUP3 ADD MSTORE PUSH32 0x4572726F723A20496E76616C6964205469636B65742023000000000000000000 PUSH1 0x44 DUP3 ADD MSTORE PUSH1 0x64 ADD PUSH3 0x87 JUMP JUMPDEST PUSH1 0x0 DUP5 GT PUSH3 0x18C JUMPI PUSH1 0x40 MLOAD PUSH3 0x461BCD PUSH1 0xE5 SHL DUP2 MSTORE PUSH1 0x20 PUSH1 0x4 DUP3 ADD MSTORE PUSH1 0x17 PUSH1 0x24 DUP3 ADD MSTORE PUSH32 0x4572726F723A20496E76616C696420466C696768742023000000000000000000 PUSH1 0x44 DUP3 ADD MSTORE PUSH1 0x64 ADD PUSH3 0x87 JUMP JUMPDEST PUSH1 0x0 DUP3 GT PUSH3 0x1DE JUMPI PUSH1 0x40 MLOAD PUSH3 0x461BCD PUSH1 0xE5 SHL DUP2 MSTORE PUSH1 0x20 PUSH1 0x4 DUP3 ADD MSTORE PUSH1 0x1C PUSH1 0x24 DUP3 ADD MSTORE PUSH32 0x4572726F723A20496E76616C6964205469636B657420416D6F756E7400000000 PUSH1 0x44 DUP3 ADD MSTORE PUSH1 0x64 ADD PUSH3 0x87 JUMP JUMPDEST PUSH1 0x0 DUP1 SLOAD ADDRESS PUSH1 0x1 PUSH1 0x1 PUSH1 0xA0 SHL SUB NOT SWAP2 DUP3 AND OR DUP3 SSTORE PUSH1 0x2 DUP1 SLOAD DUP3 AND PUSH1 0x1 PUSH1 0x1 PUSH1 0xA0 SHL SUB DUP13 DUP2 AND SWAP2 DUP3 OR SWAP1 SWAP3 SSTORE PUSH1 0x3 DUP1 SLOAD DUP5 AND SWAP1 SWAP2 OR SWAP1 SSTORE PUSH1 0x4 DUP1 SLOAD SWAP1 SWAP3 AND DUP11 DUP3 AND OR SWAP1 SWAP2 SSTORE PUSH1 0x5 DUP1 SLOAD PUSH1 0x1 DUP10 SWAP1 SSTORE PUSH1 0x1 PUSH1 0xA0 SHL SWAP3 DUP11 AND PUSH1 0x1 PUSH1 0x1 PUSH1 0xA8 SHL SUB NOT SWAP1 SWAP2 AND OR SWAP2 SWAP1 SWAP2 OR PUSH1 0xFF PUSH1 0xA8 SHL NOT AND SWAP1 SSTORE TIMESTAMP PUSH1 0x6 SSTORE PUSH1 0x9 DUP1 SLOAD PUSH1 0xFF NOT AND SWAP1 SSTORE PUSH1 0x40 DUP1 MLOAD PUSH2 0x120 DUP2 ADD DUP3 MSTORE DUP7 DUP2 MSTORE PUSH1 0x20 DUP2 ADD DUP7 SWAP1 MSTORE SWAP1 DUP2 ADD DUP5 SWAP1 MSTORE PUSH1 0x60 DUP2 ADD DUP3 SWAP1 MSTORE PUSH1 0x80 DUP2 ADD DUP3 SWAP1 MSTORE PUSH1 0xA0 DUP2 ADD DUP3 SWAP1 MSTORE PUSH1 0xC0 DUP2 ADD DUP3 SWAP1 MSTORE PUSH1 0xE0 DUP2 ADD SWAP2 SWAP1 SWAP2 MSTORE PUSH2 0x100 DUP2 ADD DUP3 SWAP1 MSTORE PUSH1 0xA DUP6 DUP2 SSTORE PUSH1 0xB PUSH3 0x2B5 DUP7 DUP3 PUSH3 0x55F JUMP JUMPDEST POP PUSH1 0x40 DUP3 DUP2 ADD MLOAD PUSH1 0x2 DUP4 ADD SSTORE PUSH1 0x60 DUP4 ADD MLOAD PUSH1 0x3 DUP4 ADD SSTORE PUSH1 0x80 DUP4 ADD MLOAD PUSH1 0x4 DUP4 ADD SSTORE PUSH1 0xA0 DUP4 ADD MLOAD PUSH1 0x5 DUP4 ADD SSTORE PUSH1 0xC0 DUP4 ADD MLOAD PUSH1 0x6 DUP4 ADD SSTORE PUSH1 0xE0 DUP4 ADD MLOAD PUSH1 0x7 DUP4 ADD SSTORE PUSH2 0x100 SWAP1 SWAP3 ADD MLOAD PUSH1 0x8 SWAP1 SWAP2 ADD SSTORE MLOAD ADDRESS SWAP1 PUSH32 0xD1802B86A0633C4679107D4313BAEACAB2FB7391348CA6485DF3F40844B0B07 SWAP1 PUSH3 0x353 SWAP1 PUSH1 0x20 DUP1 DUP3 MSTORE PUSH1 0xF SWAP1 DUP3 ADD MSTORE PUSH15 0x151A58DAD95D0810DBDB9D1C9858DD PUSH1 0x8A SHL PUSH1 0x40 DUP3 ADD MSTORE PUSH1 0x60 ADD SWAP1 JUMP JUMPDEST PUSH1 0x40 MLOAD DUP1 SWAP2 SUB SWAP1 LOG2 POP POP POP POP POP POP POP POP PUSH3 0x62B JUMP JUMPDEST DUP1 MLOAD PUSH1 0x1 PUSH1 0x1 PUSH1 0xA0 SHL SUB DUP2 AND DUP2 EQ PUSH3 0x381 JUMPI PUSH1 0x0 DUP1 REVERT JUMPDEST SWAP2 SWAP1 POP JUMP JUMPDEST PUSH4 0x4E487B71 PUSH1 0xE0 SHL PUSH1 0x0 MSTORE PUSH1 0x41 PUSH1 0x4 MSTORE PUSH1 0x24 PUSH1 0x0 REVERT JUMPDEST PUSH1 0x0 DUP1 PUSH1 0x0 DUP1 PUSH1 0x0 DUP1 PUSH1 0x0 DUP1 PUSH2 0x100 DUP10 DUP12 SUB SLT ISZERO PUSH3 0x3BA JUMPI PUSH1 0x0 DUP1 REVERT JUMPDEST PUSH3 0x3C5 DUP10 PUSH3 0x369 JUMP JUMPDEST SWAP8 POP PUSH1 0x20 PUSH3 0x3D6 DUP2 DUP12 ADD PUSH3 0x369 JUMP JUMPDEST SWAP8 POP PUSH3 0x3E6 PUSH1 0x40 DUP12 ADD PUSH3 0x369 JUMP JUMPDEST PUSH1 0x60 DUP12 ADD MLOAD PUSH1 0x80 DUP13 ADD MLOAD PUSH1 0xA0 DUP14 ADD MLOAD SWAP3 SWAP10 POP SWAP1 SWAP8 POP SWAP6 POP PUSH1 0x1 PUSH1 0x1 PUSH1 0x40 SHL SUB DUP1 DUP3 GT ISZERO PUSH3 0x413 JUMPI PUSH1 0x0 DUP1 REVERT JUMPDEST DUP2 DUP13 ADD SWAP2 POP DUP13 PUSH1 0x1F DUP4 ADD SLT PUSH3 0x428 JUMPI PUSH1 0x0 DUP1 REVERT JUMPDEST DUP2 MLOAD DUP2 DUP2 GT ISZERO PUSH3 0x43D JUMPI PUSH3 0x43D PUSH3 0x386 JUMP JUMPDEST PUSH1 0x40 MLOAD PUSH1 0x1F DUP3 ADD PUSH1 0x1F NOT SWAP1 DUP2 AND PUSH1 0x3F ADD AND DUP2 ADD SWAP1 DUP4 DUP3 GT DUP2 DUP4 LT OR ISZERO PUSH3 0x468 JUMPI PUSH3 0x468 PUSH3 0x386 JUMP JUMPDEST DUP2 PUSH1 0x40 MSTORE DUP3 DUP2 MSTORE DUP16 DUP7 DUP5 DUP8 ADD ADD GT ISZERO PUSH3 0x481 JUMPI PUSH1 0x0 DUP1 REVERT JUMPDEST PUSH1 0x0 SWAP4 POP JUMPDEST DUP3 DUP5 LT ISZERO PUSH3 0x4A5 JUMPI DUP5 DUP5 ADD DUP7 ADD MLOAD DUP2 DUP6 ADD DUP8 ADD MSTORE SWAP3 DUP6 ADD SWAP3 PUSH3 0x486 JUMP JUMPDEST PUSH1 0x0 SWAP3 DUP2 ADD SWAP1 SWAP6 ADD SWAP2 SWAP1 SWAP2 MSTORE POP POP POP PUSH1 0xC0 DUP11 ADD MLOAD PUSH1 0xE0 SWAP1 SWAP11 ADD MLOAD SWAP9 SWAP12 SWAP8 SWAP11 POP SWAP6 SWAP9 SWAP5 SWAP8 SWAP4 SWAP7 SWAP3 POP POP POP JUMP JUMPDEST PUSH1 0x1 DUP2 DUP2 SHR SWAP1 DUP3 AND DUP1 PUSH3 0x4E5 JUMPI PUSH1 0x7F DUP3 AND SWAP2 POP JUMPDEST PUSH1 0x20 DUP3 LT DUP2 SUB PUSH3 0x506 JUMPI PUSH4 0x4E487B71 PUSH1 0xE0 SHL PUSH1 0x0 MSTORE PUSH1 0x22 PUSH1 0x4 MSTORE PUSH1 0x24 PUSH1 0x0 REVERT JUMPDEST POP SWAP2 SWAP1 POP JUMP JUMPDEST PUSH1 0x1F DUP3 GT ISZERO PUSH3 0x55A JUMPI PUSH1 0x0 DUP2 DUP2 MSTORE PUSH1 0x20 DUP2 KECCAK256 PUSH1 0x1F DUP6 ADD PUSH1 0x5 SHR DUP2 ADD PUSH1 0x20 DUP7 LT ISZERO PUSH3 0x535 JUMPI POP DUP1 JUMPDEST PUSH1 0x1F DUP6 ADD PUSH1 0x5 SHR DUP3 ADD SWAP2 POP JUMPDEST DUP2 DUP2 LT ISZERO PUSH3 0x556 JUMPI DUP3 DUP2 SSTORE PUSH1 0x1 ADD PUSH3 0x541 JUMP JUMPDEST POP POP POP JUMPDEST POP POP POP JUMP JUMPDEST DUP2 MLOAD PUSH1 0x1 PUSH1 0x1 PUSH1 0x40 SHL SUB DUP2 GT ISZERO PUSH3 0x57B JUMPI PUSH3 0x57B PUSH3 0x386 JUMP JUMPDEST PUSH3 0x593 DUP2 PUSH3 0x58C DUP5 SLOAD PUSH3 0x4D0 JUMP JUMPDEST DUP5 PUSH3 0x50C JUMP JUMPDEST PUSH1 0x20 DUP1 PUSH1 0x1F DUP4 GT PUSH1 0x1 DUP2 EQ PUSH3 0x5CB JUMPI PUSH1 0x0 DUP5 ISZERO PUSH3 0x5B2 JUMPI POP DUP6 DUP4 ADD MLOAD JUMPDEST PUSH1 0x0 NOT PUSH1 0x3 DUP7 SWAP1 SHL SHR NOT AND PUSH1 0x1 DUP6 SWAP1 SHL OR DUP6 SSTORE PUSH3 0x556 JUMP JUMPDEST PUSH1 0x0 DUP6 DUP2 MSTORE PUSH1 0x20 DUP2 KECCAK256 PUSH1 0x1F NOT DUP7 AND SWAP2 JUMPDEST DUP3 DUP2 LT ISZERO PUSH3 0x5FC JUMPI DUP9 DUP7 ADD MLOAD DUP3 SSTORE SWAP5 DUP5 ADD SWAP5 PUSH1 0x1 SWAP1 SWAP2 ADD SWAP1 DUP5 ADD PUSH3 0x5DB JUMP JUMPDEST POP DUP6 DUP3 LT ISZERO PUSH3 0x61B JUMPI DUP8 DUP6 ADD MLOAD PUSH1 0x0 NOT PUSH1 0x3 DUP9 SWAP1 SHL PUSH1 0xF8 AND SHR NOT AND DUP2 SSTORE JUMPDEST POP POP POP POP POP PUSH1 0x1 SWAP1 DUP2 SHL ADD SWAP1 SSTORE POP JUMP JUMPDEST PUSH2 0x269D DUP1 PUSH3 0x63B PUSH1 0x0 CODECOPY PUSH1 0x0 RETURN INVALID PUSH1 0x80 PUSH1 0x40 MSTORE PUSH1 0x4 CALLDATASIZE LT PUSH2 0x55 JUMPI PUSH1 0x0 CALLDATALOAD PUSH1 0xE0 SHR DUP1 PUSH4 0x15285527 EQ PUSH2 0x5A JUMPI DUP1 PUSH4 0x28700E6E EQ PUSH2 0x71 JUMPI DUP1 PUSH4 0x801C86F5 EQ PUSH2 0x99 JUMPI DUP1 PUSH4 0xB5545A3C EQ PUSH2 0xB9 JUMPI DUP1 PUSH4 0xCA36385C EQ PUSH2 0xC1 JUMPI DUP1 PUSH4 0xD16C2CBA EQ PUSH2 0xD7 JUMPI JUMPDEST PUSH1 0x0 DUP1 REVERT JUMPDEST CALLVALUE DUP1 ISZERO PUSH2 0x66 JUMPI PUSH1 0x0 DUP1 REVERT JUMPDEST POP PUSH2 0x6F PUSH2 0xDF JUMP JUMPDEST STOP JUMPDEST PUSH2 0x84 PUSH2 0x7F CALLDATASIZE PUSH1 0x4 PUSH2 0x1EFC JUMP JUMPDEST PUSH2 0x1F3 JUMP JUMPDEST PUSH1 0x40 MLOAD SWAP1 ISZERO ISZERO DUP2 MSTORE PUSH1 0x20 ADD JUMPDEST PUSH1 0x40 MLOAD DUP1 SWAP2 SUB SWAP1 RETURN JUMPDEST CALLVALUE DUP1 ISZERO PUSH2 0xA5 JUMPI PUSH1 0x0 DUP1 REVERT JUMPDEST POP PUSH2 0x84 PUSH2 0xB4 CALLDATASIZE PUSH1 0x4 PUSH2 0x1FA6 JUMP JUMPDEST PUSH2 0x791 JUMP JUMPDEST PUSH2 0x84 PUSH2 0x852 JUMP JUMPDEST PUSH2 0xC9 PUSH2 0xF8A JUMP JUMPDEST PUSH1 0x40 MLOAD PUSH2 0x90 SWAP3 SWAP2 SWAP1 PUSH2 0x2076 JUMP JUMPDEST PUSH2 0x84 PUSH2 0x15F3 JUMP JUMPDEST PUSH1 0x4 SLOAD PUSH1 0x1 PUSH1 0x1 PUSH1 0xA0 SHL SUB AND CALLER EQ DUP1 PUSH2 0x102 JUMPI POP PUSH1 0x5 SLOAD PUSH1 0x1 PUSH1 0x1 PUSH1 0xA0 SHL SUB AND CALLER EQ JUMPDEST PUSH2 0x16F JUMPI PUSH1 0x40 MLOAD PUSH3 0x461BCD PUSH1 0xE5 SHL DUP2 MSTORE PUSH1 0x20 PUSH1 0x4 DUP3 ADD MSTORE PUSH1 0x33 PUSH1 0x24 DUP3 ADD MSTORE PUSH32 0x4F6E6C79204169726C696E6520466C69676874204F70657261746F72202F2054 PUSH1 0x44 DUP3 ADD MSTORE PUSH19 0x1A58DAD95D08109D5E595C88185B1B1BDDD959 PUSH1 0x6A SHL PUSH1 0x64 DUP3 ADD MSTORE PUSH1 0x84 ADD JUMPDEST PUSH1 0x40 MLOAD DUP1 SWAP2 SUB SWAP1 REVERT JUMPDEST PUSH1 0x5 SLOAD PUSH1 0x0 SWAP1 PUSH2 0x188 SWAP1 PUSH1 0x1 PUSH1 0xA0 SHL SWAP1 DIV PUSH1 0xFF AND PUSH2 0x18CB JUMP JUMPDEST PUSH1 0x5 SLOAD SWAP1 SWAP2 POP PUSH1 0x0 SWAP1 PUSH2 0x1A4 SWAP1 PUSH1 0x1 PUSH1 0xA8 SHL SWAP1 DIV PUSH1 0xFF AND PUSH2 0x19BB JUMP JUMPDEST PUSH1 0x1 SLOAD PUSH1 0xA SLOAD PUSH1 0xD SLOAD PUSH1 0x40 MLOAD SWAP4 SWAP5 POP PUSH32 0x7F9534BAE335130D7523BED94596C5942B70A305E742E8064AF42F87AE7DAD84 SWAP4 PUSH2 0x1E7 SWAP4 SWAP3 SWAP2 PUSH1 0xB SWAP2 DUP9 SWAP2 DUP9 SWAP2 PUSH2 0x20C5 JUMP JUMPDEST PUSH1 0x40 MLOAD DUP1 SWAP2 SUB SWAP1 LOG1 POP POP JUMP JUMPDEST PUSH1 0x2 SLOAD PUSH1 0x0 SWAP1 PUSH1 0x1 PUSH1 0x1 PUSH1 0xA0 SHL SUB AND CALLER EQ PUSH2 0x250 JUMPI PUSH1 0x40 MLOAD PUSH3 0x461BCD PUSH1 0xE5 SHL DUP2 MSTORE PUSH1 0x20 PUSH1 0x4 DUP3 ADD MSTORE PUSH1 0x1D PUSH1 0x24 DUP3 ADD MSTORE PUSH32 0x4F6E6C79204169726C696E6520436F6E747261637420616C6C6F776564000000 PUSH1 0x44 DUP3 ADD MSTORE PUSH1 0x64 ADD PUSH2 0x166 JUMP JUMPDEST PUSH1 0x5 SLOAD TIMESTAMP SWAP1 PUSH1 0x1 PUSH1 0x1 PUSH1 0xA0 SHL SWAP1 SWAP2 DIV PUSH1 0xFF AND LT DUP1 ISZERO SWAP1 PUSH2 0x27E JUMPI POP PUSH1 0x5 SLOAD PUSH1 0x2 PUSH1 0x1 PUSH1 0xA0 SHL SWAP1 SWAP2 DIV PUSH1 0xFF AND GT ISZERO JUMPDEST PUSH2 0x2F0 JUMPI PUSH1 0x40 MLOAD PUSH3 0x461BCD PUSH1 0xE5 SHL DUP2 MSTORE PUSH1 0x20 PUSH1 0x4 DUP3 ADD MSTORE PUSH1 0x3E PUSH1 0x24 DUP3 ADD MSTORE PUSH32 0x4552523A2043616E6E6F7420636C6F73652064756520746F205469636B657420 PUSH1 0x44 DUP3 ADD MSTORE PUSH32 0x7374617475732028564F49442F434C4F5345442F43414E43454C4C4544290000 PUSH1 0x64 DUP3 ADD MSTORE PUSH1 0x84 ADD PUSH2 0x166 JUMP JUMPDEST PUSH1 0xFF DUP7 AND PUSH1 0x5 EQ DUP1 PUSH2 0x305 JUMPI POP PUSH1 0xFF DUP7 AND PUSH1 0x6 EQ JUMPDEST PUSH2 0x351 JUMPI PUSH1 0x40 MLOAD PUSH3 0x461BCD PUSH1 0xE5 SHL DUP2 MSTORE PUSH1 0x20 PUSH1 0x4 DUP3 ADD MSTORE PUSH1 0x1A PUSH1 0x24 DUP3 ADD MSTORE PUSH32 0x4552523A20496E76616C696420466C6967687420737461747573000000000000 PUSH1 0x44 DUP3 ADD MSTORE PUSH1 0x64 ADD PUSH2 0x166 JUMP JUMPDEST PUSH1 0x5 SLOAD PUSH1 0x0 NOT PUSH1 0x1 PUSH1 0xA0 SHL SWAP1 SWAP2 DIV PUSH1 0xFF AND ADD PUSH2 0x3D0 JUMPI PUSH1 0x5 DUP1 SLOAD PUSH1 0xFF PUSH1 0xA0 SHL NOT AND SWAP1 SSTORE PUSH1 0x7 DUP2 SWAP1 SSTORE PUSH1 0x1 SLOAD PUSH1 0x40 DUP1 MLOAD SWAP2 DUP3 MSTORE PUSH1 0x20 DUP3 ADD DUP2 SWAP1 MSTORE PUSH1 0xB DUP3 DUP3 ADD MSTORE PUSH11 0x1593D25108151A58DAD95D PUSH1 0xAA SHL PUSH1 0x60 DUP4 ADD MSTORE MLOAD PUSH32 0xDE76133B24D9FCAE5254A94BFA50B907D61B4EEB12F84FA63DE7378C63E068CA SWAP2 DUP2 SWAP1 SUB PUSH1 0x80 ADD SWAP1 LOG1 JUMPDEST PUSH1 0x9 SLOAD SELFBALANCE SWAP1 PUSH1 0xFF AND ISZERO DUP1 ISZERO PUSH2 0x3F1 JUMPI POP PUSH1 0x5 SLOAD PUSH1 0x1 PUSH1 0xA8 SHL SWAP1 DIV PUSH1 0xFF AND PUSH1 0x1 EQ JUMPDEST DUP1 PUSH2 0x3FC JUMPI POP PUSH1 0x0 DUP2 GT JUMPDEST ISZERO PUSH2 0x6DE JUMPI PUSH1 0x0 PUSH2 0x40F DUP9 DUP9 DUP9 DUP9 PUSH2 0x1A93 JUMP JUMPDEST SWAP1 POP PUSH1 0x0 DUP1 PUSH1 0x0 DUP1 PUSH1 0xA PUSH1 0x3 ADD SLOAD DUP7 GT ISZERO PUSH2 0x5A1 JUMPI PUSH1 0x0 PUSH2 0x432 DUP7 DUP15 PUSH1 0x0 PUSH2 0x1B2F JUMP JUMPDEST SWAP1 POP PUSH2 0x43F PUSH1 0x64 DUP3 PUSH2 0x21BB JUMP JUMPDEST PUSH2 0x44C SWAP1 PUSH1 0xFF AND DUP9 PUSH2 0x21DD JUMP JUMPDEST SWAP5 POP PUSH2 0x458 DUP6 DUP9 PUSH2 0x21F4 JUMP JUMPDEST SWAP4 POP DUP5 ISZERO PUSH2 0x4FA JUMPI PUSH1 0x5 SLOAD PUSH1 0x40 MLOAD PUSH1 0x1 PUSH1 0x1 PUSH1 0xA0 SHL SUB SWAP1 SWAP2 AND SWAP1 DUP7 SWAP1 PUSH1 0x0 DUP2 DUP2 DUP2 DUP6 DUP8 GAS CALL SWAP3 POP POP POP RETURNDATASIZE DUP1 PUSH1 0x0 DUP2 EQ PUSH2 0x4AD JUMPI PUSH1 0x40 MLOAD SWAP2 POP PUSH1 0x1F NOT PUSH1 0x3F RETURNDATASIZE ADD AND DUP3 ADD PUSH1 0x40 MSTORE RETURNDATASIZE DUP3 MSTORE RETURNDATASIZE PUSH1 0x0 PUSH1 0x20 DUP5 ADD RETURNDATACOPY PUSH2 0x4B2 JUMP JUMPDEST PUSH1 0x60 SWAP2 POP JUMPDEST POP POP DUP1 SWAP4 POP POP DUP3 PUSH2 0x4FA JUMPI PUSH1 0x40 MLOAD PUSH3 0x461BCD PUSH1 0xE5 SHL DUP2 MSTORE PUSH1 0x20 PUSH1 0x4 DUP3 ADD MSTORE PUSH1 0x12 PUSH1 0x24 DUP3 ADD MSTORE PUSH18 0x1154948E881499599D5B990819985A5B1959 PUSH1 0x72 SHL PUSH1 0x44 DUP3 ADD MSTORE PUSH1 0x64 ADD PUSH2 0x166 JUMP JUMPDEST DUP4 ISZERO PUSH2 0x59B JUMPI PUSH1 0x4 SLOAD PUSH1 0x40 MLOAD PUSH1 0x1 PUSH1 0x1 PUSH1 0xA0 SHL SUB SWAP1 SWAP2 AND SWAP1 DUP6 SWAP1 PUSH1 0x0 DUP2 DUP2 DUP2 DUP6 DUP8 GAS CALL SWAP3 POP POP POP RETURNDATASIZE DUP1 PUSH1 0x0 DUP2 EQ PUSH2 0x54D JUMPI PUSH1 0x40 MLOAD SWAP2 POP PUSH1 0x1F NOT PUSH1 0x3F RETURNDATASIZE ADD AND DUP3 ADD PUSH1 0x40 MSTORE RETURNDATASIZE DUP3 MSTORE RETURNDATASIZE PUSH1 0x0 PUSH1 0x20 DUP5 ADD RETURNDATACOPY PUSH2 0x552 JUMP JUMPDEST PUSH1 0x60 SWAP2 POP JUMPDEST POP POP DUP1 SWAP3 POP POP DUP2 PUSH2 0x59B JUMPI PUSH1 0x40 MLOAD PUSH3 0x461BCD PUSH1 0xE5 SHL DUP2 MSTORE PUSH1 0x20 PUSH1 0x4 DUP3 ADD MSTORE PUSH1 0x13 PUSH1 0x24 DUP3 ADD MSTORE PUSH19 0x1154948E8814185E5B595B9D0819985A5B1959 PUSH1 0x6A SHL PUSH1 0x44 DUP3 ADD MSTORE PUSH1 0x64 ADD PUSH2 0x166 JUMP JUMPDEST POP PUSH2 0x5F9 JUMP JUMPDEST PUSH1 0x40 MLOAD PUSH3 0x461BCD PUSH1 0xE5 SHL DUP2 MSTORE PUSH1 0x20 PUSH1 0x4 DUP3 ADD MSTORE PUSH1 0x27 PUSH1 0x24 DUP3 ADD MSTORE PUSH32 0x4552523A20496E73756666696369656E742066756E647320746F20636C6F7365 PUSH1 0x44 DUP3 ADD MSTORE PUSH7 0x81D1A58DAD95D PUSH1 0xCA SHL PUSH1 0x64 DUP3 ADD MSTORE PUSH1 0x84 ADD PUSH2 0x166 JUMP JUMPDEST DUP2 DUP1 PUSH2 0x602 JUMPI POP DUP1 JUMPDEST PUSH2 0x64E JUMPI PUSH1 0x40 MLOAD PUSH3 0x461BCD PUSH1 0xE5 SHL DUP2 MSTORE PUSH1 0x20 PUSH1 0x4 DUP3 ADD MSTORE PUSH1 0x18 PUSH1 0x24 DUP3 ADD MSTORE PUSH32 0x4552523A20436C6F7365205469636B6574206661696C65640000000000000000 PUSH1 0x44 DUP3 ADD MSTORE PUSH1 0x64 ADD PUSH2 0x166 JUMP JUMPDEST PUSH1 0x8 DUP8 SWAP1 SSTORE DUP4 ISZERO DUP1 ISZERO SWAP1 PUSH2 0x662 JUMPI POP PUSH1 0x0 DUP4 GT JUMPDEST ISZERO PUSH2 0x67F JUMPI PUSH1 0x5 DUP1 SLOAD PUSH1 0xFF PUSH1 0xA8 SHL NOT AND PUSH1 0x3 PUSH1 0xA8 SHL OR SWAP1 SSTORE PUSH2 0x6D1 JUMP JUMPDEST PUSH1 0x0 DUP5 GT DUP1 ISZERO PUSH2 0x68D JUMPI POP DUP3 ISZERO JUMPDEST ISZERO PUSH2 0x6AA JUMPI PUSH1 0x5 DUP1 SLOAD PUSH1 0xFF PUSH1 0xA8 SHL NOT AND PUSH1 0x1 PUSH1 0xA9 SHL OR SWAP1 SSTORE PUSH2 0x6D1 JUMP JUMPDEST DUP4 ISZERO DUP1 ISZERO PUSH2 0x6B8 JUMPI POP PUSH1 0x0 DUP4 GT JUMPDEST ISZERO PUSH2 0x6D1 JUMPI PUSH1 0x5 DUP1 SLOAD PUSH1 0xFF PUSH1 0xA8 SHL NOT AND PUSH1 0x1 PUSH1 0xAA SHL OR SWAP1 SSTORE JUMPDEST POP POP PUSH1 0xE SWAP2 SWAP1 SWAP2 SSTORE PUSH1 0xF SSTORE POP JUMPDEST PUSH1 0x5 DUP1 SLOAD PUSH1 0xFF PUSH1 0xA0 SHL NOT AND PUSH1 0x3 PUSH1 0xA0 SHL OR SWAP1 SSTORE PUSH1 0x7 DUP3 SWAP1 SSTORE PUSH1 0x40 DUP1 MLOAD DUP1 DUP3 ADD SWAP1 SWAP2 MSTORE PUSH1 0x2 DUP2 MSTORE PUSH2 0x4E41 PUSH1 0xF0 SHL PUSH1 0x20 DUP3 ADD MSTORE PUSH1 0xB SWAP1 PUSH2 0x71C SWAP1 DUP3 PUSH2 0x2256 JUMP JUMPDEST POP PUSH1 0x1 SWAP3 POP PUSH32 0xDE76133B24D9FCAE5254A94BFA50B907D61B4EEB12F84FA63DE7378C63E068CA PUSH1 0x1 SLOAD PUSH1 0x40 MLOAD PUSH2 0x77F SWAP2 DUP2 MSTORE PUSH1 0x40 PUSH1 0x20 DUP3 ADD DUP2 SWAP1 MSTORE PUSH1 0x13 SWAP1 DUP3 ADD MSTORE PUSH19 0x12539193CE88151A58DAD95D0810DB1BDCD959 PUSH1 0x6A SHL PUSH1 0x60 DUP3 ADD MSTORE PUSH1 0x80 ADD SWAP1 JUMP JUMPDEST PUSH1 0x40 MLOAD DUP1 SWAP2 SUB SWAP1 LOG1 POP POP SWAP5 SWAP4 POP POP POP POP JUMP JUMPDEST PUSH1 0x5 SLOAD PUSH1 0x0 SWAP1 PUSH1 0x1 PUSH1 0x1 PUSH1 0xA0 SHL SUB AND CALLER EQ PUSH2 0x7BE JUMPI PUSH1 0x40 MLOAD PUSH3 0x461BCD PUSH1 0xE5 SHL DUP2 MSTORE PUSH1 0x4 ADD PUSH2 0x166 SWAP1 PUSH2 0x2316 JUMP JUMPDEST PUSH1 0x3 SLOAD PUSH1 0x0 SLOAD PUSH1 0x40 MLOAD PUSH4 0x2EB8A88B PUSH1 0xE0 SHL DUP2 MSTORE PUSH1 0x1 PUSH1 0x1 PUSH1 0xA0 SHL SUB SWAP3 DUP4 AND SWAP3 PUSH4 0x2EB8A88B SWAP3 PUSH2 0x7F4 SWAP3 SWAP2 AND SWAP1 DUP7 SWAP1 PUSH1 0x4 ADD PUSH2 0x234D JUMP JUMPDEST PUSH1 0x20 PUSH1 0x40 MLOAD DUP1 DUP4 SUB DUP2 PUSH1 0x0 DUP8 GAS CALL ISZERO DUP1 ISZERO PUSH2 0x813 JUMPI RETURNDATASIZE PUSH1 0x0 DUP1 RETURNDATACOPY RETURNDATASIZE PUSH1 0x0 REVERT JUMPDEST POP POP POP POP PUSH1 0x40 MLOAD RETURNDATASIZE PUSH1 0x1F NOT PUSH1 0x1F DUP3 ADD AND DUP3 ADD DUP1 PUSH1 0x40 MSTORE POP DUP2 ADD SWAP1 PUSH2 0x837 SWAP2 SWAP1 PUSH2 0x2381 JUMP JUMPDEST SWAP1 POP DUP1 ISZERO PUSH2 0x84D JUMPI PUSH1 0xB PUSH2 0x84B DUP4 DUP3 PUSH2 0x2256 JUMP JUMPDEST POP JUMPDEST SWAP2 SWAP1 POP JUMP JUMPDEST PUSH1 0x5 SLOAD PUSH1 0x0 SWAP1 PUSH1 0x1 PUSH1 0x1 PUSH1 0xA0 SHL SUB AND CALLER EQ PUSH2 0x87F JUMPI PUSH1 0x40 MLOAD PUSH3 0x461BCD PUSH1 0xE5 SHL DUP2 MSTORE PUSH1 0x4 ADD PUSH2 0x166 SWAP1 PUSH2 0x2316 JUMP JUMPDEST PUSH1 0x9 SLOAD PUSH1 0xFF AND ISZERO PUSH2 0x8DE JUMPI PUSH1 0x40 MLOAD PUSH3 0x461BCD PUSH1 0xE5 SHL DUP2 MSTORE PUSH1 0x20 PUSH1 0x4 DUP3 ADD MSTORE PUSH1 0x23 PUSH1 0x24 DUP3 ADD MSTORE PUSH32 0x4552523A20526566756E6420636C61696D20616C72656164792070726F636573 PUSH1 0x44 DUP3 ADD MSTORE PUSH3 0x1CD959 PUSH1 0xEA SHL PUSH1 0x64 DUP3 ADD MSTORE PUSH1 0x84 ADD PUSH2 0x166 JUMP JUMPDEST PUSH1 0x5 DUP1 SLOAD PUSH1 0x1 PUSH1 0xA0 SHL SWAP1 DIV PUSH1 0xFF AND GT PUSH2 0x939 JUMPI PUSH1 0x40 MLOAD PUSH3 0x461BCD PUSH1 0xE5 SHL DUP2 MSTORE PUSH1 0x20 PUSH1 0x4 DUP3 ADD MSTORE PUSH1 0x1D PUSH1 0x24 DUP3 ADD MSTORE PUSH32 0x4552523A205469636B657420616C72656164792043616E63656C6C6564000000 PUSH1 0x44 DUP3 ADD MSTORE PUSH1 0x64 ADD PUSH2 0x166 JUMP JUMPDEST PUSH1 0x5 SLOAD PUSH1 0x3 NOT PUSH1 0x1 PUSH1 0xA0 SHL SWAP1 SWAP2 DIV PUSH1 0xFF AND ADD PUSH2 0x9A7 JUMPI PUSH1 0x40 MLOAD PUSH3 0x461BCD PUSH1 0xE5 SHL DUP2 MSTORE PUSH1 0x20 PUSH1 0x4 DUP3 ADD MSTORE PUSH1 0x27 PUSH1 0x24 DUP3 ADD MSTORE PUSH32 0x4552523A205469636B65742043414E43454C4C4154494F4E20697320696E2070 PUSH1 0x44 DUP3 ADD MSTORE PUSH7 0x726F6772657373 PUSH1 0xC8 SHL PUSH1 0x64 DUP3 ADD MSTORE PUSH1 0x84 ADD PUSH2 0x166 JUMP JUMPDEST PUSH1 0x5 SLOAD PUSH1 0x1 PUSH1 0xA8 SHL SWAP1 DIV PUSH1 0xFF AND PUSH1 0x1 EQ PUSH2 0xA03 JUMPI PUSH1 0x40 MLOAD PUSH3 0x461BCD PUSH1 0xE5 SHL DUP2 MSTORE PUSH1 0x20 PUSH1 0x4 DUP3 ADD MSTORE PUSH1 0x1A PUSH1 0x24 DUP3 ADD MSTORE PUSH32 0x4552523A20526566756E64206E6F74206170706C696361626C65000000000000 PUSH1 0x44 DUP3 ADD MSTORE PUSH1 0x64 ADD PUSH2 0x166 JUMP JUMPDEST PUSH1 0x3 SLOAD PUSH1 0xA SLOAD PUSH1 0x40 MLOAD PUSH4 0x50E20D77 PUSH1 0xE0 SHL DUP2 MSTORE PUSH1 0x4 DUP2 ADD SWAP2 SWAP1 SWAP2 MSTORE TIMESTAMP SWAP2 PUSH1 0x0 SWAP2 DUP3 SWAP2 DUP3 SWAP2 DUP3 SWAP2 PUSH1 0x1 PUSH1 0x1 PUSH1 0xA0 SHL SUB AND SWAP1 PUSH4 0x50E20D77 SWAP1 PUSH1 0x24 ADD PUSH1 0xC0 PUSH1 0x40 MLOAD DUP1 DUP4 SUB DUP2 DUP7 GAS STATICCALL ISZERO DUP1 ISZERO PUSH2 0xA59 JUMPI RETURNDATASIZE PUSH1 0x0 DUP1 RETURNDATACOPY RETURNDATASIZE PUSH1 0x0 REVERT JUMPDEST POP POP POP POP PUSH1 0x40 MLOAD RETURNDATASIZE PUSH1 0x1F NOT PUSH1 0x1F DUP3 ADD AND DUP3 ADD DUP1 PUSH1 0x40 MSTORE POP DUP2 ADD SWAP1 PUSH2 0xA7D SWAP2 SWAP1 PUSH2 0x239C JUMP JUMPDEST SWAP6 POP POP SWAP5 POP POP SWAP4 POP SWAP4 POP PUSH1 0x3C PUSH1 0x18 PUSH2 0xA95 SWAP2 SWAP1 PUSH2 0x21DD JUMP JUMPDEST PUSH2 0xA9F DUP5 DUP8 PUSH2 0x21F4 JUMP JUMPDEST LT ISZERO PUSH2 0xAF9 JUMPI PUSH1 0x40 MLOAD PUSH3 0x461BCD PUSH1 0xE5 SHL DUP2 MSTORE PUSH1 0x20 PUSH1 0x4 DUP3 ADD MSTORE PUSH1 0x23 PUSH1 0x24 DUP3 ADD MSTORE PUSH32 0x4552523A205469636B6574206E6F7420656C6C696769626C6520666F7220636C PUSH1 0x44 DUP3 ADD MSTORE PUSH3 0x61696D PUSH1 0xE8 SHL PUSH1 0x64 DUP3 ADD MSTORE PUSH1 0x84 ADD PUSH2 0x166 JUMP JUMPDEST PUSH1 0x0 PUSH2 0xB07 DUP6 DUP6 DUP6 DUP6 PUSH2 0x1A93 JUMP JUMPDEST SWAP1 POP PUSH1 0x0 PUSH2 0xB17 DUP3 DUP8 PUSH1 0x0 PUSH2 0x1B2F JUMP JUMPDEST SWAP1 POP PUSH1 0x0 DUP2 PUSH1 0xFF AND GT PUSH2 0xB6C JUMPI PUSH1 0x40 MLOAD PUSH3 0x461BCD PUSH1 0xE5 SHL DUP2 MSTORE PUSH1 0x20 PUSH1 0x4 DUP3 ADD MSTORE PUSH1 0x17 PUSH1 0x24 DUP3 ADD MSTORE PUSH32 0x4552523A20436C61696D206973206E6F742076616C6964000000000000000000 PUSH1 0x44 DUP3 ADD MSTORE PUSH1 0x64 ADD PUSH2 0x166 JUMP JUMPDEST PUSH1 0x0 PUSH2 0xB79 PUSH1 0x64 DUP4 PUSH2 0x21BB JUMP JUMPDEST PUSH1 0xD SLOAD PUSH2 0xB89 SWAP2 PUSH1 0xFF AND SWAP1 PUSH2 0x21DD JUMP JUMPDEST SWAP1 POP PUSH1 0x0 DUP2 PUSH1 0xA PUSH1 0x3 ADD SLOAD PUSH2 0xB9E SWAP2 SWAP1 PUSH2 0x21F4 JUMP JUMPDEST PUSH1 0xD SLOAD SWAP1 SWAP2 POP PUSH1 0x0 SWAP1 DUP2 SWAP1 SELFBALANCE SWAP1 DUP2 GT ISZERO PUSH2 0xD6D JUMPI PUSH2 0xBBD PUSH1 0x64 DUP8 PUSH2 0x21BB JUMP JUMPDEST PUSH1 0xD SLOAD PUSH2 0xBCD SWAP2 PUSH1 0xFF AND SWAP1 PUSH2 0x21DD JUMP JUMPDEST PUSH1 0xD SLOAD SWAP1 SWAP6 POP PUSH2 0xBDE SWAP1 DUP7 SWAP1 PUSH2 0x21F4 JUMP JUMPDEST SWAP4 POP DUP5 ISZERO PUSH2 0xCA6 JUMPI PUSH1 0x5 SLOAD PUSH1 0x40 MLOAD PUSH1 0x1 PUSH1 0x1 PUSH1 0xA0 SHL SUB SWAP1 SWAP2 AND SWAP1 DUP7 SWAP1 PUSH1 0x0 DUP2 DUP2 DUP2 DUP6 DUP8 GAS CALL SWAP3 POP POP POP RETURNDATASIZE DUP1 PUSH1 0x0 DUP2 EQ PUSH2 0xC33 JUMPI PUSH1 0x40 MLOAD SWAP2 POP PUSH1 0x1F NOT PUSH1 0x3F RETURNDATASIZE ADD AND DUP3 ADD PUSH1 0x40 MSTORE RETURNDATASIZE DUP3 MSTORE RETURNDATASIZE PUSH1 0x0 PUSH1 0x20 DUP5 ADD RETURNDATACOPY PUSH2 0xC38 JUMP JUMPDEST PUSH1 0x60 SWAP2 POP JUMPDEST POP POP DUP1 SWAP4 POP POP DUP3 PUSH2 0xCA6 JUMPI PUSH1 0x40 MLOAD PUSH3 0x461BCD PUSH1 0xE5 SHL DUP2 MSTORE PUSH1 0x20 PUSH1 0x4 DUP3 ADD MSTORE PUSH1 0x32 PUSH1 0x24 DUP3 ADD MSTORE PUSH32 0x4552523A20526566756E642063616C6C206661696C65642E20436F6E74616374 PUSH1 0x44 DUP3 ADD MSTORE PUSH18 0x1031BAB9BA37B6B2B91039BAB83837B93A17 PUSH1 0x71 SHL PUSH1 0x64 DUP3 ADD MSTORE PUSH1 0x84 ADD PUSH2 0x166 JUMP JUMPDEST DUP4 ISZERO PUSH2 0xD68 JUMPI PUSH1 0x4 SLOAD PUSH1 0x40 MLOAD PUSH1 0x1 PUSH1 0x1 PUSH1 0xA0 SHL SUB SWAP1 SWAP2 AND SWAP1 DUP6 SWAP1 PUSH1 0x0 DUP2 DUP2 DUP2 DUP6 DUP8 GAS CALL SWAP3 POP POP POP RETURNDATASIZE DUP1 PUSH1 0x0 DUP2 EQ PUSH2 0xCF9 JUMPI PUSH1 0x40 MLOAD SWAP2 POP PUSH1 0x1F NOT PUSH1 0x3F RETURNDATASIZE ADD AND DUP3 ADD PUSH1 0x40 MSTORE RETURNDATASIZE DUP3 MSTORE RETURNDATASIZE PUSH1 0x0 PUSH1 0x20 DUP5 ADD RETURNDATACOPY PUSH2 0xCFE JUMP JUMPDEST PUSH1 0x60 SWAP2 POP JUMPDEST POP POP DUP1 SWAP3 POP POP DUP2 PUSH2 0xD68 JUMPI PUSH1 0x40 MLOAD PUSH3 0x461BCD PUSH1 0xE5 SHL DUP2 MSTORE PUSH1 0x20 PUSH1 0x4 DUP3 ADD MSTORE PUSH1 0x2E PUSH1 0x24 DUP3 ADD MSTORE PUSH32 0x4552523A205061796D656E74206661696C65642E20436F6E7461637420637573 PUSH1 0x44 DUP3 ADD MSTORE PUSH14 0x3A37B6B2B91039BAB83837B93A17 PUSH1 0x91 SHL PUSH1 0x64 DUP3 ADD MSTORE PUSH1 0x84 ADD PUSH2 0x166 JUMP JUMPDEST PUSH2 0xDE6 JUMP JUMPDEST PUSH1 0x40 MLOAD PUSH3 0x461BCD PUSH1 0xE5 SHL DUP2 MSTORE PUSH1 0x20 PUSH1 0x4 DUP3 ADD MSTORE PUSH1 0x42 PUSH1 0x24 DUP3 ADD MSTORE PUSH32 0x4552523A20496E73756666696369656E742066756E647320746F20736574746C PUSH1 0x44 DUP3 ADD MSTORE PUSH32 0x6520636C61696D2E20436F6E7461637420637573746F6D657220737570706F72 PUSH1 0x64 DUP3 ADD MSTORE PUSH2 0x3A17 PUSH1 0xF1 SHL PUSH1 0x84 DUP3 ADD MSTORE PUSH1 0xA4 ADD PUSH2 0x166 JUMP JUMPDEST DUP3 DUP1 PUSH2 0xDEF JUMPI POP DUP2 JUMPDEST PUSH2 0xE57 JUMPI PUSH1 0x40 MLOAD PUSH3 0x461BCD PUSH1 0xE5 SHL DUP2 MSTORE PUSH1 0x20 PUSH1 0x4 DUP3 ADD MSTORE PUSH1 0x33 PUSH1 0x24 DUP3 ADD MSTORE PUSH32 0x4552523A20526566756E6420636C61696D206661696C65642E20436F6E746163 PUSH1 0x44 DUP3 ADD MSTORE PUSH19 0x3A1031BAB9BA37B6B2B91039BAB83837B93A17 PUSH1 0x69 SHL PUSH1 0x64 DUP3 ADD MSTORE PUSH1 0x84 ADD PUSH2 0x166 JUMP JUMPDEST PUSH1 0x9 DUP1 SLOAD PUSH1 0xFF NOT AND PUSH1 0x1 OR SWAP1 SSTORE PUSH1 0x8 DUP13 SWAP1 SSTORE DUP5 ISZERO DUP1 ISZERO SWAP1 PUSH2 0xE78 JUMPI POP PUSH1 0x0 DUP5 GT JUMPDEST ISZERO PUSH2 0xE95 JUMPI PUSH1 0x5 DUP1 SLOAD PUSH1 0xFF PUSH1 0xA8 SHL NOT AND PUSH1 0x3 PUSH1 0xA8 SHL OR SWAP1 SSTORE PUSH2 0xEE7 JUMP JUMPDEST PUSH1 0x0 DUP6 GT DUP1 ISZERO PUSH2 0xEA3 JUMPI POP DUP4 ISZERO JUMPDEST ISZERO PUSH2 0xEC0 JUMPI PUSH1 0x5 DUP1 SLOAD PUSH1 0xFF PUSH1 0xA8 SHL NOT AND PUSH1 0x1 PUSH1 0xA9 SHL OR SWAP1 SSTORE PUSH2 0xEE7 JUMP JUMPDEST DUP5 ISZERO DUP1 ISZERO PUSH2 0xECE JUMPI POP PUSH1 0x0 DUP5 GT JUMPDEST ISZERO PUSH2 0xEE7 JUMPI PUSH1 0x5 DUP1 SLOAD PUSH1 0xFF PUSH1 0xA8 SHL NOT AND PUSH1 0x1 PUSH1 0xAA SHL OR SWAP1 SSTORE JUMPDEST PUSH1 0xE DUP6 SWAP1 SSTORE PUSH1 0xF DUP5 SWAP1 SSTORE PUSH1 0x5 DUP1 SLOAD PUSH1 0xFF PUSH1 0xA0 SHL NOT AND PUSH1 0x3 PUSH1 0xA0 SHL OR SWAP1 SSTORE TIMESTAMP PUSH1 0x7 DUP2 SWAP1 SSTORE PUSH1 0x8 SSTORE PUSH1 0x1 DUP1 SLOAD PUSH1 0x40 DUP1 MLOAD SWAP2 DUP3 MSTORE PUSH1 0x20 DUP3 ADD DUP2 SWAP1 MSTORE PUSH1 0x1B SWAP1 DUP3 ADD MSTORE PUSH32 0x494E464F3A205469636B657420526566756E6420436C61696D65640000000000 PUSH1 0x60 DUP3 ADD MSTORE SWAP1 SWAP14 POP PUSH32 0xCF25CB80C2593591B7DEBE7D7DBC914BE276B5B7BACFAE64AD3F306A07EA0F7C SWAP1 PUSH1 0x80 ADD PUSH1 0x40 MLOAD DUP1 SWAP2 SUB SWAP1 LOG1 POP POP POP POP POP POP POP POP POP POP POP POP SWAP1 JUMP JUMPDEST PUSH1 0x5 SLOAD PUSH1 0x0 SWAP1 PUSH1 0x60 SWAP1 PUSH1 0x1 PUSH1 0x1 PUSH1 0xA0 SHL SUB AND CALLER EQ PUSH2 0xFBA JUMPI PUSH1 0x40 MLOAD PUSH3 0x461BCD PUSH1 0xE5 SHL DUP2 MSTORE PUSH1 0x4 ADD PUSH2 0x166 SWAP1 PUSH2 0x2316 JUMP JUMPDEST PUSH1 0x5 SLOAD TIMESTAMP SWAP1 PUSH1 0x0 NOT PUSH1 0x1 PUSH1 0xA0 SHL SWAP1 SWAP2 DIV PUSH1 0xFF AND ADD PUSH2 0x10A1 JUMPI PUSH1 0x3 SLOAD PUSH1 0x0 SLOAD PUSH1 0x40 MLOAD PUSH4 0x4DA75D4F PUSH1 0xE0 SHL DUP2 MSTORE PUSH1 0x1 PUSH1 0x1 PUSH1 0xA0 SHL SUB SWAP2 DUP3 AND PUSH1 0x4 DUP3 ADD MSTORE SWAP2 AND SWAP1 PUSH4 0x4DA75D4F SWAP1 PUSH1 0x24 ADD PUSH1 0x0 PUSH1 0x40 MLOAD DUP1 DUP4 SUB DUP2 PUSH1 0x0 DUP8 GAS CALL ISZERO DUP1 ISZERO PUSH2 0x1020 JUMPI RETURNDATASIZE PUSH1 0x0 DUP1 RETURNDATACOPY RETURNDATASIZE PUSH1 0x0 REVERT JUMPDEST POP POP POP POP PUSH1 0x40 MLOAD RETURNDATASIZE PUSH1 0x0 DUP3 RETURNDATACOPY PUSH1 0x1F RETURNDATASIZE SWAP1 DUP2 ADD PUSH1 0x1F NOT AND DUP3 ADD PUSH1 0x40 MSTORE PUSH2 0x1048 SWAP2 SWAP1 DUP2 ADD SWAP1 PUSH2 0x23EF JUMP JUMPDEST PUSH1 0x5 DUP1 SLOAD PUSH1 0xFF PUSH1 0xA0 SHL NOT AND SWAP1 SSTORE PUSH1 0x7 DUP4 SWAP1 SSTORE PUSH1 0x1 SLOAD PUSH1 0x40 MLOAD SWAP3 SWAP6 POP SWAP1 SWAP4 POP PUSH32 0x25E8A2E026A8E044740A13A07990ABC9E9AE34A60F00E858F5480F21F646DE0 SWAP2 PUSH2 0x1094 SWAP2 SWAP1 DUP6 SWAP1 PUSH2 0x2479 JUMP JUMPDEST PUSH1 0x40 MLOAD DUP1 SWAP2 SUB SWAP1 LOG1 PUSH2 0x1168 JUMP JUMPDEST PUSH1 0x5 SLOAD PUSH1 0x3 NOT PUSH1 0x1 PUSH1 0xA0 SHL SWAP1 SWAP2 DIV PUSH1 0xFF AND ADD PUSH2 0x110A JUMPI PUSH1 0x40 MLOAD PUSH3 0x461BCD PUSH1 0xE5 SHL DUP2 MSTORE PUSH1 0x20 PUSH1 0x4 DUP3 ADD MSTORE PUSH1 0x22 PUSH1 0x24 DUP3 ADD MSTORE PUSH32 0x4572723A20507265762043414E43454C4C4154494F4E20494E2050524F475245 PUSH1 0x44 DUP3 ADD MSTORE PUSH2 0x5353 PUSH1 0xF0 SHL PUSH1 0x64 DUP3 ADD MSTORE PUSH1 0x84 ADD PUSH2 0x166 JUMP JUMPDEST PUSH1 0x5 SLOAD PUSH1 0x4 NOT PUSH1 0x1 PUSH1 0xA0 SHL SWAP1 SWAP2 DIV PUSH1 0xFF AND ADD PUSH2 0x1168 JUMPI PUSH1 0x40 MLOAD PUSH3 0x461BCD PUSH1 0xE5 SHL DUP2 MSTORE PUSH1 0x20 PUSH1 0x4 DUP3 ADD MSTORE PUSH1 0x1D PUSH1 0x24 DUP3 ADD MSTORE PUSH32 0x4572723A205469636B657420616C72656164792043414E43454C4C4544000000 PUSH1 0x44 DUP3 ADD MSTORE PUSH1 0x64 ADD PUSH2 0x166 JUMP JUMPDEST PUSH1 0x9 SLOAD PUSH1 0xFF AND PUSH2 0x14A9 JUMPI PUSH1 0x3 SLOAD PUSH1 0xA SLOAD PUSH1 0x40 MLOAD PUSH4 0xD9D2F547 PUSH1 0xE0 SHL DUP2 MSTORE PUSH1 0x4 DUP2 ADD SWAP2 SWAP1 SWAP2 MSTORE PUSH1 0x0 SWAP2 PUSH1 0x1 PUSH1 0x1 PUSH1 0xA0 SHL SUB AND SWAP1 PUSH4 0xD9D2F547 SWAP1 PUSH1 0x24 ADD PUSH1 0x20 PUSH1 0x40 MLOAD DUP1 DUP4 SUB DUP2 DUP7 GAS STATICCALL ISZERO DUP1 ISZERO PUSH2 0x11C0 JUMPI RETURNDATASIZE PUSH1 0x0 DUP1 RETURNDATACOPY RETURNDATASIZE PUSH1 0x0 REVERT JUMPDEST POP POP POP POP PUSH1 0x40 MLOAD RETURNDATASIZE PUSH1 0x1F NOT PUSH1 0x1F DUP3 ADD AND DUP3 ADD DUP1 PUSH1 0x40 MSTORE POP DUP2 ADD SWAP1 PUSH2 0x11E4 SWAP2 SWAP1 PUSH2 0x2492 JUMP JUMPDEST SWAP1 POP PUSH1 0x2 PUSH1 0xFF DUP3 AND GT ISZERO PUSH2 0x1257 JUMPI PUSH1 0x40 MLOAD PUSH3 0x461BCD PUSH1 0xE5 SHL DUP2 MSTORE PUSH1 0x20 PUSH1 0x4 DUP3 ADD MSTORE PUSH1 0x34 PUSH1 0x24 DUP3 ADD MSTORE PUSH32 0x4552523A205469636B65742063616E6E6F742062652063616E63656C6C65642E PUSH1 0x44 DUP3 ADD MSTORE PUSH20 0x20436865636B20466C6967687420737461747573 PUSH1 0x60 SHL PUSH1 0x64 DUP3 ADD MSTORE PUSH1 0x84 ADD PUSH2 0x166 JUMP JUMPDEST PUSH1 0x0 DUP3 PUSH1 0xA PUSH1 0x8 ADD SLOAD GT PUSH2 0x126C JUMPI PUSH1 0x0 PUSH2 0x127A JUMP JUMPDEST PUSH1 0x12 SLOAD PUSH2 0x127A SWAP1 DUP5 SWAP1 PUSH2 0x21F4 JUMP JUMPDEST SWAP1 POP PUSH1 0x0 PUSH2 0x128A DUP3 DUP5 PUSH1 0x1 PUSH2 0x1B2F JUMP JUMPDEST SWAP1 POP PUSH1 0x0 DUP2 PUSH1 0xFF AND GT PUSH2 0x12EE JUMPI PUSH1 0x40 MLOAD PUSH3 0x461BCD PUSH1 0xE5 SHL DUP2 MSTORE PUSH1 0x20 PUSH1 0x4 DUP3 ADD MSTORE PUSH1 0x26 PUSH1 0x24 DUP3 ADD MSTORE PUSH32 0x4552523A205469636B65742063616E63656C6C6174696F6E2077696E646F7720 PUSH1 0x44 DUP3 ADD MSTORE PUSH6 0x18DB1BDCD959 PUSH1 0xD2 SHL PUSH1 0x64 DUP3 ADD MSTORE PUSH1 0x84 ADD PUSH2 0x166 JUMP JUMPDEST PUSH1 0x5 DUP1 SLOAD PUSH1 0xFF PUSH1 0xA0 SHL NOT AND PUSH1 0x1 PUSH1 0xA2 SHL OR SWAP1 SSTORE PUSH1 0x7 DUP5 SWAP1 SSTORE PUSH1 0xD SLOAD PUSH1 0x0 SWAP1 DUP2 SWAP1 DUP2 SWAP1 DUP2 SWAP1 SELFBALANCE SWAP1 DUP2 LT PUSH2 0x143B JUMPI PUSH2 0x1325 PUSH1 0x64 DUP8 PUSH2 0x21BB JUMP JUMPDEST PUSH2 0x1332 SWAP1 PUSH1 0xFF AND DUP3 PUSH2 0x21DD JUMP JUMPDEST SWAP5 POP PUSH2 0x133E DUP6 DUP3 PUSH2 0x21F4 JUMP JUMPDEST SWAP4 POP DUP5 ISZERO PUSH2 0x13BB JUMPI PUSH1 0x5 SLOAD PUSH1 0x40 MLOAD PUSH1 0x1 PUSH1 0x1 PUSH1 0xA0 SHL SUB SWAP1 SWAP2 AND SWAP1 DUP7 SWAP1 PUSH1 0x0 DUP2 DUP2 DUP2 DUP6 DUP8 GAS CALL SWAP3 POP POP POP RETURNDATASIZE DUP1 PUSH1 0x0 DUP2 EQ PUSH2 0x1393 JUMPI PUSH1 0x40 MLOAD SWAP2 POP PUSH1 0x1F NOT PUSH1 0x3F RETURNDATASIZE ADD AND DUP3 ADD PUSH1 0x40 MSTORE RETURNDATASIZE DUP3 MSTORE RETURNDATASIZE PUSH1 0x0 PUSH1 0x20 DUP5 ADD RETURNDATACOPY PUSH2 0x1398 JUMP JUMPDEST PUSH1 0x60 SWAP2 POP JUMPDEST POP POP DUP1 SWAP4 POP POP DUP3 PUSH2 0x13BB JUMPI PUSH1 0x40 MLOAD PUSH3 0x461BCD PUSH1 0xE5 SHL DUP2 MSTORE PUSH1 0x4 ADD PUSH2 0x166 SWAP1 PUSH2 0x24AF JUMP JUMPDEST DUP4 ISZERO PUSH2 0x1436 JUMPI PUSH1 0x4 SLOAD PUSH1 0x40 MLOAD PUSH1 0x1 PUSH1 0x1 PUSH1 0xA0 SHL SUB SWAP1 SWAP2 AND SWAP1 DUP6 SWAP1 PUSH1 0x0 DUP2 DUP2 DUP2 DUP6 DUP8 GAS CALL SWAP3 POP POP POP RETURNDATASIZE DUP1 PUSH1 0x0 DUP2 EQ PUSH2 0x140E JUMPI PUSH1 0x40 MLOAD SWAP2 POP PUSH1 0x1F NOT PUSH1 0x3F RETURNDATASIZE ADD AND DUP3 ADD PUSH1 0x40 MSTORE RETURNDATASIZE DUP3 MSTORE RETURNDATASIZE PUSH1 0x0 PUSH1 0x20 DUP5 ADD RETURNDATACOPY PUSH2 0x1413 JUMP JUMPDEST PUSH1 0x60 SWAP2 POP JUMPDEST POP POP DUP1 SWAP3 POP POP DUP2 PUSH2 0x1436 JUMPI PUSH1 0x40 MLOAD PUSH3 0x461BCD PUSH1 0xE5 SHL DUP2 MSTORE PUSH1 0x4 ADD PUSH2 0x166 SWAP1 PUSH2 0x24AF JUMP JUMPDEST PUSH2 0x1470 JUMP JUMPDEST PUSH1 0x40 MLOAD DUP1 PUSH1 0x60 ADD PUSH1 0x40 MSTORE DUP1 PUSH1 0x32 DUP2 MSTORE PUSH1 0x20 ADD PUSH2 0x2636 PUSH1 0x32 SWAP2 CODECOPY SWAP10 POP DUP10 PUSH1 0x40 MLOAD PUSH3 0x461BCD PUSH1 0xE5 SHL DUP2 MSTORE PUSH1 0x4 ADD PUSH2 0x166 SWAP2 SWAP1 PUSH2 0x250C JUMP JUMPDEST DUP3 DUP1 PUSH2 0x1479 JUMPI POP DUP2 JUMPDEST PUSH2 0x1495 JUMPI PUSH1 0x40 MLOAD PUSH3 0x461BCD PUSH1 0xE5 SHL DUP2 MSTORE PUSH1 0x4 ADD PUSH2 0x166 SWAP1 PUSH2 0x24AF JUMP JUMPDEST PUSH2 0x149F DUP6 DUP6 PUSH2 0x1C9C JUMP JUMPDEST POP POP POP POP POP POP POP POP POP JUMPDEST PUSH1 0x5 DUP1 SLOAD PUSH1 0xFF PUSH1 0xA0 SHL NOT AND PUSH1 0x5 PUSH1 0xA0 SHL OR SWAP1 SSTORE PUSH1 0x7 DUP2 SWAP1 SSTORE PUSH1 0x40 DUP1 MLOAD DUP1 DUP3 ADD SWAP1 SWAP2 MSTORE PUSH1 0x2 DUP2 MSTORE PUSH2 0x4E41 PUSH1 0xF0 SHL PUSH1 0x20 DUP3 ADD MSTORE PUSH1 0xB SWAP1 PUSH2 0x14E7 SWAP1 DUP3 PUSH2 0x2256 JUMP JUMPDEST POP PUSH1 0x3 SLOAD PUSH1 0x0 SLOAD PUSH1 0x40 MLOAD PUSH4 0xBD90CB9 PUSH1 0xE1 SHL DUP2 MSTORE PUSH1 0x1 PUSH1 0x1 PUSH1 0xA0 SHL SUB SWAP2 DUP3 AND PUSH1 0x4 DUP3 ADD MSTORE SWAP2 AND SWAP1 PUSH4 0x17B21972 SWAP1 PUSH1 0x24 ADD PUSH1 0x0 PUSH1 0x40 MLOAD DUP1 DUP4 SUB DUP2 PUSH1 0x0 DUP8 GAS CALL ISZERO DUP1 ISZERO PUSH2 0x1536 JUMPI RETURNDATASIZE PUSH1 0x0 DUP1 RETURNDATACOPY RETURNDATASIZE PUSH1 0x0 REVERT JUMPDEST POP POP POP POP PUSH1 0x40 MLOAD RETURNDATASIZE PUSH1 0x0 DUP3 RETURNDATACOPY PUSH1 0x1F RETURNDATASIZE SWAP1 DUP2 ADD PUSH1 0x1F NOT AND DUP3 ADD PUSH1 0x40 MSTORE PUSH2 0x155E SWAP2 SWAP1 DUP2 ADD SWAP1 PUSH2 0x23EF JUMP JUMPDEST SWAP1 SWAP4 POP SWAP2 POP DUP2 DUP4 PUSH2 0x1582 JUMPI PUSH1 0x40 MLOAD PUSH3 0x461BCD PUSH1 0xE5 SHL DUP2 MSTORE PUSH1 0x4 ADD PUSH2 0x166 SWAP2 SWAP1 PUSH2 0x250C JUMP JUMPDEST POP PUSH1 0x1 SWAP3 POP PUSH2 0x1592 PUSH1 0x1 SLOAD PUSH2 0x1D34 JUMP JUMPDEST PUSH1 0x40 MLOAD PUSH1 0x20 ADD PUSH2 0x15A2 SWAP2 SWAP1 PUSH2 0x251F JUMP JUMPDEST PUSH1 0x40 MLOAD PUSH1 0x20 DUP2 DUP4 SUB SUB DUP2 MSTORE SWAP1 PUSH1 0x40 MSTORE SWAP2 POP PUSH32 0x25E8A2E026A8E044740A13A07990ABC9E9AE34A60F00E858F5480F21F646DE0 PUSH1 0x1 SLOAD DUP4 PUSH1 0x40 MLOAD PUSH2 0x15E6 SWAP3 SWAP2 SWAP1 PUSH2 0x2479 JUMP JUMPDEST PUSH1 0x40 MLOAD DUP1 SWAP2 SUB SWAP1 LOG1 POP SWAP1 SWAP2 JUMP JUMPDEST PUSH1 0x5 SLOAD PUSH1 0x0 SWAP1 PUSH1 0x1 PUSH1 0x1 PUSH1 0xA0 SHL SUB AND CALLER EQ PUSH2 0x1620 JUMPI PUSH1 0x40 MLOAD PUSH3 0x461BCD PUSH1 0xE5 SHL DUP2 MSTORE PUSH1 0x4 ADD PUSH2 0x166 SWAP1 PUSH2 0x2316 JUMP JUMPDEST POP PUSH1 0xC SLOAD PUSH1 0x0 SWAP1 CALLVALUE DUP2 GT ISZERO PUSH2 0x1691 JUMPI PUSH1 0x40 MLOAD PUSH3 0x461BCD PUSH1 0xE5 SHL DUP2 MSTORE PUSH1 0x20 PUSH1 0x4 DUP3 ADD MSTORE PUSH1 0x31 PUSH1 0x24 DUP3 ADD MSTORE PUSH32 0x496E73756666696369656E7420416D6F756E742070726F766964656420746F20 PUSH1 0x44 DUP3 ADD MSTORE PUSH17 0x636F6D706C657465207075726368617365 PUSH1 0x78 SHL PUSH1 0x64 DUP3 ADD MSTORE PUSH1 0x84 ADD PUSH2 0x166 JUMP JUMPDEST PUSH1 0x3 SLOAD PUSH1 0x0 SLOAD PUSH1 0x40 MLOAD PUSH4 0x47805F25 PUSH1 0xE1 SHL DUP2 MSTORE PUSH1 0x1 PUSH1 0x1 PUSH1 0xA0 SHL SUB SWAP2 DUP3 AND PUSH1 0x4 DUP3 ADD MSTORE CALLER PUSH1 0x24 DUP3 ADD MSTORE SWAP2 AND SWAP1 PUSH4 0x8F00BE4A SWAP1 PUSH1 0x44 ADD PUSH1 0x20 PUSH1 0x40 MLOAD DUP1 DUP4 SUB DUP2 PUSH1 0x0 DUP8 GAS CALL ISZERO DUP1 ISZERO PUSH2 0x16E5 JUMPI RETURNDATASIZE PUSH1 0x0 DUP1 RETURNDATACOPY RETURNDATASIZE PUSH1 0x0 REVERT JUMPDEST POP POP POP POP PUSH1 0x40 MLOAD RETURNDATASIZE PUSH1 0x1F NOT PUSH1 0x1F DUP3 ADD AND DUP3 ADD DUP1 PUSH1 0x40 MSTORE POP DUP2 ADD SWAP1 PUSH2 0x1709 SWAP2 SWAP1 PUSH2 0x2381 JUMP JUMPDEST SWAP2 POP DUP2 PUSH2 0x1758 JUMPI PUSH1 0x40 MLOAD PUSH3 0x461BCD PUSH1 0xE5 SHL DUP2 MSTORE PUSH1 0x20 PUSH1 0x4 DUP3 ADD MSTORE PUSH1 0x1B PUSH1 0x24 DUP3 ADD MSTORE PUSH32 0x4552523A205469636B6574207075726368617365206661696C65640000000000 PUSH1 0x44 DUP3 ADD MSTORE PUSH1 0x64 ADD PUSH2 0x166 JUMP JUMPDEST PUSH1 0x0 PUSH2 0x1764 DUP3 CALLVALUE PUSH2 0x21F4 JUMP JUMPDEST SWAP1 POP DUP1 ISZERO PUSH2 0x181E JUMPI PUSH1 0x40 MLOAD PUSH1 0x0 SWAP1 CALLER SWAP1 DUP4 SWAP1 DUP4 DUP2 DUP2 DUP2 DUP6 DUP8 GAS CALL SWAP3 POP POP POP RETURNDATASIZE DUP1 PUSH1 0x0 DUP2 EQ PUSH2 0x17AE JUMPI PUSH1 0x40 MLOAD SWAP2 POP PUSH1 0x1F NOT PUSH1 0x3F RETURNDATASIZE ADD AND DUP3 ADD PUSH1 0x40 MSTORE RETURNDATASIZE DUP3 MSTORE RETURNDATASIZE PUSH1 0x0 PUSH1 0x20 DUP5 ADD RETURNDATACOPY PUSH2 0x17B3 JUMP JUMPDEST PUSH1 0x60 SWAP2 POP JUMPDEST POP POP SWAP1 POP DUP1 PUSH2 0x1804 JUMPI PUSH1 0x40 MLOAD PUSH3 0x461BCD PUSH1 0xE5 SHL DUP2 MSTORE PUSH1 0x20 PUSH1 0x4 DUP3 ADD MSTORE PUSH1 0x1B PUSH1 0x24 DUP3 ADD MSTORE PUSH32 0x4552523A205469636B6574207075726368617365206661696C65640000000000 PUSH1 0x44 DUP3 ADD MSTORE PUSH1 0x64 ADD PUSH2 0x166 JUMP JUMPDEST POP PUSH1 0x5 DUP1 SLOAD PUSH2 0xFFFF PUSH1 0xA0 SHL NOT AND PUSH1 0x81 PUSH1 0xA1 SHL OR SWAP1 SSTORE PUSH1 0x1 SWAP3 POP JUMPDEST PUSH1 0xD DUP3 SWAP1 SSTORE PUSH1 0x5 DUP1 SLOAD TIMESTAMP PUSH1 0x7 DUP2 SWAP1 SSTORE PUSH2 0xFFFF PUSH1 0xA0 SHL NOT SWAP1 SWAP2 AND PUSH1 0x81 PUSH1 0xA1 SHL OR SWAP1 SWAP2 SSTORE PUSH1 0x8 SSTORE PUSH1 0xA SLOAD PUSH1 0x1 SLOAD PUSH1 0x40 DUP1 MLOAD SWAP3 DUP4 MSTORE PUSH1 0x20 DUP4 ADD SWAP2 SWAP1 SWAP2 MSTORE DUP2 ADD DUP3 SWAP1 MSTORE PUSH1 0x60 DUP2 ADD DUP4 SWAP1 MSTORE PUSH1 0xA0 PUSH1 0x80 DUP3 ADD DUP2 SWAP1 MSTORE PUSH1 0x1C SWAP1 DUP3 ADD MSTORE PUSH32 0x21205469636B6574205061796D656E7420436F6E6669726D6564202100000000 PUSH1 0xC0 DUP3 ADD MSTORE PUSH32 0x2E3ADCD6802B3BAB575FB11DB537DA427381ECAF1C001902E87AF8957ACC3234 SWAP1 PUSH1 0xE0 ADD PUSH1 0x40 MLOAD DUP1 SWAP2 SUB SWAP1 LOG1 POP POP SWAP1 JUMP JUMPDEST PUSH1 0x60 PUSH1 0x0 NOT DUP3 ADD PUSH2 0x18FA JUMPI POP POP PUSH1 0x40 DUP1 MLOAD DUP1 DUP3 ADD SWAP1 SWAP2 MSTORE PUSH1 0x8 DUP2 MSTORE PUSH8 0x149154D154959151 PUSH1 0xC2 SHL PUSH1 0x20 DUP3 ADD MSTORE SWAP1 JUMP JUMPDEST PUSH1 0x1 NOT DUP3 ADD PUSH2 0x1928 JUMPI POP POP PUSH1 0x40 DUP1 MLOAD DUP1 DUP3 ADD SWAP1 SWAP2 MSTORE PUSH1 0x9 DUP2 MSTORE PUSH9 0x10D3D3919254935151 PUSH1 0xBA SHL PUSH1 0x20 DUP3 ADD MSTORE SWAP1 JUMP JUMPDEST PUSH1 0x3 NOT DUP3 ADD PUSH2 0x196A JUMPI POP POP PUSH1 0x40 DUP1 MLOAD DUP1 DUP3 ADD SWAP1 SWAP2 MSTORE PUSH1 0x18 DUP2 MSTORE PUSH32 0x43414E43454C4C4154494F4E2D494E2D50524F47524553530000000000000000 PUSH1 0x20 DUP3 ADD MSTORE SWAP1 JUMP JUMPDEST PUSH1 0x4 NOT DUP3 ADD PUSH2 0x1998 JUMPI POP POP PUSH1 0x40 DUP1 MLOAD DUP1 DUP3 ADD SWAP1 SWAP2 MSTORE PUSH1 0x9 DUP2 MSTORE PUSH9 0x10D05390D153131151 PUSH1 0xBA SHL PUSH1 0x20 DUP3 ADD MSTORE SWAP1 JUMP JUMPDEST POP POP PUSH1 0x40 DUP1 MLOAD DUP1 DUP3 ADD SWAP1 SWAP2 MSTORE PUSH1 0x7 DUP2 MSTORE PUSH7 0x2AA725A727ABA7 PUSH1 0xC9 SHL PUSH1 0x20 DUP3 ADD MSTORE SWAP1 JUMP JUMPDEST PUSH1 0x60 DUP2 PUSH2 0x19E5 JUMPI POP POP PUSH1 0x40 DUP1 MLOAD DUP1 DUP3 ADD SWAP1 SWAP2 MSTORE PUSH1 0x7 DUP2 MSTORE PUSH7 0x50454E44494E47 PUSH1 0xC8 SHL PUSH1 0x20 DUP3 ADD MSTORE SWAP1 JUMP JUMPDEST PUSH1 0x0 NOT DUP3 ADD PUSH2 0x1A13 JUMPI POP POP PUSH1 0x40 DUP1 MLOAD DUP1 DUP3 ADD SWAP1 SWAP2 MSTORE PUSH1 0x9 DUP2 MSTORE PUSH9 0x10D3D3131150D51151 PUSH1 0xBA SHL PUSH1 0x20 DUP3 ADD MSTORE SWAP1 JUMP JUMPDEST PUSH1 0x1 NOT DUP3 ADD PUSH2 0x1A40 JUMPI POP POP PUSH1 0x40 DUP1 MLOAD DUP1 DUP3 ADD SWAP1 SWAP2 MSTORE PUSH1 0x8 DUP2 MSTORE PUSH8 0x1491519553911151 PUSH1 0xC2 SHL PUSH1 0x20 DUP3 ADD MSTORE SWAP1 JUMP JUMPDEST PUSH1 0x2 NOT DUP3 ADD PUSH2 0x1A6A JUMPI POP POP PUSH1 0x40 DUP1 MLOAD DUP1 DUP3 ADD SWAP1 SWAP2 MSTORE PUSH1 0x5 DUP2 MSTORE PUSH5 0x14D4131255 PUSH1 0xDA SHL PUSH1 0x20 DUP3 ADD MSTORE SWAP1 JUMP JUMPDEST PUSH1 0x3 NOT DUP3 ADD PUSH2 0x1998 JUMPI POP POP PUSH1 0x40 DUP1 MLOAD DUP1 DUP3 ADD SWAP1 SWAP2 MSTORE PUSH1 0x4 DUP2 MSTORE PUSH4 0x14105251 PUSH1 0xE2 SHL PUSH1 0x20 DUP3 ADD MSTORE SWAP1 JUMP JUMPDEST PUSH1 0x0 PUSH1 0x5 NOT PUSH1 0xFF DUP7 AND ADD PUSH2 0x1AB4 JUMPI PUSH2 0x1AAD PUSH1 0x3C PUSH1 0x18 PUSH2 0x21DD JUMP JUMPDEST SWAP1 POP PUSH2 0x1B27 JUMP JUMPDEST PUSH1 0x6 PUSH1 0xFF DUP7 AND LT DUP1 ISZERO PUSH2 0x1ADA JUMPI POP PUSH2 0x1ACE PUSH1 0x3C PUSH1 0x18 PUSH2 0x21DD JUMP JUMPDEST PUSH2 0x1AD8 DUP4 DUP7 PUSH2 0x21F4 JUMP JUMPDEST GT JUMPDEST ISZERO PUSH2 0x1AEB JUMPI PUSH2 0x1AAD PUSH1 0x3C PUSH1 0x18 PUSH2 0x21DD JUMP JUMPDEST PUSH1 0x6 PUSH1 0xFF DUP7 AND LT ISZERO PUSH2 0x1B23 JUMPI DUP4 PUSH1 0xFF DUP7 AND PUSH1 0x5 EQ DUP1 PUSH2 0x1B0D JUMPI POP PUSH1 0xFF DUP7 AND PUSH1 0x4 EQ JUMPDEST PUSH2 0x1B17 JUMPI TIMESTAMP PUSH2 0x1B19 JUMP JUMPDEST DUP4 JUMPDEST PUSH2 0x1AAD SWAP2 SWAP1 PUSH2 0x21F4 JUMP JUMPDEST POP PUSH1 0x0 JUMPDEST SWAP5 SWAP4 POP POP POP POP JUMP JUMPDEST PUSH1 0x0 PUSH2 0x1B66 PUSH1 0x40 MLOAD DUP1 PUSH1 0x40 ADD PUSH1 0x40 MSTORE DUP1 PUSH1 0x13 DUP2 MSTORE PUSH1 0x20 ADD PUSH19 0x3A34B6B2A130B9B4B9A9B2B1B7B73239901E9 PUSH1 0x6D SHL DUP2 MSTORE POP DUP6 PUSH2 0x1E36 JUMP JUMPDEST PUSH2 0x1B9A PUSH1 0x40 MLOAD DUP1 PUSH1 0x40 ADD PUSH1 0x40 MSTORE DUP1 PUSH1 0xF DUP2 MSTORE PUSH1 0x20 ADD PUSH15 0x333634B3B43A29BA30BA3AB9901E9 PUSH1 0x8D SHL DUP2 MSTORE POP DUP5 PUSH1 0xFF AND PUSH2 0x1E36 JUMP JUMPDEST PUSH2 0x1BD9 PUSH1 0x40 MLOAD DUP1 PUSH1 0x40 ADD PUSH1 0x40 MSTORE DUP1 PUSH1 0x17 DUP2 MSTORE PUSH1 0x20 ADD PUSH32 0x69735469636B657443616E63656C6C6174696F6E203D20000000000000000000 DUP2 MSTORE POP DUP4 PUSH2 0x1E7F JUMP JUMPDEST PUSH1 0x5 NOT PUSH1 0xFF DUP5 AND ADD PUSH2 0x1BED JUMPI POP PUSH1 0x64 PUSH2 0x1C95 JUMP JUMPDEST PUSH2 0x1BF9 PUSH1 0x3C PUSH1 0x18 PUSH2 0x21DD JUMP JUMPDEST DUP5 LT PUSH2 0x1C15 JUMPI DUP2 PUSH2 0x1C0B JUMPI PUSH1 0x64 PUSH2 0x1C0E JUMP JUMPDEST PUSH1 0x64 JUMPDEST SWAP1 POP PUSH2 0x1C95 JUMP JUMPDEST PUSH2 0x1C21 PUSH1 0x3C PUSH1 0xA PUSH2 0x21DD JUMP JUMPDEST DUP5 LT ISZERO DUP1 ISZERO PUSH2 0x1C3A JUMPI POP PUSH2 0x1C37 PUSH1 0x3C PUSH1 0x18 PUSH2 0x21DD JUMP JUMPDEST DUP5 LT JUMPDEST ISZERO PUSH2 0x1C53 JUMPI DUP2 PUSH2 0x1C4B JUMPI PUSH1 0x28 PUSH2 0x1C0E JUMP JUMPDEST POP PUSH1 0x50 PUSH2 0x1C95 JUMP JUMPDEST PUSH2 0x1C5F PUSH1 0x3C PUSH1 0x2 PUSH2 0x21DD JUMP JUMPDEST DUP5 LT ISZERO DUP1 ISZERO PUSH2 0x1C78 JUMPI POP PUSH2 0x1C75 PUSH1 0x3C PUSH1 0xA PUSH2 0x21DD JUMP JUMPDEST DUP5 LT JUMPDEST ISZERO PUSH2 0x1C91 JUMPI DUP2 PUSH2 0x1C89 JUMPI PUSH1 0xA PUSH2 0x1C0E JUMP JUMPDEST POP PUSH1 0x28 PUSH2 0x1C95 JUMP JUMPDEST POP PUSH1 0x0 JUMPDEST SWAP4 SWAP3 POP POP POP JUMP JUMPDEST TIMESTAMP PUSH1 0x8 SSTORE PUSH1 0x0 DUP3 ISZERO DUP1 ISZERO SWAP1 PUSH2 0x1CB1 JUMPI POP PUSH1 0x0 DUP3 GT JUMPDEST ISZERO PUSH2 0x1CCE JUMPI PUSH1 0x5 DUP1 SLOAD PUSH1 0xFF PUSH1 0xA8 SHL NOT AND PUSH1 0x3 PUSH1 0xA8 SHL OR SWAP1 SSTORE PUSH2 0x1D20 JUMP JUMPDEST PUSH1 0x0 DUP4 GT DUP1 ISZERO PUSH2 0x1CDC JUMPI POP DUP2 ISZERO JUMPDEST ISZERO PUSH2 0x1CF9 JUMPI PUSH1 0x5 DUP1 SLOAD PUSH1 0xFF PUSH1 0xA8 SHL NOT AND PUSH1 0x1 PUSH1 0xA9 SHL OR SWAP1 SSTORE PUSH2 0x1D20 JUMP JUMPDEST DUP3 ISZERO DUP1 ISZERO PUSH2 0x1D07 JUMPI POP PUSH1 0x0 DUP3 GT JUMPDEST ISZERO PUSH2 0x1D20 JUMPI PUSH1 0x5 DUP1 SLOAD PUSH1 0xFF PUSH1 0xA8 SHL NOT AND PUSH1 0x1 PUSH1 0xAA SHL OR SWAP1 SSTORE JUMPDEST POP PUSH1 0xE DUP3 SWAP1 SSTORE PUSH1 0xF DUP2 SWAP1 SSTORE PUSH1 0x1 JUMPDEST SWAP3 SWAP2 POP POP JUMP JUMPDEST PUSH1 0x60 DUP2 PUSH1 0x0 SUB PUSH2 0x1D5B JUMPI POP POP PUSH1 0x40 DUP1 MLOAD DUP1 DUP3 ADD SWAP1 SWAP2 MSTORE PUSH1 0x1 DUP2 MSTORE PUSH1 0x3 PUSH1 0xFC SHL PUSH1 0x20 DUP3 ADD MSTORE SWAP1 JUMP JUMPDEST DUP2 PUSH1 0x0 JUMPDEST DUP2 ISZERO PUSH2 0x1D85 JUMPI DUP1 PUSH2 0x1D6F DUP2 PUSH2 0x256E JUMP JUMPDEST SWAP2 POP PUSH2 0x1D7E SWAP1 POP PUSH1 0xA DUP4 PUSH2 0x2587 JUMP JUMPDEST SWAP2 POP PUSH2 0x1D5F JUMP JUMPDEST PUSH1 0x0 DUP2 PUSH8 0xFFFFFFFFFFFFFFFF DUP2 GT ISZERO PUSH2 0x1DA0 JUMPI PUSH2 0x1DA0 PUSH2 0x1F37 JUMP JUMPDEST PUSH1 0x40 MLOAD SWAP1 DUP1 DUP3 MSTORE DUP1 PUSH1 0x1F ADD PUSH1 0x1F NOT AND PUSH1 0x20 ADD DUP3 ADD PUSH1 0x40 MSTORE DUP1 ISZERO PUSH2 0x1DCA JUMPI PUSH1 0x20 DUP3 ADD DUP2 DUP1 CALLDATASIZE DUP4 CALLDATACOPY ADD SWAP1 POP JUMPDEST POP SWAP1 POP JUMPDEST DUP5 ISZERO PUSH2 0x1B27 JUMPI DUP2 PUSH2 0x1DDE DUP2 PUSH2 0x259B JUMP JUMPDEST SWAP3 POP PUSH2 0x1DED SWAP1 POP PUSH1 0xA DUP7 PUSH2 0x25B2 JUMP JUMPDEST PUSH2 0x1DF8 SWAP1 PUSH1 0x30 PUSH2 0x25C6 JUMP JUMPDEST PUSH1 0xF8 SHL DUP2 DUP4 DUP2 MLOAD DUP2 LT PUSH2 0x1E0D JUMPI PUSH2 0x1E0D PUSH2 0x25D9 JUMP JUMPDEST PUSH1 0x20 ADD ADD SWAP1 PUSH1 0x1 PUSH1 0x1 PUSH1 0xF8 SHL SUB NOT AND SWAP1 DUP2 PUSH1 0x0 BYTE SWAP1 MSTORE8 POP PUSH2 0x1E2F PUSH1 0xA DUP7 PUSH2 0x2587 JUMP JUMPDEST SWAP5 POP PUSH2 0x1DCE JUMP JUMPDEST PUSH2 0x1E7B DUP3 DUP3 PUSH1 0x40 MLOAD PUSH1 0x24 ADD PUSH2 0x1E4C SWAP3 SWAP2 SWAP1 PUSH2 0x25EF JUMP JUMPDEST PUSH1 0x40 DUP1 MLOAD PUSH1 0x1F NOT DUP2 DUP5 SUB ADD DUP2 MSTORE SWAP2 SWAP1 MSTORE PUSH1 0x20 DUP2 ADD DUP1 MLOAD PUSH1 0x1 PUSH1 0x1 PUSH1 0xE0 SHL SUB AND PUSH4 0x2D839CB3 PUSH1 0xE2 SHL OR SWAP1 MSTORE PUSH2 0x1EC0 JUMP JUMPDEST POP POP JUMP JUMPDEST PUSH2 0x1E7B DUP3 DUP3 PUSH1 0x40 MLOAD PUSH1 0x24 ADD PUSH2 0x1E95 SWAP3 SWAP2 SWAP1 PUSH2 0x2611 JUMP JUMPDEST PUSH1 0x40 DUP1 MLOAD PUSH1 0x1F NOT DUP2 DUP5 SUB ADD DUP2 MSTORE SWAP2 SWAP1 MSTORE PUSH1 0x20 DUP2 ADD DUP1 MLOAD PUSH1 0x1 PUSH1 0x1 PUSH1 0xE0 SHL SUB AND PUSH4 0xC3B55635 PUSH1 0xE0 SHL OR SWAP1 MSTORE JUMPDEST PUSH2 0x1EC9 DUP2 PUSH2 0x1ECC JUMP JUMPDEST POP JUMP JUMPDEST PUSH1 0x0 PUSH11 0x636F6E736F6C652E6C6F67 SWAP1 POP PUSH1 0x0 DUP1 DUP4 MLOAD PUSH1 0x20 DUP6 ADD DUP5 GAS STATICCALL POP POP POP JUMP JUMPDEST PUSH1 0xFF DUP2 AND DUP2 EQ PUSH2 0x1EC9 JUMPI PUSH1 0x0 DUP1 REVERT JUMPDEST PUSH1 0x0 DUP1 PUSH1 0x0 DUP1 PUSH1 0x80 DUP6 DUP8 SUB SLT ISZERO PUSH2 0x1F12 JUMPI PUSH1 0x0 DUP1 REVERT JUMPDEST DUP5 CALLDATALOAD PUSH2 0x1F1D DUP2 PUSH2 0x1EED JUMP JUMPDEST SWAP7 PUSH1 0x20 DUP7 ADD CALLDATALOAD SWAP7 POP PUSH1 0x40 DUP7 ADD CALLDATALOAD SWAP6 PUSH1 0x60 ADD CALLDATALOAD SWAP5 POP SWAP3 POP POP POP JUMP JUMPDEST PUSH4 0x4E487B71 PUSH1 0xE0 SHL PUSH1 0x0 MSTORE PUSH1 0x41 PUSH1 0x4 MSTORE PUSH1 0x24 PUSH1 0x0 REVERT JUMPDEST PUSH1 0x40 MLOAD PUSH1 0x1F DUP3 ADD PUSH1 0x1F NOT AND DUP2 ADD PUSH8 0xFFFFFFFFFFFFFFFF DUP2 GT DUP3 DUP3 LT OR ISZERO PUSH2 0x1F76 JUMPI PUSH2 0x1F76 PUSH2 0x1F37 JUMP JUMPDEST PUSH1 0x40 MSTORE SWAP2 SWAP1 POP JUMP JUMPDEST PUSH1 0x0 PUSH8 0xFFFFFFFFFFFFFFFF DUP3 GT ISZERO PUSH2 0x1F98 JUMPI PUSH2 0x1F98 PUSH2 0x1F37 JUMP JUMPDEST POP PUSH1 0x1F ADD PUSH1 0x1F NOT AND PUSH1 0x20 ADD SWAP1 JUMP JUMPDEST PUSH1 0x0 PUSH1 0x20 DUP3 DUP5 SUB SLT ISZERO PUSH2 0x1FB8 JUMPI PUSH1 0x0 DUP1 REVERT JUMPDEST DUP2 CALLDATALOAD PUSH8 0xFFFFFFFFFFFFFFFF DUP2 GT ISZERO PUSH2 0x1FCF JUMPI PUSH1 0x0 DUP1 REVERT JUMPDEST DUP3 ADD PUSH1 0x1F DUP2 ADD DUP5 SGT PUSH2 0x1FE0 JUMPI PUSH1 0x0 DUP1 REVERT JUMPDEST DUP1 CALLDATALOAD PUSH2 0x1FF3 PUSH2 0x1FEE DUP3 PUSH2 0x1F7E JUMP JUMPDEST PUSH2 0x1F4D JUMP JUMPDEST DUP2 DUP2 MSTORE DUP6 PUSH1 0x20 DUP4 DUP6 ADD ADD GT ISZERO PUSH2 0x2008 JUMPI PUSH1 0x0 DUP1 REVERT JUMPDEST DUP2 PUSH1 0x20 DUP5 ADD PUSH1 0x20 DUP4 ADD CALLDATACOPY PUSH1 0x0 SWAP2 DUP2 ADD PUSH1 0x20 ADD SWAP2 SWAP1 SWAP2 MSTORE SWAP5 SWAP4 POP POP POP POP JUMP JUMPDEST PUSH1 0x0 JUMPDEST DUP4 DUP2 LT ISZERO PUSH2 0x2041 JUMPI DUP2 DUP2 ADD MLOAD DUP4 DUP3 ADD MSTORE PUSH1 0x20 ADD PUSH2 0x2029 JUMP JUMPDEST POP POP PUSH1 0x0 SWAP2 ADD MSTORE JUMP JUMPDEST PUSH1 0x0 DUP2 MLOAD DUP1 DUP5 MSTORE PUSH2 0x2062 DUP2 PUSH1 0x20 DUP7 ADD PUSH1 0x20 DUP7 ADD PUSH2 0x2026 JUMP JUMPDEST PUSH1 0x1F ADD PUSH1 0x1F NOT AND SWAP3 SWAP1 SWAP3 ADD PUSH1 0x20 ADD SWAP3 SWAP2 POP POP JUMP JUMPDEST DUP3 ISZERO ISZERO DUP2 MSTORE PUSH1 0x40 PUSH1 0x20 DUP3 ADD MSTORE PUSH1 0x0 PUSH2 0x1B27 PUSH1 0x40 DUP4 ADD DUP5 PUSH2 0x204A JUMP JUMPDEST PUSH1 0x1 DUP2 DUP2 SHR SWAP1 DUP3 AND DUP1 PUSH2 0x20A5 JUMPI PUSH1 0x7F DUP3 AND SWAP2 POP JUMPDEST PUSH1 0x20 DUP3 LT DUP2 SUB PUSH2 0x84B JUMPI PUSH4 0x4E487B71 PUSH1 0xE0 SHL PUSH1 0x0 MSTORE PUSH1 0x22 PUSH1 0x4 MSTORE PUSH1 0x24 PUSH1 0x0 REVERT JUMPDEST DUP7 DUP2 MSTORE PUSH1 0x0 PUSH1 0x20 DUP8 DUP2 DUP5 ADD MSTORE PUSH1 0xC0 PUSH1 0x40 DUP5 ADD MSTORE PUSH1 0x0 DUP8 SLOAD PUSH2 0x20E5 DUP2 PUSH2 0x2091 JUMP JUMPDEST DUP1 PUSH1 0xC0 DUP8 ADD MSTORE PUSH1 0xE0 PUSH1 0x1 DUP1 DUP5 AND PUSH1 0x0 DUP2 EQ PUSH2 0x2107 JUMPI PUSH1 0x1 DUP2 EQ PUSH2 0x2121 JUMPI PUSH2 0x214F JUMP JUMPDEST PUSH1 0xFF NOT DUP6 AND DUP10 DUP5 ADD MSTORE DUP4 ISZERO ISZERO PUSH1 0x5 SHL DUP10 ADD DUP4 ADD SWAP6 POP PUSH2 0x214F JUMP JUMPDEST DUP13 PUSH1 0x0 MSTORE DUP7 PUSH1 0x0 KECCAK256 PUSH1 0x0 JUMPDEST DUP6 DUP2 LT ISZERO PUSH2 0x2147 JUMPI DUP2 SLOAD DUP12 DUP3 ADD DUP7 ADD MSTORE SWAP1 DUP4 ADD SWAP1 DUP9 ADD PUSH2 0x212C JUMP JUMPDEST DUP11 ADD DUP5 ADD SWAP7 POP POP JUMPDEST POP POP POP POP POP DUP4 DUP2 SUB PUSH1 0x60 DUP6 ADD MSTORE PUSH2 0x2166 DUP2 DUP9 PUSH2 0x204A JUMP JUMPDEST SWAP2 POP POP DUP3 DUP2 SUB PUSH1 0x80 DUP5 ADD MSTORE PUSH2 0x217B DUP2 DUP7 PUSH2 0x204A JUMP JUMPDEST SWAP2 POP POP DUP3 PUSH1 0xA0 DUP4 ADD MSTORE SWAP8 SWAP7 POP POP POP POP POP POP POP JUMP JUMPDEST PUSH4 0x4E487B71 PUSH1 0xE0 SHL PUSH1 0x0 MSTORE PUSH1 0x12 PUSH1 0x4 MSTORE PUSH1 0x24 PUSH1 0x0 REVERT JUMPDEST PUSH4 0x4E487B71 PUSH1 0xE0 SHL PUSH1 0x0 MSTORE PUSH1 0x11 PUSH1 0x4 MSTORE PUSH1 0x24 PUSH1 0x0 REVERT JUMPDEST PUSH1 0x0 PUSH1 0xFF DUP4 AND DUP1 PUSH2 0x21CE JUMPI PUSH2 0x21CE PUSH2 0x218F JUMP JUMPDEST DUP1 PUSH1 0xFF DUP5 AND DIV SWAP2 POP POP SWAP3 SWAP2 POP POP JUMP JUMPDEST DUP1 DUP3 MUL DUP2 ISZERO DUP3 DUP3 DIV DUP5 EQ OR PUSH2 0x1D2E JUMPI PUSH2 0x1D2E PUSH2 0x21A5 JUMP JUMPDEST DUP2 DUP2 SUB DUP2 DUP2 GT ISZERO PUSH2 0x1D2E JUMPI PUSH2 0x1D2E PUSH2 0x21A5 JUMP JUMPDEST PUSH1 0x1F DUP3 GT ISZERO PUSH2 0x2251 JUMPI PUSH1 0x0 DUP2 DUP2 MSTORE PUSH1 0x20 DUP2 KECCAK256 PUSH1 0x1F DUP6 ADD PUSH1 0x5 SHR DUP2 ADD PUSH1 0x20 DUP7 LT ISZERO PUSH2 0x222E JUMPI POP DUP1 JUMPDEST PUSH1 0x1F DUP6 ADD PUSH1 0x5 SHR DUP3 ADD SWAP2 POP JUMPDEST DUP2 DUP2 LT ISZERO PUSH2 0x224D JUMPI DUP3 DUP2 SSTORE PUSH1 0x1 ADD PUSH2 0x223A JUMP JUMPDEST POP POP POP JUMPDEST POP POP POP JUMP JUMPDEST DUP2 MLOAD PUSH8 0xFFFFFFFFFFFFFFFF DUP2 GT ISZERO PUSH2 0x2270 JUMPI PUSH2 0x2270 PUSH2 0x1F37 JUMP JUMPDEST PUSH2 0x2284 DUP2 PUSH2 0x227E DUP5 SLOAD PUSH2 0x2091 JUMP JUMPDEST DUP5 PUSH2 0x2207 JUMP JUMPDEST PUSH1 0x20 DUP1 PUSH1 0x1F DUP4 GT PUSH1 0x1 DUP2 EQ PUSH2 0x22B9 JUMPI PUSH1 0x0 DUP5 ISZERO PUSH2 0x22A1 JUMPI POP DUP6 DUP4 ADD MLOAD JUMPDEST PUSH1 0x0 NOT PUSH1 0x3 DUP7 SWAP1 SHL SHR NOT AND PUSH1 0x1 DUP6 SWAP1 SHL OR DUP6 SSTORE PUSH2 0x224D JUMP JUMPDEST PUSH1 0x0 DUP6 DUP2 MSTORE PUSH1 0x20 DUP2 KECCAK256 PUSH1 0x1F NOT DUP7 AND SWAP2 JUMPDEST DUP3 DUP2 LT ISZERO PUSH2 0x22E8 JUMPI DUP9 DUP7 ADD MLOAD DUP3 SSTORE SWAP5 DUP5 ADD SWAP5 PUSH1 0x1 SWAP1 SWAP2 ADD SWAP1 DUP5 ADD PUSH2 0x22C9 JUMP JUMPDEST POP DUP6 DUP3 LT ISZERO PUSH2 0x2306 JUMPI DUP8 DUP6 ADD MLOAD PUSH1 0x0 NOT PUSH1 0x3 DUP9 SWAP1 SHL PUSH1 0xF8 AND SHR NOT AND DUP2 SSTORE JUMPDEST POP POP POP POP POP PUSH1 0x1 SWAP1 DUP2 SHL ADD SWAP1 SSTORE POP JUMP JUMPDEST PUSH1 0x20 DUP1 DUP3 MSTORE PUSH1 0x19 SWAP1 DUP3 ADD MSTORE PUSH32 0x4F6E6C79205469636B657420427579657220616C6C6F77656400000000000000 PUSH1 0x40 DUP3 ADD MSTORE PUSH1 0x60 ADD SWAP1 JUMP JUMPDEST PUSH1 0x1 PUSH1 0x1 PUSH1 0xA0 SHL SUB DUP4 AND DUP2 MSTORE PUSH1 0x40 PUSH1 0x20 DUP3 ADD DUP2 SWAP1 MSTORE PUSH1 0x0 SWAP1 PUSH2 0x1B27 SWAP1 DUP4 ADD DUP5 PUSH2 0x204A JUMP JUMPDEST DUP1 MLOAD DUP1 ISZERO ISZERO DUP2 EQ PUSH2 0x84D JUMPI PUSH1 0x0 DUP1 REVERT JUMPDEST PUSH1 0x0 PUSH1 0x20 DUP3 DUP5 SUB SLT ISZERO PUSH2 0x2393 JUMPI PUSH1 0x0 DUP1 REVERT JUMPDEST PUSH2 0x1C95 DUP3 PUSH2 0x2371 JUMP JUMPDEST PUSH1 0x0 DUP1 PUSH1 0x0 DUP1 PUSH1 0x0 DUP1 PUSH1 0xC0 DUP8 DUP10 SUB SLT ISZERO PUSH2 0x23B5 JUMPI PUSH1 0x0 DUP1 REVERT JUMPDEST DUP7 MLOAD PUSH2 0x23C0 DUP2 PUSH2 0x1EED JUMP JUMPDEST PUSH1 0x20 DUP9 ADD MLOAD PUSH1 0x40 DUP10 ADD MLOAD PUSH1 0x60 DUP11 ADD MLOAD PUSH1 0x80 DUP12 ADD MLOAD PUSH1 0xA0 SWAP1 SWAP12 ADD MLOAD SWAP4 SWAP13 SWAP3 SWAP12 POP SWAP1 SWAP10 SWAP1 SWAP9 POP SWAP7 POP SWAP1 SWAP5 POP SWAP3 POP POP POP JUMP JUMPDEST PUSH1 0x0 DUP1 PUSH1 0x40 DUP4 DUP6 SUB SLT ISZERO PUSH2 0x2402 JUMPI PUSH1 0x0 DUP1 REVERT JUMPDEST PUSH2 0x240B DUP4 PUSH2 0x2371 JUMP JUMPDEST SWAP2 POP PUSH1 0x20 DUP4 ADD MLOAD PUSH8 0xFFFFFFFFFFFFFFFF DUP2 GT ISZERO PUSH2 0x2427 JUMPI PUSH1 0x0 DUP1 REVERT JUMPDEST DUP4 ADD PUSH1 0x1F DUP2 ADD DUP6 SGT PUSH2 0x2438 JUMPI PUSH1 0x0 DUP1 REVERT JUMPDEST DUP1 MLOAD PUSH2 0x2446 PUSH2 0x1FEE DUP3 PUSH2 0x1F7E JUMP JUMPDEST DUP2 DUP2 MSTORE DUP7 PUSH1 0x20 DUP4 DUP6 ADD ADD GT ISZERO PUSH2 0x245B JUMPI PUSH1 0x0 DUP1 REVERT JUMPDEST PUSH2 0x246C DUP3 PUSH1 0x20 DUP4 ADD PUSH1 0x20 DUP7 ADD PUSH2 0x2026 JUMP JUMPDEST DUP1 SWAP4 POP POP POP POP SWAP3 POP SWAP3 SWAP1 POP JUMP JUMPDEST DUP3 DUP2 MSTORE PUSH1 0x40 PUSH1 0x20 DUP3 ADD MSTORE PUSH1 0x0 PUSH2 0x1B27 PUSH1 0x40 DUP4 ADD DUP5 PUSH2 0x204A JUMP JUMPDEST PUSH1 0x0 PUSH1 0x20 DUP3 DUP5 SUB SLT ISZERO PUSH2 0x24A4 JUMPI PUSH1 0x0 DUP1 REVERT JUMPDEST DUP2 MLOAD PUSH2 0x1C95 DUP2 PUSH2 0x1EED JUMP JUMPDEST PUSH1 0x20 DUP1 DUP3 MSTORE PUSH1 0x3A SWAP1 DUP3 ADD MSTORE PUSH32 0x4552523A205469636B65742063616E63656C6C6174696F6E206661696C65642E PUSH1 0x40 DUP3 ADD MSTORE PUSH32 0x20436F6E7461637420637573746F6D657220737570706F72742E000000000000 PUSH1 0x60 DUP3 ADD MSTORE PUSH1 0x80 ADD SWAP1 JUMP JUMPDEST PUSH1 0x20 DUP2 MSTORE PUSH1 0x0 PUSH2 0x1C95 PUSH1 0x20 DUP4 ADD DUP5 PUSH2 0x204A JUMP JUMPDEST PUSH32 0x494E464F3A205469636B65742043616E63656C6C65642E205469636B65742023 DUP2 MSTORE PUSH1 0x1 PUSH1 0xFD SHL PUSH1 0x20 DUP3 ADD MSTORE PUSH1 0x0 DUP3 MLOAD PUSH2 0x2561 DUP2 PUSH1 0x21 DUP6 ADD PUSH1 0x20 DUP8 ADD PUSH2 0x2026 JUMP JUMPDEST SWAP2 SWAP1 SWAP2 ADD PUSH1 0x21 ADD SWAP3 SWAP2 POP POP JUMP JUMPDEST PUSH1 0x0 PUSH1 0x1 DUP3 ADD PUSH2 0x2580 JUMPI PUSH2 0x2580 PUSH2 0x21A5 JUMP JUMPDEST POP PUSH1 0x1 ADD SWAP1 JUMP JUMPDEST PUSH1 0x0 DUP3 PUSH2 0x2596 JUMPI PUSH2 0x2596 PUSH2 0x218F JUMP JUMPDEST POP DIV SWAP1 JUMP JUMPDEST PUSH1 0x0 DUP2 PUSH2 0x25AA JUMPI PUSH2 0x25AA PUSH2 0x21A5 JUMP JUMPDEST POP PUSH1 0x0 NOT ADD SWAP1 JUMP JUMPDEST PUSH1 0x0 DUP3 PUSH2 0x25C1 JUMPI PUSH2 0x25C1 PUSH2 0x218F JUMP JUMPDEST POP MOD SWAP1 JUMP JUMPDEST DUP1 DUP3 ADD DUP1 DUP3 GT ISZERO PUSH2 0x1D2E JUMPI PUSH2 0x1D2E PUSH2 0x21A5 JUMP JUMPDEST PUSH4 0x4E487B71 PUSH1 0xE0 SHL PUSH1 0x0 MSTORE PUSH1 0x32 PUSH1 0x4 MSTORE PUSH1 0x24 PUSH1 0x0 REVERT JUMPDEST PUSH1 0x40 DUP2 MSTORE PUSH1 0x0 PUSH2 0x2602 PUSH1 0x40 DUP4 ADD DUP6 PUSH2 0x204A JUMP JUMPDEST SWAP1 POP DUP3 PUSH1 0x20 DUP4 ADD MSTORE SWAP4 SWAP3 POP POP POP JUMP JUMPDEST PUSH1 0x40 DUP2 MSTORE PUSH1 0x0 PUSH2 0x2624 PUSH1 0x40 DUP4 ADD DUP6 PUSH2 0x204A JUMP JUMPDEST SWAP1 POP DUP3 ISZERO ISZERO PUSH1 0x20 DUP4 ADD MSTORE SWAP4 SWAP3 POP POP POP JUMP INVALID GASLIMIT MSTORE MSTORE GASPRICE KECCAK256 0x49 PUSH15 0x73756666696369656E742066756E64 PUSH20 0x2E20436F6E7461637420637573746F6D65722073 PUSH22 0x70706F72742EA2646970667358221220CA3CFDB35939 PUSH7 0x4F53AC7757804 0xD5 PUSH8 0x5DC791123E8AA8D6 MSTORE8 PUSH6 0xE631519A8BDB PUSH5 0x736F6C6343 STOP ADDMOD SLT STOP CALLER LOG2 PUSH5 0x6970667358 0x22 SLT KECCAK256 GT 0x5C SWAP2 CHAINID 0x5D 0x22 PUSH27 0xCD3C6F3D3DB8284AD62E66BFF0FDE3C03924DDB04E699BFCFC6473 PUSH16 0x6C634300081200330000000000000000 "
		},
		"gasEstimates": {
			"creation": {
				"codeDepositCost": "2438000",
				"executionCost": "2620",
				"totalCost": "2440620"
			},
			"external": {
				"createTicket(address,address,address,uint256,uint256,string,uint256,uint256)": "infinite"
			}
		},
		"methodIdentifiers": {
			"createTicket(address,address,address,uint256,uint256,string,uint256,uint256)": "18b552bb"
		}
	},
	"abi": [
		{
			"inputs": [
				{
					"internalType": "address",
					"name": "eagleAir",
					"type": "address"
				},
				{
					"internalType": "address",
					"name": "opAddress",
					"type": "address"
				},
				{
					"internalType": "address",
					"name": "buyer",
					"type": "address"
				},
				{
					"internalType": "uint256",
					"name": "ticketNum",
					"type": "uint256"
				},
				{
					"internalType": "uint256",
					"name": "flightNum",
					"type": "uint256"
				},
				{
					"internalType": "string",
					"name": "seatNum",
					"type": "string"
				},
				{
					"internalType": "uint256",
					"name": "ticketAmount",
					"type": "uint256"
				},
				{
					"internalType": "uint256",
					"name": "schDepTS",
					"type": "uint256"
				}
			],
			"name": "createTicket",
			"outputs": [
				{
					"internalType": "contract EagleTicket",
					"name": "ticketContract",
					"type": "address"
				}
			],
			"stateMutability": "nonpayable",
			"type": "function"
		}
	]
}