{
	"data": {
		"bytecode": {
			"linkReferences": {},
			"object": "60806040523480156200001157600080fd5b5060405162003fbf38038062003fbf8339818101604052810190620000379190620001f6565b600073ffffffffffffffffffffffffffffffffffffffff168173ffffffffffffffffffffffffffffffffffffffff1603620000a9576040517f08c379a0000000000000000000000000000000000000000000000000000000008152600401620000a09062000289565b60405180910390fd5b80600760006101000a81548173ffffffffffffffffffffffffffffffffffffffff021916908373ffffffffffffffffffffffffffffffffffffffff16021790555030600660006101000a81548173ffffffffffffffffffffffffffffffffffffffff021916908373ffffffffffffffffffffffffffffffffffffffff16021790555064e8d4a510006008819055503073ffffffffffffffffffffffffffffffffffffffff167f0d1802b86a0633c4679107d4313baeacab2fb7391348ca6485df3f40844b0b076040516200017d90620002fb565b60405180910390a2506200031d565b600080fd5b600073ffffffffffffffffffffffffffffffffffffffff82169050919050565b6000620001be8262000191565b9050919050565b620001d081620001b1565b8114620001dc57600080fd5b50565b600081519050620001f081620001c5565b92915050565b6000602082840312156200020f576200020e6200018c565b5b60006200021f84828501620001df565b91505092915050565b600082825260208201905092915050565b7f4572726f723a2053757065722055736572207265717569726564000000000000600082015250565b600062000271601a8362000228565b91506200027e8262000239565b602082019050919050565b60006020820190508181036000830152620002a48162000262565b9050919050565b7f4561676c654169726c696e650000000000000000000000000000000000000000600082015250565b6000620002e3600c8362000228565b9150620002f082620002ab565b602082019050919050565b600060208201905081810360008301526200031681620002d4565b9050919050565b613c92806200032d6000396000f3fe608060405234801561001057600080fd5b506004361061010b5760003560e01c80639358819f116100a2578063bd9e8bc111610071578063bd9e8bc11461031a578063dac87ca41461034a578063e9ef9d1d1461037a578063eab91b22146103aa578063f9c46ba0146103da5761010b565b80639358819f1461026c578063944ae8d81461028a5780639ded7df8146102ba5780639e85c20e146102ea5761010b565b80636017366e116100de5780636017366e146101be57806366fd1b35146101ee5780638a2db32f1461021e5780638ddb34471461024e5761010b565b80630cbaafc6146101105780631c84f6021461014057806321cf5da31461015e5780635c00da601461018e575b600080fd5b61012a600480360381019061012591906124f5565b61040a565b604051610137919061253d565b60405180910390f35b6101486105ae565b6040516101559190612567565b60405180910390f35b610178600480360381019061017391906126c8565b6105ba565b604051610185919061253d565b60405180910390f35b6101a860048036038101906101a391906126c8565b610788565b6040516101b5919061253d565b60405180910390f35b6101d860048036038101906101d391906124f5565b610956565b6040516101e5919061253d565b60405180910390f35b610208600480360381019061020391906124f5565b610b2b565b604051610215919061253d565b60405180910390f35b610238600480360381019061023391906124f5565b610d14565b604051610245919061253d565b60405180910390f35b610256610eb8565b6040516102639190612567565b60405180910390f35b610274610ec5565b604051610281919061275c565b60405180910390f35b6102a4600480360381019061029f9190612777565b610eca565b6040516102b1919061253d565b60405180910390f35b6102d460048036038101906102cf91906124f5565b611213565b6040516102e1919061253d565b60405180910390f35b61030460048036038101906102ff9190612858565b61134a565b604051610311919061253d565b60405180910390f35b610334600480360381019061032f91906124f5565b6114e9565b604051610341919061253d565b60405180910390f35b610364600480360381019061035f91906124f5565b61164b565b604051610371919061253d565b60405180910390f35b610394600480360381019061038f91906124f5565b611783565b6040516103a19190612917565b60405180910390f35b6103c460048036038101906103bf91906124f5565b611b30565b6040516103d1919061253d565b60405180910390f35b6103f460048036038101906103ef91906124f5565b611cba565b604051610401919061253d565b60405180910390f35b600081600360006002600084815260200190815260200160002060020154815260200190815260200160002060010160009054906101000a900473ffffffffffffffffffffffffffffffffffffffff1673ffffffffffffffffffffffffffffffffffffffff163373ffffffffffffffffffffffffffffffffffffffff1614806104f457506002600082815260200190815260200160002060010160009054906101000a900473ffffffffffffffffffffffffffffffffffffffff1673ffffffffffffffffffffffffffffffffffffffff163373ffffffffffffffffffffffffffffffffffffffff16145b610533576040517f08c379a000000000000000000000000000000000000000000000000000000000815260040161052a906129d1565b60405180910390fd5b6000915060006040518060400160405280601d81526020017f21544f444f212050656e64696e6720696d706c656d656e746174696f6e0000008152509050806040517f08c379a00000000000000000000000000000000000000000000000000000000081526004016105a59190612917565b60405180910390fd5b678ac7230489e8000081565b6000600160003373ffffffffffffffffffffffffffffffffffffffff1673ffffffffffffffffffffffffffffffffffffffff16815260200190815260200160002060000160009054906101000a900473ffffffffffffffffffffffffffffffffffffffff1673ffffffffffffffffffffffffffffffffffffffff163373ffffffffffffffffffffffffffffffffffffffff160361068c576040517f08c379a000000000000000000000000000000000000000000000000000000000815260040161068390612a3d565b60405180910390fd5b600073ffffffffffffffffffffffffffffffffffffffff163373ffffffffffffffffffffffffffffffffffffffff16036106fb576040517f08c379a00000000000000000000000000000000000000000000000000000000081526004016106f290612aa9565b60405180910390fd5b61070783836000611ef7565b905080610749576040517f08c379a000000000000000000000000000000000000000000000000000000000815260040161074090612b15565b60405180910390fd5b7f3e35ef8abc5962b8e095bfa68df9ed13fe44f49eb60e4b3777374d855c38aba4838360405161077a929190612b81565b60405180910390a192915050565b6000600160003373ffffffffffffffffffffffffffffffffffffffff1673ffffffffffffffffffffffffffffffffffffffff16815260200190815260200160002060000160009054906101000a900473ffffffffffffffffffffffffffffffffffffffff1673ffffffffffffffffffffffffffffffffffffffff163373ffffffffffffffffffffffffffffffffffffffff160361085a576040517f08c379a000000000000000000000000000000000000000000000000000000000815260040161085190612a3d565b60405180910390fd5b600073ffffffffffffffffffffffffffffffffffffffff163373ffffffffffffffffffffffffffffffffffffffff16036108c9576040517f08c379a00000000000000000000000000000000000000000000000000000000081526004016108c090612aa9565b60405180910390fd5b6108d583836001611ef7565b905080610917576040517f08c379a000000000000000000000000000000000000000000000000000000000815260040161090e90612b15565b60405180910390fd5b7f3e35ef8abc5962b8e095bfa68df9ed13fe44f49eb60e4b3777374d855c38aba48383604051610948929190612c17565b60405180910390a192915050565b6000816003600082815260200190815260200160002060010160009054906101000a900473ffffffffffffffffffffffffffffffffffffffff1673ffffffffffffffffffffffffffffffffffffffff163373ffffffffffffffffffffffffffffffffffffffff16036109fd576040517f08c379a00000000000000000000000000000000000000000000000000000000081526004016109f490612cd3565b60405180910390fd5b600160ff1660036000858152602001908152602001600020600a0160009054906101000a900460ff1660ff1610158015610a615750600460ff1660036000858152602001908152602001600020600a0160009054906101000a900460ff1660ff1611155b610aa0576040517f08c379a0000000000000000000000000000000000000000000000000000000008152600401610a9790612d3f565b60405180910390fd5b600060036000858152602001908152602001600020600c0160016101000a81548160ff0219169083151502179055504260036000858152602001908152602001600020600b0181905550600191507fe15e622369f6cd215131b21a6219d8216334c9c314c5293389f99fa06927e60883604051610b1d9190612dab565b60405180910390a150919050565b6000816003600082815260200190815260200160002060010160009054906101000a900473ffffffffffffffffffffffffffffffffffffffff1673ffffffffffffffffffffffffffffffffffffffff163373ffffffffffffffffffffffffffffffffffffffff1603610bd2576040517f08c379a0000000000000000000000000000000000000000000000000000000008152600401610bc990612cd3565b60405180910390fd5b600560ff1660036000858152602001908152602001600020600a0160009054906101000a900460ff1660ff1614610c3e576040517f08c379a0000000000000000000000000000000000000000000000000000000008152600401610c3590612d3f565b60405180910390fd5b426003600085815260200190815260200160002060060181905550600060036000858152602001908152602001600020600c0160016101000a81548160ff021916908315150217905550610c95836007600061217a565b915081610cd7576040517f08c379a0000000000000000000000000000000000000000000000000000000008152600401610cce90612e25565b60405180910390fd5b7fe15e622369f6cd215131b21a6219d8216334c9c314c5293389f99fa06927e60883604051610d069190612e91565b60405180910390a150919050565b600081600360006002600084815260200190815260200160002060020154815260200190815260200160002060010160009054906101000a900473ffffffffffffffffffffffffffffffffffffffff1673ffffffffffffffffffffffffffffffffffffffff163373ffffffffffffffffffffffffffffffffffffffff161480610dfe57506002600082815260200190815260200160002060010160009054906101000a900473ffffffffffffffffffffffffffffffffffffffff1673ffffffffffffffffffffffffffffffffffffffff163373ffffffffffffffffffffffffffffffffffffffff16145b610e3d576040517f08c379a0000000000000000000000000000000000000000000000000000000008152600401610e34906129d1565b60405180910390fd5b6000915060006040518060400160405280601d81526020017f21544f444f212050656e64696e6720696d706c656d656e746174696f6e0000008152509050806040517f08c379a0000000000000000000000000000000000000000000000000000000008152600401610eaf9190612917565b60405180910390fd5b6802b5e3af16b188000081565b606481565b60008060003373ffffffffffffffffffffffffffffffffffffffff1673ffffffffffffffffffffffffffffffffffffffff16815260200190815260200160002060000160009054906101000a900473ffffffffffffffffffffffffffffffffffffffff1673ffffffffffffffffffffffffffffffffffffffff163373ffffffffffffffffffffffffffffffffffffffff1614610f9b576040517f08c379a0000000000000000000000000000000000000000000000000000000008152600401610f9290612f31565b60405180910390fd5b86600360008981526020019081526020016000206000015403610ff757600190506040517f08c379a0000000000000000000000000000000000000000000000000000000008152600401610fee90612f9d565b60405180910390fd5b6000604051806101c001604052808981526020013373ffffffffffffffffffffffffffffffffffffffff168152602001888152602001878152602001868152602001600081526020016000815260200160008152602001858152602001848152602001600160ff168152602001428152602001606460ff16815260200160011515815250905080600360008a81526020019081526020016000206000820151816000015560208201518160010160006101000a81548173ffffffffffffffffffffffffffffffffffffffff021916908373ffffffffffffffffffffffffffffffffffffffff16021790555060408201518160020190816110f791906131c9565b50606082015181600301556080820151816004015560a0820151816005015560c0820151816006015560e0820151816007015561010082015181600801908161114091906131c9565b5061012082015181600901908161115791906131c9565b5061014082015181600a0160006101000a81548160ff021916908360ff16021790555061016082015181600b015561018082015181600c0160006101000a81548160ff021916908360ff1602179055506101a082015181600c0160016101000a81548160ff021916908315150217905550905050600191507f22687b38c8157aec47e1290facdb6d4b03fb5367e5c6e33f504eb97b7f7105a6888860405161120092919061329b565b60405180910390a1509695505050505050565b6000816003600082815260200190815260200160002060010160009054906101000a900473ffffffffffffffffffffffffffffffffffffffff1673ffffffffffffffffffffffffffffffffffffffff163373ffffffffffffffffffffffffffffffffffffffff16036112ba576040517f08c379a00000000000000000000000000000000000000000000000000000000081526004016112b190612cd3565b60405180910390fd5b6112c7836002600061217a565b9150600191508161130d576040517f08c379a000000000000000000000000000000000000000000000000000000000815260040161130490612e25565b60405180910390fd5b7fe15e622369f6cd215131b21a6219d8216334c9c314c5293389f99fa06927e6088360405161133c9190613317565b60405180910390a150919050565b6000826003600082815260200190815260200160002060010160009054906101000a900473ffffffffffffffffffffffffffffffffffffffff1673ffffffffffffffffffffffffffffffffffffffff163373ffffffffffffffffffffffffffffffffffffffff16036113f1576040517f08c379a00000000000000000000000000000000000000000000000000000000081526004016113e890612cd3565b60405180910390fd5b60008311611434576040517f08c379a000000000000000000000000000000000000000000000000000000000815260040161142b90613391565b60405180910390fd5b6114408460028561217a565b915081611482576040517f08c379a000000000000000000000000000000000000000000000000000000000815260040161147990612e25565b60405180910390fd5b7fe15e622369f6cd215131b21a6219d8216334c9c314c5293389f99fa06927e608846114ad856121ec565b6040516020016114bd9190613413565b6040516020818303038152906040526040516114da92919061329b565b60405180910390a15092915050565b6000816003600082815260200190815260200160002060010160009054906101000a900473ffffffffffffffffffffffffffffffffffffffff1673ffffffffffffffffffffffffffffffffffffffff163373ffffffffffffffffffffffffffffffffffffffff1603611590576040517f08c379a000000000000000000000000000000000000000000000000000000000815260040161158790612cd3565b60405180910390fd5b600060036000858152602001908152602001600020600c0160016101000a81548160ff0219169083151502179055506115cc836004600061217a565b91508161160e576040517f08c379a000000000000000000000000000000000000000000000000000000000815260040161160590612e25565b60405180910390fd5b7fe15e622369f6cd215131b21a6219d8216334c9c314c5293389f99fa06927e6088360405161163d9190613485565b60405180910390a150919050565b600081600360006002600084815260200190815260200160002060020154815260200190815260200160002060010160009054906101000a900473ffffffffffffffffffffffffffffffffffffffff1673ffffffffffffffffffffffffffffffffffffffff163373ffffffffffffffffffffffffffffffffffffffff1614611708576040517f08c379a00000000000000000000000000000000000000000000000000000000081526004016116ff90613525565b60405180910390fd5b6000915060006040518060400160405280601d81526020017f21544f444f212050656e64696e6720696d706c656d656e746174696f6e0000008152509050806040517f08c379a000000000000000000000000000000000000000000000000000000000815260040161177a9190612917565b60405180910390fd5b6060600360008381526020019081526020016000206000015482146117dd576040517f08c379a00000000000000000000000000000000000000000000000000000000081526004016117d490613591565b60405180910390fd5b600060036000848152602001908152602001600020600a0160009054906101000a900460ff169050600060036000858152602001908152602001600020600c0160019054906101000a900460ff169050600060036000868152602001908152602001600020600c0160009054906101000a900460ff1690506000828015611867575060008260ff16115b6118a6576040518060400160405280600981526020017f202841766c3a20302900000000000000000000000000000000000000000000008152506118f5565b6118d560036000888152602001908152602001600020600c0160009054906101000a900460ff1660ff166121ec565b6040516020016118e591906135fd565b6040516020818303038152906040525b9050600160ff168460ff160361192c57806040516020016119169190613658565b6040516020818303038152906040529450611b27565b600260ff168460ff1603611961578060405160200161194b91906136a4565b6040516020818303038152906040529450611b26565b600360ff168460ff1603611996578060405160200161198091906136f0565b6040516020818303038152906040529450611b25565b600460ff168460ff16036119cb57806040516020016119b5919061373c565b6040516020818303038152906040529450611b24565b600560ff168460ff1603611a16576040518060400160405280600681526020017f494e2d41495200000000000000000000000000000000000000000000000000008152509450611b23565b600660ff168460ff1603611a61576040518060400160405280600981526020017f43414e43454c4c454400000000000000000000000000000000000000000000008152509450611b22565b600760ff168460ff1603611aac576040518060400160405280600681526020017f4c414e44454400000000000000000000000000000000000000000000000000008152509450611b21565b6040518060400160405280601581526020017f556e6b6e6f776e20466c696768742053746174757300000000000000000000008152509450846040517f08c379a0000000000000000000000000000000000000000000000000000000008152600401611b189190612917565b60405180910390fd5b5b5b5b5b5b5b50505050919050565b6000816003600082815260200190815260200160002060010160009054906101000a900473ffffffffffffffffffffffffffffffffffffffff1673ffffffffffffffffffffffffffffffffffffffff163373ffffffffffffffffffffffffffffffffffffffff1603611bd7576040517f08c379a0000000000000000000000000000000000000000000000000000000008152600401611bce90612cd3565b60405180910390fd5b426003600085815260200190815260200160002060050181905550611c14600360008581526020019081526020016000206003015442600461234b565b6003600085815260200190815260200160002060070181905550611c3b836005600061217a565b915081611c7d576040517f08c379a0000000000000000000000000000000000000000000000000000000008152600401611c7490612e25565b60405180910390fd5b7fe15e622369f6cd215131b21a6219d8216334c9c314c5293389f99fa06927e60883604051611cac91906137ae565b60405180910390a150919050565b6000816003600082815260200190815260200160002060010160009054906101000a900473ffffffffffffffffffffffffffffffffffffffff1673ffffffffffffffffffffffffffffffffffffffff163373ffffffffffffffffffffffffffffffffffffffff1603611d61576040517f08c379a0000000000000000000000000000000000000000000000000000000008152600401611d5890612cd3565b60405180910390fd5b600160ff1660036000858152602001908152602001600020600a0160009054906101000a900460ff1660ff1610158015611dc55750600460ff1660036000858152602001908152602001600020600a0160009054906101000a900460ff1660ff1611155b611e04576040517f08c379a0000000000000000000000000000000000000000000000000000000008152600401611dfb90613828565b60405180910390fd5b6000600360008581526020019081526020016000206005018190555060006003600085815260200190815260200160002060060181905550600060036000858152602001908152602001600020600c0160016101000a81548160ff021916908315150217905550611e78836006600061217a565b915081611eba576040517f08c379a0000000000000000000000000000000000000000000000000000000008152600401611eb190612e25565b60405180910390fd5b7fe15e622369f6cd215131b21a6219d8216334c9c314c5293389f99fa06927e60883604051611ee99190613894565b60405180910390a150919050565b60008060405180608001604052803373ffffffffffffffffffffffffffffffffffffffff168152602001846001811115611f3457611f336138c2565b5b8152602001868152602001858152509050806000015173ffffffffffffffffffffffffffffffffffffffff16600080836000015173ffffffffffffffffffffffffffffffffffffffff1673ffffffffffffffffffffffffffffffffffffffff16815260200190815260200160002060000160009054906101000a900473ffffffffffffffffffffffffffffffffffffffff1673ffffffffffffffffffffffffffffffffffffffff16036120855760019150600080826000015173ffffffffffffffffffffffffffffffffffffffff1673ffffffffffffffffffffffffffffffffffffffff16815260200190815260200160002060010160405160200161203a919061399a565b6040516020818303038152906040526040517f08c379a000000000000000000000000000000000000000000000000000000000815260040161207c9190612917565b60405180910390fd5b80600080836000015173ffffffffffffffffffffffffffffffffffffffff1673ffffffffffffffffffffffffffffffffffffffff16815260200190815260200160002060008201518160000160006101000a81548173ffffffffffffffffffffffffffffffffffffffff021916908373ffffffffffffffffffffffffffffffffffffffff16021790555060208201518160000160146101000a81548160ff0219169083600181111561213a576121396138c2565b5b0217905550604082015181600101908161215491906131c9565b50606082015181600201908161216a91906131c9565b5090505060019150509392505050565b60008260036000868152602001908152602001600020600a0160006101000a81548160ff021916908360ff1602179055508160036000868152602001908152602001600020600701819055504260036000868152602001908152602001600020600b0181905550600190509392505050565b606060008203612233576040518060400160405280600181526020017f30000000000000000000000000000000000000000000000000000000000000008152509050612346565b600082905060005b6000821461226557808061224e906139ef565b915050600a8261225e9190613a66565b915061223b565b60008167ffffffffffffffff8111156122815761228061259d565b5b6040519080825280601f01601f1916602001820160405280156122b35781602001600182028036833780820191505090505b5090505b6000851461233f5781806122ca90613a97565b925050600a856122da9190613ac0565b60306122e69190613af1565b60f81b8183815181106122fc576122fb613b25565b5b60200101907effffffffffffffffffffffffffffffffffffffffffffffffffffffffffffff1916908160001a905350600a856123389190613a66565b94506122b7565b8093505050505b919050565b600082841115612390576040517f08c379a000000000000000000000000000000000000000000000000000000000815260040161238790613bc6565b60405180910390fd5b600460058111156123a4576123a36138c2565b5b8260058111156123b7576123b66138c2565b5b036123db57603c84846123ca9190613be6565b6123d49190613a66565b90506124a4565b600360058111156123ef576123ee6138c2565b5b826005811115612402576124016138c2565b5b0361243157603c806124149190613c1a565b84846124209190613be6565b61242a9190613a66565b90506124a3565b60026005811115612445576124446138c2565b5b826005811115612458576124576138c2565b5b03612493576018603c8061246c9190613c1a565b6124769190613c1a565b84846124829190613be6565b61248c9190613a66565b90506124a2565b838361249f9190613be6565b90505b5b5b9392505050565b6000604051905090565b600080fd5b600080fd5b6000819050919050565b6124d2816124bf565b81146124dd57600080fd5b50565b6000813590506124ef816124c9565b92915050565b60006020828403121561250b5761250a6124b5565b5b6000612519848285016124e0565b91505092915050565b60008115159050919050565b61253781612522565b82525050565b6000602082019050612552600083018461252e565b92915050565b612561816124bf565b82525050565b600060208201905061257c6000830184612558565b92915050565b600080fd5b600080fd5b6000601f19601f8301169050919050565b7f4e487b7100000000000000000000000000000000000000000000000000000000600052604160045260246000fd5b6125d58261258c565b810181811067ffffffffffffffff821117156125f4576125f361259d565b5b80604052505050565b60006126076124ab565b905061261382826125cc565b919050565b600067ffffffffffffffff8211156126335761263261259d565b5b61263c8261258c565b9050602081019050919050565b82818337600083830152505050565b600061266b61266684612618565b6125fd565b90508281526020810184848401111561268757612686612587565b5b612692848285612649565b509392505050565b600082601f8301126126af576126ae612582565b5b81356126bf848260208601612658565b91505092915050565b600080604083850312156126df576126de6124b5565b5b600083013567ffffffffffffffff8111156126fd576126fc6124ba565b5b6127098582860161269a565b925050602083013567ffffffffffffffff81111561272a576127296124ba565b5b6127368582860161269a565b9150509250929050565b600060ff82169050919050565b61275681612740565b82525050565b6000602082019050612771600083018461274d565b92915050565b60008060008060008060c08789031215612794576127936124b5565b5b60006127a289828a016124e0565b965050602087013567ffffffffffffffff8111156127c3576127c26124ba565b5b6127cf89828a0161269a565b95505060406127e089828a016124e0565b94505060606127f189828a016124e0565b935050608087013567ffffffffffffffff811115612812576128116124ba565b5b61281e89828a0161269a565b92505060a087013567ffffffffffffffff81111561283f5761283e6124ba565b5b61284b89828a0161269a565b9150509295509295509295565b6000806040838503121561286f5761286e6124b5565b5b600061287d858286016124e0565b925050602061288e858286016124e0565b9150509250929050565b600081519050919050565b600082825260208201905092915050565b60005b838110156128d25780820151818401526020810190506128b7565b60008484015250505050565b60006128e982612898565b6128f381856128a3565b93506129038185602086016128b4565b61290c8161258c565b840191505092915050565b6000602082019050818103600083015261293181846128de565b905092915050565b7f4f7065726174696f6e206e6f7420616c6c6f77656421204f6e6c79204169726c60008201527f696e65204f70657261746f72202f205469636b657420427579657220616c6c6f60208201527f7765640000000000000000000000000000000000000000000000000000000000604082015250565b60006129bb6043836128a3565b91506129c682612939565b606082019050919050565b600060208201905081810360008301526129ea816129ae565b9050919050565b7f214552524f522120437573746f6d657273206e6f7420616c6c6f7765642e0000600082015250565b6000612a27601e836128a3565b9150612a32826129f1565b602082019050919050565b60006020820190508181036000830152612a5681612a1a565b9050919050565b7f496e76616c6964204169726c696e652061646472657373000000000000000000600082015250565b6000612a936017836128a3565b9150612a9e82612a5d565b602082019050919050565b60006020820190508181036000830152612ac281612a86565b9050919050565b7f4661696c656420746f205265676973746572204169726c696e65000000000000600082015250565b6000612aff601a836128a3565b9150612b0a82612ac9565b602082019050919050565b60006020820190508181036000830152612b2e81612af2565b9050919050565b7f444f4d4553544943000000000000000000000000000000000000000000000000600082015250565b6000612b6b6008836128a3565b9150612b7682612b35565b602082019050919050565b60006060820190508181036000830152612b9a81612b5e565b90508181036020830152612bae81856128de565b90508181036040830152612bc281846128de565b90509392505050565b7f494e5445524e4154494f4e414c00000000000000000000000000000000000000600082015250565b6000612c01600d836128a3565b9150612c0c82612bcb565b602082019050919050565b60006060820190508181036000830152612c3081612bf4565b90508181036020830152612c4481856128de565b90508181036040830152612c5881846128de565b90509392505050565b7f4f6e6c7920466c69676874204f7065726174696e67204169726c696e6520616c60008201527f6c6f776564000000000000000000000000000000000000000000000000000000602082015250565b6000612cbd6025836128a3565b9150612cc882612c61565b604082019050919050565b60006020820190508181036000830152612cec81612cb0565b9050919050565b7f466c696768742063616e6e6f7420626520757064617465642e00000000000000600082015250565b6000612d296019836128a3565b9150612d3482612cf3565b602082019050919050565b60006020820190508181036000830152612d5881612d1c565b9050919050565b7f466c6f67687420697320534f4c444f5554000000000000000000000000000000600082015250565b6000612d956011836128a3565b9150612da082612d5f565b602082019050919050565b6000604082019050612dc06000830184612558565b8181036020830152612dd181612d88565b905092915050565b7f4661696c656420746f2075706461746520737461747573000000000000000000600082015250565b6000612e0f6017836128a3565b9150612e1a82612dd9565b602082019050919050565b60006020820190508181036000830152612e3e81612e02565b9050919050565b7f466c6967687420686173204c414e444544000000000000000000000000000000600082015250565b6000612e7b6011836128a3565b9150612e8682612e45565b602082019050919050565b6000604082019050612ea66000830184612558565b8181036020830152612eb781612e6e565b905092915050565b7f4f7065726174696f6e206e6f7420616c6c6f77656421204f6e6c79207265676960008201527f737465726564204169726c696e657320616c6c6f776564000000000000000000602082015250565b6000612f1b6037836128a3565b9150612f2682612ebf565b604082019050919050565b60006020820190508181036000830152612f4a81612f0e565b9050919050565b7f466c6967687420616c7265616479207365747570000000000000000000000000600082015250565b6000612f876014836128a3565b9150612f9282612f51565b602082019050919050565b60006020820190508181036000830152612fb681612f7a565b9050919050565b7f4e487b7100000000000000000000000000000000000000000000000000000000600052602260045260246000fd5b6000600282049050600182168061300457607f821691505b60208210810361301757613016612fbd565b5b50919050565b60008190508160005260206000209050919050565b60006020601f8301049050919050565b600082821b905092915050565b60006008830261307f7fffffffffffffffffffffffffffffffffffffffffffffffffffffffffffffffff82613042565b6130898683613042565b95508019841693508086168417925050509392505050565b6000819050919050565b60006130c66130c16130bc846124bf565b6130a1565b6124bf565b9050919050565b6000819050919050565b6130e0836130ab565b6130f46130ec826130cd565b84845461304f565b825550505050565b600090565b6131096130fc565b6131148184846130d7565b505050565b5b818110156131385761312d600082613101565b60018101905061311a565b5050565b601f82111561317d5761314e8161301d565b61315784613032565b81016020851015613166578190505b61317a61317285613032565b830182613119565b50505b505050565b600082821c905092915050565b60006131a060001984600802613182565b1980831691505092915050565b60006131b9838361318f565b9150826002028217905092915050565b6131d282612898565b67ffffffffffffffff8111156131eb576131ea61259d565b5b6131f58254612fec565b61320082828561313c565b600060209050601f8311600181146132335760008415613221578287015190505b61322b85826131ad565b865550613293565b601f1984166132418661301d565b60005b8281101561326957848901518255600182019150602085019450602081019050613244565b868310156132865784890151613282601f89168261318f565b8355505b6001600288020188555050505b505050505050565b60006040820190506132b06000830185612558565b81810360208301526132c281846128de565b90509392505050565b7f466c69676874206973204f4e2d54494d45000000000000000000000000000000600082015250565b60006133016011836128a3565b915061330c826132cb565b602082019050919050565b600060408201905061332c6000830184612558565b818103602083015261333d816132f4565b905092915050565b7f496e76616c69642064656c61792074696d650000000000000000000000000000600082015250565b600061337b6012836128a3565b915061338682613345565b602082019050919050565b600060208201905081810360008301526133aa8161336e565b9050919050565b7f466c696768742064656c61796564206279200000000000000000000000000000815250565b600081905092915050565b60006133ed82612898565b6133f781856133d7565b93506134078185602086016128b4565b80840191505092915050565b600061341e826133b1565b60128201915061342e82846133e2565b915081905092915050565b7f466c6967687420697320424f415244494e470000000000000000000000000000600082015250565b600061346f6012836128a3565b915061347a82613439565b602082019050919050565b600060408201905061349a6000830184612558565b81810360208301526134ab81613462565b905092915050565b7f4f7065726174696f6e206e6f7420616c6c6f77656421204f6e6c79204169726c60008201527f696e65204f70657261746f7220616c6c6f776564000000000000000000000000602082015250565b600061350f6034836128a3565b915061351a826134b3565b604082019050919050565b6000602082019050818103600083015261353e81613502565b9050919050565b7f556e6b6e6f776e20466c69676874000000000000000000000000000000000000600082015250565b600061357b600e836128a3565b915061358682613545565b602082019050919050565b600060208201905081810360008301526135aa8161356e565b9050919050565b7f202841766c3a2000000000000000000000000000000000000000000000000000815250565b7f2900000000000000000000000000000000000000000000000000000000000000815250565b6000613608826135b1565b60078201915061361882846133e2565b9150613623826135d7565b60018201915081905092915050565b7f5343484544554c45440000000000000000000000000000000000000000000000815250565b600061366382613632565b60098201915061367382846133e2565b915081905092915050565b7f4f4e2d54494d4500000000000000000000000000000000000000000000000000815250565b60006136af8261367e565b6007820191506136bf82846133e2565b915081905092915050565b7f44454c4159454400000000000000000000000000000000000000000000000000815250565b60006136fb826136ca565b60078201915061370b82846133e2565b915081905092915050565b7f424f415244494e47000000000000000000000000000000000000000000000000815250565b600061374782613716565b60088201915061375782846133e2565b915081905092915050565b7f466c6967687420697320494e2d41495200000000000000000000000000000000600082015250565b60006137986010836128a3565b91506137a382613762565b602082019050919050565b60006040820190506137c36000830184612558565b81810360208301526137d48161378b565b905092915050565b7f466c696768742043616e6e6f742062652063616e63656c6c6564000000000000600082015250565b6000613812601a836128a3565b915061381d826137dc565b602082019050919050565b6000602082019050818103600083015261384181613805565b9050919050565b7f466c696768742069732043414e43454c4c454400000000000000000000000000600082015250565b600061387e6013836128a3565b915061388982613848565b602082019050919050565b60006040820190506138a96000830184612558565b81810360208301526138ba81613871565b905092915050565b7f4e487b7100000000000000000000000000000000000000000000000000000000600052602160045260246000fd5b7f4169726c696e6520616c7265616479207365747570202d200000000000000000815250565b6000815461392481612fec565b61392e81866133d7565b94506001821660008114613949576001811461395e57613991565b60ff1983168652811515820286019350613991565b6139678561301d565b60005b838110156139895781548189015260018201915060208101905061396a565b838801955050505b50505092915050565b60006139a5826138f1565b6018820191506139b58284613917565b915081905092915050565b7f4e487b7100000000000000000000000000000000000000000000000000000000600052601160045260246000fd5b60006139fa826124bf565b91507fffffffffffffffffffffffffffffffffffffffffffffffffffffffffffffffff8203613a2c57613a2b6139c0565b5b600182019050919050565b7f4e487b7100000000000000000000000000000000000000000000000000000000600052601260045260246000fd5b6000613a71826124bf565b9150613a7c836124bf565b925082613a8c57613a8b613a37565b5b828204905092915050565b6000613aa2826124bf565b915060008203613ab557613ab46139c0565b5b600182039050919050565b6000613acb826124bf565b9150613ad6836124bf565b925082613ae657613ae5613a37565b5b828206905092915050565b6000613afc826124bf565b9150613b07836124bf565b9250828201905080821115613b1f57613b1e6139c0565b5b92915050565b7f4e487b7100000000000000000000000000000000000000000000000000000000600052603260045260246000fd5b7f214552524f5221206765744461746544696666202d207374617274446174652060008201527f3e20656e64446174650000000000000000000000000000000000000000000000602082015250565b6000613bb06029836128a3565b9150613bbb82613b54565b604082019050919050565b60006020820190508181036000830152613bdf81613ba3565b9050919050565b6000613bf1826124bf565b9150613bfc836124bf565b9250828203905081811115613c1457613c136139c0565b5b92915050565b6000613c25826124bf565b9150613c30836124bf565b9250828202613c3e816124bf565b91508282048414831517613c5557613c546139c0565b5b509291505056fea2646970667358221220c5d0c37d0bbabfec2ba41deed68cd3ad6396b98006197e96f13f2b0924daa3f564736f6c63430008120033",
			"opcodes": "PUSH1 0x80 PUSH1 0x40 MSTORE CALLVALUE DUP1 ISZERO PUSH3 0x11 JUMPI PUSH1 0x0 DUP1 REVERT JUMPDEST POP PUSH1 0x40 MLOAD PUSH3 0x3FBF CODESIZE SUB DUP1 PUSH3 0x3FBF DUP4 CODECOPY DUP2 DUP2 ADD PUSH1 0x40 MSTORE DUP2 ADD SWAP1 PUSH3 0x37 SWAP2 SWAP1 PUSH3 0x1F6 JUMP JUMPDEST PUSH1 0x0 PUSH20 0xFFFFFFFFFFFFFFFFFFFFFFFFFFFFFFFFFFFFFFFF AND DUP2 PUSH20 0xFFFFFFFFFFFFFFFFFFFFFFFFFFFFFFFFFFFFFFFF AND SUB PUSH3 0xA9 JUMPI PUSH1 0x40 MLOAD PUSH32 0x8C379A000000000000000000000000000000000000000000000000000000000 DUP2 MSTORE PUSH1 0x4 ADD PUSH3 0xA0 SWAP1 PUSH3 0x289 JUMP JUMPDEST PUSH1 0x40 MLOAD DUP1 SWAP2 SUB SWAP1 REVERT JUMPDEST DUP1 PUSH1 0x7 PUSH1 0x0 PUSH2 0x100 EXP DUP2 SLOAD DUP2 PUSH20 0xFFFFFFFFFFFFFFFFFFFFFFFFFFFFFFFFFFFFFFFF MUL NOT AND SWAP1 DUP4 PUSH20 0xFFFFFFFFFFFFFFFFFFFFFFFFFFFFFFFFFFFFFFFF AND MUL OR SWAP1 SSTORE POP ADDRESS PUSH1 0x6 PUSH1 0x0 PUSH2 0x100 EXP DUP2 SLOAD DUP2 PUSH20 0xFFFFFFFFFFFFFFFFFFFFFFFFFFFFFFFFFFFFFFFF MUL NOT AND SWAP1 DUP4 PUSH20 0xFFFFFFFFFFFFFFFFFFFFFFFFFFFFFFFFFFFFFFFF AND MUL OR SWAP1 SSTORE POP PUSH5 0xE8D4A51000 PUSH1 0x8 DUP2 SWAP1 SSTORE POP ADDRESS PUSH20 0xFFFFFFFFFFFFFFFFFFFFFFFFFFFFFFFFFFFFFFFF AND PUSH32 0xD1802B86A0633C4679107D4313BAEACAB2FB7391348CA6485DF3F40844B0B07 PUSH1 0x40 MLOAD PUSH3 0x17D SWAP1 PUSH3 0x2FB JUMP JUMPDEST PUSH1 0x40 MLOAD DUP1 SWAP2 SUB SWAP1 LOG2 POP PUSH3 0x31D JUMP JUMPDEST PUSH1 0x0 DUP1 REVERT JUMPDEST PUSH1 0x0 PUSH20 0xFFFFFFFFFFFFFFFFFFFFFFFFFFFFFFFFFFFFFFFF DUP3 AND SWAP1 POP SWAP2 SWAP1 POP JUMP JUMPDEST PUSH1 0x0 PUSH3 0x1BE DUP3 PUSH3 0x191 JUMP JUMPDEST SWAP1 POP SWAP2 SWAP1 POP JUMP JUMPDEST PUSH3 0x1D0 DUP2 PUSH3 0x1B1 JUMP JUMPDEST DUP2 EQ PUSH3 0x1DC JUMPI PUSH1 0x0 DUP1 REVERT JUMPDEST POP JUMP JUMPDEST PUSH1 0x0 DUP2 MLOAD SWAP1 POP PUSH3 0x1F0 DUP2 PUSH3 0x1C5 JUMP JUMPDEST SWAP3 SWAP2 POP POP JUMP JUMPDEST PUSH1 0x0 PUSH1 0x20 DUP3 DUP5 SUB SLT ISZERO PUSH3 0x20F JUMPI PUSH3 0x20E PUSH3 0x18C JUMP JUMPDEST JUMPDEST PUSH1 0x0 PUSH3 0x21F DUP5 DUP3 DUP6 ADD PUSH3 0x1DF JUMP JUMPDEST SWAP2 POP POP SWAP3 SWAP2 POP POP JUMP JUMPDEST PUSH1 0x0 DUP3 DUP3 MSTORE PUSH1 0x20 DUP3 ADD SWAP1 POP SWAP3 SWAP2 POP POP JUMP JUMPDEST PUSH32 0x4572726F723A2053757065722055736572207265717569726564000000000000 PUSH1 0x0 DUP3 ADD MSTORE POP JUMP JUMPDEST PUSH1 0x0 PUSH3 0x271 PUSH1 0x1A DUP4 PUSH3 0x228 JUMP JUMPDEST SWAP2 POP PUSH3 0x27E DUP3 PUSH3 0x239 JUMP JUMPDEST PUSH1 0x20 DUP3 ADD SWAP1 POP SWAP2 SWAP1 POP JUMP JUMPDEST PUSH1 0x0 PUSH1 0x20 DUP3 ADD SWAP1 POP DUP2 DUP2 SUB PUSH1 0x0 DUP4 ADD MSTORE PUSH3 0x2A4 DUP2 PUSH3 0x262 JUMP JUMPDEST SWAP1 POP SWAP2 SWAP1 POP JUMP JUMPDEST PUSH32 0x4561676C654169726C696E650000000000000000000000000000000000000000 PUSH1 0x0 DUP3 ADD MSTORE POP JUMP JUMPDEST PUSH1 0x0 PUSH3 0x2E3 PUSH1 0xC DUP4 PUSH3 0x228 JUMP JUMPDEST SWAP2 POP PUSH3 0x2F0 DUP3 PUSH3 0x2AB JUMP JUMPDEST PUSH1 0x20 DUP3 ADD SWAP1 POP SWAP2 SWAP1 POP JUMP JUMPDEST PUSH1 0x0 PUSH1 0x20 DUP3 ADD SWAP1 POP DUP2 DUP2 SUB PUSH1 0x0 DUP4 ADD MSTORE PUSH3 0x316 DUP2 PUSH3 0x2D4 JUMP JUMPDEST SWAP1 POP SWAP2 SWAP1 POP JUMP JUMPDEST PUSH2 0x3C92 DUP1 PUSH3 0x32D PUSH1 0x0 CODECOPY PUSH1 0x0 RETURN INVALID PUSH1 0x80 PUSH1 0x40 MSTORE CALLVALUE DUP1 ISZERO PUSH2 0x10 JUMPI PUSH1 0x0 DUP1 REVERT JUMPDEST POP PUSH1 0x4 CALLDATASIZE LT PUSH2 0x10B JUMPI PUSH1 0x0 CALLDATALOAD PUSH1 0xE0 SHR DUP1 PUSH4 0x9358819F GT PUSH2 0xA2 JUMPI DUP1 PUSH4 0xBD9E8BC1 GT PUSH2 0x71 JUMPI DUP1 PUSH4 0xBD9E8BC1 EQ PUSH2 0x31A JUMPI DUP1 PUSH4 0xDAC87CA4 EQ PUSH2 0x34A JUMPI DUP1 PUSH4 0xE9EF9D1D EQ PUSH2 0x37A JUMPI DUP1 PUSH4 0xEAB91B22 EQ PUSH2 0x3AA JUMPI DUP1 PUSH4 0xF9C46BA0 EQ PUSH2 0x3DA JUMPI PUSH2 0x10B JUMP JUMPDEST DUP1 PUSH4 0x9358819F EQ PUSH2 0x26C JUMPI DUP1 PUSH4 0x944AE8D8 EQ PUSH2 0x28A JUMPI DUP1 PUSH4 0x9DED7DF8 EQ PUSH2 0x2BA JUMPI DUP1 PUSH4 0x9E85C20E EQ PUSH2 0x2EA JUMPI PUSH2 0x10B JUMP JUMPDEST DUP1 PUSH4 0x6017366E GT PUSH2 0xDE JUMPI DUP1 PUSH4 0x6017366E EQ PUSH2 0x1BE JUMPI DUP1 PUSH4 0x66FD1B35 EQ PUSH2 0x1EE JUMPI DUP1 PUSH4 0x8A2DB32F EQ PUSH2 0x21E JUMPI DUP1 PUSH4 0x8DDB3447 EQ PUSH2 0x24E JUMPI PUSH2 0x10B JUMP JUMPDEST DUP1 PUSH4 0xCBAAFC6 EQ PUSH2 0x110 JUMPI DUP1 PUSH4 0x1C84F602 EQ PUSH2 0x140 JUMPI DUP1 PUSH4 0x21CF5DA3 EQ PUSH2 0x15E JUMPI DUP1 PUSH4 0x5C00DA60 EQ PUSH2 0x18E JUMPI JUMPDEST PUSH1 0x0 DUP1 REVERT JUMPDEST PUSH2 0x12A PUSH1 0x4 DUP1 CALLDATASIZE SUB DUP2 ADD SWAP1 PUSH2 0x125 SWAP2 SWAP1 PUSH2 0x24F5 JUMP JUMPDEST PUSH2 0x40A JUMP JUMPDEST PUSH1 0x40 MLOAD PUSH2 0x137 SWAP2 SWAP1 PUSH2 0x253D JUMP JUMPDEST PUSH1 0x40 MLOAD DUP1 SWAP2 SUB SWAP1 RETURN JUMPDEST PUSH2 0x148 PUSH2 0x5AE JUMP JUMPDEST PUSH1 0x40 MLOAD PUSH2 0x155 SWAP2 SWAP1 PUSH2 0x2567 JUMP JUMPDEST PUSH1 0x40 MLOAD DUP1 SWAP2 SUB SWAP1 RETURN JUMPDEST PUSH2 0x178 PUSH1 0x4 DUP1 CALLDATASIZE SUB DUP2 ADD SWAP1 PUSH2 0x173 SWAP2 SWAP1 PUSH2 0x26C8 JUMP JUMPDEST PUSH2 0x5BA JUMP JUMPDEST PUSH1 0x40 MLOAD PUSH2 0x185 SWAP2 SWAP1 PUSH2 0x253D JUMP JUMPDEST PUSH1 0x40 MLOAD DUP1 SWAP2 SUB SWAP1 RETURN JUMPDEST PUSH2 0x1A8 PUSH1 0x4 DUP1 CALLDATASIZE SUB DUP2 ADD SWAP1 PUSH2 0x1A3 SWAP2 SWAP1 PUSH2 0x26C8 JUMP JUMPDEST PUSH2 0x788 JUMP JUMPDEST PUSH1 0x40 MLOAD PUSH2 0x1B5 SWAP2 SWAP1 PUSH2 0x253D JUMP JUMPDEST PUSH1 0x40 MLOAD DUP1 SWAP2 SUB SWAP1 RETURN JUMPDEST PUSH2 0x1D8 PUSH1 0x4 DUP1 CALLDATASIZE SUB DUP2 ADD SWAP1 PUSH2 0x1D3 SWAP2 SWAP1 PUSH2 0x24F5 JUMP JUMPDEST PUSH2 0x956 JUMP JUMPDEST PUSH1 0x40 MLOAD PUSH2 0x1E5 SWAP2 SWAP1 PUSH2 0x253D JUMP JUMPDEST PUSH1 0x40 MLOAD DUP1 SWAP2 SUB SWAP1 RETURN JUMPDEST PUSH2 0x208 PUSH1 0x4 DUP1 CALLDATASIZE SUB DUP2 ADD SWAP1 PUSH2 0x203 SWAP2 SWAP1 PUSH2 0x24F5 JUMP JUMPDEST PUSH2 0xB2B JUMP JUMPDEST PUSH1 0x40 MLOAD PUSH2 0x215 SWAP2 SWAP1 PUSH2 0x253D JUMP JUMPDEST PUSH1 0x40 MLOAD DUP1 SWAP2 SUB SWAP1 RETURN JUMPDEST PUSH2 0x238 PUSH1 0x4 DUP1 CALLDATASIZE SUB DUP2 ADD SWAP1 PUSH2 0x233 SWAP2 SWAP1 PUSH2 0x24F5 JUMP JUMPDEST PUSH2 0xD14 JUMP JUMPDEST PUSH1 0x40 MLOAD PUSH2 0x245 SWAP2 SWAP1 PUSH2 0x253D JUMP JUMPDEST PUSH1 0x40 MLOAD DUP1 SWAP2 SUB SWAP1 RETURN JUMPDEST PUSH2 0x256 PUSH2 0xEB8 JUMP JUMPDEST PUSH1 0x40 MLOAD PUSH2 0x263 SWAP2 SWAP1 PUSH2 0x2567 JUMP JUMPDEST PUSH1 0x40 MLOAD DUP1 SWAP2 SUB SWAP1 RETURN JUMPDEST PUSH2 0x274 PUSH2 0xEC5 JUMP JUMPDEST PUSH1 0x40 MLOAD PUSH2 0x281 SWAP2 SWAP1 PUSH2 0x275C JUMP JUMPDEST PUSH1 0x40 MLOAD DUP1 SWAP2 SUB SWAP1 RETURN JUMPDEST PUSH2 0x2A4 PUSH1 0x4 DUP1 CALLDATASIZE SUB DUP2 ADD SWAP1 PUSH2 0x29F SWAP2 SWAP1 PUSH2 0x2777 JUMP JUMPDEST PUSH2 0xECA JUMP JUMPDEST PUSH1 0x40 MLOAD PUSH2 0x2B1 SWAP2 SWAP1 PUSH2 0x253D JUMP JUMPDEST PUSH1 0x40 MLOAD DUP1 SWAP2 SUB SWAP1 RETURN JUMPDEST PUSH2 0x2D4 PUSH1 0x4 DUP1 CALLDATASIZE SUB DUP2 ADD SWAP1 PUSH2 0x2CF SWAP2 SWAP1 PUSH2 0x24F5 JUMP JUMPDEST PUSH2 0x1213 JUMP JUMPDEST PUSH1 0x40 MLOAD PUSH2 0x2E1 SWAP2 SWAP1 PUSH2 0x253D JUMP JUMPDEST PUSH1 0x40 MLOAD DUP1 SWAP2 SUB SWAP1 RETURN JUMPDEST PUSH2 0x304 PUSH1 0x4 DUP1 CALLDATASIZE SUB DUP2 ADD SWAP1 PUSH2 0x2FF SWAP2 SWAP1 PUSH2 0x2858 JUMP JUMPDEST PUSH2 0x134A JUMP JUMPDEST PUSH1 0x40 MLOAD PUSH2 0x311 SWAP2 SWAP1 PUSH2 0x253D JUMP JUMPDEST PUSH1 0x40 MLOAD DUP1 SWAP2 SUB SWAP1 RETURN JUMPDEST PUSH2 0x334 PUSH1 0x4 DUP1 CALLDATASIZE SUB DUP2 ADD SWAP1 PUSH2 0x32F SWAP2 SWAP1 PUSH2 0x24F5 JUMP JUMPDEST PUSH2 0x14E9 JUMP JUMPDEST PUSH1 0x40 MLOAD PUSH2 0x341 SWAP2 SWAP1 PUSH2 0x253D JUMP JUMPDEST PUSH1 0x40 MLOAD DUP1 SWAP2 SUB SWAP1 RETURN JUMPDEST PUSH2 0x364 PUSH1 0x4 DUP1 CALLDATASIZE SUB DUP2 ADD SWAP1 PUSH2 0x35F SWAP2 SWAP1 PUSH2 0x24F5 JUMP JUMPDEST PUSH2 0x164B JUMP JUMPDEST PUSH1 0x40 MLOAD PUSH2 0x371 SWAP2 SWAP1 PUSH2 0x253D JUMP JUMPDEST PUSH1 0x40 MLOAD DUP1 SWAP2 SUB SWAP1 RETURN JUMPDEST PUSH2 0x394 PUSH1 0x4 DUP1 CALLDATASIZE SUB DUP2 ADD SWAP1 PUSH2 0x38F SWAP2 SWAP1 PUSH2 0x24F5 JUMP JUMPDEST PUSH2 0x1783 JUMP JUMPDEST PUSH1 0x40 MLOAD PUSH2 0x3A1 SWAP2 SWAP1 PUSH2 0x2917 JUMP JUMPDEST PUSH1 0x40 MLOAD DUP1 SWAP2 SUB SWAP1 RETURN JUMPDEST PUSH2 0x3C4 PUSH1 0x4 DUP1 CALLDATASIZE SUB DUP2 ADD SWAP1 PUSH2 0x3BF SWAP2 SWAP1 PUSH2 0x24F5 JUMP JUMPDEST PUSH2 0x1B30 JUMP JUMPDEST PUSH1 0x40 MLOAD PUSH2 0x3D1 SWAP2 SWAP1 PUSH2 0x253D JUMP JUMPDEST PUSH1 0x40 MLOAD DUP1 SWAP2 SUB SWAP1 RETURN JUMPDEST PUSH2 0x3F4 PUSH1 0x4 DUP1 CALLDATASIZE SUB DUP2 ADD SWAP1 PUSH2 0x3EF SWAP2 SWAP1 PUSH2 0x24F5 JUMP JUMPDEST PUSH2 0x1CBA JUMP JUMPDEST PUSH1 0x40 MLOAD PUSH2 0x401 SWAP2 SWAP1 PUSH2 0x253D JUMP JUMPDEST PUSH1 0x40 MLOAD DUP1 SWAP2 SUB SWAP1 RETURN JUMPDEST PUSH1 0x0 DUP2 PUSH1 0x3 PUSH1 0x0 PUSH1 0x2 PUSH1 0x0 DUP5 DUP2 MSTORE PUSH1 0x20 ADD SWAP1 DUP2 MSTORE PUSH1 0x20 ADD PUSH1 0x0 KECCAK256 PUSH1 0x2 ADD SLOAD DUP2 MSTORE PUSH1 0x20 ADD SWAP1 DUP2 MSTORE PUSH1 0x20 ADD PUSH1 0x0 KECCAK256 PUSH1 0x1 ADD PUSH1 0x0 SWAP1 SLOAD SWAP1 PUSH2 0x100 EXP SWAP1 DIV PUSH20 0xFFFFFFFFFFFFFFFFFFFFFFFFFFFFFFFFFFFFFFFF AND PUSH20 0xFFFFFFFFFFFFFFFFFFFFFFFFFFFFFFFFFFFFFFFF AND CALLER PUSH20 0xFFFFFFFFFFFFFFFFFFFFFFFFFFFFFFFFFFFFFFFF AND EQ DUP1 PUSH2 0x4F4 JUMPI POP PUSH1 0x2 PUSH1 0x0 DUP3 DUP2 MSTORE PUSH1 0x20 ADD SWAP1 DUP2 MSTORE PUSH1 0x20 ADD PUSH1 0x0 KECCAK256 PUSH1 0x1 ADD PUSH1 0x0 SWAP1 SLOAD SWAP1 PUSH2 0x100 EXP SWAP1 DIV PUSH20 0xFFFFFFFFFFFFFFFFFFFFFFFFFFFFFFFFFFFFFFFF AND PUSH20 0xFFFFFFFFFFFFFFFFFFFFFFFFFFFFFFFFFFFFFFFF AND CALLER PUSH20 0xFFFFFFFFFFFFFFFFFFFFFFFFFFFFFFFFFFFFFFFF AND EQ JUMPDEST PUSH2 0x533 JUMPI PUSH1 0x40 MLOAD PUSH32 0x8C379A000000000000000000000000000000000000000000000000000000000 DUP2 MSTORE PUSH1 0x4 ADD PUSH2 0x52A SWAP1 PUSH2 0x29D1 JUMP JUMPDEST PUSH1 0x40 MLOAD DUP1 SWAP2 SUB SWAP1 REVERT JUMPDEST PUSH1 0x0 SWAP2 POP PUSH1 0x0 PUSH1 0x40 MLOAD DUP1 PUSH1 0x40 ADD PUSH1 0x40 MSTORE DUP1 PUSH1 0x1D DUP2 MSTORE PUSH1 0x20 ADD PUSH32 0x21544F444F212050656E64696E6720696D706C656D656E746174696F6E000000 DUP2 MSTORE POP SWAP1 POP DUP1 PUSH1 0x40 MLOAD PUSH32 0x8C379A000000000000000000000000000000000000000000000000000000000 DUP2 MSTORE PUSH1 0x4 ADD PUSH2 0x5A5 SWAP2 SWAP1 PUSH2 0x2917 JUMP JUMPDEST PUSH1 0x40 MLOAD DUP1 SWAP2 SUB SWAP1 REVERT JUMPDEST PUSH8 0x8AC7230489E80000 DUP2 JUMP JUMPDEST PUSH1 0x0 PUSH1 0x1 PUSH1 0x0 CALLER PUSH20 0xFFFFFFFFFFFFFFFFFFFFFFFFFFFFFFFFFFFFFFFF AND PUSH20 0xFFFFFFFFFFFFFFFFFFFFFFFFFFFFFFFFFFFFFFFF AND DUP2 MSTORE PUSH1 0x20 ADD SWAP1 DUP2 MSTORE PUSH1 0x20 ADD PUSH1 0x0 KECCAK256 PUSH1 0x0 ADD PUSH1 0x0 SWAP1 SLOAD SWAP1 PUSH2 0x100 EXP SWAP1 DIV PUSH20 0xFFFFFFFFFFFFFFFFFFFFFFFFFFFFFFFFFFFFFFFF AND PUSH20 0xFFFFFFFFFFFFFFFFFFFFFFFFFFFFFFFFFFFFFFFF AND CALLER PUSH20 0xFFFFFFFFFFFFFFFFFFFFFFFFFFFFFFFFFFFFFFFF AND SUB PUSH2 0x68C JUMPI PUSH1 0x40 MLOAD PUSH32 0x8C379A000000000000000000000000000000000000000000000000000000000 DUP2 MSTORE PUSH1 0x4 ADD PUSH2 0x683 SWAP1 PUSH2 0x2A3D JUMP JUMPDEST PUSH1 0x40 MLOAD DUP1 SWAP2 SUB SWAP1 REVERT JUMPDEST PUSH1 0x0 PUSH20 0xFFFFFFFFFFFFFFFFFFFFFFFFFFFFFFFFFFFFFFFF AND CALLER PUSH20 0xFFFFFFFFFFFFFFFFFFFFFFFFFFFFFFFFFFFFFFFF AND SUB PUSH2 0x6FB JUMPI PUSH1 0x40 MLOAD PUSH32 0x8C379A000000000000000000000000000000000000000000000000000000000 DUP2 MSTORE PUSH1 0x4 ADD PUSH2 0x6F2 SWAP1 PUSH2 0x2AA9 JUMP JUMPDEST PUSH1 0x40 MLOAD DUP1 SWAP2 SUB SWAP1 REVERT JUMPDEST PUSH2 0x707 DUP4 DUP4 PUSH1 0x0 PUSH2 0x1EF7 JUMP JUMPDEST SWAP1 POP DUP1 PUSH2 0x749 JUMPI PUSH1 0x40 MLOAD PUSH32 0x8C379A000000000000000000000000000000000000000000000000000000000 DUP2 MSTORE PUSH1 0x4 ADD PUSH2 0x740 SWAP1 PUSH2 0x2B15 JUMP JUMPDEST PUSH1 0x40 MLOAD DUP1 SWAP2 SUB SWAP1 REVERT JUMPDEST PUSH32 0x3E35EF8ABC5962B8E095BFA68DF9ED13FE44F49EB60E4B3777374D855C38ABA4 DUP4 DUP4 PUSH1 0x40 MLOAD PUSH2 0x77A SWAP3 SWAP2 SWAP1 PUSH2 0x2B81 JUMP JUMPDEST PUSH1 0x40 MLOAD DUP1 SWAP2 SUB SWAP1 LOG1 SWAP3 SWAP2 POP POP JUMP JUMPDEST PUSH1 0x0 PUSH1 0x1 PUSH1 0x0 CALLER PUSH20 0xFFFFFFFFFFFFFFFFFFFFFFFFFFFFFFFFFFFFFFFF AND PUSH20 0xFFFFFFFFFFFFFFFFFFFFFFFFFFFFFFFFFFFFFFFF AND DUP2 MSTORE PUSH1 0x20 ADD SWAP1 DUP2 MSTORE PUSH1 0x20 ADD PUSH1 0x0 KECCAK256 PUSH1 0x0 ADD PUSH1 0x0 SWAP1 SLOAD SWAP1 PUSH2 0x100 EXP SWAP1 DIV PUSH20 0xFFFFFFFFFFFFFFFFFFFFFFFFFFFFFFFFFFFFFFFF AND PUSH20 0xFFFFFFFFFFFFFFFFFFFFFFFFFFFFFFFFFFFFFFFF AND CALLER PUSH20 0xFFFFFFFFFFFFFFFFFFFFFFFFFFFFFFFFFFFFFFFF AND SUB PUSH2 0x85A JUMPI PUSH1 0x40 MLOAD PUSH32 0x8C379A000000000000000000000000000000000000000000000000000000000 DUP2 MSTORE PUSH1 0x4 ADD PUSH2 0x851 SWAP1 PUSH2 0x2A3D JUMP JUMPDEST PUSH1 0x40 MLOAD DUP1 SWAP2 SUB SWAP1 REVERT JUMPDEST PUSH1 0x0 PUSH20 0xFFFFFFFFFFFFFFFFFFFFFFFFFFFFFFFFFFFFFFFF AND CALLER PUSH20 0xFFFFFFFFFFFFFFFFFFFFFFFFFFFFFFFFFFFFFFFF AND SUB PUSH2 0x8C9 JUMPI PUSH1 0x40 MLOAD PUSH32 0x8C379A000000000000000000000000000000000000000000000000000000000 DUP2 MSTORE PUSH1 0x4 ADD PUSH2 0x8C0 SWAP1 PUSH2 0x2AA9 JUMP JUMPDEST PUSH1 0x40 MLOAD DUP1 SWAP2 SUB SWAP1 REVERT JUMPDEST PUSH2 0x8D5 DUP4 DUP4 PUSH1 0x1 PUSH2 0x1EF7 JUMP JUMPDEST SWAP1 POP DUP1 PUSH2 0x917 JUMPI PUSH1 0x40 MLOAD PUSH32 0x8C379A000000000000000000000000000000000000000000000000000000000 DUP2 MSTORE PUSH1 0x4 ADD PUSH2 0x90E SWAP1 PUSH2 0x2B15 JUMP JUMPDEST PUSH1 0x40 MLOAD DUP1 SWAP2 SUB SWAP1 REVERT JUMPDEST PUSH32 0x3E35EF8ABC5962B8E095BFA68DF9ED13FE44F49EB60E4B3777374D855C38ABA4 DUP4 DUP4 PUSH1 0x40 MLOAD PUSH2 0x948 SWAP3 SWAP2 SWAP1 PUSH2 0x2C17 JUMP JUMPDEST PUSH1 0x40 MLOAD DUP1 SWAP2 SUB SWAP1 LOG1 SWAP3 SWAP2 POP POP JUMP JUMPDEST PUSH1 0x0 DUP2 PUSH1 0x3 PUSH1 0x0 DUP3 DUP2 MSTORE PUSH1 0x20 ADD SWAP1 DUP2 MSTORE PUSH1 0x20 ADD PUSH1 0x0 KECCAK256 PUSH1 0x1 ADD PUSH1 0x0 SWAP1 SLOAD SWAP1 PUSH2 0x100 EXP SWAP1 DIV PUSH20 0xFFFFFFFFFFFFFFFFFFFFFFFFFFFFFFFFFFFFFFFF AND PUSH20 0xFFFFFFFFFFFFFFFFFFFFFFFFFFFFFFFFFFFFFFFF AND CALLER PUSH20 0xFFFFFFFFFFFFFFFFFFFFFFFFFFFFFFFFFFFFFFFF AND SUB PUSH2 0x9FD JUMPI PUSH1 0x40 MLOAD PUSH32 0x8C379A000000000000000000000000000000000000000000000000000000000 DUP2 MSTORE PUSH1 0x4 ADD PUSH2 0x9F4 SWAP1 PUSH2 0x2CD3 JUMP JUMPDEST PUSH1 0x40 MLOAD DUP1 SWAP2 SUB SWAP1 REVERT JUMPDEST PUSH1 0x1 PUSH1 0xFF AND PUSH1 0x3 PUSH1 0x0 DUP6 DUP2 MSTORE PUSH1 0x20 ADD SWAP1 DUP2 MSTORE PUSH1 0x20 ADD PUSH1 0x0 KECCAK256 PUSH1 0xA ADD PUSH1 0x0 SWAP1 SLOAD SWAP1 PUSH2 0x100 EXP SWAP1 DIV PUSH1 0xFF AND PUSH1 0xFF AND LT ISZERO DUP1 ISZERO PUSH2 0xA61 JUMPI POP PUSH1 0x4 PUSH1 0xFF AND PUSH1 0x3 PUSH1 0x0 DUP6 DUP2 MSTORE PUSH1 0x20 ADD SWAP1 DUP2 MSTORE PUSH1 0x20 ADD PUSH1 0x0 KECCAK256 PUSH1 0xA ADD PUSH1 0x0 SWAP1 SLOAD SWAP1 PUSH2 0x100 EXP SWAP1 DIV PUSH1 0xFF AND PUSH1 0xFF AND GT ISZERO JUMPDEST PUSH2 0xAA0 JUMPI PUSH1 0x40 MLOAD PUSH32 0x8C379A000000000000000000000000000000000000000000000000000000000 DUP2 MSTORE PUSH1 0x4 ADD PUSH2 0xA97 SWAP1 PUSH2 0x2D3F JUMP JUMPDEST PUSH1 0x40 MLOAD DUP1 SWAP2 SUB SWAP1 REVERT JUMPDEST PUSH1 0x0 PUSH1 0x3 PUSH1 0x0 DUP6 DUP2 MSTORE PUSH1 0x20 ADD SWAP1 DUP2 MSTORE PUSH1 0x20 ADD PUSH1 0x0 KECCAK256 PUSH1 0xC ADD PUSH1 0x1 PUSH2 0x100 EXP DUP2 SLOAD DUP2 PUSH1 0xFF MUL NOT AND SWAP1 DUP4 ISZERO ISZERO MUL OR SWAP1 SSTORE POP TIMESTAMP PUSH1 0x3 PUSH1 0x0 DUP6 DUP2 MSTORE PUSH1 0x20 ADD SWAP1 DUP2 MSTORE PUSH1 0x20 ADD PUSH1 0x0 KECCAK256 PUSH1 0xB ADD DUP2 SWAP1 SSTORE POP PUSH1 0x1 SWAP2 POP PUSH32 0xE15E622369F6CD215131B21A6219D8216334C9C314C5293389F99FA06927E608 DUP4 PUSH1 0x40 MLOAD PUSH2 0xB1D SWAP2 SWAP1 PUSH2 0x2DAB JUMP JUMPDEST PUSH1 0x40 MLOAD DUP1 SWAP2 SUB SWAP1 LOG1 POP SWAP2 SWAP1 POP JUMP JUMPDEST PUSH1 0x0 DUP2 PUSH1 0x3 PUSH1 0x0 DUP3 DUP2 MSTORE PUSH1 0x20 ADD SWAP1 DUP2 MSTORE PUSH1 0x20 ADD PUSH1 0x0 KECCAK256 PUSH1 0x1 ADD PUSH1 0x0 SWAP1 SLOAD SWAP1 PUSH2 0x100 EXP SWAP1 DIV PUSH20 0xFFFFFFFFFFFFFFFFFFFFFFFFFFFFFFFFFFFFFFFF AND PUSH20 0xFFFFFFFFFFFFFFFFFFFFFFFFFFFFFFFFFFFFFFFF AND CALLER PUSH20 0xFFFFFFFFFFFFFFFFFFFFFFFFFFFFFFFFFFFFFFFF AND SUB PUSH2 0xBD2 JUMPI PUSH1 0x40 MLOAD PUSH32 0x8C379A000000000000000000000000000000000000000000000000000000000 DUP2 MSTORE PUSH1 0x4 ADD PUSH2 0xBC9 SWAP1 PUSH2 0x2CD3 JUMP JUMPDEST PUSH1 0x40 MLOAD DUP1 SWAP2 SUB SWAP1 REVERT JUMPDEST PUSH1 0x5 PUSH1 0xFF AND PUSH1 0x3 PUSH1 0x0 DUP6 DUP2 MSTORE PUSH1 0x20 ADD SWAP1 DUP2 MSTORE PUSH1 0x20 ADD PUSH1 0x0 KECCAK256 PUSH1 0xA ADD PUSH1 0x0 SWAP1 SLOAD SWAP1 PUSH2 0x100 EXP SWAP1 DIV PUSH1 0xFF AND PUSH1 0xFF AND EQ PUSH2 0xC3E JUMPI PUSH1 0x40 MLOAD PUSH32 0x8C379A000000000000000000000000000000000000000000000000000000000 DUP2 MSTORE PUSH1 0x4 ADD PUSH2 0xC35 SWAP1 PUSH2 0x2D3F JUMP JUMPDEST PUSH1 0x40 MLOAD DUP1 SWAP2 SUB SWAP1 REVERT JUMPDEST TIMESTAMP PUSH1 0x3 PUSH1 0x0 DUP6 DUP2 MSTORE PUSH1 0x20 ADD SWAP1 DUP2 MSTORE PUSH1 0x20 ADD PUSH1 0x0 KECCAK256 PUSH1 0x6 ADD DUP2 SWAP1 SSTORE POP PUSH1 0x0 PUSH1 0x3 PUSH1 0x0 DUP6 DUP2 MSTORE PUSH1 0x20 ADD SWAP1 DUP2 MSTORE PUSH1 0x20 ADD PUSH1 0x0 KECCAK256 PUSH1 0xC ADD PUSH1 0x1 PUSH2 0x100 EXP DUP2 SLOAD DUP2 PUSH1 0xFF MUL NOT AND SWAP1 DUP4 ISZERO ISZERO MUL OR SWAP1 SSTORE POP PUSH2 0xC95 DUP4 PUSH1 0x7 PUSH1 0x0 PUSH2 0x217A JUMP JUMPDEST SWAP2 POP DUP2 PUSH2 0xCD7 JUMPI PUSH1 0x40 MLOAD PUSH32 0x8C379A000000000000000000000000000000000000000000000000000000000 DUP2 MSTORE PUSH1 0x4 ADD PUSH2 0xCCE SWAP1 PUSH2 0x2E25 JUMP JUMPDEST PUSH1 0x40 MLOAD DUP1 SWAP2 SUB SWAP1 REVERT JUMPDEST PUSH32 0xE15E622369F6CD215131B21A6219D8216334C9C314C5293389F99FA06927E608 DUP4 PUSH1 0x40 MLOAD PUSH2 0xD06 SWAP2 SWAP1 PUSH2 0x2E91 JUMP JUMPDEST PUSH1 0x40 MLOAD DUP1 SWAP2 SUB SWAP1 LOG1 POP SWAP2 SWAP1 POP JUMP JUMPDEST PUSH1 0x0 DUP2 PUSH1 0x3 PUSH1 0x0 PUSH1 0x2 PUSH1 0x0 DUP5 DUP2 MSTORE PUSH1 0x20 ADD SWAP1 DUP2 MSTORE PUSH1 0x20 ADD PUSH1 0x0 KECCAK256 PUSH1 0x2 ADD SLOAD DUP2 MSTORE PUSH1 0x20 ADD SWAP1 DUP2 MSTORE PUSH1 0x20 ADD PUSH1 0x0 KECCAK256 PUSH1 0x1 ADD PUSH1 0x0 SWAP1 SLOAD SWAP1 PUSH2 0x100 EXP SWAP1 DIV PUSH20 0xFFFFFFFFFFFFFFFFFFFFFFFFFFFFFFFFFFFFFFFF AND PUSH20 0xFFFFFFFFFFFFFFFFFFFFFFFFFFFFFFFFFFFFFFFF AND CALLER PUSH20 0xFFFFFFFFFFFFFFFFFFFFFFFFFFFFFFFFFFFFFFFF AND EQ DUP1 PUSH2 0xDFE JUMPI POP PUSH1 0x2 PUSH1 0x0 DUP3 DUP2 MSTORE PUSH1 0x20 ADD SWAP1 DUP2 MSTORE PUSH1 0x20 ADD PUSH1 0x0 KECCAK256 PUSH1 0x1 ADD PUSH1 0x0 SWAP1 SLOAD SWAP1 PUSH2 0x100 EXP SWAP1 DIV PUSH20 0xFFFFFFFFFFFFFFFFFFFFFFFFFFFFFFFFFFFFFFFF AND PUSH20 0xFFFFFFFFFFFFFFFFFFFFFFFFFFFFFFFFFFFFFFFF AND CALLER PUSH20 0xFFFFFFFFFFFFFFFFFFFFFFFFFFFFFFFFFFFFFFFF AND EQ JUMPDEST PUSH2 0xE3D JUMPI PUSH1 0x40 MLOAD PUSH32 0x8C379A000000000000000000000000000000000000000000000000000000000 DUP2 MSTORE PUSH1 0x4 ADD PUSH2 0xE34 SWAP1 PUSH2 0x29D1 JUMP JUMPDEST PUSH1 0x40 MLOAD DUP1 SWAP2 SUB SWAP1 REVERT JUMPDEST PUSH1 0x0 SWAP2 POP PUSH1 0x0 PUSH1 0x40 MLOAD DUP1 PUSH1 0x40 ADD PUSH1 0x40 MSTORE DUP1 PUSH1 0x1D DUP2 MSTORE PUSH1 0x20 ADD PUSH32 0x21544F444F212050656E64696E6720696D706C656D656E746174696F6E000000 DUP2 MSTORE POP SWAP1 POP DUP1 PUSH1 0x40 MLOAD PUSH32 0x8C379A000000000000000000000000000000000000000000000000000000000 DUP2 MSTORE PUSH1 0x4 ADD PUSH2 0xEAF SWAP2 SWAP1 PUSH2 0x2917 JUMP JUMPDEST PUSH1 0x40 MLOAD DUP1 SWAP2 SUB SWAP1 REVERT JUMPDEST PUSH9 0x2B5E3AF16B1880000 DUP2 JUMP JUMPDEST PUSH1 0x64 DUP2 JUMP JUMPDEST PUSH1 0x0 DUP1 PUSH1 0x0 CALLER PUSH20 0xFFFFFFFFFFFFFFFFFFFFFFFFFFFFFFFFFFFFFFFF AND PUSH20 0xFFFFFFFFFFFFFFFFFFFFFFFFFFFFFFFFFFFFFFFF AND DUP2 MSTORE PUSH1 0x20 ADD SWAP1 DUP2 MSTORE PUSH1 0x20 ADD PUSH1 0x0 KECCAK256 PUSH1 0x0 ADD PUSH1 0x0 SWAP1 SLOAD SWAP1 PUSH2 0x100 EXP SWAP1 DIV PUSH20 0xFFFFFFFFFFFFFFFFFFFFFFFFFFFFFFFFFFFFFFFF AND PUSH20 0xFFFFFFFFFFFFFFFFFFFFFFFFFFFFFFFFFFFFFFFF AND CALLER PUSH20 0xFFFFFFFFFFFFFFFFFFFFFFFFFFFFFFFFFFFFFFFF AND EQ PUSH2 0xF9B JUMPI PUSH1 0x40 MLOAD PUSH32 0x8C379A000000000000000000000000000000000000000000000000000000000 DUP2 MSTORE PUSH1 0x4 ADD PUSH2 0xF92 SWAP1 PUSH2 0x2F31 JUMP JUMPDEST PUSH1 0x40 MLOAD DUP1 SWAP2 SUB SWAP1 REVERT JUMPDEST DUP7 PUSH1 0x3 PUSH1 0x0 DUP10 DUP2 MSTORE PUSH1 0x20 ADD SWAP1 DUP2 MSTORE PUSH1 0x20 ADD PUSH1 0x0 KECCAK256 PUSH1 0x0 ADD SLOAD SUB PUSH2 0xFF7 JUMPI PUSH1 0x1 SWAP1 POP PUSH1 0x40 MLOAD PUSH32 0x8C379A000000000000000000000000000000000000000000000000000000000 DUP2 MSTORE PUSH1 0x4 ADD PUSH2 0xFEE SWAP1 PUSH2 0x2F9D JUMP JUMPDEST PUSH1 0x40 MLOAD DUP1 SWAP2 SUB SWAP1 REVERT JUMPDEST PUSH1 0x0 PUSH1 0x40 MLOAD DUP1 PUSH2 0x1C0 ADD PUSH1 0x40 MSTORE DUP1 DUP10 DUP2 MSTORE PUSH1 0x20 ADD CALLER PUSH20 0xFFFFFFFFFFFFFFFFFFFFFFFFFFFFFFFFFFFFFFFF AND DUP2 MSTORE PUSH1 0x20 ADD DUP9 DUP2 MSTORE PUSH1 0x20 ADD DUP8 DUP2 MSTORE PUSH1 0x20 ADD DUP7 DUP2 MSTORE PUSH1 0x20 ADD PUSH1 0x0 DUP2 MSTORE PUSH1 0x20 ADD PUSH1 0x0 DUP2 MSTORE PUSH1 0x20 ADD PUSH1 0x0 DUP2 MSTORE PUSH1 0x20 ADD DUP6 DUP2 MSTORE PUSH1 0x20 ADD DUP5 DUP2 MSTORE PUSH1 0x20 ADD PUSH1 0x1 PUSH1 0xFF AND DUP2 MSTORE PUSH1 0x20 ADD TIMESTAMP DUP2 MSTORE PUSH1 0x20 ADD PUSH1 0x64 PUSH1 0xFF AND DUP2 MSTORE PUSH1 0x20 ADD PUSH1 0x1 ISZERO ISZERO DUP2 MSTORE POP SWAP1 POP DUP1 PUSH1 0x3 PUSH1 0x0 DUP11 DUP2 MSTORE PUSH1 0x20 ADD SWAP1 DUP2 MSTORE PUSH1 0x20 ADD PUSH1 0x0 KECCAK256 PUSH1 0x0 DUP3 ADD MLOAD DUP2 PUSH1 0x0 ADD SSTORE PUSH1 0x20 DUP3 ADD MLOAD DUP2 PUSH1 0x1 ADD PUSH1 0x0 PUSH2 0x100 EXP DUP2 SLOAD DUP2 PUSH20 0xFFFFFFFFFFFFFFFFFFFFFFFFFFFFFFFFFFFFFFFF MUL NOT AND SWAP1 DUP4 PUSH20 0xFFFFFFFFFFFFFFFFFFFFFFFFFFFFFFFFFFFFFFFF AND MUL OR SWAP1 SSTORE POP PUSH1 0x40 DUP3 ADD MLOAD DUP2 PUSH1 0x2 ADD SWAP1 DUP2 PUSH2 0x10F7 SWAP2 SWAP1 PUSH2 0x31C9 JUMP JUMPDEST POP PUSH1 0x60 DUP3 ADD MLOAD DUP2 PUSH1 0x3 ADD SSTORE PUSH1 0x80 DUP3 ADD MLOAD DUP2 PUSH1 0x4 ADD SSTORE PUSH1 0xA0 DUP3 ADD MLOAD DUP2 PUSH1 0x5 ADD SSTORE PUSH1 0xC0 DUP3 ADD MLOAD DUP2 PUSH1 0x6 ADD SSTORE PUSH1 0xE0 DUP3 ADD MLOAD DUP2 PUSH1 0x7 ADD SSTORE PUSH2 0x100 DUP3 ADD MLOAD DUP2 PUSH1 0x8 ADD SWAP1 DUP2 PUSH2 0x1140 SWAP2 SWAP1 PUSH2 0x31C9 JUMP JUMPDEST POP PUSH2 0x120 DUP3 ADD MLOAD DUP2 PUSH1 0x9 ADD SWAP1 DUP2 PUSH2 0x1157 SWAP2 SWAP1 PUSH2 0x31C9 JUMP JUMPDEST POP PUSH2 0x140 DUP3 ADD MLOAD DUP2 PUSH1 0xA ADD PUSH1 0x0 PUSH2 0x100 EXP DUP2 SLOAD DUP2 PUSH1 0xFF MUL NOT AND SWAP1 DUP4 PUSH1 0xFF AND MUL OR SWAP1 SSTORE POP PUSH2 0x160 DUP3 ADD MLOAD DUP2 PUSH1 0xB ADD SSTORE PUSH2 0x180 DUP3 ADD MLOAD DUP2 PUSH1 0xC ADD PUSH1 0x0 PUSH2 0x100 EXP DUP2 SLOAD DUP2 PUSH1 0xFF MUL NOT AND SWAP1 DUP4 PUSH1 0xFF AND MUL OR SWAP1 SSTORE POP PUSH2 0x1A0 DUP3 ADD MLOAD DUP2 PUSH1 0xC ADD PUSH1 0x1 PUSH2 0x100 EXP DUP2 SLOAD DUP2 PUSH1 0xFF MUL NOT AND SWAP1 DUP4 ISZERO ISZERO MUL OR SWAP1 SSTORE POP SWAP1 POP POP PUSH1 0x1 SWAP2 POP PUSH32 0x22687B38C8157AEC47E1290FACDB6D4B03FB5367E5C6E33F504EB97B7F7105A6 DUP9 DUP9 PUSH1 0x40 MLOAD PUSH2 0x1200 SWAP3 SWAP2 SWAP1 PUSH2 0x329B JUMP JUMPDEST PUSH1 0x40 MLOAD DUP1 SWAP2 SUB SWAP1 LOG1 POP SWAP7 SWAP6 POP POP POP POP POP POP JUMP JUMPDEST PUSH1 0x0 DUP2 PUSH1 0x3 PUSH1 0x0 DUP3 DUP2 MSTORE PUSH1 0x20 ADD SWAP1 DUP2 MSTORE PUSH1 0x20 ADD PUSH1 0x0 KECCAK256 PUSH1 0x1 ADD PUSH1 0x0 SWAP1 SLOAD SWAP1 PUSH2 0x100 EXP SWAP1 DIV PUSH20 0xFFFFFFFFFFFFFFFFFFFFFFFFFFFFFFFFFFFFFFFF AND PUSH20 0xFFFFFFFFFFFFFFFFFFFFFFFFFFFFFFFFFFFFFFFF AND CALLER PUSH20 0xFFFFFFFFFFFFFFFFFFFFFFFFFFFFFFFFFFFFFFFF AND SUB PUSH2 0x12BA JUMPI PUSH1 0x40 MLOAD PUSH32 0x8C379A000000000000000000000000000000000000000000000000000000000 DUP2 MSTORE PUSH1 0x4 ADD PUSH2 0x12B1 SWAP1 PUSH2 0x2CD3 JUMP JUMPDEST PUSH1 0x40 MLOAD DUP1 SWAP2 SUB SWAP1 REVERT JUMPDEST PUSH2 0x12C7 DUP4 PUSH1 0x2 PUSH1 0x0 PUSH2 0x217A JUMP JUMPDEST SWAP2 POP PUSH1 0x1 SWAP2 POP DUP2 PUSH2 0x130D JUMPI PUSH1 0x40 MLOAD PUSH32 0x8C379A000000000000000000000000000000000000000000000000000000000 DUP2 MSTORE PUSH1 0x4 ADD PUSH2 0x1304 SWAP1 PUSH2 0x2E25 JUMP JUMPDEST PUSH1 0x40 MLOAD DUP1 SWAP2 SUB SWAP1 REVERT JUMPDEST PUSH32 0xE15E622369F6CD215131B21A6219D8216334C9C314C5293389F99FA06927E608 DUP4 PUSH1 0x40 MLOAD PUSH2 0x133C SWAP2 SWAP1 PUSH2 0x3317 JUMP JUMPDEST PUSH1 0x40 MLOAD DUP1 SWAP2 SUB SWAP1 LOG1 POP SWAP2 SWAP1 POP JUMP JUMPDEST PUSH1 0x0 DUP3 PUSH1 0x3 PUSH1 0x0 DUP3 DUP2 MSTORE PUSH1 0x20 ADD SWAP1 DUP2 MSTORE PUSH1 0x20 ADD PUSH1 0x0 KECCAK256 PUSH1 0x1 ADD PUSH1 0x0 SWAP1 SLOAD SWAP1 PUSH2 0x100 EXP SWAP1 DIV PUSH20 0xFFFFFFFFFFFFFFFFFFFFFFFFFFFFFFFFFFFFFFFF AND PUSH20 0xFFFFFFFFFFFFFFFFFFFFFFFFFFFFFFFFFFFFFFFF AND CALLER PUSH20 0xFFFFFFFFFFFFFFFFFFFFFFFFFFFFFFFFFFFFFFFF AND SUB PUSH2 0x13F1 JUMPI PUSH1 0x40 MLOAD PUSH32 0x8C379A000000000000000000000000000000000000000000000000000000000 DUP2 MSTORE PUSH1 0x4 ADD PUSH2 0x13E8 SWAP1 PUSH2 0x2CD3 JUMP JUMPDEST PUSH1 0x40 MLOAD DUP1 SWAP2 SUB SWAP1 REVERT JUMPDEST PUSH1 0x0 DUP4 GT PUSH2 0x1434 JUMPI PUSH1 0x40 MLOAD PUSH32 0x8C379A000000000000000000000000000000000000000000000000000000000 DUP2 MSTORE PUSH1 0x4 ADD PUSH2 0x142B SWAP1 PUSH2 0x3391 JUMP JUMPDEST PUSH1 0x40 MLOAD DUP1 SWAP2 SUB SWAP1 REVERT JUMPDEST PUSH2 0x1440 DUP5 PUSH1 0x2 DUP6 PUSH2 0x217A JUMP JUMPDEST SWAP2 POP DUP2 PUSH2 0x1482 JUMPI PUSH1 0x40 MLOAD PUSH32 0x8C379A000000000000000000000000000000000000000000000000000000000 DUP2 MSTORE PUSH1 0x4 ADD PUSH2 0x1479 SWAP1 PUSH2 0x2E25 JUMP JUMPDEST PUSH1 0x40 MLOAD DUP1 SWAP2 SUB SWAP1 REVERT JUMPDEST PUSH32 0xE15E622369F6CD215131B21A6219D8216334C9C314C5293389F99FA06927E608 DUP5 PUSH2 0x14AD DUP6 PUSH2 0x21EC JUMP JUMPDEST PUSH1 0x40 MLOAD PUSH1 0x20 ADD PUSH2 0x14BD SWAP2 SWAP1 PUSH2 0x3413 JUMP JUMPDEST PUSH1 0x40 MLOAD PUSH1 0x20 DUP2 DUP4 SUB SUB DUP2 MSTORE SWAP1 PUSH1 0x40 MSTORE PUSH1 0x40 MLOAD PUSH2 0x14DA SWAP3 SWAP2 SWAP1 PUSH2 0x329B JUMP JUMPDEST PUSH1 0x40 MLOAD DUP1 SWAP2 SUB SWAP1 LOG1 POP SWAP3 SWAP2 POP POP JUMP JUMPDEST PUSH1 0x0 DUP2 PUSH1 0x3 PUSH1 0x0 DUP3 DUP2 MSTORE PUSH1 0x20 ADD SWAP1 DUP2 MSTORE PUSH1 0x20 ADD PUSH1 0x0 KECCAK256 PUSH1 0x1 ADD PUSH1 0x0 SWAP1 SLOAD SWAP1 PUSH2 0x100 EXP SWAP1 DIV PUSH20 0xFFFFFFFFFFFFFFFFFFFFFFFFFFFFFFFFFFFFFFFF AND PUSH20 0xFFFFFFFFFFFFFFFFFFFFFFFFFFFFFFFFFFFFFFFF AND CALLER PUSH20 0xFFFFFFFFFFFFFFFFFFFFFFFFFFFFFFFFFFFFFFFF AND SUB PUSH2 0x1590 JUMPI PUSH1 0x40 MLOAD PUSH32 0x8C379A000000000000000000000000000000000000000000000000000000000 DUP2 MSTORE PUSH1 0x4 ADD PUSH2 0x1587 SWAP1 PUSH2 0x2CD3 JUMP JUMPDEST PUSH1 0x40 MLOAD DUP1 SWAP2 SUB SWAP1 REVERT JUMPDEST PUSH1 0x0 PUSH1 0x3 PUSH1 0x0 DUP6 DUP2 MSTORE PUSH1 0x20 ADD SWAP1 DUP2 MSTORE PUSH1 0x20 ADD PUSH1 0x0 KECCAK256 PUSH1 0xC ADD PUSH1 0x1 PUSH2 0x100 EXP DUP2 SLOAD DUP2 PUSH1 0xFF MUL NOT AND SWAP1 DUP4 ISZERO ISZERO MUL OR SWAP1 SSTORE POP PUSH2 0x15CC DUP4 PUSH1 0x4 PUSH1 0x0 PUSH2 0x217A JUMP JUMPDEST SWAP2 POP DUP2 PUSH2 0x160E JUMPI PUSH1 0x40 MLOAD PUSH32 0x8C379A000000000000000000000000000000000000000000000000000000000 DUP2 MSTORE PUSH1 0x4 ADD PUSH2 0x1605 SWAP1 PUSH2 0x2E25 JUMP JUMPDEST PUSH1 0x40 MLOAD DUP1 SWAP2 SUB SWAP1 REVERT JUMPDEST PUSH32 0xE15E622369F6CD215131B21A6219D8216334C9C314C5293389F99FA06927E608 DUP4 PUSH1 0x40 MLOAD PUSH2 0x163D SWAP2 SWAP1 PUSH2 0x3485 JUMP JUMPDEST PUSH1 0x40 MLOAD DUP1 SWAP2 SUB SWAP1 LOG1 POP SWAP2 SWAP1 POP JUMP JUMPDEST PUSH1 0x0 DUP2 PUSH1 0x3 PUSH1 0x0 PUSH1 0x2 PUSH1 0x0 DUP5 DUP2 MSTORE PUSH1 0x20 ADD SWAP1 DUP2 MSTORE PUSH1 0x20 ADD PUSH1 0x0 KECCAK256 PUSH1 0x2 ADD SLOAD DUP2 MSTORE PUSH1 0x20 ADD SWAP1 DUP2 MSTORE PUSH1 0x20 ADD PUSH1 0x0 KECCAK256 PUSH1 0x1 ADD PUSH1 0x0 SWAP1 SLOAD SWAP1 PUSH2 0x100 EXP SWAP1 DIV PUSH20 0xFFFFFFFFFFFFFFFFFFFFFFFFFFFFFFFFFFFFFFFF AND PUSH20 0xFFFFFFFFFFFFFFFFFFFFFFFFFFFFFFFFFFFFFFFF AND CALLER PUSH20 0xFFFFFFFFFFFFFFFFFFFFFFFFFFFFFFFFFFFFFFFF AND EQ PUSH2 0x1708 JUMPI PUSH1 0x40 MLOAD PUSH32 0x8C379A000000000000000000000000000000000000000000000000000000000 DUP2 MSTORE PUSH1 0x4 ADD PUSH2 0x16FF SWAP1 PUSH2 0x3525 JUMP JUMPDEST PUSH1 0x40 MLOAD DUP1 SWAP2 SUB SWAP1 REVERT JUMPDEST PUSH1 0x0 SWAP2 POP PUSH1 0x0 PUSH1 0x40 MLOAD DUP1 PUSH1 0x40 ADD PUSH1 0x40 MSTORE DUP1 PUSH1 0x1D DUP2 MSTORE PUSH1 0x20 ADD PUSH32 0x21544F444F212050656E64696E6720696D706C656D656E746174696F6E000000 DUP2 MSTORE POP SWAP1 POP DUP1 PUSH1 0x40 MLOAD PUSH32 0x8C379A000000000000000000000000000000000000000000000000000000000 DUP2 MSTORE PUSH1 0x4 ADD PUSH2 0x177A SWAP2 SWAP1 PUSH2 0x2917 JUMP JUMPDEST PUSH1 0x40 MLOAD DUP1 SWAP2 SUB SWAP1 REVERT JUMPDEST PUSH1 0x60 PUSH1 0x3 PUSH1 0x0 DUP4 DUP2 MSTORE PUSH1 0x20 ADD SWAP1 DUP2 MSTORE PUSH1 0x20 ADD PUSH1 0x0 KECCAK256 PUSH1 0x0 ADD SLOAD DUP3 EQ PUSH2 0x17DD JUMPI PUSH1 0x40 MLOAD PUSH32 0x8C379A000000000000000000000000000000000000000000000000000000000 DUP2 MSTORE PUSH1 0x4 ADD PUSH2 0x17D4 SWAP1 PUSH2 0x3591 JUMP JUMPDEST PUSH1 0x40 MLOAD DUP1 SWAP2 SUB SWAP1 REVERT JUMPDEST PUSH1 0x0 PUSH1 0x3 PUSH1 0x0 DUP5 DUP2 MSTORE PUSH1 0x20 ADD SWAP1 DUP2 MSTORE PUSH1 0x20 ADD PUSH1 0x0 KECCAK256 PUSH1 0xA ADD PUSH1 0x0 SWAP1 SLOAD SWAP1 PUSH2 0x100 EXP SWAP1 DIV PUSH1 0xFF AND SWAP1 POP PUSH1 0x0 PUSH1 0x3 PUSH1 0x0 DUP6 DUP2 MSTORE PUSH1 0x20 ADD SWAP1 DUP2 MSTORE PUSH1 0x20 ADD PUSH1 0x0 KECCAK256 PUSH1 0xC ADD PUSH1 0x1 SWAP1 SLOAD SWAP1 PUSH2 0x100 EXP SWAP1 DIV PUSH1 0xFF AND SWAP1 POP PUSH1 0x0 PUSH1 0x3 PUSH1 0x0 DUP7 DUP2 MSTORE PUSH1 0x20 ADD SWAP1 DUP2 MSTORE PUSH1 0x20 ADD PUSH1 0x0 KECCAK256 PUSH1 0xC ADD PUSH1 0x0 SWAP1 SLOAD SWAP1 PUSH2 0x100 EXP SWAP1 DIV PUSH1 0xFF AND SWAP1 POP PUSH1 0x0 DUP3 DUP1 ISZERO PUSH2 0x1867 JUMPI POP PUSH1 0x0 DUP3 PUSH1 0xFF AND GT JUMPDEST PUSH2 0x18A6 JUMPI PUSH1 0x40 MLOAD DUP1 PUSH1 0x40 ADD PUSH1 0x40 MSTORE DUP1 PUSH1 0x9 DUP2 MSTORE PUSH1 0x20 ADD PUSH32 0x202841766C3A2030290000000000000000000000000000000000000000000000 DUP2 MSTORE POP PUSH2 0x18F5 JUMP JUMPDEST PUSH2 0x18D5 PUSH1 0x3 PUSH1 0x0 DUP9 DUP2 MSTORE PUSH1 0x20 ADD SWAP1 DUP2 MSTORE PUSH1 0x20 ADD PUSH1 0x0 KECCAK256 PUSH1 0xC ADD PUSH1 0x0 SWAP1 SLOAD SWAP1 PUSH2 0x100 EXP SWAP1 DIV PUSH1 0xFF AND PUSH1 0xFF AND PUSH2 0x21EC JUMP JUMPDEST PUSH1 0x40 MLOAD PUSH1 0x20 ADD PUSH2 0x18E5 SWAP2 SWAP1 PUSH2 0x35FD JUMP JUMPDEST PUSH1 0x40 MLOAD PUSH1 0x20 DUP2 DUP4 SUB SUB DUP2 MSTORE SWAP1 PUSH1 0x40 MSTORE JUMPDEST SWAP1 POP PUSH1 0x1 PUSH1 0xFF AND DUP5 PUSH1 0xFF AND SUB PUSH2 0x192C JUMPI DUP1 PUSH1 0x40 MLOAD PUSH1 0x20 ADD PUSH2 0x1916 SWAP2 SWAP1 PUSH2 0x3658 JUMP JUMPDEST PUSH1 0x40 MLOAD PUSH1 0x20 DUP2 DUP4 SUB SUB DUP2 MSTORE SWAP1 PUSH1 0x40 MSTORE SWAP5 POP PUSH2 0x1B27 JUMP JUMPDEST PUSH1 0x2 PUSH1 0xFF AND DUP5 PUSH1 0xFF AND SUB PUSH2 0x1961 JUMPI DUP1 PUSH1 0x40 MLOAD PUSH1 0x20 ADD PUSH2 0x194B SWAP2 SWAP1 PUSH2 0x36A4 JUMP JUMPDEST PUSH1 0x40 MLOAD PUSH1 0x20 DUP2 DUP4 SUB SUB DUP2 MSTORE SWAP1 PUSH1 0x40 MSTORE SWAP5 POP PUSH2 0x1B26 JUMP JUMPDEST PUSH1 0x3 PUSH1 0xFF AND DUP5 PUSH1 0xFF AND SUB PUSH2 0x1996 JUMPI DUP1 PUSH1 0x40 MLOAD PUSH1 0x20 ADD PUSH2 0x1980 SWAP2 SWAP1 PUSH2 0x36F0 JUMP JUMPDEST PUSH1 0x40 MLOAD PUSH1 0x20 DUP2 DUP4 SUB SUB DUP2 MSTORE SWAP1 PUSH1 0x40 MSTORE SWAP5 POP PUSH2 0x1B25 JUMP JUMPDEST PUSH1 0x4 PUSH1 0xFF AND DUP5 PUSH1 0xFF AND SUB PUSH2 0x19CB JUMPI DUP1 PUSH1 0x40 MLOAD PUSH1 0x20 ADD PUSH2 0x19B5 SWAP2 SWAP1 PUSH2 0x373C JUMP JUMPDEST PUSH1 0x40 MLOAD PUSH1 0x20 DUP2 DUP4 SUB SUB DUP2 MSTORE SWAP1 PUSH1 0x40 MSTORE SWAP5 POP PUSH2 0x1B24 JUMP JUMPDEST PUSH1 0x5 PUSH1 0xFF AND DUP5 PUSH1 0xFF AND SUB PUSH2 0x1A16 JUMPI PUSH1 0x40 MLOAD DUP1 PUSH1 0x40 ADD PUSH1 0x40 MSTORE DUP1 PUSH1 0x6 DUP2 MSTORE PUSH1 0x20 ADD PUSH32 0x494E2D4149520000000000000000000000000000000000000000000000000000 DUP2 MSTORE POP SWAP5 POP PUSH2 0x1B23 JUMP JUMPDEST PUSH1 0x6 PUSH1 0xFF AND DUP5 PUSH1 0xFF AND SUB PUSH2 0x1A61 JUMPI PUSH1 0x40 MLOAD DUP1 PUSH1 0x40 ADD PUSH1 0x40 MSTORE DUP1 PUSH1 0x9 DUP2 MSTORE PUSH1 0x20 ADD PUSH32 0x43414E43454C4C45440000000000000000000000000000000000000000000000 DUP2 MSTORE POP SWAP5 POP PUSH2 0x1B22 JUMP JUMPDEST PUSH1 0x7 PUSH1 0xFF AND DUP5 PUSH1 0xFF AND SUB PUSH2 0x1AAC JUMPI PUSH1 0x40 MLOAD DUP1 PUSH1 0x40 ADD PUSH1 0x40 MSTORE DUP1 PUSH1 0x6 DUP2 MSTORE PUSH1 0x20 ADD PUSH32 0x4C414E4445440000000000000000000000000000000000000000000000000000 DUP2 MSTORE POP SWAP5 POP PUSH2 0x1B21 JUMP JUMPDEST PUSH1 0x40 MLOAD DUP1 PUSH1 0x40 ADD PUSH1 0x40 MSTORE DUP1 PUSH1 0x15 DUP2 MSTORE PUSH1 0x20 ADD PUSH32 0x556E6B6E6F776E20466C69676874205374617475730000000000000000000000 DUP2 MSTORE POP SWAP5 POP DUP5 PUSH1 0x40 MLOAD PUSH32 0x8C379A000000000000000000000000000000000000000000000000000000000 DUP2 MSTORE PUSH1 0x4 ADD PUSH2 0x1B18 SWAP2 SWAP1 PUSH2 0x2917 JUMP JUMPDEST PUSH1 0x40 MLOAD DUP1 SWAP2 SUB SWAP1 REVERT JUMPDEST JUMPDEST JUMPDEST JUMPDEST JUMPDEST JUMPDEST JUMPDEST POP POP POP POP SWAP2 SWAP1 POP JUMP JUMPDEST PUSH1 0x0 DUP2 PUSH1 0x3 PUSH1 0x0 DUP3 DUP2 MSTORE PUSH1 0x20 ADD SWAP1 DUP2 MSTORE PUSH1 0x20 ADD PUSH1 0x0 KECCAK256 PUSH1 0x1 ADD PUSH1 0x0 SWAP1 SLOAD SWAP1 PUSH2 0x100 EXP SWAP1 DIV PUSH20 0xFFFFFFFFFFFFFFFFFFFFFFFFFFFFFFFFFFFFFFFF AND PUSH20 0xFFFFFFFFFFFFFFFFFFFFFFFFFFFFFFFFFFFFFFFF AND CALLER PUSH20 0xFFFFFFFFFFFFFFFFFFFFFFFFFFFFFFFFFFFFFFFF AND SUB PUSH2 0x1BD7 JUMPI PUSH1 0x40 MLOAD PUSH32 0x8C379A000000000000000000000000000000000000000000000000000000000 DUP2 MSTORE PUSH1 0x4 ADD PUSH2 0x1BCE SWAP1 PUSH2 0x2CD3 JUMP JUMPDEST PUSH1 0x40 MLOAD DUP1 SWAP2 SUB SWAP1 REVERT JUMPDEST TIMESTAMP PUSH1 0x3 PUSH1 0x0 DUP6 DUP2 MSTORE PUSH1 0x20 ADD SWAP1 DUP2 MSTORE PUSH1 0x20 ADD PUSH1 0x0 KECCAK256 PUSH1 0x5 ADD DUP2 SWAP1 SSTORE POP PUSH2 0x1C14 PUSH1 0x3 PUSH1 0x0 DUP6 DUP2 MSTORE PUSH1 0x20 ADD SWAP1 DUP2 MSTORE PUSH1 0x20 ADD PUSH1 0x0 KECCAK256 PUSH1 0x3 ADD SLOAD TIMESTAMP PUSH1 0x4 PUSH2 0x234B JUMP JUMPDEST PUSH1 0x3 PUSH1 0x0 DUP6 DUP2 MSTORE PUSH1 0x20 ADD SWAP1 DUP2 MSTORE PUSH1 0x20 ADD PUSH1 0x0 KECCAK256 PUSH1 0x7 ADD DUP2 SWAP1 SSTORE POP PUSH2 0x1C3B DUP4 PUSH1 0x5 PUSH1 0x0 PUSH2 0x217A JUMP JUMPDEST SWAP2 POP DUP2 PUSH2 0x1C7D JUMPI PUSH1 0x40 MLOAD PUSH32 0x8C379A000000000000000000000000000000000000000000000000000000000 DUP2 MSTORE PUSH1 0x4 ADD PUSH2 0x1C74 SWAP1 PUSH2 0x2E25 JUMP JUMPDEST PUSH1 0x40 MLOAD DUP1 SWAP2 SUB SWAP1 REVERT JUMPDEST PUSH32 0xE15E622369F6CD215131B21A6219D8216334C9C314C5293389F99FA06927E608 DUP4 PUSH1 0x40 MLOAD PUSH2 0x1CAC SWAP2 SWAP1 PUSH2 0x37AE JUMP JUMPDEST PUSH1 0x40 MLOAD DUP1 SWAP2 SUB SWAP1 LOG1 POP SWAP2 SWAP1 POP JUMP JUMPDEST PUSH1 0x0 DUP2 PUSH1 0x3 PUSH1 0x0 DUP3 DUP2 MSTORE PUSH1 0x20 ADD SWAP1 DUP2 MSTORE PUSH1 0x20 ADD PUSH1 0x0 KECCAK256 PUSH1 0x1 ADD PUSH1 0x0 SWAP1 SLOAD SWAP1 PUSH2 0x100 EXP SWAP1 DIV PUSH20 0xFFFFFFFFFFFFFFFFFFFFFFFFFFFFFFFFFFFFFFFF AND PUSH20 0xFFFFFFFFFFFFFFFFFFFFFFFFFFFFFFFFFFFFFFFF AND CALLER PUSH20 0xFFFFFFFFFFFFFFFFFFFFFFFFFFFFFFFFFFFFFFFF AND SUB PUSH2 0x1D61 JUMPI PUSH1 0x40 MLOAD PUSH32 0x8C379A000000000000000000000000000000000000000000000000000000000 DUP2 MSTORE PUSH1 0x4 ADD PUSH2 0x1D58 SWAP1 PUSH2 0x2CD3 JUMP JUMPDEST PUSH1 0x40 MLOAD DUP1 SWAP2 SUB SWAP1 REVERT JUMPDEST PUSH1 0x1 PUSH1 0xFF AND PUSH1 0x3 PUSH1 0x0 DUP6 DUP2 MSTORE PUSH1 0x20 ADD SWAP1 DUP2 MSTORE PUSH1 0x20 ADD PUSH1 0x0 KECCAK256 PUSH1 0xA ADD PUSH1 0x0 SWAP1 SLOAD SWAP1 PUSH2 0x100 EXP SWAP1 DIV PUSH1 0xFF AND PUSH1 0xFF AND LT ISZERO DUP1 ISZERO PUSH2 0x1DC5 JUMPI POP PUSH1 0x4 PUSH1 0xFF AND PUSH1 0x3 PUSH1 0x0 DUP6 DUP2 MSTORE PUSH1 0x20 ADD SWAP1 DUP2 MSTORE PUSH1 0x20 ADD PUSH1 0x0 KECCAK256 PUSH1 0xA ADD PUSH1 0x0 SWAP1 SLOAD SWAP1 PUSH2 0x100 EXP SWAP1 DIV PUSH1 0xFF AND PUSH1 0xFF AND GT ISZERO JUMPDEST PUSH2 0x1E04 JUMPI PUSH1 0x40 MLOAD PUSH32 0x8C379A000000000000000000000000000000000000000000000000000000000 DUP2 MSTORE PUSH1 0x4 ADD PUSH2 0x1DFB SWAP1 PUSH2 0x3828 JUMP JUMPDEST PUSH1 0x40 MLOAD DUP1 SWAP2 SUB SWAP1 REVERT JUMPDEST PUSH1 0x0 PUSH1 0x3 PUSH1 0x0 DUP6 DUP2 MSTORE PUSH1 0x20 ADD SWAP1 DUP2 MSTORE PUSH1 0x20 ADD PUSH1 0x0 KECCAK256 PUSH1 0x5 ADD DUP2 SWAP1 SSTORE POP PUSH1 0x0 PUSH1 0x3 PUSH1 0x0 DUP6 DUP2 MSTORE PUSH1 0x20 ADD SWAP1 DUP2 MSTORE PUSH1 0x20 ADD PUSH1 0x0 KECCAK256 PUSH1 0x6 ADD DUP2 SWAP1 SSTORE POP PUSH1 0x0 PUSH1 0x3 PUSH1 0x0 DUP6 DUP2 MSTORE PUSH1 0x20 ADD SWAP1 DUP2 MSTORE PUSH1 0x20 ADD PUSH1 0x0 KECCAK256 PUSH1 0xC ADD PUSH1 0x1 PUSH2 0x100 EXP DUP2 SLOAD DUP2 PUSH1 0xFF MUL NOT AND SWAP1 DUP4 ISZERO ISZERO MUL OR SWAP1 SSTORE POP PUSH2 0x1E78 DUP4 PUSH1 0x6 PUSH1 0x0 PUSH2 0x217A JUMP JUMPDEST SWAP2 POP DUP2 PUSH2 0x1EBA JUMPI PUSH1 0x40 MLOAD PUSH32 0x8C379A000000000000000000000000000000000000000000000000000000000 DUP2 MSTORE PUSH1 0x4 ADD PUSH2 0x1EB1 SWAP1 PUSH2 0x2E25 JUMP JUMPDEST PUSH1 0x40 MLOAD DUP1 SWAP2 SUB SWAP1 REVERT JUMPDEST PUSH32 0xE15E622369F6CD215131B21A6219D8216334C9C314C5293389F99FA06927E608 DUP4 PUSH1 0x40 MLOAD PUSH2 0x1EE9 SWAP2 SWAP1 PUSH2 0x3894 JUMP JUMPDEST PUSH1 0x40 MLOAD DUP1 SWAP2 SUB SWAP1 LOG1 POP SWAP2 SWAP1 POP JUMP JUMPDEST PUSH1 0x0 DUP1 PUSH1 0x40 MLOAD DUP1 PUSH1 0x80 ADD PUSH1 0x40 MSTORE DUP1 CALLER PUSH20 0xFFFFFFFFFFFFFFFFFFFFFFFFFFFFFFFFFFFFFFFF AND DUP2 MSTORE PUSH1 0x20 ADD DUP5 PUSH1 0x1 DUP2 GT ISZERO PUSH2 0x1F34 JUMPI PUSH2 0x1F33 PUSH2 0x38C2 JUMP JUMPDEST JUMPDEST DUP2 MSTORE PUSH1 0x20 ADD DUP7 DUP2 MSTORE PUSH1 0x20 ADD DUP6 DUP2 MSTORE POP SWAP1 POP DUP1 PUSH1 0x0 ADD MLOAD PUSH20 0xFFFFFFFFFFFFFFFFFFFFFFFFFFFFFFFFFFFFFFFF AND PUSH1 0x0 DUP1 DUP4 PUSH1 0x0 ADD MLOAD PUSH20 0xFFFFFFFFFFFFFFFFFFFFFFFFFFFFFFFFFFFFFFFF AND PUSH20 0xFFFFFFFFFFFFFFFFFFFFFFFFFFFFFFFFFFFFFFFF AND DUP2 MSTORE PUSH1 0x20 ADD SWAP1 DUP2 MSTORE PUSH1 0x20 ADD PUSH1 0x0 KECCAK256 PUSH1 0x0 ADD PUSH1 0x0 SWAP1 SLOAD SWAP1 PUSH2 0x100 EXP SWAP1 DIV PUSH20 0xFFFFFFFFFFFFFFFFFFFFFFFFFFFFFFFFFFFFFFFF AND PUSH20 0xFFFFFFFFFFFFFFFFFFFFFFFFFFFFFFFFFFFFFFFF AND SUB PUSH2 0x2085 JUMPI PUSH1 0x1 SWAP2 POP PUSH1 0x0 DUP1 DUP3 PUSH1 0x0 ADD MLOAD PUSH20 0xFFFFFFFFFFFFFFFFFFFFFFFFFFFFFFFFFFFFFFFF AND PUSH20 0xFFFFFFFFFFFFFFFFFFFFFFFFFFFFFFFFFFFFFFFF AND DUP2 MSTORE PUSH1 0x20 ADD SWAP1 DUP2 MSTORE PUSH1 0x20 ADD PUSH1 0x0 KECCAK256 PUSH1 0x1 ADD PUSH1 0x40 MLOAD PUSH1 0x20 ADD PUSH2 0x203A SWAP2 SWAP1 PUSH2 0x399A JUMP JUMPDEST PUSH1 0x40 MLOAD PUSH1 0x20 DUP2 DUP4 SUB SUB DUP2 MSTORE SWAP1 PUSH1 0x40 MSTORE PUSH1 0x40 MLOAD PUSH32 0x8C379A000000000000000000000000000000000000000000000000000000000 DUP2 MSTORE PUSH1 0x4 ADD PUSH2 0x207C SWAP2 SWAP1 PUSH2 0x2917 JUMP JUMPDEST PUSH1 0x40 MLOAD DUP1 SWAP2 SUB SWAP1 REVERT JUMPDEST DUP1 PUSH1 0x0 DUP1 DUP4 PUSH1 0x0 ADD MLOAD PUSH20 0xFFFFFFFFFFFFFFFFFFFFFFFFFFFFFFFFFFFFFFFF AND PUSH20 0xFFFFFFFFFFFFFFFFFFFFFFFFFFFFFFFFFFFFFFFF AND DUP2 MSTORE PUSH1 0x20 ADD SWAP1 DUP2 MSTORE PUSH1 0x20 ADD PUSH1 0x0 KECCAK256 PUSH1 0x0 DUP3 ADD MLOAD DUP2 PUSH1 0x0 ADD PUSH1 0x0 PUSH2 0x100 EXP DUP2 SLOAD DUP2 PUSH20 0xFFFFFFFFFFFFFFFFFFFFFFFFFFFFFFFFFFFFFFFF MUL NOT AND SWAP1 DUP4 PUSH20 0xFFFFFFFFFFFFFFFFFFFFFFFFFFFFFFFFFFFFFFFF AND MUL OR SWAP1 SSTORE POP PUSH1 0x20 DUP3 ADD MLOAD DUP2 PUSH1 0x0 ADD PUSH1 0x14 PUSH2 0x100 EXP DUP2 SLOAD DUP2 PUSH1 0xFF MUL NOT AND SWAP1 DUP4 PUSH1 0x1 DUP2 GT ISZERO PUSH2 0x213A JUMPI PUSH2 0x2139 PUSH2 0x38C2 JUMP JUMPDEST JUMPDEST MUL OR SWAP1 SSTORE POP PUSH1 0x40 DUP3 ADD MLOAD DUP2 PUSH1 0x1 ADD SWAP1 DUP2 PUSH2 0x2154 SWAP2 SWAP1 PUSH2 0x31C9 JUMP JUMPDEST POP PUSH1 0x60 DUP3 ADD MLOAD DUP2 PUSH1 0x2 ADD SWAP1 DUP2 PUSH2 0x216A SWAP2 SWAP1 PUSH2 0x31C9 JUMP JUMPDEST POP SWAP1 POP POP PUSH1 0x1 SWAP2 POP POP SWAP4 SWAP3 POP POP POP JUMP JUMPDEST PUSH1 0x0 DUP3 PUSH1 0x3 PUSH1 0x0 DUP7 DUP2 MSTORE PUSH1 0x20 ADD SWAP1 DUP2 MSTORE PUSH1 0x20 ADD PUSH1 0x0 KECCAK256 PUSH1 0xA ADD PUSH1 0x0 PUSH2 0x100 EXP DUP2 SLOAD DUP2 PUSH1 0xFF MUL NOT AND SWAP1 DUP4 PUSH1 0xFF AND MUL OR SWAP1 SSTORE POP DUP2 PUSH1 0x3 PUSH1 0x0 DUP7 DUP2 MSTORE PUSH1 0x20 ADD SWAP1 DUP2 MSTORE PUSH1 0x20 ADD PUSH1 0x0 KECCAK256 PUSH1 0x7 ADD DUP2 SWAP1 SSTORE POP TIMESTAMP PUSH1 0x3 PUSH1 0x0 DUP7 DUP2 MSTORE PUSH1 0x20 ADD SWAP1 DUP2 MSTORE PUSH1 0x20 ADD PUSH1 0x0 KECCAK256 PUSH1 0xB ADD DUP2 SWAP1 SSTORE POP PUSH1 0x1 SWAP1 POP SWAP4 SWAP3 POP POP POP JUMP JUMPDEST PUSH1 0x60 PUSH1 0x0 DUP3 SUB PUSH2 0x2233 JUMPI PUSH1 0x40 MLOAD DUP1 PUSH1 0x40 ADD PUSH1 0x40 MSTORE DUP1 PUSH1 0x1 DUP2 MSTORE PUSH1 0x20 ADD PUSH32 0x3000000000000000000000000000000000000000000000000000000000000000 DUP2 MSTORE POP SWAP1 POP PUSH2 0x2346 JUMP JUMPDEST PUSH1 0x0 DUP3 SWAP1 POP PUSH1 0x0 JUMPDEST PUSH1 0x0 DUP3 EQ PUSH2 0x2265 JUMPI DUP1 DUP1 PUSH2 0x224E SWAP1 PUSH2 0x39EF JUMP JUMPDEST SWAP2 POP POP PUSH1 0xA DUP3 PUSH2 0x225E SWAP2 SWAP1 PUSH2 0x3A66 JUMP JUMPDEST SWAP2 POP PUSH2 0x223B JUMP JUMPDEST PUSH1 0x0 DUP2 PUSH8 0xFFFFFFFFFFFFFFFF DUP2 GT ISZERO PUSH2 0x2281 JUMPI PUSH2 0x2280 PUSH2 0x259D JUMP JUMPDEST JUMPDEST PUSH1 0x40 MLOAD SWAP1 DUP1 DUP3 MSTORE DUP1 PUSH1 0x1F ADD PUSH1 0x1F NOT AND PUSH1 0x20 ADD DUP3 ADD PUSH1 0x40 MSTORE DUP1 ISZERO PUSH2 0x22B3 JUMPI DUP2 PUSH1 0x20 ADD PUSH1 0x1 DUP3 MUL DUP1 CALLDATASIZE DUP4 CALLDATACOPY DUP1 DUP3 ADD SWAP2 POP POP SWAP1 POP JUMPDEST POP SWAP1 POP JUMPDEST PUSH1 0x0 DUP6 EQ PUSH2 0x233F JUMPI DUP2 DUP1 PUSH2 0x22CA SWAP1 PUSH2 0x3A97 JUMP JUMPDEST SWAP3 POP POP PUSH1 0xA DUP6 PUSH2 0x22DA SWAP2 SWAP1 PUSH2 0x3AC0 JUMP JUMPDEST PUSH1 0x30 PUSH2 0x22E6 SWAP2 SWAP1 PUSH2 0x3AF1 JUMP JUMPDEST PUSH1 0xF8 SHL DUP2 DUP4 DUP2 MLOAD DUP2 LT PUSH2 0x22FC JUMPI PUSH2 0x22FB PUSH2 0x3B25 JUMP JUMPDEST JUMPDEST PUSH1 0x20 ADD ADD SWAP1 PUSH31 0xFFFFFFFFFFFFFFFFFFFFFFFFFFFFFFFFFFFFFFFFFFFFFFFFFFFFFFFFFFFFFF NOT AND SWAP1 DUP2 PUSH1 0x0 BYTE SWAP1 MSTORE8 POP PUSH1 0xA DUP6 PUSH2 0x2338 SWAP2 SWAP1 PUSH2 0x3A66 JUMP JUMPDEST SWAP5 POP PUSH2 0x22B7 JUMP JUMPDEST DUP1 SWAP4 POP POP POP POP JUMPDEST SWAP2 SWAP1 POP JUMP JUMPDEST PUSH1 0x0 DUP3 DUP5 GT ISZERO PUSH2 0x2390 JUMPI PUSH1 0x40 MLOAD PUSH32 0x8C379A000000000000000000000000000000000000000000000000000000000 DUP2 MSTORE PUSH1 0x4 ADD PUSH2 0x2387 SWAP1 PUSH2 0x3BC6 JUMP JUMPDEST PUSH1 0x40 MLOAD DUP1 SWAP2 SUB SWAP1 REVERT JUMPDEST PUSH1 0x4 PUSH1 0x5 DUP2 GT ISZERO PUSH2 0x23A4 JUMPI PUSH2 0x23A3 PUSH2 0x38C2 JUMP JUMPDEST JUMPDEST DUP3 PUSH1 0x5 DUP2 GT ISZERO PUSH2 0x23B7 JUMPI PUSH2 0x23B6 PUSH2 0x38C2 JUMP JUMPDEST JUMPDEST SUB PUSH2 0x23DB JUMPI PUSH1 0x3C DUP5 DUP5 PUSH2 0x23CA SWAP2 SWAP1 PUSH2 0x3BE6 JUMP JUMPDEST PUSH2 0x23D4 SWAP2 SWAP1 PUSH2 0x3A66 JUMP JUMPDEST SWAP1 POP PUSH2 0x24A4 JUMP JUMPDEST PUSH1 0x3 PUSH1 0x5 DUP2 GT ISZERO PUSH2 0x23EF JUMPI PUSH2 0x23EE PUSH2 0x38C2 JUMP JUMPDEST JUMPDEST DUP3 PUSH1 0x5 DUP2 GT ISZERO PUSH2 0x2402 JUMPI PUSH2 0x2401 PUSH2 0x38C2 JUMP JUMPDEST JUMPDEST SUB PUSH2 0x2431 JUMPI PUSH1 0x3C DUP1 PUSH2 0x2414 SWAP2 SWAP1 PUSH2 0x3C1A JUMP JUMPDEST DUP5 DUP5 PUSH2 0x2420 SWAP2 SWAP1 PUSH2 0x3BE6 JUMP JUMPDEST PUSH2 0x242A SWAP2 SWAP1 PUSH2 0x3A66 JUMP JUMPDEST SWAP1 POP PUSH2 0x24A3 JUMP JUMPDEST PUSH1 0x2 PUSH1 0x5 DUP2 GT ISZERO PUSH2 0x2445 JUMPI PUSH2 0x2444 PUSH2 0x38C2 JUMP JUMPDEST JUMPDEST DUP3 PUSH1 0x5 DUP2 GT ISZERO PUSH2 0x2458 JUMPI PUSH2 0x2457 PUSH2 0x38C2 JUMP JUMPDEST JUMPDEST SUB PUSH2 0x2493 JUMPI PUSH1 0x18 PUSH1 0x3C DUP1 PUSH2 0x246C SWAP2 SWAP1 PUSH2 0x3C1A JUMP JUMPDEST PUSH2 0x2476 SWAP2 SWAP1 PUSH2 0x3C1A JUMP JUMPDEST DUP5 DUP5 PUSH2 0x2482 SWAP2 SWAP1 PUSH2 0x3BE6 JUMP JUMPDEST PUSH2 0x248C SWAP2 SWAP1 PUSH2 0x3A66 JUMP JUMPDEST SWAP1 POP PUSH2 0x24A2 JUMP JUMPDEST DUP4 DUP4 PUSH2 0x249F SWAP2 SWAP1 PUSH2 0x3BE6 JUMP JUMPDEST SWAP1 POP JUMPDEST JUMPDEST JUMPDEST SWAP4 SWAP3 POP POP POP JUMP JUMPDEST PUSH1 0x0 PUSH1 0x40 MLOAD SWAP1 POP SWAP1 JUMP JUMPDEST PUSH1 0x0 DUP1 REVERT JUMPDEST PUSH1 0x0 DUP1 REVERT JUMPDEST PUSH1 0x0 DUP2 SWAP1 POP SWAP2 SWAP1 POP JUMP JUMPDEST PUSH2 0x24D2 DUP2 PUSH2 0x24BF JUMP JUMPDEST DUP2 EQ PUSH2 0x24DD JUMPI PUSH1 0x0 DUP1 REVERT JUMPDEST POP JUMP JUMPDEST PUSH1 0x0 DUP2 CALLDATALOAD SWAP1 POP PUSH2 0x24EF DUP2 PUSH2 0x24C9 JUMP JUMPDEST SWAP3 SWAP2 POP POP JUMP JUMPDEST PUSH1 0x0 PUSH1 0x20 DUP3 DUP5 SUB SLT ISZERO PUSH2 0x250B JUMPI PUSH2 0x250A PUSH2 0x24B5 JUMP JUMPDEST JUMPDEST PUSH1 0x0 PUSH2 0x2519 DUP5 DUP3 DUP6 ADD PUSH2 0x24E0 JUMP JUMPDEST SWAP2 POP POP SWAP3 SWAP2 POP POP JUMP JUMPDEST PUSH1 0x0 DUP2 ISZERO ISZERO SWAP1 POP SWAP2 SWAP1 POP JUMP JUMPDEST PUSH2 0x2537 DUP2 PUSH2 0x2522 JUMP JUMPDEST DUP3 MSTORE POP POP JUMP JUMPDEST PUSH1 0x0 PUSH1 0x20 DUP3 ADD SWAP1 POP PUSH2 0x2552 PUSH1 0x0 DUP4 ADD DUP5 PUSH2 0x252E JUMP JUMPDEST SWAP3 SWAP2 POP POP JUMP JUMPDEST PUSH2 0x2561 DUP2 PUSH2 0x24BF JUMP JUMPDEST DUP3 MSTORE POP POP JUMP JUMPDEST PUSH1 0x0 PUSH1 0x20 DUP3 ADD SWAP1 POP PUSH2 0x257C PUSH1 0x0 DUP4 ADD DUP5 PUSH2 0x2558 JUMP JUMPDEST SWAP3 SWAP2 POP POP JUMP JUMPDEST PUSH1 0x0 DUP1 REVERT JUMPDEST PUSH1 0x0 DUP1 REVERT JUMPDEST PUSH1 0x0 PUSH1 0x1F NOT PUSH1 0x1F DUP4 ADD AND SWAP1 POP SWAP2 SWAP1 POP JUMP JUMPDEST PUSH32 0x4E487B7100000000000000000000000000000000000000000000000000000000 PUSH1 0x0 MSTORE PUSH1 0x41 PUSH1 0x4 MSTORE PUSH1 0x24 PUSH1 0x0 REVERT JUMPDEST PUSH2 0x25D5 DUP3 PUSH2 0x258C JUMP JUMPDEST DUP2 ADD DUP2 DUP2 LT PUSH8 0xFFFFFFFFFFFFFFFF DUP3 GT OR ISZERO PUSH2 0x25F4 JUMPI PUSH2 0x25F3 PUSH2 0x259D JUMP JUMPDEST JUMPDEST DUP1 PUSH1 0x40 MSTORE POP POP POP JUMP JUMPDEST PUSH1 0x0 PUSH2 0x2607 PUSH2 0x24AB JUMP JUMPDEST SWAP1 POP PUSH2 0x2613 DUP3 DUP3 PUSH2 0x25CC JUMP JUMPDEST SWAP2 SWAP1 POP JUMP JUMPDEST PUSH1 0x0 PUSH8 0xFFFFFFFFFFFFFFFF DUP3 GT ISZERO PUSH2 0x2633 JUMPI PUSH2 0x2632 PUSH2 0x259D JUMP JUMPDEST JUMPDEST PUSH2 0x263C DUP3 PUSH2 0x258C JUMP JUMPDEST SWAP1 POP PUSH1 0x20 DUP2 ADD SWAP1 POP SWAP2 SWAP1 POP JUMP JUMPDEST DUP3 DUP2 DUP4 CALLDATACOPY PUSH1 0x0 DUP4 DUP4 ADD MSTORE POP POP POP JUMP JUMPDEST PUSH1 0x0 PUSH2 0x266B PUSH2 0x2666 DUP5 PUSH2 0x2618 JUMP JUMPDEST PUSH2 0x25FD JUMP JUMPDEST SWAP1 POP DUP3 DUP2 MSTORE PUSH1 0x20 DUP2 ADD DUP5 DUP5 DUP5 ADD GT ISZERO PUSH2 0x2687 JUMPI PUSH2 0x2686 PUSH2 0x2587 JUMP JUMPDEST JUMPDEST PUSH2 0x2692 DUP5 DUP3 DUP6 PUSH2 0x2649 JUMP JUMPDEST POP SWAP4 SWAP3 POP POP POP JUMP JUMPDEST PUSH1 0x0 DUP3 PUSH1 0x1F DUP4 ADD SLT PUSH2 0x26AF JUMPI PUSH2 0x26AE PUSH2 0x2582 JUMP JUMPDEST JUMPDEST DUP2 CALLDATALOAD PUSH2 0x26BF DUP5 DUP3 PUSH1 0x20 DUP7 ADD PUSH2 0x2658 JUMP JUMPDEST SWAP2 POP POP SWAP3 SWAP2 POP POP JUMP JUMPDEST PUSH1 0x0 DUP1 PUSH1 0x40 DUP4 DUP6 SUB SLT ISZERO PUSH2 0x26DF JUMPI PUSH2 0x26DE PUSH2 0x24B5 JUMP JUMPDEST JUMPDEST PUSH1 0x0 DUP4 ADD CALLDATALOAD PUSH8 0xFFFFFFFFFFFFFFFF DUP2 GT ISZERO PUSH2 0x26FD JUMPI PUSH2 0x26FC PUSH2 0x24BA JUMP JUMPDEST JUMPDEST PUSH2 0x2709 DUP6 DUP3 DUP7 ADD PUSH2 0x269A JUMP JUMPDEST SWAP3 POP POP PUSH1 0x20 DUP4 ADD CALLDATALOAD PUSH8 0xFFFFFFFFFFFFFFFF DUP2 GT ISZERO PUSH2 0x272A JUMPI PUSH2 0x2729 PUSH2 0x24BA JUMP JUMPDEST JUMPDEST PUSH2 0x2736 DUP6 DUP3 DUP7 ADD PUSH2 0x269A JUMP JUMPDEST SWAP2 POP POP SWAP3 POP SWAP3 SWAP1 POP JUMP JUMPDEST PUSH1 0x0 PUSH1 0xFF DUP3 AND SWAP1 POP SWAP2 SWAP1 POP JUMP JUMPDEST PUSH2 0x2756 DUP2 PUSH2 0x2740 JUMP JUMPDEST DUP3 MSTORE POP POP JUMP JUMPDEST PUSH1 0x0 PUSH1 0x20 DUP3 ADD SWAP1 POP PUSH2 0x2771 PUSH1 0x0 DUP4 ADD DUP5 PUSH2 0x274D JUMP JUMPDEST SWAP3 SWAP2 POP POP JUMP JUMPDEST PUSH1 0x0 DUP1 PUSH1 0x0 DUP1 PUSH1 0x0 DUP1 PUSH1 0xC0 DUP8 DUP10 SUB SLT ISZERO PUSH2 0x2794 JUMPI PUSH2 0x2793 PUSH2 0x24B5 JUMP JUMPDEST JUMPDEST PUSH1 0x0 PUSH2 0x27A2 DUP10 DUP3 DUP11 ADD PUSH2 0x24E0 JUMP JUMPDEST SWAP7 POP POP PUSH1 0x20 DUP8 ADD CALLDATALOAD PUSH8 0xFFFFFFFFFFFFFFFF DUP2 GT ISZERO PUSH2 0x27C3 JUMPI PUSH2 0x27C2 PUSH2 0x24BA JUMP JUMPDEST JUMPDEST PUSH2 0x27CF DUP10 DUP3 DUP11 ADD PUSH2 0x269A JUMP JUMPDEST SWAP6 POP POP PUSH1 0x40 PUSH2 0x27E0 DUP10 DUP3 DUP11 ADD PUSH2 0x24E0 JUMP JUMPDEST SWAP5 POP POP PUSH1 0x60 PUSH2 0x27F1 DUP10 DUP3 DUP11 ADD PUSH2 0x24E0 JUMP JUMPDEST SWAP4 POP POP PUSH1 0x80 DUP8 ADD CALLDATALOAD PUSH8 0xFFFFFFFFFFFFFFFF DUP2 GT ISZERO PUSH2 0x2812 JUMPI PUSH2 0x2811 PUSH2 0x24BA JUMP JUMPDEST JUMPDEST PUSH2 0x281E DUP10 DUP3 DUP11 ADD PUSH2 0x269A JUMP JUMPDEST SWAP3 POP POP PUSH1 0xA0 DUP8 ADD CALLDATALOAD PUSH8 0xFFFFFFFFFFFFFFFF DUP2 GT ISZERO PUSH2 0x283F JUMPI PUSH2 0x283E PUSH2 0x24BA JUMP JUMPDEST JUMPDEST PUSH2 0x284B DUP10 DUP3 DUP11 ADD PUSH2 0x269A JUMP JUMPDEST SWAP2 POP POP SWAP3 SWAP6 POP SWAP3 SWAP6 POP SWAP3 SWAP6 JUMP JUMPDEST PUSH1 0x0 DUP1 PUSH1 0x40 DUP4 DUP6 SUB SLT ISZERO PUSH2 0x286F JUMPI PUSH2 0x286E PUSH2 0x24B5 JUMP JUMPDEST JUMPDEST PUSH1 0x0 PUSH2 0x287D DUP6 DUP3 DUP7 ADD PUSH2 0x24E0 JUMP JUMPDEST SWAP3 POP POP PUSH1 0x20 PUSH2 0x288E DUP6 DUP3 DUP7 ADD PUSH2 0x24E0 JUMP JUMPDEST SWAP2 POP POP SWAP3 POP SWAP3 SWAP1 POP JUMP JUMPDEST PUSH1 0x0 DUP2 MLOAD SWAP1 POP SWAP2 SWAP1 POP JUMP JUMPDEST PUSH1 0x0 DUP3 DUP3 MSTORE PUSH1 0x20 DUP3 ADD SWAP1 POP SWAP3 SWAP2 POP POP JUMP JUMPDEST PUSH1 0x0 JUMPDEST DUP4 DUP2 LT ISZERO PUSH2 0x28D2 JUMPI DUP1 DUP3 ADD MLOAD DUP2 DUP5 ADD MSTORE PUSH1 0x20 DUP2 ADD SWAP1 POP PUSH2 0x28B7 JUMP JUMPDEST PUSH1 0x0 DUP5 DUP5 ADD MSTORE POP POP POP POP JUMP JUMPDEST PUSH1 0x0 PUSH2 0x28E9 DUP3 PUSH2 0x2898 JUMP JUMPDEST PUSH2 0x28F3 DUP2 DUP6 PUSH2 0x28A3 JUMP JUMPDEST SWAP4 POP PUSH2 0x2903 DUP2 DUP6 PUSH1 0x20 DUP7 ADD PUSH2 0x28B4 JUMP JUMPDEST PUSH2 0x290C DUP2 PUSH2 0x258C JUMP JUMPDEST DUP5 ADD SWAP2 POP POP SWAP3 SWAP2 POP POP JUMP JUMPDEST PUSH1 0x0 PUSH1 0x20 DUP3 ADD SWAP1 POP DUP2 DUP2 SUB PUSH1 0x0 DUP4 ADD MSTORE PUSH2 0x2931 DUP2 DUP5 PUSH2 0x28DE JUMP JUMPDEST SWAP1 POP SWAP3 SWAP2 POP POP JUMP JUMPDEST PUSH32 0x4F7065726174696F6E206E6F7420616C6C6F77656421204F6E6C79204169726C PUSH1 0x0 DUP3 ADD MSTORE PUSH32 0x696E65204F70657261746F72202F205469636B657420427579657220616C6C6F PUSH1 0x20 DUP3 ADD MSTORE PUSH32 0x7765640000000000000000000000000000000000000000000000000000000000 PUSH1 0x40 DUP3 ADD MSTORE POP JUMP JUMPDEST PUSH1 0x0 PUSH2 0x29BB PUSH1 0x43 DUP4 PUSH2 0x28A3 JUMP JUMPDEST SWAP2 POP PUSH2 0x29C6 DUP3 PUSH2 0x2939 JUMP JUMPDEST PUSH1 0x60 DUP3 ADD SWAP1 POP SWAP2 SWAP1 POP JUMP JUMPDEST PUSH1 0x0 PUSH1 0x20 DUP3 ADD SWAP1 POP DUP2 DUP2 SUB PUSH1 0x0 DUP4 ADD MSTORE PUSH2 0x29EA DUP2 PUSH2 0x29AE JUMP JUMPDEST SWAP1 POP SWAP2 SWAP1 POP JUMP JUMPDEST PUSH32 0x214552524F522120437573746F6D657273206E6F7420616C6C6F7765642E0000 PUSH1 0x0 DUP3 ADD MSTORE POP JUMP JUMPDEST PUSH1 0x0 PUSH2 0x2A27 PUSH1 0x1E DUP4 PUSH2 0x28A3 JUMP JUMPDEST SWAP2 POP PUSH2 0x2A32 DUP3 PUSH2 0x29F1 JUMP JUMPDEST PUSH1 0x20 DUP3 ADD SWAP1 POP SWAP2 SWAP1 POP JUMP JUMPDEST PUSH1 0x0 PUSH1 0x20 DUP3 ADD SWAP1 POP DUP2 DUP2 SUB PUSH1 0x0 DUP4 ADD MSTORE PUSH2 0x2A56 DUP2 PUSH2 0x2A1A JUMP JUMPDEST SWAP1 POP SWAP2 SWAP1 POP JUMP JUMPDEST PUSH32 0x496E76616C6964204169726C696E652061646472657373000000000000000000 PUSH1 0x0 DUP3 ADD MSTORE POP JUMP JUMPDEST PUSH1 0x0 PUSH2 0x2A93 PUSH1 0x17 DUP4 PUSH2 0x28A3 JUMP JUMPDEST SWAP2 POP PUSH2 0x2A9E DUP3 PUSH2 0x2A5D JUMP JUMPDEST PUSH1 0x20 DUP3 ADD SWAP1 POP SWAP2 SWAP1 POP JUMP JUMPDEST PUSH1 0x0 PUSH1 0x20 DUP3 ADD SWAP1 POP DUP2 DUP2 SUB PUSH1 0x0 DUP4 ADD MSTORE PUSH2 0x2AC2 DUP2 PUSH2 0x2A86 JUMP JUMPDEST SWAP1 POP SWAP2 SWAP1 POP JUMP JUMPDEST PUSH32 0x4661696C656420746F205265676973746572204169726C696E65000000000000 PUSH1 0x0 DUP3 ADD MSTORE POP JUMP JUMPDEST PUSH1 0x0 PUSH2 0x2AFF PUSH1 0x1A DUP4 PUSH2 0x28A3 JUMP JUMPDEST SWAP2 POP PUSH2 0x2B0A DUP3 PUSH2 0x2AC9 JUMP JUMPDEST PUSH1 0x20 DUP3 ADD SWAP1 POP SWAP2 SWAP1 POP JUMP JUMPDEST PUSH1 0x0 PUSH1 0x20 DUP3 ADD SWAP1 POP DUP2 DUP2 SUB PUSH1 0x0 DUP4 ADD MSTORE PUSH2 0x2B2E DUP2 PUSH2 0x2AF2 JUMP JUMPDEST SWAP1 POP SWAP2 SWAP1 POP JUMP JUMPDEST PUSH32 0x444F4D4553544943000000000000000000000000000000000000000000000000 PUSH1 0x0 DUP3 ADD MSTORE POP JUMP JUMPDEST PUSH1 0x0 PUSH2 0x2B6B PUSH1 0x8 DUP4 PUSH2 0x28A3 JUMP JUMPDEST SWAP2 POP PUSH2 0x2B76 DUP3 PUSH2 0x2B35 JUMP JUMPDEST PUSH1 0x20 DUP3 ADD SWAP1 POP SWAP2 SWAP1 POP JUMP JUMPDEST PUSH1 0x0 PUSH1 0x60 DUP3 ADD SWAP1 POP DUP2 DUP2 SUB PUSH1 0x0 DUP4 ADD MSTORE PUSH2 0x2B9A DUP2 PUSH2 0x2B5E JUMP JUMPDEST SWAP1 POP DUP2 DUP2 SUB PUSH1 0x20 DUP4 ADD MSTORE PUSH2 0x2BAE DUP2 DUP6 PUSH2 0x28DE JUMP JUMPDEST SWAP1 POP DUP2 DUP2 SUB PUSH1 0x40 DUP4 ADD MSTORE PUSH2 0x2BC2 DUP2 DUP5 PUSH2 0x28DE JUMP JUMPDEST SWAP1 POP SWAP4 SWAP3 POP POP POP JUMP JUMPDEST PUSH32 0x494E5445524E4154494F4E414C00000000000000000000000000000000000000 PUSH1 0x0 DUP3 ADD MSTORE POP JUMP JUMPDEST PUSH1 0x0 PUSH2 0x2C01 PUSH1 0xD DUP4 PUSH2 0x28A3 JUMP JUMPDEST SWAP2 POP PUSH2 0x2C0C DUP3 PUSH2 0x2BCB JUMP JUMPDEST PUSH1 0x20 DUP3 ADD SWAP1 POP SWAP2 SWAP1 POP JUMP JUMPDEST PUSH1 0x0 PUSH1 0x60 DUP3 ADD SWAP1 POP DUP2 DUP2 SUB PUSH1 0x0 DUP4 ADD MSTORE PUSH2 0x2C30 DUP2 PUSH2 0x2BF4 JUMP JUMPDEST SWAP1 POP DUP2 DUP2 SUB PUSH1 0x20 DUP4 ADD MSTORE PUSH2 0x2C44 DUP2 DUP6 PUSH2 0x28DE JUMP JUMPDEST SWAP1 POP DUP2 DUP2 SUB PUSH1 0x40 DUP4 ADD MSTORE PUSH2 0x2C58 DUP2 DUP5 PUSH2 0x28DE JUMP JUMPDEST SWAP1 POP SWAP4 SWAP3 POP POP POP JUMP JUMPDEST PUSH32 0x4F6E6C7920466C69676874204F7065726174696E67204169726C696E6520616C PUSH1 0x0 DUP3 ADD MSTORE PUSH32 0x6C6F776564000000000000000000000000000000000000000000000000000000 PUSH1 0x20 DUP3 ADD MSTORE POP JUMP JUMPDEST PUSH1 0x0 PUSH2 0x2CBD PUSH1 0x25 DUP4 PUSH2 0x28A3 JUMP JUMPDEST SWAP2 POP PUSH2 0x2CC8 DUP3 PUSH2 0x2C61 JUMP JUMPDEST PUSH1 0x40 DUP3 ADD SWAP1 POP SWAP2 SWAP1 POP JUMP JUMPDEST PUSH1 0x0 PUSH1 0x20 DUP3 ADD SWAP1 POP DUP2 DUP2 SUB PUSH1 0x0 DUP4 ADD MSTORE PUSH2 0x2CEC DUP2 PUSH2 0x2CB0 JUMP JUMPDEST SWAP1 POP SWAP2 SWAP1 POP JUMP JUMPDEST PUSH32 0x466C696768742063616E6E6F7420626520757064617465642E00000000000000 PUSH1 0x0 DUP3 ADD MSTORE POP JUMP JUMPDEST PUSH1 0x0 PUSH2 0x2D29 PUSH1 0x19 DUP4 PUSH2 0x28A3 JUMP JUMPDEST SWAP2 POP PUSH2 0x2D34 DUP3 PUSH2 0x2CF3 JUMP JUMPDEST PUSH1 0x20 DUP3 ADD SWAP1 POP SWAP2 SWAP1 POP JUMP JUMPDEST PUSH1 0x0 PUSH1 0x20 DUP3 ADD SWAP1 POP DUP2 DUP2 SUB PUSH1 0x0 DUP4 ADD MSTORE PUSH2 0x2D58 DUP2 PUSH2 0x2D1C JUMP JUMPDEST SWAP1 POP SWAP2 SWAP1 POP JUMP JUMPDEST PUSH32 0x466C6F67687420697320534F4C444F5554000000000000000000000000000000 PUSH1 0x0 DUP3 ADD MSTORE POP JUMP JUMPDEST PUSH1 0x0 PUSH2 0x2D95 PUSH1 0x11 DUP4 PUSH2 0x28A3 JUMP JUMPDEST SWAP2 POP PUSH2 0x2DA0 DUP3 PUSH2 0x2D5F JUMP JUMPDEST PUSH1 0x20 DUP3 ADD SWAP1 POP SWAP2 SWAP1 POP JUMP JUMPDEST PUSH1 0x0 PUSH1 0x40 DUP3 ADD SWAP1 POP PUSH2 0x2DC0 PUSH1 0x0 DUP4 ADD DUP5 PUSH2 0x2558 JUMP JUMPDEST DUP2 DUP2 SUB PUSH1 0x20 DUP4 ADD MSTORE PUSH2 0x2DD1 DUP2 PUSH2 0x2D88 JUMP JUMPDEST SWAP1 POP SWAP3 SWAP2 POP POP JUMP JUMPDEST PUSH32 0x4661696C656420746F2075706461746520737461747573000000000000000000 PUSH1 0x0 DUP3 ADD MSTORE POP JUMP JUMPDEST PUSH1 0x0 PUSH2 0x2E0F PUSH1 0x17 DUP4 PUSH2 0x28A3 JUMP JUMPDEST SWAP2 POP PUSH2 0x2E1A DUP3 PUSH2 0x2DD9 JUMP JUMPDEST PUSH1 0x20 DUP3 ADD SWAP1 POP SWAP2 SWAP1 POP JUMP JUMPDEST PUSH1 0x0 PUSH1 0x20 DUP3 ADD SWAP1 POP DUP2 DUP2 SUB PUSH1 0x0 DUP4 ADD MSTORE PUSH2 0x2E3E DUP2 PUSH2 0x2E02 JUMP JUMPDEST SWAP1 POP SWAP2 SWAP1 POP JUMP JUMPDEST PUSH32 0x466C6967687420686173204C414E444544000000000000000000000000000000 PUSH1 0x0 DUP3 ADD MSTORE POP JUMP JUMPDEST PUSH1 0x0 PUSH2 0x2E7B PUSH1 0x11 DUP4 PUSH2 0x28A3 JUMP JUMPDEST SWAP2 POP PUSH2 0x2E86 DUP3 PUSH2 0x2E45 JUMP JUMPDEST PUSH1 0x20 DUP3 ADD SWAP1 POP SWAP2 SWAP1 POP JUMP JUMPDEST PUSH1 0x0 PUSH1 0x40 DUP3 ADD SWAP1 POP PUSH2 0x2EA6 PUSH1 0x0 DUP4 ADD DUP5 PUSH2 0x2558 JUMP JUMPDEST DUP2 DUP2 SUB PUSH1 0x20 DUP4 ADD MSTORE PUSH2 0x2EB7 DUP2 PUSH2 0x2E6E JUMP JUMPDEST SWAP1 POP SWAP3 SWAP2 POP POP JUMP JUMPDEST PUSH32 0x4F7065726174696F6E206E6F7420616C6C6F77656421204F6E6C792072656769 PUSH1 0x0 DUP3 ADD MSTORE PUSH32 0x737465726564204169726C696E657320616C6C6F776564000000000000000000 PUSH1 0x20 DUP3 ADD MSTORE POP JUMP JUMPDEST PUSH1 0x0 PUSH2 0x2F1B PUSH1 0x37 DUP4 PUSH2 0x28A3 JUMP JUMPDEST SWAP2 POP PUSH2 0x2F26 DUP3 PUSH2 0x2EBF JUMP JUMPDEST PUSH1 0x40 DUP3 ADD SWAP1 POP SWAP2 SWAP1 POP JUMP JUMPDEST PUSH1 0x0 PUSH1 0x20 DUP3 ADD SWAP1 POP DUP2 DUP2 SUB PUSH1 0x0 DUP4 ADD MSTORE PUSH2 0x2F4A DUP2 PUSH2 0x2F0E JUMP JUMPDEST SWAP1 POP SWAP2 SWAP1 POP JUMP JUMPDEST PUSH32 0x466C6967687420616C7265616479207365747570000000000000000000000000 PUSH1 0x0 DUP3 ADD MSTORE POP JUMP JUMPDEST PUSH1 0x0 PUSH2 0x2F87 PUSH1 0x14 DUP4 PUSH2 0x28A3 JUMP JUMPDEST SWAP2 POP PUSH2 0x2F92 DUP3 PUSH2 0x2F51 JUMP JUMPDEST PUSH1 0x20 DUP3 ADD SWAP1 POP SWAP2 SWAP1 POP JUMP JUMPDEST PUSH1 0x0 PUSH1 0x20 DUP3 ADD SWAP1 POP DUP2 DUP2 SUB PUSH1 0x0 DUP4 ADD MSTORE PUSH2 0x2FB6 DUP2 PUSH2 0x2F7A JUMP JUMPDEST SWAP1 POP SWAP2 SWAP1 POP JUMP JUMPDEST PUSH32 0x4E487B7100000000000000000000000000000000000000000000000000000000 PUSH1 0x0 MSTORE PUSH1 0x22 PUSH1 0x4 MSTORE PUSH1 0x24 PUSH1 0x0 REVERT JUMPDEST PUSH1 0x0 PUSH1 0x2 DUP3 DIV SWAP1 POP PUSH1 0x1 DUP3 AND DUP1 PUSH2 0x3004 JUMPI PUSH1 0x7F DUP3 AND SWAP2 POP JUMPDEST PUSH1 0x20 DUP3 LT DUP2 SUB PUSH2 0x3017 JUMPI PUSH2 0x3016 PUSH2 0x2FBD JUMP JUMPDEST JUMPDEST POP SWAP2 SWAP1 POP JUMP JUMPDEST PUSH1 0x0 DUP2 SWAP1 POP DUP2 PUSH1 0x0 MSTORE PUSH1 0x20 PUSH1 0x0 KECCAK256 SWAP1 POP SWAP2 SWAP1 POP JUMP JUMPDEST PUSH1 0x0 PUSH1 0x20 PUSH1 0x1F DUP4 ADD DIV SWAP1 POP SWAP2 SWAP1 POP JUMP JUMPDEST PUSH1 0x0 DUP3 DUP3 SHL SWAP1 POP SWAP3 SWAP2 POP POP JUMP JUMPDEST PUSH1 0x0 PUSH1 0x8 DUP4 MUL PUSH2 0x307F PUSH32 0xFFFFFFFFFFFFFFFFFFFFFFFFFFFFFFFFFFFFFFFFFFFFFFFFFFFFFFFFFFFFFFFF DUP3 PUSH2 0x3042 JUMP JUMPDEST PUSH2 0x3089 DUP7 DUP4 PUSH2 0x3042 JUMP JUMPDEST SWAP6 POP DUP1 NOT DUP5 AND SWAP4 POP DUP1 DUP7 AND DUP5 OR SWAP3 POP POP POP SWAP4 SWAP3 POP POP POP JUMP JUMPDEST PUSH1 0x0 DUP2 SWAP1 POP SWAP2 SWAP1 POP JUMP JUMPDEST PUSH1 0x0 PUSH2 0x30C6 PUSH2 0x30C1 PUSH2 0x30BC DUP5 PUSH2 0x24BF JUMP JUMPDEST PUSH2 0x30A1 JUMP JUMPDEST PUSH2 0x24BF JUMP JUMPDEST SWAP1 POP SWAP2 SWAP1 POP JUMP JUMPDEST PUSH1 0x0 DUP2 SWAP1 POP SWAP2 SWAP1 POP JUMP JUMPDEST PUSH2 0x30E0 DUP4 PUSH2 0x30AB JUMP JUMPDEST PUSH2 0x30F4 PUSH2 0x30EC DUP3 PUSH2 0x30CD JUMP JUMPDEST DUP5 DUP5 SLOAD PUSH2 0x304F JUMP JUMPDEST DUP3 SSTORE POP POP POP POP JUMP JUMPDEST PUSH1 0x0 SWAP1 JUMP JUMPDEST PUSH2 0x3109 PUSH2 0x30FC JUMP JUMPDEST PUSH2 0x3114 DUP2 DUP5 DUP5 PUSH2 0x30D7 JUMP JUMPDEST POP POP POP JUMP JUMPDEST JUMPDEST DUP2 DUP2 LT ISZERO PUSH2 0x3138 JUMPI PUSH2 0x312D PUSH1 0x0 DUP3 PUSH2 0x3101 JUMP JUMPDEST PUSH1 0x1 DUP2 ADD SWAP1 POP PUSH2 0x311A JUMP JUMPDEST POP POP JUMP JUMPDEST PUSH1 0x1F DUP3 GT ISZERO PUSH2 0x317D JUMPI PUSH2 0x314E DUP2 PUSH2 0x301D JUMP JUMPDEST PUSH2 0x3157 DUP5 PUSH2 0x3032 JUMP JUMPDEST DUP2 ADD PUSH1 0x20 DUP6 LT ISZERO PUSH2 0x3166 JUMPI DUP2 SWAP1 POP JUMPDEST PUSH2 0x317A PUSH2 0x3172 DUP6 PUSH2 0x3032 JUMP JUMPDEST DUP4 ADD DUP3 PUSH2 0x3119 JUMP JUMPDEST POP POP JUMPDEST POP POP POP JUMP JUMPDEST PUSH1 0x0 DUP3 DUP3 SHR SWAP1 POP SWAP3 SWAP2 POP POP JUMP JUMPDEST PUSH1 0x0 PUSH2 0x31A0 PUSH1 0x0 NOT DUP5 PUSH1 0x8 MUL PUSH2 0x3182 JUMP JUMPDEST NOT DUP1 DUP4 AND SWAP2 POP POP SWAP3 SWAP2 POP POP JUMP JUMPDEST PUSH1 0x0 PUSH2 0x31B9 DUP4 DUP4 PUSH2 0x318F JUMP JUMPDEST SWAP2 POP DUP3 PUSH1 0x2 MUL DUP3 OR SWAP1 POP SWAP3 SWAP2 POP POP JUMP JUMPDEST PUSH2 0x31D2 DUP3 PUSH2 0x2898 JUMP JUMPDEST PUSH8 0xFFFFFFFFFFFFFFFF DUP2 GT ISZERO PUSH2 0x31EB JUMPI PUSH2 0x31EA PUSH2 0x259D JUMP JUMPDEST JUMPDEST PUSH2 0x31F5 DUP3 SLOAD PUSH2 0x2FEC JUMP JUMPDEST PUSH2 0x3200 DUP3 DUP3 DUP6 PUSH2 0x313C JUMP JUMPDEST PUSH1 0x0 PUSH1 0x20 SWAP1 POP PUSH1 0x1F DUP4 GT PUSH1 0x1 DUP2 EQ PUSH2 0x3233 JUMPI PUSH1 0x0 DUP5 ISZERO PUSH2 0x3221 JUMPI DUP3 DUP8 ADD MLOAD SWAP1 POP JUMPDEST PUSH2 0x322B DUP6 DUP3 PUSH2 0x31AD JUMP JUMPDEST DUP7 SSTORE POP PUSH2 0x3293 JUMP JUMPDEST PUSH1 0x1F NOT DUP5 AND PUSH2 0x3241 DUP7 PUSH2 0x301D JUMP JUMPDEST PUSH1 0x0 JUMPDEST DUP3 DUP2 LT ISZERO PUSH2 0x3269 JUMPI DUP5 DUP10 ADD MLOAD DUP3 SSTORE PUSH1 0x1 DUP3 ADD SWAP2 POP PUSH1 0x20 DUP6 ADD SWAP5 POP PUSH1 0x20 DUP2 ADD SWAP1 POP PUSH2 0x3244 JUMP JUMPDEST DUP7 DUP4 LT ISZERO PUSH2 0x3286 JUMPI DUP5 DUP10 ADD MLOAD PUSH2 0x3282 PUSH1 0x1F DUP10 AND DUP3 PUSH2 0x318F JUMP JUMPDEST DUP4 SSTORE POP JUMPDEST PUSH1 0x1 PUSH1 0x2 DUP9 MUL ADD DUP9 SSTORE POP POP POP JUMPDEST POP POP POP POP POP POP JUMP JUMPDEST PUSH1 0x0 PUSH1 0x40 DUP3 ADD SWAP1 POP PUSH2 0x32B0 PUSH1 0x0 DUP4 ADD DUP6 PUSH2 0x2558 JUMP JUMPDEST DUP2 DUP2 SUB PUSH1 0x20 DUP4 ADD MSTORE PUSH2 0x32C2 DUP2 DUP5 PUSH2 0x28DE JUMP JUMPDEST SWAP1 POP SWAP4 SWAP3 POP POP POP JUMP JUMPDEST PUSH32 0x466C69676874206973204F4E2D54494D45000000000000000000000000000000 PUSH1 0x0 DUP3 ADD MSTORE POP JUMP JUMPDEST PUSH1 0x0 PUSH2 0x3301 PUSH1 0x11 DUP4 PUSH2 0x28A3 JUMP JUMPDEST SWAP2 POP PUSH2 0x330C DUP3 PUSH2 0x32CB JUMP JUMPDEST PUSH1 0x20 DUP3 ADD SWAP1 POP SWAP2 SWAP1 POP JUMP JUMPDEST PUSH1 0x0 PUSH1 0x40 DUP3 ADD SWAP1 POP PUSH2 0x332C PUSH1 0x0 DUP4 ADD DUP5 PUSH2 0x2558 JUMP JUMPDEST DUP2 DUP2 SUB PUSH1 0x20 DUP4 ADD MSTORE PUSH2 0x333D DUP2 PUSH2 0x32F4 JUMP JUMPDEST SWAP1 POP SWAP3 SWAP2 POP POP JUMP JUMPDEST PUSH32 0x496E76616C69642064656C61792074696D650000000000000000000000000000 PUSH1 0x0 DUP3 ADD MSTORE POP JUMP JUMPDEST PUSH1 0x0 PUSH2 0x337B PUSH1 0x12 DUP4 PUSH2 0x28A3 JUMP JUMPDEST SWAP2 POP PUSH2 0x3386 DUP3 PUSH2 0x3345 JUMP JUMPDEST PUSH1 0x20 DUP3 ADD SWAP1 POP SWAP2 SWAP1 POP JUMP JUMPDEST PUSH1 0x0 PUSH1 0x20 DUP3 ADD SWAP1 POP DUP2 DUP2 SUB PUSH1 0x0 DUP4 ADD MSTORE PUSH2 0x33AA DUP2 PUSH2 0x336E JUMP JUMPDEST SWAP1 POP SWAP2 SWAP1 POP JUMP JUMPDEST PUSH32 0x466C696768742064656C61796564206279200000000000000000000000000000 DUP2 MSTORE POP JUMP JUMPDEST PUSH1 0x0 DUP2 SWAP1 POP SWAP3 SWAP2 POP POP JUMP JUMPDEST PUSH1 0x0 PUSH2 0x33ED DUP3 PUSH2 0x2898 JUMP JUMPDEST PUSH2 0x33F7 DUP2 DUP6 PUSH2 0x33D7 JUMP JUMPDEST SWAP4 POP PUSH2 0x3407 DUP2 DUP6 PUSH1 0x20 DUP7 ADD PUSH2 0x28B4 JUMP JUMPDEST DUP1 DUP5 ADD SWAP2 POP POP SWAP3 SWAP2 POP POP JUMP JUMPDEST PUSH1 0x0 PUSH2 0x341E DUP3 PUSH2 0x33B1 JUMP JUMPDEST PUSH1 0x12 DUP3 ADD SWAP2 POP PUSH2 0x342E DUP3 DUP5 PUSH2 0x33E2 JUMP JUMPDEST SWAP2 POP DUP2 SWAP1 POP SWAP3 SWAP2 POP POP JUMP JUMPDEST PUSH32 0x466C6967687420697320424F415244494E470000000000000000000000000000 PUSH1 0x0 DUP3 ADD MSTORE POP JUMP JUMPDEST PUSH1 0x0 PUSH2 0x346F PUSH1 0x12 DUP4 PUSH2 0x28A3 JUMP JUMPDEST SWAP2 POP PUSH2 0x347A DUP3 PUSH2 0x3439 JUMP JUMPDEST PUSH1 0x20 DUP3 ADD SWAP1 POP SWAP2 SWAP1 POP JUMP JUMPDEST PUSH1 0x0 PUSH1 0x40 DUP3 ADD SWAP1 POP PUSH2 0x349A PUSH1 0x0 DUP4 ADD DUP5 PUSH2 0x2558 JUMP JUMPDEST DUP2 DUP2 SUB PUSH1 0x20 DUP4 ADD MSTORE PUSH2 0x34AB DUP2 PUSH2 0x3462 JUMP JUMPDEST SWAP1 POP SWAP3 SWAP2 POP POP JUMP JUMPDEST PUSH32 0x4F7065726174696F6E206E6F7420616C6C6F77656421204F6E6C79204169726C PUSH1 0x0 DUP3 ADD MSTORE PUSH32 0x696E65204F70657261746F7220616C6C6F776564000000000000000000000000 PUSH1 0x20 DUP3 ADD MSTORE POP JUMP JUMPDEST PUSH1 0x0 PUSH2 0x350F PUSH1 0x34 DUP4 PUSH2 0x28A3 JUMP JUMPDEST SWAP2 POP PUSH2 0x351A DUP3 PUSH2 0x34B3 JUMP JUMPDEST PUSH1 0x40 DUP3 ADD SWAP1 POP SWAP2 SWAP1 POP JUMP JUMPDEST PUSH1 0x0 PUSH1 0x20 DUP3 ADD SWAP1 POP DUP2 DUP2 SUB PUSH1 0x0 DUP4 ADD MSTORE PUSH2 0x353E DUP2 PUSH2 0x3502 JUMP JUMPDEST SWAP1 POP SWAP2 SWAP1 POP JUMP JUMPDEST PUSH32 0x556E6B6E6F776E20466C69676874000000000000000000000000000000000000 PUSH1 0x0 DUP3 ADD MSTORE POP JUMP JUMPDEST PUSH1 0x0 PUSH2 0x357B PUSH1 0xE DUP4 PUSH2 0x28A3 JUMP JUMPDEST SWAP2 POP PUSH2 0x3586 DUP3 PUSH2 0x3545 JUMP JUMPDEST PUSH1 0x20 DUP3 ADD SWAP1 POP SWAP2 SWAP1 POP JUMP JUMPDEST PUSH1 0x0 PUSH1 0x20 DUP3 ADD SWAP1 POP DUP2 DUP2 SUB PUSH1 0x0 DUP4 ADD MSTORE PUSH2 0x35AA DUP2 PUSH2 0x356E JUMP JUMPDEST SWAP1 POP SWAP2 SWAP1 POP JUMP JUMPDEST PUSH32 0x202841766C3A2000000000000000000000000000000000000000000000000000 DUP2 MSTORE POP JUMP JUMPDEST PUSH32 0x2900000000000000000000000000000000000000000000000000000000000000 DUP2 MSTORE POP JUMP JUMPDEST PUSH1 0x0 PUSH2 0x3608 DUP3 PUSH2 0x35B1 JUMP JUMPDEST PUSH1 0x7 DUP3 ADD SWAP2 POP PUSH2 0x3618 DUP3 DUP5 PUSH2 0x33E2 JUMP JUMPDEST SWAP2 POP PUSH2 0x3623 DUP3 PUSH2 0x35D7 JUMP JUMPDEST PUSH1 0x1 DUP3 ADD SWAP2 POP DUP2 SWAP1 POP SWAP3 SWAP2 POP POP JUMP JUMPDEST PUSH32 0x5343484544554C45440000000000000000000000000000000000000000000000 DUP2 MSTORE POP JUMP JUMPDEST PUSH1 0x0 PUSH2 0x3663 DUP3 PUSH2 0x3632 JUMP JUMPDEST PUSH1 0x9 DUP3 ADD SWAP2 POP PUSH2 0x3673 DUP3 DUP5 PUSH2 0x33E2 JUMP JUMPDEST SWAP2 POP DUP2 SWAP1 POP SWAP3 SWAP2 POP POP JUMP JUMPDEST PUSH32 0x4F4E2D54494D4500000000000000000000000000000000000000000000000000 DUP2 MSTORE POP JUMP JUMPDEST PUSH1 0x0 PUSH2 0x36AF DUP3 PUSH2 0x367E JUMP JUMPDEST PUSH1 0x7 DUP3 ADD SWAP2 POP PUSH2 0x36BF DUP3 DUP5 PUSH2 0x33E2 JUMP JUMPDEST SWAP2 POP DUP2 SWAP1 POP SWAP3 SWAP2 POP POP JUMP JUMPDEST PUSH32 0x44454C4159454400000000000000000000000000000000000000000000000000 DUP2 MSTORE POP JUMP JUMPDEST PUSH1 0x0 PUSH2 0x36FB DUP3 PUSH2 0x36CA JUMP JUMPDEST PUSH1 0x7 DUP3 ADD SWAP2 POP PUSH2 0x370B DUP3 DUP5 PUSH2 0x33E2 JUMP JUMPDEST SWAP2 POP DUP2 SWAP1 POP SWAP3 SWAP2 POP POP JUMP JUMPDEST PUSH32 0x424F415244494E47000000000000000000000000000000000000000000000000 DUP2 MSTORE POP JUMP JUMPDEST PUSH1 0x0 PUSH2 0x3747 DUP3 PUSH2 0x3716 JUMP JUMPDEST PUSH1 0x8 DUP3 ADD SWAP2 POP PUSH2 0x3757 DUP3 DUP5 PUSH2 0x33E2 JUMP JUMPDEST SWAP2 POP DUP2 SWAP1 POP SWAP3 SWAP2 POP POP JUMP JUMPDEST PUSH32 0x466C6967687420697320494E2D41495200000000000000000000000000000000 PUSH1 0x0 DUP3 ADD MSTORE POP JUMP JUMPDEST PUSH1 0x0 PUSH2 0x3798 PUSH1 0x10 DUP4 PUSH2 0x28A3 JUMP JUMPDEST SWAP2 POP PUSH2 0x37A3 DUP3 PUSH2 0x3762 JUMP JUMPDEST PUSH1 0x20 DUP3 ADD SWAP1 POP SWAP2 SWAP1 POP JUMP JUMPDEST PUSH1 0x0 PUSH1 0x40 DUP3 ADD SWAP1 POP PUSH2 0x37C3 PUSH1 0x0 DUP4 ADD DUP5 PUSH2 0x2558 JUMP JUMPDEST DUP2 DUP2 SUB PUSH1 0x20 DUP4 ADD MSTORE PUSH2 0x37D4 DUP2 PUSH2 0x378B JUMP JUMPDEST SWAP1 POP SWAP3 SWAP2 POP POP JUMP JUMPDEST PUSH32 0x466C696768742043616E6E6F742062652063616E63656C6C6564000000000000 PUSH1 0x0 DUP3 ADD MSTORE POP JUMP JUMPDEST PUSH1 0x0 PUSH2 0x3812 PUSH1 0x1A DUP4 PUSH2 0x28A3 JUMP JUMPDEST SWAP2 POP PUSH2 0x381D DUP3 PUSH2 0x37DC JUMP JUMPDEST PUSH1 0x20 DUP3 ADD SWAP1 POP SWAP2 SWAP1 POP JUMP JUMPDEST PUSH1 0x0 PUSH1 0x20 DUP3 ADD SWAP1 POP DUP2 DUP2 SUB PUSH1 0x0 DUP4 ADD MSTORE PUSH2 0x3841 DUP2 PUSH2 0x3805 JUMP JUMPDEST SWAP1 POP SWAP2 SWAP1 POP JUMP JUMPDEST PUSH32 0x466C696768742069732043414E43454C4C454400000000000000000000000000 PUSH1 0x0 DUP3 ADD MSTORE POP JUMP JUMPDEST PUSH1 0x0 PUSH2 0x387E PUSH1 0x13 DUP4 PUSH2 0x28A3 JUMP JUMPDEST SWAP2 POP PUSH2 0x3889 DUP3 PUSH2 0x3848 JUMP JUMPDEST PUSH1 0x20 DUP3 ADD SWAP1 POP SWAP2 SWAP1 POP JUMP JUMPDEST PUSH1 0x0 PUSH1 0x40 DUP3 ADD SWAP1 POP PUSH2 0x38A9 PUSH1 0x0 DUP4 ADD DUP5 PUSH2 0x2558 JUMP JUMPDEST DUP2 DUP2 SUB PUSH1 0x20 DUP4 ADD MSTORE PUSH2 0x38BA DUP2 PUSH2 0x3871 JUMP JUMPDEST SWAP1 POP SWAP3 SWAP2 POP POP JUMP JUMPDEST PUSH32 0x4E487B7100000000000000000000000000000000000000000000000000000000 PUSH1 0x0 MSTORE PUSH1 0x21 PUSH1 0x4 MSTORE PUSH1 0x24 PUSH1 0x0 REVERT JUMPDEST PUSH32 0x4169726C696E6520616C7265616479207365747570202D200000000000000000 DUP2 MSTORE POP JUMP JUMPDEST PUSH1 0x0 DUP2 SLOAD PUSH2 0x3924 DUP2 PUSH2 0x2FEC JUMP JUMPDEST PUSH2 0x392E DUP2 DUP7 PUSH2 0x33D7 JUMP JUMPDEST SWAP5 POP PUSH1 0x1 DUP3 AND PUSH1 0x0 DUP2 EQ PUSH2 0x3949 JUMPI PUSH1 0x1 DUP2 EQ PUSH2 0x395E JUMPI PUSH2 0x3991 JUMP JUMPDEST PUSH1 0xFF NOT DUP4 AND DUP7 MSTORE DUP2 ISZERO ISZERO DUP3 MUL DUP7 ADD SWAP4 POP PUSH2 0x3991 JUMP JUMPDEST PUSH2 0x3967 DUP6 PUSH2 0x301D JUMP JUMPDEST PUSH1 0x0 JUMPDEST DUP4 DUP2 LT ISZERO PUSH2 0x3989 JUMPI DUP2 SLOAD DUP2 DUP10 ADD MSTORE PUSH1 0x1 DUP3 ADD SWAP2 POP PUSH1 0x20 DUP2 ADD SWAP1 POP PUSH2 0x396A JUMP JUMPDEST DUP4 DUP9 ADD SWAP6 POP POP POP JUMPDEST POP POP POP SWAP3 SWAP2 POP POP JUMP JUMPDEST PUSH1 0x0 PUSH2 0x39A5 DUP3 PUSH2 0x38F1 JUMP JUMPDEST PUSH1 0x18 DUP3 ADD SWAP2 POP PUSH2 0x39B5 DUP3 DUP5 PUSH2 0x3917 JUMP JUMPDEST SWAP2 POP DUP2 SWAP1 POP SWAP3 SWAP2 POP POP JUMP JUMPDEST PUSH32 0x4E487B7100000000000000000000000000000000000000000000000000000000 PUSH1 0x0 MSTORE PUSH1 0x11 PUSH1 0x4 MSTORE PUSH1 0x24 PUSH1 0x0 REVERT JUMPDEST PUSH1 0x0 PUSH2 0x39FA DUP3 PUSH2 0x24BF JUMP JUMPDEST SWAP2 POP PUSH32 0xFFFFFFFFFFFFFFFFFFFFFFFFFFFFFFFFFFFFFFFFFFFFFFFFFFFFFFFFFFFFFFFF DUP3 SUB PUSH2 0x3A2C JUMPI PUSH2 0x3A2B PUSH2 0x39C0 JUMP JUMPDEST JUMPDEST PUSH1 0x1 DUP3 ADD SWAP1 POP SWAP2 SWAP1 POP JUMP JUMPDEST PUSH32 0x4E487B7100000000000000000000000000000000000000000000000000000000 PUSH1 0x0 MSTORE PUSH1 0x12 PUSH1 0x4 MSTORE PUSH1 0x24 PUSH1 0x0 REVERT JUMPDEST PUSH1 0x0 PUSH2 0x3A71 DUP3 PUSH2 0x24BF JUMP JUMPDEST SWAP2 POP PUSH2 0x3A7C DUP4 PUSH2 0x24BF JUMP JUMPDEST SWAP3 POP DUP3 PUSH2 0x3A8C JUMPI PUSH2 0x3A8B PUSH2 0x3A37 JUMP JUMPDEST JUMPDEST DUP3 DUP3 DIV SWAP1 POP SWAP3 SWAP2 POP POP JUMP JUMPDEST PUSH1 0x0 PUSH2 0x3AA2 DUP3 PUSH2 0x24BF JUMP JUMPDEST SWAP2 POP PUSH1 0x0 DUP3 SUB PUSH2 0x3AB5 JUMPI PUSH2 0x3AB4 PUSH2 0x39C0 JUMP JUMPDEST JUMPDEST PUSH1 0x1 DUP3 SUB SWAP1 POP SWAP2 SWAP1 POP JUMP JUMPDEST PUSH1 0x0 PUSH2 0x3ACB DUP3 PUSH2 0x24BF JUMP JUMPDEST SWAP2 POP PUSH2 0x3AD6 DUP4 PUSH2 0x24BF JUMP JUMPDEST SWAP3 POP DUP3 PUSH2 0x3AE6 JUMPI PUSH2 0x3AE5 PUSH2 0x3A37 JUMP JUMPDEST JUMPDEST DUP3 DUP3 MOD SWAP1 POP SWAP3 SWAP2 POP POP JUMP JUMPDEST PUSH1 0x0 PUSH2 0x3AFC DUP3 PUSH2 0x24BF JUMP JUMPDEST SWAP2 POP PUSH2 0x3B07 DUP4 PUSH2 0x24BF JUMP JUMPDEST SWAP3 POP DUP3 DUP3 ADD SWAP1 POP DUP1 DUP3 GT ISZERO PUSH2 0x3B1F JUMPI PUSH2 0x3B1E PUSH2 0x39C0 JUMP JUMPDEST JUMPDEST SWAP3 SWAP2 POP POP JUMP JUMPDEST PUSH32 0x4E487B7100000000000000000000000000000000000000000000000000000000 PUSH1 0x0 MSTORE PUSH1 0x32 PUSH1 0x4 MSTORE PUSH1 0x24 PUSH1 0x0 REVERT JUMPDEST PUSH32 0x214552524F5221206765744461746544696666202D2073746172744461746520 PUSH1 0x0 DUP3 ADD MSTORE PUSH32 0x3E20656E64446174650000000000000000000000000000000000000000000000 PUSH1 0x20 DUP3 ADD MSTORE POP JUMP JUMPDEST PUSH1 0x0 PUSH2 0x3BB0 PUSH1 0x29 DUP4 PUSH2 0x28A3 JUMP JUMPDEST SWAP2 POP PUSH2 0x3BBB DUP3 PUSH2 0x3B54 JUMP JUMPDEST PUSH1 0x40 DUP3 ADD SWAP1 POP SWAP2 SWAP1 POP JUMP JUMPDEST PUSH1 0x0 PUSH1 0x20 DUP3 ADD SWAP1 POP DUP2 DUP2 SUB PUSH1 0x0 DUP4 ADD MSTORE PUSH2 0x3BDF DUP2 PUSH2 0x3BA3 JUMP JUMPDEST SWAP1 POP SWAP2 SWAP1 POP JUMP JUMPDEST PUSH1 0x0 PUSH2 0x3BF1 DUP3 PUSH2 0x24BF JUMP JUMPDEST SWAP2 POP PUSH2 0x3BFC DUP4 PUSH2 0x24BF JUMP JUMPDEST SWAP3 POP DUP3 DUP3 SUB SWAP1 POP DUP2 DUP2 GT ISZERO PUSH2 0x3C14 JUMPI PUSH2 0x3C13 PUSH2 0x39C0 JUMP JUMPDEST JUMPDEST SWAP3 SWAP2 POP POP JUMP JUMPDEST PUSH1 0x0 PUSH2 0x3C25 DUP3 PUSH2 0x24BF JUMP JUMPDEST SWAP2 POP PUSH2 0x3C30 DUP4 PUSH2 0x24BF JUMP JUMPDEST SWAP3 POP DUP3 DUP3 MUL PUSH2 0x3C3E DUP2 PUSH2 0x24BF JUMP JUMPDEST SWAP2 POP DUP3 DUP3 DIV DUP5 EQ DUP4 ISZERO OR PUSH2 0x3C55 JUMPI PUSH2 0x3C54 PUSH2 0x39C0 JUMP JUMPDEST JUMPDEST POP SWAP3 SWAP2 POP POP JUMP INVALID LOG2 PUSH5 0x6970667358 0x22 SLT KECCAK256 0xC5 0xD0 0xC3 PUSH30 0xBBABFEC2BA41DEED68CD3AD6396B98006197E96F13F2B0924DAA3F56473 PUSH16 0x6C634300081200330000000000000000 "
		},
		"gasEstimates": {
			"creation": {
				"codeDepositCost": "3101200",
				"executionCost": "infinite",
				"totalCost": "infinite"
			},
			"external": {
				"MAX_SEATING_CAPACITY()": "358",
				"TICKET_PRICE_DOMESTIC()": "375",
				"TICKET_PRICE_INTERNATIONAL()": "418",
				"checkFlightStatus(uint256)": "infinite",
				"checkTicketstatus(uint256)": "infinite",
				"flightBOARDING(uint256)": "infinite",
				"flightCANCELLED(uint256)": "infinite",
				"flightDELAYED(uint256,uint256)": "infinite",
				"flightINAIR(uint256)": "infinite",
				"flightLANDED(uint256)": "infinite",
				"flightONTIME(uint256)": "infinite",
				"flightSOLDOUT(uint256)": "infinite",
				"processRefund(uint256)": "infinite",
				"refundStatus(uint256)": "infinite",
				"registerDomesticAirline(string,string)": "infinite",
				"registerInternationalAirline(string,string)": "infinite",
				"setupFlight(uint256,string,uint256,uint256,string,string)": "infinite"
			},
			"internal": {
				"_getFlight(uint256)": "infinite",
				"_registerAirline(string memory,string memory,enum EagleAirline.AirlineType)": "infinite",
				"_unblockSeat(uint256,string memory)": "infinite",
				"_updateFlightStatus(uint256,uint8,uint256)": "68784"
			}
		},
		"methodIdentifiers": {
			"MAX_SEATING_CAPACITY()": "9358819f",
			"TICKET_PRICE_DOMESTIC()": "1c84f602",
			"TICKET_PRICE_INTERNATIONAL()": "8ddb3447",
			"checkFlightStatus(uint256)": "e9ef9d1d",
			"checkTicketstatus(uint256)": "8a2db32f",
			"flightBOARDING(uint256)": "bd9e8bc1",
			"flightCANCELLED(uint256)": "f9c46ba0",
			"flightDELAYED(uint256,uint256)": "9e85c20e",
			"flightINAIR(uint256)": "eab91b22",
			"flightLANDED(uint256)": "66fd1b35",
			"flightONTIME(uint256)": "9ded7df8",
			"flightSOLDOUT(uint256)": "6017366e",
			"processRefund(uint256)": "dac87ca4",
			"refundStatus(uint256)": "0cbaafc6",
			"registerDomesticAirline(string,string)": "21cf5da3",
			"registerInternationalAirline(string,string)": "5c00da60",
			"setupFlight(uint256,string,uint256,uint256,string,string)": "944ae8d8"
		}
	},
	"abi": [
		{
			"inputs": [
				{
					"internalType": "address",
					"name": "superUser",
					"type": "address"
				}
			],
			"stateMutability": "nonpayable",
			"type": "constructor"
		},
		{
			"anonymous": false,
			"inputs": [
				{
					"indexed": false,
					"internalType": "string",
					"name": "airlineType",
					"type": "string"
				},
				{
					"indexed": false,
					"internalType": "string",
					"name": "airlineName",
					"type": "string"
				},
				{
					"indexed": false,
					"internalType": "string",
					"name": "airlineCode",
					"type": "string"
				}
			],
			"name": "AirlineRegistered",
			"type": "event"
		},
		{
			"anonymous": false,
			"inputs": [
				{
					"indexed": false,
					"internalType": "string",
					"name": "contractName",
					"type": "string"
				},
				{
					"indexed": true,
					"internalType": "address",
					"name": "contractAddress",
					"type": "address"
				}
			],
			"name": "ContractCreated",
			"type": "event"
		},
		{
			"anonymous": false,
			"inputs": [
				{
					"indexed": false,
					"internalType": "string",
					"name": "errorMessage",
					"type": "string"
				}
			],
			"name": "ErrorMessage",
			"type": "event"
		},
		{
			"anonymous": false,
			"inputs": [
				{
					"indexed": true,
					"internalType": "address",
					"name": "airline",
					"type": "address"
				},
				{
					"indexed": false,
					"internalType": "uint256",
					"name": "flightNumber",
					"type": "uint256"
				},
				{
					"indexed": false,
					"internalType": "string",
					"name": "message",
					"type": "string"
				}
			],
			"name": "FlightCancelled",
			"type": "event"
		},
		{
			"anonymous": false,
			"inputs": [
				{
					"indexed": false,
					"internalType": "uint256",
					"name": "flightNumber",
					"type": "uint256"
				},
				{
					"indexed": false,
					"internalType": "string",
					"name": "flightName",
					"type": "string"
				}
			],
			"name": "FlightRegistered",
			"type": "event"
		},
		{
			"anonymous": false,
			"inputs": [
				{
					"indexed": false,
					"internalType": "uint256",
					"name": "flightNumber",
					"type": "uint256"
				},
				{
					"indexed": false,
					"internalType": "string",
					"name": "updateMessage",
					"type": "string"
				}
			],
			"name": "FlightUpdate",
			"type": "event"
		},
		{
			"anonymous": false,
			"inputs": [
				{
					"indexed": false,
					"internalType": "string",
					"name": "infoMessage",
					"type": "string"
				}
			],
			"name": "InfoMessage",
			"type": "event"
		},
		{
			"anonymous": false,
			"inputs": [
				{
					"indexed": true,
					"internalType": "address",
					"name": "fromAddress",
					"type": "address"
				},
				{
					"indexed": true,
					"internalType": "address",
					"name": "toAddress",
					"type": "address"
				},
				{
					"indexed": false,
					"internalType": "uint256",
					"name": "amount",
					"type": "uint256"
				},
				{
					"indexed": false,
					"internalType": "string",
					"name": "message",
					"type": "string"
				}
			],
			"name": "TransferredAmout",
			"type": "event"
		},
		{
			"inputs": [],
			"name": "MAX_SEATING_CAPACITY",
			"outputs": [
				{
					"internalType": "uint8",
					"name": "",
					"type": "uint8"
				}
			],
			"stateMutability": "view",
			"type": "function"
		},
		{
			"inputs": [],
			"name": "TICKET_PRICE_DOMESTIC",
			"outputs": [
				{
					"internalType": "uint256",
					"name": "",
					"type": "uint256"
				}
			],
			"stateMutability": "view",
			"type": "function"
		},
		{
			"inputs": [],
			"name": "TICKET_PRICE_INTERNATIONAL",
			"outputs": [
				{
					"internalType": "uint256",
					"name": "",
					"type": "uint256"
				}
			],
			"stateMutability": "view",
			"type": "function"
		},
		{
			"inputs": [
				{
					"internalType": "uint256",
					"name": "flightNumber",
					"type": "uint256"
				}
			],
			"name": "checkFlightStatus",
			"outputs": [
				{
					"internalType": "string",
					"name": "statusMessage",
					"type": "string"
				}
			],
			"stateMutability": "view",
			"type": "function"
		},
		{
			"inputs": [
				{
					"internalType": "uint256",
					"name": "ticketNumber",
					"type": "uint256"
				}
			],
			"name": "checkTicketstatus",
			"outputs": [
				{
					"internalType": "bool",
					"name": "success",
					"type": "bool"
				}
			],
			"stateMutability": "view",
			"type": "function"
		},
		{
			"inputs": [
				{
					"internalType": "uint256",
					"name": "flightNumber",
					"type": "uint256"
				}
			],
			"name": "flightBOARDING",
			"outputs": [
				{
					"internalType": "bool",
					"name": "success",
					"type": "bool"
				}
			],
			"stateMutability": "nonpayable",
			"type": "function"
		},
		{
			"inputs": [
				{
					"internalType": "uint256",
					"name": "flightNumber",
					"type": "uint256"
				}
			],
			"name": "flightCANCELLED",
			"outputs": [
				{
					"internalType": "bool",
					"name": "success",
					"type": "bool"
				}
			],
			"stateMutability": "nonpayable",
			"type": "function"
		},
		{
			"inputs": [
				{
					"internalType": "uint256",
					"name": "flightNumber",
					"type": "uint256"
				},
				{
					"internalType": "uint256",
					"name": "delayMinutesFromSchTime",
					"type": "uint256"
				}
			],
			"name": "flightDELAYED",
			"outputs": [
				{
					"internalType": "bool",
					"name": "success",
					"type": "bool"
				}
			],
			"stateMutability": "nonpayable",
			"type": "function"
		},
		{
			"inputs": [
				{
					"internalType": "uint256",
					"name": "flightNumber",
					"type": "uint256"
				}
			],
			"name": "flightINAIR",
			"outputs": [
				{
					"internalType": "bool",
					"name": "success",
					"type": "bool"
				}
			],
			"stateMutability": "nonpayable",
			"type": "function"
		},
		{
			"inputs": [
				{
					"internalType": "uint256",
					"name": "flightNumber",
					"type": "uint256"
				}
			],
			"name": "flightLANDED",
			"outputs": [
				{
					"internalType": "bool",
					"name": "success",
					"type": "bool"
				}
			],
			"stateMutability": "nonpayable",
			"type": "function"
		},
		{
			"inputs": [
				{
					"internalType": "uint256",
					"name": "flightNumber",
					"type": "uint256"
				}
			],
			"name": "flightONTIME",
			"outputs": [
				{
					"internalType": "bool",
					"name": "success",
					"type": "bool"
				}
			],
			"stateMutability": "nonpayable",
			"type": "function"
		},
		{
			"inputs": [
				{
					"internalType": "uint256",
					"name": "flightNumber",
					"type": "uint256"
				}
			],
			"name": "flightSOLDOUT",
			"outputs": [
				{
					"internalType": "bool",
					"name": "success",
					"type": "bool"
				}
			],
			"stateMutability": "nonpayable",
			"type": "function"
		},
		{
			"inputs": [
				{
					"internalType": "uint256",
					"name": "ticketNumber",
					"type": "uint256"
				}
			],
			"name": "processRefund",
			"outputs": [
				{
					"internalType": "bool",
					"name": "success",
					"type": "bool"
				}
			],
			"stateMutability": "view",
			"type": "function"
		},
		{
			"inputs": [
				{
					"internalType": "uint256",
					"name": "ticketNumber",
					"type": "uint256"
				}
			],
			"name": "refundStatus",
			"outputs": [
				{
					"internalType": "bool",
					"name": "success",
					"type": "bool"
				}
			],
			"stateMutability": "view",
			"type": "function"
		},
		{
			"inputs": [
				{
					"internalType": "string",
					"name": "airlineName",
					"type": "string"
				},
				{
					"internalType": "string",
					"name": "airlineCode",
					"type": "string"
				}
			],
			"name": "registerDomesticAirline",
			"outputs": [
				{
					"internalType": "bool",
					"name": "success",
					"type": "bool"
				}
			],
			"stateMutability": "nonpayable",
			"type": "function"
		},
		{
			"inputs": [
				{
					"internalType": "string",
					"name": "airlineName",
					"type": "string"
				},
				{
					"internalType": "string",
					"name": "airlineCode",
					"type": "string"
				}
			],
			"name": "registerInternationalAirline",
			"outputs": [
				{
					"internalType": "bool",
					"name": "success",
					"type": "bool"
				}
			],
			"stateMutability": "nonpayable",
			"type": "function"
		},
		{
			"inputs": [
				{
					"internalType": "uint256",
					"name": "flightNumber",
					"type": "uint256"
				},
				{
					"internalType": "string",
					"name": "flightName",
					"type": "string"
				},
				{
					"internalType": "uint256",
					"name": "schDepartureDatetime",
					"type": "uint256"
				},
				{
					"internalType": "uint256",
					"name": "schArrivalDatetime",
					"type": "uint256"
				},
				{
					"internalType": "string",
					"name": "flightOrigin",
					"type": "string"
				},
				{
					"internalType": "string",
					"name": "flightDestination",
					"type": "string"
				}
			],
			"name": "setupFlight",
			"outputs": [
				{
					"internalType": "bool",
					"name": "success",
					"type": "bool"
				}
			],
			"stateMutability": "nonpayable",
			"type": "function"
		}
	]
}