{
	"data": {
		"bytecode": {
			"linkReferences": {
				"solidity/EagleLib.sol": {
					"EagleLib": [
						{
							"length": 20,
							"start": 1708
						},
						{
							"length": 20,
							"start": 3112
						},
						{
							"length": 20,
							"start": 3590
						}
					]
				}
			},
			"object": "60806040523480156200001157600080fd5b5060405162003918380380620039188339810160408190526200003491620000c1565b60098054306001600160a01b0319918216811790925564e8d4a51000600a55600b80549091166001600160a01b038416179055604080516020808252600c908201526b4561676c654169726c696e6560a01b918101919091527f0d1802b86a0633c4679107d4313baeacab2fb7391348ca6485df3f40844b0b079060600160405180910390a250620000f3565b600060208284031215620000d457600080fd5b81516001600160a01b0381168114620000ec57600080fd5b9392505050565b61381580620001036000396000f3fe608060405234801561001057600080fd5b50600436106101375760003560e01c806392a06131116100b85780639e85c20e1161007c5780639e85c20e146102d3578063aeeef6b5146102e6578063bd9e8bc114610306578063c34b240314610319578063eab91b2214610329578063f9c46ba01461033c57600080fd5b806392a0613114610275578063944ae8d81461028857806394c2c24f1461029b57806396044d01146102a35780639ded7df8146102c057600080fd5b80633c45a5d8116100ff5780633c45a5d8146101fe5780634da75d4f146102295780636017366e1461023c57806366fd1b351461024f5780638f00be4a1461026257600080fd5b806301b2ae051461013c5780630f51c42d146101805780631378d806146101a557806317b21972146101ba5780632eb8a88b146101db575b600080fd5b61014f61014a366004612e26565b61034f565b6040805160ff90961686526020860194909452928401919091526060830152608082015260a0015b60405180910390f35b61019361018e366004612e26565b610462565b60405160ff9091168152602001610177565b6101b86101b3366004612ee2565b6104c9565b005b6101cd6101c8366004612f2c565b61073d565b604051610177929190612f99565b6101ee6101e9366004612fb4565b610a5f565b6040519015158152602001610177565b61021161020c366004612e26565b610df4565b6040516001600160a01b039091168152602001610177565b6101cd610237366004612f2c565b6111ca565b6101ee61024a366004612e26565b61145e565b6101ee61025d366004612e26565b611574565b6101ee610270366004613004565b6116ac565b6101b861028336600461303d565b611afb565b6101b86102963660046130b9565b611c88565b610193606481565b6102b2678ac7230489e8000081565b604051908152602001610177565b6101ee6102ce366004612e26565b611f4e565b6101ee6102e136600461315d565b611fbd565b6102f96102f4366004612e26565b612075565b604051610177919061317f565b6101ee610314366004612e26565b6122b2565b6102b26802b5e3af16b188000081565b6101ee610337366004612e26565b612393565b6101ee61034a366004612e26565b612461565b600081815260026020526040812054819081908190819086146103a35760405162461bcd60e51b81526020600482015260076024820152662aa725a727aba760c91b60448201526064015b60405180910390fd5b6000868152600260205260408120600a8101546003820154600483015460079093015460ff90921693909291839183916103de90603c6131a8565b9050600360ff8716118015906103f45750600081115b156104165761040381866131bf565b925061040f81856131bf565b915061044e565b60041960ff8716016104455760008c81526002602052604090206005810154600690910154909350915061044e565b60009250600091505b50939a929950975087965091945092505050565b60008181526002602052604081205482146104b05760405162461bcd60e51b815260206004820152600e60248201526d155b9adb9bdddb88119b1a59da1d60921b604482015260640161039a565b506000908152600260205260409020600a015460ff1690565b336000818152602081905260409020546001600160a01b031690036105305760405162461bcd60e51b815260206004820152601960248201527f4552523a204e6f204169726c696e657320616c6c6f7765642e00000000000000604482015260640161039a565b336000818152600160205260409020546001600160a01b031690036105975760405162461bcd60e51b815260206004820152601a60248201527f4552523a204e6f20437573746f6d65727320616c6c6f7765642e000000000000604482015260640161039a565b60405163588c030760e11b815260009073__$7b1601ad460eaeddf4be766c693877c25b$__9063b118060e906105d190859060040161317f565b602060405180830381865af41580156105ee573d6000803e3d6000fd5b505050506040513d601f19601f8201168201806040525081019061061291906131d2565b1161064b5760405162461bcd60e51b815260206004820152600960248201526813985b59481c995c5960ba1b604482015260640161039a565b336000818152600160205260409020546001600160a01b03160361068a5733600090815260016020819052604090912001610686828261326a565b5050565b60408051606081018252338082526020808301858152600184860181905260009384529182905293909120825181546001600160a01b0319166001600160a01b0390911617815592519192839290918201906106e6908261326a565b50604091820151600291909101805460ff1916911515919091179055517fb8925ac9d3465bf9cbb2513f647fd542cfc05dd7ea17956ea38e53cec3327f589061073090849061317f565b60405180910390a1505b50565b3360009081526004602052604081206006015460609060ff166107a25760405162461bcd60e51b815260206004820152601b60248201527f4552523a204f6e6c7920436f6e6669726d6564205469636b6574730000000000604482015260640161039a565b6001600160a01b038084166000908152600460208181526040808420815160e08101835281548716815260018201549381019390935260028101549095169082015260038401546060820152908301805492939192608084019190610806906131eb565b80601f0160208091040260200160405190810160405280929190818152602001828054610832906131eb565b801561087f5780601f106108545761010080835404028352916020019161087f565b820191906000526020600020905b81548152906001019060200180831161086257829003601f168201915b50505091835250506005820154602082015260069091015460ff1615156040909101526060810151909150806108e45760405162461bcd60e51b815260206004820152600a602482015269125b9d88151a58dad95d60b21b604482015260640161039a565b6108f281836080015161254c565b506000818152600260205260408120600c01805460ff16916109138361332a565b825460ff9182166101009390930a9283029190920219909116179055506001600160a01b0385166000908152600460208190526040822080546001600160a01b0319908116825560018201849055600282018054909116905560038101839055919061098190830182612d87565b506000600582018190556006918201805460ff191690556001600160a01b0387811682526020928352604091829020855181546001600160a01b0319908116918416919091178255938601516001820155918501516002830180549094169116179091556060830151600382015560808301518391906004820190610a06908261326a565b5060a0820151600582015560c0909101516006909101805460ff1916911515919091179055505060408051808201909152601081526f151a58dad95d0818d85b98d95b1b195960821b6020820152600194909350915050565b3360009081526004602052604081206006015460ff16610ac15760405162461bcd60e51b815260206004820152601b60248201527f4552523a204f6e6c7920436f6e6669726d6564205469636b6574730000000000604482015260640161039a565b6001600160a01b03831660009081526004602090815260408083206003810154845260079092528083209051919291610afb908690613349565b908152604051908190036020018120546360353db960e01b82526001600160a01b0316915060009073__$7b1601ad460eaeddf4be766c693877c25b$__906360353db990610b4f9060048088019101613365565b602060405180830381865af4158015610b6c573d6000803e3d6000fd5b505050506040513d601f19601f82011682018060405250810190610b90919061340a565b610c2657826004018054610ba3906131eb565b80601f0160208091040260200160405190810160405280929190818152602001828054610bcf906131eb565b8015610c1c5780601f10610bf157610100808354040283529160200191610c1c565b820191906000526020600020905b815481529060010190602001808311610bff57829003601f168201915b5050505050610c37565b604051806020016040528060008152505b9050856001600160a01b0316826001600160a01b031603610c8a5760405162461bcd60e51b81526020600482015260096024820152684e6f206368616e676560b81b60448201526001945060640161039a565b856001600160a01b0316826001600160a01b031614158015610cb457506001600160a01b03821615155b15610cf45760405162461bcd60e51b815260206004820152600c60248201526b14d9585d08189b1bd8dad95960a21b60448201526000945060640161039a565b6040516360353db960e01b815273__$7b1601ad460eaeddf4be766c693877c25b$__906360353db990610d2d908490899060040161342c565b602060405180830381865af4158015610d4a573d6000803e3d6000fd5b505050506040513d601f19601f82011682018060405250810190610d6e919061340a565b610d8257610d8083600301548261254c565b505b6001935060048301610d94868261326a565b5085600760008560030154815260200190815260200160002086604051610dbb9190613349565b90815260405190819003602001902080546001600160a01b03929092166001600160a01b03199092169190911790555b50505092915050565b3360008181526001602052604081205490916001600160a01b0390911614610e545760405162461bcd60e51b81526020600482015260136024820152724552523a204f6e6c7920437573746f6d65727360681b604482015260640161039a565b6000828152600260205260409020600c015462010000900460ff16610ea85760405162461bcd60e51b815260206004820152600a602482015269125b9d88119b1a59da1d60b21b604482015260640161039a565b6000828152600260205260409020600c810154610100900460ff168015610ed55750600c81015460ff1615155b610f155760405162461bcd60e51b81526020600482015260116024820152701154948e881393c814d1505514c8105593607a1b604482015260640161039a565b60006040518060e0016040528060006001600160a01b03168152602001600a60008154610f419061345a565b9190508190558152602001336001600160a01b03168152602001858152602001604051806040016040528060028152602001614e4160f01b815250815260200160006001811115610f9457610f94613473565b6001858101546001600160a01b0316600090815260208190526040902054600160a01b900460ff1690811115610fcc57610fcc613473565b14610fe0576802b5e3af16b1880000610fea565b678ac7230489e800005b815260016020918201819052600087815260028352604080822092830154600390930154600b546009548388015196880151606089015160808a015160a08b015196516318b552bb60e01b81529a9b506001600160a01b039889169a95999798948516976318b552bb9761106e9795909616958c9591949392918c90600401613489565b6020604051808303816000875af115801561108d573d6000803e3d6000fd5b505050506040513d601f19601f820116820180604052508101906110b191906134e4565b6001600160a01b03808216808752600090815260036020818152604092839020895181549086166001600160a01b0319918216178255918a015160018201559289015160028401805491909516911617909255606087015191810191909155608086015191925085916004820190611129908261326a565b5060a0820151600582015560c0909101516006909101805460ff1916911515919091179055600d8501805460018101825560009182526020918290200180546001600160a01b0319166001600160a01b03848116919091179091558551868301516040519081529116917fdf22c181a3717bc64ab04ba05ae38bf951485512deca5223b7c67afe0b29f80d910160405180910390a250509051949350505050565b3360009081526003602052604081206006015460609060ff1661122f5760405162461bcd60e51b815260206004820152601a60248201527f4552523a204f6e6c79205265736572766564205469636b657473000000000000604482015260640161039a565b6001600160a01b038084166000908152600360208181526040808420815160e08101835281548716815260018201549381019390935260028101549095169082015290830154606082015260048301805492939192608084019190611293906131eb565b80601f01602080910402602001604051908101604052809291908181526020018280546112bf906131eb565b801561130c5780601f106112e15761010080835404028352916020019161130c565b820191906000526020600020905b8154815290600101906020018083116112ef57829003601f168201915b5050509183525050600582015460208083019190915260069092015460ff1615156040918201526001600160a01b038716600090815260039283905290812080546001600160a01b03199081168255600182018390556002820180549091169055918201819055919250906113846004830182612d87565b506000600582018190556006918201805460ff191690556001600160a01b0386811682526020928352604091829020845181546001600160a01b0319908116918416919091178255938501516001820155918401516002830180549094169116179091556060820151600382015560808201518291906004820190611409908261326a565b5060a0820151600582015560c0909101516006909101805460ff1916911515919091179055505060408051808201909152600d81526c151a58dad95d081d9bda591959609a1b60208201526001939092509050565b60008181526002602052604081206001015482906001600160a01b031633146114995760405162461bcd60e51b815260040161039a90613501565b6000838152600260205260409020600a0154600360ff90911611156114ef5760405162461bcd60e51b815260206004820152600c60248201526b4e4f54205550445461626c6560a01b604482015260640161039a565b60008381526002602052604090819020600c8101805461ff001916905542600b9091015551600192507fe15e622369f6cd215131b21a6219d8216334c9c314c5293389f99fa06927e60890611566908581526040602082018190526007908201526614d3d31113d55560ca1b606082015260800190565b60405180910390a150919050565b60008181526002602052604081206001015482906001600160a01b031633146115af5760405162461bcd60e51b815260040161039a90613501565b6000838152600260205260409020600a015460ff166004146116055760405162461bcd60e51b815260206004820152600f60248201526e4e4f54205550444154455441424c4560881b604482015260640161039a565b6000838152600260205260408120600401544291908211611627576000611650565b600085815260026020526040902060040154603c90611646908461352d565b6116509190613556565b6000868152600260209081526040918290206006808201879055600c909101805461ff0019169055825180840190935282526513105391115160d21b908201529091506116a19086906005846125ce565b935050505b50919050565b3360009081526003602052604081206006015460ff1661170e5760405162461bcd60e51b815260206004820152601a60248201527f4552523a204f6e6c79205265736572766564205469636b657473000000000000604482015260640161039a565b6001600160a01b038084166000908152600360208181526040808420815160e08101835281548716815260018201549381019390935260028101549095169082015290830154606082015260048301805492939192608084019190611772906131eb565b80601f016020809104026020016040519081016040528092919081815260200182805461179e906131eb565b80156117eb5780601f106117c0576101008083540402835291602001916117eb565b820191906000526020600020905b8154815290600101906020018083116117ce57829003601f168201915b50505091835250506005820154602082015260069091015460ff1615156040909101526060810151909150806118505760405162461bcd60e51b815260206004820152600a602482015269125b9d88151a58dad95d60b21b604482015260640161039a565b6001600160a01b0380851660009081526001602081815260408084208151606081019092528054909516815291840180549394929391840191611892906131eb565b80601f01602080910402602001604051908101604052809291908181526020018280546118be906131eb565b801561190b5780601f106118e05761010080835404028352916020019161190b565b820191906000526020600020905b8154815290600101906020018083116118ee57829003601f168201915b50505091835250506002919091015460ff16151560209091015260408101519091506119685760405162461bcd60e51b815260206004820152600c60248201526b24b73b1021bab9ba37b6b2b960a11b604482015260640161039a565b6000828152600260205260409020600c015460ff166119b85760405162461bcd60e51b815260206004820152600c60248201526b139bc81cd9585d1cc8185d9b60a21b604482015260640161039a565b6000828152600260205260408120600c01805460ff16916119d88361356a565b825460ff9182166101009390930a9283029190920219909116179055506001600160a01b0386166000908152600360208190526040822080546001600160a01b0319908116825560018201849055600282018054909116905590810182905590611a456004830182612d87565b506000600582018190556006909101805460ff191690556001600160a01b03808816825260046020818152604093849020875181549085166001600160a01b03199182161782559188015160018201559387015160028501805491909416911617909155606085015160038301556080850151859291820190611ac8908261326a565b5060a0820151600582015560c0909101516006909101805460ff1916911515919091179055506001925050505b92915050565b60006040518060a00160405280336001600160a01b03168152602001836001811115611b2957611b29613473565b815260208082018790526040808301879052600160609093019290925282516001600160a01b0316600090815290819052206003015490915060ff1615611b9d5760405162461bcd60e51b81526020600482015260086024820152674578697374696e6760c01b604482015260640161039a565b80516001600160a01b039081166000908152602081815260409091208351815493166001600160a01b03198416811782559184015184939192909183916001600160a81b031990911617600160a01b836001811115611bfe57611bfe613473565b021790555060408201516001820190611c17908261326a565b5060608201516002820190611c2c908261326a565b50608091909101516003909101805460ff19169115159190911790556040517f3e81cfb9f5f0dc7939f2f4c015efb7066a9ff49ed8fa4068a2bc6ddbb051d3a890611c7a908690869061342c565b60405180910390a150505050565b336000818152602081905260409020546001600160a01b031614611ce35760405162461bcd60e51b81526020600482015260126024820152714552523a204f6e6c79204169726c696e657360701b604482015260640161039a565b6000868152600260205260409020600c015462010000900460ff1615611d365760405162461bcd60e51b81526020600482015260086024820152674578697374696e6760c01b604482015260640161039a565b60008681526002602081905260409091208781556001810180546001600160a01b03191633179055908101611d6b878261326a565b50600381018590556004810184905560006005820181905560068201819055600782015560088101611d9d848261326a565b5060098101611dac838261326a565b50600a8101805460ff1916905542600b820155600c810180546201016462ffffff1990911617905560008781526002602081905260409091208254815560018084015490820180546001600160a01b0319166001600160a01b03909216919091179055829181810190611e2190840182613587565b50600382015481600301556004820154816004015560058201548160050155600682015481600601556007820154816007015560088201816008019081611e689190613587565b50600981810190611e7b90840182613587565b50600a82810154908201805460ff1990811660ff93841617909155600b8085015490840155600c808501805491850180549384169285169283178155815461010090819004861615150261ffff199094169092179290921780825591546201000090819004909316151590920262ff000019909116179055600d8083018054611f079284019190612dc1565b509050507f22687b38c8157aec47e1290facdb6d4b03fb5367e5c6e33f504eb97b7f7105a68787604051611f3c929190613662565b60405180910390a1505b505050505050565b60008181526002602052604081206001015482906001600160a01b03163314611f895760405162461bcd60e51b815260040161039a90613501565b611fb683604051806040016040528060078152602001664f4e2d54494d4560c81b815250600160006125ce565b9392505050565b60008281526002602052604081206001015483906001600160a01b03163314611ff85760405162461bcd60e51b815260040161039a90613501565b600083116120395760405162461bcd60e51b815260206004820152600e60248201526d496e762064656c61792074696d6560901b604482015260640161039a565b61206d8461204685612654565b604051602001612056919061367b565b6040516020818303038152906040526002866125ce565b949350505050565b60008181526002602052604090205460609082146120c65760405162461bcd60e51b815260206004820152600e60248201526d155b9adb9bdddb88119b1a59da1d60921b604482015260640161039a565b6000828152600260205260408120600a810154600c9091015460ff91821692610100820483169290911690828015612101575060008260ff16115b61212c5760405180604001604052806009815260200168202841766c3a20302960b81b815250612158565b6121388260ff16612654565b60405160200161214891906136b2565b6040516020818303038152906040525b905060ff841661218d578060405160200161217391906136ec565b604051602081830303815290604052945050505050919050565b60001960ff8516016121aa5780604051602001612173919061371d565b60011960ff8516016121c75780604051602001612173919061374c565b60021960ff8516016121e45780604051602001612173919061376e565b60031960ff85160161221757505060408051808201909152600681526524a716a0a4a960d11b6020820152949350505050565b60051960ff85160161224d57505060408051808201909152600981526810d05390d15313115160ba1b6020820152949350505050565b60041960ff85160161228057505060408051808201909152600681526513105391115160d21b6020820152949350505050565b60405162461bcd60e51b81526020600482015260076024820152662aa725a727aba760c91b604482015260640161039a565b60008181526002602052604081206001015482906001600160a01b031633146122ed5760405162461bcd60e51b815260040161039a90613501565b600083815260026020526040812060030154429190821161231f57600085815260026020526040902060070154612348565b600085815260026020526040902060030154603c9061233e908461352d565b6123489190613556565b600086815260026020908152604091829020600c01805461ff001916905581518083019092526008825267424f415244494e4760c01b908201529091506116a19086906003846125ce565b60008181526002602052604081206001015482906001600160a01b031633146123ce5760405162461bcd60e51b815260040161039a90613501565b60008381526002602052604081206003015442919082116123f0576000612419565b600085815260026020526040902060030154603c9061240f908461352d565b6124199190613556565b90508160026000878152602001908152602001600020600501819055506116a1856040518060400160405280600681526020016524a716a0a4a960d11b8152506004846125ce565b60008181526002602052604081206001015482906001600160a01b0316331461249c5760405162461bcd60e51b815260040161039a90613501565b6000838152600260205260409020600a0154600360ff90911611156124f25760405162461bcd60e51b815260206004820152600c60248201526b4e4f5420434e434c61626c6560a01b604482015260640161039a565b6000838152600260209081526040808320600581018490556006808201859055600c909101805461ff00191690558151808301909252600982526810d05390d15313115160ba1b92820192909252611fb6928692906125ce565b6000828152600760205260408082209051612568908490613349565b908152604080516020928190038301812080546001600160a01b031916905560008681526007909352908220906125a0908590613349565b908152604051908190036020019020546001600160a01b0316146125c5576000611fb6565b60019392505050565b6000848152600260205260408120600a8101805460ff191660ff861690811790915542600b830155600790910183905560041901612613576126108584612756565b90505b7fe15e622369f6cd215131b21a6219d8216334c9c314c5293389f99fa06927e6088585604051612644929190613662565b60405180910390a1949350505050565b60608160000361267b5750506040805180820190915260018152600360fc1b602082015290565b8160005b81156126a5578061268f8161345a565b915061269e9050600a83613556565b915061267f565b60008167ffffffffffffffff8111156126c0576126c0612e3f565b6040519080825280601f01601f1916602001820160405280156126ea576020820181803683370190505b5090505b841561206d57816126fe8161379e565b925061270d9050600a866137b5565b6127189060306131bf565b60f81b81838151811061272d5761272d6137c9565b60200101906001600160f81b031916908160001a90535061274f600a86613556565b94506126ee565b60008281526002602052604081206001015483906001600160a01b031633146127915760405162461bcd60e51b815260040161039a90613501565b60ff8316600614806127a6575060ff83166005145b6127f25760405162461bcd60e51b815260206004820152601a60248201527f4552523a20496e76616c696420466c6967687420537461747573000000000000604482015260640161039a565b6000848152600260209081526040808320600d018054825181850281018501909352808352919290919083018282801561285557602002820191906000526020600020905b81546001600160a01b03168152600190910190602001808311612837575b5050505050905060005b8151811015610deb576040805160e0810182526000808252602082018190529181018290526060808201839052608082015260a0810182905260c0810191909152600460008484815181106128b6576128b66137c9565b6020908102919091018101516001600160a01b031682528101919091526040016000206006015460ff1615612a9b57600460008484815181106128fb576128fb6137c9565b6020908102919091018101516001600160a01b039081168352828201939093526040918201600020825160e0810184528154851681526001820154928101929092526002810154909316918101919091526003820154606082015260048201805491929160808401919061296e906131eb565b80601f016020809104026020016040519081016040528092919081815260200182805461299a906131eb565b80156129e75780601f106129bc576101008083540402835291602001916129e7565b820191906000526020600020905b8154815290600101906020018083116129ca57829003601f168201915b50505091835250506005820154602082015260069091015460ff1615156040909101528351909150600490600090859085908110612a2757612a276137c9565b6020908102919091018101516001600160a01b03168252810191909152604001600090812080546001600160a01b031990811682556001820183905560028201805490911690556003810182905590612a836004830182612d87565b5060006005820155600601805460ff19169055612c4d565b60036000848481518110612ab157612ab16137c9565b6020908102919091018101516001600160a01b039081168352828201939093526040918201600020825160e08101845281548516815260018201549281019290925260028101549093169181019190915260038201546060820152600482018054919291608084019190612b24906131eb565b80601f0160208091040260200160405190810160405280929190818152602001828054612b50906131eb565b8015612b9d5780601f10612b7257610100808354040283529160200191612b9d565b820191906000526020600020905b815481529060010190602001808311612b8057829003601f168201915b50505091835250506005820154602082015260069091015460ff1615156040909101528351909150600390600090859085908110612bdd57612bdd6137c9565b6020908102919091018101516001600160a01b03168252810191909152604001600090812080546001600160a01b031990811682556001820183905560028201805490911690556003810182905590612c396004830182612d87565b5060006005820155600601805460ff191690555b8051604051632a74dce760e01b815260ff881660048201526001600160a01b0390911690632a74dce7906024016020604051808303816000875af1158015612c99573d6000803e3d6000fd5b505050506040513d601f19601f82011682018060405250810190612cbd919061340a565b94508060066000858581518110612cd657612cd66137c9565b6020908102919091018101516001600160a01b039081168352828201939093526040918201600020845181549085166001600160a01b031991821617825591850151600182015591840151600283018054919094169116179091556060820151600382015560808201516004820190612d4f908261326a565b5060a0820151600582015560c0909101516006909101805460ff19169115159190911790555080612d7f8161345a565b91505061285f565b508054612d93906131eb565b6000825580601f10612da3575050565b601f01602090049060005260206000209081019061073a9190612e11565b828054828255906000526020600020908101928215612e015760005260206000209182015b82811115612e01578254825591600101919060010190612de6565b50612e0d929150612e11565b5090565b5b80821115612e0d5760008155600101612e12565b600060208284031215612e3857600080fd5b5035919050565b634e487b7160e01b600052604160045260246000fd5b600082601f830112612e6657600080fd5b813567ffffffffffffffff80821115612e8157612e81612e3f565b604051601f8301601f19908116603f01168101908282118183101715612ea957612ea9612e3f565b81604052838152866020858801011115612ec257600080fd5b836020870160208301376000602085830101528094505050505092915050565b600060208284031215612ef457600080fd5b813567ffffffffffffffff811115612f0b57600080fd5b61206d84828501612e55565b6001600160a01b038116811461073a57600080fd5b600060208284031215612f3e57600080fd5b8135611fb681612f17565b60005b83811015612f64578181015183820152602001612f4c565b50506000910152565b60008151808452612f85816020860160208601612f49565b601f01601f19169290920160200192915050565b821515815260406020820152600061206d6040830184612f6d565b60008060408385031215612fc757600080fd5b8235612fd281612f17565b9150602083013567ffffffffffffffff811115612fee57600080fd5b612ffa85828601612e55565b9150509250929050565b6000806040838503121561301757600080fd5b823561302281612f17565b9150602083013561303281612f17565b809150509250929050565b60008060006060848603121561305257600080fd5b833567ffffffffffffffff8082111561306a57600080fd5b61307687838801612e55565b9450602086013591508082111561308c57600080fd5b5061309986828701612e55565b9250506040840135600281106130ae57600080fd5b809150509250925092565b60008060008060008060c087890312156130d257600080fd5b86359550602087013567ffffffffffffffff808211156130f157600080fd5b6130fd8a838b01612e55565b96506040890135955060608901359450608089013591508082111561312157600080fd5b61312d8a838b01612e55565b935060a089013591508082111561314357600080fd5b5061315089828a01612e55565b9150509295509295509295565b6000806040838503121561317057600080fd5b50508035926020909101359150565b602081526000611fb66020830184612f6d565b634e487b7160e01b600052601160045260246000fd5b8082028115828204841417611af557611af5613192565b80820180821115611af557611af5613192565b6000602082840312156131e457600080fd5b5051919050565b600181811c908216806131ff57607f821691505b6020821081036116a657634e487b7160e01b600052602260045260246000fd5b601f82111561326557600081815260208120601f850160051c810160208610156132465750805b601f850160051c820191505b81811015611f4657828155600101613252565b505050565b815167ffffffffffffffff81111561328457613284612e3f565b6132988161329284546131eb565b8461321f565b602080601f8311600181146132cd57600084156132b55750858301515b600019600386901b1c1916600185901b178555611f46565b600085815260208120601f198616915b828110156132fc578886015182559484019460019091019084016132dd565b508582101561331a5787850151600019600388901b60f8161c191681555b5050505050600190811b01905550565b600060ff821660ff810361334057613340613192565b60010192915050565b6000825161335b818460208701612f49565b9190910192915050565b604081526000808354613377816131eb565b806040860152606060018084166000811461339957600181146133b3576133e4565b60ff1985168884015283151560051b8801830195506133e4565b8860005260208060002060005b868110156133db5781548b82018701529084019082016133c0565b8a018501975050505b5050505050828103602084015261206d8160028152614e4160f01b602082015260400190565b60006020828403121561341c57600080fd5b81518015158114611fb657600080fd5b60408152600061343f6040830185612f6d565b82810360208401526134518185612f6d565b95945050505050565b60006001820161346c5761346c613192565b5060010190565b634e487b7160e01b600052602160045260246000fd5b6001600160a01b038981168252888116602083015287166040820152606081018690526080810185905261010060a082018190526000906134cc83820187612f6d565b60c0840195909552505060e001529695505050505050565b6000602082840312156134f657600080fd5b8151611fb681612f17565b60208082526012908201527122a9291d1027b7363c9027b832b930ba37b960711b604082015260600190565b81810381811115611af557611af5613192565b634e487b7160e01b600052601260045260246000fd5b60008261356557613565613540565b500490565b600060ff82168061357d5761357d613192565b6000190192915050565b818103613592575050565b61359c82546131eb565b67ffffffffffffffff8111156135b4576135b4612e3f565b6135c28161329284546131eb565b6000601f8211600181146135f657600083156135de5750848201545b600019600385901b1c1916600184901b17845561365b565b600085815260209020601f19841690600086815260209020845b838110156136305782860154825560019586019590910190602001613610565b508583101561364e5781850154600019600388901b60f8161c191681555b50505060018360011b0184555b5050505050565b82815260406020820152600061206d6040830184612f6d565b6e02222a620aca2a2101436b4b7149d1608d1b8152600082516136a581600f850160208701612f49565b91909101600f0192915050565b660101420bb361d160cd1b8152600082516136d4816007850160208701612f49565b602960f81b6007939091019283015250600801919050565b6814d0d211511553115160ba1b815260008251613710816009850160208701612f49565b9190910160090192915050565b664f4e2d54494d4560c81b81526000825161373f816007850160208701612f49565b9190910160070192915050565b661111531056515160ca1b81526000825161373f816007850160208701612f49565b67424f415244494e4760c01b815260008251613791816008850160208701612f49565b9190910160080192915050565b6000816137ad576137ad613192565b506000190190565b6000826137c4576137c4613540565b500690565b634e487b7160e01b600052603260045260246000fdfea2646970667358221220b7175307ce5a08049b4fb93d50c10cb2220412d3c6d4e85d47307e117de9a4b064736f6c63430008120033",
			"opcodes": "PUSH1 0x80 PUSH1 0x40 MSTORE CALLVALUE DUP1 ISZERO PUSH3 0x11 JUMPI PUSH1 0x0 DUP1 REVERT JUMPDEST POP PUSH1 0x40 MLOAD PUSH3 0x3918 CODESIZE SUB DUP1 PUSH3 0x3918 DUP4 CODECOPY DUP2 ADD PUSH1 0x40 DUP2 SWAP1 MSTORE PUSH3 0x34 SWAP2 PUSH3 0xC1 JUMP JUMPDEST PUSH1 0x9 DUP1 SLOAD ADDRESS PUSH1 0x1 PUSH1 0x1 PUSH1 0xA0 SHL SUB NOT SWAP2 DUP3 AND DUP2 OR SWAP1 SWAP3 SSTORE PUSH5 0xE8D4A51000 PUSH1 0xA SSTORE PUSH1 0xB DUP1 SLOAD SWAP1 SWAP2 AND PUSH1 0x1 PUSH1 0x1 PUSH1 0xA0 SHL SUB DUP5 AND OR SWAP1 SSTORE PUSH1 0x40 DUP1 MLOAD PUSH1 0x20 DUP1 DUP3 MSTORE PUSH1 0xC SWAP1 DUP3 ADD MSTORE PUSH12 0x4561676C654169726C696E65 PUSH1 0xA0 SHL SWAP2 DUP2 ADD SWAP2 SWAP1 SWAP2 MSTORE PUSH32 0xD1802B86A0633C4679107D4313BAEACAB2FB7391348CA6485DF3F40844B0B07 SWAP1 PUSH1 0x60 ADD PUSH1 0x40 MLOAD DUP1 SWAP2 SUB SWAP1 LOG2 POP PUSH3 0xF3 JUMP JUMPDEST PUSH1 0x0 PUSH1 0x20 DUP3 DUP5 SUB SLT ISZERO PUSH3 0xD4 JUMPI PUSH1 0x0 DUP1 REVERT JUMPDEST DUP2 MLOAD PUSH1 0x1 PUSH1 0x1 PUSH1 0xA0 SHL SUB DUP2 AND DUP2 EQ PUSH3 0xEC JUMPI PUSH1 0x0 DUP1 REVERT JUMPDEST SWAP4 SWAP3 POP POP POP JUMP JUMPDEST PUSH2 0x3815 DUP1 PUSH3 0x103 PUSH1 0x0 CODECOPY PUSH1 0x0 RETURN INVALID PUSH1 0x80 PUSH1 0x40 MSTORE CALLVALUE DUP1 ISZERO PUSH2 0x10 JUMPI PUSH1 0x0 DUP1 REVERT JUMPDEST POP PUSH1 0x4 CALLDATASIZE LT PUSH2 0x137 JUMPI PUSH1 0x0 CALLDATALOAD PUSH1 0xE0 SHR DUP1 PUSH4 0x92A06131 GT PUSH2 0xB8 JUMPI DUP1 PUSH4 0x9E85C20E GT PUSH2 0x7C JUMPI DUP1 PUSH4 0x9E85C20E EQ PUSH2 0x2D3 JUMPI DUP1 PUSH4 0xAEEEF6B5 EQ PUSH2 0x2E6 JUMPI DUP1 PUSH4 0xBD9E8BC1 EQ PUSH2 0x306 JUMPI DUP1 PUSH4 0xC34B2403 EQ PUSH2 0x319 JUMPI DUP1 PUSH4 0xEAB91B22 EQ PUSH2 0x329 JUMPI DUP1 PUSH4 0xF9C46BA0 EQ PUSH2 0x33C JUMPI PUSH1 0x0 DUP1 REVERT JUMPDEST DUP1 PUSH4 0x92A06131 EQ PUSH2 0x275 JUMPI DUP1 PUSH4 0x944AE8D8 EQ PUSH2 0x288 JUMPI DUP1 PUSH4 0x94C2C24F EQ PUSH2 0x29B JUMPI DUP1 PUSH4 0x96044D01 EQ PUSH2 0x2A3 JUMPI DUP1 PUSH4 0x9DED7DF8 EQ PUSH2 0x2C0 JUMPI PUSH1 0x0 DUP1 REVERT JUMPDEST DUP1 PUSH4 0x3C45A5D8 GT PUSH2 0xFF JUMPI DUP1 PUSH4 0x3C45A5D8 EQ PUSH2 0x1FE JUMPI DUP1 PUSH4 0x4DA75D4F EQ PUSH2 0x229 JUMPI DUP1 PUSH4 0x6017366E EQ PUSH2 0x23C JUMPI DUP1 PUSH4 0x66FD1B35 EQ PUSH2 0x24F JUMPI DUP1 PUSH4 0x8F00BE4A EQ PUSH2 0x262 JUMPI PUSH1 0x0 DUP1 REVERT JUMPDEST DUP1 PUSH4 0x1B2AE05 EQ PUSH2 0x13C JUMPI DUP1 PUSH4 0xF51C42D EQ PUSH2 0x180 JUMPI DUP1 PUSH4 0x1378D806 EQ PUSH2 0x1A5 JUMPI DUP1 PUSH4 0x17B21972 EQ PUSH2 0x1BA JUMPI DUP1 PUSH4 0x2EB8A88B EQ PUSH2 0x1DB JUMPI JUMPDEST PUSH1 0x0 DUP1 REVERT JUMPDEST PUSH2 0x14F PUSH2 0x14A CALLDATASIZE PUSH1 0x4 PUSH2 0x2E26 JUMP JUMPDEST PUSH2 0x34F JUMP JUMPDEST PUSH1 0x40 DUP1 MLOAD PUSH1 0xFF SWAP1 SWAP7 AND DUP7 MSTORE PUSH1 0x20 DUP7 ADD SWAP5 SWAP1 SWAP5 MSTORE SWAP3 DUP5 ADD SWAP2 SWAP1 SWAP2 MSTORE PUSH1 0x60 DUP4 ADD MSTORE PUSH1 0x80 DUP3 ADD MSTORE PUSH1 0xA0 ADD JUMPDEST PUSH1 0x40 MLOAD DUP1 SWAP2 SUB SWAP1 RETURN JUMPDEST PUSH2 0x193 PUSH2 0x18E CALLDATASIZE PUSH1 0x4 PUSH2 0x2E26 JUMP JUMPDEST PUSH2 0x462 JUMP JUMPDEST PUSH1 0x40 MLOAD PUSH1 0xFF SWAP1 SWAP2 AND DUP2 MSTORE PUSH1 0x20 ADD PUSH2 0x177 JUMP JUMPDEST PUSH2 0x1B8 PUSH2 0x1B3 CALLDATASIZE PUSH1 0x4 PUSH2 0x2EE2 JUMP JUMPDEST PUSH2 0x4C9 JUMP JUMPDEST STOP JUMPDEST PUSH2 0x1CD PUSH2 0x1C8 CALLDATASIZE PUSH1 0x4 PUSH2 0x2F2C JUMP JUMPDEST PUSH2 0x73D JUMP JUMPDEST PUSH1 0x40 MLOAD PUSH2 0x177 SWAP3 SWAP2 SWAP1 PUSH2 0x2F99 JUMP JUMPDEST PUSH2 0x1EE PUSH2 0x1E9 CALLDATASIZE PUSH1 0x4 PUSH2 0x2FB4 JUMP JUMPDEST PUSH2 0xA5F JUMP JUMPDEST PUSH1 0x40 MLOAD SWAP1 ISZERO ISZERO DUP2 MSTORE PUSH1 0x20 ADD PUSH2 0x177 JUMP JUMPDEST PUSH2 0x211 PUSH2 0x20C CALLDATASIZE PUSH1 0x4 PUSH2 0x2E26 JUMP JUMPDEST PUSH2 0xDF4 JUMP JUMPDEST PUSH1 0x40 MLOAD PUSH1 0x1 PUSH1 0x1 PUSH1 0xA0 SHL SUB SWAP1 SWAP2 AND DUP2 MSTORE PUSH1 0x20 ADD PUSH2 0x177 JUMP JUMPDEST PUSH2 0x1CD PUSH2 0x237 CALLDATASIZE PUSH1 0x4 PUSH2 0x2F2C JUMP JUMPDEST PUSH2 0x11CA JUMP JUMPDEST PUSH2 0x1EE PUSH2 0x24A CALLDATASIZE PUSH1 0x4 PUSH2 0x2E26 JUMP JUMPDEST PUSH2 0x145E JUMP JUMPDEST PUSH2 0x1EE PUSH2 0x25D CALLDATASIZE PUSH1 0x4 PUSH2 0x2E26 JUMP JUMPDEST PUSH2 0x1574 JUMP JUMPDEST PUSH2 0x1EE PUSH2 0x270 CALLDATASIZE PUSH1 0x4 PUSH2 0x3004 JUMP JUMPDEST PUSH2 0x16AC JUMP JUMPDEST PUSH2 0x1B8 PUSH2 0x283 CALLDATASIZE PUSH1 0x4 PUSH2 0x303D JUMP JUMPDEST PUSH2 0x1AFB JUMP JUMPDEST PUSH2 0x1B8 PUSH2 0x296 CALLDATASIZE PUSH1 0x4 PUSH2 0x30B9 JUMP JUMPDEST PUSH2 0x1C88 JUMP JUMPDEST PUSH2 0x193 PUSH1 0x64 DUP2 JUMP JUMPDEST PUSH2 0x2B2 PUSH8 0x8AC7230489E80000 DUP2 JUMP JUMPDEST PUSH1 0x40 MLOAD SWAP1 DUP2 MSTORE PUSH1 0x20 ADD PUSH2 0x177 JUMP JUMPDEST PUSH2 0x1EE PUSH2 0x2CE CALLDATASIZE PUSH1 0x4 PUSH2 0x2E26 JUMP JUMPDEST PUSH2 0x1F4E JUMP JUMPDEST PUSH2 0x1EE PUSH2 0x2E1 CALLDATASIZE PUSH1 0x4 PUSH2 0x315D JUMP JUMPDEST PUSH2 0x1FBD JUMP JUMPDEST PUSH2 0x2F9 PUSH2 0x2F4 CALLDATASIZE PUSH1 0x4 PUSH2 0x2E26 JUMP JUMPDEST PUSH2 0x2075 JUMP JUMPDEST PUSH1 0x40 MLOAD PUSH2 0x177 SWAP2 SWAP1 PUSH2 0x317F JUMP JUMPDEST PUSH2 0x1EE PUSH2 0x314 CALLDATASIZE PUSH1 0x4 PUSH2 0x2E26 JUMP JUMPDEST PUSH2 0x22B2 JUMP JUMPDEST PUSH2 0x2B2 PUSH9 0x2B5E3AF16B1880000 DUP2 JUMP JUMPDEST PUSH2 0x1EE PUSH2 0x337 CALLDATASIZE PUSH1 0x4 PUSH2 0x2E26 JUMP JUMPDEST PUSH2 0x2393 JUMP JUMPDEST PUSH2 0x1EE PUSH2 0x34A CALLDATASIZE PUSH1 0x4 PUSH2 0x2E26 JUMP JUMPDEST PUSH2 0x2461 JUMP JUMPDEST PUSH1 0x0 DUP2 DUP2 MSTORE PUSH1 0x2 PUSH1 0x20 MSTORE PUSH1 0x40 DUP2 KECCAK256 SLOAD DUP2 SWAP1 DUP2 SWAP1 DUP2 SWAP1 DUP2 SWAP1 DUP7 EQ PUSH2 0x3A3 JUMPI PUSH1 0x40 MLOAD PUSH3 0x461BCD PUSH1 0xE5 SHL DUP2 MSTORE PUSH1 0x20 PUSH1 0x4 DUP3 ADD MSTORE PUSH1 0x7 PUSH1 0x24 DUP3 ADD MSTORE PUSH7 0x2AA725A727ABA7 PUSH1 0xC9 SHL PUSH1 0x44 DUP3 ADD MSTORE PUSH1 0x64 ADD JUMPDEST PUSH1 0x40 MLOAD DUP1 SWAP2 SUB SWAP1 REVERT JUMPDEST PUSH1 0x0 DUP7 DUP2 MSTORE PUSH1 0x2 PUSH1 0x20 MSTORE PUSH1 0x40 DUP2 KECCAK256 PUSH1 0xA DUP2 ADD SLOAD PUSH1 0x3 DUP3 ADD SLOAD PUSH1 0x4 DUP4 ADD SLOAD PUSH1 0x7 SWAP1 SWAP4 ADD SLOAD PUSH1 0xFF SWAP1 SWAP3 AND SWAP4 SWAP1 SWAP3 SWAP2 DUP4 SWAP2 DUP4 SWAP2 PUSH2 0x3DE SWAP1 PUSH1 0x3C PUSH2 0x31A8 JUMP JUMPDEST SWAP1 POP PUSH1 0x3 PUSH1 0xFF DUP8 AND GT DUP1 ISZERO SWAP1 PUSH2 0x3F4 JUMPI POP PUSH1 0x0 DUP2 GT JUMPDEST ISZERO PUSH2 0x416 JUMPI PUSH2 0x403 DUP2 DUP7 PUSH2 0x31BF JUMP JUMPDEST SWAP3 POP PUSH2 0x40F DUP2 DUP6 PUSH2 0x31BF JUMP JUMPDEST SWAP2 POP PUSH2 0x44E JUMP JUMPDEST PUSH1 0x4 NOT PUSH1 0xFF DUP8 AND ADD PUSH2 0x445 JUMPI PUSH1 0x0 DUP13 DUP2 MSTORE PUSH1 0x2 PUSH1 0x20 MSTORE PUSH1 0x40 SWAP1 KECCAK256 PUSH1 0x5 DUP2 ADD SLOAD PUSH1 0x6 SWAP1 SWAP2 ADD SLOAD SWAP1 SWAP4 POP SWAP2 POP PUSH2 0x44E JUMP JUMPDEST PUSH1 0x0 SWAP3 POP PUSH1 0x0 SWAP2 POP JUMPDEST POP SWAP4 SWAP11 SWAP3 SWAP10 POP SWAP8 POP DUP8 SWAP7 POP SWAP2 SWAP5 POP SWAP3 POP POP POP JUMP JUMPDEST PUSH1 0x0 DUP2 DUP2 MSTORE PUSH1 0x2 PUSH1 0x20 MSTORE PUSH1 0x40 DUP2 KECCAK256 SLOAD DUP3 EQ PUSH2 0x4B0 JUMPI PUSH1 0x40 MLOAD PUSH3 0x461BCD PUSH1 0xE5 SHL DUP2 MSTORE PUSH1 0x20 PUSH1 0x4 DUP3 ADD MSTORE PUSH1 0xE PUSH1 0x24 DUP3 ADD MSTORE PUSH14 0x155B9ADB9BDDDB88119B1A59DA1D PUSH1 0x92 SHL PUSH1 0x44 DUP3 ADD MSTORE PUSH1 0x64 ADD PUSH2 0x39A JUMP JUMPDEST POP PUSH1 0x0 SWAP1 DUP2 MSTORE PUSH1 0x2 PUSH1 0x20 MSTORE PUSH1 0x40 SWAP1 KECCAK256 PUSH1 0xA ADD SLOAD PUSH1 0xFF AND SWAP1 JUMP JUMPDEST CALLER PUSH1 0x0 DUP2 DUP2 MSTORE PUSH1 0x20 DUP2 SWAP1 MSTORE PUSH1 0x40 SWAP1 KECCAK256 SLOAD PUSH1 0x1 PUSH1 0x1 PUSH1 0xA0 SHL SUB AND SWAP1 SUB PUSH2 0x530 JUMPI PUSH1 0x40 MLOAD PUSH3 0x461BCD PUSH1 0xE5 SHL DUP2 MSTORE PUSH1 0x20 PUSH1 0x4 DUP3 ADD MSTORE PUSH1 0x19 PUSH1 0x24 DUP3 ADD MSTORE PUSH32 0x4552523A204E6F204169726C696E657320616C6C6F7765642E00000000000000 PUSH1 0x44 DUP3 ADD MSTORE PUSH1 0x64 ADD PUSH2 0x39A JUMP JUMPDEST CALLER PUSH1 0x0 DUP2 DUP2 MSTORE PUSH1 0x1 PUSH1 0x20 MSTORE PUSH1 0x40 SWAP1 KECCAK256 SLOAD PUSH1 0x1 PUSH1 0x1 PUSH1 0xA0 SHL SUB AND SWAP1 SUB PUSH2 0x597 JUMPI PUSH1 0x40 MLOAD PUSH3 0x461BCD PUSH1 0xE5 SHL DUP2 MSTORE PUSH1 0x20 PUSH1 0x4 DUP3 ADD MSTORE PUSH1 0x1A PUSH1 0x24 DUP3 ADD MSTORE PUSH32 0x4552523A204E6F20437573746F6D65727320616C6C6F7765642E000000000000 PUSH1 0x44 DUP3 ADD MSTORE PUSH1 0x64 ADD PUSH2 0x39A JUMP JUMPDEST PUSH1 0x40 MLOAD PUSH4 0x588C0307 PUSH1 0xE1 SHL DUP2 MSTORE PUSH1 0x0 SWAP1 PUSH20 0x0 SWAP1 PUSH4 0xB118060E SWAP1 PUSH2 0x5D1 SWAP1 DUP6 SWAP1 PUSH1 0x4 ADD PUSH2 0x317F JUMP JUMPDEST PUSH1 0x20 PUSH1 0x40 MLOAD DUP1 DUP4 SUB DUP2 DUP7 GAS DELEGATECALL ISZERO DUP1 ISZERO PUSH2 0x5EE JUMPI RETURNDATASIZE PUSH1 0x0 DUP1 RETURNDATACOPY RETURNDATASIZE PUSH1 0x0 REVERT JUMPDEST POP POP POP POP PUSH1 0x40 MLOAD RETURNDATASIZE PUSH1 0x1F NOT PUSH1 0x1F DUP3 ADD AND DUP3 ADD DUP1 PUSH1 0x40 MSTORE POP DUP2 ADD SWAP1 PUSH2 0x612 SWAP2 SWAP1 PUSH2 0x31D2 JUMP JUMPDEST GT PUSH2 0x64B JUMPI PUSH1 0x40 MLOAD PUSH3 0x461BCD PUSH1 0xE5 SHL DUP2 MSTORE PUSH1 0x20 PUSH1 0x4 DUP3 ADD MSTORE PUSH1 0x9 PUSH1 0x24 DUP3 ADD MSTORE PUSH9 0x13985B59481C995C59 PUSH1 0xBA SHL PUSH1 0x44 DUP3 ADD MSTORE PUSH1 0x64 ADD PUSH2 0x39A JUMP JUMPDEST CALLER PUSH1 0x0 DUP2 DUP2 MSTORE PUSH1 0x1 PUSH1 0x20 MSTORE PUSH1 0x40 SWAP1 KECCAK256 SLOAD PUSH1 0x1 PUSH1 0x1 PUSH1 0xA0 SHL SUB AND SUB PUSH2 0x68A JUMPI CALLER PUSH1 0x0 SWAP1 DUP2 MSTORE PUSH1 0x1 PUSH1 0x20 DUP2 SWAP1 MSTORE PUSH1 0x40 SWAP1 SWAP2 KECCAK256 ADD PUSH2 0x686 DUP3 DUP3 PUSH2 0x326A JUMP JUMPDEST POP POP JUMP JUMPDEST PUSH1 0x40 DUP1 MLOAD PUSH1 0x60 DUP2 ADD DUP3 MSTORE CALLER DUP1 DUP3 MSTORE PUSH1 0x20 DUP1 DUP4 ADD DUP6 DUP2 MSTORE PUSH1 0x1 DUP5 DUP7 ADD DUP2 SWAP1 MSTORE PUSH1 0x0 SWAP4 DUP5 MSTORE SWAP2 DUP3 SWAP1 MSTORE SWAP4 SWAP1 SWAP2 KECCAK256 DUP3 MLOAD DUP2 SLOAD PUSH1 0x1 PUSH1 0x1 PUSH1 0xA0 SHL SUB NOT AND PUSH1 0x1 PUSH1 0x1 PUSH1 0xA0 SHL SUB SWAP1 SWAP2 AND OR DUP2 SSTORE SWAP3 MLOAD SWAP2 SWAP3 DUP4 SWAP3 SWAP1 SWAP2 DUP3 ADD SWAP1 PUSH2 0x6E6 SWAP1 DUP3 PUSH2 0x326A JUMP JUMPDEST POP PUSH1 0x40 SWAP2 DUP3 ADD MLOAD PUSH1 0x2 SWAP2 SWAP1 SWAP2 ADD DUP1 SLOAD PUSH1 0xFF NOT AND SWAP2 ISZERO ISZERO SWAP2 SWAP1 SWAP2 OR SWAP1 SSTORE MLOAD PUSH32 0xB8925AC9D3465BF9CBB2513F647FD542CFC05DD7EA17956EA38E53CEC3327F58 SWAP1 PUSH2 0x730 SWAP1 DUP5 SWAP1 PUSH2 0x317F JUMP JUMPDEST PUSH1 0x40 MLOAD DUP1 SWAP2 SUB SWAP1 LOG1 POP JUMPDEST POP JUMP JUMPDEST CALLER PUSH1 0x0 SWAP1 DUP2 MSTORE PUSH1 0x4 PUSH1 0x20 MSTORE PUSH1 0x40 DUP2 KECCAK256 PUSH1 0x6 ADD SLOAD PUSH1 0x60 SWAP1 PUSH1 0xFF AND PUSH2 0x7A2 JUMPI PUSH1 0x40 MLOAD PUSH3 0x461BCD PUSH1 0xE5 SHL DUP2 MSTORE PUSH1 0x20 PUSH1 0x4 DUP3 ADD MSTORE PUSH1 0x1B PUSH1 0x24 DUP3 ADD MSTORE PUSH32 0x4552523A204F6E6C7920436F6E6669726D6564205469636B6574730000000000 PUSH1 0x44 DUP3 ADD MSTORE PUSH1 0x64 ADD PUSH2 0x39A JUMP JUMPDEST PUSH1 0x1 PUSH1 0x1 PUSH1 0xA0 SHL SUB DUP1 DUP5 AND PUSH1 0x0 SWAP1 DUP2 MSTORE PUSH1 0x4 PUSH1 0x20 DUP2 DUP2 MSTORE PUSH1 0x40 DUP1 DUP5 KECCAK256 DUP2 MLOAD PUSH1 0xE0 DUP2 ADD DUP4 MSTORE DUP2 SLOAD DUP8 AND DUP2 MSTORE PUSH1 0x1 DUP3 ADD SLOAD SWAP4 DUP2 ADD SWAP4 SWAP1 SWAP4 MSTORE PUSH1 0x2 DUP2 ADD SLOAD SWAP1 SWAP6 AND SWAP1 DUP3 ADD MSTORE PUSH1 0x3 DUP5 ADD SLOAD PUSH1 0x60 DUP3 ADD MSTORE SWAP1 DUP4 ADD DUP1 SLOAD SWAP3 SWAP4 SWAP2 SWAP3 PUSH1 0x80 DUP5 ADD SWAP2 SWAP1 PUSH2 0x806 SWAP1 PUSH2 0x31EB JUMP JUMPDEST DUP1 PUSH1 0x1F ADD PUSH1 0x20 DUP1 SWAP2 DIV MUL PUSH1 0x20 ADD PUSH1 0x40 MLOAD SWAP1 DUP2 ADD PUSH1 0x40 MSTORE DUP1 SWAP3 SWAP2 SWAP1 DUP2 DUP2 MSTORE PUSH1 0x20 ADD DUP3 DUP1 SLOAD PUSH2 0x832 SWAP1 PUSH2 0x31EB JUMP JUMPDEST DUP1 ISZERO PUSH2 0x87F JUMPI DUP1 PUSH1 0x1F LT PUSH2 0x854 JUMPI PUSH2 0x100 DUP1 DUP4 SLOAD DIV MUL DUP4 MSTORE SWAP2 PUSH1 0x20 ADD SWAP2 PUSH2 0x87F JUMP JUMPDEST DUP3 ADD SWAP2 SWAP1 PUSH1 0x0 MSTORE PUSH1 0x20 PUSH1 0x0 KECCAK256 SWAP1 JUMPDEST DUP2 SLOAD DUP2 MSTORE SWAP1 PUSH1 0x1 ADD SWAP1 PUSH1 0x20 ADD DUP1 DUP4 GT PUSH2 0x862 JUMPI DUP3 SWAP1 SUB PUSH1 0x1F AND DUP3 ADD SWAP2 JUMPDEST POP POP POP SWAP2 DUP4 MSTORE POP POP PUSH1 0x5 DUP3 ADD SLOAD PUSH1 0x20 DUP3 ADD MSTORE PUSH1 0x6 SWAP1 SWAP2 ADD SLOAD PUSH1 0xFF AND ISZERO ISZERO PUSH1 0x40 SWAP1 SWAP2 ADD MSTORE PUSH1 0x60 DUP2 ADD MLOAD SWAP1 SWAP2 POP DUP1 PUSH2 0x8E4 JUMPI PUSH1 0x40 MLOAD PUSH3 0x461BCD PUSH1 0xE5 SHL DUP2 MSTORE PUSH1 0x20 PUSH1 0x4 DUP3 ADD MSTORE PUSH1 0xA PUSH1 0x24 DUP3 ADD MSTORE PUSH10 0x125B9D88151A58DAD95D PUSH1 0xB2 SHL PUSH1 0x44 DUP3 ADD MSTORE PUSH1 0x64 ADD PUSH2 0x39A JUMP JUMPDEST PUSH2 0x8F2 DUP2 DUP4 PUSH1 0x80 ADD MLOAD PUSH2 0x254C JUMP JUMPDEST POP PUSH1 0x0 DUP2 DUP2 MSTORE PUSH1 0x2 PUSH1 0x20 MSTORE PUSH1 0x40 DUP2 KECCAK256 PUSH1 0xC ADD DUP1 SLOAD PUSH1 0xFF AND SWAP2 PUSH2 0x913 DUP4 PUSH2 0x332A JUMP JUMPDEST DUP3 SLOAD PUSH1 0xFF SWAP2 DUP3 AND PUSH2 0x100 SWAP4 SWAP1 SWAP4 EXP SWAP3 DUP4 MUL SWAP2 SWAP1 SWAP3 MUL NOT SWAP1 SWAP2 AND OR SWAP1 SSTORE POP PUSH1 0x1 PUSH1 0x1 PUSH1 0xA0 SHL SUB DUP6 AND PUSH1 0x0 SWAP1 DUP2 MSTORE PUSH1 0x4 PUSH1 0x20 DUP2 SWAP1 MSTORE PUSH1 0x40 DUP3 KECCAK256 DUP1 SLOAD PUSH1 0x1 PUSH1 0x1 PUSH1 0xA0 SHL SUB NOT SWAP1 DUP2 AND DUP3 SSTORE PUSH1 0x1 DUP3 ADD DUP5 SWAP1 SSTORE PUSH1 0x2 DUP3 ADD DUP1 SLOAD SWAP1 SWAP2 AND SWAP1 SSTORE PUSH1 0x3 DUP2 ADD DUP4 SWAP1 SSTORE SWAP2 SWAP1 PUSH2 0x981 SWAP1 DUP4 ADD DUP3 PUSH2 0x2D87 JUMP JUMPDEST POP PUSH1 0x0 PUSH1 0x5 DUP3 ADD DUP2 SWAP1 SSTORE PUSH1 0x6 SWAP2 DUP3 ADD DUP1 SLOAD PUSH1 0xFF NOT AND SWAP1 SSTORE PUSH1 0x1 PUSH1 0x1 PUSH1 0xA0 SHL SUB DUP8 DUP2 AND DUP3 MSTORE PUSH1 0x20 SWAP3 DUP4 MSTORE PUSH1 0x40 SWAP2 DUP3 SWAP1 KECCAK256 DUP6 MLOAD DUP2 SLOAD PUSH1 0x1 PUSH1 0x1 PUSH1 0xA0 SHL SUB NOT SWAP1 DUP2 AND SWAP2 DUP5 AND SWAP2 SWAP1 SWAP2 OR DUP3 SSTORE SWAP4 DUP7 ADD MLOAD PUSH1 0x1 DUP3 ADD SSTORE SWAP2 DUP6 ADD MLOAD PUSH1 0x2 DUP4 ADD DUP1 SLOAD SWAP1 SWAP5 AND SWAP2 AND OR SWAP1 SWAP2 SSTORE PUSH1 0x60 DUP4 ADD MLOAD PUSH1 0x3 DUP3 ADD SSTORE PUSH1 0x80 DUP4 ADD MLOAD DUP4 SWAP2 SWAP1 PUSH1 0x4 DUP3 ADD SWAP1 PUSH2 0xA06 SWAP1 DUP3 PUSH2 0x326A JUMP JUMPDEST POP PUSH1 0xA0 DUP3 ADD MLOAD PUSH1 0x5 DUP3 ADD SSTORE PUSH1 0xC0 SWAP1 SWAP2 ADD MLOAD PUSH1 0x6 SWAP1 SWAP2 ADD DUP1 SLOAD PUSH1 0xFF NOT AND SWAP2 ISZERO ISZERO SWAP2 SWAP1 SWAP2 OR SWAP1 SSTORE POP POP PUSH1 0x40 DUP1 MLOAD DUP1 DUP3 ADD SWAP1 SWAP2 MSTORE PUSH1 0x10 DUP2 MSTORE PUSH16 0x151A58DAD95D0818D85B98D95B1B1959 PUSH1 0x82 SHL PUSH1 0x20 DUP3 ADD MSTORE PUSH1 0x1 SWAP5 SWAP1 SWAP4 POP SWAP2 POP POP JUMP JUMPDEST CALLER PUSH1 0x0 SWAP1 DUP2 MSTORE PUSH1 0x4 PUSH1 0x20 MSTORE PUSH1 0x40 DUP2 KECCAK256 PUSH1 0x6 ADD SLOAD PUSH1 0xFF AND PUSH2 0xAC1 JUMPI PUSH1 0x40 MLOAD PUSH3 0x461BCD PUSH1 0xE5 SHL DUP2 MSTORE PUSH1 0x20 PUSH1 0x4 DUP3 ADD MSTORE PUSH1 0x1B PUSH1 0x24 DUP3 ADD MSTORE PUSH32 0x4552523A204F6E6C7920436F6E6669726D6564205469636B6574730000000000 PUSH1 0x44 DUP3 ADD MSTORE PUSH1 0x64 ADD PUSH2 0x39A JUMP JUMPDEST PUSH1 0x1 PUSH1 0x1 PUSH1 0xA0 SHL SUB DUP4 AND PUSH1 0x0 SWAP1 DUP2 MSTORE PUSH1 0x4 PUSH1 0x20 SWAP1 DUP2 MSTORE PUSH1 0x40 DUP1 DUP4 KECCAK256 PUSH1 0x3 DUP2 ADD SLOAD DUP5 MSTORE PUSH1 0x7 SWAP1 SWAP3 MSTORE DUP1 DUP4 KECCAK256 SWAP1 MLOAD SWAP2 SWAP3 SWAP2 PUSH2 0xAFB SWAP1 DUP7 SWAP1 PUSH2 0x3349 JUMP JUMPDEST SWAP1 DUP2 MSTORE PUSH1 0x40 MLOAD SWAP1 DUP2 SWAP1 SUB PUSH1 0x20 ADD DUP2 KECCAK256 SLOAD PUSH4 0x60353DB9 PUSH1 0xE0 SHL DUP3 MSTORE PUSH1 0x1 PUSH1 0x1 PUSH1 0xA0 SHL SUB AND SWAP2 POP PUSH1 0x0 SWAP1 PUSH20 0x0 SWAP1 PUSH4 0x60353DB9 SWAP1 PUSH2 0xB4F SWAP1 PUSH1 0x4 DUP1 DUP9 ADD SWAP2 ADD PUSH2 0x3365 JUMP JUMPDEST PUSH1 0x20 PUSH1 0x40 MLOAD DUP1 DUP4 SUB DUP2 DUP7 GAS DELEGATECALL ISZERO DUP1 ISZERO PUSH2 0xB6C JUMPI RETURNDATASIZE PUSH1 0x0 DUP1 RETURNDATACOPY RETURNDATASIZE PUSH1 0x0 REVERT JUMPDEST POP POP POP POP PUSH1 0x40 MLOAD RETURNDATASIZE PUSH1 0x1F NOT PUSH1 0x1F DUP3 ADD AND DUP3 ADD DUP1 PUSH1 0x40 MSTORE POP DUP2 ADD SWAP1 PUSH2 0xB90 SWAP2 SWAP1 PUSH2 0x340A JUMP JUMPDEST PUSH2 0xC26 JUMPI DUP3 PUSH1 0x4 ADD DUP1 SLOAD PUSH2 0xBA3 SWAP1 PUSH2 0x31EB JUMP JUMPDEST DUP1 PUSH1 0x1F ADD PUSH1 0x20 DUP1 SWAP2 DIV MUL PUSH1 0x20 ADD PUSH1 0x40 MLOAD SWAP1 DUP2 ADD PUSH1 0x40 MSTORE DUP1 SWAP3 SWAP2 SWAP1 DUP2 DUP2 MSTORE PUSH1 0x20 ADD DUP3 DUP1 SLOAD PUSH2 0xBCF SWAP1 PUSH2 0x31EB JUMP JUMPDEST DUP1 ISZERO PUSH2 0xC1C JUMPI DUP1 PUSH1 0x1F LT PUSH2 0xBF1 JUMPI PUSH2 0x100 DUP1 DUP4 SLOAD DIV MUL DUP4 MSTORE SWAP2 PUSH1 0x20 ADD SWAP2 PUSH2 0xC1C JUMP JUMPDEST DUP3 ADD SWAP2 SWAP1 PUSH1 0x0 MSTORE PUSH1 0x20 PUSH1 0x0 KECCAK256 SWAP1 JUMPDEST DUP2 SLOAD DUP2 MSTORE SWAP1 PUSH1 0x1 ADD SWAP1 PUSH1 0x20 ADD DUP1 DUP4 GT PUSH2 0xBFF JUMPI DUP3 SWAP1 SUB PUSH1 0x1F AND DUP3 ADD SWAP2 JUMPDEST POP POP POP POP POP PUSH2 0xC37 JUMP JUMPDEST PUSH1 0x40 MLOAD DUP1 PUSH1 0x20 ADD PUSH1 0x40 MSTORE DUP1 PUSH1 0x0 DUP2 MSTORE POP JUMPDEST SWAP1 POP DUP6 PUSH1 0x1 PUSH1 0x1 PUSH1 0xA0 SHL SUB AND DUP3 PUSH1 0x1 PUSH1 0x1 PUSH1 0xA0 SHL SUB AND SUB PUSH2 0xC8A JUMPI PUSH1 0x40 MLOAD PUSH3 0x461BCD PUSH1 0xE5 SHL DUP2 MSTORE PUSH1 0x20 PUSH1 0x4 DUP3 ADD MSTORE PUSH1 0x9 PUSH1 0x24 DUP3 ADD MSTORE PUSH9 0x4E6F206368616E6765 PUSH1 0xB8 SHL PUSH1 0x44 DUP3 ADD MSTORE PUSH1 0x1 SWAP5 POP PUSH1 0x64 ADD PUSH2 0x39A JUMP JUMPDEST DUP6 PUSH1 0x1 PUSH1 0x1 PUSH1 0xA0 SHL SUB AND DUP3 PUSH1 0x1 PUSH1 0x1 PUSH1 0xA0 SHL SUB AND EQ ISZERO DUP1 ISZERO PUSH2 0xCB4 JUMPI POP PUSH1 0x1 PUSH1 0x1 PUSH1 0xA0 SHL SUB DUP3 AND ISZERO ISZERO JUMPDEST ISZERO PUSH2 0xCF4 JUMPI PUSH1 0x40 MLOAD PUSH3 0x461BCD PUSH1 0xE5 SHL DUP2 MSTORE PUSH1 0x20 PUSH1 0x4 DUP3 ADD MSTORE PUSH1 0xC PUSH1 0x24 DUP3 ADD MSTORE PUSH12 0x14D9585D08189B1BD8DAD959 PUSH1 0xA2 SHL PUSH1 0x44 DUP3 ADD MSTORE PUSH1 0x0 SWAP5 POP PUSH1 0x64 ADD PUSH2 0x39A JUMP JUMPDEST PUSH1 0x40 MLOAD PUSH4 0x60353DB9 PUSH1 0xE0 SHL DUP2 MSTORE PUSH20 0x0 SWAP1 PUSH4 0x60353DB9 SWAP1 PUSH2 0xD2D SWAP1 DUP5 SWAP1 DUP10 SWAP1 PUSH1 0x4 ADD PUSH2 0x342C JUMP JUMPDEST PUSH1 0x20 PUSH1 0x40 MLOAD DUP1 DUP4 SUB DUP2 DUP7 GAS DELEGATECALL ISZERO DUP1 ISZERO PUSH2 0xD4A JUMPI RETURNDATASIZE PUSH1 0x0 DUP1 RETURNDATACOPY RETURNDATASIZE PUSH1 0x0 REVERT JUMPDEST POP POP POP POP PUSH1 0x40 MLOAD RETURNDATASIZE PUSH1 0x1F NOT PUSH1 0x1F DUP3 ADD AND DUP3 ADD DUP1 PUSH1 0x40 MSTORE POP DUP2 ADD SWAP1 PUSH2 0xD6E SWAP2 SWAP1 PUSH2 0x340A JUMP JUMPDEST PUSH2 0xD82 JUMPI PUSH2 0xD80 DUP4 PUSH1 0x3 ADD SLOAD DUP3 PUSH2 0x254C JUMP JUMPDEST POP JUMPDEST PUSH1 0x1 SWAP4 POP PUSH1 0x4 DUP4 ADD PUSH2 0xD94 DUP7 DUP3 PUSH2 0x326A JUMP JUMPDEST POP DUP6 PUSH1 0x7 PUSH1 0x0 DUP6 PUSH1 0x3 ADD SLOAD DUP2 MSTORE PUSH1 0x20 ADD SWAP1 DUP2 MSTORE PUSH1 0x20 ADD PUSH1 0x0 KECCAK256 DUP7 PUSH1 0x40 MLOAD PUSH2 0xDBB SWAP2 SWAP1 PUSH2 0x3349 JUMP JUMPDEST SWAP1 DUP2 MSTORE PUSH1 0x40 MLOAD SWAP1 DUP2 SWAP1 SUB PUSH1 0x20 ADD SWAP1 KECCAK256 DUP1 SLOAD PUSH1 0x1 PUSH1 0x1 PUSH1 0xA0 SHL SUB SWAP3 SWAP1 SWAP3 AND PUSH1 0x1 PUSH1 0x1 PUSH1 0xA0 SHL SUB NOT SWAP1 SWAP3 AND SWAP2 SWAP1 SWAP2 OR SWAP1 SSTORE JUMPDEST POP POP POP SWAP3 SWAP2 POP POP JUMP JUMPDEST CALLER PUSH1 0x0 DUP2 DUP2 MSTORE PUSH1 0x1 PUSH1 0x20 MSTORE PUSH1 0x40 DUP2 KECCAK256 SLOAD SWAP1 SWAP2 PUSH1 0x1 PUSH1 0x1 PUSH1 0xA0 SHL SUB SWAP1 SWAP2 AND EQ PUSH2 0xE54 JUMPI PUSH1 0x40 MLOAD PUSH3 0x461BCD PUSH1 0xE5 SHL DUP2 MSTORE PUSH1 0x20 PUSH1 0x4 DUP3 ADD MSTORE PUSH1 0x13 PUSH1 0x24 DUP3 ADD MSTORE PUSH19 0x4552523A204F6E6C7920437573746F6D657273 PUSH1 0x68 SHL PUSH1 0x44 DUP3 ADD MSTORE PUSH1 0x64 ADD PUSH2 0x39A JUMP JUMPDEST PUSH1 0x0 DUP3 DUP2 MSTORE PUSH1 0x2 PUSH1 0x20 MSTORE PUSH1 0x40 SWAP1 KECCAK256 PUSH1 0xC ADD SLOAD PUSH3 0x10000 SWAP1 DIV PUSH1 0xFF AND PUSH2 0xEA8 JUMPI PUSH1 0x40 MLOAD PUSH3 0x461BCD PUSH1 0xE5 SHL DUP2 MSTORE PUSH1 0x20 PUSH1 0x4 DUP3 ADD MSTORE PUSH1 0xA PUSH1 0x24 DUP3 ADD MSTORE PUSH10 0x125B9D88119B1A59DA1D PUSH1 0xB2 SHL PUSH1 0x44 DUP3 ADD MSTORE PUSH1 0x64 ADD PUSH2 0x39A JUMP JUMPDEST PUSH1 0x0 DUP3 DUP2 MSTORE PUSH1 0x2 PUSH1 0x20 MSTORE PUSH1 0x40 SWAP1 KECCAK256 PUSH1 0xC DUP2 ADD SLOAD PUSH2 0x100 SWAP1 DIV PUSH1 0xFF AND DUP1 ISZERO PUSH2 0xED5 JUMPI POP PUSH1 0xC DUP2 ADD SLOAD PUSH1 0xFF AND ISZERO ISZERO JUMPDEST PUSH2 0xF15 JUMPI PUSH1 0x40 MLOAD PUSH3 0x461BCD PUSH1 0xE5 SHL DUP2 MSTORE PUSH1 0x20 PUSH1 0x4 DUP3 ADD MSTORE PUSH1 0x11 PUSH1 0x24 DUP3 ADD MSTORE PUSH17 0x1154948E881393C814D1505514C8105593 PUSH1 0x7A SHL PUSH1 0x44 DUP3 ADD MSTORE PUSH1 0x64 ADD PUSH2 0x39A JUMP JUMPDEST PUSH1 0x0 PUSH1 0x40 MLOAD DUP1 PUSH1 0xE0 ADD PUSH1 0x40 MSTORE DUP1 PUSH1 0x0 PUSH1 0x1 PUSH1 0x1 PUSH1 0xA0 SHL SUB AND DUP2 MSTORE PUSH1 0x20 ADD PUSH1 0xA PUSH1 0x0 DUP2 SLOAD PUSH2 0xF41 SWAP1 PUSH2 0x345A JUMP JUMPDEST SWAP2 SWAP1 POP DUP2 SWAP1 SSTORE DUP2 MSTORE PUSH1 0x20 ADD CALLER PUSH1 0x1 PUSH1 0x1 PUSH1 0xA0 SHL SUB AND DUP2 MSTORE PUSH1 0x20 ADD DUP6 DUP2 MSTORE PUSH1 0x20 ADD PUSH1 0x40 MLOAD DUP1 PUSH1 0x40 ADD PUSH1 0x40 MSTORE DUP1 PUSH1 0x2 DUP2 MSTORE PUSH1 0x20 ADD PUSH2 0x4E41 PUSH1 0xF0 SHL DUP2 MSTORE POP DUP2 MSTORE PUSH1 0x20 ADD PUSH1 0x0 PUSH1 0x1 DUP2 GT ISZERO PUSH2 0xF94 JUMPI PUSH2 0xF94 PUSH2 0x3473 JUMP JUMPDEST PUSH1 0x1 DUP6 DUP2 ADD SLOAD PUSH1 0x1 PUSH1 0x1 PUSH1 0xA0 SHL SUB AND PUSH1 0x0 SWAP1 DUP2 MSTORE PUSH1 0x20 DUP2 SWAP1 MSTORE PUSH1 0x40 SWAP1 KECCAK256 SLOAD PUSH1 0x1 PUSH1 0xA0 SHL SWAP1 DIV PUSH1 0xFF AND SWAP1 DUP2 GT ISZERO PUSH2 0xFCC JUMPI PUSH2 0xFCC PUSH2 0x3473 JUMP JUMPDEST EQ PUSH2 0xFE0 JUMPI PUSH9 0x2B5E3AF16B1880000 PUSH2 0xFEA JUMP JUMPDEST PUSH8 0x8AC7230489E80000 JUMPDEST DUP2 MSTORE PUSH1 0x1 PUSH1 0x20 SWAP2 DUP3 ADD DUP2 SWAP1 MSTORE PUSH1 0x0 DUP8 DUP2 MSTORE PUSH1 0x2 DUP4 MSTORE PUSH1 0x40 DUP1 DUP3 KECCAK256 SWAP3 DUP4 ADD SLOAD PUSH1 0x3 SWAP1 SWAP4 ADD SLOAD PUSH1 0xB SLOAD PUSH1 0x9 SLOAD DUP4 DUP9 ADD MLOAD SWAP7 DUP9 ADD MLOAD PUSH1 0x60 DUP10 ADD MLOAD PUSH1 0x80 DUP11 ADD MLOAD PUSH1 0xA0 DUP12 ADD MLOAD SWAP7 MLOAD PUSH4 0x18B552BB PUSH1 0xE0 SHL DUP2 MSTORE SWAP11 SWAP12 POP PUSH1 0x1 PUSH1 0x1 PUSH1 0xA0 SHL SUB SWAP9 DUP10 AND SWAP11 SWAP6 SWAP10 SWAP8 SWAP9 SWAP5 DUP6 AND SWAP8 PUSH4 0x18B552BB SWAP8 PUSH2 0x106E SWAP8 SWAP6 SWAP1 SWAP7 AND SWAP6 DUP13 SWAP6 SWAP2 SWAP5 SWAP4 SWAP3 SWAP2 DUP13 SWAP1 PUSH1 0x4 ADD PUSH2 0x3489 JUMP JUMPDEST PUSH1 0x20 PUSH1 0x40 MLOAD DUP1 DUP4 SUB DUP2 PUSH1 0x0 DUP8 GAS CALL ISZERO DUP1 ISZERO PUSH2 0x108D JUMPI RETURNDATASIZE PUSH1 0x0 DUP1 RETURNDATACOPY RETURNDATASIZE PUSH1 0x0 REVERT JUMPDEST POP POP POP POP PUSH1 0x40 MLOAD RETURNDATASIZE PUSH1 0x1F NOT PUSH1 0x1F DUP3 ADD AND DUP3 ADD DUP1 PUSH1 0x40 MSTORE POP DUP2 ADD SWAP1 PUSH2 0x10B1 SWAP2 SWAP1 PUSH2 0x34E4 JUMP JUMPDEST PUSH1 0x1 PUSH1 0x1 PUSH1 0xA0 SHL SUB DUP1 DUP3 AND DUP1 DUP8 MSTORE PUSH1 0x0 SWAP1 DUP2 MSTORE PUSH1 0x3 PUSH1 0x20 DUP2 DUP2 MSTORE PUSH1 0x40 SWAP3 DUP4 SWAP1 KECCAK256 DUP10 MLOAD DUP2 SLOAD SWAP1 DUP7 AND PUSH1 0x1 PUSH1 0x1 PUSH1 0xA0 SHL SUB NOT SWAP2 DUP3 AND OR DUP3 SSTORE SWAP2 DUP11 ADD MLOAD PUSH1 0x1 DUP3 ADD SSTORE SWAP3 DUP10 ADD MLOAD PUSH1 0x2 DUP5 ADD DUP1 SLOAD SWAP2 SWAP1 SWAP6 AND SWAP2 AND OR SWAP1 SWAP3 SSTORE PUSH1 0x60 DUP8 ADD MLOAD SWAP2 DUP2 ADD SWAP2 SWAP1 SWAP2 SSTORE PUSH1 0x80 DUP7 ADD MLOAD SWAP2 SWAP3 POP DUP6 SWAP2 PUSH1 0x4 DUP3 ADD SWAP1 PUSH2 0x1129 SWAP1 DUP3 PUSH2 0x326A JUMP JUMPDEST POP PUSH1 0xA0 DUP3 ADD MLOAD PUSH1 0x5 DUP3 ADD SSTORE PUSH1 0xC0 SWAP1 SWAP2 ADD MLOAD PUSH1 0x6 SWAP1 SWAP2 ADD DUP1 SLOAD PUSH1 0xFF NOT AND SWAP2 ISZERO ISZERO SWAP2 SWAP1 SWAP2 OR SWAP1 SSTORE PUSH1 0xD DUP6 ADD DUP1 SLOAD PUSH1 0x1 DUP2 ADD DUP3 SSTORE PUSH1 0x0 SWAP2 DUP3 MSTORE PUSH1 0x20 SWAP2 DUP3 SWAP1 KECCAK256 ADD DUP1 SLOAD PUSH1 0x1 PUSH1 0x1 PUSH1 0xA0 SHL SUB NOT AND PUSH1 0x1 PUSH1 0x1 PUSH1 0xA0 SHL SUB DUP5 DUP2 AND SWAP2 SWAP1 SWAP2 OR SWAP1 SWAP2 SSTORE DUP6 MLOAD DUP7 DUP4 ADD MLOAD PUSH1 0x40 MLOAD SWAP1 DUP2 MSTORE SWAP2 AND SWAP2 PUSH32 0xDF22C181A3717BC64AB04BA05AE38BF951485512DECA5223B7C67AFE0B29F80D SWAP2 ADD PUSH1 0x40 MLOAD DUP1 SWAP2 SUB SWAP1 LOG2 POP POP SWAP1 MLOAD SWAP5 SWAP4 POP POP POP POP JUMP JUMPDEST CALLER PUSH1 0x0 SWAP1 DUP2 MSTORE PUSH1 0x3 PUSH1 0x20 MSTORE PUSH1 0x40 DUP2 KECCAK256 PUSH1 0x6 ADD SLOAD PUSH1 0x60 SWAP1 PUSH1 0xFF AND PUSH2 0x122F JUMPI PUSH1 0x40 MLOAD PUSH3 0x461BCD PUSH1 0xE5 SHL DUP2 MSTORE PUSH1 0x20 PUSH1 0x4 DUP3 ADD MSTORE PUSH1 0x1A PUSH1 0x24 DUP3 ADD MSTORE PUSH32 0x4552523A204F6E6C79205265736572766564205469636B657473000000000000 PUSH1 0x44 DUP3 ADD MSTORE PUSH1 0x64 ADD PUSH2 0x39A JUMP JUMPDEST PUSH1 0x1 PUSH1 0x1 PUSH1 0xA0 SHL SUB DUP1 DUP5 AND PUSH1 0x0 SWAP1 DUP2 MSTORE PUSH1 0x3 PUSH1 0x20 DUP2 DUP2 MSTORE PUSH1 0x40 DUP1 DUP5 KECCAK256 DUP2 MLOAD PUSH1 0xE0 DUP2 ADD DUP4 MSTORE DUP2 SLOAD DUP8 AND DUP2 MSTORE PUSH1 0x1 DUP3 ADD SLOAD SWAP4 DUP2 ADD SWAP4 SWAP1 SWAP4 MSTORE PUSH1 0x2 DUP2 ADD SLOAD SWAP1 SWAP6 AND SWAP1 DUP3 ADD MSTORE SWAP1 DUP4 ADD SLOAD PUSH1 0x60 DUP3 ADD MSTORE PUSH1 0x4 DUP4 ADD DUP1 SLOAD SWAP3 SWAP4 SWAP2 SWAP3 PUSH1 0x80 DUP5 ADD SWAP2 SWAP1 PUSH2 0x1293 SWAP1 PUSH2 0x31EB JUMP JUMPDEST DUP1 PUSH1 0x1F ADD PUSH1 0x20 DUP1 SWAP2 DIV MUL PUSH1 0x20 ADD PUSH1 0x40 MLOAD SWAP1 DUP2 ADD PUSH1 0x40 MSTORE DUP1 SWAP3 SWAP2 SWAP1 DUP2 DUP2 MSTORE PUSH1 0x20 ADD DUP3 DUP1 SLOAD PUSH2 0x12BF SWAP1 PUSH2 0x31EB JUMP JUMPDEST DUP1 ISZERO PUSH2 0x130C JUMPI DUP1 PUSH1 0x1F LT PUSH2 0x12E1 JUMPI PUSH2 0x100 DUP1 DUP4 SLOAD DIV MUL DUP4 MSTORE SWAP2 PUSH1 0x20 ADD SWAP2 PUSH2 0x130C JUMP JUMPDEST DUP3 ADD SWAP2 SWAP1 PUSH1 0x0 MSTORE PUSH1 0x20 PUSH1 0x0 KECCAK256 SWAP1 JUMPDEST DUP2 SLOAD DUP2 MSTORE SWAP1 PUSH1 0x1 ADD SWAP1 PUSH1 0x20 ADD DUP1 DUP4 GT PUSH2 0x12EF JUMPI DUP3 SWAP1 SUB PUSH1 0x1F AND DUP3 ADD SWAP2 JUMPDEST POP POP POP SWAP2 DUP4 MSTORE POP POP PUSH1 0x5 DUP3 ADD SLOAD PUSH1 0x20 DUP1 DUP4 ADD SWAP2 SWAP1 SWAP2 MSTORE PUSH1 0x6 SWAP1 SWAP3 ADD SLOAD PUSH1 0xFF AND ISZERO ISZERO PUSH1 0x40 SWAP2 DUP3 ADD MSTORE PUSH1 0x1 PUSH1 0x1 PUSH1 0xA0 SHL SUB DUP8 AND PUSH1 0x0 SWAP1 DUP2 MSTORE PUSH1 0x3 SWAP3 DUP4 SWAP1 MSTORE SWAP1 DUP2 KECCAK256 DUP1 SLOAD PUSH1 0x1 PUSH1 0x1 PUSH1 0xA0 SHL SUB NOT SWAP1 DUP2 AND DUP3 SSTORE PUSH1 0x1 DUP3 ADD DUP4 SWAP1 SSTORE PUSH1 0x2 DUP3 ADD DUP1 SLOAD SWAP1 SWAP2 AND SWAP1 SSTORE SWAP2 DUP3 ADD DUP2 SWAP1 SSTORE SWAP2 SWAP3 POP SWAP1 PUSH2 0x1384 PUSH1 0x4 DUP4 ADD DUP3 PUSH2 0x2D87 JUMP JUMPDEST POP PUSH1 0x0 PUSH1 0x5 DUP3 ADD DUP2 SWAP1 SSTORE PUSH1 0x6 SWAP2 DUP3 ADD DUP1 SLOAD PUSH1 0xFF NOT AND SWAP1 SSTORE PUSH1 0x1 PUSH1 0x1 PUSH1 0xA0 SHL SUB DUP7 DUP2 AND DUP3 MSTORE PUSH1 0x20 SWAP3 DUP4 MSTORE PUSH1 0x40 SWAP2 DUP3 SWAP1 KECCAK256 DUP5 MLOAD DUP2 SLOAD PUSH1 0x1 PUSH1 0x1 PUSH1 0xA0 SHL SUB NOT SWAP1 DUP2 AND SWAP2 DUP5 AND SWAP2 SWAP1 SWAP2 OR DUP3 SSTORE SWAP4 DUP6 ADD MLOAD PUSH1 0x1 DUP3 ADD SSTORE SWAP2 DUP5 ADD MLOAD PUSH1 0x2 DUP4 ADD DUP1 SLOAD SWAP1 SWAP5 AND SWAP2 AND OR SWAP1 SWAP2 SSTORE PUSH1 0x60 DUP3 ADD MLOAD PUSH1 0x3 DUP3 ADD SSTORE PUSH1 0x80 DUP3 ADD MLOAD DUP3 SWAP2 SWAP1 PUSH1 0x4 DUP3 ADD SWAP1 PUSH2 0x1409 SWAP1 DUP3 PUSH2 0x326A JUMP JUMPDEST POP PUSH1 0xA0 DUP3 ADD MLOAD PUSH1 0x5 DUP3 ADD SSTORE PUSH1 0xC0 SWAP1 SWAP2 ADD MLOAD PUSH1 0x6 SWAP1 SWAP2 ADD DUP1 SLOAD PUSH1 0xFF NOT AND SWAP2 ISZERO ISZERO SWAP2 SWAP1 SWAP2 OR SWAP1 SSTORE POP POP PUSH1 0x40 DUP1 MLOAD DUP1 DUP3 ADD SWAP1 SWAP2 MSTORE PUSH1 0xD DUP2 MSTORE PUSH13 0x151A58DAD95D081D9BDA591959 PUSH1 0x9A SHL PUSH1 0x20 DUP3 ADD MSTORE PUSH1 0x1 SWAP4 SWAP1 SWAP3 POP SWAP1 POP JUMP JUMPDEST PUSH1 0x0 DUP2 DUP2 MSTORE PUSH1 0x2 PUSH1 0x20 MSTORE PUSH1 0x40 DUP2 KECCAK256 PUSH1 0x1 ADD SLOAD DUP3 SWAP1 PUSH1 0x1 PUSH1 0x1 PUSH1 0xA0 SHL SUB AND CALLER EQ PUSH2 0x1499 JUMPI PUSH1 0x40 MLOAD PUSH3 0x461BCD PUSH1 0xE5 SHL DUP2 MSTORE PUSH1 0x4 ADD PUSH2 0x39A SWAP1 PUSH2 0x3501 JUMP JUMPDEST PUSH1 0x0 DUP4 DUP2 MSTORE PUSH1 0x2 PUSH1 0x20 MSTORE PUSH1 0x40 SWAP1 KECCAK256 PUSH1 0xA ADD SLOAD PUSH1 0x3 PUSH1 0xFF SWAP1 SWAP2 AND GT ISZERO PUSH2 0x14EF JUMPI PUSH1 0x40 MLOAD PUSH3 0x461BCD PUSH1 0xE5 SHL DUP2 MSTORE PUSH1 0x20 PUSH1 0x4 DUP3 ADD MSTORE PUSH1 0xC PUSH1 0x24 DUP3 ADD MSTORE PUSH12 0x4E4F54205550445461626C65 PUSH1 0xA0 SHL PUSH1 0x44 DUP3 ADD MSTORE PUSH1 0x64 ADD PUSH2 0x39A JUMP JUMPDEST PUSH1 0x0 DUP4 DUP2 MSTORE PUSH1 0x2 PUSH1 0x20 MSTORE PUSH1 0x40 SWAP1 DUP2 SWAP1 KECCAK256 PUSH1 0xC DUP2 ADD DUP1 SLOAD PUSH2 0xFF00 NOT AND SWAP1 SSTORE TIMESTAMP PUSH1 0xB SWAP1 SWAP2 ADD SSTORE MLOAD PUSH1 0x1 SWAP3 POP PUSH32 0xE15E622369F6CD215131B21A6219D8216334C9C314C5293389F99FA06927E608 SWAP1 PUSH2 0x1566 SWAP1 DUP6 DUP2 MSTORE PUSH1 0x40 PUSH1 0x20 DUP3 ADD DUP2 SWAP1 MSTORE PUSH1 0x7 SWAP1 DUP3 ADD MSTORE PUSH7 0x14D3D31113D555 PUSH1 0xCA SHL PUSH1 0x60 DUP3 ADD MSTORE PUSH1 0x80 ADD SWAP1 JUMP JUMPDEST PUSH1 0x40 MLOAD DUP1 SWAP2 SUB SWAP1 LOG1 POP SWAP2 SWAP1 POP JUMP JUMPDEST PUSH1 0x0 DUP2 DUP2 MSTORE PUSH1 0x2 PUSH1 0x20 MSTORE PUSH1 0x40 DUP2 KECCAK256 PUSH1 0x1 ADD SLOAD DUP3 SWAP1 PUSH1 0x1 PUSH1 0x1 PUSH1 0xA0 SHL SUB AND CALLER EQ PUSH2 0x15AF JUMPI PUSH1 0x40 MLOAD PUSH3 0x461BCD PUSH1 0xE5 SHL DUP2 MSTORE PUSH1 0x4 ADD PUSH2 0x39A SWAP1 PUSH2 0x3501 JUMP JUMPDEST PUSH1 0x0 DUP4 DUP2 MSTORE PUSH1 0x2 PUSH1 0x20 MSTORE PUSH1 0x40 SWAP1 KECCAK256 PUSH1 0xA ADD SLOAD PUSH1 0xFF AND PUSH1 0x4 EQ PUSH2 0x1605 JUMPI PUSH1 0x40 MLOAD PUSH3 0x461BCD PUSH1 0xE5 SHL DUP2 MSTORE PUSH1 0x20 PUSH1 0x4 DUP3 ADD MSTORE PUSH1 0xF PUSH1 0x24 DUP3 ADD MSTORE PUSH15 0x4E4F54205550444154455441424C45 PUSH1 0x88 SHL PUSH1 0x44 DUP3 ADD MSTORE PUSH1 0x64 ADD PUSH2 0x39A JUMP JUMPDEST PUSH1 0x0 DUP4 DUP2 MSTORE PUSH1 0x2 PUSH1 0x20 MSTORE PUSH1 0x40 DUP2 KECCAK256 PUSH1 0x4 ADD SLOAD TIMESTAMP SWAP2 SWAP1 DUP3 GT PUSH2 0x1627 JUMPI PUSH1 0x0 PUSH2 0x1650 JUMP JUMPDEST PUSH1 0x0 DUP6 DUP2 MSTORE PUSH1 0x2 PUSH1 0x20 MSTORE PUSH1 0x40 SWAP1 KECCAK256 PUSH1 0x4 ADD SLOAD PUSH1 0x3C SWAP1 PUSH2 0x1646 SWAP1 DUP5 PUSH2 0x352D JUMP JUMPDEST PUSH2 0x1650 SWAP2 SWAP1 PUSH2 0x3556 JUMP JUMPDEST PUSH1 0x0 DUP7 DUP2 MSTORE PUSH1 0x2 PUSH1 0x20 SWAP1 DUP2 MSTORE PUSH1 0x40 SWAP2 DUP3 SWAP1 KECCAK256 PUSH1 0x6 DUP1 DUP3 ADD DUP8 SWAP1 SSTORE PUSH1 0xC SWAP1 SWAP2 ADD DUP1 SLOAD PUSH2 0xFF00 NOT AND SWAP1 SSTORE DUP3 MLOAD DUP1 DUP5 ADD SWAP1 SWAP4 MSTORE DUP3 MSTORE PUSH6 0x131053911151 PUSH1 0xD2 SHL SWAP1 DUP3 ADD MSTORE SWAP1 SWAP2 POP PUSH2 0x16A1 SWAP1 DUP7 SWAP1 PUSH1 0x5 DUP5 PUSH2 0x25CE JUMP JUMPDEST SWAP4 POP POP POP JUMPDEST POP SWAP2 SWAP1 POP JUMP JUMPDEST CALLER PUSH1 0x0 SWAP1 DUP2 MSTORE PUSH1 0x3 PUSH1 0x20 MSTORE PUSH1 0x40 DUP2 KECCAK256 PUSH1 0x6 ADD SLOAD PUSH1 0xFF AND PUSH2 0x170E JUMPI PUSH1 0x40 MLOAD PUSH3 0x461BCD PUSH1 0xE5 SHL DUP2 MSTORE PUSH1 0x20 PUSH1 0x4 DUP3 ADD MSTORE PUSH1 0x1A PUSH1 0x24 DUP3 ADD MSTORE PUSH32 0x4552523A204F6E6C79205265736572766564205469636B657473000000000000 PUSH1 0x44 DUP3 ADD MSTORE PUSH1 0x64 ADD PUSH2 0x39A JUMP JUMPDEST PUSH1 0x1 PUSH1 0x1 PUSH1 0xA0 SHL SUB DUP1 DUP5 AND PUSH1 0x0 SWAP1 DUP2 MSTORE PUSH1 0x3 PUSH1 0x20 DUP2 DUP2 MSTORE PUSH1 0x40 DUP1 DUP5 KECCAK256 DUP2 MLOAD PUSH1 0xE0 DUP2 ADD DUP4 MSTORE DUP2 SLOAD DUP8 AND DUP2 MSTORE PUSH1 0x1 DUP3 ADD SLOAD SWAP4 DUP2 ADD SWAP4 SWAP1 SWAP4 MSTORE PUSH1 0x2 DUP2 ADD SLOAD SWAP1 SWAP6 AND SWAP1 DUP3 ADD MSTORE SWAP1 DUP4 ADD SLOAD PUSH1 0x60 DUP3 ADD MSTORE PUSH1 0x4 DUP4 ADD DUP1 SLOAD SWAP3 SWAP4 SWAP2 SWAP3 PUSH1 0x80 DUP5 ADD SWAP2 SWAP1 PUSH2 0x1772 SWAP1 PUSH2 0x31EB JUMP JUMPDEST DUP1 PUSH1 0x1F ADD PUSH1 0x20 DUP1 SWAP2 DIV MUL PUSH1 0x20 ADD PUSH1 0x40 MLOAD SWAP1 DUP2 ADD PUSH1 0x40 MSTORE DUP1 SWAP3 SWAP2 SWAP1 DUP2 DUP2 MSTORE PUSH1 0x20 ADD DUP3 DUP1 SLOAD PUSH2 0x179E SWAP1 PUSH2 0x31EB JUMP JUMPDEST DUP1 ISZERO PUSH2 0x17EB JUMPI DUP1 PUSH1 0x1F LT PUSH2 0x17C0 JUMPI PUSH2 0x100 DUP1 DUP4 SLOAD DIV MUL DUP4 MSTORE SWAP2 PUSH1 0x20 ADD SWAP2 PUSH2 0x17EB JUMP JUMPDEST DUP3 ADD SWAP2 SWAP1 PUSH1 0x0 MSTORE PUSH1 0x20 PUSH1 0x0 KECCAK256 SWAP1 JUMPDEST DUP2 SLOAD DUP2 MSTORE SWAP1 PUSH1 0x1 ADD SWAP1 PUSH1 0x20 ADD DUP1 DUP4 GT PUSH2 0x17CE JUMPI DUP3 SWAP1 SUB PUSH1 0x1F AND DUP3 ADD SWAP2 JUMPDEST POP POP POP SWAP2 DUP4 MSTORE POP POP PUSH1 0x5 DUP3 ADD SLOAD PUSH1 0x20 DUP3 ADD MSTORE PUSH1 0x6 SWAP1 SWAP2 ADD SLOAD PUSH1 0xFF AND ISZERO ISZERO PUSH1 0x40 SWAP1 SWAP2 ADD MSTORE PUSH1 0x60 DUP2 ADD MLOAD SWAP1 SWAP2 POP DUP1 PUSH2 0x1850 JUMPI PUSH1 0x40 MLOAD PUSH3 0x461BCD PUSH1 0xE5 SHL DUP2 MSTORE PUSH1 0x20 PUSH1 0x4 DUP3 ADD MSTORE PUSH1 0xA PUSH1 0x24 DUP3 ADD MSTORE PUSH10 0x125B9D88151A58DAD95D PUSH1 0xB2 SHL PUSH1 0x44 DUP3 ADD MSTORE PUSH1 0x64 ADD PUSH2 0x39A JUMP JUMPDEST PUSH1 0x1 PUSH1 0x1 PUSH1 0xA0 SHL SUB DUP1 DUP6 AND PUSH1 0x0 SWAP1 DUP2 MSTORE PUSH1 0x1 PUSH1 0x20 DUP2 DUP2 MSTORE PUSH1 0x40 DUP1 DUP5 KECCAK256 DUP2 MLOAD PUSH1 0x60 DUP2 ADD SWAP1 SWAP3 MSTORE DUP1 SLOAD SWAP1 SWAP6 AND DUP2 MSTORE SWAP2 DUP5 ADD DUP1 SLOAD SWAP4 SWAP5 SWAP3 SWAP4 SWAP2 DUP5 ADD SWAP2 PUSH2 0x1892 SWAP1 PUSH2 0x31EB JUMP JUMPDEST DUP1 PUSH1 0x1F ADD PUSH1 0x20 DUP1 SWAP2 DIV MUL PUSH1 0x20 ADD PUSH1 0x40 MLOAD SWAP1 DUP2 ADD PUSH1 0x40 MSTORE DUP1 SWAP3 SWAP2 SWAP1 DUP2 DUP2 MSTORE PUSH1 0x20 ADD DUP3 DUP1 SLOAD PUSH2 0x18BE SWAP1 PUSH2 0x31EB JUMP JUMPDEST DUP1 ISZERO PUSH2 0x190B JUMPI DUP1 PUSH1 0x1F LT PUSH2 0x18E0 JUMPI PUSH2 0x100 DUP1 DUP4 SLOAD DIV MUL DUP4 MSTORE SWAP2 PUSH1 0x20 ADD SWAP2 PUSH2 0x190B JUMP JUMPDEST DUP3 ADD SWAP2 SWAP1 PUSH1 0x0 MSTORE PUSH1 0x20 PUSH1 0x0 KECCAK256 SWAP1 JUMPDEST DUP2 SLOAD DUP2 MSTORE SWAP1 PUSH1 0x1 ADD SWAP1 PUSH1 0x20 ADD DUP1 DUP4 GT PUSH2 0x18EE JUMPI DUP3 SWAP1 SUB PUSH1 0x1F AND DUP3 ADD SWAP2 JUMPDEST POP POP POP SWAP2 DUP4 MSTORE POP POP PUSH1 0x2 SWAP2 SWAP1 SWAP2 ADD SLOAD PUSH1 0xFF AND ISZERO ISZERO PUSH1 0x20 SWAP1 SWAP2 ADD MSTORE PUSH1 0x40 DUP2 ADD MLOAD SWAP1 SWAP2 POP PUSH2 0x1968 JUMPI PUSH1 0x40 MLOAD PUSH3 0x461BCD PUSH1 0xE5 SHL DUP2 MSTORE PUSH1 0x20 PUSH1 0x4 DUP3 ADD MSTORE PUSH1 0xC PUSH1 0x24 DUP3 ADD MSTORE PUSH12 0x24B73B1021BAB9BA37B6B2B9 PUSH1 0xA1 SHL PUSH1 0x44 DUP3 ADD MSTORE PUSH1 0x64 ADD PUSH2 0x39A JUMP JUMPDEST PUSH1 0x0 DUP3 DUP2 MSTORE PUSH1 0x2 PUSH1 0x20 MSTORE PUSH1 0x40 SWAP1 KECCAK256 PUSH1 0xC ADD SLOAD PUSH1 0xFF AND PUSH2 0x19B8 JUMPI PUSH1 0x40 MLOAD PUSH3 0x461BCD PUSH1 0xE5 SHL DUP2 MSTORE PUSH1 0x20 PUSH1 0x4 DUP3 ADD MSTORE PUSH1 0xC PUSH1 0x24 DUP3 ADD MSTORE PUSH12 0x139BC81CD9585D1CC8185D9B PUSH1 0xA2 SHL PUSH1 0x44 DUP3 ADD MSTORE PUSH1 0x64 ADD PUSH2 0x39A JUMP JUMPDEST PUSH1 0x0 DUP3 DUP2 MSTORE PUSH1 0x2 PUSH1 0x20 MSTORE PUSH1 0x40 DUP2 KECCAK256 PUSH1 0xC ADD DUP1 SLOAD PUSH1 0xFF AND SWAP2 PUSH2 0x19D8 DUP4 PUSH2 0x356A JUMP JUMPDEST DUP3 SLOAD PUSH1 0xFF SWAP2 DUP3 AND PUSH2 0x100 SWAP4 SWAP1 SWAP4 EXP SWAP3 DUP4 MUL SWAP2 SWAP1 SWAP3 MUL NOT SWAP1 SWAP2 AND OR SWAP1 SSTORE POP PUSH1 0x1 PUSH1 0x1 PUSH1 0xA0 SHL SUB DUP7 AND PUSH1 0x0 SWAP1 DUP2 MSTORE PUSH1 0x3 PUSH1 0x20 DUP2 SWAP1 MSTORE PUSH1 0x40 DUP3 KECCAK256 DUP1 SLOAD PUSH1 0x1 PUSH1 0x1 PUSH1 0xA0 SHL SUB NOT SWAP1 DUP2 AND DUP3 SSTORE PUSH1 0x1 DUP3 ADD DUP5 SWAP1 SSTORE PUSH1 0x2 DUP3 ADD DUP1 SLOAD SWAP1 SWAP2 AND SWAP1 SSTORE SWAP1 DUP2 ADD DUP3 SWAP1 SSTORE SWAP1 PUSH2 0x1A45 PUSH1 0x4 DUP4 ADD DUP3 PUSH2 0x2D87 JUMP JUMPDEST POP PUSH1 0x0 PUSH1 0x5 DUP3 ADD DUP2 SWAP1 SSTORE PUSH1 0x6 SWAP1 SWAP2 ADD DUP1 SLOAD PUSH1 0xFF NOT AND SWAP1 SSTORE PUSH1 0x1 PUSH1 0x1 PUSH1 0xA0 SHL SUB DUP1 DUP9 AND DUP3 MSTORE PUSH1 0x4 PUSH1 0x20 DUP2 DUP2 MSTORE PUSH1 0x40 SWAP4 DUP5 SWAP1 KECCAK256 DUP8 MLOAD DUP2 SLOAD SWAP1 DUP6 AND PUSH1 0x1 PUSH1 0x1 PUSH1 0xA0 SHL SUB NOT SWAP2 DUP3 AND OR DUP3 SSTORE SWAP2 DUP9 ADD MLOAD PUSH1 0x1 DUP3 ADD SSTORE SWAP4 DUP8 ADD MLOAD PUSH1 0x2 DUP6 ADD DUP1 SLOAD SWAP2 SWAP1 SWAP5 AND SWAP2 AND OR SWAP1 SWAP2 SSTORE PUSH1 0x60 DUP6 ADD MLOAD PUSH1 0x3 DUP4 ADD SSTORE PUSH1 0x80 DUP6 ADD MLOAD DUP6 SWAP3 SWAP2 DUP3 ADD SWAP1 PUSH2 0x1AC8 SWAP1 DUP3 PUSH2 0x326A JUMP JUMPDEST POP PUSH1 0xA0 DUP3 ADD MLOAD PUSH1 0x5 DUP3 ADD SSTORE PUSH1 0xC0 SWAP1 SWAP2 ADD MLOAD PUSH1 0x6 SWAP1 SWAP2 ADD DUP1 SLOAD PUSH1 0xFF NOT AND SWAP2 ISZERO ISZERO SWAP2 SWAP1 SWAP2 OR SWAP1 SSTORE POP PUSH1 0x1 SWAP3 POP POP POP JUMPDEST SWAP3 SWAP2 POP POP JUMP JUMPDEST PUSH1 0x0 PUSH1 0x40 MLOAD DUP1 PUSH1 0xA0 ADD PUSH1 0x40 MSTORE DUP1 CALLER PUSH1 0x1 PUSH1 0x1 PUSH1 0xA0 SHL SUB AND DUP2 MSTORE PUSH1 0x20 ADD DUP4 PUSH1 0x1 DUP2 GT ISZERO PUSH2 0x1B29 JUMPI PUSH2 0x1B29 PUSH2 0x3473 JUMP JUMPDEST DUP2 MSTORE PUSH1 0x20 DUP1 DUP3 ADD DUP8 SWAP1 MSTORE PUSH1 0x40 DUP1 DUP4 ADD DUP8 SWAP1 MSTORE PUSH1 0x1 PUSH1 0x60 SWAP1 SWAP4 ADD SWAP3 SWAP1 SWAP3 MSTORE DUP3 MLOAD PUSH1 0x1 PUSH1 0x1 PUSH1 0xA0 SHL SUB AND PUSH1 0x0 SWAP1 DUP2 MSTORE SWAP1 DUP2 SWAP1 MSTORE KECCAK256 PUSH1 0x3 ADD SLOAD SWAP1 SWAP2 POP PUSH1 0xFF AND ISZERO PUSH2 0x1B9D JUMPI PUSH1 0x40 MLOAD PUSH3 0x461BCD PUSH1 0xE5 SHL DUP2 MSTORE PUSH1 0x20 PUSH1 0x4 DUP3 ADD MSTORE PUSH1 0x8 PUSH1 0x24 DUP3 ADD MSTORE PUSH8 0x4578697374696E67 PUSH1 0xC0 SHL PUSH1 0x44 DUP3 ADD MSTORE PUSH1 0x64 ADD PUSH2 0x39A JUMP JUMPDEST DUP1 MLOAD PUSH1 0x1 PUSH1 0x1 PUSH1 0xA0 SHL SUB SWAP1 DUP2 AND PUSH1 0x0 SWAP1 DUP2 MSTORE PUSH1 0x20 DUP2 DUP2 MSTORE PUSH1 0x40 SWAP1 SWAP2 KECCAK256 DUP4 MLOAD DUP2 SLOAD SWAP4 AND PUSH1 0x1 PUSH1 0x1 PUSH1 0xA0 SHL SUB NOT DUP5 AND DUP2 OR DUP3 SSTORE SWAP2 DUP5 ADD MLOAD DUP5 SWAP4 SWAP2 SWAP3 SWAP1 SWAP2 DUP4 SWAP2 PUSH1 0x1 PUSH1 0x1 PUSH1 0xA8 SHL SUB NOT SWAP1 SWAP2 AND OR PUSH1 0x1 PUSH1 0xA0 SHL DUP4 PUSH1 0x1 DUP2 GT ISZERO PUSH2 0x1BFE JUMPI PUSH2 0x1BFE PUSH2 0x3473 JUMP JUMPDEST MUL OR SWAP1 SSTORE POP PUSH1 0x40 DUP3 ADD MLOAD PUSH1 0x1 DUP3 ADD SWAP1 PUSH2 0x1C17 SWAP1 DUP3 PUSH2 0x326A JUMP JUMPDEST POP PUSH1 0x60 DUP3 ADD MLOAD PUSH1 0x2 DUP3 ADD SWAP1 PUSH2 0x1C2C SWAP1 DUP3 PUSH2 0x326A JUMP JUMPDEST POP PUSH1 0x80 SWAP2 SWAP1 SWAP2 ADD MLOAD PUSH1 0x3 SWAP1 SWAP2 ADD DUP1 SLOAD PUSH1 0xFF NOT AND SWAP2 ISZERO ISZERO SWAP2 SWAP1 SWAP2 OR SWAP1 SSTORE PUSH1 0x40 MLOAD PUSH32 0x3E81CFB9F5F0DC7939F2F4C015EFB7066A9FF49ED8FA4068A2BC6DDBB051D3A8 SWAP1 PUSH2 0x1C7A SWAP1 DUP7 SWAP1 DUP7 SWAP1 PUSH2 0x342C JUMP JUMPDEST PUSH1 0x40 MLOAD DUP1 SWAP2 SUB SWAP1 LOG1 POP POP POP POP JUMP JUMPDEST CALLER PUSH1 0x0 DUP2 DUP2 MSTORE PUSH1 0x20 DUP2 SWAP1 MSTORE PUSH1 0x40 SWAP1 KECCAK256 SLOAD PUSH1 0x1 PUSH1 0x1 PUSH1 0xA0 SHL SUB AND EQ PUSH2 0x1CE3 JUMPI PUSH1 0x40 MLOAD PUSH3 0x461BCD PUSH1 0xE5 SHL DUP2 MSTORE PUSH1 0x20 PUSH1 0x4 DUP3 ADD MSTORE PUSH1 0x12 PUSH1 0x24 DUP3 ADD MSTORE PUSH18 0x4552523A204F6E6C79204169726C696E6573 PUSH1 0x70 SHL PUSH1 0x44 DUP3 ADD MSTORE PUSH1 0x64 ADD PUSH2 0x39A JUMP JUMPDEST PUSH1 0x0 DUP7 DUP2 MSTORE PUSH1 0x2 PUSH1 0x20 MSTORE PUSH1 0x40 SWAP1 KECCAK256 PUSH1 0xC ADD SLOAD PUSH3 0x10000 SWAP1 DIV PUSH1 0xFF AND ISZERO PUSH2 0x1D36 JUMPI PUSH1 0x40 MLOAD PUSH3 0x461BCD PUSH1 0xE5 SHL DUP2 MSTORE PUSH1 0x20 PUSH1 0x4 DUP3 ADD MSTORE PUSH1 0x8 PUSH1 0x24 DUP3 ADD MSTORE PUSH8 0x4578697374696E67 PUSH1 0xC0 SHL PUSH1 0x44 DUP3 ADD MSTORE PUSH1 0x64 ADD PUSH2 0x39A JUMP JUMPDEST PUSH1 0x0 DUP7 DUP2 MSTORE PUSH1 0x2 PUSH1 0x20 DUP2 SWAP1 MSTORE PUSH1 0x40 SWAP1 SWAP2 KECCAK256 DUP8 DUP2 SSTORE PUSH1 0x1 DUP2 ADD DUP1 SLOAD PUSH1 0x1 PUSH1 0x1 PUSH1 0xA0 SHL SUB NOT AND CALLER OR SWAP1 SSTORE SWAP1 DUP2 ADD PUSH2 0x1D6B DUP8 DUP3 PUSH2 0x326A JUMP JUMPDEST POP PUSH1 0x3 DUP2 ADD DUP6 SWAP1 SSTORE PUSH1 0x4 DUP2 ADD DUP5 SWAP1 SSTORE PUSH1 0x0 PUSH1 0x5 DUP3 ADD DUP2 SWAP1 SSTORE PUSH1 0x6 DUP3 ADD DUP2 SWAP1 SSTORE PUSH1 0x7 DUP3 ADD SSTORE PUSH1 0x8 DUP2 ADD PUSH2 0x1D9D DUP5 DUP3 PUSH2 0x326A JUMP JUMPDEST POP PUSH1 0x9 DUP2 ADD PUSH2 0x1DAC DUP4 DUP3 PUSH2 0x326A JUMP JUMPDEST POP PUSH1 0xA DUP2 ADD DUP1 SLOAD PUSH1 0xFF NOT AND SWAP1 SSTORE TIMESTAMP PUSH1 0xB DUP3 ADD SSTORE PUSH1 0xC DUP2 ADD DUP1 SLOAD PUSH3 0x10164 PUSH3 0xFFFFFF NOT SWAP1 SWAP2 AND OR SWAP1 SSTORE PUSH1 0x0 DUP8 DUP2 MSTORE PUSH1 0x2 PUSH1 0x20 DUP2 SWAP1 MSTORE PUSH1 0x40 SWAP1 SWAP2 KECCAK256 DUP3 SLOAD DUP2 SSTORE PUSH1 0x1 DUP1 DUP5 ADD SLOAD SWAP1 DUP3 ADD DUP1 SLOAD PUSH1 0x1 PUSH1 0x1 PUSH1 0xA0 SHL SUB NOT AND PUSH1 0x1 PUSH1 0x1 PUSH1 0xA0 SHL SUB SWAP1 SWAP3 AND SWAP2 SWAP1 SWAP2 OR SWAP1 SSTORE DUP3 SWAP2 DUP2 DUP2 ADD SWAP1 PUSH2 0x1E21 SWAP1 DUP5 ADD DUP3 PUSH2 0x3587 JUMP JUMPDEST POP PUSH1 0x3 DUP3 ADD SLOAD DUP2 PUSH1 0x3 ADD SSTORE PUSH1 0x4 DUP3 ADD SLOAD DUP2 PUSH1 0x4 ADD SSTORE PUSH1 0x5 DUP3 ADD SLOAD DUP2 PUSH1 0x5 ADD SSTORE PUSH1 0x6 DUP3 ADD SLOAD DUP2 PUSH1 0x6 ADD SSTORE PUSH1 0x7 DUP3 ADD SLOAD DUP2 PUSH1 0x7 ADD SSTORE PUSH1 0x8 DUP3 ADD DUP2 PUSH1 0x8 ADD SWAP1 DUP2 PUSH2 0x1E68 SWAP2 SWAP1 PUSH2 0x3587 JUMP JUMPDEST POP PUSH1 0x9 DUP2 DUP2 ADD SWAP1 PUSH2 0x1E7B SWAP1 DUP5 ADD DUP3 PUSH2 0x3587 JUMP JUMPDEST POP PUSH1 0xA DUP3 DUP2 ADD SLOAD SWAP1 DUP3 ADD DUP1 SLOAD PUSH1 0xFF NOT SWAP1 DUP2 AND PUSH1 0xFF SWAP4 DUP5 AND OR SWAP1 SWAP2 SSTORE PUSH1 0xB DUP1 DUP6 ADD SLOAD SWAP1 DUP5 ADD SSTORE PUSH1 0xC DUP1 DUP6 ADD DUP1 SLOAD SWAP2 DUP6 ADD DUP1 SLOAD SWAP4 DUP5 AND SWAP3 DUP6 AND SWAP3 DUP4 OR DUP2 SSTORE DUP2 SLOAD PUSH2 0x100 SWAP1 DUP2 SWAP1 DIV DUP7 AND ISZERO ISZERO MUL PUSH2 0xFFFF NOT SWAP1 SWAP5 AND SWAP1 SWAP3 OR SWAP3 SWAP1 SWAP3 OR DUP1 DUP3 SSTORE SWAP2 SLOAD PUSH3 0x10000 SWAP1 DUP2 SWAP1 DIV SWAP1 SWAP4 AND ISZERO ISZERO SWAP1 SWAP3 MUL PUSH3 0xFF0000 NOT SWAP1 SWAP2 AND OR SWAP1 SSTORE PUSH1 0xD DUP1 DUP4 ADD DUP1 SLOAD PUSH2 0x1F07 SWAP3 DUP5 ADD SWAP2 SWAP1 PUSH2 0x2DC1 JUMP JUMPDEST POP SWAP1 POP POP PUSH32 0x22687B38C8157AEC47E1290FACDB6D4B03FB5367E5C6E33F504EB97B7F7105A6 DUP8 DUP8 PUSH1 0x40 MLOAD PUSH2 0x1F3C SWAP3 SWAP2 SWAP1 PUSH2 0x3662 JUMP JUMPDEST PUSH1 0x40 MLOAD DUP1 SWAP2 SUB SWAP1 LOG1 POP JUMPDEST POP POP POP POP POP POP JUMP JUMPDEST PUSH1 0x0 DUP2 DUP2 MSTORE PUSH1 0x2 PUSH1 0x20 MSTORE PUSH1 0x40 DUP2 KECCAK256 PUSH1 0x1 ADD SLOAD DUP3 SWAP1 PUSH1 0x1 PUSH1 0x1 PUSH1 0xA0 SHL SUB AND CALLER EQ PUSH2 0x1F89 JUMPI PUSH1 0x40 MLOAD PUSH3 0x461BCD PUSH1 0xE5 SHL DUP2 MSTORE PUSH1 0x4 ADD PUSH2 0x39A SWAP1 PUSH2 0x3501 JUMP JUMPDEST PUSH2 0x1FB6 DUP4 PUSH1 0x40 MLOAD DUP1 PUSH1 0x40 ADD PUSH1 0x40 MSTORE DUP1 PUSH1 0x7 DUP2 MSTORE PUSH1 0x20 ADD PUSH7 0x4F4E2D54494D45 PUSH1 0xC8 SHL DUP2 MSTORE POP PUSH1 0x1 PUSH1 0x0 PUSH2 0x25CE JUMP JUMPDEST SWAP4 SWAP3 POP POP POP JUMP JUMPDEST PUSH1 0x0 DUP3 DUP2 MSTORE PUSH1 0x2 PUSH1 0x20 MSTORE PUSH1 0x40 DUP2 KECCAK256 PUSH1 0x1 ADD SLOAD DUP4 SWAP1 PUSH1 0x1 PUSH1 0x1 PUSH1 0xA0 SHL SUB AND CALLER EQ PUSH2 0x1FF8 JUMPI PUSH1 0x40 MLOAD PUSH3 0x461BCD PUSH1 0xE5 SHL DUP2 MSTORE PUSH1 0x4 ADD PUSH2 0x39A SWAP1 PUSH2 0x3501 JUMP JUMPDEST PUSH1 0x0 DUP4 GT PUSH2 0x2039 JUMPI PUSH1 0x40 MLOAD PUSH3 0x461BCD PUSH1 0xE5 SHL DUP2 MSTORE PUSH1 0x20 PUSH1 0x4 DUP3 ADD MSTORE PUSH1 0xE PUSH1 0x24 DUP3 ADD MSTORE PUSH14 0x496E762064656C61792074696D65 PUSH1 0x90 SHL PUSH1 0x44 DUP3 ADD MSTORE PUSH1 0x64 ADD PUSH2 0x39A JUMP JUMPDEST PUSH2 0x206D DUP5 PUSH2 0x2046 DUP6 PUSH2 0x2654 JUMP JUMPDEST PUSH1 0x40 MLOAD PUSH1 0x20 ADD PUSH2 0x2056 SWAP2 SWAP1 PUSH2 0x367B JUMP JUMPDEST PUSH1 0x40 MLOAD PUSH1 0x20 DUP2 DUP4 SUB SUB DUP2 MSTORE SWAP1 PUSH1 0x40 MSTORE PUSH1 0x2 DUP7 PUSH2 0x25CE JUMP JUMPDEST SWAP5 SWAP4 POP POP POP POP JUMP JUMPDEST PUSH1 0x0 DUP2 DUP2 MSTORE PUSH1 0x2 PUSH1 0x20 MSTORE PUSH1 0x40 SWAP1 KECCAK256 SLOAD PUSH1 0x60 SWAP1 DUP3 EQ PUSH2 0x20C6 JUMPI PUSH1 0x40 MLOAD PUSH3 0x461BCD PUSH1 0xE5 SHL DUP2 MSTORE PUSH1 0x20 PUSH1 0x4 DUP3 ADD MSTORE PUSH1 0xE PUSH1 0x24 DUP3 ADD MSTORE PUSH14 0x155B9ADB9BDDDB88119B1A59DA1D PUSH1 0x92 SHL PUSH1 0x44 DUP3 ADD MSTORE PUSH1 0x64 ADD PUSH2 0x39A JUMP JUMPDEST PUSH1 0x0 DUP3 DUP2 MSTORE PUSH1 0x2 PUSH1 0x20 MSTORE PUSH1 0x40 DUP2 KECCAK256 PUSH1 0xA DUP2 ADD SLOAD PUSH1 0xC SWAP1 SWAP2 ADD SLOAD PUSH1 0xFF SWAP2 DUP3 AND SWAP3 PUSH2 0x100 DUP3 DIV DUP4 AND SWAP3 SWAP1 SWAP2 AND SWAP1 DUP3 DUP1 ISZERO PUSH2 0x2101 JUMPI POP PUSH1 0x0 DUP3 PUSH1 0xFF AND GT JUMPDEST PUSH2 0x212C JUMPI PUSH1 0x40 MLOAD DUP1 PUSH1 0x40 ADD PUSH1 0x40 MSTORE DUP1 PUSH1 0x9 DUP2 MSTORE PUSH1 0x20 ADD PUSH9 0x202841766C3A203029 PUSH1 0xB8 SHL DUP2 MSTORE POP PUSH2 0x2158 JUMP JUMPDEST PUSH2 0x2138 DUP3 PUSH1 0xFF AND PUSH2 0x2654 JUMP JUMPDEST PUSH1 0x40 MLOAD PUSH1 0x20 ADD PUSH2 0x2148 SWAP2 SWAP1 PUSH2 0x36B2 JUMP JUMPDEST PUSH1 0x40 MLOAD PUSH1 0x20 DUP2 DUP4 SUB SUB DUP2 MSTORE SWAP1 PUSH1 0x40 MSTORE JUMPDEST SWAP1 POP PUSH1 0xFF DUP5 AND PUSH2 0x218D JUMPI DUP1 PUSH1 0x40 MLOAD PUSH1 0x20 ADD PUSH2 0x2173 SWAP2 SWAP1 PUSH2 0x36EC JUMP JUMPDEST PUSH1 0x40 MLOAD PUSH1 0x20 DUP2 DUP4 SUB SUB DUP2 MSTORE SWAP1 PUSH1 0x40 MSTORE SWAP5 POP POP POP POP POP SWAP2 SWAP1 POP JUMP JUMPDEST PUSH1 0x0 NOT PUSH1 0xFF DUP6 AND ADD PUSH2 0x21AA JUMPI DUP1 PUSH1 0x40 MLOAD PUSH1 0x20 ADD PUSH2 0x2173 SWAP2 SWAP1 PUSH2 0x371D JUMP JUMPDEST PUSH1 0x1 NOT PUSH1 0xFF DUP6 AND ADD PUSH2 0x21C7 JUMPI DUP1 PUSH1 0x40 MLOAD PUSH1 0x20 ADD PUSH2 0x2173 SWAP2 SWAP1 PUSH2 0x374C JUMP JUMPDEST PUSH1 0x2 NOT PUSH1 0xFF DUP6 AND ADD PUSH2 0x21E4 JUMPI DUP1 PUSH1 0x40 MLOAD PUSH1 0x20 ADD PUSH2 0x2173 SWAP2 SWAP1 PUSH2 0x376E JUMP JUMPDEST PUSH1 0x3 NOT PUSH1 0xFF DUP6 AND ADD PUSH2 0x2217 JUMPI POP POP PUSH1 0x40 DUP1 MLOAD DUP1 DUP3 ADD SWAP1 SWAP2 MSTORE PUSH1 0x6 DUP2 MSTORE PUSH6 0x24A716A0A4A9 PUSH1 0xD1 SHL PUSH1 0x20 DUP3 ADD MSTORE SWAP5 SWAP4 POP POP POP POP JUMP JUMPDEST PUSH1 0x5 NOT PUSH1 0xFF DUP6 AND ADD PUSH2 0x224D JUMPI POP POP PUSH1 0x40 DUP1 MLOAD DUP1 DUP3 ADD SWAP1 SWAP2 MSTORE PUSH1 0x9 DUP2 MSTORE PUSH9 0x10D05390D153131151 PUSH1 0xBA SHL PUSH1 0x20 DUP3 ADD MSTORE SWAP5 SWAP4 POP POP POP POP JUMP JUMPDEST PUSH1 0x4 NOT PUSH1 0xFF DUP6 AND ADD PUSH2 0x2280 JUMPI POP POP PUSH1 0x40 DUP1 MLOAD DUP1 DUP3 ADD SWAP1 SWAP2 MSTORE PUSH1 0x6 DUP2 MSTORE PUSH6 0x131053911151 PUSH1 0xD2 SHL PUSH1 0x20 DUP3 ADD MSTORE SWAP5 SWAP4 POP POP POP POP JUMP JUMPDEST PUSH1 0x40 MLOAD PUSH3 0x461BCD PUSH1 0xE5 SHL DUP2 MSTORE PUSH1 0x20 PUSH1 0x4 DUP3 ADD MSTORE PUSH1 0x7 PUSH1 0x24 DUP3 ADD MSTORE PUSH7 0x2AA725A727ABA7 PUSH1 0xC9 SHL PUSH1 0x44 DUP3 ADD MSTORE PUSH1 0x64 ADD PUSH2 0x39A JUMP JUMPDEST PUSH1 0x0 DUP2 DUP2 MSTORE PUSH1 0x2 PUSH1 0x20 MSTORE PUSH1 0x40 DUP2 KECCAK256 PUSH1 0x1 ADD SLOAD DUP3 SWAP1 PUSH1 0x1 PUSH1 0x1 PUSH1 0xA0 SHL SUB AND CALLER EQ PUSH2 0x22ED JUMPI PUSH1 0x40 MLOAD PUSH3 0x461BCD PUSH1 0xE5 SHL DUP2 MSTORE PUSH1 0x4 ADD PUSH2 0x39A SWAP1 PUSH2 0x3501 JUMP JUMPDEST PUSH1 0x0 DUP4 DUP2 MSTORE PUSH1 0x2 PUSH1 0x20 MSTORE PUSH1 0x40 DUP2 KECCAK256 PUSH1 0x3 ADD SLOAD TIMESTAMP SWAP2 SWAP1 DUP3 GT PUSH2 0x231F JUMPI PUSH1 0x0 DUP6 DUP2 MSTORE PUSH1 0x2 PUSH1 0x20 MSTORE PUSH1 0x40 SWAP1 KECCAK256 PUSH1 0x7 ADD SLOAD PUSH2 0x2348 JUMP JUMPDEST PUSH1 0x0 DUP6 DUP2 MSTORE PUSH1 0x2 PUSH1 0x20 MSTORE PUSH1 0x40 SWAP1 KECCAK256 PUSH1 0x3 ADD SLOAD PUSH1 0x3C SWAP1 PUSH2 0x233E SWAP1 DUP5 PUSH2 0x352D JUMP JUMPDEST PUSH2 0x2348 SWAP2 SWAP1 PUSH2 0x3556 JUMP JUMPDEST PUSH1 0x0 DUP7 DUP2 MSTORE PUSH1 0x2 PUSH1 0x20 SWAP1 DUP2 MSTORE PUSH1 0x40 SWAP2 DUP3 SWAP1 KECCAK256 PUSH1 0xC ADD DUP1 SLOAD PUSH2 0xFF00 NOT AND SWAP1 SSTORE DUP2 MLOAD DUP1 DUP4 ADD SWAP1 SWAP3 MSTORE PUSH1 0x8 DUP3 MSTORE PUSH8 0x424F415244494E47 PUSH1 0xC0 SHL SWAP1 DUP3 ADD MSTORE SWAP1 SWAP2 POP PUSH2 0x16A1 SWAP1 DUP7 SWAP1 PUSH1 0x3 DUP5 PUSH2 0x25CE JUMP JUMPDEST PUSH1 0x0 DUP2 DUP2 MSTORE PUSH1 0x2 PUSH1 0x20 MSTORE PUSH1 0x40 DUP2 KECCAK256 PUSH1 0x1 ADD SLOAD DUP3 SWAP1 PUSH1 0x1 PUSH1 0x1 PUSH1 0xA0 SHL SUB AND CALLER EQ PUSH2 0x23CE JUMPI PUSH1 0x40 MLOAD PUSH3 0x461BCD PUSH1 0xE5 SHL DUP2 MSTORE PUSH1 0x4 ADD PUSH2 0x39A SWAP1 PUSH2 0x3501 JUMP JUMPDEST PUSH1 0x0 DUP4 DUP2 MSTORE PUSH1 0x2 PUSH1 0x20 MSTORE PUSH1 0x40 DUP2 KECCAK256 PUSH1 0x3 ADD SLOAD TIMESTAMP SWAP2 SWAP1 DUP3 GT PUSH2 0x23F0 JUMPI PUSH1 0x0 PUSH2 0x2419 JUMP JUMPDEST PUSH1 0x0 DUP6 DUP2 MSTORE PUSH1 0x2 PUSH1 0x20 MSTORE PUSH1 0x40 SWAP1 KECCAK256 PUSH1 0x3 ADD SLOAD PUSH1 0x3C SWAP1 PUSH2 0x240F SWAP1 DUP5 PUSH2 0x352D JUMP JUMPDEST PUSH2 0x2419 SWAP2 SWAP1 PUSH2 0x3556 JUMP JUMPDEST SWAP1 POP DUP2 PUSH1 0x2 PUSH1 0x0 DUP8 DUP2 MSTORE PUSH1 0x20 ADD SWAP1 DUP2 MSTORE PUSH1 0x20 ADD PUSH1 0x0 KECCAK256 PUSH1 0x5 ADD DUP2 SWAP1 SSTORE POP PUSH2 0x16A1 DUP6 PUSH1 0x40 MLOAD DUP1 PUSH1 0x40 ADD PUSH1 0x40 MSTORE DUP1 PUSH1 0x6 DUP2 MSTORE PUSH1 0x20 ADD PUSH6 0x24A716A0A4A9 PUSH1 0xD1 SHL DUP2 MSTORE POP PUSH1 0x4 DUP5 PUSH2 0x25CE JUMP JUMPDEST PUSH1 0x0 DUP2 DUP2 MSTORE PUSH1 0x2 PUSH1 0x20 MSTORE PUSH1 0x40 DUP2 KECCAK256 PUSH1 0x1 ADD SLOAD DUP3 SWAP1 PUSH1 0x1 PUSH1 0x1 PUSH1 0xA0 SHL SUB AND CALLER EQ PUSH2 0x249C JUMPI PUSH1 0x40 MLOAD PUSH3 0x461BCD PUSH1 0xE5 SHL DUP2 MSTORE PUSH1 0x4 ADD PUSH2 0x39A SWAP1 PUSH2 0x3501 JUMP JUMPDEST PUSH1 0x0 DUP4 DUP2 MSTORE PUSH1 0x2 PUSH1 0x20 MSTORE PUSH1 0x40 SWAP1 KECCAK256 PUSH1 0xA ADD SLOAD PUSH1 0x3 PUSH1 0xFF SWAP1 SWAP2 AND GT ISZERO PUSH2 0x24F2 JUMPI PUSH1 0x40 MLOAD PUSH3 0x461BCD PUSH1 0xE5 SHL DUP2 MSTORE PUSH1 0x20 PUSH1 0x4 DUP3 ADD MSTORE PUSH1 0xC PUSH1 0x24 DUP3 ADD MSTORE PUSH12 0x4E4F5420434E434C61626C65 PUSH1 0xA0 SHL PUSH1 0x44 DUP3 ADD MSTORE PUSH1 0x64 ADD PUSH2 0x39A JUMP JUMPDEST PUSH1 0x0 DUP4 DUP2 MSTORE PUSH1 0x2 PUSH1 0x20 SWAP1 DUP2 MSTORE PUSH1 0x40 DUP1 DUP4 KECCAK256 PUSH1 0x5 DUP2 ADD DUP5 SWAP1 SSTORE PUSH1 0x6 DUP1 DUP3 ADD DUP6 SWAP1 SSTORE PUSH1 0xC SWAP1 SWAP2 ADD DUP1 SLOAD PUSH2 0xFF00 NOT AND SWAP1 SSTORE DUP2 MLOAD DUP1 DUP4 ADD SWAP1 SWAP3 MSTORE PUSH1 0x9 DUP3 MSTORE PUSH9 0x10D05390D153131151 PUSH1 0xBA SHL SWAP3 DUP3 ADD SWAP3 SWAP1 SWAP3 MSTORE PUSH2 0x1FB6 SWAP3 DUP7 SWAP3 SWAP1 PUSH2 0x25CE JUMP JUMPDEST PUSH1 0x0 DUP3 DUP2 MSTORE PUSH1 0x7 PUSH1 0x20 MSTORE PUSH1 0x40 DUP1 DUP3 KECCAK256 SWAP1 MLOAD PUSH2 0x2568 SWAP1 DUP5 SWAP1 PUSH2 0x3349 JUMP JUMPDEST SWAP1 DUP2 MSTORE PUSH1 0x40 DUP1 MLOAD PUSH1 0x20 SWAP3 DUP2 SWAP1 SUB DUP4 ADD DUP2 KECCAK256 DUP1 SLOAD PUSH1 0x1 PUSH1 0x1 PUSH1 0xA0 SHL SUB NOT AND SWAP1 SSTORE PUSH1 0x0 DUP7 DUP2 MSTORE PUSH1 0x7 SWAP1 SWAP4 MSTORE SWAP1 DUP3 KECCAK256 SWAP1 PUSH2 0x25A0 SWAP1 DUP6 SWAP1 PUSH2 0x3349 JUMP JUMPDEST SWAP1 DUP2 MSTORE PUSH1 0x40 MLOAD SWAP1 DUP2 SWAP1 SUB PUSH1 0x20 ADD SWAP1 KECCAK256 SLOAD PUSH1 0x1 PUSH1 0x1 PUSH1 0xA0 SHL SUB AND EQ PUSH2 0x25C5 JUMPI PUSH1 0x0 PUSH2 0x1FB6 JUMP JUMPDEST PUSH1 0x1 SWAP4 SWAP3 POP POP POP JUMP JUMPDEST PUSH1 0x0 DUP5 DUP2 MSTORE PUSH1 0x2 PUSH1 0x20 MSTORE PUSH1 0x40 DUP2 KECCAK256 PUSH1 0xA DUP2 ADD DUP1 SLOAD PUSH1 0xFF NOT AND PUSH1 0xFF DUP7 AND SWAP1 DUP2 OR SWAP1 SWAP2 SSTORE TIMESTAMP PUSH1 0xB DUP4 ADD SSTORE PUSH1 0x7 SWAP1 SWAP2 ADD DUP4 SWAP1 SSTORE PUSH1 0x4 NOT ADD PUSH2 0x2613 JUMPI PUSH2 0x2610 DUP6 DUP5 PUSH2 0x2756 JUMP JUMPDEST SWAP1 POP JUMPDEST PUSH32 0xE15E622369F6CD215131B21A6219D8216334C9C314C5293389F99FA06927E608 DUP6 DUP6 PUSH1 0x40 MLOAD PUSH2 0x2644 SWAP3 SWAP2 SWAP1 PUSH2 0x3662 JUMP JUMPDEST PUSH1 0x40 MLOAD DUP1 SWAP2 SUB SWAP1 LOG1 SWAP5 SWAP4 POP POP POP POP JUMP JUMPDEST PUSH1 0x60 DUP2 PUSH1 0x0 SUB PUSH2 0x267B JUMPI POP POP PUSH1 0x40 DUP1 MLOAD DUP1 DUP3 ADD SWAP1 SWAP2 MSTORE PUSH1 0x1 DUP2 MSTORE PUSH1 0x3 PUSH1 0xFC SHL PUSH1 0x20 DUP3 ADD MSTORE SWAP1 JUMP JUMPDEST DUP2 PUSH1 0x0 JUMPDEST DUP2 ISZERO PUSH2 0x26A5 JUMPI DUP1 PUSH2 0x268F DUP2 PUSH2 0x345A JUMP JUMPDEST SWAP2 POP PUSH2 0x269E SWAP1 POP PUSH1 0xA DUP4 PUSH2 0x3556 JUMP JUMPDEST SWAP2 POP PUSH2 0x267F JUMP JUMPDEST PUSH1 0x0 DUP2 PUSH8 0xFFFFFFFFFFFFFFFF DUP2 GT ISZERO PUSH2 0x26C0 JUMPI PUSH2 0x26C0 PUSH2 0x2E3F JUMP JUMPDEST PUSH1 0x40 MLOAD SWAP1 DUP1 DUP3 MSTORE DUP1 PUSH1 0x1F ADD PUSH1 0x1F NOT AND PUSH1 0x20 ADD DUP3 ADD PUSH1 0x40 MSTORE DUP1 ISZERO PUSH2 0x26EA JUMPI PUSH1 0x20 DUP3 ADD DUP2 DUP1 CALLDATASIZE DUP4 CALLDATACOPY ADD SWAP1 POP JUMPDEST POP SWAP1 POP JUMPDEST DUP5 ISZERO PUSH2 0x206D JUMPI DUP2 PUSH2 0x26FE DUP2 PUSH2 0x379E JUMP JUMPDEST SWAP3 POP PUSH2 0x270D SWAP1 POP PUSH1 0xA DUP7 PUSH2 0x37B5 JUMP JUMPDEST PUSH2 0x2718 SWAP1 PUSH1 0x30 PUSH2 0x31BF JUMP JUMPDEST PUSH1 0xF8 SHL DUP2 DUP4 DUP2 MLOAD DUP2 LT PUSH2 0x272D JUMPI PUSH2 0x272D PUSH2 0x37C9 JUMP JUMPDEST PUSH1 0x20 ADD ADD SWAP1 PUSH1 0x1 PUSH1 0x1 PUSH1 0xF8 SHL SUB NOT AND SWAP1 DUP2 PUSH1 0x0 BYTE SWAP1 MSTORE8 POP PUSH2 0x274F PUSH1 0xA DUP7 PUSH2 0x3556 JUMP JUMPDEST SWAP5 POP PUSH2 0x26EE JUMP JUMPDEST PUSH1 0x0 DUP3 DUP2 MSTORE PUSH1 0x2 PUSH1 0x20 MSTORE PUSH1 0x40 DUP2 KECCAK256 PUSH1 0x1 ADD SLOAD DUP4 SWAP1 PUSH1 0x1 PUSH1 0x1 PUSH1 0xA0 SHL SUB AND CALLER EQ PUSH2 0x2791 JUMPI PUSH1 0x40 MLOAD PUSH3 0x461BCD PUSH1 0xE5 SHL DUP2 MSTORE PUSH1 0x4 ADD PUSH2 0x39A SWAP1 PUSH2 0x3501 JUMP JUMPDEST PUSH1 0xFF DUP4 AND PUSH1 0x6 EQ DUP1 PUSH2 0x27A6 JUMPI POP PUSH1 0xFF DUP4 AND PUSH1 0x5 EQ JUMPDEST PUSH2 0x27F2 JUMPI PUSH1 0x40 MLOAD PUSH3 0x461BCD PUSH1 0xE5 SHL DUP2 MSTORE PUSH1 0x20 PUSH1 0x4 DUP3 ADD MSTORE PUSH1 0x1A PUSH1 0x24 DUP3 ADD MSTORE PUSH32 0x4552523A20496E76616C696420466C6967687420537461747573000000000000 PUSH1 0x44 DUP3 ADD MSTORE PUSH1 0x64 ADD PUSH2 0x39A JUMP JUMPDEST PUSH1 0x0 DUP5 DUP2 MSTORE PUSH1 0x2 PUSH1 0x20 SWAP1 DUP2 MSTORE PUSH1 0x40 DUP1 DUP4 KECCAK256 PUSH1 0xD ADD DUP1 SLOAD DUP3 MLOAD DUP2 DUP6 MUL DUP2 ADD DUP6 ADD SWAP1 SWAP4 MSTORE DUP1 DUP4 MSTORE SWAP2 SWAP3 SWAP1 SWAP2 SWAP1 DUP4 ADD DUP3 DUP3 DUP1 ISZERO PUSH2 0x2855 JUMPI PUSH1 0x20 MUL DUP3 ADD SWAP2 SWAP1 PUSH1 0x0 MSTORE PUSH1 0x20 PUSH1 0x0 KECCAK256 SWAP1 JUMPDEST DUP2 SLOAD PUSH1 0x1 PUSH1 0x1 PUSH1 0xA0 SHL SUB AND DUP2 MSTORE PUSH1 0x1 SWAP1 SWAP2 ADD SWAP1 PUSH1 0x20 ADD DUP1 DUP4 GT PUSH2 0x2837 JUMPI JUMPDEST POP POP POP POP POP SWAP1 POP PUSH1 0x0 JUMPDEST DUP2 MLOAD DUP2 LT ISZERO PUSH2 0xDEB JUMPI PUSH1 0x40 DUP1 MLOAD PUSH1 0xE0 DUP2 ADD DUP3 MSTORE PUSH1 0x0 DUP1 DUP3 MSTORE PUSH1 0x20 DUP3 ADD DUP2 SWAP1 MSTORE SWAP2 DUP2 ADD DUP3 SWAP1 MSTORE PUSH1 0x60 DUP1 DUP3 ADD DUP4 SWAP1 MSTORE PUSH1 0x80 DUP3 ADD MSTORE PUSH1 0xA0 DUP2 ADD DUP3 SWAP1 MSTORE PUSH1 0xC0 DUP2 ADD SWAP2 SWAP1 SWAP2 MSTORE PUSH1 0x4 PUSH1 0x0 DUP5 DUP5 DUP2 MLOAD DUP2 LT PUSH2 0x28B6 JUMPI PUSH2 0x28B6 PUSH2 0x37C9 JUMP JUMPDEST PUSH1 0x20 SWAP1 DUP2 MUL SWAP2 SWAP1 SWAP2 ADD DUP2 ADD MLOAD PUSH1 0x1 PUSH1 0x1 PUSH1 0xA0 SHL SUB AND DUP3 MSTORE DUP2 ADD SWAP2 SWAP1 SWAP2 MSTORE PUSH1 0x40 ADD PUSH1 0x0 KECCAK256 PUSH1 0x6 ADD SLOAD PUSH1 0xFF AND ISZERO PUSH2 0x2A9B JUMPI PUSH1 0x4 PUSH1 0x0 DUP5 DUP5 DUP2 MLOAD DUP2 LT PUSH2 0x28FB JUMPI PUSH2 0x28FB PUSH2 0x37C9 JUMP JUMPDEST PUSH1 0x20 SWAP1 DUP2 MUL SWAP2 SWAP1 SWAP2 ADD DUP2 ADD MLOAD PUSH1 0x1 PUSH1 0x1 PUSH1 0xA0 SHL SUB SWAP1 DUP2 AND DUP4 MSTORE DUP3 DUP3 ADD SWAP4 SWAP1 SWAP4 MSTORE PUSH1 0x40 SWAP2 DUP3 ADD PUSH1 0x0 KECCAK256 DUP3 MLOAD PUSH1 0xE0 DUP2 ADD DUP5 MSTORE DUP2 SLOAD DUP6 AND DUP2 MSTORE PUSH1 0x1 DUP3 ADD SLOAD SWAP3 DUP2 ADD SWAP3 SWAP1 SWAP3 MSTORE PUSH1 0x2 DUP2 ADD SLOAD SWAP1 SWAP4 AND SWAP2 DUP2 ADD SWAP2 SWAP1 SWAP2 MSTORE PUSH1 0x3 DUP3 ADD SLOAD PUSH1 0x60 DUP3 ADD MSTORE PUSH1 0x4 DUP3 ADD DUP1 SLOAD SWAP2 SWAP3 SWAP2 PUSH1 0x80 DUP5 ADD SWAP2 SWAP1 PUSH2 0x296E SWAP1 PUSH2 0x31EB JUMP JUMPDEST DUP1 PUSH1 0x1F ADD PUSH1 0x20 DUP1 SWAP2 DIV MUL PUSH1 0x20 ADD PUSH1 0x40 MLOAD SWAP1 DUP2 ADD PUSH1 0x40 MSTORE DUP1 SWAP3 SWAP2 SWAP1 DUP2 DUP2 MSTORE PUSH1 0x20 ADD DUP3 DUP1 SLOAD PUSH2 0x299A SWAP1 PUSH2 0x31EB JUMP JUMPDEST DUP1 ISZERO PUSH2 0x29E7 JUMPI DUP1 PUSH1 0x1F LT PUSH2 0x29BC JUMPI PUSH2 0x100 DUP1 DUP4 SLOAD DIV MUL DUP4 MSTORE SWAP2 PUSH1 0x20 ADD SWAP2 PUSH2 0x29E7 JUMP JUMPDEST DUP3 ADD SWAP2 SWAP1 PUSH1 0x0 MSTORE PUSH1 0x20 PUSH1 0x0 KECCAK256 SWAP1 JUMPDEST DUP2 SLOAD DUP2 MSTORE SWAP1 PUSH1 0x1 ADD SWAP1 PUSH1 0x20 ADD DUP1 DUP4 GT PUSH2 0x29CA JUMPI DUP3 SWAP1 SUB PUSH1 0x1F AND DUP3 ADD SWAP2 JUMPDEST POP POP POP SWAP2 DUP4 MSTORE POP POP PUSH1 0x5 DUP3 ADD SLOAD PUSH1 0x20 DUP3 ADD MSTORE PUSH1 0x6 SWAP1 SWAP2 ADD SLOAD PUSH1 0xFF AND ISZERO ISZERO PUSH1 0x40 SWAP1 SWAP2 ADD MSTORE DUP4 MLOAD SWAP1 SWAP2 POP PUSH1 0x4 SWAP1 PUSH1 0x0 SWAP1 DUP6 SWAP1 DUP6 SWAP1 DUP2 LT PUSH2 0x2A27 JUMPI PUSH2 0x2A27 PUSH2 0x37C9 JUMP JUMPDEST PUSH1 0x20 SWAP1 DUP2 MUL SWAP2 SWAP1 SWAP2 ADD DUP2 ADD MLOAD PUSH1 0x1 PUSH1 0x1 PUSH1 0xA0 SHL SUB AND DUP3 MSTORE DUP2 ADD SWAP2 SWAP1 SWAP2 MSTORE PUSH1 0x40 ADD PUSH1 0x0 SWAP1 DUP2 KECCAK256 DUP1 SLOAD PUSH1 0x1 PUSH1 0x1 PUSH1 0xA0 SHL SUB NOT SWAP1 DUP2 AND DUP3 SSTORE PUSH1 0x1 DUP3 ADD DUP4 SWAP1 SSTORE PUSH1 0x2 DUP3 ADD DUP1 SLOAD SWAP1 SWAP2 AND SWAP1 SSTORE PUSH1 0x3 DUP2 ADD DUP3 SWAP1 SSTORE SWAP1 PUSH2 0x2A83 PUSH1 0x4 DUP4 ADD DUP3 PUSH2 0x2D87 JUMP JUMPDEST POP PUSH1 0x0 PUSH1 0x5 DUP3 ADD SSTORE PUSH1 0x6 ADD DUP1 SLOAD PUSH1 0xFF NOT AND SWAP1 SSTORE PUSH2 0x2C4D JUMP JUMPDEST PUSH1 0x3 PUSH1 0x0 DUP5 DUP5 DUP2 MLOAD DUP2 LT PUSH2 0x2AB1 JUMPI PUSH2 0x2AB1 PUSH2 0x37C9 JUMP JUMPDEST PUSH1 0x20 SWAP1 DUP2 MUL SWAP2 SWAP1 SWAP2 ADD DUP2 ADD MLOAD PUSH1 0x1 PUSH1 0x1 PUSH1 0xA0 SHL SUB SWAP1 DUP2 AND DUP4 MSTORE DUP3 DUP3 ADD SWAP4 SWAP1 SWAP4 MSTORE PUSH1 0x40 SWAP2 DUP3 ADD PUSH1 0x0 KECCAK256 DUP3 MLOAD PUSH1 0xE0 DUP2 ADD DUP5 MSTORE DUP2 SLOAD DUP6 AND DUP2 MSTORE PUSH1 0x1 DUP3 ADD SLOAD SWAP3 DUP2 ADD SWAP3 SWAP1 SWAP3 MSTORE PUSH1 0x2 DUP2 ADD SLOAD SWAP1 SWAP4 AND SWAP2 DUP2 ADD SWAP2 SWAP1 SWAP2 MSTORE PUSH1 0x3 DUP3 ADD SLOAD PUSH1 0x60 DUP3 ADD MSTORE PUSH1 0x4 DUP3 ADD DUP1 SLOAD SWAP2 SWAP3 SWAP2 PUSH1 0x80 DUP5 ADD SWAP2 SWAP1 PUSH2 0x2B24 SWAP1 PUSH2 0x31EB JUMP JUMPDEST DUP1 PUSH1 0x1F ADD PUSH1 0x20 DUP1 SWAP2 DIV MUL PUSH1 0x20 ADD PUSH1 0x40 MLOAD SWAP1 DUP2 ADD PUSH1 0x40 MSTORE DUP1 SWAP3 SWAP2 SWAP1 DUP2 DUP2 MSTORE PUSH1 0x20 ADD DUP3 DUP1 SLOAD PUSH2 0x2B50 SWAP1 PUSH2 0x31EB JUMP JUMPDEST DUP1 ISZERO PUSH2 0x2B9D JUMPI DUP1 PUSH1 0x1F LT PUSH2 0x2B72 JUMPI PUSH2 0x100 DUP1 DUP4 SLOAD DIV MUL DUP4 MSTORE SWAP2 PUSH1 0x20 ADD SWAP2 PUSH2 0x2B9D JUMP JUMPDEST DUP3 ADD SWAP2 SWAP1 PUSH1 0x0 MSTORE PUSH1 0x20 PUSH1 0x0 KECCAK256 SWAP1 JUMPDEST DUP2 SLOAD DUP2 MSTORE SWAP1 PUSH1 0x1 ADD SWAP1 PUSH1 0x20 ADD DUP1 DUP4 GT PUSH2 0x2B80 JUMPI DUP3 SWAP1 SUB PUSH1 0x1F AND DUP3 ADD SWAP2 JUMPDEST POP POP POP SWAP2 DUP4 MSTORE POP POP PUSH1 0x5 DUP3 ADD SLOAD PUSH1 0x20 DUP3 ADD MSTORE PUSH1 0x6 SWAP1 SWAP2 ADD SLOAD PUSH1 0xFF AND ISZERO ISZERO PUSH1 0x40 SWAP1 SWAP2 ADD MSTORE DUP4 MLOAD SWAP1 SWAP2 POP PUSH1 0x3 SWAP1 PUSH1 0x0 SWAP1 DUP6 SWAP1 DUP6 SWAP1 DUP2 LT PUSH2 0x2BDD JUMPI PUSH2 0x2BDD PUSH2 0x37C9 JUMP JUMPDEST PUSH1 0x20 SWAP1 DUP2 MUL SWAP2 SWAP1 SWAP2 ADD DUP2 ADD MLOAD PUSH1 0x1 PUSH1 0x1 PUSH1 0xA0 SHL SUB AND DUP3 MSTORE DUP2 ADD SWAP2 SWAP1 SWAP2 MSTORE PUSH1 0x40 ADD PUSH1 0x0 SWAP1 DUP2 KECCAK256 DUP1 SLOAD PUSH1 0x1 PUSH1 0x1 PUSH1 0xA0 SHL SUB NOT SWAP1 DUP2 AND DUP3 SSTORE PUSH1 0x1 DUP3 ADD DUP4 SWAP1 SSTORE PUSH1 0x2 DUP3 ADD DUP1 SLOAD SWAP1 SWAP2 AND SWAP1 SSTORE PUSH1 0x3 DUP2 ADD DUP3 SWAP1 SSTORE SWAP1 PUSH2 0x2C39 PUSH1 0x4 DUP4 ADD DUP3 PUSH2 0x2D87 JUMP JUMPDEST POP PUSH1 0x0 PUSH1 0x5 DUP3 ADD SSTORE PUSH1 0x6 ADD DUP1 SLOAD PUSH1 0xFF NOT AND SWAP1 SSTORE JUMPDEST DUP1 MLOAD PUSH1 0x40 MLOAD PUSH4 0x2A74DCE7 PUSH1 0xE0 SHL DUP2 MSTORE PUSH1 0xFF DUP9 AND PUSH1 0x4 DUP3 ADD MSTORE PUSH1 0x1 PUSH1 0x1 PUSH1 0xA0 SHL SUB SWAP1 SWAP2 AND SWAP1 PUSH4 0x2A74DCE7 SWAP1 PUSH1 0x24 ADD PUSH1 0x20 PUSH1 0x40 MLOAD DUP1 DUP4 SUB DUP2 PUSH1 0x0 DUP8 GAS CALL ISZERO DUP1 ISZERO PUSH2 0x2C99 JUMPI RETURNDATASIZE PUSH1 0x0 DUP1 RETURNDATACOPY RETURNDATASIZE PUSH1 0x0 REVERT JUMPDEST POP POP POP POP PUSH1 0x40 MLOAD RETURNDATASIZE PUSH1 0x1F NOT PUSH1 0x1F DUP3 ADD AND DUP3 ADD DUP1 PUSH1 0x40 MSTORE POP DUP2 ADD SWAP1 PUSH2 0x2CBD SWAP2 SWAP1 PUSH2 0x340A JUMP JUMPDEST SWAP5 POP DUP1 PUSH1 0x6 PUSH1 0x0 DUP6 DUP6 DUP2 MLOAD DUP2 LT PUSH2 0x2CD6 JUMPI PUSH2 0x2CD6 PUSH2 0x37C9 JUMP JUMPDEST PUSH1 0x20 SWAP1 DUP2 MUL SWAP2 SWAP1 SWAP2 ADD DUP2 ADD MLOAD PUSH1 0x1 PUSH1 0x1 PUSH1 0xA0 SHL SUB SWAP1 DUP2 AND DUP4 MSTORE DUP3 DUP3 ADD SWAP4 SWAP1 SWAP4 MSTORE PUSH1 0x40 SWAP2 DUP3 ADD PUSH1 0x0 KECCAK256 DUP5 MLOAD DUP2 SLOAD SWAP1 DUP6 AND PUSH1 0x1 PUSH1 0x1 PUSH1 0xA0 SHL SUB NOT SWAP2 DUP3 AND OR DUP3 SSTORE SWAP2 DUP6 ADD MLOAD PUSH1 0x1 DUP3 ADD SSTORE SWAP2 DUP5 ADD MLOAD PUSH1 0x2 DUP4 ADD DUP1 SLOAD SWAP2 SWAP1 SWAP5 AND SWAP2 AND OR SWAP1 SWAP2 SSTORE PUSH1 0x60 DUP3 ADD MLOAD PUSH1 0x3 DUP3 ADD SSTORE PUSH1 0x80 DUP3 ADD MLOAD PUSH1 0x4 DUP3 ADD SWAP1 PUSH2 0x2D4F SWAP1 DUP3 PUSH2 0x326A JUMP JUMPDEST POP PUSH1 0xA0 DUP3 ADD MLOAD PUSH1 0x5 DUP3 ADD SSTORE PUSH1 0xC0 SWAP1 SWAP2 ADD MLOAD PUSH1 0x6 SWAP1 SWAP2 ADD DUP1 SLOAD PUSH1 0xFF NOT AND SWAP2 ISZERO ISZERO SWAP2 SWAP1 SWAP2 OR SWAP1 SSTORE POP DUP1 PUSH2 0x2D7F DUP2 PUSH2 0x345A JUMP JUMPDEST SWAP2 POP POP PUSH2 0x285F JUMP JUMPDEST POP DUP1 SLOAD PUSH2 0x2D93 SWAP1 PUSH2 0x31EB JUMP JUMPDEST PUSH1 0x0 DUP3 SSTORE DUP1 PUSH1 0x1F LT PUSH2 0x2DA3 JUMPI POP POP JUMP JUMPDEST PUSH1 0x1F ADD PUSH1 0x20 SWAP1 DIV SWAP1 PUSH1 0x0 MSTORE PUSH1 0x20 PUSH1 0x0 KECCAK256 SWAP1 DUP2 ADD SWAP1 PUSH2 0x73A SWAP2 SWAP1 PUSH2 0x2E11 JUMP JUMPDEST DUP3 DUP1 SLOAD DUP3 DUP3 SSTORE SWAP1 PUSH1 0x0 MSTORE PUSH1 0x20 PUSH1 0x0 KECCAK256 SWAP1 DUP2 ADD SWAP3 DUP3 ISZERO PUSH2 0x2E01 JUMPI PUSH1 0x0 MSTORE PUSH1 0x20 PUSH1 0x0 KECCAK256 SWAP2 DUP3 ADD JUMPDEST DUP3 DUP2 GT ISZERO PUSH2 0x2E01 JUMPI DUP3 SLOAD DUP3 SSTORE SWAP2 PUSH1 0x1 ADD SWAP2 SWAP1 PUSH1 0x1 ADD SWAP1 PUSH2 0x2DE6 JUMP JUMPDEST POP PUSH2 0x2E0D SWAP3 SWAP2 POP PUSH2 0x2E11 JUMP JUMPDEST POP SWAP1 JUMP JUMPDEST JUMPDEST DUP1 DUP3 GT ISZERO PUSH2 0x2E0D JUMPI PUSH1 0x0 DUP2 SSTORE PUSH1 0x1 ADD PUSH2 0x2E12 JUMP JUMPDEST PUSH1 0x0 PUSH1 0x20 DUP3 DUP5 SUB SLT ISZERO PUSH2 0x2E38 JUMPI PUSH1 0x0 DUP1 REVERT JUMPDEST POP CALLDATALOAD SWAP2 SWAP1 POP JUMP JUMPDEST PUSH4 0x4E487B71 PUSH1 0xE0 SHL PUSH1 0x0 MSTORE PUSH1 0x41 PUSH1 0x4 MSTORE PUSH1 0x24 PUSH1 0x0 REVERT JUMPDEST PUSH1 0x0 DUP3 PUSH1 0x1F DUP4 ADD SLT PUSH2 0x2E66 JUMPI PUSH1 0x0 DUP1 REVERT JUMPDEST DUP2 CALLDATALOAD PUSH8 0xFFFFFFFFFFFFFFFF DUP1 DUP3 GT ISZERO PUSH2 0x2E81 JUMPI PUSH2 0x2E81 PUSH2 0x2E3F JUMP JUMPDEST PUSH1 0x40 MLOAD PUSH1 0x1F DUP4 ADD PUSH1 0x1F NOT SWAP1 DUP2 AND PUSH1 0x3F ADD AND DUP2 ADD SWAP1 DUP3 DUP3 GT DUP2 DUP4 LT OR ISZERO PUSH2 0x2EA9 JUMPI PUSH2 0x2EA9 PUSH2 0x2E3F JUMP JUMPDEST DUP2 PUSH1 0x40 MSTORE DUP4 DUP2 MSTORE DUP7 PUSH1 0x20 DUP6 DUP9 ADD ADD GT ISZERO PUSH2 0x2EC2 JUMPI PUSH1 0x0 DUP1 REVERT JUMPDEST DUP4 PUSH1 0x20 DUP8 ADD PUSH1 0x20 DUP4 ADD CALLDATACOPY PUSH1 0x0 PUSH1 0x20 DUP6 DUP4 ADD ADD MSTORE DUP1 SWAP5 POP POP POP POP POP SWAP3 SWAP2 POP POP JUMP JUMPDEST PUSH1 0x0 PUSH1 0x20 DUP3 DUP5 SUB SLT ISZERO PUSH2 0x2EF4 JUMPI PUSH1 0x0 DUP1 REVERT JUMPDEST DUP2 CALLDATALOAD PUSH8 0xFFFFFFFFFFFFFFFF DUP2 GT ISZERO PUSH2 0x2F0B JUMPI PUSH1 0x0 DUP1 REVERT JUMPDEST PUSH2 0x206D DUP5 DUP3 DUP6 ADD PUSH2 0x2E55 JUMP JUMPDEST PUSH1 0x1 PUSH1 0x1 PUSH1 0xA0 SHL SUB DUP2 AND DUP2 EQ PUSH2 0x73A JUMPI PUSH1 0x0 DUP1 REVERT JUMPDEST PUSH1 0x0 PUSH1 0x20 DUP3 DUP5 SUB SLT ISZERO PUSH2 0x2F3E JUMPI PUSH1 0x0 DUP1 REVERT JUMPDEST DUP2 CALLDATALOAD PUSH2 0x1FB6 DUP2 PUSH2 0x2F17 JUMP JUMPDEST PUSH1 0x0 JUMPDEST DUP4 DUP2 LT ISZERO PUSH2 0x2F64 JUMPI DUP2 DUP2 ADD MLOAD DUP4 DUP3 ADD MSTORE PUSH1 0x20 ADD PUSH2 0x2F4C JUMP JUMPDEST POP POP PUSH1 0x0 SWAP2 ADD MSTORE JUMP JUMPDEST PUSH1 0x0 DUP2 MLOAD DUP1 DUP5 MSTORE PUSH2 0x2F85 DUP2 PUSH1 0x20 DUP7 ADD PUSH1 0x20 DUP7 ADD PUSH2 0x2F49 JUMP JUMPDEST PUSH1 0x1F ADD PUSH1 0x1F NOT AND SWAP3 SWAP1 SWAP3 ADD PUSH1 0x20 ADD SWAP3 SWAP2 POP POP JUMP JUMPDEST DUP3 ISZERO ISZERO DUP2 MSTORE PUSH1 0x40 PUSH1 0x20 DUP3 ADD MSTORE PUSH1 0x0 PUSH2 0x206D PUSH1 0x40 DUP4 ADD DUP5 PUSH2 0x2F6D JUMP JUMPDEST PUSH1 0x0 DUP1 PUSH1 0x40 DUP4 DUP6 SUB SLT ISZERO PUSH2 0x2FC7 JUMPI PUSH1 0x0 DUP1 REVERT JUMPDEST DUP3 CALLDATALOAD PUSH2 0x2FD2 DUP2 PUSH2 0x2F17 JUMP JUMPDEST SWAP2 POP PUSH1 0x20 DUP4 ADD CALLDATALOAD PUSH8 0xFFFFFFFFFFFFFFFF DUP2 GT ISZERO PUSH2 0x2FEE JUMPI PUSH1 0x0 DUP1 REVERT JUMPDEST PUSH2 0x2FFA DUP6 DUP3 DUP7 ADD PUSH2 0x2E55 JUMP JUMPDEST SWAP2 POP POP SWAP3 POP SWAP3 SWAP1 POP JUMP JUMPDEST PUSH1 0x0 DUP1 PUSH1 0x40 DUP4 DUP6 SUB SLT ISZERO PUSH2 0x3017 JUMPI PUSH1 0x0 DUP1 REVERT JUMPDEST DUP3 CALLDATALOAD PUSH2 0x3022 DUP2 PUSH2 0x2F17 JUMP JUMPDEST SWAP2 POP PUSH1 0x20 DUP4 ADD CALLDATALOAD PUSH2 0x3032 DUP2 PUSH2 0x2F17 JUMP JUMPDEST DUP1 SWAP2 POP POP SWAP3 POP SWAP3 SWAP1 POP JUMP JUMPDEST PUSH1 0x0 DUP1 PUSH1 0x0 PUSH1 0x60 DUP5 DUP7 SUB SLT ISZERO PUSH2 0x3052 JUMPI PUSH1 0x0 DUP1 REVERT JUMPDEST DUP4 CALLDATALOAD PUSH8 0xFFFFFFFFFFFFFFFF DUP1 DUP3 GT ISZERO PUSH2 0x306A JUMPI PUSH1 0x0 DUP1 REVERT JUMPDEST PUSH2 0x3076 DUP8 DUP4 DUP9 ADD PUSH2 0x2E55 JUMP JUMPDEST SWAP5 POP PUSH1 0x20 DUP7 ADD CALLDATALOAD SWAP2 POP DUP1 DUP3 GT ISZERO PUSH2 0x308C JUMPI PUSH1 0x0 DUP1 REVERT JUMPDEST POP PUSH2 0x3099 DUP7 DUP3 DUP8 ADD PUSH2 0x2E55 JUMP JUMPDEST SWAP3 POP POP PUSH1 0x40 DUP5 ADD CALLDATALOAD PUSH1 0x2 DUP2 LT PUSH2 0x30AE JUMPI PUSH1 0x0 DUP1 REVERT JUMPDEST DUP1 SWAP2 POP POP SWAP3 POP SWAP3 POP SWAP3 JUMP JUMPDEST PUSH1 0x0 DUP1 PUSH1 0x0 DUP1 PUSH1 0x0 DUP1 PUSH1 0xC0 DUP8 DUP10 SUB SLT ISZERO PUSH2 0x30D2 JUMPI PUSH1 0x0 DUP1 REVERT JUMPDEST DUP7 CALLDATALOAD SWAP6 POP PUSH1 0x20 DUP8 ADD CALLDATALOAD PUSH8 0xFFFFFFFFFFFFFFFF DUP1 DUP3 GT ISZERO PUSH2 0x30F1 JUMPI PUSH1 0x0 DUP1 REVERT JUMPDEST PUSH2 0x30FD DUP11 DUP4 DUP12 ADD PUSH2 0x2E55 JUMP JUMPDEST SWAP7 POP PUSH1 0x40 DUP10 ADD CALLDATALOAD SWAP6 POP PUSH1 0x60 DUP10 ADD CALLDATALOAD SWAP5 POP PUSH1 0x80 DUP10 ADD CALLDATALOAD SWAP2 POP DUP1 DUP3 GT ISZERO PUSH2 0x3121 JUMPI PUSH1 0x0 DUP1 REVERT JUMPDEST PUSH2 0x312D DUP11 DUP4 DUP12 ADD PUSH2 0x2E55 JUMP JUMPDEST SWAP4 POP PUSH1 0xA0 DUP10 ADD CALLDATALOAD SWAP2 POP DUP1 DUP3 GT ISZERO PUSH2 0x3143 JUMPI PUSH1 0x0 DUP1 REVERT JUMPDEST POP PUSH2 0x3150 DUP10 DUP3 DUP11 ADD PUSH2 0x2E55 JUMP JUMPDEST SWAP2 POP POP SWAP3 SWAP6 POP SWAP3 SWAP6 POP SWAP3 SWAP6 JUMP JUMPDEST PUSH1 0x0 DUP1 PUSH1 0x40 DUP4 DUP6 SUB SLT ISZERO PUSH2 0x3170 JUMPI PUSH1 0x0 DUP1 REVERT JUMPDEST POP POP DUP1 CALLDATALOAD SWAP3 PUSH1 0x20 SWAP1 SWAP2 ADD CALLDATALOAD SWAP2 POP JUMP JUMPDEST PUSH1 0x20 DUP2 MSTORE PUSH1 0x0 PUSH2 0x1FB6 PUSH1 0x20 DUP4 ADD DUP5 PUSH2 0x2F6D JUMP JUMPDEST PUSH4 0x4E487B71 PUSH1 0xE0 SHL PUSH1 0x0 MSTORE PUSH1 0x11 PUSH1 0x4 MSTORE PUSH1 0x24 PUSH1 0x0 REVERT JUMPDEST DUP1 DUP3 MUL DUP2 ISZERO DUP3 DUP3 DIV DUP5 EQ OR PUSH2 0x1AF5 JUMPI PUSH2 0x1AF5 PUSH2 0x3192 JUMP JUMPDEST DUP1 DUP3 ADD DUP1 DUP3 GT ISZERO PUSH2 0x1AF5 JUMPI PUSH2 0x1AF5 PUSH2 0x3192 JUMP JUMPDEST PUSH1 0x0 PUSH1 0x20 DUP3 DUP5 SUB SLT ISZERO PUSH2 0x31E4 JUMPI PUSH1 0x0 DUP1 REVERT JUMPDEST POP MLOAD SWAP2 SWAP1 POP JUMP JUMPDEST PUSH1 0x1 DUP2 DUP2 SHR SWAP1 DUP3 AND DUP1 PUSH2 0x31FF JUMPI PUSH1 0x7F DUP3 AND SWAP2 POP JUMPDEST PUSH1 0x20 DUP3 LT DUP2 SUB PUSH2 0x16A6 JUMPI PUSH4 0x4E487B71 PUSH1 0xE0 SHL PUSH1 0x0 MSTORE PUSH1 0x22 PUSH1 0x4 MSTORE PUSH1 0x24 PUSH1 0x0 REVERT JUMPDEST PUSH1 0x1F DUP3 GT ISZERO PUSH2 0x3265 JUMPI PUSH1 0x0 DUP2 DUP2 MSTORE PUSH1 0x20 DUP2 KECCAK256 PUSH1 0x1F DUP6 ADD PUSH1 0x5 SHR DUP2 ADD PUSH1 0x20 DUP7 LT ISZERO PUSH2 0x3246 JUMPI POP DUP1 JUMPDEST PUSH1 0x1F DUP6 ADD PUSH1 0x5 SHR DUP3 ADD SWAP2 POP JUMPDEST DUP2 DUP2 LT ISZERO PUSH2 0x1F46 JUMPI DUP3 DUP2 SSTORE PUSH1 0x1 ADD PUSH2 0x3252 JUMP JUMPDEST POP POP POP JUMP JUMPDEST DUP2 MLOAD PUSH8 0xFFFFFFFFFFFFFFFF DUP2 GT ISZERO PUSH2 0x3284 JUMPI PUSH2 0x3284 PUSH2 0x2E3F JUMP JUMPDEST PUSH2 0x3298 DUP2 PUSH2 0x3292 DUP5 SLOAD PUSH2 0x31EB JUMP JUMPDEST DUP5 PUSH2 0x321F JUMP JUMPDEST PUSH1 0x20 DUP1 PUSH1 0x1F DUP4 GT PUSH1 0x1 DUP2 EQ PUSH2 0x32CD JUMPI PUSH1 0x0 DUP5 ISZERO PUSH2 0x32B5 JUMPI POP DUP6 DUP4 ADD MLOAD JUMPDEST PUSH1 0x0 NOT PUSH1 0x3 DUP7 SWAP1 SHL SHR NOT AND PUSH1 0x1 DUP6 SWAP1 SHL OR DUP6 SSTORE PUSH2 0x1F46 JUMP JUMPDEST PUSH1 0x0 DUP6 DUP2 MSTORE PUSH1 0x20 DUP2 KECCAK256 PUSH1 0x1F NOT DUP7 AND SWAP2 JUMPDEST DUP3 DUP2 LT ISZERO PUSH2 0x32FC JUMPI DUP9 DUP7 ADD MLOAD DUP3 SSTORE SWAP5 DUP5 ADD SWAP5 PUSH1 0x1 SWAP1 SWAP2 ADD SWAP1 DUP5 ADD PUSH2 0x32DD JUMP JUMPDEST POP DUP6 DUP3 LT ISZERO PUSH2 0x331A JUMPI DUP8 DUP6 ADD MLOAD PUSH1 0x0 NOT PUSH1 0x3 DUP9 SWAP1 SHL PUSH1 0xF8 AND SHR NOT AND DUP2 SSTORE JUMPDEST POP POP POP POP POP PUSH1 0x1 SWAP1 DUP2 SHL ADD SWAP1 SSTORE POP JUMP JUMPDEST PUSH1 0x0 PUSH1 0xFF DUP3 AND PUSH1 0xFF DUP2 SUB PUSH2 0x3340 JUMPI PUSH2 0x3340 PUSH2 0x3192 JUMP JUMPDEST PUSH1 0x1 ADD SWAP3 SWAP2 POP POP JUMP JUMPDEST PUSH1 0x0 DUP3 MLOAD PUSH2 0x335B DUP2 DUP5 PUSH1 0x20 DUP8 ADD PUSH2 0x2F49 JUMP JUMPDEST SWAP2 SWAP1 SWAP2 ADD SWAP3 SWAP2 POP POP JUMP JUMPDEST PUSH1 0x40 DUP2 MSTORE PUSH1 0x0 DUP1 DUP4 SLOAD PUSH2 0x3377 DUP2 PUSH2 0x31EB JUMP JUMPDEST DUP1 PUSH1 0x40 DUP7 ADD MSTORE PUSH1 0x60 PUSH1 0x1 DUP1 DUP5 AND PUSH1 0x0 DUP2 EQ PUSH2 0x3399 JUMPI PUSH1 0x1 DUP2 EQ PUSH2 0x33B3 JUMPI PUSH2 0x33E4 JUMP JUMPDEST PUSH1 0xFF NOT DUP6 AND DUP9 DUP5 ADD MSTORE DUP4 ISZERO ISZERO PUSH1 0x5 SHL DUP9 ADD DUP4 ADD SWAP6 POP PUSH2 0x33E4 JUMP JUMPDEST DUP9 PUSH1 0x0 MSTORE PUSH1 0x20 DUP1 PUSH1 0x0 KECCAK256 PUSH1 0x0 JUMPDEST DUP7 DUP2 LT ISZERO PUSH2 0x33DB JUMPI DUP2 SLOAD DUP12 DUP3 ADD DUP8 ADD MSTORE SWAP1 DUP5 ADD SWAP1 DUP3 ADD PUSH2 0x33C0 JUMP JUMPDEST DUP11 ADD DUP6 ADD SWAP8 POP POP POP JUMPDEST POP POP POP POP POP DUP3 DUP2 SUB PUSH1 0x20 DUP5 ADD MSTORE PUSH2 0x206D DUP2 PUSH1 0x2 DUP2 MSTORE PUSH2 0x4E41 PUSH1 0xF0 SHL PUSH1 0x20 DUP3 ADD MSTORE PUSH1 0x40 ADD SWAP1 JUMP JUMPDEST PUSH1 0x0 PUSH1 0x20 DUP3 DUP5 SUB SLT ISZERO PUSH2 0x341C JUMPI PUSH1 0x0 DUP1 REVERT JUMPDEST DUP2 MLOAD DUP1 ISZERO ISZERO DUP2 EQ PUSH2 0x1FB6 JUMPI PUSH1 0x0 DUP1 REVERT JUMPDEST PUSH1 0x40 DUP2 MSTORE PUSH1 0x0 PUSH2 0x343F PUSH1 0x40 DUP4 ADD DUP6 PUSH2 0x2F6D JUMP JUMPDEST DUP3 DUP2 SUB PUSH1 0x20 DUP5 ADD MSTORE PUSH2 0x3451 DUP2 DUP6 PUSH2 0x2F6D JUMP JUMPDEST SWAP6 SWAP5 POP POP POP POP POP JUMP JUMPDEST PUSH1 0x0 PUSH1 0x1 DUP3 ADD PUSH2 0x346C JUMPI PUSH2 0x346C PUSH2 0x3192 JUMP JUMPDEST POP PUSH1 0x1 ADD SWAP1 JUMP JUMPDEST PUSH4 0x4E487B71 PUSH1 0xE0 SHL PUSH1 0x0 MSTORE PUSH1 0x21 PUSH1 0x4 MSTORE PUSH1 0x24 PUSH1 0x0 REVERT JUMPDEST PUSH1 0x1 PUSH1 0x1 PUSH1 0xA0 SHL SUB DUP10 DUP2 AND DUP3 MSTORE DUP9 DUP2 AND PUSH1 0x20 DUP4 ADD MSTORE DUP8 AND PUSH1 0x40 DUP3 ADD MSTORE PUSH1 0x60 DUP2 ADD DUP7 SWAP1 MSTORE PUSH1 0x80 DUP2 ADD DUP6 SWAP1 MSTORE PUSH2 0x100 PUSH1 0xA0 DUP3 ADD DUP2 SWAP1 MSTORE PUSH1 0x0 SWAP1 PUSH2 0x34CC DUP4 DUP3 ADD DUP8 PUSH2 0x2F6D JUMP JUMPDEST PUSH1 0xC0 DUP5 ADD SWAP6 SWAP1 SWAP6 MSTORE POP POP PUSH1 0xE0 ADD MSTORE SWAP7 SWAP6 POP POP POP POP POP POP JUMP JUMPDEST PUSH1 0x0 PUSH1 0x20 DUP3 DUP5 SUB SLT ISZERO PUSH2 0x34F6 JUMPI PUSH1 0x0 DUP1 REVERT JUMPDEST DUP2 MLOAD PUSH2 0x1FB6 DUP2 PUSH2 0x2F17 JUMP JUMPDEST PUSH1 0x20 DUP1 DUP3 MSTORE PUSH1 0x12 SWAP1 DUP3 ADD MSTORE PUSH18 0x22A9291D1027B7363C9027B832B930BA37B9 PUSH1 0x71 SHL PUSH1 0x40 DUP3 ADD MSTORE PUSH1 0x60 ADD SWAP1 JUMP JUMPDEST DUP2 DUP2 SUB DUP2 DUP2 GT ISZERO PUSH2 0x1AF5 JUMPI PUSH2 0x1AF5 PUSH2 0x3192 JUMP JUMPDEST PUSH4 0x4E487B71 PUSH1 0xE0 SHL PUSH1 0x0 MSTORE PUSH1 0x12 PUSH1 0x4 MSTORE PUSH1 0x24 PUSH1 0x0 REVERT JUMPDEST PUSH1 0x0 DUP3 PUSH2 0x3565 JUMPI PUSH2 0x3565 PUSH2 0x3540 JUMP JUMPDEST POP DIV SWAP1 JUMP JUMPDEST PUSH1 0x0 PUSH1 0xFF DUP3 AND DUP1 PUSH2 0x357D JUMPI PUSH2 0x357D PUSH2 0x3192 JUMP JUMPDEST PUSH1 0x0 NOT ADD SWAP3 SWAP2 POP POP JUMP JUMPDEST DUP2 DUP2 SUB PUSH2 0x3592 JUMPI POP POP JUMP JUMPDEST PUSH2 0x359C DUP3 SLOAD PUSH2 0x31EB JUMP JUMPDEST PUSH8 0xFFFFFFFFFFFFFFFF DUP2 GT ISZERO PUSH2 0x35B4 JUMPI PUSH2 0x35B4 PUSH2 0x2E3F JUMP JUMPDEST PUSH2 0x35C2 DUP2 PUSH2 0x3292 DUP5 SLOAD PUSH2 0x31EB JUMP JUMPDEST PUSH1 0x0 PUSH1 0x1F DUP3 GT PUSH1 0x1 DUP2 EQ PUSH2 0x35F6 JUMPI PUSH1 0x0 DUP4 ISZERO PUSH2 0x35DE JUMPI POP DUP5 DUP3 ADD SLOAD JUMPDEST PUSH1 0x0 NOT PUSH1 0x3 DUP6 SWAP1 SHL SHR NOT AND PUSH1 0x1 DUP5 SWAP1 SHL OR DUP5 SSTORE PUSH2 0x365B JUMP JUMPDEST PUSH1 0x0 DUP6 DUP2 MSTORE PUSH1 0x20 SWAP1 KECCAK256 PUSH1 0x1F NOT DUP5 AND SWAP1 PUSH1 0x0 DUP7 DUP2 MSTORE PUSH1 0x20 SWAP1 KECCAK256 DUP5 JUMPDEST DUP4 DUP2 LT ISZERO PUSH2 0x3630 JUMPI DUP3 DUP7 ADD SLOAD DUP3 SSTORE PUSH1 0x1 SWAP6 DUP7 ADD SWAP6 SWAP1 SWAP2 ADD SWAP1 PUSH1 0x20 ADD PUSH2 0x3610 JUMP JUMPDEST POP DUP6 DUP4 LT ISZERO PUSH2 0x364E JUMPI DUP2 DUP6 ADD SLOAD PUSH1 0x0 NOT PUSH1 0x3 DUP9 SWAP1 SHL PUSH1 0xF8 AND SHR NOT AND DUP2 SSTORE JUMPDEST POP POP POP PUSH1 0x1 DUP4 PUSH1 0x1 SHL ADD DUP5 SSTORE JUMPDEST POP POP POP POP POP JUMP JUMPDEST DUP3 DUP2 MSTORE PUSH1 0x40 PUSH1 0x20 DUP3 ADD MSTORE PUSH1 0x0 PUSH2 0x206D PUSH1 0x40 DUP4 ADD DUP5 PUSH2 0x2F6D JUMP JUMPDEST PUSH15 0x2222A620ACA2A2101436B4B7149D1 PUSH1 0x8D SHL DUP2 MSTORE PUSH1 0x0 DUP3 MLOAD PUSH2 0x36A5 DUP2 PUSH1 0xF DUP6 ADD PUSH1 0x20 DUP8 ADD PUSH2 0x2F49 JUMP JUMPDEST SWAP2 SWAP1 SWAP2 ADD PUSH1 0xF ADD SWAP3 SWAP2 POP POP JUMP JUMPDEST PUSH7 0x101420BB361D1 PUSH1 0xCD SHL DUP2 MSTORE PUSH1 0x0 DUP3 MLOAD PUSH2 0x36D4 DUP2 PUSH1 0x7 DUP6 ADD PUSH1 0x20 DUP8 ADD PUSH2 0x2F49 JUMP JUMPDEST PUSH1 0x29 PUSH1 0xF8 SHL PUSH1 0x7 SWAP4 SWAP1 SWAP2 ADD SWAP3 DUP4 ADD MSTORE POP PUSH1 0x8 ADD SWAP2 SWAP1 POP JUMP JUMPDEST PUSH9 0x14D0D2115115531151 PUSH1 0xBA SHL DUP2 MSTORE PUSH1 0x0 DUP3 MLOAD PUSH2 0x3710 DUP2 PUSH1 0x9 DUP6 ADD PUSH1 0x20 DUP8 ADD PUSH2 0x2F49 JUMP JUMPDEST SWAP2 SWAP1 SWAP2 ADD PUSH1 0x9 ADD SWAP3 SWAP2 POP POP JUMP JUMPDEST PUSH7 0x4F4E2D54494D45 PUSH1 0xC8 SHL DUP2 MSTORE PUSH1 0x0 DUP3 MLOAD PUSH2 0x373F DUP2 PUSH1 0x7 DUP6 ADD PUSH1 0x20 DUP8 ADD PUSH2 0x2F49 JUMP JUMPDEST SWAP2 SWAP1 SWAP2 ADD PUSH1 0x7 ADD SWAP3 SWAP2 POP POP JUMP JUMPDEST PUSH7 0x11115310565151 PUSH1 0xCA SHL DUP2 MSTORE PUSH1 0x0 DUP3 MLOAD PUSH2 0x373F DUP2 PUSH1 0x7 DUP6 ADD PUSH1 0x20 DUP8 ADD PUSH2 0x2F49 JUMP JUMPDEST PUSH8 0x424F415244494E47 PUSH1 0xC0 SHL DUP2 MSTORE PUSH1 0x0 DUP3 MLOAD PUSH2 0x3791 DUP2 PUSH1 0x8 DUP6 ADD PUSH1 0x20 DUP8 ADD PUSH2 0x2F49 JUMP JUMPDEST SWAP2 SWAP1 SWAP2 ADD PUSH1 0x8 ADD SWAP3 SWAP2 POP POP JUMP JUMPDEST PUSH1 0x0 DUP2 PUSH2 0x37AD JUMPI PUSH2 0x37AD PUSH2 0x3192 JUMP JUMPDEST POP PUSH1 0x0 NOT ADD SWAP1 JUMP JUMPDEST PUSH1 0x0 DUP3 PUSH2 0x37C4 JUMPI PUSH2 0x37C4 PUSH2 0x3540 JUMP JUMPDEST POP MOD SWAP1 JUMP JUMPDEST PUSH4 0x4E487B71 PUSH1 0xE0 SHL PUSH1 0x0 MSTORE PUSH1 0x32 PUSH1 0x4 MSTORE PUSH1 0x24 PUSH1 0x0 REVERT INVALID LOG2 PUSH5 0x6970667358 0x22 SLT KECCAK256 0xB7 OR MSTORE8 SMOD 0xCE GAS ADDMOD DIV SWAP12 0x4F 0xB9 RETURNDATASIZE POP 0xC1 0xC 0xB2 0x22 DIV SLT 0xD3 0xC6 0xD4 0xE8 0x5D SELFBALANCE ADDRESS PUSH31 0x117DE9A4B064736F6C63430008120033000000000000000000000000000000 "
		},
		"gasEstimates": {
			"creation": {
				"codeDepositCost": "2871400",
				"executionCost": "infinite",
				"totalCost": "infinite"
			},
			"external": {
				"MAX_SEATS()": "271",
				"T_PRICE_DOM()": "284",
				"T_PRICE_INT()": "283",
				"cancelTicket(address)": "infinite",
				"checkflightSts(uint256)": "infinite",
				"confirmTicket(address,address)": "infinite",
				"flightBOARDING(uint256)": "infinite",
				"flightCANCELLED(uint256)": "infinite",
				"flightDELAYED(uint256,uint256)": "infinite",
				"flightINAIR(uint256)": "infinite",
				"flightLANDED(uint256)": "infinite",
				"flightONTIME(uint256)": "infinite",
				"flightSOLDOUT(uint256)": "53110",
				"getflightSts(uint256)": "4708",
				"getflightStsTime(uint256)": "infinite",
				"registerAirlineOperator(string,string,uint8)": "infinite",
				"registerCustomer(string)": "infinite",
				"reserveTicket(uint256)": "infinite",
				"selectSeat(address,string)": "infinite",
				"setupFlight(uint256,string,uint256,uint256,string,string)": "infinite",
				"voidTicket(address)": "infinite"
			},
			"internal": {
				"_closeFlight(uint256,uint8)": "infinite",
				"_unblockSeat(uint256,string memory)": "infinite",
				"_updateflightSts(uint256,string memory,uint8,uint256)": "infinite"
			}
		},
		"methodIdentifiers": {
			"MAX_SEATS()": "94c2c24f",
			"T_PRICE_DOM()": "96044d01",
			"T_PRICE_INT()": "c34b2403",
			"cancelTicket(address)": "17b21972",
			"checkflightSts(uint256)": "aeeef6b5",
			"confirmTicket(address,address)": "8f00be4a",
			"flightBOARDING(uint256)": "bd9e8bc1",
			"flightCANCELLED(uint256)": "f9c46ba0",
			"flightDELAYED(uint256,uint256)": "9e85c20e",
			"flightINAIR(uint256)": "eab91b22",
			"flightLANDED(uint256)": "66fd1b35",
			"flightONTIME(uint256)": "9ded7df8",
			"flightSOLDOUT(uint256)": "6017366e",
			"getflightSts(uint256)": "0f51c42d",
			"getflightStsTime(uint256)": "01b2ae05",
			"registerAirlineOperator(string,string,uint8)": "92a06131",
			"registerCustomer(string)": "1378d806",
			"reserveTicket(uint256)": "3c45a5d8",
			"selectSeat(address,string)": "2eb8a88b",
			"setupFlight(uint256,string,uint256,uint256,string,string)": "944ae8d8",
			"voidTicket(address)": "4da75d4f"
		}
	},
	"abi": [
		{
			"inputs": [
				{
					"internalType": "address",
					"name": "factory",
					"type": "address"
				}
			],
			"stateMutability": "nonpayable",
			"type": "constructor"
		},
		{
			"anonymous": false,
			"inputs": [
				{
					"indexed": false,
					"internalType": "string",
					"name": "airlineName",
					"type": "string"
				},
				{
					"indexed": true,
					"internalType": "address",
					"name": "airlineContractAddress",
					"type": "address"
				}
			],
			"name": "ContractCreated",
			"type": "event"
		},
		{
			"anonymous": false,
			"inputs": [
				{
					"indexed": false,
					"internalType": "string",
					"name": "name",
					"type": "string"
				}
			],
			"name": "CustomerRegistered",
			"type": "event"
		},
		{
			"anonymous": false,
			"inputs": [
				{
					"indexed": false,
					"internalType": "uint256",
					"name": "flightNum",
					"type": "uint256"
				},
				{
					"indexed": false,
					"internalType": "string",
					"name": "flightName",
					"type": "string"
				}
			],
			"name": "FlightRegistered",
			"type": "event"
		},
		{
			"anonymous": false,
			"inputs": [
				{
					"indexed": false,
					"internalType": "uint256",
					"name": "flightNum",
					"type": "uint256"
				},
				{
					"indexed": false,
					"internalType": "string",
					"name": "uMsg",
					"type": "string"
				}
			],
			"name": "FlightUpdate",
			"type": "event"
		},
		{
			"anonymous": false,
			"inputs": [
				{
					"indexed": false,
					"internalType": "string",
					"name": "operatorName",
					"type": "string"
				},
				{
					"indexed": false,
					"internalType": "string",
					"name": "operatorCode",
					"type": "string"
				}
			],
			"name": "OperatorRegistered",
			"type": "event"
		},
		{
			"anonymous": false,
			"inputs": [
				{
					"indexed": false,
					"internalType": "uint256",
					"name": "ticketNum",
					"type": "uint256"
				},
				{
					"indexed": true,
					"internalType": "address",
					"name": "ticketAddress",
					"type": "address"
				}
			],
			"name": "TicketReserved",
			"type": "event"
		},
		{
			"inputs": [],
			"name": "MAX_SEATS",
			"outputs": [
				{
					"internalType": "uint8",
					"name": "",
					"type": "uint8"
				}
			],
			"stateMutability": "view",
			"type": "function"
		},
		{
			"inputs": [],
			"name": "T_PRICE_DOM",
			"outputs": [
				{
					"internalType": "uint256",
					"name": "",
					"type": "uint256"
				}
			],
			"stateMutability": "view",
			"type": "function"
		},
		{
			"inputs": [],
			"name": "T_PRICE_INT",
			"outputs": [
				{
					"internalType": "uint256",
					"name": "",
					"type": "uint256"
				}
			],
			"stateMutability": "view",
			"type": "function"
		},
		{
			"inputs": [
				{
					"internalType": "address",
					"name": "ticketContract",
					"type": "address"
				}
			],
			"name": "cancelTicket",
			"outputs": [
				{
					"internalType": "bool",
					"name": "",
					"type": "bool"
				},
				{
					"internalType": "string",
					"name": "",
					"type": "string"
				}
			],
			"stateMutability": "nonpayable",
			"type": "function"
		},
		{
			"inputs": [
				{
					"internalType": "uint256",
					"name": "flightNum",
					"type": "uint256"
				}
			],
			"name": "checkflightSts",
			"outputs": [
				{
					"internalType": "string",
					"name": "",
					"type": "string"
				}
			],
			"stateMutability": "view",
			"type": "function"
		},
		{
			"inputs": [
				{
					"internalType": "address",
					"name": "ticketContract",
					"type": "address"
				},
				{
					"internalType": "address",
					"name": "buyer",
					"type": "address"
				}
			],
			"name": "confirmTicket",
			"outputs": [
				{
					"internalType": "bool",
					"name": "",
					"type": "bool"
				}
			],
			"stateMutability": "nonpayable",
			"type": "function"
		},
		{
			"inputs": [
				{
					"internalType": "uint256",
					"name": "flightNum",
					"type": "uint256"
				}
			],
			"name": "flightBOARDING",
			"outputs": [
				{
					"internalType": "bool",
					"name": "",
					"type": "bool"
				}
			],
			"stateMutability": "nonpayable",
			"type": "function"
		},
		{
			"inputs": [
				{
					"internalType": "uint256",
					"name": "flightNum",
					"type": "uint256"
				}
			],
			"name": "flightCANCELLED",
			"outputs": [
				{
					"internalType": "bool",
					"name": "",
					"type": "bool"
				}
			],
			"stateMutability": "nonpayable",
			"type": "function"
		},
		{
			"inputs": [
				{
					"internalType": "uint256",
					"name": "flightNum",
					"type": "uint256"
				},
				{
					"internalType": "uint256",
					"name": "estDelayMinutes",
					"type": "uint256"
				}
			],
			"name": "flightDELAYED",
			"outputs": [
				{
					"internalType": "bool",
					"name": "",
					"type": "bool"
				}
			],
			"stateMutability": "nonpayable",
			"type": "function"
		},
		{
			"inputs": [
				{
					"internalType": "uint256",
					"name": "flightNum",
					"type": "uint256"
				}
			],
			"name": "flightINAIR",
			"outputs": [
				{
					"internalType": "bool",
					"name": "",
					"type": "bool"
				}
			],
			"stateMutability": "nonpayable",
			"type": "function"
		},
		{
			"inputs": [
				{
					"internalType": "uint256",
					"name": "flightNum",
					"type": "uint256"
				}
			],
			"name": "flightLANDED",
			"outputs": [
				{
					"internalType": "bool",
					"name": "",
					"type": "bool"
				}
			],
			"stateMutability": "nonpayable",
			"type": "function"
		},
		{
			"inputs": [
				{
					"internalType": "uint256",
					"name": "flightNum",
					"type": "uint256"
				}
			],
			"name": "flightONTIME",
			"outputs": [
				{
					"internalType": "bool",
					"name": "",
					"type": "bool"
				}
			],
			"stateMutability": "nonpayable",
			"type": "function"
		},
		{
			"inputs": [
				{
					"internalType": "uint256",
					"name": "flightNum",
					"type": "uint256"
				}
			],
			"name": "flightSOLDOUT",
			"outputs": [
				{
					"internalType": "bool",
					"name": "success",
					"type": "bool"
				}
			],
			"stateMutability": "nonpayable",
			"type": "function"
		},
		{
			"inputs": [
				{
					"internalType": "uint256",
					"name": "flightNum",
					"type": "uint256"
				}
			],
			"name": "getflightSts",
			"outputs": [
				{
					"internalType": "uint8",
					"name": "",
					"type": "uint8"
				}
			],
			"stateMutability": "view",
			"type": "function"
		},
		{
			"inputs": [
				{
					"internalType": "uint256",
					"name": "flightNum",
					"type": "uint256"
				}
			],
			"name": "getflightStsTime",
			"outputs": [
				{
					"internalType": "uint8",
					"name": "",
					"type": "uint8"
				},
				{
					"internalType": "uint256",
					"name": "",
					"type": "uint256"
				},
				{
					"internalType": "uint256",
					"name": "",
					"type": "uint256"
				},
				{
					"internalType": "uint256",
					"name": "",
					"type": "uint256"
				},
				{
					"internalType": "uint256",
					"name": "",
					"type": "uint256"
				}
			],
			"stateMutability": "view",
			"type": "function"
		},
		{
			"inputs": [
				{
					"internalType": "string",
					"name": "opName",
					"type": "string"
				},
				{
					"internalType": "string",
					"name": "opCode",
					"type": "string"
				},
				{
					"internalType": "enum EagleAirline.OpType",
					"name": "opType",
					"type": "uint8"
				}
			],
			"name": "registerAirlineOperator",
			"outputs": [],
			"stateMutability": "nonpayable",
			"type": "function"
		},
		{
			"inputs": [
				{
					"internalType": "string",
					"name": "custName",
					"type": "string"
				}
			],
			"name": "registerCustomer",
			"outputs": [],
			"stateMutability": "nonpayable",
			"type": "function"
		},
		{
			"inputs": [
				{
					"internalType": "uint256",
					"name": "flightNum",
					"type": "uint256"
				}
			],
			"name": "reserveTicket",
			"outputs": [
				{
					"internalType": "address",
					"name": "",
					"type": "address"
				}
			],
			"stateMutability": "nonpayable",
			"type": "function"
		},
		{
			"inputs": [
				{
					"internalType": "address",
					"name": "ticketContract",
					"type": "address"
				},
				{
					"internalType": "string",
					"name": "seatNum",
					"type": "string"
				}
			],
			"name": "selectSeat",
			"outputs": [
				{
					"internalType": "bool",
					"name": "success",
					"type": "bool"
				}
			],
			"stateMutability": "nonpayable",
			"type": "function"
		},
		{
			"inputs": [
				{
					"internalType": "uint256",
					"name": "flightNum",
					"type": "uint256"
				},
				{
					"internalType": "string",
					"name": "flightName",
					"type": "string"
				},
				{
					"internalType": "uint256",
					"name": "schDepTS",
					"type": "uint256"
				},
				{
					"internalType": "uint256",
					"name": "schArrTS",
					"type": "uint256"
				},
				{
					"internalType": "string",
					"name": "origin",
					"type": "string"
				},
				{
					"internalType": "string",
					"name": "destination",
					"type": "string"
				}
			],
			"name": "setupFlight",
			"outputs": [],
			"stateMutability": "nonpayable",
			"type": "function"
		},
		{
			"inputs": [
				{
					"internalType": "address",
					"name": "ticketContract",
					"type": "address"
				}
			],
			"name": "voidTicket",
			"outputs": [
				{
					"internalType": "bool",
					"name": "",
					"type": "bool"
				},
				{
					"internalType": "string",
					"name": "",
					"type": "string"
				}
			],
			"stateMutability": "nonpayable",
			"type": "function"
		}
	]
}