{
	"data": {
		"bytecode": {
			"linkReferences": {},
			"object": "608060405234801561001057600080fd5b50612f5f806100206000396000f3fe608060405234801561001057600080fd5b506004361061002b5760003560e01c806318b552bb14610030575b600080fd5b61004361003e3660046100ef565b61005f565b6040516001600160a01b03909116815260200160405180910390f35b60008888888888888888604051610075906100b0565b6100869897969594939291906101f9565b604051809103906000f0801580156100a2573d6000803e3d6000fd5b509998505050505050505050565b612c998061029183390190565b80356001600160a01b03811681146100d457600080fd5b919050565b634e487b7160e01b600052604160045260246000fd5b600080600080600080600080610100898b03121561010c57600080fd5b610115896100bd565b975061012360208a016100bd565b965061013160408a016100bd565b9550606089013594506080890135935060a089013567ffffffffffffffff8082111561015c57600080fd5b818b0191508b601f83011261017057600080fd5b813581811115610182576101826100d9565b604051601f8201601f19908116603f011681019083821181831017156101aa576101aa6100d9565b816040528281528e60208487010111156101c357600080fd5b82602086016020830137600060208483010152809750505050505060c0890135915060e089013590509295985092959890939650565b600061010060018060a01b03808c1684526020818c1681860152818b1660408601528960608601528860808601528260a0860152875191508183860152600092505b8183101561025a5787830181015185840161012001529182019161023b565b50600061012082860181019190915260c085019690965260e08401949094525050601f909101601f19160101969550505050505056fe60806040523480156200001157600080fd5b5060405162002c9938038062002c9983398101604081905262000034916200039c565b6001600160a01b038716620000905760405162461bcd60e51b815260206004820152601e60248201527f4572726f723a20496e76616c6964204169726c696e652061646472657373000060448201526064015b60405180910390fd5b6001600160a01b038616620000e85760405162461bcd60e51b815260206004820181905260248201527f4572726f723a20496e76616c69646520437573746f6d65722061646472657373604482015260640162000087565b600085116200013a5760405162461bcd60e51b815260206004820152601760248201527f4572726f723a20496e76616c6964205469636b65742023000000000000000000604482015260640162000087565b600084116200018c5760405162461bcd60e51b815260206004820152601760248201527f4572726f723a20496e76616c696420466c696768742023000000000000000000604482015260640162000087565b60008211620001de5760405162461bcd60e51b815260206004820152601c60248201527f4572726f723a20496e76616c6964205469636b657420416d6f756e7400000000604482015260640162000087565b60008054306001600160a01b03199182161782556002805482166001600160a01b038c81169182179092556003805484169091179055600480549092168a821617909155600580546001899055600160a01b928a166001600160a81b0319909116179190911760ff60a81b19169055426006556009805460ff19169055604080516101208101825286815260208101869052908101849052606081018290526080810182905260a0810182905260c0810182905260e08101919091526101008101829052600a858155600b620002b586826200055f565b506040828101516002830155606083015160038301556080830151600483015560a0830151600583015560c0830151600683015560e08301516007830155610100909201516008909101555130907f0d1802b86a0633c4679107d4313baeacab2fb7391348ca6485df3f40844b0b079062000353906020808252600f908201526e151a58dad95d0810dbdb9d1c9858dd608a1b604082015260600190565b60405180910390a250505050505050506200062b565b80516001600160a01b03811681146200038157600080fd5b919050565b634e487b7160e01b600052604160045260246000fd5b600080600080600080600080610100898b031215620003ba57600080fd5b620003c58962000369565b97506020620003d6818b0162000369565b9750620003e660408b0162000369565b60608b015160808c015160a08d015192995090975095506001600160401b03808211156200041357600080fd5b818c0191508c601f8301126200042857600080fd5b8151818111156200043d576200043d62000386565b604051601f8201601f19908116603f0116810190838211818310171562000468576200046862000386565b816040528281528f868487010111156200048157600080fd5b600093505b82841015620004a5578484018601518185018701529285019262000486565b60009281019095019190915250505060c08a015160e0909a0151989b979a5095989497939692505050565b600181811c90821680620004e557607f821691505b6020821081036200050657634e487b7160e01b600052602260045260246000fd5b50919050565b601f8211156200055a57600081815260208120601f850160051c81016020861015620005355750805b601f850160051c820191505b81811015620005565782815560010162000541565b5050505b505050565b81516001600160401b038111156200057b576200057b62000386565b62000593816200058c8454620004d0565b846200050c565b602080601f831160018114620005cb5760008415620005b25750858301515b600019600386901b1c1916600185901b17855562000556565b600085815260208120601f198616915b82811015620005fc57888601518255948401946001909101908401620005db565b50858210156200061b5787850151600019600388901b60f8161c191681555b5050505050600190811b01905550565b61265e806200063b6000396000f3fe6080604052600436106100555760003560e01c8063152855271461005a57806328700e6e14610071578063801c86f514610099578063b5545a3c146100b9578063ca36385c146100c1578063e8fda677146100d7575b600080fd5b34801561006657600080fd5b5061006f6100df565b005b61008461007f366004611ebd565b6101f3565b60405190151581526020015b60405180910390f35b3480156100a557600080fd5b506100846100b4366004611f67565b610791565b610084610852565b6100c9610f82565b604051610090929190612037565b6100846115eb565b6004546001600160a01b031633148061010257506005546001600160a01b031633145b61016f5760405162461bcd60e51b815260206004820152603360248201527f4f6e6c79204169726c696e6520466c69676874204f70657261746f72202f20546044820152721a58dad95d08109d5e595c88185b1b1bddd959606a1b60648201526084015b60405180910390fd5b60055460009061018890600160a01b900460ff166118c3565b6005549091506000906101a490600160a81b900460ff166119b3565b600154600a54600d546040519394507f7f9534bae335130d7523bed94596c5942b70a305e742e8064af42f87ae7dad84936101e7939291600b9188918891612086565b60405180910390a15050565b6002546000906001600160a01b031633146102505760405162461bcd60e51b815260206004820152601d60248201527f4f6e6c79204169726c696e6520436f6e747261637420616c6c6f7765640000006044820152606401610166565b60055442906001600160a01b90910460ff161080159061027e57506005546002600160a01b90910460ff1611155b6102f05760405162461bcd60e51b815260206004820152603e60248201527f4552523a2043616e6e6f7420636c6f73652064756520746f205469636b65742060448201527f7374617475732028564f49442f434c4f5345442f43414e43454c4c45442900006064820152608401610166565b60ff861660051480610305575060ff86166006145b6103515760405162461bcd60e51b815260206004820152601a60248201527f4552523a20496e76616c696420466c69676874207374617475730000000000006044820152606401610166565b600554600019600160a01b90910460ff16016103d0576005805460ff60a01b1916905560078190556001546040805191825260208201819052600b828201526a1593d25108151a58dad95d60aa1b6060830152517fde76133b24d9fcae5254a94bfa50b907d61b4eeb12f84fa63de7378c63e068ca9181900360800190a15b600954479060ff161580156103f15750600554600160a81b900460ff166001145b806103fc5750600081115b156106de57600061040f88888888611a8b565b9050600080600080600a600301548611156105a1576000610432868e6000611b1b565b905061043f60648261217c565b61044c9060ff168861219e565b945061045885886121b5565b935084156104fa576005546040516001600160a01b03909116908690600081818185875af1925050503d80600081146104ad576040519150601f19603f3d011682016040523d82523d6000602084013e6104b2565b606091505b505080935050826104fa5760405162461bcd60e51b81526020600482015260126024820152711154948e881499599d5b990819985a5b195960721b6044820152606401610166565b831561059b576004546040516001600160a01b03909116908590600081818185875af1925050503d806000811461054d576040519150601f19603f3d011682016040523d82523d6000602084013e610552565b606091505b5050809250508161059b5760405162461bcd60e51b81526020600482015260136024820152721154948e8814185e5b595b9d0819985a5b1959606a1b6044820152606401610166565b506105f9565b60405162461bcd60e51b815260206004820152602760248201527f4552523a20496e73756666696369656e742066756e647320746f20636c6f7365604482015266081d1a58dad95d60ca1b6064820152608401610166565b81806106025750805b61064e5760405162461bcd60e51b815260206004820152601860248201527f4552523a20436c6f7365205469636b6574206661696c656400000000000000006044820152606401610166565b600887905583158015906106625750600083115b1561067f576005805460ff60a81b1916600360a81b1790556106d1565b60008411801561068d575082155b156106aa576005805460ff60a81b1916600160a91b1790556106d1565b831580156106b85750600083115b156106d1576005805460ff60a81b1916600160aa1b1790555b5050600e91909155600f55505b6005805460ff60a01b1916600360a01b17905560078290556040805180820190915260028152614e4160f01b6020820152600b9061071c9082612217565b50600192507fde76133b24d9fcae5254a94bfa50b907d61b4eeb12f84fa63de7378c63e068ca60015460405161077f9181526040602082018190526013908201527212539193ce88151a58dad95d0810db1bdcd959606a1b606082015260800190565b60405180910390a15050949350505050565b6005546000906001600160a01b031633146107be5760405162461bcd60e51b8152600401610166906122d7565b600354600054604051632eb8a88b60e01b81526001600160a01b0392831692632eb8a88b926107f492911690869060040161230e565b6020604051808303816000875af1158015610813573d6000803e3d6000fd5b505050506040513d601f19601f820116820180604052508101906108379190612342565b9050801561084d57600b61084b8382612217565b505b919050565b6005546000906001600160a01b0316331461087f5760405162461bcd60e51b8152600401610166906122d7565b60095460ff16156108de5760405162461bcd60e51b815260206004820152602360248201527f4552523a20526566756e6420636c61696d20616c72656164792070726f6365736044820152621cd95960ea1b6064820152608401610166565b60058054600160a01b900460ff16116109395760405162461bcd60e51b815260206004820152601d60248201527f4552523a205469636b657420616c72656164792043616e63656c6c65640000006044820152606401610166565b600554600319600160a01b90910460ff16016109a75760405162461bcd60e51b815260206004820152602760248201527f4552523a205469636b65742043414e43454c4c4154494f4e20697320696e2070604482015266726f677265737360c81b6064820152608401610166565b600554600160a81b900460ff16600114610a035760405162461bcd60e51b815260206004820152601a60248201527f4552523a20526566756e64206e6f74206170706c696361626c650000000000006044820152606401610166565b600354600a546040516301b2ae0560e01b8152600481019190915242916000918291829182916001600160a01b0316906301b2ae059060240160c060405180830381865afa158015610a59573d6000803e3d6000fd5b505050506040513d601f19601f82011682018060405250810190610a7d919061235d565b95505094505093509350620151808386610a9791906121b5565b1015610af15760405162461bcd60e51b815260206004820152602360248201527f4552523a205469636b6574206e6f7420656c6c696769626c6520666f7220636c60448201526261696d60e81b6064820152608401610166565b6000610aff85858585611a8b565b90506000610b0f82876000611b1b565b905060008160ff1611610b645760405162461bcd60e51b815260206004820152601760248201527f4552523a20436c61696d206973206e6f742076616c69640000000000000000006044820152606401610166565b6000610b7160648361217c565b600d54610b819160ff169061219e565b9050600081600a60030154610b9691906121b5565b600d5490915060009081904790811115610d6557610bb560648761217c565b600d54610bc59160ff169061219e565b600d54909550610bd69086906121b5565b93508415610c9e576005546040516001600160a01b03909116908690600081818185875af1925050503d8060008114610c2b576040519150601f19603f3d011682016040523d82523d6000602084013e610c30565b606091505b50508093505082610c9e5760405162461bcd60e51b815260206004820152603260248201527f4552523a20526566756e642063616c6c206661696c65642e20436f6e746163746044820152711031bab9ba37b6b2b91039bab83837b93a1760711b6064820152608401610166565b8315610d60576004546040516001600160a01b03909116908590600081818185875af1925050503d8060008114610cf1576040519150601f19603f3d011682016040523d82523d6000602084013e610cf6565b606091505b50508092505081610d605760405162461bcd60e51b815260206004820152602e60248201527f4552523a205061796d656e74206661696c65642e20436f6e746163742063757360448201526d3a37b6b2b91039bab83837b93a1760911b6064820152608401610166565b610dde565b60405162461bcd60e51b815260206004820152604260248201527f4552523a20496e73756666696369656e742066756e647320746f20736574746c60448201527f6520636c61696d2e20436f6e7461637420637573746f6d657220737570706f726064820152613a1760f11b608482015260a401610166565b8280610de75750815b610e4f5760405162461bcd60e51b815260206004820152603360248201527f4552523a20526566756e6420636c61696d206661696c65642e20436f6e7461636044820152723a1031bab9ba37b6b2b91039bab83837b93a1760691b6064820152608401610166565b6009805460ff1916600117905560088c90558415801590610e705750600084115b15610e8d576005805460ff60a81b1916600360a81b179055610edf565b600085118015610e9b575083155b15610eb8576005805460ff60a81b1916600160a91b179055610edf565b84158015610ec65750600084115b15610edf576005805460ff60a81b1916600160aa1b1790555b600e859055600f8490556005805460ff60a01b1916600360a01b179055426007819055600855600180546040805191825260208201819052601b908201527f494e464f3a205469636b657420526566756e6420436c61696d656400000000006060820152909d507fcf25cb80c2593591b7debe7d7dbc914be276b5b7bacfae64ad3f306a07ea0f7c9060800160405180910390a150505050505050505050505090565b6005546000906060906001600160a01b03163314610fb25760405162461bcd60e51b8152600401610166906122d7565b6005544290600019600160a01b90910460ff160161109957600354600054604051634da75d4f60e01b81526001600160a01b039182166004820152911690634da75d4f906024016000604051808303816000875af1158015611018573d6000803e3d6000fd5b505050506040513d6000823e601f3d908101601f1916820160405261104091908101906123b0565b6005805460ff60a01b1916905560078390556001546040519295509093507f025e8a2e026a8e044740a13a07990abc9e9ae34a60f00e858f5480f21f646de09161108c9190859061243a565b60405180910390a1611160565b600554600319600160a01b90910460ff16016111025760405162461bcd60e51b815260206004820152602260248201527f4572723a20507265762043414e43454c4c4154494f4e20494e2050524f475245604482015261535360f01b6064820152608401610166565b600554600419600160a01b90910460ff16016111605760405162461bcd60e51b815260206004820152601d60248201527f4572723a205469636b657420616c72656164792043414e43454c4c45440000006044820152606401610166565b60095460ff166114a157600354600a54604051630f51c42d60e01b815260048101919091526000916001600160a01b031690630f51c42d90602401602060405180830381865afa1580156111b8573d6000803e3d6000fd5b505050506040513d601f19601f820116820180604052508101906111dc9190612453565b9050600260ff8216111561124f5760405162461bcd60e51b815260206004820152603460248201527f4552523a205469636b65742063616e6e6f742062652063616e63656c6c65642e60448201527320436865636b20466c696768742073746174757360601b6064820152608401610166565b600082600a6008015411611264576000611272565b6012546112729084906121b5565b9050600061128282846001611b1b565b905060008160ff16116112e65760405162461bcd60e51b815260206004820152602660248201527f4552523a205469636b65742063616e63656c6c6174696f6e2077696e646f772060448201526518db1bdcd95960d21b6064820152608401610166565b6005805460ff60a01b1916600160a21b1790556007849055600d54600090819081908190479081106114335761131d60648761217c565b61132a9060ff168261219e565b945061133685826121b5565b935084156113b3576005546040516001600160a01b03909116908690600081818185875af1925050503d806000811461138b576040519150601f19603f3d011682016040523d82523d6000602084013e611390565b606091505b505080935050826113b35760405162461bcd60e51b815260040161016690612470565b831561142e576004546040516001600160a01b03909116908590600081818185875af1925050503d8060008114611406576040519150601f19603f3d011682016040523d82523d6000602084013e61140b565b606091505b5050809250508161142e5760405162461bcd60e51b815260040161016690612470565b611468565b6040518060600160405280603281526020016125f76032913999508960405162461bcd60e51b815260040161016691906124cd565b82806114715750815b61148d5760405162461bcd60e51b815260040161016690612470565b6114978585611c5d565b5050505050505050505b6005805460ff60a01b1916600560a01b17905560078190556040805180820190915260028152614e4160f01b6020820152600b906114df9082612217565b50600354600054604051630bd90cb960e11b81526001600160a01b0391821660048201529116906317b21972906024016000604051808303816000875af115801561152e573d6000803e3d6000fd5b505050506040513d6000823e601f3d908101601f1916820160405261155691908101906123b0565b9093509150818361157a5760405162461bcd60e51b815260040161016691906124cd565b506001925061158a600154611cf5565b60405160200161159a91906124e0565b60405160208183030381529060405291507f025e8a2e026a8e044740a13a07990abc9e9ae34a60f00e858f5480f21f646de0600154836040516115de92919061243a565b60405180910390a1509091565b6005546000906001600160a01b031633146116185760405162461bcd60e51b8152600401610166906122d7565b50600c54600090348111156116895760405162461bcd60e51b815260206004820152603160248201527f496e73756666696369656e7420416d6f756e742070726f766964656420746f20604482015270636f6d706c65746520707572636861736560781b6064820152608401610166565b6003546000546040516347805f2560e11b81526001600160a01b039182166004820152336024820152911690638f00be4a906044016020604051808303816000875af11580156116dd573d6000803e3d6000fd5b505050506040513d601f19601f820116820180604052508101906117019190612342565b9150816117505760405162461bcd60e51b815260206004820152601b60248201527f4552523a205469636b6574207075726368617365206661696c656400000000006044820152606401610166565b600061175c82346121b5565b9050801561181657604051600090339083908381818185875af1925050503d80600081146117a6576040519150601f19603f3d011682016040523d82523d6000602084013e6117ab565b606091505b50509050806117fc5760405162461bcd60e51b815260206004820152601b60248201527f4552523a205469636b6574207075726368617365206661696c656400000000006044820152606401610166565b506005805461ffff60a01b1916608160a11b179055600192505b600d8290556005805442600781905561ffff60a01b19909116608160a11b17909155600855600a5460015460408051928352602083019190915281018290526060810183905260a060808201819052601c908201527f21205469636b6574205061796d656e7420436f6e6669726d656420210000000060c08201527f2e3adcd6802b3bab575fb11db537da427381ecaf1c001902e87af8957acc32349060e00160405180910390a1505090565b606060001982016118f2575050604080518082019091526008815267149154d15495915160c21b602082015290565b600119820161192057505060408051808201909152600981526810d3d391925493515160ba1b602082015290565b600319820161196257505060408051808201909152601881527f43414e43454c4c4154494f4e2d494e2d50524f47524553530000000000000000602082015290565b600419820161199057505060408051808201909152600981526810d05390d15313115160ba1b602082015290565b50506040805180820190915260078152662aa725a727aba760c91b602082015290565b6060816119dd57505060408051808201909152600781526650454e44494e4760c81b602082015290565b6000198201611a0b57505060408051808201909152600981526810d3d3131150d5115160ba1b602082015290565b6001198201611a38575050604080518082019091526008815267149151955391115160c21b602082015290565b6002198201611a6257505060408051808201909152600581526414d413125560da1b602082015290565b60031982016119905750506040805180820190915260048152631410525160e21b602082015290565b600060051960ff861601611aa3575062015180611b13565b600660ff8616108015611ac1575062015180611abf83866121b5565b115b15611ad0575062015180611b13565b600660ff86161015611b0f578360ff861660051480611af2575060ff86166004145b611afc5742611afe565b835b611b0891906121b5565b9050611b13565b5060005b949350505050565b6000611b526040518060400160405280601381526020017203a34b6b2a130b9b4b9a9b2b1b7b73239901e9606d1b81525085611df7565b611b866040518060400160405280600f81526020016e0333634b3b43a29ba30ba3ab9901e9608d1b8152508460ff16611df7565b611bc56040518060400160405280601781526020017f69735469636b657443616e63656c6c6174696f6e203d2000000000000000000081525083611e40565b60051960ff841601611bd957506064611c56565b620151808410611bf95781611bef576064611bf2565b60645b9050611c56565b618ca08410158015611c0d57506201518084105b15611c265781611c1e576028611bf2565b506050611c56565b611c208410158015611c395750618ca084105b15611c525781611c4a57600a611bf2565b506028611c56565b5060005b9392505050565b4260085560008215801590611c725750600082115b15611c8f576005805460ff60a81b1916600360a81b179055611ce1565b600083118015611c9d575081155b15611cba576005805460ff60a81b1916600160a91b179055611ce1565b82158015611cc85750600082115b15611ce1576005805460ff60a81b1916600160aa1b1790555b50600e829055600f81905560015b92915050565b606081600003611d1c5750506040805180820190915260018152600360fc1b602082015290565b8160005b8115611d465780611d308161252f565b9150611d3f9050600a83612548565b9150611d20565b60008167ffffffffffffffff811115611d6157611d61611ef8565b6040519080825280601f01601f191660200182016040528015611d8b576020820181803683370190505b5090505b8415611b135781611d9f8161255c565b9250611dae9050600a86612573565b611db9906030612587565b60f81b818381518110611dce57611dce61259a565b60200101906001600160f81b031916908160001a905350611df0600a86612548565b9450611d8f565b611e3c8282604051602401611e0d9291906125b0565b60408051601f198184030181529190526020810180516001600160e01b0316632d839cb360e21b179052611e81565b5050565b611e3c8282604051602401611e569291906125d2565b60408051601f198184030181529190526020810180516001600160e01b031663c3b5563560e01b1790525b611e8a81611e8d565b50565b60006a636f6e736f6c652e6c6f679050600080835160208501845afa505050565b60ff81168114611e8a57600080fd5b60008060008060808587031215611ed357600080fd5b8435611ede81611eae565b966020860135965060408601359560600135945092505050565b634e487b7160e01b600052604160045260246000fd5b604051601f8201601f1916810167ffffffffffffffff81118282101715611f3757611f37611ef8565b604052919050565b600067ffffffffffffffff821115611f5957611f59611ef8565b50601f01601f191660200190565b600060208284031215611f7957600080fd5b813567ffffffffffffffff811115611f9057600080fd5b8201601f81018413611fa157600080fd5b8035611fb4611faf82611f3f565b611f0e565b818152856020838501011115611fc957600080fd5b81602084016020830137600091810160200191909152949350505050565b60005b83811015612002578181015183820152602001611fea565b50506000910152565b60008151808452612023816020860160208601611fe7565b601f01601f19169290920160200192915050565b8215158152604060208201526000611b13604083018461200b565b600181811c9082168061206657607f821691505b60208210810361084b57634e487b7160e01b600052602260045260246000fd5b86815260006020878184015260c06040840152600087546120a681612052565b8060c087015260e06001808416600081146120c857600181146120e257612110565b60ff1985168984015283151560051b890183019550612110565b8c6000528660002060005b858110156121085781548b82018601529083019088016120ed565b8a0184019650505b50505050508381036060850152612127818861200b565b915050828103608084015261213c818661200b565b9150508260a0830152979650505050505050565b634e487b7160e01b600052601260045260246000fd5b634e487b7160e01b600052601160045260246000fd5b600060ff83168061218f5761218f612150565b8060ff84160491505092915050565b8082028115828204841417611cef57611cef612166565b81810381811115611cef57611cef612166565b601f82111561221257600081815260208120601f850160051c810160208610156121ef5750805b601f850160051c820191505b8181101561220e578281556001016121fb565b5050505b505050565b815167ffffffffffffffff81111561223157612231611ef8565b6122458161223f8454612052565b846121c8565b602080601f83116001811461227a57600084156122625750858301515b600019600386901b1c1916600185901b17855561220e565b600085815260208120601f198616915b828110156122a95788860151825594840194600190910190840161228a565b50858210156122c75787850151600019600388901b60f8161c191681555b5050505050600190811b01905550565b60208082526019908201527f4f6e6c79205469636b657420427579657220616c6c6f77656400000000000000604082015260600190565b6001600160a01b0383168152604060208201819052600090611b139083018461200b565b8051801515811461084d57600080fd5b60006020828403121561235457600080fd5b611c5682612332565b60008060008060008060c0878903121561237657600080fd5b865161238181611eae565b6020880151604089015160608a015160808b015160a0909b0151939c929b509099909850965090945092505050565b600080604083850312156123c357600080fd5b6123cc83612332565b9150602083015167ffffffffffffffff8111156123e857600080fd5b8301601f810185136123f957600080fd5b8051612407611faf82611f3f565b81815286602083850101111561241c57600080fd5b61242d826020830160208601611fe7565b8093505050509250929050565b828152604060208201526000611b13604083018461200b565b60006020828403121561246557600080fd5b8151611c5681611eae565b6020808252603a908201527f4552523a205469636b65742063616e63656c6c6174696f6e206661696c65642e60408201527f20436f6e7461637420637573746f6d657220737570706f72742e000000000000606082015260800190565b602081526000611c56602083018461200b565b7f494e464f3a205469636b65742043616e63656c6c65642e205469636b657420238152600160fd1b602082015260008251612522816021850160208701611fe7565b9190910160210192915050565b60006001820161254157612541612166565b5060010190565b60008261255757612557612150565b500490565b60008161256b5761256b612166565b506000190190565b60008261258257612582612150565b500690565b80820180821115611cef57611cef612166565b634e487b7160e01b600052603260045260246000fd5b6040815260006125c3604083018561200b565b90508260208301529392505050565b6040815260006125e5604083018561200b565b90508215156020830152939250505056fe4552523a20496e73756666696369656e742066756e64732e20436f6e7461637420637573746f6d657220737570706f72742ea26469706673582212202b579dc428ea046c8173cb84863f8126e11fa42d4efaa4b8568cfea5d0d65dfe64736f6c63430008120033a26469706673582212204b81a0eac47e2e43544e215d8a96dc742f4500adb582ff8d228a373507df1c7064736f6c63430008120033",
			"opcodes": "PUSH1 0x80 PUSH1 0x40 MSTORE CALLVALUE DUP1 ISZERO PUSH2 0x10 JUMPI PUSH1 0x0 DUP1 REVERT JUMPDEST POP PUSH2 0x2F5F DUP1 PUSH2 0x20 PUSH1 0x0 CODECOPY PUSH1 0x0 RETURN INVALID PUSH1 0x80 PUSH1 0x40 MSTORE CALLVALUE DUP1 ISZERO PUSH2 0x10 JUMPI PUSH1 0x0 DUP1 REVERT JUMPDEST POP PUSH1 0x4 CALLDATASIZE LT PUSH2 0x2B JUMPI PUSH1 0x0 CALLDATALOAD PUSH1 0xE0 SHR DUP1 PUSH4 0x18B552BB EQ PUSH2 0x30 JUMPI JUMPDEST PUSH1 0x0 DUP1 REVERT JUMPDEST PUSH2 0x43 PUSH2 0x3E CALLDATASIZE PUSH1 0x4 PUSH2 0xEF JUMP JUMPDEST PUSH2 0x5F JUMP JUMPDEST PUSH1 0x40 MLOAD PUSH1 0x1 PUSH1 0x1 PUSH1 0xA0 SHL SUB SWAP1 SWAP2 AND DUP2 MSTORE PUSH1 0x20 ADD PUSH1 0x40 MLOAD DUP1 SWAP2 SUB SWAP1 RETURN JUMPDEST PUSH1 0x0 DUP9 DUP9 DUP9 DUP9 DUP9 DUP9 DUP9 DUP9 PUSH1 0x40 MLOAD PUSH2 0x75 SWAP1 PUSH2 0xB0 JUMP JUMPDEST PUSH2 0x86 SWAP9 SWAP8 SWAP7 SWAP6 SWAP5 SWAP4 SWAP3 SWAP2 SWAP1 PUSH2 0x1F9 JUMP JUMPDEST PUSH1 0x40 MLOAD DUP1 SWAP2 SUB SWAP1 PUSH1 0x0 CREATE DUP1 ISZERO DUP1 ISZERO PUSH2 0xA2 JUMPI RETURNDATASIZE PUSH1 0x0 DUP1 RETURNDATACOPY RETURNDATASIZE PUSH1 0x0 REVERT JUMPDEST POP SWAP10 SWAP9 POP POP POP POP POP POP POP POP POP JUMP JUMPDEST PUSH2 0x2C99 DUP1 PUSH2 0x291 DUP4 CODECOPY ADD SWAP1 JUMP JUMPDEST DUP1 CALLDATALOAD PUSH1 0x1 PUSH1 0x1 PUSH1 0xA0 SHL SUB DUP2 AND DUP2 EQ PUSH2 0xD4 JUMPI PUSH1 0x0 DUP1 REVERT JUMPDEST SWAP2 SWAP1 POP JUMP JUMPDEST PUSH4 0x4E487B71 PUSH1 0xE0 SHL PUSH1 0x0 MSTORE PUSH1 0x41 PUSH1 0x4 MSTORE PUSH1 0x24 PUSH1 0x0 REVERT JUMPDEST PUSH1 0x0 DUP1 PUSH1 0x0 DUP1 PUSH1 0x0 DUP1 PUSH1 0x0 DUP1 PUSH2 0x100 DUP10 DUP12 SUB SLT ISZERO PUSH2 0x10C JUMPI PUSH1 0x0 DUP1 REVERT JUMPDEST PUSH2 0x115 DUP10 PUSH2 0xBD JUMP JUMPDEST SWAP8 POP PUSH2 0x123 PUSH1 0x20 DUP11 ADD PUSH2 0xBD JUMP JUMPDEST SWAP7 POP PUSH2 0x131 PUSH1 0x40 DUP11 ADD PUSH2 0xBD JUMP JUMPDEST SWAP6 POP PUSH1 0x60 DUP10 ADD CALLDATALOAD SWAP5 POP PUSH1 0x80 DUP10 ADD CALLDATALOAD SWAP4 POP PUSH1 0xA0 DUP10 ADD CALLDATALOAD PUSH8 0xFFFFFFFFFFFFFFFF DUP1 DUP3 GT ISZERO PUSH2 0x15C JUMPI PUSH1 0x0 DUP1 REVERT JUMPDEST DUP2 DUP12 ADD SWAP2 POP DUP12 PUSH1 0x1F DUP4 ADD SLT PUSH2 0x170 JUMPI PUSH1 0x0 DUP1 REVERT JUMPDEST DUP2 CALLDATALOAD DUP2 DUP2 GT ISZERO PUSH2 0x182 JUMPI PUSH2 0x182 PUSH2 0xD9 JUMP JUMPDEST PUSH1 0x40 MLOAD PUSH1 0x1F DUP3 ADD PUSH1 0x1F NOT SWAP1 DUP2 AND PUSH1 0x3F ADD AND DUP2 ADD SWAP1 DUP4 DUP3 GT DUP2 DUP4 LT OR ISZERO PUSH2 0x1AA JUMPI PUSH2 0x1AA PUSH2 0xD9 JUMP JUMPDEST DUP2 PUSH1 0x40 MSTORE DUP3 DUP2 MSTORE DUP15 PUSH1 0x20 DUP5 DUP8 ADD ADD GT ISZERO PUSH2 0x1C3 JUMPI PUSH1 0x0 DUP1 REVERT JUMPDEST DUP3 PUSH1 0x20 DUP7 ADD PUSH1 0x20 DUP4 ADD CALLDATACOPY PUSH1 0x0 PUSH1 0x20 DUP5 DUP4 ADD ADD MSTORE DUP1 SWAP8 POP POP POP POP POP POP PUSH1 0xC0 DUP10 ADD CALLDATALOAD SWAP2 POP PUSH1 0xE0 DUP10 ADD CALLDATALOAD SWAP1 POP SWAP3 SWAP6 SWAP9 POP SWAP3 SWAP6 SWAP9 SWAP1 SWAP4 SWAP7 POP JUMP JUMPDEST PUSH1 0x0 PUSH2 0x100 PUSH1 0x1 DUP1 PUSH1 0xA0 SHL SUB DUP1 DUP13 AND DUP5 MSTORE PUSH1 0x20 DUP2 DUP13 AND DUP2 DUP7 ADD MSTORE DUP2 DUP12 AND PUSH1 0x40 DUP7 ADD MSTORE DUP10 PUSH1 0x60 DUP7 ADD MSTORE DUP9 PUSH1 0x80 DUP7 ADD MSTORE DUP3 PUSH1 0xA0 DUP7 ADD MSTORE DUP8 MLOAD SWAP2 POP DUP2 DUP4 DUP7 ADD MSTORE PUSH1 0x0 SWAP3 POP JUMPDEST DUP2 DUP4 LT ISZERO PUSH2 0x25A JUMPI DUP8 DUP4 ADD DUP2 ADD MLOAD DUP6 DUP5 ADD PUSH2 0x120 ADD MSTORE SWAP2 DUP3 ADD SWAP2 PUSH2 0x23B JUMP JUMPDEST POP PUSH1 0x0 PUSH2 0x120 DUP3 DUP7 ADD DUP2 ADD SWAP2 SWAP1 SWAP2 MSTORE PUSH1 0xC0 DUP6 ADD SWAP7 SWAP1 SWAP7 MSTORE PUSH1 0xE0 DUP5 ADD SWAP5 SWAP1 SWAP5 MSTORE POP POP PUSH1 0x1F SWAP1 SWAP2 ADD PUSH1 0x1F NOT AND ADD ADD SWAP7 SWAP6 POP POP POP POP POP POP JUMP INVALID PUSH1 0x80 PUSH1 0x40 MSTORE CALLVALUE DUP1 ISZERO PUSH3 0x11 JUMPI PUSH1 0x0 DUP1 REVERT JUMPDEST POP PUSH1 0x40 MLOAD PUSH3 0x2C99 CODESIZE SUB DUP1 PUSH3 0x2C99 DUP4 CODECOPY DUP2 ADD PUSH1 0x40 DUP2 SWAP1 MSTORE PUSH3 0x34 SWAP2 PUSH3 0x39C JUMP JUMPDEST PUSH1 0x1 PUSH1 0x1 PUSH1 0xA0 SHL SUB DUP8 AND PUSH3 0x90 JUMPI PUSH1 0x40 MLOAD PUSH3 0x461BCD PUSH1 0xE5 SHL DUP2 MSTORE PUSH1 0x20 PUSH1 0x4 DUP3 ADD MSTORE PUSH1 0x1E PUSH1 0x24 DUP3 ADD MSTORE PUSH32 0x4572726F723A20496E76616C6964204169726C696E6520616464726573730000 PUSH1 0x44 DUP3 ADD MSTORE PUSH1 0x64 ADD JUMPDEST PUSH1 0x40 MLOAD DUP1 SWAP2 SUB SWAP1 REVERT JUMPDEST PUSH1 0x1 PUSH1 0x1 PUSH1 0xA0 SHL SUB DUP7 AND PUSH3 0xE8 JUMPI PUSH1 0x40 MLOAD PUSH3 0x461BCD PUSH1 0xE5 SHL DUP2 MSTORE PUSH1 0x20 PUSH1 0x4 DUP3 ADD DUP2 SWAP1 MSTORE PUSH1 0x24 DUP3 ADD MSTORE PUSH32 0x4572726F723A20496E76616C69646520437573746F6D65722061646472657373 PUSH1 0x44 DUP3 ADD MSTORE PUSH1 0x64 ADD PUSH3 0x87 JUMP JUMPDEST PUSH1 0x0 DUP6 GT PUSH3 0x13A JUMPI PUSH1 0x40 MLOAD PUSH3 0x461BCD PUSH1 0xE5 SHL DUP2 MSTORE PUSH1 0x20 PUSH1 0x4 DUP3 ADD MSTORE PUSH1 0x17 PUSH1 0x24 DUP3 ADD MSTORE PUSH32 0x4572726F723A20496E76616C6964205469636B65742023000000000000000000 PUSH1 0x44 DUP3 ADD MSTORE PUSH1 0x64 ADD PUSH3 0x87 JUMP JUMPDEST PUSH1 0x0 DUP5 GT PUSH3 0x18C JUMPI PUSH1 0x40 MLOAD PUSH3 0x461BCD PUSH1 0xE5 SHL DUP2 MSTORE PUSH1 0x20 PUSH1 0x4 DUP3 ADD MSTORE PUSH1 0x17 PUSH1 0x24 DUP3 ADD MSTORE PUSH32 0x4572726F723A20496E76616C696420466C696768742023000000000000000000 PUSH1 0x44 DUP3 ADD MSTORE PUSH1 0x64 ADD PUSH3 0x87 JUMP JUMPDEST PUSH1 0x0 DUP3 GT PUSH3 0x1DE JUMPI PUSH1 0x40 MLOAD PUSH3 0x461BCD PUSH1 0xE5 SHL DUP2 MSTORE PUSH1 0x20 PUSH1 0x4 DUP3 ADD MSTORE PUSH1 0x1C PUSH1 0x24 DUP3 ADD MSTORE PUSH32 0x4572726F723A20496E76616C6964205469636B657420416D6F756E7400000000 PUSH1 0x44 DUP3 ADD MSTORE PUSH1 0x64 ADD PUSH3 0x87 JUMP JUMPDEST PUSH1 0x0 DUP1 SLOAD ADDRESS PUSH1 0x1 PUSH1 0x1 PUSH1 0xA0 SHL SUB NOT SWAP2 DUP3 AND OR DUP3 SSTORE PUSH1 0x2 DUP1 SLOAD DUP3 AND PUSH1 0x1 PUSH1 0x1 PUSH1 0xA0 SHL SUB DUP13 DUP2 AND SWAP2 DUP3 OR SWAP1 SWAP3 SSTORE PUSH1 0x3 DUP1 SLOAD DUP5 AND SWAP1 SWAP2 OR SWAP1 SSTORE PUSH1 0x4 DUP1 SLOAD SWAP1 SWAP3 AND DUP11 DUP3 AND OR SWAP1 SWAP2 SSTORE PUSH1 0x5 DUP1 SLOAD PUSH1 0x1 DUP10 SWAP1 SSTORE PUSH1 0x1 PUSH1 0xA0 SHL SWAP3 DUP11 AND PUSH1 0x1 PUSH1 0x1 PUSH1 0xA8 SHL SUB NOT SWAP1 SWAP2 AND OR SWAP2 SWAP1 SWAP2 OR PUSH1 0xFF PUSH1 0xA8 SHL NOT AND SWAP1 SSTORE TIMESTAMP PUSH1 0x6 SSTORE PUSH1 0x9 DUP1 SLOAD PUSH1 0xFF NOT AND SWAP1 SSTORE PUSH1 0x40 DUP1 MLOAD PUSH2 0x120 DUP2 ADD DUP3 MSTORE DUP7 DUP2 MSTORE PUSH1 0x20 DUP2 ADD DUP7 SWAP1 MSTORE SWAP1 DUP2 ADD DUP5 SWAP1 MSTORE PUSH1 0x60 DUP2 ADD DUP3 SWAP1 MSTORE PUSH1 0x80 DUP2 ADD DUP3 SWAP1 MSTORE PUSH1 0xA0 DUP2 ADD DUP3 SWAP1 MSTORE PUSH1 0xC0 DUP2 ADD DUP3 SWAP1 MSTORE PUSH1 0xE0 DUP2 ADD SWAP2 SWAP1 SWAP2 MSTORE PUSH2 0x100 DUP2 ADD DUP3 SWAP1 MSTORE PUSH1 0xA DUP6 DUP2 SSTORE PUSH1 0xB PUSH3 0x2B5 DUP7 DUP3 PUSH3 0x55F JUMP JUMPDEST POP PUSH1 0x40 DUP3 DUP2 ADD MLOAD PUSH1 0x2 DUP4 ADD SSTORE PUSH1 0x60 DUP4 ADD MLOAD PUSH1 0x3 DUP4 ADD SSTORE PUSH1 0x80 DUP4 ADD MLOAD PUSH1 0x4 DUP4 ADD SSTORE PUSH1 0xA0 DUP4 ADD MLOAD PUSH1 0x5 DUP4 ADD SSTORE PUSH1 0xC0 DUP4 ADD MLOAD PUSH1 0x6 DUP4 ADD SSTORE PUSH1 0xE0 DUP4 ADD MLOAD PUSH1 0x7 DUP4 ADD SSTORE PUSH2 0x100 SWAP1 SWAP3 ADD MLOAD PUSH1 0x8 SWAP1 SWAP2 ADD SSTORE MLOAD ADDRESS SWAP1 PUSH32 0xD1802B86A0633C4679107D4313BAEACAB2FB7391348CA6485DF3F40844B0B07 SWAP1 PUSH3 0x353 SWAP1 PUSH1 0x20 DUP1 DUP3 MSTORE PUSH1 0xF SWAP1 DUP3 ADD MSTORE PUSH15 0x151A58DAD95D0810DBDB9D1C9858DD PUSH1 0x8A SHL PUSH1 0x40 DUP3 ADD MSTORE PUSH1 0x60 ADD SWAP1 JUMP JUMPDEST PUSH1 0x40 MLOAD DUP1 SWAP2 SUB SWAP1 LOG2 POP POP POP POP POP POP POP POP PUSH3 0x62B JUMP JUMPDEST DUP1 MLOAD PUSH1 0x1 PUSH1 0x1 PUSH1 0xA0 SHL SUB DUP2 AND DUP2 EQ PUSH3 0x381 JUMPI PUSH1 0x0 DUP1 REVERT JUMPDEST SWAP2 SWAP1 POP JUMP JUMPDEST PUSH4 0x4E487B71 PUSH1 0xE0 SHL PUSH1 0x0 MSTORE PUSH1 0x41 PUSH1 0x4 MSTORE PUSH1 0x24 PUSH1 0x0 REVERT JUMPDEST PUSH1 0x0 DUP1 PUSH1 0x0 DUP1 PUSH1 0x0 DUP1 PUSH1 0x0 DUP1 PUSH2 0x100 DUP10 DUP12 SUB SLT ISZERO PUSH3 0x3BA JUMPI PUSH1 0x0 DUP1 REVERT JUMPDEST PUSH3 0x3C5 DUP10 PUSH3 0x369 JUMP JUMPDEST SWAP8 POP PUSH1 0x20 PUSH3 0x3D6 DUP2 DUP12 ADD PUSH3 0x369 JUMP JUMPDEST SWAP8 POP PUSH3 0x3E6 PUSH1 0x40 DUP12 ADD PUSH3 0x369 JUMP JUMPDEST PUSH1 0x60 DUP12 ADD MLOAD PUSH1 0x80 DUP13 ADD MLOAD PUSH1 0xA0 DUP14 ADD MLOAD SWAP3 SWAP10 POP SWAP1 SWAP8 POP SWAP6 POP PUSH1 0x1 PUSH1 0x1 PUSH1 0x40 SHL SUB DUP1 DUP3 GT ISZERO PUSH3 0x413 JUMPI PUSH1 0x0 DUP1 REVERT JUMPDEST DUP2 DUP13 ADD SWAP2 POP DUP13 PUSH1 0x1F DUP4 ADD SLT PUSH3 0x428 JUMPI PUSH1 0x0 DUP1 REVERT JUMPDEST DUP2 MLOAD DUP2 DUP2 GT ISZERO PUSH3 0x43D JUMPI PUSH3 0x43D PUSH3 0x386 JUMP JUMPDEST PUSH1 0x40 MLOAD PUSH1 0x1F DUP3 ADD PUSH1 0x1F NOT SWAP1 DUP2 AND PUSH1 0x3F ADD AND DUP2 ADD SWAP1 DUP4 DUP3 GT DUP2 DUP4 LT OR ISZERO PUSH3 0x468 JUMPI PUSH3 0x468 PUSH3 0x386 JUMP JUMPDEST DUP2 PUSH1 0x40 MSTORE DUP3 DUP2 MSTORE DUP16 DUP7 DUP5 DUP8 ADD ADD GT ISZERO PUSH3 0x481 JUMPI PUSH1 0x0 DUP1 REVERT JUMPDEST PUSH1 0x0 SWAP4 POP JUMPDEST DUP3 DUP5 LT ISZERO PUSH3 0x4A5 JUMPI DUP5 DUP5 ADD DUP7 ADD MLOAD DUP2 DUP6 ADD DUP8 ADD MSTORE SWAP3 DUP6 ADD SWAP3 PUSH3 0x486 JUMP JUMPDEST PUSH1 0x0 SWAP3 DUP2 ADD SWAP1 SWAP6 ADD SWAP2 SWAP1 SWAP2 MSTORE POP POP POP PUSH1 0xC0 DUP11 ADD MLOAD PUSH1 0xE0 SWAP1 SWAP11 ADD MLOAD SWAP9 SWAP12 SWAP8 SWAP11 POP SWAP6 SWAP9 SWAP5 SWAP8 SWAP4 SWAP7 SWAP3 POP POP POP JUMP JUMPDEST PUSH1 0x1 DUP2 DUP2 SHR SWAP1 DUP3 AND DUP1 PUSH3 0x4E5 JUMPI PUSH1 0x7F DUP3 AND SWAP2 POP JUMPDEST PUSH1 0x20 DUP3 LT DUP2 SUB PUSH3 0x506 JUMPI PUSH4 0x4E487B71 PUSH1 0xE0 SHL PUSH1 0x0 MSTORE PUSH1 0x22 PUSH1 0x4 MSTORE PUSH1 0x24 PUSH1 0x0 REVERT JUMPDEST POP SWAP2 SWAP1 POP JUMP JUMPDEST PUSH1 0x1F DUP3 GT ISZERO PUSH3 0x55A JUMPI PUSH1 0x0 DUP2 DUP2 MSTORE PUSH1 0x20 DUP2 KECCAK256 PUSH1 0x1F DUP6 ADD PUSH1 0x5 SHR DUP2 ADD PUSH1 0x20 DUP7 LT ISZERO PUSH3 0x535 JUMPI POP DUP1 JUMPDEST PUSH1 0x1F DUP6 ADD PUSH1 0x5 SHR DUP3 ADD SWAP2 POP JUMPDEST DUP2 DUP2 LT ISZERO PUSH3 0x556 JUMPI DUP3 DUP2 SSTORE PUSH1 0x1 ADD PUSH3 0x541 JUMP JUMPDEST POP POP POP JUMPDEST POP POP POP JUMP JUMPDEST DUP2 MLOAD PUSH1 0x1 PUSH1 0x1 PUSH1 0x40 SHL SUB DUP2 GT ISZERO PUSH3 0x57B JUMPI PUSH3 0x57B PUSH3 0x386 JUMP JUMPDEST PUSH3 0x593 DUP2 PUSH3 0x58C DUP5 SLOAD PUSH3 0x4D0 JUMP JUMPDEST DUP5 PUSH3 0x50C JUMP JUMPDEST PUSH1 0x20 DUP1 PUSH1 0x1F DUP4 GT PUSH1 0x1 DUP2 EQ PUSH3 0x5CB JUMPI PUSH1 0x0 DUP5 ISZERO PUSH3 0x5B2 JUMPI POP DUP6 DUP4 ADD MLOAD JUMPDEST PUSH1 0x0 NOT PUSH1 0x3 DUP7 SWAP1 SHL SHR NOT AND PUSH1 0x1 DUP6 SWAP1 SHL OR DUP6 SSTORE PUSH3 0x556 JUMP JUMPDEST PUSH1 0x0 DUP6 DUP2 MSTORE PUSH1 0x20 DUP2 KECCAK256 PUSH1 0x1F NOT DUP7 AND SWAP2 JUMPDEST DUP3 DUP2 LT ISZERO PUSH3 0x5FC JUMPI DUP9 DUP7 ADD MLOAD DUP3 SSTORE SWAP5 DUP5 ADD SWAP5 PUSH1 0x1 SWAP1 SWAP2 ADD SWAP1 DUP5 ADD PUSH3 0x5DB JUMP JUMPDEST POP DUP6 DUP3 LT ISZERO PUSH3 0x61B JUMPI DUP8 DUP6 ADD MLOAD PUSH1 0x0 NOT PUSH1 0x3 DUP9 SWAP1 SHL PUSH1 0xF8 AND SHR NOT AND DUP2 SSTORE JUMPDEST POP POP POP POP POP PUSH1 0x1 SWAP1 DUP2 SHL ADD SWAP1 SSTORE POP JUMP JUMPDEST PUSH2 0x265E DUP1 PUSH3 0x63B PUSH1 0x0 CODECOPY PUSH1 0x0 RETURN INVALID PUSH1 0x80 PUSH1 0x40 MSTORE PUSH1 0x4 CALLDATASIZE LT PUSH2 0x55 JUMPI PUSH1 0x0 CALLDATALOAD PUSH1 0xE0 SHR DUP1 PUSH4 0x15285527 EQ PUSH2 0x5A JUMPI DUP1 PUSH4 0x28700E6E EQ PUSH2 0x71 JUMPI DUP1 PUSH4 0x801C86F5 EQ PUSH2 0x99 JUMPI DUP1 PUSH4 0xB5545A3C EQ PUSH2 0xB9 JUMPI DUP1 PUSH4 0xCA36385C EQ PUSH2 0xC1 JUMPI DUP1 PUSH4 0xE8FDA677 EQ PUSH2 0xD7 JUMPI JUMPDEST PUSH1 0x0 DUP1 REVERT JUMPDEST CALLVALUE DUP1 ISZERO PUSH2 0x66 JUMPI PUSH1 0x0 DUP1 REVERT JUMPDEST POP PUSH2 0x6F PUSH2 0xDF JUMP JUMPDEST STOP JUMPDEST PUSH2 0x84 PUSH2 0x7F CALLDATASIZE PUSH1 0x4 PUSH2 0x1EBD JUMP JUMPDEST PUSH2 0x1F3 JUMP JUMPDEST PUSH1 0x40 MLOAD SWAP1 ISZERO ISZERO DUP2 MSTORE PUSH1 0x20 ADD JUMPDEST PUSH1 0x40 MLOAD DUP1 SWAP2 SUB SWAP1 RETURN JUMPDEST CALLVALUE DUP1 ISZERO PUSH2 0xA5 JUMPI PUSH1 0x0 DUP1 REVERT JUMPDEST POP PUSH2 0x84 PUSH2 0xB4 CALLDATASIZE PUSH1 0x4 PUSH2 0x1F67 JUMP JUMPDEST PUSH2 0x791 JUMP JUMPDEST PUSH2 0x84 PUSH2 0x852 JUMP JUMPDEST PUSH2 0xC9 PUSH2 0xF82 JUMP JUMPDEST PUSH1 0x40 MLOAD PUSH2 0x90 SWAP3 SWAP2 SWAP1 PUSH2 0x2037 JUMP JUMPDEST PUSH2 0x84 PUSH2 0x15EB JUMP JUMPDEST PUSH1 0x4 SLOAD PUSH1 0x1 PUSH1 0x1 PUSH1 0xA0 SHL SUB AND CALLER EQ DUP1 PUSH2 0x102 JUMPI POP PUSH1 0x5 SLOAD PUSH1 0x1 PUSH1 0x1 PUSH1 0xA0 SHL SUB AND CALLER EQ JUMPDEST PUSH2 0x16F JUMPI PUSH1 0x40 MLOAD PUSH3 0x461BCD PUSH1 0xE5 SHL DUP2 MSTORE PUSH1 0x20 PUSH1 0x4 DUP3 ADD MSTORE PUSH1 0x33 PUSH1 0x24 DUP3 ADD MSTORE PUSH32 0x4F6E6C79204169726C696E6520466C69676874204F70657261746F72202F2054 PUSH1 0x44 DUP3 ADD MSTORE PUSH19 0x1A58DAD95D08109D5E595C88185B1B1BDDD959 PUSH1 0x6A SHL PUSH1 0x64 DUP3 ADD MSTORE PUSH1 0x84 ADD JUMPDEST PUSH1 0x40 MLOAD DUP1 SWAP2 SUB SWAP1 REVERT JUMPDEST PUSH1 0x5 SLOAD PUSH1 0x0 SWAP1 PUSH2 0x188 SWAP1 PUSH1 0x1 PUSH1 0xA0 SHL SWAP1 DIV PUSH1 0xFF AND PUSH2 0x18C3 JUMP JUMPDEST PUSH1 0x5 SLOAD SWAP1 SWAP2 POP PUSH1 0x0 SWAP1 PUSH2 0x1A4 SWAP1 PUSH1 0x1 PUSH1 0xA8 SHL SWAP1 DIV PUSH1 0xFF AND PUSH2 0x19B3 JUMP JUMPDEST PUSH1 0x1 SLOAD PUSH1 0xA SLOAD PUSH1 0xD SLOAD PUSH1 0x40 MLOAD SWAP4 SWAP5 POP PUSH32 0x7F9534BAE335130D7523BED94596C5942B70A305E742E8064AF42F87AE7DAD84 SWAP4 PUSH2 0x1E7 SWAP4 SWAP3 SWAP2 PUSH1 0xB SWAP2 DUP9 SWAP2 DUP9 SWAP2 PUSH2 0x2086 JUMP JUMPDEST PUSH1 0x40 MLOAD DUP1 SWAP2 SUB SWAP1 LOG1 POP POP JUMP JUMPDEST PUSH1 0x2 SLOAD PUSH1 0x0 SWAP1 PUSH1 0x1 PUSH1 0x1 PUSH1 0xA0 SHL SUB AND CALLER EQ PUSH2 0x250 JUMPI PUSH1 0x40 MLOAD PUSH3 0x461BCD PUSH1 0xE5 SHL DUP2 MSTORE PUSH1 0x20 PUSH1 0x4 DUP3 ADD MSTORE PUSH1 0x1D PUSH1 0x24 DUP3 ADD MSTORE PUSH32 0x4F6E6C79204169726C696E6520436F6E747261637420616C6C6F776564000000 PUSH1 0x44 DUP3 ADD MSTORE PUSH1 0x64 ADD PUSH2 0x166 JUMP JUMPDEST PUSH1 0x5 SLOAD TIMESTAMP SWAP1 PUSH1 0x1 PUSH1 0x1 PUSH1 0xA0 SHL SWAP1 SWAP2 DIV PUSH1 0xFF AND LT DUP1 ISZERO SWAP1 PUSH2 0x27E JUMPI POP PUSH1 0x5 SLOAD PUSH1 0x2 PUSH1 0x1 PUSH1 0xA0 SHL SWAP1 SWAP2 DIV PUSH1 0xFF AND GT ISZERO JUMPDEST PUSH2 0x2F0 JUMPI PUSH1 0x40 MLOAD PUSH3 0x461BCD PUSH1 0xE5 SHL DUP2 MSTORE PUSH1 0x20 PUSH1 0x4 DUP3 ADD MSTORE PUSH1 0x3E PUSH1 0x24 DUP3 ADD MSTORE PUSH32 0x4552523A2043616E6E6F7420636C6F73652064756520746F205469636B657420 PUSH1 0x44 DUP3 ADD MSTORE PUSH32 0x7374617475732028564F49442F434C4F5345442F43414E43454C4C4544290000 PUSH1 0x64 DUP3 ADD MSTORE PUSH1 0x84 ADD PUSH2 0x166 JUMP JUMPDEST PUSH1 0xFF DUP7 AND PUSH1 0x5 EQ DUP1 PUSH2 0x305 JUMPI POP PUSH1 0xFF DUP7 AND PUSH1 0x6 EQ JUMPDEST PUSH2 0x351 JUMPI PUSH1 0x40 MLOAD PUSH3 0x461BCD PUSH1 0xE5 SHL DUP2 MSTORE PUSH1 0x20 PUSH1 0x4 DUP3 ADD MSTORE PUSH1 0x1A PUSH1 0x24 DUP3 ADD MSTORE PUSH32 0x4552523A20496E76616C696420466C6967687420737461747573000000000000 PUSH1 0x44 DUP3 ADD MSTORE PUSH1 0x64 ADD PUSH2 0x166 JUMP JUMPDEST PUSH1 0x5 SLOAD PUSH1 0x0 NOT PUSH1 0x1 PUSH1 0xA0 SHL SWAP1 SWAP2 DIV PUSH1 0xFF AND ADD PUSH2 0x3D0 JUMPI PUSH1 0x5 DUP1 SLOAD PUSH1 0xFF PUSH1 0xA0 SHL NOT AND SWAP1 SSTORE PUSH1 0x7 DUP2 SWAP1 SSTORE PUSH1 0x1 SLOAD PUSH1 0x40 DUP1 MLOAD SWAP2 DUP3 MSTORE PUSH1 0x20 DUP3 ADD DUP2 SWAP1 MSTORE PUSH1 0xB DUP3 DUP3 ADD MSTORE PUSH11 0x1593D25108151A58DAD95D PUSH1 0xAA SHL PUSH1 0x60 DUP4 ADD MSTORE MLOAD PUSH32 0xDE76133B24D9FCAE5254A94BFA50B907D61B4EEB12F84FA63DE7378C63E068CA SWAP2 DUP2 SWAP1 SUB PUSH1 0x80 ADD SWAP1 LOG1 JUMPDEST PUSH1 0x9 SLOAD SELFBALANCE SWAP1 PUSH1 0xFF AND ISZERO DUP1 ISZERO PUSH2 0x3F1 JUMPI POP PUSH1 0x5 SLOAD PUSH1 0x1 PUSH1 0xA8 SHL SWAP1 DIV PUSH1 0xFF AND PUSH1 0x1 EQ JUMPDEST DUP1 PUSH2 0x3FC JUMPI POP PUSH1 0x0 DUP2 GT JUMPDEST ISZERO PUSH2 0x6DE JUMPI PUSH1 0x0 PUSH2 0x40F DUP9 DUP9 DUP9 DUP9 PUSH2 0x1A8B JUMP JUMPDEST SWAP1 POP PUSH1 0x0 DUP1 PUSH1 0x0 DUP1 PUSH1 0xA PUSH1 0x3 ADD SLOAD DUP7 GT ISZERO PUSH2 0x5A1 JUMPI PUSH1 0x0 PUSH2 0x432 DUP7 DUP15 PUSH1 0x0 PUSH2 0x1B1B JUMP JUMPDEST SWAP1 POP PUSH2 0x43F PUSH1 0x64 DUP3 PUSH2 0x217C JUMP JUMPDEST PUSH2 0x44C SWAP1 PUSH1 0xFF AND DUP9 PUSH2 0x219E JUMP JUMPDEST SWAP5 POP PUSH2 0x458 DUP6 DUP9 PUSH2 0x21B5 JUMP JUMPDEST SWAP4 POP DUP5 ISZERO PUSH2 0x4FA JUMPI PUSH1 0x5 SLOAD PUSH1 0x40 MLOAD PUSH1 0x1 PUSH1 0x1 PUSH1 0xA0 SHL SUB SWAP1 SWAP2 AND SWAP1 DUP7 SWAP1 PUSH1 0x0 DUP2 DUP2 DUP2 DUP6 DUP8 GAS CALL SWAP3 POP POP POP RETURNDATASIZE DUP1 PUSH1 0x0 DUP2 EQ PUSH2 0x4AD JUMPI PUSH1 0x40 MLOAD SWAP2 POP PUSH1 0x1F NOT PUSH1 0x3F RETURNDATASIZE ADD AND DUP3 ADD PUSH1 0x40 MSTORE RETURNDATASIZE DUP3 MSTORE RETURNDATASIZE PUSH1 0x0 PUSH1 0x20 DUP5 ADD RETURNDATACOPY PUSH2 0x4B2 JUMP JUMPDEST PUSH1 0x60 SWAP2 POP JUMPDEST POP POP DUP1 SWAP4 POP POP DUP3 PUSH2 0x4FA JUMPI PUSH1 0x40 MLOAD PUSH3 0x461BCD PUSH1 0xE5 SHL DUP2 MSTORE PUSH1 0x20 PUSH1 0x4 DUP3 ADD MSTORE PUSH1 0x12 PUSH1 0x24 DUP3 ADD MSTORE PUSH18 0x1154948E881499599D5B990819985A5B1959 PUSH1 0x72 SHL PUSH1 0x44 DUP3 ADD MSTORE PUSH1 0x64 ADD PUSH2 0x166 JUMP JUMPDEST DUP4 ISZERO PUSH2 0x59B JUMPI PUSH1 0x4 SLOAD PUSH1 0x40 MLOAD PUSH1 0x1 PUSH1 0x1 PUSH1 0xA0 SHL SUB SWAP1 SWAP2 AND SWAP1 DUP6 SWAP1 PUSH1 0x0 DUP2 DUP2 DUP2 DUP6 DUP8 GAS CALL SWAP3 POP POP POP RETURNDATASIZE DUP1 PUSH1 0x0 DUP2 EQ PUSH2 0x54D JUMPI PUSH1 0x40 MLOAD SWAP2 POP PUSH1 0x1F NOT PUSH1 0x3F RETURNDATASIZE ADD AND DUP3 ADD PUSH1 0x40 MSTORE RETURNDATASIZE DUP3 MSTORE RETURNDATASIZE PUSH1 0x0 PUSH1 0x20 DUP5 ADD RETURNDATACOPY PUSH2 0x552 JUMP JUMPDEST PUSH1 0x60 SWAP2 POP JUMPDEST POP POP DUP1 SWAP3 POP POP DUP2 PUSH2 0x59B JUMPI PUSH1 0x40 MLOAD PUSH3 0x461BCD PUSH1 0xE5 SHL DUP2 MSTORE PUSH1 0x20 PUSH1 0x4 DUP3 ADD MSTORE PUSH1 0x13 PUSH1 0x24 DUP3 ADD MSTORE PUSH19 0x1154948E8814185E5B595B9D0819985A5B1959 PUSH1 0x6A SHL PUSH1 0x44 DUP3 ADD MSTORE PUSH1 0x64 ADD PUSH2 0x166 JUMP JUMPDEST POP PUSH2 0x5F9 JUMP JUMPDEST PUSH1 0x40 MLOAD PUSH3 0x461BCD PUSH1 0xE5 SHL DUP2 MSTORE PUSH1 0x20 PUSH1 0x4 DUP3 ADD MSTORE PUSH1 0x27 PUSH1 0x24 DUP3 ADD MSTORE PUSH32 0x4552523A20496E73756666696369656E742066756E647320746F20636C6F7365 PUSH1 0x44 DUP3 ADD MSTORE PUSH7 0x81D1A58DAD95D PUSH1 0xCA SHL PUSH1 0x64 DUP3 ADD MSTORE PUSH1 0x84 ADD PUSH2 0x166 JUMP JUMPDEST DUP2 DUP1 PUSH2 0x602 JUMPI POP DUP1 JUMPDEST PUSH2 0x64E JUMPI PUSH1 0x40 MLOAD PUSH3 0x461BCD PUSH1 0xE5 SHL DUP2 MSTORE PUSH1 0x20 PUSH1 0x4 DUP3 ADD MSTORE PUSH1 0x18 PUSH1 0x24 DUP3 ADD MSTORE PUSH32 0x4552523A20436C6F7365205469636B6574206661696C65640000000000000000 PUSH1 0x44 DUP3 ADD MSTORE PUSH1 0x64 ADD PUSH2 0x166 JUMP JUMPDEST PUSH1 0x8 DUP8 SWAP1 SSTORE DUP4 ISZERO DUP1 ISZERO SWAP1 PUSH2 0x662 JUMPI POP PUSH1 0x0 DUP4 GT JUMPDEST ISZERO PUSH2 0x67F JUMPI PUSH1 0x5 DUP1 SLOAD PUSH1 0xFF PUSH1 0xA8 SHL NOT AND PUSH1 0x3 PUSH1 0xA8 SHL OR SWAP1 SSTORE PUSH2 0x6D1 JUMP JUMPDEST PUSH1 0x0 DUP5 GT DUP1 ISZERO PUSH2 0x68D JUMPI POP DUP3 ISZERO JUMPDEST ISZERO PUSH2 0x6AA JUMPI PUSH1 0x5 DUP1 SLOAD PUSH1 0xFF PUSH1 0xA8 SHL NOT AND PUSH1 0x1 PUSH1 0xA9 SHL OR SWAP1 SSTORE PUSH2 0x6D1 JUMP JUMPDEST DUP4 ISZERO DUP1 ISZERO PUSH2 0x6B8 JUMPI POP PUSH1 0x0 DUP4 GT JUMPDEST ISZERO PUSH2 0x6D1 JUMPI PUSH1 0x5 DUP1 SLOAD PUSH1 0xFF PUSH1 0xA8 SHL NOT AND PUSH1 0x1 PUSH1 0xAA SHL OR SWAP1 SSTORE JUMPDEST POP POP PUSH1 0xE SWAP2 SWAP1 SWAP2 SSTORE PUSH1 0xF SSTORE POP JUMPDEST PUSH1 0x5 DUP1 SLOAD PUSH1 0xFF PUSH1 0xA0 SHL NOT AND PUSH1 0x3 PUSH1 0xA0 SHL OR SWAP1 SSTORE PUSH1 0x7 DUP3 SWAP1 SSTORE PUSH1 0x40 DUP1 MLOAD DUP1 DUP3 ADD SWAP1 SWAP2 MSTORE PUSH1 0x2 DUP2 MSTORE PUSH2 0x4E41 PUSH1 0xF0 SHL PUSH1 0x20 DUP3 ADD MSTORE PUSH1 0xB SWAP1 PUSH2 0x71C SWAP1 DUP3 PUSH2 0x2217 JUMP JUMPDEST POP PUSH1 0x1 SWAP3 POP PUSH32 0xDE76133B24D9FCAE5254A94BFA50B907D61B4EEB12F84FA63DE7378C63E068CA PUSH1 0x1 SLOAD PUSH1 0x40 MLOAD PUSH2 0x77F SWAP2 DUP2 MSTORE PUSH1 0x40 PUSH1 0x20 DUP3 ADD DUP2 SWAP1 MSTORE PUSH1 0x13 SWAP1 DUP3 ADD MSTORE PUSH19 0x12539193CE88151A58DAD95D0810DB1BDCD959 PUSH1 0x6A SHL PUSH1 0x60 DUP3 ADD MSTORE PUSH1 0x80 ADD SWAP1 JUMP JUMPDEST PUSH1 0x40 MLOAD DUP1 SWAP2 SUB SWAP1 LOG1 POP POP SWAP5 SWAP4 POP POP POP POP JUMP JUMPDEST PUSH1 0x5 SLOAD PUSH1 0x0 SWAP1 PUSH1 0x1 PUSH1 0x1 PUSH1 0xA0 SHL SUB AND CALLER EQ PUSH2 0x7BE JUMPI PUSH1 0x40 MLOAD PUSH3 0x461BCD PUSH1 0xE5 SHL DUP2 MSTORE PUSH1 0x4 ADD PUSH2 0x166 SWAP1 PUSH2 0x22D7 JUMP JUMPDEST PUSH1 0x3 SLOAD PUSH1 0x0 SLOAD PUSH1 0x40 MLOAD PUSH4 0x2EB8A88B PUSH1 0xE0 SHL DUP2 MSTORE PUSH1 0x1 PUSH1 0x1 PUSH1 0xA0 SHL SUB SWAP3 DUP4 AND SWAP3 PUSH4 0x2EB8A88B SWAP3 PUSH2 0x7F4 SWAP3 SWAP2 AND SWAP1 DUP7 SWAP1 PUSH1 0x4 ADD PUSH2 0x230E JUMP JUMPDEST PUSH1 0x20 PUSH1 0x40 MLOAD DUP1 DUP4 SUB DUP2 PUSH1 0x0 DUP8 GAS CALL ISZERO DUP1 ISZERO PUSH2 0x813 JUMPI RETURNDATASIZE PUSH1 0x0 DUP1 RETURNDATACOPY RETURNDATASIZE PUSH1 0x0 REVERT JUMPDEST POP POP POP POP PUSH1 0x40 MLOAD RETURNDATASIZE PUSH1 0x1F NOT PUSH1 0x1F DUP3 ADD AND DUP3 ADD DUP1 PUSH1 0x40 MSTORE POP DUP2 ADD SWAP1 PUSH2 0x837 SWAP2 SWAP1 PUSH2 0x2342 JUMP JUMPDEST SWAP1 POP DUP1 ISZERO PUSH2 0x84D JUMPI PUSH1 0xB PUSH2 0x84B DUP4 DUP3 PUSH2 0x2217 JUMP JUMPDEST POP JUMPDEST SWAP2 SWAP1 POP JUMP JUMPDEST PUSH1 0x5 SLOAD PUSH1 0x0 SWAP1 PUSH1 0x1 PUSH1 0x1 PUSH1 0xA0 SHL SUB AND CALLER EQ PUSH2 0x87F JUMPI PUSH1 0x40 MLOAD PUSH3 0x461BCD PUSH1 0xE5 SHL DUP2 MSTORE PUSH1 0x4 ADD PUSH2 0x166 SWAP1 PUSH2 0x22D7 JUMP JUMPDEST PUSH1 0x9 SLOAD PUSH1 0xFF AND ISZERO PUSH2 0x8DE JUMPI PUSH1 0x40 MLOAD PUSH3 0x461BCD PUSH1 0xE5 SHL DUP2 MSTORE PUSH1 0x20 PUSH1 0x4 DUP3 ADD MSTORE PUSH1 0x23 PUSH1 0x24 DUP3 ADD MSTORE PUSH32 0x4552523A20526566756E6420636C61696D20616C72656164792070726F636573 PUSH1 0x44 DUP3 ADD MSTORE PUSH3 0x1CD959 PUSH1 0xEA SHL PUSH1 0x64 DUP3 ADD MSTORE PUSH1 0x84 ADD PUSH2 0x166 JUMP JUMPDEST PUSH1 0x5 DUP1 SLOAD PUSH1 0x1 PUSH1 0xA0 SHL SWAP1 DIV PUSH1 0xFF AND GT PUSH2 0x939 JUMPI PUSH1 0x40 MLOAD PUSH3 0x461BCD PUSH1 0xE5 SHL DUP2 MSTORE PUSH1 0x20 PUSH1 0x4 DUP3 ADD MSTORE PUSH1 0x1D PUSH1 0x24 DUP3 ADD MSTORE PUSH32 0x4552523A205469636B657420616C72656164792043616E63656C6C6564000000 PUSH1 0x44 DUP3 ADD MSTORE PUSH1 0x64 ADD PUSH2 0x166 JUMP JUMPDEST PUSH1 0x5 SLOAD PUSH1 0x3 NOT PUSH1 0x1 PUSH1 0xA0 SHL SWAP1 SWAP2 DIV PUSH1 0xFF AND ADD PUSH2 0x9A7 JUMPI PUSH1 0x40 MLOAD PUSH3 0x461BCD PUSH1 0xE5 SHL DUP2 MSTORE PUSH1 0x20 PUSH1 0x4 DUP3 ADD MSTORE PUSH1 0x27 PUSH1 0x24 DUP3 ADD MSTORE PUSH32 0x4552523A205469636B65742043414E43454C4C4154494F4E20697320696E2070 PUSH1 0x44 DUP3 ADD MSTORE PUSH7 0x726F6772657373 PUSH1 0xC8 SHL PUSH1 0x64 DUP3 ADD MSTORE PUSH1 0x84 ADD PUSH2 0x166 JUMP JUMPDEST PUSH1 0x5 SLOAD PUSH1 0x1 PUSH1 0xA8 SHL SWAP1 DIV PUSH1 0xFF AND PUSH1 0x1 EQ PUSH2 0xA03 JUMPI PUSH1 0x40 MLOAD PUSH3 0x461BCD PUSH1 0xE5 SHL DUP2 MSTORE PUSH1 0x20 PUSH1 0x4 DUP3 ADD MSTORE PUSH1 0x1A PUSH1 0x24 DUP3 ADD MSTORE PUSH32 0x4552523A20526566756E64206E6F74206170706C696361626C65000000000000 PUSH1 0x44 DUP3 ADD MSTORE PUSH1 0x64 ADD PUSH2 0x166 JUMP JUMPDEST PUSH1 0x3 SLOAD PUSH1 0xA SLOAD PUSH1 0x40 MLOAD PUSH4 0x1B2AE05 PUSH1 0xE0 SHL DUP2 MSTORE PUSH1 0x4 DUP2 ADD SWAP2 SWAP1 SWAP2 MSTORE TIMESTAMP SWAP2 PUSH1 0x0 SWAP2 DUP3 SWAP2 DUP3 SWAP2 DUP3 SWAP2 PUSH1 0x1 PUSH1 0x1 PUSH1 0xA0 SHL SUB AND SWAP1 PUSH4 0x1B2AE05 SWAP1 PUSH1 0x24 ADD PUSH1 0xC0 PUSH1 0x40 MLOAD DUP1 DUP4 SUB DUP2 DUP7 GAS STATICCALL ISZERO DUP1 ISZERO PUSH2 0xA59 JUMPI RETURNDATASIZE PUSH1 0x0 DUP1 RETURNDATACOPY RETURNDATASIZE PUSH1 0x0 REVERT JUMPDEST POP POP POP POP PUSH1 0x40 MLOAD RETURNDATASIZE PUSH1 0x1F NOT PUSH1 0x1F DUP3 ADD AND DUP3 ADD DUP1 PUSH1 0x40 MSTORE POP DUP2 ADD SWAP1 PUSH2 0xA7D SWAP2 SWAP1 PUSH2 0x235D JUMP JUMPDEST SWAP6 POP POP SWAP5 POP POP SWAP4 POP SWAP4 POP PUSH3 0x15180 DUP4 DUP7 PUSH2 0xA97 SWAP2 SWAP1 PUSH2 0x21B5 JUMP JUMPDEST LT ISZERO PUSH2 0xAF1 JUMPI PUSH1 0x40 MLOAD PUSH3 0x461BCD PUSH1 0xE5 SHL DUP2 MSTORE PUSH1 0x20 PUSH1 0x4 DUP3 ADD MSTORE PUSH1 0x23 PUSH1 0x24 DUP3 ADD MSTORE PUSH32 0x4552523A205469636B6574206E6F7420656C6C696769626C6520666F7220636C PUSH1 0x44 DUP3 ADD MSTORE PUSH3 0x61696D PUSH1 0xE8 SHL PUSH1 0x64 DUP3 ADD MSTORE PUSH1 0x84 ADD PUSH2 0x166 JUMP JUMPDEST PUSH1 0x0 PUSH2 0xAFF DUP6 DUP6 DUP6 DUP6 PUSH2 0x1A8B JUMP JUMPDEST SWAP1 POP PUSH1 0x0 PUSH2 0xB0F DUP3 DUP8 PUSH1 0x0 PUSH2 0x1B1B JUMP JUMPDEST SWAP1 POP PUSH1 0x0 DUP2 PUSH1 0xFF AND GT PUSH2 0xB64 JUMPI PUSH1 0x40 MLOAD PUSH3 0x461BCD PUSH1 0xE5 SHL DUP2 MSTORE PUSH1 0x20 PUSH1 0x4 DUP3 ADD MSTORE PUSH1 0x17 PUSH1 0x24 DUP3 ADD MSTORE PUSH32 0x4552523A20436C61696D206973206E6F742076616C6964000000000000000000 PUSH1 0x44 DUP3 ADD MSTORE PUSH1 0x64 ADD PUSH2 0x166 JUMP JUMPDEST PUSH1 0x0 PUSH2 0xB71 PUSH1 0x64 DUP4 PUSH2 0x217C JUMP JUMPDEST PUSH1 0xD SLOAD PUSH2 0xB81 SWAP2 PUSH1 0xFF AND SWAP1 PUSH2 0x219E JUMP JUMPDEST SWAP1 POP PUSH1 0x0 DUP2 PUSH1 0xA PUSH1 0x3 ADD SLOAD PUSH2 0xB96 SWAP2 SWAP1 PUSH2 0x21B5 JUMP JUMPDEST PUSH1 0xD SLOAD SWAP1 SWAP2 POP PUSH1 0x0 SWAP1 DUP2 SWAP1 SELFBALANCE SWAP1 DUP2 GT ISZERO PUSH2 0xD65 JUMPI PUSH2 0xBB5 PUSH1 0x64 DUP8 PUSH2 0x217C JUMP JUMPDEST PUSH1 0xD SLOAD PUSH2 0xBC5 SWAP2 PUSH1 0xFF AND SWAP1 PUSH2 0x219E JUMP JUMPDEST PUSH1 0xD SLOAD SWAP1 SWAP6 POP PUSH2 0xBD6 SWAP1 DUP7 SWAP1 PUSH2 0x21B5 JUMP JUMPDEST SWAP4 POP DUP5 ISZERO PUSH2 0xC9E JUMPI PUSH1 0x5 SLOAD PUSH1 0x40 MLOAD PUSH1 0x1 PUSH1 0x1 PUSH1 0xA0 SHL SUB SWAP1 SWAP2 AND SWAP1 DUP7 SWAP1 PUSH1 0x0 DUP2 DUP2 DUP2 DUP6 DUP8 GAS CALL SWAP3 POP POP POP RETURNDATASIZE DUP1 PUSH1 0x0 DUP2 EQ PUSH2 0xC2B JUMPI PUSH1 0x40 MLOAD SWAP2 POP PUSH1 0x1F NOT PUSH1 0x3F RETURNDATASIZE ADD AND DUP3 ADD PUSH1 0x40 MSTORE RETURNDATASIZE DUP3 MSTORE RETURNDATASIZE PUSH1 0x0 PUSH1 0x20 DUP5 ADD RETURNDATACOPY PUSH2 0xC30 JUMP JUMPDEST PUSH1 0x60 SWAP2 POP JUMPDEST POP POP DUP1 SWAP4 POP POP DUP3 PUSH2 0xC9E JUMPI PUSH1 0x40 MLOAD PUSH3 0x461BCD PUSH1 0xE5 SHL DUP2 MSTORE PUSH1 0x20 PUSH1 0x4 DUP3 ADD MSTORE PUSH1 0x32 PUSH1 0x24 DUP3 ADD MSTORE PUSH32 0x4552523A20526566756E642063616C6C206661696C65642E20436F6E74616374 PUSH1 0x44 DUP3 ADD MSTORE PUSH18 0x1031BAB9BA37B6B2B91039BAB83837B93A17 PUSH1 0x71 SHL PUSH1 0x64 DUP3 ADD MSTORE PUSH1 0x84 ADD PUSH2 0x166 JUMP JUMPDEST DUP4 ISZERO PUSH2 0xD60 JUMPI PUSH1 0x4 SLOAD PUSH1 0x40 MLOAD PUSH1 0x1 PUSH1 0x1 PUSH1 0xA0 SHL SUB SWAP1 SWAP2 AND SWAP1 DUP6 SWAP1 PUSH1 0x0 DUP2 DUP2 DUP2 DUP6 DUP8 GAS CALL SWAP3 POP POP POP RETURNDATASIZE DUP1 PUSH1 0x0 DUP2 EQ PUSH2 0xCF1 JUMPI PUSH1 0x40 MLOAD SWAP2 POP PUSH1 0x1F NOT PUSH1 0x3F RETURNDATASIZE ADD AND DUP3 ADD PUSH1 0x40 MSTORE RETURNDATASIZE DUP3 MSTORE RETURNDATASIZE PUSH1 0x0 PUSH1 0x20 DUP5 ADD RETURNDATACOPY PUSH2 0xCF6 JUMP JUMPDEST PUSH1 0x60 SWAP2 POP JUMPDEST POP POP DUP1 SWAP3 POP POP DUP2 PUSH2 0xD60 JUMPI PUSH1 0x40 MLOAD PUSH3 0x461BCD PUSH1 0xE5 SHL DUP2 MSTORE PUSH1 0x20 PUSH1 0x4 DUP3 ADD MSTORE PUSH1 0x2E PUSH1 0x24 DUP3 ADD MSTORE PUSH32 0x4552523A205061796D656E74206661696C65642E20436F6E7461637420637573 PUSH1 0x44 DUP3 ADD MSTORE PUSH14 0x3A37B6B2B91039BAB83837B93A17 PUSH1 0x91 SHL PUSH1 0x64 DUP3 ADD MSTORE PUSH1 0x84 ADD PUSH2 0x166 JUMP JUMPDEST PUSH2 0xDDE JUMP JUMPDEST PUSH1 0x40 MLOAD PUSH3 0x461BCD PUSH1 0xE5 SHL DUP2 MSTORE PUSH1 0x20 PUSH1 0x4 DUP3 ADD MSTORE PUSH1 0x42 PUSH1 0x24 DUP3 ADD MSTORE PUSH32 0x4552523A20496E73756666696369656E742066756E647320746F20736574746C PUSH1 0x44 DUP3 ADD MSTORE PUSH32 0x6520636C61696D2E20436F6E7461637420637573746F6D657220737570706F72 PUSH1 0x64 DUP3 ADD MSTORE PUSH2 0x3A17 PUSH1 0xF1 SHL PUSH1 0x84 DUP3 ADD MSTORE PUSH1 0xA4 ADD PUSH2 0x166 JUMP JUMPDEST DUP3 DUP1 PUSH2 0xDE7 JUMPI POP DUP2 JUMPDEST PUSH2 0xE4F JUMPI PUSH1 0x40 MLOAD PUSH3 0x461BCD PUSH1 0xE5 SHL DUP2 MSTORE PUSH1 0x20 PUSH1 0x4 DUP3 ADD MSTORE PUSH1 0x33 PUSH1 0x24 DUP3 ADD MSTORE PUSH32 0x4552523A20526566756E6420636C61696D206661696C65642E20436F6E746163 PUSH1 0x44 DUP3 ADD MSTORE PUSH19 0x3A1031BAB9BA37B6B2B91039BAB83837B93A17 PUSH1 0x69 SHL PUSH1 0x64 DUP3 ADD MSTORE PUSH1 0x84 ADD PUSH2 0x166 JUMP JUMPDEST PUSH1 0x9 DUP1 SLOAD PUSH1 0xFF NOT AND PUSH1 0x1 OR SWAP1 SSTORE PUSH1 0x8 DUP13 SWAP1 SSTORE DUP5 ISZERO DUP1 ISZERO SWAP1 PUSH2 0xE70 JUMPI POP PUSH1 0x0 DUP5 GT JUMPDEST ISZERO PUSH2 0xE8D JUMPI PUSH1 0x5 DUP1 SLOAD PUSH1 0xFF PUSH1 0xA8 SHL NOT AND PUSH1 0x3 PUSH1 0xA8 SHL OR SWAP1 SSTORE PUSH2 0xEDF JUMP JUMPDEST PUSH1 0x0 DUP6 GT DUP1 ISZERO PUSH2 0xE9B JUMPI POP DUP4 ISZERO JUMPDEST ISZERO PUSH2 0xEB8 JUMPI PUSH1 0x5 DUP1 SLOAD PUSH1 0xFF PUSH1 0xA8 SHL NOT AND PUSH1 0x1 PUSH1 0xA9 SHL OR SWAP1 SSTORE PUSH2 0xEDF JUMP JUMPDEST DUP5 ISZERO DUP1 ISZERO PUSH2 0xEC6 JUMPI POP PUSH1 0x0 DUP5 GT JUMPDEST ISZERO PUSH2 0xEDF JUMPI PUSH1 0x5 DUP1 SLOAD PUSH1 0xFF PUSH1 0xA8 SHL NOT AND PUSH1 0x1 PUSH1 0xAA SHL OR SWAP1 SSTORE JUMPDEST PUSH1 0xE DUP6 SWAP1 SSTORE PUSH1 0xF DUP5 SWAP1 SSTORE PUSH1 0x5 DUP1 SLOAD PUSH1 0xFF PUSH1 0xA0 SHL NOT AND PUSH1 0x3 PUSH1 0xA0 SHL OR SWAP1 SSTORE TIMESTAMP PUSH1 0x7 DUP2 SWAP1 SSTORE PUSH1 0x8 SSTORE PUSH1 0x1 DUP1 SLOAD PUSH1 0x40 DUP1 MLOAD SWAP2 DUP3 MSTORE PUSH1 0x20 DUP3 ADD DUP2 SWAP1 MSTORE PUSH1 0x1B SWAP1 DUP3 ADD MSTORE PUSH32 0x494E464F3A205469636B657420526566756E6420436C61696D65640000000000 PUSH1 0x60 DUP3 ADD MSTORE SWAP1 SWAP14 POP PUSH32 0xCF25CB80C2593591B7DEBE7D7DBC914BE276B5B7BACFAE64AD3F306A07EA0F7C SWAP1 PUSH1 0x80 ADD PUSH1 0x40 MLOAD DUP1 SWAP2 SUB SWAP1 LOG1 POP POP POP POP POP POP POP POP POP POP POP POP SWAP1 JUMP JUMPDEST PUSH1 0x5 SLOAD PUSH1 0x0 SWAP1 PUSH1 0x60 SWAP1 PUSH1 0x1 PUSH1 0x1 PUSH1 0xA0 SHL SUB AND CALLER EQ PUSH2 0xFB2 JUMPI PUSH1 0x40 MLOAD PUSH3 0x461BCD PUSH1 0xE5 SHL DUP2 MSTORE PUSH1 0x4 ADD PUSH2 0x166 SWAP1 PUSH2 0x22D7 JUMP JUMPDEST PUSH1 0x5 SLOAD TIMESTAMP SWAP1 PUSH1 0x0 NOT PUSH1 0x1 PUSH1 0xA0 SHL SWAP1 SWAP2 DIV PUSH1 0xFF AND ADD PUSH2 0x1099 JUMPI PUSH1 0x3 SLOAD PUSH1 0x0 SLOAD PUSH1 0x40 MLOAD PUSH4 0x4DA75D4F PUSH1 0xE0 SHL DUP2 MSTORE PUSH1 0x1 PUSH1 0x1 PUSH1 0xA0 SHL SUB SWAP2 DUP3 AND PUSH1 0x4 DUP3 ADD MSTORE SWAP2 AND SWAP1 PUSH4 0x4DA75D4F SWAP1 PUSH1 0x24 ADD PUSH1 0x0 PUSH1 0x40 MLOAD DUP1 DUP4 SUB DUP2 PUSH1 0x0 DUP8 GAS CALL ISZERO DUP1 ISZERO PUSH2 0x1018 JUMPI RETURNDATASIZE PUSH1 0x0 DUP1 RETURNDATACOPY RETURNDATASIZE PUSH1 0x0 REVERT JUMPDEST POP POP POP POP PUSH1 0x40 MLOAD RETURNDATASIZE PUSH1 0x0 DUP3 RETURNDATACOPY PUSH1 0x1F RETURNDATASIZE SWAP1 DUP2 ADD PUSH1 0x1F NOT AND DUP3 ADD PUSH1 0x40 MSTORE PUSH2 0x1040 SWAP2 SWAP1 DUP2 ADD SWAP1 PUSH2 0x23B0 JUMP JUMPDEST PUSH1 0x5 DUP1 SLOAD PUSH1 0xFF PUSH1 0xA0 SHL NOT AND SWAP1 SSTORE PUSH1 0x7 DUP4 SWAP1 SSTORE PUSH1 0x1 SLOAD PUSH1 0x40 MLOAD SWAP3 SWAP6 POP SWAP1 SWAP4 POP PUSH32 0x25E8A2E026A8E044740A13A07990ABC9E9AE34A60F00E858F5480F21F646DE0 SWAP2 PUSH2 0x108C SWAP2 SWAP1 DUP6 SWAP1 PUSH2 0x243A JUMP JUMPDEST PUSH1 0x40 MLOAD DUP1 SWAP2 SUB SWAP1 LOG1 PUSH2 0x1160 JUMP JUMPDEST PUSH1 0x5 SLOAD PUSH1 0x3 NOT PUSH1 0x1 PUSH1 0xA0 SHL SWAP1 SWAP2 DIV PUSH1 0xFF AND ADD PUSH2 0x1102 JUMPI PUSH1 0x40 MLOAD PUSH3 0x461BCD PUSH1 0xE5 SHL DUP2 MSTORE PUSH1 0x20 PUSH1 0x4 DUP3 ADD MSTORE PUSH1 0x22 PUSH1 0x24 DUP3 ADD MSTORE PUSH32 0x4572723A20507265762043414E43454C4C4154494F4E20494E2050524F475245 PUSH1 0x44 DUP3 ADD MSTORE PUSH2 0x5353 PUSH1 0xF0 SHL PUSH1 0x64 DUP3 ADD MSTORE PUSH1 0x84 ADD PUSH2 0x166 JUMP JUMPDEST PUSH1 0x5 SLOAD PUSH1 0x4 NOT PUSH1 0x1 PUSH1 0xA0 SHL SWAP1 SWAP2 DIV PUSH1 0xFF AND ADD PUSH2 0x1160 JUMPI PUSH1 0x40 MLOAD PUSH3 0x461BCD PUSH1 0xE5 SHL DUP2 MSTORE PUSH1 0x20 PUSH1 0x4 DUP3 ADD MSTORE PUSH1 0x1D PUSH1 0x24 DUP3 ADD MSTORE PUSH32 0x4572723A205469636B657420616C72656164792043414E43454C4C4544000000 PUSH1 0x44 DUP3 ADD MSTORE PUSH1 0x64 ADD PUSH2 0x166 JUMP JUMPDEST PUSH1 0x9 SLOAD PUSH1 0xFF AND PUSH2 0x14A1 JUMPI PUSH1 0x3 SLOAD PUSH1 0xA SLOAD PUSH1 0x40 MLOAD PUSH4 0xF51C42D PUSH1 0xE0 SHL DUP2 MSTORE PUSH1 0x4 DUP2 ADD SWAP2 SWAP1 SWAP2 MSTORE PUSH1 0x0 SWAP2 PUSH1 0x1 PUSH1 0x1 PUSH1 0xA0 SHL SUB AND SWAP1 PUSH4 0xF51C42D SWAP1 PUSH1 0x24 ADD PUSH1 0x20 PUSH1 0x40 MLOAD DUP1 DUP4 SUB DUP2 DUP7 GAS STATICCALL ISZERO DUP1 ISZERO PUSH2 0x11B8 JUMPI RETURNDATASIZE PUSH1 0x0 DUP1 RETURNDATACOPY RETURNDATASIZE PUSH1 0x0 REVERT JUMPDEST POP POP POP POP PUSH1 0x40 MLOAD RETURNDATASIZE PUSH1 0x1F NOT PUSH1 0x1F DUP3 ADD AND DUP3 ADD DUP1 PUSH1 0x40 MSTORE POP DUP2 ADD SWAP1 PUSH2 0x11DC SWAP2 SWAP1 PUSH2 0x2453 JUMP JUMPDEST SWAP1 POP PUSH1 0x2 PUSH1 0xFF DUP3 AND GT ISZERO PUSH2 0x124F JUMPI PUSH1 0x40 MLOAD PUSH3 0x461BCD PUSH1 0xE5 SHL DUP2 MSTORE PUSH1 0x20 PUSH1 0x4 DUP3 ADD MSTORE PUSH1 0x34 PUSH1 0x24 DUP3 ADD MSTORE PUSH32 0x4552523A205469636B65742063616E6E6F742062652063616E63656C6C65642E PUSH1 0x44 DUP3 ADD MSTORE PUSH20 0x20436865636B20466C6967687420737461747573 PUSH1 0x60 SHL PUSH1 0x64 DUP3 ADD MSTORE PUSH1 0x84 ADD PUSH2 0x166 JUMP JUMPDEST PUSH1 0x0 DUP3 PUSH1 0xA PUSH1 0x8 ADD SLOAD GT PUSH2 0x1264 JUMPI PUSH1 0x0 PUSH2 0x1272 JUMP JUMPDEST PUSH1 0x12 SLOAD PUSH2 0x1272 SWAP1 DUP5 SWAP1 PUSH2 0x21B5 JUMP JUMPDEST SWAP1 POP PUSH1 0x0 PUSH2 0x1282 DUP3 DUP5 PUSH1 0x1 PUSH2 0x1B1B JUMP JUMPDEST SWAP1 POP PUSH1 0x0 DUP2 PUSH1 0xFF AND GT PUSH2 0x12E6 JUMPI PUSH1 0x40 MLOAD PUSH3 0x461BCD PUSH1 0xE5 SHL DUP2 MSTORE PUSH1 0x20 PUSH1 0x4 DUP3 ADD MSTORE PUSH1 0x26 PUSH1 0x24 DUP3 ADD MSTORE PUSH32 0x4552523A205469636B65742063616E63656C6C6174696F6E2077696E646F7720 PUSH1 0x44 DUP3 ADD MSTORE PUSH6 0x18DB1BDCD959 PUSH1 0xD2 SHL PUSH1 0x64 DUP3 ADD MSTORE PUSH1 0x84 ADD PUSH2 0x166 JUMP JUMPDEST PUSH1 0x5 DUP1 SLOAD PUSH1 0xFF PUSH1 0xA0 SHL NOT AND PUSH1 0x1 PUSH1 0xA2 SHL OR SWAP1 SSTORE PUSH1 0x7 DUP5 SWAP1 SSTORE PUSH1 0xD SLOAD PUSH1 0x0 SWAP1 DUP2 SWAP1 DUP2 SWAP1 DUP2 SWAP1 SELFBALANCE SWAP1 DUP2 LT PUSH2 0x1433 JUMPI PUSH2 0x131D PUSH1 0x64 DUP8 PUSH2 0x217C JUMP JUMPDEST PUSH2 0x132A SWAP1 PUSH1 0xFF AND DUP3 PUSH2 0x219E JUMP JUMPDEST SWAP5 POP PUSH2 0x1336 DUP6 DUP3 PUSH2 0x21B5 JUMP JUMPDEST SWAP4 POP DUP5 ISZERO PUSH2 0x13B3 JUMPI PUSH1 0x5 SLOAD PUSH1 0x40 MLOAD PUSH1 0x1 PUSH1 0x1 PUSH1 0xA0 SHL SUB SWAP1 SWAP2 AND SWAP1 DUP7 SWAP1 PUSH1 0x0 DUP2 DUP2 DUP2 DUP6 DUP8 GAS CALL SWAP3 POP POP POP RETURNDATASIZE DUP1 PUSH1 0x0 DUP2 EQ PUSH2 0x138B JUMPI PUSH1 0x40 MLOAD SWAP2 POP PUSH1 0x1F NOT PUSH1 0x3F RETURNDATASIZE ADD AND DUP3 ADD PUSH1 0x40 MSTORE RETURNDATASIZE DUP3 MSTORE RETURNDATASIZE PUSH1 0x0 PUSH1 0x20 DUP5 ADD RETURNDATACOPY PUSH2 0x1390 JUMP JUMPDEST PUSH1 0x60 SWAP2 POP JUMPDEST POP POP DUP1 SWAP4 POP POP DUP3 PUSH2 0x13B3 JUMPI PUSH1 0x40 MLOAD PUSH3 0x461BCD PUSH1 0xE5 SHL DUP2 MSTORE PUSH1 0x4 ADD PUSH2 0x166 SWAP1 PUSH2 0x2470 JUMP JUMPDEST DUP4 ISZERO PUSH2 0x142E JUMPI PUSH1 0x4 SLOAD PUSH1 0x40 MLOAD PUSH1 0x1 PUSH1 0x1 PUSH1 0xA0 SHL SUB SWAP1 SWAP2 AND SWAP1 DUP6 SWAP1 PUSH1 0x0 DUP2 DUP2 DUP2 DUP6 DUP8 GAS CALL SWAP3 POP POP POP RETURNDATASIZE DUP1 PUSH1 0x0 DUP2 EQ PUSH2 0x1406 JUMPI PUSH1 0x40 MLOAD SWAP2 POP PUSH1 0x1F NOT PUSH1 0x3F RETURNDATASIZE ADD AND DUP3 ADD PUSH1 0x40 MSTORE RETURNDATASIZE DUP3 MSTORE RETURNDATASIZE PUSH1 0x0 PUSH1 0x20 DUP5 ADD RETURNDATACOPY PUSH2 0x140B JUMP JUMPDEST PUSH1 0x60 SWAP2 POP JUMPDEST POP POP DUP1 SWAP3 POP POP DUP2 PUSH2 0x142E JUMPI PUSH1 0x40 MLOAD PUSH3 0x461BCD PUSH1 0xE5 SHL DUP2 MSTORE PUSH1 0x4 ADD PUSH2 0x166 SWAP1 PUSH2 0x2470 JUMP JUMPDEST PUSH2 0x1468 JUMP JUMPDEST PUSH1 0x40 MLOAD DUP1 PUSH1 0x60 ADD PUSH1 0x40 MSTORE DUP1 PUSH1 0x32 DUP2 MSTORE PUSH1 0x20 ADD PUSH2 0x25F7 PUSH1 0x32 SWAP2 CODECOPY SWAP10 POP DUP10 PUSH1 0x40 MLOAD PUSH3 0x461BCD PUSH1 0xE5 SHL DUP2 MSTORE PUSH1 0x4 ADD PUSH2 0x166 SWAP2 SWAP1 PUSH2 0x24CD JUMP JUMPDEST DUP3 DUP1 PUSH2 0x1471 JUMPI POP DUP2 JUMPDEST PUSH2 0x148D JUMPI PUSH1 0x40 MLOAD PUSH3 0x461BCD PUSH1 0xE5 SHL DUP2 MSTORE PUSH1 0x4 ADD PUSH2 0x166 SWAP1 PUSH2 0x2470 JUMP JUMPDEST PUSH2 0x1497 DUP6 DUP6 PUSH2 0x1C5D JUMP JUMPDEST POP POP POP POP POP POP POP POP POP JUMPDEST PUSH1 0x5 DUP1 SLOAD PUSH1 0xFF PUSH1 0xA0 SHL NOT AND PUSH1 0x5 PUSH1 0xA0 SHL OR SWAP1 SSTORE PUSH1 0x7 DUP2 SWAP1 SSTORE PUSH1 0x40 DUP1 MLOAD DUP1 DUP3 ADD SWAP1 SWAP2 MSTORE PUSH1 0x2 DUP2 MSTORE PUSH2 0x4E41 PUSH1 0xF0 SHL PUSH1 0x20 DUP3 ADD MSTORE PUSH1 0xB SWAP1 PUSH2 0x14DF SWAP1 DUP3 PUSH2 0x2217 JUMP JUMPDEST POP PUSH1 0x3 SLOAD PUSH1 0x0 SLOAD PUSH1 0x40 MLOAD PUSH4 0xBD90CB9 PUSH1 0xE1 SHL DUP2 MSTORE PUSH1 0x1 PUSH1 0x1 PUSH1 0xA0 SHL SUB SWAP2 DUP3 AND PUSH1 0x4 DUP3 ADD MSTORE SWAP2 AND SWAP1 PUSH4 0x17B21972 SWAP1 PUSH1 0x24 ADD PUSH1 0x0 PUSH1 0x40 MLOAD DUP1 DUP4 SUB DUP2 PUSH1 0x0 DUP8 GAS CALL ISZERO DUP1 ISZERO PUSH2 0x152E JUMPI RETURNDATASIZE PUSH1 0x0 DUP1 RETURNDATACOPY RETURNDATASIZE PUSH1 0x0 REVERT JUMPDEST POP POP POP POP PUSH1 0x40 MLOAD RETURNDATASIZE PUSH1 0x0 DUP3 RETURNDATACOPY PUSH1 0x1F RETURNDATASIZE SWAP1 DUP2 ADD PUSH1 0x1F NOT AND DUP3 ADD PUSH1 0x40 MSTORE PUSH2 0x1556 SWAP2 SWAP1 DUP2 ADD SWAP1 PUSH2 0x23B0 JUMP JUMPDEST SWAP1 SWAP4 POP SWAP2 POP DUP2 DUP4 PUSH2 0x157A JUMPI PUSH1 0x40 MLOAD PUSH3 0x461BCD PUSH1 0xE5 SHL DUP2 MSTORE PUSH1 0x4 ADD PUSH2 0x166 SWAP2 SWAP1 PUSH2 0x24CD JUMP JUMPDEST POP PUSH1 0x1 SWAP3 POP PUSH2 0x158A PUSH1 0x1 SLOAD PUSH2 0x1CF5 JUMP JUMPDEST PUSH1 0x40 MLOAD PUSH1 0x20 ADD PUSH2 0x159A SWAP2 SWAP1 PUSH2 0x24E0 JUMP JUMPDEST PUSH1 0x40 MLOAD PUSH1 0x20 DUP2 DUP4 SUB SUB DUP2 MSTORE SWAP1 PUSH1 0x40 MSTORE SWAP2 POP PUSH32 0x25E8A2E026A8E044740A13A07990ABC9E9AE34A60F00E858F5480F21F646DE0 PUSH1 0x1 SLOAD DUP4 PUSH1 0x40 MLOAD PUSH2 0x15DE SWAP3 SWAP2 SWAP1 PUSH2 0x243A JUMP JUMPDEST PUSH1 0x40 MLOAD DUP1 SWAP2 SUB SWAP1 LOG1 POP SWAP1 SWAP2 JUMP JUMPDEST PUSH1 0x5 SLOAD PUSH1 0x0 SWAP1 PUSH1 0x1 PUSH1 0x1 PUSH1 0xA0 SHL SUB AND CALLER EQ PUSH2 0x1618 JUMPI PUSH1 0x40 MLOAD PUSH3 0x461BCD PUSH1 0xE5 SHL DUP2 MSTORE PUSH1 0x4 ADD PUSH2 0x166 SWAP1 PUSH2 0x22D7 JUMP JUMPDEST POP PUSH1 0xC SLOAD PUSH1 0x0 SWAP1 CALLVALUE DUP2 GT ISZERO PUSH2 0x1689 JUMPI PUSH1 0x40 MLOAD PUSH3 0x461BCD PUSH1 0xE5 SHL DUP2 MSTORE PUSH1 0x20 PUSH1 0x4 DUP3 ADD MSTORE PUSH1 0x31 PUSH1 0x24 DUP3 ADD MSTORE PUSH32 0x496E73756666696369656E7420416D6F756E742070726F766964656420746F20 PUSH1 0x44 DUP3 ADD MSTORE PUSH17 0x636F6D706C657465207075726368617365 PUSH1 0x78 SHL PUSH1 0x64 DUP3 ADD MSTORE PUSH1 0x84 ADD PUSH2 0x166 JUMP JUMPDEST PUSH1 0x3 SLOAD PUSH1 0x0 SLOAD PUSH1 0x40 MLOAD PUSH4 0x47805F25 PUSH1 0xE1 SHL DUP2 MSTORE PUSH1 0x1 PUSH1 0x1 PUSH1 0xA0 SHL SUB SWAP2 DUP3 AND PUSH1 0x4 DUP3 ADD MSTORE CALLER PUSH1 0x24 DUP3 ADD MSTORE SWAP2 AND SWAP1 PUSH4 0x8F00BE4A SWAP1 PUSH1 0x44 ADD PUSH1 0x20 PUSH1 0x40 MLOAD DUP1 DUP4 SUB DUP2 PUSH1 0x0 DUP8 GAS CALL ISZERO DUP1 ISZERO PUSH2 0x16DD JUMPI RETURNDATASIZE PUSH1 0x0 DUP1 RETURNDATACOPY RETURNDATASIZE PUSH1 0x0 REVERT JUMPDEST POP POP POP POP PUSH1 0x40 MLOAD RETURNDATASIZE PUSH1 0x1F NOT PUSH1 0x1F DUP3 ADD AND DUP3 ADD DUP1 PUSH1 0x40 MSTORE POP DUP2 ADD SWAP1 PUSH2 0x1701 SWAP2 SWAP1 PUSH2 0x2342 JUMP JUMPDEST SWAP2 POP DUP2 PUSH2 0x1750 JUMPI PUSH1 0x40 MLOAD PUSH3 0x461BCD PUSH1 0xE5 SHL DUP2 MSTORE PUSH1 0x20 PUSH1 0x4 DUP3 ADD MSTORE PUSH1 0x1B PUSH1 0x24 DUP3 ADD MSTORE PUSH32 0x4552523A205469636B6574207075726368617365206661696C65640000000000 PUSH1 0x44 DUP3 ADD MSTORE PUSH1 0x64 ADD PUSH2 0x166 JUMP JUMPDEST PUSH1 0x0 PUSH2 0x175C DUP3 CALLVALUE PUSH2 0x21B5 JUMP JUMPDEST SWAP1 POP DUP1 ISZERO PUSH2 0x1816 JUMPI PUSH1 0x40 MLOAD PUSH1 0x0 SWAP1 CALLER SWAP1 DUP4 SWAP1 DUP4 DUP2 DUP2 DUP2 DUP6 DUP8 GAS CALL SWAP3 POP POP POP RETURNDATASIZE DUP1 PUSH1 0x0 DUP2 EQ PUSH2 0x17A6 JUMPI PUSH1 0x40 MLOAD SWAP2 POP PUSH1 0x1F NOT PUSH1 0x3F RETURNDATASIZE ADD AND DUP3 ADD PUSH1 0x40 MSTORE RETURNDATASIZE DUP3 MSTORE RETURNDATASIZE PUSH1 0x0 PUSH1 0x20 DUP5 ADD RETURNDATACOPY PUSH2 0x17AB JUMP JUMPDEST PUSH1 0x60 SWAP2 POP JUMPDEST POP POP SWAP1 POP DUP1 PUSH2 0x17FC JUMPI PUSH1 0x40 MLOAD PUSH3 0x461BCD PUSH1 0xE5 SHL DUP2 MSTORE PUSH1 0x20 PUSH1 0x4 DUP3 ADD MSTORE PUSH1 0x1B PUSH1 0x24 DUP3 ADD MSTORE PUSH32 0x4552523A205469636B6574207075726368617365206661696C65640000000000 PUSH1 0x44 DUP3 ADD MSTORE PUSH1 0x64 ADD PUSH2 0x166 JUMP JUMPDEST POP PUSH1 0x5 DUP1 SLOAD PUSH2 0xFFFF PUSH1 0xA0 SHL NOT AND PUSH1 0x81 PUSH1 0xA1 SHL OR SWAP1 SSTORE PUSH1 0x1 SWAP3 POP JUMPDEST PUSH1 0xD DUP3 SWAP1 SSTORE PUSH1 0x5 DUP1 SLOAD TIMESTAMP PUSH1 0x7 DUP2 SWAP1 SSTORE PUSH2 0xFFFF PUSH1 0xA0 SHL NOT SWAP1 SWAP2 AND PUSH1 0x81 PUSH1 0xA1 SHL OR SWAP1 SWAP2 SSTORE PUSH1 0x8 SSTORE PUSH1 0xA SLOAD PUSH1 0x1 SLOAD PUSH1 0x40 DUP1 MLOAD SWAP3 DUP4 MSTORE PUSH1 0x20 DUP4 ADD SWAP2 SWAP1 SWAP2 MSTORE DUP2 ADD DUP3 SWAP1 MSTORE PUSH1 0x60 DUP2 ADD DUP4 SWAP1 MSTORE PUSH1 0xA0 PUSH1 0x80 DUP3 ADD DUP2 SWAP1 MSTORE PUSH1 0x1C SWAP1 DUP3 ADD MSTORE PUSH32 0x21205469636B6574205061796D656E7420436F6E6669726D6564202100000000 PUSH1 0xC0 DUP3 ADD MSTORE PUSH32 0x2E3ADCD6802B3BAB575FB11DB537DA427381ECAF1C001902E87AF8957ACC3234 SWAP1 PUSH1 0xE0 ADD PUSH1 0x40 MLOAD DUP1 SWAP2 SUB SWAP1 LOG1 POP POP SWAP1 JUMP JUMPDEST PUSH1 0x60 PUSH1 0x0 NOT DUP3 ADD PUSH2 0x18F2 JUMPI POP POP PUSH1 0x40 DUP1 MLOAD DUP1 DUP3 ADD SWAP1 SWAP2 MSTORE PUSH1 0x8 DUP2 MSTORE PUSH8 0x149154D154959151 PUSH1 0xC2 SHL PUSH1 0x20 DUP3 ADD MSTORE SWAP1 JUMP JUMPDEST PUSH1 0x1 NOT DUP3 ADD PUSH2 0x1920 JUMPI POP POP PUSH1 0x40 DUP1 MLOAD DUP1 DUP3 ADD SWAP1 SWAP2 MSTORE PUSH1 0x9 DUP2 MSTORE PUSH9 0x10D3D3919254935151 PUSH1 0xBA SHL PUSH1 0x20 DUP3 ADD MSTORE SWAP1 JUMP JUMPDEST PUSH1 0x3 NOT DUP3 ADD PUSH2 0x1962 JUMPI POP POP PUSH1 0x40 DUP1 MLOAD DUP1 DUP3 ADD SWAP1 SWAP2 MSTORE PUSH1 0x18 DUP2 MSTORE PUSH32 0x43414E43454C4C4154494F4E2D494E2D50524F47524553530000000000000000 PUSH1 0x20 DUP3 ADD MSTORE SWAP1 JUMP JUMPDEST PUSH1 0x4 NOT DUP3 ADD PUSH2 0x1990 JUMPI POP POP PUSH1 0x40 DUP1 MLOAD DUP1 DUP3 ADD SWAP1 SWAP2 MSTORE PUSH1 0x9 DUP2 MSTORE PUSH9 0x10D05390D153131151 PUSH1 0xBA SHL PUSH1 0x20 DUP3 ADD MSTORE SWAP1 JUMP JUMPDEST POP POP PUSH1 0x40 DUP1 MLOAD DUP1 DUP3 ADD SWAP1 SWAP2 MSTORE PUSH1 0x7 DUP2 MSTORE PUSH7 0x2AA725A727ABA7 PUSH1 0xC9 SHL PUSH1 0x20 DUP3 ADD MSTORE SWAP1 JUMP JUMPDEST PUSH1 0x60 DUP2 PUSH2 0x19DD JUMPI POP POP PUSH1 0x40 DUP1 MLOAD DUP1 DUP3 ADD SWAP1 SWAP2 MSTORE PUSH1 0x7 DUP2 MSTORE PUSH7 0x50454E44494E47 PUSH1 0xC8 SHL PUSH1 0x20 DUP3 ADD MSTORE SWAP1 JUMP JUMPDEST PUSH1 0x0 NOT DUP3 ADD PUSH2 0x1A0B JUMPI POP POP PUSH1 0x40 DUP1 MLOAD DUP1 DUP3 ADD SWAP1 SWAP2 MSTORE PUSH1 0x9 DUP2 MSTORE PUSH9 0x10D3D3131150D51151 PUSH1 0xBA SHL PUSH1 0x20 DUP3 ADD MSTORE SWAP1 JUMP JUMPDEST PUSH1 0x1 NOT DUP3 ADD PUSH2 0x1A38 JUMPI POP POP PUSH1 0x40 DUP1 MLOAD DUP1 DUP3 ADD SWAP1 SWAP2 MSTORE PUSH1 0x8 DUP2 MSTORE PUSH8 0x1491519553911151 PUSH1 0xC2 SHL PUSH1 0x20 DUP3 ADD MSTORE SWAP1 JUMP JUMPDEST PUSH1 0x2 NOT DUP3 ADD PUSH2 0x1A62 JUMPI POP POP PUSH1 0x40 DUP1 MLOAD DUP1 DUP3 ADD SWAP1 SWAP2 MSTORE PUSH1 0x5 DUP2 MSTORE PUSH5 0x14D4131255 PUSH1 0xDA SHL PUSH1 0x20 DUP3 ADD MSTORE SWAP1 JUMP JUMPDEST PUSH1 0x3 NOT DUP3 ADD PUSH2 0x1990 JUMPI POP POP PUSH1 0x40 DUP1 MLOAD DUP1 DUP3 ADD SWAP1 SWAP2 MSTORE PUSH1 0x4 DUP2 MSTORE PUSH4 0x14105251 PUSH1 0xE2 SHL PUSH1 0x20 DUP3 ADD MSTORE SWAP1 JUMP JUMPDEST PUSH1 0x0 PUSH1 0x5 NOT PUSH1 0xFF DUP7 AND ADD PUSH2 0x1AA3 JUMPI POP PUSH3 0x15180 PUSH2 0x1B13 JUMP JUMPDEST PUSH1 0x6 PUSH1 0xFF DUP7 AND LT DUP1 ISZERO PUSH2 0x1AC1 JUMPI POP PUSH3 0x15180 PUSH2 0x1ABF DUP4 DUP7 PUSH2 0x21B5 JUMP JUMPDEST GT JUMPDEST ISZERO PUSH2 0x1AD0 JUMPI POP PUSH3 0x15180 PUSH2 0x1B13 JUMP JUMPDEST PUSH1 0x6 PUSH1 0xFF DUP7 AND LT ISZERO PUSH2 0x1B0F JUMPI DUP4 PUSH1 0xFF DUP7 AND PUSH1 0x5 EQ DUP1 PUSH2 0x1AF2 JUMPI POP PUSH1 0xFF DUP7 AND PUSH1 0x4 EQ JUMPDEST PUSH2 0x1AFC JUMPI TIMESTAMP PUSH2 0x1AFE JUMP JUMPDEST DUP4 JUMPDEST PUSH2 0x1B08 SWAP2 SWAP1 PUSH2 0x21B5 JUMP JUMPDEST SWAP1 POP PUSH2 0x1B13 JUMP JUMPDEST POP PUSH1 0x0 JUMPDEST SWAP5 SWAP4 POP POP POP POP JUMP JUMPDEST PUSH1 0x0 PUSH2 0x1B52 PUSH1 0x40 MLOAD DUP1 PUSH1 0x40 ADD PUSH1 0x40 MSTORE DUP1 PUSH1 0x13 DUP2 MSTORE PUSH1 0x20 ADD PUSH19 0x3A34B6B2A130B9B4B9A9B2B1B7B73239901E9 PUSH1 0x6D SHL DUP2 MSTORE POP DUP6 PUSH2 0x1DF7 JUMP JUMPDEST PUSH2 0x1B86 PUSH1 0x40 MLOAD DUP1 PUSH1 0x40 ADD PUSH1 0x40 MSTORE DUP1 PUSH1 0xF DUP2 MSTORE PUSH1 0x20 ADD PUSH15 0x333634B3B43A29BA30BA3AB9901E9 PUSH1 0x8D SHL DUP2 MSTORE POP DUP5 PUSH1 0xFF AND PUSH2 0x1DF7 JUMP JUMPDEST PUSH2 0x1BC5 PUSH1 0x40 MLOAD DUP1 PUSH1 0x40 ADD PUSH1 0x40 MSTORE DUP1 PUSH1 0x17 DUP2 MSTORE PUSH1 0x20 ADD PUSH32 0x69735469636B657443616E63656C6C6174696F6E203D20000000000000000000 DUP2 MSTORE POP DUP4 PUSH2 0x1E40 JUMP JUMPDEST PUSH1 0x5 NOT PUSH1 0xFF DUP5 AND ADD PUSH2 0x1BD9 JUMPI POP PUSH1 0x64 PUSH2 0x1C56 JUMP JUMPDEST PUSH3 0x15180 DUP5 LT PUSH2 0x1BF9 JUMPI DUP2 PUSH2 0x1BEF JUMPI PUSH1 0x64 PUSH2 0x1BF2 JUMP JUMPDEST PUSH1 0x64 JUMPDEST SWAP1 POP PUSH2 0x1C56 JUMP JUMPDEST PUSH2 0x8CA0 DUP5 LT ISZERO DUP1 ISZERO PUSH2 0x1C0D JUMPI POP PUSH3 0x15180 DUP5 LT JUMPDEST ISZERO PUSH2 0x1C26 JUMPI DUP2 PUSH2 0x1C1E JUMPI PUSH1 0x28 PUSH2 0x1BF2 JUMP JUMPDEST POP PUSH1 0x50 PUSH2 0x1C56 JUMP JUMPDEST PUSH2 0x1C20 DUP5 LT ISZERO DUP1 ISZERO PUSH2 0x1C39 JUMPI POP PUSH2 0x8CA0 DUP5 LT JUMPDEST ISZERO PUSH2 0x1C52 JUMPI DUP2 PUSH2 0x1C4A JUMPI PUSH1 0xA PUSH2 0x1BF2 JUMP JUMPDEST POP PUSH1 0x28 PUSH2 0x1C56 JUMP JUMPDEST POP PUSH1 0x0 JUMPDEST SWAP4 SWAP3 POP POP POP JUMP JUMPDEST TIMESTAMP PUSH1 0x8 SSTORE PUSH1 0x0 DUP3 ISZERO DUP1 ISZERO SWAP1 PUSH2 0x1C72 JUMPI POP PUSH1 0x0 DUP3 GT JUMPDEST ISZERO PUSH2 0x1C8F JUMPI PUSH1 0x5 DUP1 SLOAD PUSH1 0xFF PUSH1 0xA8 SHL NOT AND PUSH1 0x3 PUSH1 0xA8 SHL OR SWAP1 SSTORE PUSH2 0x1CE1 JUMP JUMPDEST PUSH1 0x0 DUP4 GT DUP1 ISZERO PUSH2 0x1C9D JUMPI POP DUP2 ISZERO JUMPDEST ISZERO PUSH2 0x1CBA JUMPI PUSH1 0x5 DUP1 SLOAD PUSH1 0xFF PUSH1 0xA8 SHL NOT AND PUSH1 0x1 PUSH1 0xA9 SHL OR SWAP1 SSTORE PUSH2 0x1CE1 JUMP JUMPDEST DUP3 ISZERO DUP1 ISZERO PUSH2 0x1CC8 JUMPI POP PUSH1 0x0 DUP3 GT JUMPDEST ISZERO PUSH2 0x1CE1 JUMPI PUSH1 0x5 DUP1 SLOAD PUSH1 0xFF PUSH1 0xA8 SHL NOT AND PUSH1 0x1 PUSH1 0xAA SHL OR SWAP1 SSTORE JUMPDEST POP PUSH1 0xE DUP3 SWAP1 SSTORE PUSH1 0xF DUP2 SWAP1 SSTORE PUSH1 0x1 JUMPDEST SWAP3 SWAP2 POP POP JUMP JUMPDEST PUSH1 0x60 DUP2 PUSH1 0x0 SUB PUSH2 0x1D1C JUMPI POP POP PUSH1 0x40 DUP1 MLOAD DUP1 DUP3 ADD SWAP1 SWAP2 MSTORE PUSH1 0x1 DUP2 MSTORE PUSH1 0x3 PUSH1 0xFC SHL PUSH1 0x20 DUP3 ADD MSTORE SWAP1 JUMP JUMPDEST DUP2 PUSH1 0x0 JUMPDEST DUP2 ISZERO PUSH2 0x1D46 JUMPI DUP1 PUSH2 0x1D30 DUP2 PUSH2 0x252F JUMP JUMPDEST SWAP2 POP PUSH2 0x1D3F SWAP1 POP PUSH1 0xA DUP4 PUSH2 0x2548 JUMP JUMPDEST SWAP2 POP PUSH2 0x1D20 JUMP JUMPDEST PUSH1 0x0 DUP2 PUSH8 0xFFFFFFFFFFFFFFFF DUP2 GT ISZERO PUSH2 0x1D61 JUMPI PUSH2 0x1D61 PUSH2 0x1EF8 JUMP JUMPDEST PUSH1 0x40 MLOAD SWAP1 DUP1 DUP3 MSTORE DUP1 PUSH1 0x1F ADD PUSH1 0x1F NOT AND PUSH1 0x20 ADD DUP3 ADD PUSH1 0x40 MSTORE DUP1 ISZERO PUSH2 0x1D8B JUMPI PUSH1 0x20 DUP3 ADD DUP2 DUP1 CALLDATASIZE DUP4 CALLDATACOPY ADD SWAP1 POP JUMPDEST POP SWAP1 POP JUMPDEST DUP5 ISZERO PUSH2 0x1B13 JUMPI DUP2 PUSH2 0x1D9F DUP2 PUSH2 0x255C JUMP JUMPDEST SWAP3 POP PUSH2 0x1DAE SWAP1 POP PUSH1 0xA DUP7 PUSH2 0x2573 JUMP JUMPDEST PUSH2 0x1DB9 SWAP1 PUSH1 0x30 PUSH2 0x2587 JUMP JUMPDEST PUSH1 0xF8 SHL DUP2 DUP4 DUP2 MLOAD DUP2 LT PUSH2 0x1DCE JUMPI PUSH2 0x1DCE PUSH2 0x259A JUMP JUMPDEST PUSH1 0x20 ADD ADD SWAP1 PUSH1 0x1 PUSH1 0x1 PUSH1 0xF8 SHL SUB NOT AND SWAP1 DUP2 PUSH1 0x0 BYTE SWAP1 MSTORE8 POP PUSH2 0x1DF0 PUSH1 0xA DUP7 PUSH2 0x2548 JUMP JUMPDEST SWAP5 POP PUSH2 0x1D8F JUMP JUMPDEST PUSH2 0x1E3C DUP3 DUP3 PUSH1 0x40 MLOAD PUSH1 0x24 ADD PUSH2 0x1E0D SWAP3 SWAP2 SWAP1 PUSH2 0x25B0 JUMP JUMPDEST PUSH1 0x40 DUP1 MLOAD PUSH1 0x1F NOT DUP2 DUP5 SUB ADD DUP2 MSTORE SWAP2 SWAP1 MSTORE PUSH1 0x20 DUP2 ADD DUP1 MLOAD PUSH1 0x1 PUSH1 0x1 PUSH1 0xE0 SHL SUB AND PUSH4 0x2D839CB3 PUSH1 0xE2 SHL OR SWAP1 MSTORE PUSH2 0x1E81 JUMP JUMPDEST POP POP JUMP JUMPDEST PUSH2 0x1E3C DUP3 DUP3 PUSH1 0x40 MLOAD PUSH1 0x24 ADD PUSH2 0x1E56 SWAP3 SWAP2 SWAP1 PUSH2 0x25D2 JUMP JUMPDEST PUSH1 0x40 DUP1 MLOAD PUSH1 0x1F NOT DUP2 DUP5 SUB ADD DUP2 MSTORE SWAP2 SWAP1 MSTORE PUSH1 0x20 DUP2 ADD DUP1 MLOAD PUSH1 0x1 PUSH1 0x1 PUSH1 0xE0 SHL SUB AND PUSH4 0xC3B55635 PUSH1 0xE0 SHL OR SWAP1 MSTORE JUMPDEST PUSH2 0x1E8A DUP2 PUSH2 0x1E8D JUMP JUMPDEST POP JUMP JUMPDEST PUSH1 0x0 PUSH11 0x636F6E736F6C652E6C6F67 SWAP1 POP PUSH1 0x0 DUP1 DUP4 MLOAD PUSH1 0x20 DUP6 ADD DUP5 GAS STATICCALL POP POP POP JUMP JUMPDEST PUSH1 0xFF DUP2 AND DUP2 EQ PUSH2 0x1E8A JUMPI PUSH1 0x0 DUP1 REVERT JUMPDEST PUSH1 0x0 DUP1 PUSH1 0x0 DUP1 PUSH1 0x80 DUP6 DUP8 SUB SLT ISZERO PUSH2 0x1ED3 JUMPI PUSH1 0x0 DUP1 REVERT JUMPDEST DUP5 CALLDATALOAD PUSH2 0x1EDE DUP2 PUSH2 0x1EAE JUMP JUMPDEST SWAP7 PUSH1 0x20 DUP7 ADD CALLDATALOAD SWAP7 POP PUSH1 0x40 DUP7 ADD CALLDATALOAD SWAP6 PUSH1 0x60 ADD CALLDATALOAD SWAP5 POP SWAP3 POP POP POP JUMP JUMPDEST PUSH4 0x4E487B71 PUSH1 0xE0 SHL PUSH1 0x0 MSTORE PUSH1 0x41 PUSH1 0x4 MSTORE PUSH1 0x24 PUSH1 0x0 REVERT JUMPDEST PUSH1 0x40 MLOAD PUSH1 0x1F DUP3 ADD PUSH1 0x1F NOT AND DUP2 ADD PUSH8 0xFFFFFFFFFFFFFFFF DUP2 GT DUP3 DUP3 LT OR ISZERO PUSH2 0x1F37 JUMPI PUSH2 0x1F37 PUSH2 0x1EF8 JUMP JUMPDEST PUSH1 0x40 MSTORE SWAP2 SWAP1 POP JUMP JUMPDEST PUSH1 0x0 PUSH8 0xFFFFFFFFFFFFFFFF DUP3 GT ISZERO PUSH2 0x1F59 JUMPI PUSH2 0x1F59 PUSH2 0x1EF8 JUMP JUMPDEST POP PUSH1 0x1F ADD PUSH1 0x1F NOT AND PUSH1 0x20 ADD SWAP1 JUMP JUMPDEST PUSH1 0x0 PUSH1 0x20 DUP3 DUP5 SUB SLT ISZERO PUSH2 0x1F79 JUMPI PUSH1 0x0 DUP1 REVERT JUMPDEST DUP2 CALLDATALOAD PUSH8 0xFFFFFFFFFFFFFFFF DUP2 GT ISZERO PUSH2 0x1F90 JUMPI PUSH1 0x0 DUP1 REVERT JUMPDEST DUP3 ADD PUSH1 0x1F DUP2 ADD DUP5 SGT PUSH2 0x1FA1 JUMPI PUSH1 0x0 DUP1 REVERT JUMPDEST DUP1 CALLDATALOAD PUSH2 0x1FB4 PUSH2 0x1FAF DUP3 PUSH2 0x1F3F JUMP JUMPDEST PUSH2 0x1F0E JUMP JUMPDEST DUP2 DUP2 MSTORE DUP6 PUSH1 0x20 DUP4 DUP6 ADD ADD GT ISZERO PUSH2 0x1FC9 JUMPI PUSH1 0x0 DUP1 REVERT JUMPDEST DUP2 PUSH1 0x20 DUP5 ADD PUSH1 0x20 DUP4 ADD CALLDATACOPY PUSH1 0x0 SWAP2 DUP2 ADD PUSH1 0x20 ADD SWAP2 SWAP1 SWAP2 MSTORE SWAP5 SWAP4 POP POP POP POP JUMP JUMPDEST PUSH1 0x0 JUMPDEST DUP4 DUP2 LT ISZERO PUSH2 0x2002 JUMPI DUP2 DUP2 ADD MLOAD DUP4 DUP3 ADD MSTORE PUSH1 0x20 ADD PUSH2 0x1FEA JUMP JUMPDEST POP POP PUSH1 0x0 SWAP2 ADD MSTORE JUMP JUMPDEST PUSH1 0x0 DUP2 MLOAD DUP1 DUP5 MSTORE PUSH2 0x2023 DUP2 PUSH1 0x20 DUP7 ADD PUSH1 0x20 DUP7 ADD PUSH2 0x1FE7 JUMP JUMPDEST PUSH1 0x1F ADD PUSH1 0x1F NOT AND SWAP3 SWAP1 SWAP3 ADD PUSH1 0x20 ADD SWAP3 SWAP2 POP POP JUMP JUMPDEST DUP3 ISZERO ISZERO DUP2 MSTORE PUSH1 0x40 PUSH1 0x20 DUP3 ADD MSTORE PUSH1 0x0 PUSH2 0x1B13 PUSH1 0x40 DUP4 ADD DUP5 PUSH2 0x200B JUMP JUMPDEST PUSH1 0x1 DUP2 DUP2 SHR SWAP1 DUP3 AND DUP1 PUSH2 0x2066 JUMPI PUSH1 0x7F DUP3 AND SWAP2 POP JUMPDEST PUSH1 0x20 DUP3 LT DUP2 SUB PUSH2 0x84B JUMPI PUSH4 0x4E487B71 PUSH1 0xE0 SHL PUSH1 0x0 MSTORE PUSH1 0x22 PUSH1 0x4 MSTORE PUSH1 0x24 PUSH1 0x0 REVERT JUMPDEST DUP7 DUP2 MSTORE PUSH1 0x0 PUSH1 0x20 DUP8 DUP2 DUP5 ADD MSTORE PUSH1 0xC0 PUSH1 0x40 DUP5 ADD MSTORE PUSH1 0x0 DUP8 SLOAD PUSH2 0x20A6 DUP2 PUSH2 0x2052 JUMP JUMPDEST DUP1 PUSH1 0xC0 DUP8 ADD MSTORE PUSH1 0xE0 PUSH1 0x1 DUP1 DUP5 AND PUSH1 0x0 DUP2 EQ PUSH2 0x20C8 JUMPI PUSH1 0x1 DUP2 EQ PUSH2 0x20E2 JUMPI PUSH2 0x2110 JUMP JUMPDEST PUSH1 0xFF NOT DUP6 AND DUP10 DUP5 ADD MSTORE DUP4 ISZERO ISZERO PUSH1 0x5 SHL DUP10 ADD DUP4 ADD SWAP6 POP PUSH2 0x2110 JUMP JUMPDEST DUP13 PUSH1 0x0 MSTORE DUP7 PUSH1 0x0 KECCAK256 PUSH1 0x0 JUMPDEST DUP6 DUP2 LT ISZERO PUSH2 0x2108 JUMPI DUP2 SLOAD DUP12 DUP3 ADD DUP7 ADD MSTORE SWAP1 DUP4 ADD SWAP1 DUP9 ADD PUSH2 0x20ED JUMP JUMPDEST DUP11 ADD DUP5 ADD SWAP7 POP POP JUMPDEST POP POP POP POP POP DUP4 DUP2 SUB PUSH1 0x60 DUP6 ADD MSTORE PUSH2 0x2127 DUP2 DUP9 PUSH2 0x200B JUMP JUMPDEST SWAP2 POP POP DUP3 DUP2 SUB PUSH1 0x80 DUP5 ADD MSTORE PUSH2 0x213C DUP2 DUP7 PUSH2 0x200B JUMP JUMPDEST SWAP2 POP POP DUP3 PUSH1 0xA0 DUP4 ADD MSTORE SWAP8 SWAP7 POP POP POP POP POP POP POP JUMP JUMPDEST PUSH4 0x4E487B71 PUSH1 0xE0 SHL PUSH1 0x0 MSTORE PUSH1 0x12 PUSH1 0x4 MSTORE PUSH1 0x24 PUSH1 0x0 REVERT JUMPDEST PUSH4 0x4E487B71 PUSH1 0xE0 SHL PUSH1 0x0 MSTORE PUSH1 0x11 PUSH1 0x4 MSTORE PUSH1 0x24 PUSH1 0x0 REVERT JUMPDEST PUSH1 0x0 PUSH1 0xFF DUP4 AND DUP1 PUSH2 0x218F JUMPI PUSH2 0x218F PUSH2 0x2150 JUMP JUMPDEST DUP1 PUSH1 0xFF DUP5 AND DIV SWAP2 POP POP SWAP3 SWAP2 POP POP JUMP JUMPDEST DUP1 DUP3 MUL DUP2 ISZERO DUP3 DUP3 DIV DUP5 EQ OR PUSH2 0x1CEF JUMPI PUSH2 0x1CEF PUSH2 0x2166 JUMP JUMPDEST DUP2 DUP2 SUB DUP2 DUP2 GT ISZERO PUSH2 0x1CEF JUMPI PUSH2 0x1CEF PUSH2 0x2166 JUMP JUMPDEST PUSH1 0x1F DUP3 GT ISZERO PUSH2 0x2212 JUMPI PUSH1 0x0 DUP2 DUP2 MSTORE PUSH1 0x20 DUP2 KECCAK256 PUSH1 0x1F DUP6 ADD PUSH1 0x5 SHR DUP2 ADD PUSH1 0x20 DUP7 LT ISZERO PUSH2 0x21EF JUMPI POP DUP1 JUMPDEST PUSH1 0x1F DUP6 ADD PUSH1 0x5 SHR DUP3 ADD SWAP2 POP JUMPDEST DUP2 DUP2 LT ISZERO PUSH2 0x220E JUMPI DUP3 DUP2 SSTORE PUSH1 0x1 ADD PUSH2 0x21FB JUMP JUMPDEST POP POP POP JUMPDEST POP POP POP JUMP JUMPDEST DUP2 MLOAD PUSH8 0xFFFFFFFFFFFFFFFF DUP2 GT ISZERO PUSH2 0x2231 JUMPI PUSH2 0x2231 PUSH2 0x1EF8 JUMP JUMPDEST PUSH2 0x2245 DUP2 PUSH2 0x223F DUP5 SLOAD PUSH2 0x2052 JUMP JUMPDEST DUP5 PUSH2 0x21C8 JUMP JUMPDEST PUSH1 0x20 DUP1 PUSH1 0x1F DUP4 GT PUSH1 0x1 DUP2 EQ PUSH2 0x227A JUMPI PUSH1 0x0 DUP5 ISZERO PUSH2 0x2262 JUMPI POP DUP6 DUP4 ADD MLOAD JUMPDEST PUSH1 0x0 NOT PUSH1 0x3 DUP7 SWAP1 SHL SHR NOT AND PUSH1 0x1 DUP6 SWAP1 SHL OR DUP6 SSTORE PUSH2 0x220E JUMP JUMPDEST PUSH1 0x0 DUP6 DUP2 MSTORE PUSH1 0x20 DUP2 KECCAK256 PUSH1 0x1F NOT DUP7 AND SWAP2 JUMPDEST DUP3 DUP2 LT ISZERO PUSH2 0x22A9 JUMPI DUP9 DUP7 ADD MLOAD DUP3 SSTORE SWAP5 DUP5 ADD SWAP5 PUSH1 0x1 SWAP1 SWAP2 ADD SWAP1 DUP5 ADD PUSH2 0x228A JUMP JUMPDEST POP DUP6 DUP3 LT ISZERO PUSH2 0x22C7 JUMPI DUP8 DUP6 ADD MLOAD PUSH1 0x0 NOT PUSH1 0x3 DUP9 SWAP1 SHL PUSH1 0xF8 AND SHR NOT AND DUP2 SSTORE JUMPDEST POP POP POP POP POP PUSH1 0x1 SWAP1 DUP2 SHL ADD SWAP1 SSTORE POP JUMP JUMPDEST PUSH1 0x20 DUP1 DUP3 MSTORE PUSH1 0x19 SWAP1 DUP3 ADD MSTORE PUSH32 0x4F6E6C79205469636B657420427579657220616C6C6F77656400000000000000 PUSH1 0x40 DUP3 ADD MSTORE PUSH1 0x60 ADD SWAP1 JUMP JUMPDEST PUSH1 0x1 PUSH1 0x1 PUSH1 0xA0 SHL SUB DUP4 AND DUP2 MSTORE PUSH1 0x40 PUSH1 0x20 DUP3 ADD DUP2 SWAP1 MSTORE PUSH1 0x0 SWAP1 PUSH2 0x1B13 SWAP1 DUP4 ADD DUP5 PUSH2 0x200B JUMP JUMPDEST DUP1 MLOAD DUP1 ISZERO ISZERO DUP2 EQ PUSH2 0x84D JUMPI PUSH1 0x0 DUP1 REVERT JUMPDEST PUSH1 0x0 PUSH1 0x20 DUP3 DUP5 SUB SLT ISZERO PUSH2 0x2354 JUMPI PUSH1 0x0 DUP1 REVERT JUMPDEST PUSH2 0x1C56 DUP3 PUSH2 0x2332 JUMP JUMPDEST PUSH1 0x0 DUP1 PUSH1 0x0 DUP1 PUSH1 0x0 DUP1 PUSH1 0xC0 DUP8 DUP10 SUB SLT ISZERO PUSH2 0x2376 JUMPI PUSH1 0x0 DUP1 REVERT JUMPDEST DUP7 MLOAD PUSH2 0x2381 DUP2 PUSH2 0x1EAE JUMP JUMPDEST PUSH1 0x20 DUP9 ADD MLOAD PUSH1 0x40 DUP10 ADD MLOAD PUSH1 0x60 DUP11 ADD MLOAD PUSH1 0x80 DUP12 ADD MLOAD PUSH1 0xA0 SWAP1 SWAP12 ADD MLOAD SWAP4 SWAP13 SWAP3 SWAP12 POP SWAP1 SWAP10 SWAP1 SWAP9 POP SWAP7 POP SWAP1 SWAP5 POP SWAP3 POP POP POP JUMP JUMPDEST PUSH1 0x0 DUP1 PUSH1 0x40 DUP4 DUP6 SUB SLT ISZERO PUSH2 0x23C3 JUMPI PUSH1 0x0 DUP1 REVERT JUMPDEST PUSH2 0x23CC DUP4 PUSH2 0x2332 JUMP JUMPDEST SWAP2 POP PUSH1 0x20 DUP4 ADD MLOAD PUSH8 0xFFFFFFFFFFFFFFFF DUP2 GT ISZERO PUSH2 0x23E8 JUMPI PUSH1 0x0 DUP1 REVERT JUMPDEST DUP4 ADD PUSH1 0x1F DUP2 ADD DUP6 SGT PUSH2 0x23F9 JUMPI PUSH1 0x0 DUP1 REVERT JUMPDEST DUP1 MLOAD PUSH2 0x2407 PUSH2 0x1FAF DUP3 PUSH2 0x1F3F JUMP JUMPDEST DUP2 DUP2 MSTORE DUP7 PUSH1 0x20 DUP4 DUP6 ADD ADD GT ISZERO PUSH2 0x241C JUMPI PUSH1 0x0 DUP1 REVERT JUMPDEST PUSH2 0x242D DUP3 PUSH1 0x20 DUP4 ADD PUSH1 0x20 DUP7 ADD PUSH2 0x1FE7 JUMP JUMPDEST DUP1 SWAP4 POP POP POP POP SWAP3 POP SWAP3 SWAP1 POP JUMP JUMPDEST DUP3 DUP2 MSTORE PUSH1 0x40 PUSH1 0x20 DUP3 ADD MSTORE PUSH1 0x0 PUSH2 0x1B13 PUSH1 0x40 DUP4 ADD DUP5 PUSH2 0x200B JUMP JUMPDEST PUSH1 0x0 PUSH1 0x20 DUP3 DUP5 SUB SLT ISZERO PUSH2 0x2465 JUMPI PUSH1 0x0 DUP1 REVERT JUMPDEST DUP2 MLOAD PUSH2 0x1C56 DUP2 PUSH2 0x1EAE JUMP JUMPDEST PUSH1 0x20 DUP1 DUP3 MSTORE PUSH1 0x3A SWAP1 DUP3 ADD MSTORE PUSH32 0x4552523A205469636B65742063616E63656C6C6174696F6E206661696C65642E PUSH1 0x40 DUP3 ADD MSTORE PUSH32 0x20436F6E7461637420637573746F6D657220737570706F72742E000000000000 PUSH1 0x60 DUP3 ADD MSTORE PUSH1 0x80 ADD SWAP1 JUMP JUMPDEST PUSH1 0x20 DUP2 MSTORE PUSH1 0x0 PUSH2 0x1C56 PUSH1 0x20 DUP4 ADD DUP5 PUSH2 0x200B JUMP JUMPDEST PUSH32 0x494E464F3A205469636B65742043616E63656C6C65642E205469636B65742023 DUP2 MSTORE PUSH1 0x1 PUSH1 0xFD SHL PUSH1 0x20 DUP3 ADD MSTORE PUSH1 0x0 DUP3 MLOAD PUSH2 0x2522 DUP2 PUSH1 0x21 DUP6 ADD PUSH1 0x20 DUP8 ADD PUSH2 0x1FE7 JUMP JUMPDEST SWAP2 SWAP1 SWAP2 ADD PUSH1 0x21 ADD SWAP3 SWAP2 POP POP JUMP JUMPDEST PUSH1 0x0 PUSH1 0x1 DUP3 ADD PUSH2 0x2541 JUMPI PUSH2 0x2541 PUSH2 0x2166 JUMP JUMPDEST POP PUSH1 0x1 ADD SWAP1 JUMP JUMPDEST PUSH1 0x0 DUP3 PUSH2 0x2557 JUMPI PUSH2 0x2557 PUSH2 0x2150 JUMP JUMPDEST POP DIV SWAP1 JUMP JUMPDEST PUSH1 0x0 DUP2 PUSH2 0x256B JUMPI PUSH2 0x256B PUSH2 0x2166 JUMP JUMPDEST POP PUSH1 0x0 NOT ADD SWAP1 JUMP JUMPDEST PUSH1 0x0 DUP3 PUSH2 0x2582 JUMPI PUSH2 0x2582 PUSH2 0x2150 JUMP JUMPDEST POP MOD SWAP1 JUMP JUMPDEST DUP1 DUP3 ADD DUP1 DUP3 GT ISZERO PUSH2 0x1CEF JUMPI PUSH2 0x1CEF PUSH2 0x2166 JUMP JUMPDEST PUSH4 0x4E487B71 PUSH1 0xE0 SHL PUSH1 0x0 MSTORE PUSH1 0x32 PUSH1 0x4 MSTORE PUSH1 0x24 PUSH1 0x0 REVERT JUMPDEST PUSH1 0x40 DUP2 MSTORE PUSH1 0x0 PUSH2 0x25C3 PUSH1 0x40 DUP4 ADD DUP6 PUSH2 0x200B JUMP JUMPDEST SWAP1 POP DUP3 PUSH1 0x20 DUP4 ADD MSTORE SWAP4 SWAP3 POP POP POP JUMP JUMPDEST PUSH1 0x40 DUP2 MSTORE PUSH1 0x0 PUSH2 0x25E5 PUSH1 0x40 DUP4 ADD DUP6 PUSH2 0x200B JUMP JUMPDEST SWAP1 POP DUP3 ISZERO ISZERO PUSH1 0x20 DUP4 ADD MSTORE SWAP4 SWAP3 POP POP POP JUMP INVALID GASLIMIT MSTORE MSTORE GASPRICE KECCAK256 0x49 PUSH15 0x73756666696369656E742066756E64 PUSH20 0x2E20436F6E7461637420637573746F6D65722073 PUSH22 0x70706F72742EA26469706673582212202B579DC428EA DIV PUSH13 0x8173CB84863F8126E11FA42D4E STATICCALL LOG4 0xB8 JUMP DUP13 INVALID 0xA5 0xD0 0xD6 0x5D INVALID PUSH5 0x736F6C6343 STOP ADDMOD SLT STOP CALLER LOG2 PUSH5 0x6970667358 0x22 SLT KECCAK256 0x4B DUP2 LOG0 0xEA 0xC4 PUSH31 0x2E43544E215D8A96DC742F4500ADB582FF8D228A373507DF1C7064736F6C63 NUMBER STOP ADDMOD SLT STOP CALLER "
		},
		"gasEstimates": {
			"creation": {
				"codeDepositCost": "2425400",
				"executionCost": "2605",
				"totalCost": "2428005"
			},
			"external": {
				"createTicket(address,address,address,uint256,uint256,string,uint256,uint256)": "infinite"
			}
		},
		"methodIdentifiers": {
			"createTicket(address,address,address,uint256,uint256,string,uint256,uint256)": "18b552bb"
		}
	},
	"abi": [
		{
			"inputs": [
				{
					"internalType": "address",
					"name": "eagleAir",
					"type": "address"
				},
				{
					"internalType": "address",
					"name": "opAddress",
					"type": "address"
				},
				{
					"internalType": "address",
					"name": "buyer",
					"type": "address"
				},
				{
					"internalType": "uint256",
					"name": "ticketNum",
					"type": "uint256"
				},
				{
					"internalType": "uint256",
					"name": "flightNum",
					"type": "uint256"
				},
				{
					"internalType": "string",
					"name": "seatNum",
					"type": "string"
				},
				{
					"internalType": "uint256",
					"name": "ticketAmount",
					"type": "uint256"
				},
				{
					"internalType": "uint256",
					"name": "schDepTS",
					"type": "uint256"
				}
			],
			"name": "createTicket",
			"outputs": [
				{
					"internalType": "contract EagleTicket",
					"name": "ticketContract",
					"type": "address"
				}
			],
			"stateMutability": "nonpayable",
			"type": "function"
		}
	]
}